{
	"contracts/MultiSigWallet1.sol": {
		"MultiSigWallet1": {
			"abi": [
				{
					"inputs": [
						{
							"internalType": "address[]",
							"name": "_owners",
							"type": "address[]"
						},
						{
							"internalType": "uint256",
							"name": "_required",
							"type": "uint256"
						}
					],
					"stateMutability": "nonpayable",
					"type": "constructor"
				},
				{
					"anonymous": false,
					"inputs": [
						{
							"indexed": false,
							"internalType": "address",
							"name": "owner",
							"type": "address"
						},
						{
							"indexed": false,
							"internalType": "uint256",
							"name": "txId",
							"type": "uint256"
						}
					],
					"name": "Approve",
					"type": "event"
				},
				{
					"anonymous": false,
					"inputs": [
						{
							"indexed": false,
							"internalType": "address",
							"name": "sender",
							"type": "address"
						},
						{
							"indexed": false,
							"internalType": "uint256",
							"name": "amount",
							"type": "uint256"
						}
					],
					"name": "Deposit",
					"type": "event"
				},
				{
					"anonymous": false,
					"inputs": [
						{
							"indexed": false,
							"internalType": "address",
							"name": "owner",
							"type": "address"
						},
						{
							"indexed": false,
							"internalType": "uint256",
							"name": "txId",
							"type": "uint256"
						}
					],
					"name": "Excute",
					"type": "event"
				},
				{
					"anonymous": false,
					"inputs": [
						{
							"indexed": false,
							"internalType": "address",
							"name": "owner",
							"type": "address"
						},
						{
							"indexed": false,
							"internalType": "uint256",
							"name": "txId",
							"type": "uint256"
						}
					],
					"name": "Revoke",
					"type": "event"
				},
				{
					"anonymous": false,
					"inputs": [
						{
							"indexed": false,
							"internalType": "uint256",
							"name": "txId",
							"type": "uint256"
						}
					],
					"name": "Submit",
					"type": "event"
				},
				{
					"inputs": [
						{
							"internalType": "uint256",
							"name": "txId",
							"type": "uint256"
						}
					],
					"name": "approve",
					"outputs": [],
					"stateMutability": "nonpayable",
					"type": "function"
				},
				{
					"inputs": [
						{
							"internalType": "uint256",
							"name": "txId",
							"type": "uint256"
						}
					],
					"name": "excute",
					"outputs": [],
					"stateMutability": "nonpayable",
					"type": "function"
				},
				{
					"inputs": [
						{
							"internalType": "uint256",
							"name": "",
							"type": "uint256"
						}
					],
					"name": "owners",
					"outputs": [
						{
							"internalType": "address",
							"name": "",
							"type": "address"
						}
					],
					"stateMutability": "view",
					"type": "function"
				},
				{
					"inputs": [],
					"name": "required",
					"outputs": [
						{
							"internalType": "uint256",
							"name": "",
							"type": "uint256"
						}
					],
					"stateMutability": "view",
					"type": "function"
				},
				{
					"inputs": [
						{
							"internalType": "uint256",
							"name": "txId",
							"type": "uint256"
						}
					],
					"name": "revoke",
					"outputs": [],
					"stateMutability": "nonpayable",
					"type": "function"
				},
				{
					"inputs": [
						{
							"internalType": "address",
							"name": "_to",
							"type": "address"
						},
						{
							"internalType": "uint256",
							"name": "_value",
							"type": "uint256"
						},
						{
							"internalType": "bytes",
							"name": "_data",
							"type": "bytes"
						}
					],
					"name": "submit",
					"outputs": [],
					"stateMutability": "nonpayable",
					"type": "function"
				},
				{
					"inputs": [
						{
							"internalType": "uint256",
							"name": "",
							"type": "uint256"
						}
					],
					"name": "transactions",
					"outputs": [
						{
							"internalType": "address",
							"name": "to",
							"type": "address"
						},
						{
							"internalType": "uint256",
							"name": "value",
							"type": "uint256"
						},
						{
							"internalType": "bytes",
							"name": "data",
							"type": "bytes"
						},
						{
							"internalType": "bool",
							"name": "excuted",
							"type": "bool"
						}
					],
					"stateMutability": "view",
					"type": "function"
				},
				{
					"stateMutability": "payable",
					"type": "receive"
				}
			],
			"devdoc": {
				"kind": "dev",
				"methods": {},
				"version": 1
			},
			"evm": {
				"assembly": "    /* \"contracts/MultiSigWallet1.sol\":59:3308  contract MultiSigWallet1 {\r... */\n  mstore(0x40, 0x80)\n    /* \"contracts/MultiSigWallet1.sol\":1129:1719  constructor(address[] memory _owners,uint _required) {\r... */\n  callvalue\n  dup1\n  iszero\n  tag_1\n  jumpi\n  0x00\n  dup1\n  revert\ntag_1:\n  pop\n  mload(0x40)\n  sub(codesize, bytecodeSize)\n  dup1\n  bytecodeSize\n  dup4\n  codecopy\n  dup2\n  dup2\n  add\n  0x40\n  mstore\n  dup2\n  add\n  swap1\n  tag_2\n  swap2\n  swap1\n  tag_3\n  jump\t// in\ntag_2:\n    /* \"contracts/MultiSigWallet1.sol\":1218:1219  0 */\n  0x00\n    /* \"contracts/MultiSigWallet1.sol\":1201:1208  _owners */\n  dup3\n    /* \"contracts/MultiSigWallet1.sol\":1201:1215  _owners.length */\n  mload\n    /* \"contracts/MultiSigWallet1.sol\":1201:1219  _owners.length > 0 */\n  gt\n    /* \"contracts/MultiSigWallet1.sol\":1193:1253  require(_owners.length > 0,\"owners must be greater than 0 \") */\n  tag_6\n  jumpi\n  mload(0x40)\n  0x08c379a000000000000000000000000000000000000000000000000000000000\n  dup2\n  mstore\n  0x04\n  add\n  tag_7\n  swap1\n  tag_8\n  jump\t// in\ntag_7:\n  mload(0x40)\n  dup1\n  swap2\n  sub\n  swap1\n  revert\ntag_6:\n    /* \"contracts/MultiSigWallet1.sol\":1298:1299  0 */\n  0x00\n    /* \"contracts/MultiSigWallet1.sol\":1286:1295  _required */\n  dup2\n    /* \"contracts/MultiSigWallet1.sol\":1286:1299  _required > 0 */\n  gt\n    /* \"contracts/MultiSigWallet1.sol\":1286:1331  _required > 0 && _required <=  _owners.length */\n  dup1\n  iszero\n  tag_9\n  jumpi\n  pop\n    /* \"contracts/MultiSigWallet1.sol\":1317:1324  _owners */\n  dup2\n    /* \"contracts/MultiSigWallet1.sol\":1317:1331  _owners.length */\n  mload\n    /* \"contracts/MultiSigWallet1.sol\":1303:1312  _required */\n  dup2\n    /* \"contracts/MultiSigWallet1.sol\":1303:1331  _required <=  _owners.length */\n  gt\n  iszero\n    /* \"contracts/MultiSigWallet1.sol\":1286:1331  _required > 0 && _required <=  _owners.length */\ntag_9:\n    /* \"contracts/MultiSigWallet1.sol\":1264:1380  require(\r... */\n  tag_10\n  jumpi\n  mload(0x40)\n  0x08c379a000000000000000000000000000000000000000000000000000000000\n  dup2\n  mstore\n  0x04\n  add\n  tag_11\n  swap1\n  tag_12\n  jump\t// in\ntag_11:\n  mload(0x40)\n  dup1\n  swap2\n  sub\n  swap1\n  revert\ntag_10:\n    /* \"contracts/MultiSigWallet1.sol\":1398:1404  uint i */\n  0x00\n    /* \"contracts/MultiSigWallet1.sol\":1393:1681  for (uint i; i <= _owners.length - 1; i++) {\r... */\ntag_13:\n    /* \"contracts/MultiSigWallet1.sol\":1428:1429  1 */\n  0x01\n    /* \"contracts/MultiSigWallet1.sol\":1411:1418  _owners */\n  dup4\n    /* \"contracts/MultiSigWallet1.sol\":1411:1425  _owners.length */\n  mload\n    /* \"contracts/MultiSigWallet1.sol\":1411:1429  _owners.length - 1 */\n  tag_16\n  swap2\n  swap1\n  tag_17\n  jump\t// in\ntag_16:\n    /* \"contracts/MultiSigWallet1.sol\":1406:1407  i */\n  dup2\n    /* \"contracts/MultiSigWallet1.sol\":1406:1429  i <= _owners.length - 1 */\n  gt\n    /* \"contracts/MultiSigWallet1.sol\":1393:1681  for (uint i; i <= _owners.length - 1; i++) {\r... */\n  tag_14\n  jumpi\n    /* \"contracts/MultiSigWallet1.sol\":1451:1464  address owner */\n  0x00\n    /* \"contracts/MultiSigWallet1.sol\":1467:1474  _owners */\n  dup4\n    /* \"contracts/MultiSigWallet1.sol\":1475:1476  i */\n  dup3\n    /* \"contracts/MultiSigWallet1.sol\":1467:1477  _owners[i] */\n  dup2\n  mload\n  dup2\n  lt\n  tag_18\n  jumpi\n  tag_19\n  tag_20\n  jump\t// in\ntag_19:\ntag_18:\n  0x20\n  mul\n  0x20\n  add\n  add\n  mload\n    /* \"contracts/MultiSigWallet1.sol\":1451:1477  address owner = _owners[i] */\n  swap1\n  pop\n    /* \"contracts/MultiSigWallet1.sol\":1517:1518  0 */\n  0x00\n    /* \"contracts/MultiSigWallet1.sol\":1500:1519  owner != address(0) */\n  0xffffffffffffffffffffffffffffffffffffffff\n  and\n    /* \"contracts/MultiSigWallet1.sol\":1500:1505  owner */\n  dup2\n    /* \"contracts/MultiSigWallet1.sol\":1500:1519  owner != address(0) */\n  0xffffffffffffffffffffffffffffffffffffffff\n  and\n  eq\n  iszero\n    /* \"contracts/MultiSigWallet1.sol\":1492:1538  require(owner != address(0),\"invalid address\") */\n  tag_21\n  jumpi\n  mload(0x40)\n  0x08c379a000000000000000000000000000000000000000000000000000000000\n  dup2\n  mstore\n  0x04\n  add\n  tag_22\n  swap1\n  tag_23\n  jump\t// in\ntag_22:\n  mload(0x40)\n  dup1\n  swap2\n  sub\n  swap1\n  revert\ntag_21:\n    /* \"contracts/MultiSigWallet1.sol\":1562:1569  ownerOf */\n  0x01\n    /* \"contracts/MultiSigWallet1.sol\":1562:1576  ownerOf[owner] */\n  0x00\n    /* \"contracts/MultiSigWallet1.sol\":1570:1575  owner */\n  dup3\n    /* \"contracts/MultiSigWallet1.sol\":1562:1576  ownerOf[owner] */\n  0xffffffffffffffffffffffffffffffffffffffff\n  and\n  0xffffffffffffffffffffffffffffffffffffffff\n  and\n  dup2\n  mstore\n  0x20\n  add\n  swap1\n  dup2\n  mstore\n  0x20\n  add\n  0x00\n  keccak256\n  0x00\n  swap1\n  sload\n  swap1\n  0x0100\n  exp\n  swap1\n  div\n  0xff\n  and\n    /* \"contracts/MultiSigWallet1.sol\":1561:1576  !ownerOf[owner] */\n  iszero\n    /* \"contracts/MultiSigWallet1.sol\":1553:1600  require(!ownerOf[owner], \"owner is not unique\") */\n  tag_24\n  jumpi\n  mload(0x40)\n  0x08c379a000000000000000000000000000000000000000000000000000000000\n  dup2\n  mstore\n  0x04\n  add\n  tag_25\n  swap1\n  tag_26\n  jump\t// in\ntag_25:\n  mload(0x40)\n  dup1\n  swap2\n  sub\n  swap1\n  revert\ntag_24:\n    /* \"contracts/MultiSigWallet1.sol\":1632:1636  true */\n  0x01\n    /* \"contracts/MultiSigWallet1.sol\":1615:1622  ownerOf */\n  dup1\n    /* \"contracts/MultiSigWallet1.sol\":1615:1629  ownerOf[owner] */\n  0x00\n    /* \"contracts/MultiSigWallet1.sol\":1623:1628  owner */\n  dup4\n    /* \"contracts/MultiSigWallet1.sol\":1615:1629  ownerOf[owner] */\n  0xffffffffffffffffffffffffffffffffffffffff\n  and\n  0xffffffffffffffffffffffffffffffffffffffff\n  and\n  dup2\n  mstore\n  0x20\n  add\n  swap1\n  dup2\n  mstore\n  0x20\n  add\n  0x00\n  keccak256\n  0x00\n    /* \"contracts/MultiSigWallet1.sol\":1615:1636  ownerOf[owner] = true */\n  0x0100\n  exp\n  dup2\n  sload\n  dup2\n  0xff\n  mul\n  not\n  and\n  swap1\n  dup4\n  iszero\n  iszero\n  mul\n  or\n  swap1\n  sstore\n  pop\n    /* \"contracts/MultiSigWallet1.sol\":1651:1657  owners */\n  0x00\n    /* \"contracts/MultiSigWallet1.sol\":1663:1668  owner */\n  dup2\n    /* \"contracts/MultiSigWallet1.sol\":1651:1669  owners.push(owner) */\n  swap1\n  dup1\n  0x01\n  dup2\n  sload\n  add\n  dup1\n  dup3\n  sstore\n  dup1\n  swap2\n  pop\n  pop\n  0x01\n  swap1\n  sub\n  swap1\n  0x00\n  mstore\n  keccak256(0x00, 0x20)\n  add\n  0x00\n  swap1\n  swap2\n  swap1\n  swap2\n  swap1\n  swap2\n  0x0100\n  exp\n  dup2\n  sload\n  dup2\n  0xffffffffffffffffffffffffffffffffffffffff\n  mul\n  not\n  and\n  swap1\n  dup4\n  0xffffffffffffffffffffffffffffffffffffffff\n  and\n  mul\n  or\n  swap1\n  sstore\n  pop\n    /* \"contracts/MultiSigWallet1.sol\":1436:1681  {\r... */\n  pop\n    /* \"contracts/MultiSigWallet1.sol\":1431:1434  i++ */\n  dup1\n  dup1\n  tag_28\n  swap1\n  tag_29\n  jump\t// in\ntag_28:\n  swap2\n  pop\n  pop\n    /* \"contracts/MultiSigWallet1.sol\":1393:1681  for (uint i; i <= _owners.length - 1; i++) {\r... */\n  jump(tag_13)\ntag_14:\n  pop\n    /* \"contracts/MultiSigWallet1.sol\":1702:1711  _required */\n  dup1\n    /* \"contracts/MultiSigWallet1.sol\":1691:1699  required */\n  0x03\n    /* \"contracts/MultiSigWallet1.sol\":1691:1711  required = _required */\n  dup2\n  swap1\n  sstore\n  pop\n    /* \"contracts/MultiSigWallet1.sol\":1129:1719  constructor(address[] memory _owners,uint _required) {\r... */\n  pop\n  pop\n    /* \"contracts/MultiSigWallet1.sol\":59:3308  contract MultiSigWallet1 {\r... */\n  jump(tag_30)\n    /* \"#utility.yul\":24:768   */\ntag_32:\n    /* \"#utility.yul\":131:136   */\n  0x00\n    /* \"#utility.yul\":156:237   */\n  tag_34\n    /* \"#utility.yul\":172:236   */\n  tag_35\n    /* \"#utility.yul\":229:235   */\n  dup5\n    /* \"#utility.yul\":172:236   */\n  tag_36\n  jump\t// in\ntag_35:\n    /* \"#utility.yul\":156:237   */\n  tag_37\n  jump\t// in\ntag_34:\n    /* \"#utility.yul\":147:237   */\n  swap1\n  pop\n    /* \"#utility.yul\":257:262   */\n  dup1\n    /* \"#utility.yul\":286:292   */\n  dup4\n    /* \"#utility.yul\":279:284   */\n  dup3\n    /* \"#utility.yul\":272:293   */\n  mstore\n    /* \"#utility.yul\":320:324   */\n  0x20\n    /* \"#utility.yul\":313:318   */\n  dup3\n    /* \"#utility.yul\":309:325   */\n  add\n    /* \"#utility.yul\":302:325   */\n  swap1\n  pop\n    /* \"#utility.yul\":346:352   */\n  dup3\n    /* \"#utility.yul\":396:399   */\n  dup6\n    /* \"#utility.yul\":388:392   */\n  0x20\n    /* \"#utility.yul\":380:386   */\n  dup7\n    /* \"#utility.yul\":376:393   */\n  mul\n    /* \"#utility.yul\":371:374   */\n  dup3\n    /* \"#utility.yul\":367:394   */\n  add\n    /* \"#utility.yul\":364:400   */\n  gt\n    /* \"#utility.yul\":361:504   */\n  iszero\n  tag_38\n  jumpi\n    /* \"#utility.yul\":415:494   */\n  tag_39\n  tag_40\n  jump\t// in\ntag_39:\n    /* \"#utility.yul\":361:504   */\ntag_38:\n    /* \"#utility.yul\":528:529   */\n  0x00\n    /* \"#utility.yul\":513:762   */\ntag_41:\n    /* \"#utility.yul\":538:544   */\n  dup6\n    /* \"#utility.yul\":535:536   */\n  dup2\n    /* \"#utility.yul\":532:545   */\n  lt\n    /* \"#utility.yul\":513:762   */\n  iszero\n  tag_43\n  jumpi\n    /* \"#utility.yul\":606:609   */\n  dup2\n    /* \"#utility.yul\":635:683   */\n  tag_44\n    /* \"#utility.yul\":679:682   */\n  dup9\n    /* \"#utility.yul\":667:677   */\n  dup3\n    /* \"#utility.yul\":635:683   */\n  tag_45\n  jump\t// in\ntag_44:\n    /* \"#utility.yul\":630:633   */\n  dup5\n    /* \"#utility.yul\":623:684   */\n  mstore\n    /* \"#utility.yul\":713:717   */\n  0x20\n    /* \"#utility.yul\":708:711   */\n  dup5\n    /* \"#utility.yul\":704:718   */\n  add\n    /* \"#utility.yul\":697:718   */\n  swap4\n  pop\n    /* \"#utility.yul\":747:751   */\n  0x20\n    /* \"#utility.yul\":742:745   */\n  dup4\n    /* \"#utility.yul\":738:752   */\n  add\n    /* \"#utility.yul\":731:752   */\n  swap3\n  pop\n    /* \"#utility.yul\":573:762   */\n  pop\n    /* \"#utility.yul\":560:561   */\n  0x01\n    /* \"#utility.yul\":557:558   */\n  dup2\n    /* \"#utility.yul\":553:562   */\n  add\n    /* \"#utility.yul\":548:562   */\n  swap1\n  pop\n    /* \"#utility.yul\":513:762   */\n  jump(tag_41)\ntag_43:\n    /* \"#utility.yul\":517:531   */\n  pop\n    /* \"#utility.yul\":137:768   */\n  pop\n  pop\n    /* \"#utility.yul\":24:768   */\n  swap4\n  swap3\n  pop\n  pop\n  pop\n  jump\t// out\n    /* \"#utility.yul\":774:917   */\ntag_45:\n    /* \"#utility.yul\":831:836   */\n  0x00\n    /* \"#utility.yul\":862:868   */\n  dup2\n    /* \"#utility.yul\":856:869   */\n  mload\n    /* \"#utility.yul\":847:869   */\n  swap1\n  pop\n    /* \"#utility.yul\":878:911   */\n  tag_47\n    /* \"#utility.yul\":905:910   */\n  dup2\n    /* \"#utility.yul\":878:911   */\n  tag_48\n  jump\t// in\ntag_47:\n    /* \"#utility.yul\":774:917   */\n  swap3\n  swap2\n  pop\n  pop\n  jump\t// out\n    /* \"#utility.yul\":940:1325   */\ntag_49:\n    /* \"#utility.yul\":1022:1027   */\n  0x00\n    /* \"#utility.yul\":1071:1074   */\n  dup3\n    /* \"#utility.yul\":1064:1068   */\n  0x1f\n    /* \"#utility.yul\":1056:1062   */\n  dup4\n    /* \"#utility.yul\":1052:1069   */\n  add\n    /* \"#utility.yul\":1048:1075   */\n  slt\n    /* \"#utility.yul\":1038:1160   */\n  tag_51\n  jumpi\n    /* \"#utility.yul\":1079:1158   */\n  tag_52\n  tag_53\n  jump\t// in\ntag_52:\n    /* \"#utility.yul\":1038:1160   */\ntag_51:\n    /* \"#utility.yul\":1189:1195   */\n  dup2\n    /* \"#utility.yul\":1183:1196   */\n  mload\n    /* \"#utility.yul\":1214:1319   */\n  tag_54\n    /* \"#utility.yul\":1315:1318   */\n  dup5\n    /* \"#utility.yul\":1307:1313   */\n  dup3\n    /* \"#utility.yul\":1300:1304   */\n  0x20\n    /* \"#utility.yul\":1292:1298   */\n  dup7\n    /* \"#utility.yul\":1288:1305   */\n  add\n    /* \"#utility.yul\":1214:1319   */\n  tag_32\n  jump\t// in\ntag_54:\n    /* \"#utility.yul\":1205:1319   */\n  swap2\n  pop\n    /* \"#utility.yul\":1028:1325   */\n  pop\n    /* \"#utility.yul\":940:1325   */\n  swap3\n  swap2\n  pop\n  pop\n  jump\t// out\n    /* \"#utility.yul\":1331:1474   */\ntag_55:\n    /* \"#utility.yul\":1388:1393   */\n  0x00\n    /* \"#utility.yul\":1419:1425   */\n  dup2\n    /* \"#utility.yul\":1413:1426   */\n  mload\n    /* \"#utility.yul\":1404:1426   */\n  swap1\n  pop\n    /* \"#utility.yul\":1435:1468   */\n  tag_57\n    /* \"#utility.yul\":1462:1467   */\n  dup2\n    /* \"#utility.yul\":1435:1468   */\n  tag_58\n  jump\t// in\ntag_57:\n    /* \"#utility.yul\":1331:1474   */\n  swap3\n  swap2\n  pop\n  pop\n  jump\t// out\n    /* \"#utility.yul\":1480:2190   */\ntag_3:\n    /* \"#utility.yul\":1584:1590   */\n  0x00\n    /* \"#utility.yul\":1592:1598   */\n  dup1\n    /* \"#utility.yul\":1641:1643   */\n  0x40\n    /* \"#utility.yul\":1629:1638   */\n  dup4\n    /* \"#utility.yul\":1620:1627   */\n  dup6\n    /* \"#utility.yul\":1616:1639   */\n  sub\n    /* \"#utility.yul\":1612:1644   */\n  slt\n    /* \"#utility.yul\":1609:1728   */\n  iszero\n  tag_60\n  jumpi\n    /* \"#utility.yul\":1647:1726   */\n  tag_61\n  tag_62\n  jump\t// in\ntag_61:\n    /* \"#utility.yul\":1609:1728   */\ntag_60:\n    /* \"#utility.yul\":1788:1789   */\n  0x00\n    /* \"#utility.yul\":1777:1786   */\n  dup4\n    /* \"#utility.yul\":1773:1790   */\n  add\n    /* \"#utility.yul\":1767:1791   */\n  mload\n    /* \"#utility.yul\":1818:1836   */\n  0xffffffffffffffff\n    /* \"#utility.yul\":1810:1816   */\n  dup2\n    /* \"#utility.yul\":1807:1837   */\n  gt\n    /* \"#utility.yul\":1804:1921   */\n  iszero\n  tag_63\n  jumpi\n    /* \"#utility.yul\":1840:1919   */\n  tag_64\n  tag_65\n  jump\t// in\ntag_64:\n    /* \"#utility.yul\":1804:1921   */\ntag_63:\n    /* \"#utility.yul\":1945:2034   */\n  tag_66\n    /* \"#utility.yul\":2026:2033   */\n  dup6\n    /* \"#utility.yul\":2017:2023   */\n  dup3\n    /* \"#utility.yul\":2006:2015   */\n  dup7\n    /* \"#utility.yul\":2002:2024   */\n  add\n    /* \"#utility.yul\":1945:2034   */\n  tag_49\n  jump\t// in\ntag_66:\n    /* \"#utility.yul\":1935:2034   */\n  swap3\n  pop\n    /* \"#utility.yul\":1738:2044   */\n  pop\n    /* \"#utility.yul\":2083:2085   */\n  0x20\n    /* \"#utility.yul\":2109:2173   */\n  tag_67\n    /* \"#utility.yul\":2165:2172   */\n  dup6\n    /* \"#utility.yul\":2156:2162   */\n  dup3\n    /* \"#utility.yul\":2145:2154   */\n  dup7\n    /* \"#utility.yul\":2141:2163   */\n  add\n    /* \"#utility.yul\":2109:2173   */\n  tag_55\n  jump\t// in\ntag_67:\n    /* \"#utility.yul\":2099:2173   */\n  swap2\n  pop\n    /* \"#utility.yul\":2054:2183   */\n  pop\n    /* \"#utility.yul\":1480:2190   */\n  swap3\n  pop\n  swap3\n  swap1\n  pop\n  jump\t// out\n    /* \"#utility.yul\":2196:2562   */\ntag_68:\n    /* \"#utility.yul\":2338:2341   */\n  0x00\n    /* \"#utility.yul\":2359:2426   */\n  tag_70\n    /* \"#utility.yul\":2423:2425   */\n  0x13\n    /* \"#utility.yul\":2418:2421   */\n  dup4\n    /* \"#utility.yul\":2359:2426   */\n  tag_71\n  jump\t// in\ntag_70:\n    /* \"#utility.yul\":2352:2426   */\n  swap2\n  pop\n    /* \"#utility.yul\":2435:2528   */\n  tag_72\n    /* \"#utility.yul\":2524:2527   */\n  dup3\n    /* \"#utility.yul\":2435:2528   */\n  tag_73\n  jump\t// in\ntag_72:\n    /* \"#utility.yul\":2553:2555   */\n  0x20\n    /* \"#utility.yul\":2548:2551   */\n  dup3\n    /* \"#utility.yul\":2544:2556   */\n  add\n    /* \"#utility.yul\":2537:2556   */\n  swap1\n  pop\n    /* \"#utility.yul\":2196:2562   */\n  swap2\n  swap1\n  pop\n  jump\t// out\n    /* \"#utility.yul\":2568:2934   */\ntag_74:\n    /* \"#utility.yul\":2710:2713   */\n  0x00\n    /* \"#utility.yul\":2731:2798   */\n  tag_76\n    /* \"#utility.yul\":2795:2797   */\n  0x1e\n    /* \"#utility.yul\":2790:2793   */\n  dup4\n    /* \"#utility.yul\":2731:2798   */\n  tag_71\n  jump\t// in\ntag_76:\n    /* \"#utility.yul\":2724:2798   */\n  swap2\n  pop\n    /* \"#utility.yul\":2807:2900   */\n  tag_77\n    /* \"#utility.yul\":2896:2899   */\n  dup3\n    /* \"#utility.yul\":2807:2900   */\n  tag_78\n  jump\t// in\ntag_77:\n    /* \"#utility.yul\":2925:2927   */\n  0x20\n    /* \"#utility.yul\":2920:2923   */\n  dup3\n    /* \"#utility.yul\":2916:2928   */\n  add\n    /* \"#utility.yul\":2909:2928   */\n  swap1\n  pop\n    /* \"#utility.yul\":2568:2934   */\n  swap2\n  swap1\n  pop\n  jump\t// out\n    /* \"#utility.yul\":2940:3306   */\ntag_79:\n    /* \"#utility.yul\":3082:3085   */\n  0x00\n    /* \"#utility.yul\":3103:3170   */\n  tag_81\n    /* \"#utility.yul\":3167:3169   */\n  0x0f\n    /* \"#utility.yul\":3162:3165   */\n  dup4\n    /* \"#utility.yul\":3103:3170   */\n  tag_71\n  jump\t// in\ntag_81:\n    /* \"#utility.yul\":3096:3170   */\n  swap2\n  pop\n    /* \"#utility.yul\":3179:3272   */\n  tag_82\n    /* \"#utility.yul\":3268:3271   */\n  dup3\n    /* \"#utility.yul\":3179:3272   */\n  tag_83\n  jump\t// in\ntag_82:\n    /* \"#utility.yul\":3297:3299   */\n  0x20\n    /* \"#utility.yul\":3292:3295   */\n  dup3\n    /* \"#utility.yul\":3288:3300   */\n  add\n    /* \"#utility.yul\":3281:3300   */\n  swap1\n  pop\n    /* \"#utility.yul\":2940:3306   */\n  swap2\n  swap1\n  pop\n  jump\t// out\n    /* \"#utility.yul\":3312:3678   */\ntag_84:\n    /* \"#utility.yul\":3454:3457   */\n  0x00\n    /* \"#utility.yul\":3475:3542   */\n  tag_86\n    /* \"#utility.yul\":3539:3541   */\n  0x15\n    /* \"#utility.yul\":3534:3537   */\n  dup4\n    /* \"#utility.yul\":3475:3542   */\n  tag_71\n  jump\t// in\ntag_86:\n    /* \"#utility.yul\":3468:3542   */\n  swap2\n  pop\n    /* \"#utility.yul\":3551:3644   */\n  tag_87\n    /* \"#utility.yul\":3640:3643   */\n  dup3\n    /* \"#utility.yul\":3551:3644   */\n  tag_88\n  jump\t// in\ntag_87:\n    /* \"#utility.yul\":3669:3671   */\n  0x20\n    /* \"#utility.yul\":3664:3667   */\n  dup3\n    /* \"#utility.yul\":3660:3672   */\n  add\n    /* \"#utility.yul\":3653:3672   */\n  swap1\n  pop\n    /* \"#utility.yul\":3312:3678   */\n  swap2\n  swap1\n  pop\n  jump\t// out\n    /* \"#utility.yul\":3684:4103   */\ntag_26:\n    /* \"#utility.yul\":3850:3854   */\n  0x00\n    /* \"#utility.yul\":3888:3890   */\n  0x20\n    /* \"#utility.yul\":3877:3886   */\n  dup3\n    /* \"#utility.yul\":3873:3891   */\n  add\n    /* \"#utility.yul\":3865:3891   */\n  swap1\n  pop\n    /* \"#utility.yul\":3937:3946   */\n  dup2\n    /* \"#utility.yul\":3931:3935   */\n  dup2\n    /* \"#utility.yul\":3927:3947   */\n  sub\n    /* \"#utility.yul\":3923:3924   */\n  0x00\n    /* \"#utility.yul\":3912:3921   */\n  dup4\n    /* \"#utility.yul\":3908:3925   */\n  add\n    /* \"#utility.yul\":3901:3948   */\n  mstore\n    /* \"#utility.yul\":3965:4096   */\n  tag_90\n    /* \"#utility.yul\":4091:4095   */\n  dup2\n    /* \"#utility.yul\":3965:4096   */\n  tag_68\n  jump\t// in\ntag_90:\n    /* \"#utility.yul\":3957:4096   */\n  swap1\n  pop\n    /* \"#utility.yul\":3684:4103   */\n  swap2\n  swap1\n  pop\n  jump\t// out\n    /* \"#utility.yul\":4109:4528   */\ntag_8:\n    /* \"#utility.yul\":4275:4279   */\n  0x00\n    /* \"#utility.yul\":4313:4315   */\n  0x20\n    /* \"#utility.yul\":4302:4311   */\n  dup3\n    /* \"#utility.yul\":4298:4316   */\n  add\n    /* \"#utility.yul\":4290:4316   */\n  swap1\n  pop\n    /* \"#utility.yul\":4362:4371   */\n  dup2\n    /* \"#utility.yul\":4356:4360   */\n  dup2\n    /* \"#utility.yul\":4352:4372   */\n  sub\n    /* \"#utility.yul\":4348:4349   */\n  0x00\n    /* \"#utility.yul\":4337:4346   */\n  dup4\n    /* \"#utility.yul\":4333:4350   */\n  add\n    /* \"#utility.yul\":4326:4373   */\n  mstore\n    /* \"#utility.yul\":4390:4521   */\n  tag_92\n    /* \"#utility.yul\":4516:4520   */\n  dup2\n    /* \"#utility.yul\":4390:4521   */\n  tag_74\n  jump\t// in\ntag_92:\n    /* \"#utility.yul\":4382:4521   */\n  swap1\n  pop\n    /* \"#utility.yul\":4109:4528   */\n  swap2\n  swap1\n  pop\n  jump\t// out\n    /* \"#utility.yul\":4534:4953   */\ntag_23:\n    /* \"#utility.yul\":4700:4704   */\n  0x00\n    /* \"#utility.yul\":4738:4740   */\n  0x20\n    /* \"#utility.yul\":4727:4736   */\n  dup3\n    /* \"#utility.yul\":4723:4741   */\n  add\n    /* \"#utility.yul\":4715:4741   */\n  swap1\n  pop\n    /* \"#utility.yul\":4787:4796   */\n  dup2\n    /* \"#utility.yul\":4781:4785   */\n  dup2\n    /* \"#utility.yul\":4777:4797   */\n  sub\n    /* \"#utility.yul\":4773:4774   */\n  0x00\n    /* \"#utility.yul\":4762:4771   */\n  dup4\n    /* \"#utility.yul\":4758:4775   */\n  add\n    /* \"#utility.yul\":4751:4798   */\n  mstore\n    /* \"#utility.yul\":4815:4946   */\n  tag_94\n    /* \"#utility.yul\":4941:4945   */\n  dup2\n    /* \"#utility.yul\":4815:4946   */\n  tag_79\n  jump\t// in\ntag_94:\n    /* \"#utility.yul\":4807:4946   */\n  swap1\n  pop\n    /* \"#utility.yul\":4534:4953   */\n  swap2\n  swap1\n  pop\n  jump\t// out\n    /* \"#utility.yul\":4959:5378   */\ntag_12:\n    /* \"#utility.yul\":5125:5129   */\n  0x00\n    /* \"#utility.yul\":5163:5165   */\n  0x20\n    /* \"#utility.yul\":5152:5161   */\n  dup3\n    /* \"#utility.yul\":5148:5166   */\n  add\n    /* \"#utility.yul\":5140:5166   */\n  swap1\n  pop\n    /* \"#utility.yul\":5212:5221   */\n  dup2\n    /* \"#utility.yul\":5206:5210   */\n  dup2\n    /* \"#utility.yul\":5202:5222   */\n  sub\n    /* \"#utility.yul\":5198:5199   */\n  0x00\n    /* \"#utility.yul\":5187:5196   */\n  dup4\n    /* \"#utility.yul\":5183:5200   */\n  add\n    /* \"#utility.yul\":5176:5223   */\n  mstore\n    /* \"#utility.yul\":5240:5371   */\n  tag_96\n    /* \"#utility.yul\":5366:5370   */\n  dup2\n    /* \"#utility.yul\":5240:5371   */\n  tag_84\n  jump\t// in\ntag_96:\n    /* \"#utility.yul\":5232:5371   */\n  swap1\n  pop\n    /* \"#utility.yul\":4959:5378   */\n  swap2\n  swap1\n  pop\n  jump\t// out\n    /* \"#utility.yul\":5384:5513   */\ntag_37:\n    /* \"#utility.yul\":5418:5424   */\n  0x00\n    /* \"#utility.yul\":5445:5465   */\n  tag_98\n  tag_99\n  jump\t// in\ntag_98:\n    /* \"#utility.yul\":5435:5465   */\n  swap1\n  pop\n    /* \"#utility.yul\":5474:5507   */\n  tag_100\n    /* \"#utility.yul\":5502:5506   */\n  dup3\n    /* \"#utility.yul\":5494:5500   */\n  dup3\n    /* \"#utility.yul\":5474:5507   */\n  tag_101\n  jump\t// in\ntag_100:\n    /* \"#utility.yul\":5384:5513   */\n  swap2\n  swap1\n  pop\n  jump\t// out\n    /* \"#utility.yul\":5519:5594   */\ntag_99:\n    /* \"#utility.yul\":5552:5558   */\n  0x00\n    /* \"#utility.yul\":5585:5587   */\n  0x40\n    /* \"#utility.yul\":5579:5588   */\n  mload\n    /* \"#utility.yul\":5569:5588   */\n  swap1\n  pop\n    /* \"#utility.yul\":5519:5594   */\n  swap1\n  jump\t// out\n    /* \"#utility.yul\":5600:5911   */\ntag_36:\n    /* \"#utility.yul\":5677:5681   */\n  0x00\n    /* \"#utility.yul\":5767:5785   */\n  0xffffffffffffffff\n    /* \"#utility.yul\":5759:5765   */\n  dup3\n    /* \"#utility.yul\":5756:5786   */\n  gt\n    /* \"#utility.yul\":5753:5809   */\n  iszero\n  tag_104\n  jumpi\n    /* \"#utility.yul\":5789:5807   */\n  tag_105\n  tag_106\n  jump\t// in\ntag_105:\n    /* \"#utility.yul\":5753:5809   */\ntag_104:\n    /* \"#utility.yul\":5839:5843   */\n  0x20\n    /* \"#utility.yul\":5831:5837   */\n  dup3\n    /* \"#utility.yul\":5827:5844   */\n  mul\n    /* \"#utility.yul\":5819:5844   */\n  swap1\n  pop\n    /* \"#utility.yul\":5899:5903   */\n  0x20\n    /* \"#utility.yul\":5893:5897   */\n  dup2\n    /* \"#utility.yul\":5889:5904   */\n  add\n    /* \"#utility.yul\":5881:5904   */\n  swap1\n  pop\n    /* \"#utility.yul\":5600:5911   */\n  swap2\n  swap1\n  pop\n  jump\t// out\n    /* \"#utility.yul\":5917:6086   */\ntag_71:\n    /* \"#utility.yul\":6001:6012   */\n  0x00\n    /* \"#utility.yul\":6035:6041   */\n  dup3\n    /* \"#utility.yul\":6030:6033   */\n  dup3\n    /* \"#utility.yul\":6023:6042   */\n  mstore\n    /* \"#utility.yul\":6075:6079   */\n  0x20\n    /* \"#utility.yul\":6070:6073   */\n  dup3\n    /* \"#utility.yul\":6066:6080   */\n  add\n    /* \"#utility.yul\":6051:6080   */\n  swap1\n  pop\n    /* \"#utility.yul\":5917:6086   */\n  swap3\n  swap2\n  pop\n  pop\n  jump\t// out\n    /* \"#utility.yul\":6092:6283   */\ntag_17:\n    /* \"#utility.yul\":6132:6136   */\n  0x00\n    /* \"#utility.yul\":6152:6172   */\n  tag_109\n    /* \"#utility.yul\":6170:6171   */\n  dup3\n    /* \"#utility.yul\":6152:6172   */\n  tag_110\n  jump\t// in\ntag_109:\n    /* \"#utility.yul\":6147:6172   */\n  swap2\n  pop\n    /* \"#utility.yul\":6186:6206   */\n  tag_111\n    /* \"#utility.yul\":6204:6205   */\n  dup4\n    /* \"#utility.yul\":6186:6206   */\n  tag_110\n  jump\t// in\ntag_111:\n    /* \"#utility.yul\":6181:6206   */\n  swap3\n  pop\n    /* \"#utility.yul\":6225:6226   */\n  dup3\n    /* \"#utility.yul\":6222:6223   */\n  dup3\n    /* \"#utility.yul\":6219:6227   */\n  lt\n    /* \"#utility.yul\":6216:6250   */\n  iszero\n  tag_112\n  jumpi\n    /* \"#utility.yul\":6230:6248   */\n  tag_113\n  tag_114\n  jump\t// in\ntag_113:\n    /* \"#utility.yul\":6216:6250   */\ntag_112:\n    /* \"#utility.yul\":6275:6276   */\n  dup3\n    /* \"#utility.yul\":6272:6273   */\n  dup3\n    /* \"#utility.yul\":6268:6277   */\n  sub\n    /* \"#utility.yul\":6260:6277   */\n  swap1\n  pop\n    /* \"#utility.yul\":6092:6283   */\n  swap3\n  swap2\n  pop\n  pop\n  jump\t// out\n    /* \"#utility.yul\":6289:6385   */\ntag_115:\n    /* \"#utility.yul\":6326:6333   */\n  0x00\n    /* \"#utility.yul\":6355:6379   */\n  tag_117\n    /* \"#utility.yul\":6373:6378   */\n  dup3\n    /* \"#utility.yul\":6355:6379   */\n  tag_118\n  jump\t// in\ntag_117:\n    /* \"#utility.yul\":6344:6379   */\n  swap1\n  pop\n    /* \"#utility.yul\":6289:6385   */\n  swap2\n  swap1\n  pop\n  jump\t// out\n    /* \"#utility.yul\":6391:6517   */\ntag_118:\n    /* \"#utility.yul\":6428:6435   */\n  0x00\n    /* \"#utility.yul\":6468:6510   */\n  0xffffffffffffffffffffffffffffffffffffffff\n    /* \"#utility.yul\":6461:6466   */\n  dup3\n    /* \"#utility.yul\":6457:6511   */\n  and\n    /* \"#utility.yul\":6446:6511   */\n  swap1\n  pop\n    /* \"#utility.yul\":6391:6517   */\n  swap2\n  swap1\n  pop\n  jump\t// out\n    /* \"#utility.yul\":6523:6600   */\ntag_110:\n    /* \"#utility.yul\":6560:6567   */\n  0x00\n    /* \"#utility.yul\":6589:6594   */\n  dup2\n    /* \"#utility.yul\":6578:6594   */\n  swap1\n  pop\n    /* \"#utility.yul\":6523:6600   */\n  swap2\n  swap1\n  pop\n  jump\t// out\n    /* \"#utility.yul\":6606:6887   */\ntag_101:\n    /* \"#utility.yul\":6689:6716   */\n  tag_122\n    /* \"#utility.yul\":6711:6715   */\n  dup3\n    /* \"#utility.yul\":6689:6716   */\n  tag_123\n  jump\t// in\ntag_122:\n    /* \"#utility.yul\":6681:6687   */\n  dup2\n    /* \"#utility.yul\":6677:6717   */\n  add\n    /* \"#utility.yul\":6819:6825   */\n  dup2\n    /* \"#utility.yul\":6807:6817   */\n  dup2\n    /* \"#utility.yul\":6804:6826   */\n  lt\n    /* \"#utility.yul\":6783:6801   */\n  0xffffffffffffffff\n    /* \"#utility.yul\":6771:6781   */\n  dup3\n    /* \"#utility.yul\":6768:6802   */\n  gt\n    /* \"#utility.yul\":6765:6827   */\n  or\n    /* \"#utility.yul\":6762:6850   */\n  iszero\n  tag_124\n  jumpi\n    /* \"#utility.yul\":6830:6848   */\n  tag_125\n  tag_106\n  jump\t// in\ntag_125:\n    /* \"#utility.yul\":6762:6850   */\ntag_124:\n    /* \"#utility.yul\":6870:6880   */\n  dup1\n    /* \"#utility.yul\":6866:6868   */\n  0x40\n    /* \"#utility.yul\":6859:6881   */\n  mstore\n    /* \"#utility.yul\":6649:6887   */\n  pop\n    /* \"#utility.yul\":6606:6887   */\n  pop\n  pop\n  jump\t// out\n    /* \"#utility.yul\":6893:7126   */\ntag_29:\n    /* \"#utility.yul\":6932:6935   */\n  0x00\n    /* \"#utility.yul\":6955:6979   */\n  tag_127\n    /* \"#utility.yul\":6973:6978   */\n  dup3\n    /* \"#utility.yul\":6955:6979   */\n  tag_110\n  jump\t// in\ntag_127:\n    /* \"#utility.yul\":6946:6979   */\n  swap2\n  pop\n    /* \"#utility.yul\":7001:7067   */\n  0xffffffffffffffffffffffffffffffffffffffffffffffffffffffffffffffff\n    /* \"#utility.yul\":6994:6999   */\n  dup3\n    /* \"#utility.yul\":6991:7068   */\n  eq\n    /* \"#utility.yul\":6988:7091   */\n  iszero\n  tag_128\n  jumpi\n    /* \"#utility.yul\":7071:7089   */\n  tag_129\n  tag_114\n  jump\t// in\ntag_129:\n    /* \"#utility.yul\":6988:7091   */\ntag_128:\n    /* \"#utility.yul\":7118:7119   */\n  0x01\n    /* \"#utility.yul\":7111:7116   */\n  dup3\n    /* \"#utility.yul\":7107:7120   */\n  add\n    /* \"#utility.yul\":7100:7120   */\n  swap1\n  pop\n    /* \"#utility.yul\":6893:7126   */\n  swap2\n  swap1\n  pop\n  jump\t// out\n    /* \"#utility.yul\":7132:7312   */\ntag_114:\n    /* \"#utility.yul\":7180:7257   */\n  0x4e487b7100000000000000000000000000000000000000000000000000000000\n    /* \"#utility.yul\":7177:7178   */\n  0x00\n    /* \"#utility.yul\":7170:7258   */\n  mstore\n    /* \"#utility.yul\":7277:7281   */\n  0x11\n    /* \"#utility.yul\":7274:7275   */\n  0x04\n    /* \"#utility.yul\":7267:7282   */\n  mstore\n    /* \"#utility.yul\":7301:7305   */\n  0x24\n    /* \"#utility.yul\":7298:7299   */\n  0x00\n    /* \"#utility.yul\":7291:7306   */\n  revert\n    /* \"#utility.yul\":7318:7498   */\ntag_20:\n    /* \"#utility.yul\":7366:7443   */\n  0x4e487b7100000000000000000000000000000000000000000000000000000000\n    /* \"#utility.yul\":7363:7364   */\n  0x00\n    /* \"#utility.yul\":7356:7444   */\n  mstore\n    /* \"#utility.yul\":7463:7467   */\n  0x32\n    /* \"#utility.yul\":7460:7461   */\n  0x04\n    /* \"#utility.yul\":7453:7468   */\n  mstore\n    /* \"#utility.yul\":7487:7491   */\n  0x24\n    /* \"#utility.yul\":7484:7485   */\n  0x00\n    /* \"#utility.yul\":7477:7492   */\n  revert\n    /* \"#utility.yul\":7504:7684   */\ntag_106:\n    /* \"#utility.yul\":7552:7629   */\n  0x4e487b7100000000000000000000000000000000000000000000000000000000\n    /* \"#utility.yul\":7549:7550   */\n  0x00\n    /* \"#utility.yul\":7542:7630   */\n  mstore\n    /* \"#utility.yul\":7649:7653   */\n  0x41\n    /* \"#utility.yul\":7646:7647   */\n  0x04\n    /* \"#utility.yul\":7639:7654   */\n  mstore\n    /* \"#utility.yul\":7673:7677   */\n  0x24\n    /* \"#utility.yul\":7670:7671   */\n  0x00\n    /* \"#utility.yul\":7663:7678   */\n  revert\n    /* \"#utility.yul\":7690:7807   */\ntag_53:\n    /* \"#utility.yul\":7799:7800   */\n  0x00\n    /* \"#utility.yul\":7796:7797   */\n  dup1\n    /* \"#utility.yul\":7789:7801   */\n  revert\n    /* \"#utility.yul\":7813:7930   */\ntag_40:\n    /* \"#utility.yul\":7922:7923   */\n  0x00\n    /* \"#utility.yul\":7919:7920   */\n  dup1\n    /* \"#utility.yul\":7912:7924   */\n  revert\n    /* \"#utility.yul\":7936:8053   */\ntag_65:\n    /* \"#utility.yul\":8045:8046   */\n  0x00\n    /* \"#utility.yul\":8042:8043   */\n  dup1\n    /* \"#utility.yul\":8035:8047   */\n  revert\n    /* \"#utility.yul\":8059:8176   */\ntag_62:\n    /* \"#utility.yul\":8168:8169   */\n  0x00\n    /* \"#utility.yul\":8165:8166   */\n  dup1\n    /* \"#utility.yul\":8158:8170   */\n  revert\n    /* \"#utility.yul\":8182:8284   */\ntag_123:\n    /* \"#utility.yul\":8223:8229   */\n  0x00\n    /* \"#utility.yul\":8274:8276   */\n  0x1f\n    /* \"#utility.yul\":8270:8277   */\n  not\n    /* \"#utility.yul\":8265:8267   */\n  0x1f\n    /* \"#utility.yul\":8258:8263   */\n  dup4\n    /* \"#utility.yul\":8254:8268   */\n  add\n    /* \"#utility.yul\":8250:8278   */\n  and\n    /* \"#utility.yul\":8240:8278   */\n  swap1\n  pop\n    /* \"#utility.yul\":8182:8284   */\n  swap2\n  swap1\n  pop\n  jump\t// out\n    /* \"#utility.yul\":8290:8459   */\ntag_73:\n    /* \"#utility.yul\":8430:8451   */\n  0x6f776e6572206973206e6f7420756e6971756500000000000000000000000000\n    /* \"#utility.yul\":8426:8427   */\n  0x00\n    /* \"#utility.yul\":8418:8424   */\n  dup3\n    /* \"#utility.yul\":8414:8428   */\n  add\n    /* \"#utility.yul\":8407:8452   */\n  mstore\n    /* \"#utility.yul\":8290:8459   */\n  pop\n  jump\t// out\n    /* \"#utility.yul\":8465:8645   */\ntag_78:\n    /* \"#utility.yul\":8605:8637   */\n  0x6f776e657273206d7573742062652067726561746572207468616e2030200000\n    /* \"#utility.yul\":8601:8602   */\n  0x00\n    /* \"#utility.yul\":8593:8599   */\n  dup3\n    /* \"#utility.yul\":8589:8603   */\n  add\n    /* \"#utility.yul\":8582:8638   */\n  mstore\n    /* \"#utility.yul\":8465:8645   */\n  pop\n  jump\t// out\n    /* \"#utility.yul\":8651:8816   */\ntag_83:\n    /* \"#utility.yul\":8791:8808   */\n  0x696e76616c696420616464726573730000000000000000000000000000000000\n    /* \"#utility.yul\":8787:8788   */\n  0x00\n    /* \"#utility.yul\":8779:8785   */\n  dup3\n    /* \"#utility.yul\":8775:8789   */\n  add\n    /* \"#utility.yul\":8768:8809   */\n  mstore\n    /* \"#utility.yul\":8651:8816   */\n  pop\n  jump\t// out\n    /* \"#utility.yul\":8822:8993   */\ntag_88:\n    /* \"#utility.yul\":8962:8985   */\n  0x5f7265717569726564206e756d20696e76616c69640000000000000000000000\n    /* \"#utility.yul\":8958:8959   */\n  0x00\n    /* \"#utility.yul\":8950:8956   */\n  dup3\n    /* \"#utility.yul\":8946:8960   */\n  add\n    /* \"#utility.yul\":8939:8986   */\n  mstore\n    /* \"#utility.yul\":8822:8993   */\n  pop\n  jump\t// out\n    /* \"#utility.yul\":8999:9121   */\ntag_48:\n    /* \"#utility.yul\":9072:9096   */\n  tag_143\n    /* \"#utility.yul\":9090:9095   */\n  dup2\n    /* \"#utility.yul\":9072:9096   */\n  tag_115\n  jump\t// in\ntag_143:\n    /* \"#utility.yul\":9065:9070   */\n  dup2\n    /* \"#utility.yul\":9062:9097   */\n  eq\n    /* \"#utility.yul\":9052:9115   */\n  tag_144\n  jumpi\n    /* \"#utility.yul\":9111:9112   */\n  0x00\n    /* \"#utility.yul\":9108:9109   */\n  dup1\n    /* \"#utility.yul\":9101:9113   */\n  revert\n    /* \"#utility.yul\":9052:9115   */\ntag_144:\n    /* \"#utility.yul\":8999:9121   */\n  pop\n  jump\t// out\n    /* \"#utility.yul\":9127:9249   */\ntag_58:\n    /* \"#utility.yul\":9200:9224   */\n  tag_146\n    /* \"#utility.yul\":9218:9223   */\n  dup2\n    /* \"#utility.yul\":9200:9224   */\n  tag_110\n  jump\t// in\ntag_146:\n    /* \"#utility.yul\":9193:9198   */\n  dup2\n    /* \"#utility.yul\":9190:9225   */\n  eq\n    /* \"#utility.yul\":9180:9243   */\n  tag_147\n  jumpi\n    /* \"#utility.yul\":9239:9240   */\n  0x00\n    /* \"#utility.yul\":9236:9237   */\n  dup1\n    /* \"#utility.yul\":9229:9241   */\n  revert\n    /* \"#utility.yul\":9180:9243   */\ntag_147:\n    /* \"#utility.yul\":9127:9249   */\n  pop\n  jump\t// out\n    /* \"contracts/MultiSigWallet1.sol\":59:3308  contract MultiSigWallet1 {\r... */\ntag_30:\n  dataSize(sub_0)\n  dup1\n  dataOffset(sub_0)\n  0x00\n  codecopy\n  0x00\n  return\nstop\n\nsub_0: assembly {\n        /* \"contracts/MultiSigWallet1.sol\":59:3308  contract MultiSigWallet1 {\r... */\n      mstore(0x40, 0x80)\n      jumpi(tag_1, lt(calldatasize, 0x04))\n      shr(0xe0, calldataload(0x00))\n      dup1\n      0x9ace38c2\n      gt\n      tag_10\n      jumpi\n      dup1\n      0x9ace38c2\n      eq\n      tag_6\n      jumpi\n      dup1\n      0xa96c065b\n      eq\n      tag_7\n      jumpi\n      dup1\n      0xb759f954\n      eq\n      tag_8\n      jumpi\n      dup1\n      0xdc8452cd\n      eq\n      tag_9\n      jumpi\n      jump(tag_2)\n    tag_10:\n      dup1\n      0x025e7c27\n      eq\n      tag_3\n      jumpi\n      dup1\n      0x14de327f\n      eq\n      tag_4\n      jumpi\n      dup1\n      0x20c5429b\n      eq\n      tag_5\n      jumpi\n      jump(tag_2)\n    tag_1:\n      jumpi(tag_2, calldatasize)\n        /* \"contracts/MultiSigWallet1.sol\":1770:1799  Deposit(msg.sender,msg.value) */\n      0xe1fffcc4923d04b559f4d29a8bfc6cda04eb5b0d3c460751c2402c5c5cc9109c\n        /* \"contracts/MultiSigWallet1.sol\":1778:1788  msg.sender */\n      caller\n        /* \"contracts/MultiSigWallet1.sol\":1789:1798  msg.value */\n      callvalue\n        /* \"contracts/MultiSigWallet1.sol\":1770:1799  Deposit(msg.sender,msg.value) */\n      mload(0x40)\n      tag_13\n      swap3\n      swap2\n      swap1\n      tag_14\n      jump\t// in\n    tag_13:\n      mload(0x40)\n      dup1\n      swap2\n      sub\n      swap1\n      log1\n        /* \"contracts/MultiSigWallet1.sol\":59:3308  contract MultiSigWallet1 {\r... */\n      stop\n    tag_2:\n      0x00\n      dup1\n      revert\n        /* \"contracts/MultiSigWallet1.sol\":305:328  address[] public owners */\n    tag_3:\n      callvalue\n      dup1\n      iszero\n      tag_15\n      jumpi\n      0x00\n      dup1\n      revert\n    tag_15:\n      pop\n      tag_16\n      0x04\n      dup1\n      calldatasize\n      sub\n      dup2\n      add\n      swap1\n      tag_17\n      swap2\n      swap1\n      tag_18\n      jump\t// in\n    tag_17:\n      tag_19\n      jump\t// in\n    tag_16:\n      mload(0x40)\n      tag_20\n      swap2\n      swap1\n      tag_21\n      jump\t// in\n    tag_20:\n      mload(0x40)\n      dup1\n      swap2\n      sub\n      swap1\n      return\n        /* \"contracts/MultiSigWallet1.sol\":1815:2148  function submit(address _to, uint _value, bytes calldata _data)external onlyOwner{\r... */\n    tag_4:\n      callvalue\n      dup1\n      iszero\n      tag_22\n      jumpi\n      0x00\n      dup1\n      revert\n    tag_22:\n      pop\n      tag_23\n      0x04\n      dup1\n      calldatasize\n      sub\n      dup2\n      add\n      swap1\n      tag_24\n      swap2\n      swap1\n      tag_25\n      jump\t// in\n    tag_24:\n      tag_26\n      jump\t// in\n    tag_23:\n      stop\n        /* \"contracts/MultiSigWallet1.sol\":3069:3305  function revoke(uint txId)external onlyOwner trxExists(txId) notExcuted(txId) {\r... */\n    tag_5:\n      callvalue\n      dup1\n      iszero\n      tag_27\n      jumpi\n      0x00\n      dup1\n      revert\n    tag_27:\n      pop\n      tag_28\n      0x04\n      dup1\n      calldatasize\n      sub\n      dup2\n      add\n      swap1\n      tag_29\n      swap2\n      swap1\n      tag_18\n      jump\t// in\n    tag_29:\n      tag_30\n      jump\t// in\n    tag_28:\n      stop\n        /* \"contracts/MultiSigWallet1.sol\":375:408  Transaction[] public transactions */\n    tag_6:\n      callvalue\n      dup1\n      iszero\n      tag_31\n      jumpi\n      0x00\n      dup1\n      revert\n    tag_31:\n      pop\n      tag_32\n      0x04\n      dup1\n      calldatasize\n      sub\n      dup2\n      add\n      swap1\n      tag_33\n      swap2\n      swap1\n      tag_18\n      jump\t// in\n    tag_33:\n      tag_34\n      jump\t// in\n    tag_32:\n      mload(0x40)\n      tag_35\n      swap5\n      swap4\n      swap3\n      swap2\n      swap1\n      tag_36\n      jump\t// in\n    tag_35:\n      mload(0x40)\n      dup1\n      swap2\n      sub\n      swap1\n      return\n        /* \"contracts/MultiSigWallet1.sol\":2588:3061  function excute(uint txId) external trxExists(txId) notExcuted(txId){\r... */\n    tag_7:\n      callvalue\n      dup1\n      iszero\n      tag_37\n      jumpi\n      0x00\n      dup1\n      revert\n    tag_37:\n      pop\n      tag_38\n      0x04\n      dup1\n      calldatasize\n      sub\n      dup2\n      add\n      swap1\n      tag_39\n      swap2\n      swap1\n      tag_18\n      jump\t// in\n    tag_39:\n      tag_40\n      jump\t// in\n    tag_38:\n      stop\n        /* \"contracts/MultiSigWallet1.sol\":2156:2346  function approve(uint txId) external onlyOwner trxExists(txId) notApproved(txId) notExcuted(txId) {\r... */\n    tag_8:\n      callvalue\n      dup1\n      iszero\n      tag_41\n      jumpi\n      0x00\n      dup1\n      revert\n    tag_41:\n      pop\n      tag_42\n      0x04\n      dup1\n      calldatasize\n      sub\n      dup2\n      add\n      swap1\n      tag_43\n      swap2\n      swap1\n      tag_18\n      jump\t// in\n    tag_43:\n      tag_44\n      jump\t// in\n    tag_42:\n      stop\n        /* \"contracts/MultiSigWallet1.sol\":415:435  uint public required */\n    tag_9:\n      callvalue\n      dup1\n      iszero\n      tag_45\n      jumpi\n      0x00\n      dup1\n      revert\n    tag_45:\n      pop\n      tag_46\n      tag_47\n      jump\t// in\n    tag_46:\n      mload(0x40)\n      tag_48\n      swap2\n      swap1\n      tag_49\n      jump\t// in\n    tag_48:\n      mload(0x40)\n      dup1\n      swap2\n      sub\n      swap1\n      return\n        /* \"contracts/MultiSigWallet1.sol\":305:328  address[] public owners */\n    tag_19:\n      0x00\n      dup2\n      dup2\n      sload\n      dup2\n      lt\n      tag_50\n      jumpi\n      0x00\n      dup1\n      revert\n    tag_50:\n      swap1\n      0x00\n      mstore\n      keccak256(0x00, 0x20)\n      add\n      0x00\n      swap2\n      pop\n      sload\n      swap1\n      0x0100\n      exp\n      swap1\n      div\n      0xffffffffffffffffffffffffffffffffffffffff\n      and\n      dup2\n      jump\t// out\n        /* \"contracts/MultiSigWallet1.sol\":1815:2148  function submit(address _to, uint _value, bytes calldata _data)external onlyOwner{\r... */\n    tag_26:\n        /* \"contracts/MultiSigWallet1.sol\":670:677  ownerOf */\n      0x01\n        /* \"contracts/MultiSigWallet1.sol\":670:689  ownerOf[msg.sender] */\n      0x00\n        /* \"contracts/MultiSigWallet1.sol\":678:688  msg.sender */\n      caller\n        /* \"contracts/MultiSigWallet1.sol\":670:689  ownerOf[msg.sender] */\n      0xffffffffffffffffffffffffffffffffffffffff\n      and\n      0xffffffffffffffffffffffffffffffffffffffff\n      and\n      dup2\n      mstore\n      0x20\n      add\n      swap1\n      dup2\n      mstore\n      0x20\n      add\n      0x00\n      keccak256\n      0x00\n      swap1\n      sload\n      swap1\n      0x0100\n      exp\n      swap1\n      div\n      0xff\n      and\n        /* \"contracts/MultiSigWallet1.sol\":662:725  require(ownerOf[msg.sender],\"only owner can do this operation\") */\n      tag_53\n      jumpi\n      mload(0x40)\n      0x08c379a000000000000000000000000000000000000000000000000000000000\n      dup2\n      mstore\n      0x04\n      add\n      tag_54\n      swap1\n      tag_55\n      jump\t// in\n    tag_54:\n      mload(0x40)\n      dup1\n      swap2\n      sub\n      swap1\n      revert\n    tag_53:\n        /* \"contracts/MultiSigWallet1.sol\":1906:1918  transactions */\n      0x02\n        /* \"contracts/MultiSigWallet1.sol\":1924:2092  Transaction(\r... */\n      mload(0x40)\n      dup1\n      0x80\n      add\n      0x40\n      mstore\n      dup1\n        /* \"contracts/MultiSigWallet1.sol\":1972:1975  _to */\n      dup7\n        /* \"contracts/MultiSigWallet1.sol\":1924:2092  Transaction(\r... */\n      0xffffffffffffffffffffffffffffffffffffffff\n      and\n      dup2\n      mstore\n      0x20\n      add\n        /* \"contracts/MultiSigWallet1.sol\":2000:2006  _value */\n      dup6\n        /* \"contracts/MultiSigWallet1.sol\":1924:2092  Transaction(\r... */\n      dup2\n      mstore\n      0x20\n      add\n        /* \"contracts/MultiSigWallet1.sol\":2030:2035  _data */\n      dup5\n      dup5\n        /* \"contracts/MultiSigWallet1.sol\":1924:2092  Transaction(\r... */\n      dup1\n      dup1\n      0x1f\n      add\n      0x20\n      dup1\n      swap2\n      div\n      mul\n      0x20\n      add\n      mload(0x40)\n      swap1\n      dup2\n      add\n      0x40\n      mstore\n      dup1\n      swap4\n      swap3\n      swap2\n      swap1\n      dup2\n      dup2\n      mstore\n      0x20\n      add\n      dup4\n      dup4\n      dup1\n      dup3\n      dup5\n      calldatacopy\n      0x00\n      dup2\n      dup5\n      add\n      mstore\n      not(0x1f)\n      0x1f\n      dup3\n      add\n      and\n      swap1\n      pop\n      dup1\n      dup4\n      add\n      swap3\n      pop\n      pop\n      pop\n      pop\n      pop\n      pop\n      pop\n      dup2\n      mstore\n      0x20\n      add\n        /* \"contracts/MultiSigWallet1.sol\":2062:2067  false */\n      0x00\n        /* \"contracts/MultiSigWallet1.sol\":1924:2092  Transaction(\r... */\n      iszero\n      iszero\n      dup2\n      mstore\n      pop\n        /* \"contracts/MultiSigWallet1.sol\":1906:2093  transactions.push(Transaction(\r... */\n      swap1\n      dup1\n      0x01\n      dup2\n      sload\n      add\n      dup1\n      dup3\n      sstore\n      dup1\n      swap2\n      pop\n      pop\n      0x01\n      swap1\n      sub\n      swap1\n      0x00\n      mstore\n      keccak256(0x00, 0x20)\n      swap1\n      0x04\n      mul\n      add\n      0x00\n      swap1\n      swap2\n      swap1\n      swap2\n      swap1\n      swap2\n      pop\n      0x00\n      dup3\n      add\n      mload\n      dup2\n      0x00\n      add\n      exp(0x0100, 0x00)\n      dup2\n      sload\n      dup2\n      0xffffffffffffffffffffffffffffffffffffffff\n      mul\n      not\n      and\n      swap1\n      dup4\n      0xffffffffffffffffffffffffffffffffffffffff\n      and\n      mul\n      or\n      swap1\n      sstore\n      pop\n      0x20\n      dup3\n      add\n      mload\n      dup2\n      0x01\n      add\n      sstore\n      0x40\n      dup3\n      add\n      mload\n      dup2\n      0x02\n      add\n      swap1\n      dup1\n      mload\n      swap1\n      0x20\n      add\n      swap1\n      tag_58\n      swap3\n      swap2\n      swap1\n      tag_59\n      jump\t// in\n    tag_58:\n      pop\n      0x60\n      dup3\n      add\n      mload\n      dup2\n      0x03\n      add\n      exp(0x0100, 0x00)\n      dup2\n      sload\n      dup2\n      0xff\n      mul\n      not\n      and\n      swap1\n      dup4\n      iszero\n      iszero\n      mul\n      or\n      swap1\n      sstore\n      pop\n      pop\n      pop\n        /* \"contracts/MultiSigWallet1.sol\":2109:2140  Submit(transactions.length - 1) */\n      0x08324b3d745b914e3abd4ffbfead91e3b78391a98c173202129215ab933adfbe\n        /* \"contracts/MultiSigWallet1.sol\":2138:2139  1 */\n      0x01\n        /* \"contracts/MultiSigWallet1.sol\":2116:2128  transactions */\n      0x02\n        /* \"contracts/MultiSigWallet1.sol\":2116:2135  transactions.length */\n      dup1\n      sload\n      swap1\n      pop\n        /* \"contracts/MultiSigWallet1.sol\":2116:2139  transactions.length - 1 */\n      tag_60\n      swap2\n      swap1\n      tag_61\n      jump\t// in\n    tag_60:\n        /* \"contracts/MultiSigWallet1.sol\":2109:2140  Submit(transactions.length - 1) */\n      mload(0x40)\n      tag_62\n      swap2\n      swap1\n      tag_49\n      jump\t// in\n    tag_62:\n      mload(0x40)\n      dup1\n      swap2\n      sub\n      swap1\n      log1\n        /* \"contracts/MultiSigWallet1.sol\":1815:2148  function submit(address _to, uint _value, bytes calldata _data)external onlyOwner{\r... */\n      pop\n      pop\n      pop\n      pop\n      jump\t// out\n        /* \"contracts/MultiSigWallet1.sol\":3069:3305  function revoke(uint txId)external onlyOwner trxExists(txId) notExcuted(txId) {\r... */\n    tag_30:\n        /* \"contracts/MultiSigWallet1.sol\":670:677  ownerOf */\n      0x01\n        /* \"contracts/MultiSigWallet1.sol\":670:689  ownerOf[msg.sender] */\n      0x00\n        /* \"contracts/MultiSigWallet1.sol\":678:688  msg.sender */\n      caller\n        /* \"contracts/MultiSigWallet1.sol\":670:689  ownerOf[msg.sender] */\n      0xffffffffffffffffffffffffffffffffffffffff\n      and\n      0xffffffffffffffffffffffffffffffffffffffff\n      and\n      dup2\n      mstore\n      0x20\n      add\n      swap1\n      dup2\n      mstore\n      0x20\n      add\n      0x00\n      keccak256\n      0x00\n      swap1\n      sload\n      swap1\n      0x0100\n      exp\n      swap1\n      div\n      0xff\n      and\n        /* \"contracts/MultiSigWallet1.sol\":662:725  require(ownerOf[msg.sender],\"only owner can do this operation\") */\n      tag_64\n      jumpi\n      mload(0x40)\n      0x08c379a000000000000000000000000000000000000000000000000000000000\n      dup2\n      mstore\n      0x04\n      add\n      tag_65\n      swap1\n      tag_55\n      jump\t// in\n    tag_65:\n      mload(0x40)\n      dup1\n      swap2\n      sub\n      swap1\n      revert\n    tag_64:\n        /* \"contracts/MultiSigWallet1.sol\":3124:3128  txId */\n      dup1\n        /* \"contracts/MultiSigWallet1.sol\":808:820  transactions */\n      0x02\n        /* \"contracts/MultiSigWallet1.sol\":808:827  transactions.length */\n      dup1\n      sload\n      swap1\n      pop\n        /* \"contracts/MultiSigWallet1.sol\":801:805  txId */\n      dup2\n        /* \"contracts/MultiSigWallet1.sol\":801:827  txId < transactions.length */\n      lt\n        /* \"contracts/MultiSigWallet1.sol\":793:845  require(txId < transactions.length, \"tx not exists\") */\n      tag_67\n      jumpi\n      mload(0x40)\n      0x08c379a000000000000000000000000000000000000000000000000000000000\n      dup2\n      mstore\n      0x04\n      add\n      tag_68\n      swap1\n      tag_69\n      jump\t// in\n    tag_68:\n      mload(0x40)\n      dup1\n      swap2\n      sub\n      swap1\n      revert\n    tag_67:\n        /* \"contracts/MultiSigWallet1.sol\":3141:3145  txId */\n      dup2\n        /* \"contracts/MultiSigWallet1.sol\":1052:1064  transactions */\n      0x02\n        /* \"contracts/MultiSigWallet1.sol\":1065:1069  txId */\n      dup2\n        /* \"contracts/MultiSigWallet1.sol\":1052:1070  transactions[txId] */\n      dup2\n      sload\n      dup2\n      lt\n      tag_71\n      jumpi\n      tag_72\n      tag_73\n      jump\t// in\n    tag_72:\n    tag_71:\n      swap1\n      0x00\n      mstore\n      keccak256(0x00, 0x20)\n      swap1\n      0x04\n      mul\n      add\n        /* \"contracts/MultiSigWallet1.sol\":1052:1078  transactions[txId].excuted */\n      0x03\n      add\n      0x00\n      swap1\n      sload\n      swap1\n      0x0100\n      exp\n      swap1\n      div\n      0xff\n      and\n        /* \"contracts/MultiSigWallet1.sol\":1051:1078  !transactions[txId].excuted */\n      iszero\n        /* \"contracts/MultiSigWallet1.sol\":1043:1101  require(!transactions[txId].excuted, \"tx already excuted\") */\n      tag_75\n      jumpi\n      mload(0x40)\n      0x08c379a000000000000000000000000000000000000000000000000000000000\n      dup2\n      mstore\n      0x04\n      add\n      tag_76\n      swap1\n      tag_77\n      jump\t// in\n    tag_76:\n      mload(0x40)\n      dup1\n      swap2\n      sub\n      swap1\n      revert\n    tag_75:\n        /* \"contracts/MultiSigWallet1.sol\":3166:3174  approved */\n      0x04\n        /* \"contracts/MultiSigWallet1.sol\":3166:3180  approved[txId] */\n      0x00\n        /* \"contracts/MultiSigWallet1.sol\":3175:3179  txId */\n      dup5\n        /* \"contracts/MultiSigWallet1.sol\":3166:3180  approved[txId] */\n      dup2\n      mstore\n      0x20\n      add\n      swap1\n      dup2\n      mstore\n      0x20\n      add\n      0x00\n      keccak256\n        /* \"contracts/MultiSigWallet1.sol\":3166:3192  approved[txId][msg.sender] */\n      0x00\n        /* \"contracts/MultiSigWallet1.sol\":3181:3191  msg.sender */\n      caller\n        /* \"contracts/MultiSigWallet1.sol\":3166:3192  approved[txId][msg.sender] */\n      0xffffffffffffffffffffffffffffffffffffffff\n      and\n      0xffffffffffffffffffffffffffffffffffffffff\n      and\n      dup2\n      mstore\n      0x20\n      add\n      swap1\n      dup2\n      mstore\n      0x20\n      add\n      0x00\n      keccak256\n      0x00\n      swap1\n      sload\n      swap1\n      0x0100\n      exp\n      swap1\n      div\n      0xff\n      and\n        /* \"contracts/MultiSigWallet1.sol\":3158:3212  require(approved[txId][msg.sender], \"tx not approved\") */\n      tag_79\n      jumpi\n      mload(0x40)\n      0x08c379a000000000000000000000000000000000000000000000000000000000\n      dup2\n      mstore\n      0x04\n      add\n      tag_80\n      swap1\n      tag_81\n      jump\t// in\n    tag_80:\n      mload(0x40)\n      dup1\n      swap2\n      sub\n      swap1\n      revert\n    tag_79:\n        /* \"contracts/MultiSigWallet1.sol\":3252:3257  false */\n      0x00\n        /* \"contracts/MultiSigWallet1.sol\":3223:3231  approved */\n      0x04\n        /* \"contracts/MultiSigWallet1.sol\":3223:3237  approved[txId] */\n      0x00\n        /* \"contracts/MultiSigWallet1.sol\":3232:3236  txId */\n      dup6\n        /* \"contracts/MultiSigWallet1.sol\":3223:3237  approved[txId] */\n      dup2\n      mstore\n      0x20\n      add\n      swap1\n      dup2\n      mstore\n      0x20\n      add\n      0x00\n      keccak256\n        /* \"contracts/MultiSigWallet1.sol\":3223:3249  approved[txId][msg.sender] */\n      0x00\n        /* \"contracts/MultiSigWallet1.sol\":3238:3248  msg.sender */\n      caller\n        /* \"contracts/MultiSigWallet1.sol\":3223:3249  approved[txId][msg.sender] */\n      0xffffffffffffffffffffffffffffffffffffffff\n      and\n      0xffffffffffffffffffffffffffffffffffffffff\n      and\n      dup2\n      mstore\n      0x20\n      add\n      swap1\n      dup2\n      mstore\n      0x20\n      add\n      0x00\n      keccak256\n      0x00\n        /* \"contracts/MultiSigWallet1.sol\":3223:3257  approved[txId][msg.sender] = false */\n      0x0100\n      exp\n      dup2\n      sload\n      dup2\n      0xff\n      mul\n      not\n      and\n      swap1\n      dup4\n      iszero\n      iszero\n      mul\n      or\n      swap1\n      sstore\n      pop\n        /* \"contracts/MultiSigWallet1.sol\":3273:3297  Revoke(msg.sender, txId) */\n      0xec9ab91322523c899ede7830ec9bfc992b5981cdcc27b91162fb23de5791117b\n        /* \"contracts/MultiSigWallet1.sol\":3280:3290  msg.sender */\n      caller\n        /* \"contracts/MultiSigWallet1.sol\":3292:3296  txId */\n      dup5\n        /* \"contracts/MultiSigWallet1.sol\":3273:3297  Revoke(msg.sender, txId) */\n      mload(0x40)\n      tag_82\n      swap3\n      swap2\n      swap1\n      tag_14\n      jump\t// in\n    tag_82:\n      mload(0x40)\n      dup1\n      swap2\n      sub\n      swap1\n      log1\n        /* \"contracts/MultiSigWallet1.sol\":856:857  _ */\n      pop\n        /* \"contracts/MultiSigWallet1.sol\":736:737  _ */\n      pop\n        /* \"contracts/MultiSigWallet1.sol\":3069:3305  function revoke(uint txId)external onlyOwner trxExists(txId) notExcuted(txId) {\r... */\n      pop\n      jump\t// out\n        /* \"contracts/MultiSigWallet1.sol\":375:408  Transaction[] public transactions */\n    tag_34:\n      0x02\n      dup2\n      dup2\n      sload\n      dup2\n      lt\n      tag_83\n      jumpi\n      0x00\n      dup1\n      revert\n    tag_83:\n      swap1\n      0x00\n      mstore\n      keccak256(0x00, 0x20)\n      swap1\n      0x04\n      mul\n      add\n      0x00\n      swap2\n      pop\n      swap1\n      pop\n      dup1\n      0x00\n      add\n      0x00\n      swap1\n      sload\n      swap1\n      0x0100\n      exp\n      swap1\n      div\n      0xffffffffffffffffffffffffffffffffffffffff\n      and\n      swap1\n      dup1\n      0x01\n      add\n      sload\n      swap1\n      dup1\n      0x02\n      add\n      dup1\n      sload\n      tag_85\n      swap1\n      tag_86\n      jump\t// in\n    tag_85:\n      dup1\n      0x1f\n      add\n      0x20\n      dup1\n      swap2\n      div\n      mul\n      0x20\n      add\n      mload(0x40)\n      swap1\n      dup2\n      add\n      0x40\n      mstore\n      dup1\n      swap3\n      swap2\n      swap1\n      dup2\n      dup2\n      mstore\n      0x20\n      add\n      dup3\n      dup1\n      sload\n      tag_87\n      swap1\n      tag_86\n      jump\t// in\n    tag_87:\n      dup1\n      iszero\n      tag_88\n      jumpi\n      dup1\n      0x1f\n      lt\n      tag_89\n      jumpi\n      0x0100\n      dup1\n      dup4\n      sload\n      div\n      mul\n      dup4\n      mstore\n      swap2\n      0x20\n      add\n      swap2\n      jump(tag_88)\n    tag_89:\n      dup3\n      add\n      swap2\n      swap1\n      0x00\n      mstore\n      keccak256(0x00, 0x20)\n      swap1\n    tag_90:\n      dup2\n      sload\n      dup2\n      mstore\n      swap1\n      0x01\n      add\n      swap1\n      0x20\n      add\n      dup1\n      dup4\n      gt\n      tag_90\n      jumpi\n      dup3\n      swap1\n      sub\n      0x1f\n      and\n      dup3\n      add\n      swap2\n    tag_88:\n      pop\n      pop\n      pop\n      pop\n      pop\n      swap1\n      dup1\n      0x03\n      add\n      0x00\n      swap1\n      sload\n      swap1\n      0x0100\n      exp\n      swap1\n      div\n      0xff\n      and\n      swap1\n      pop\n      dup5\n      jump\t// out\n        /* \"contracts/MultiSigWallet1.sol\":2588:3061  function excute(uint txId) external trxExists(txId) notExcuted(txId){\r... */\n    tag_40:\n        /* \"contracts/MultiSigWallet1.sol\":2634:2638  txId */\n      dup1\n        /* \"contracts/MultiSigWallet1.sol\":808:820  transactions */\n      0x02\n        /* \"contracts/MultiSigWallet1.sol\":808:827  transactions.length */\n      dup1\n      sload\n      swap1\n      pop\n        /* \"contracts/MultiSigWallet1.sol\":801:805  txId */\n      dup2\n        /* \"contracts/MultiSigWallet1.sol\":801:827  txId < transactions.length */\n      lt\n        /* \"contracts/MultiSigWallet1.sol\":793:845  require(txId < transactions.length, \"tx not exists\") */\n      tag_92\n      jumpi\n      mload(0x40)\n      0x08c379a000000000000000000000000000000000000000000000000000000000\n      dup2\n      mstore\n      0x04\n      add\n      tag_93\n      swap1\n      tag_69\n      jump\t// in\n    tag_93:\n      mload(0x40)\n      dup1\n      swap2\n      sub\n      swap1\n      revert\n    tag_92:\n        /* \"contracts/MultiSigWallet1.sol\":2651:2655  txId */\n      dup2\n        /* \"contracts/MultiSigWallet1.sol\":1052:1064  transactions */\n      0x02\n        /* \"contracts/MultiSigWallet1.sol\":1065:1069  txId */\n      dup2\n        /* \"contracts/MultiSigWallet1.sol\":1052:1070  transactions[txId] */\n      dup2\n      sload\n      dup2\n      lt\n      tag_95\n      jumpi\n      tag_96\n      tag_73\n      jump\t// in\n    tag_96:\n    tag_95:\n      swap1\n      0x00\n      mstore\n      keccak256(0x00, 0x20)\n      swap1\n      0x04\n      mul\n      add\n        /* \"contracts/MultiSigWallet1.sol\":1052:1078  transactions[txId].excuted */\n      0x03\n      add\n      0x00\n      swap1\n      sload\n      swap1\n      0x0100\n      exp\n      swap1\n      div\n      0xff\n      and\n        /* \"contracts/MultiSigWallet1.sol\":1051:1078  !transactions[txId].excuted */\n      iszero\n        /* \"contracts/MultiSigWallet1.sol\":1043:1101  require(!transactions[txId].excuted, \"tx already excuted\") */\n      tag_98\n      jumpi\n      mload(0x40)\n      0x08c379a000000000000000000000000000000000000000000000000000000000\n      dup2\n      mstore\n      0x04\n      add\n      tag_99\n      swap1\n      tag_77\n      jump\t// in\n    tag_99:\n      mload(0x40)\n      dup1\n      swap2\n      sub\n      swap1\n      revert\n    tag_98:\n        /* \"contracts/MultiSigWallet1.sol\":2702:2710  required */\n      sload(0x03)\n        /* \"contracts/MultiSigWallet1.sol\":2675:2698  _getApprovalCount(txId) */\n      tag_101\n        /* \"contracts/MultiSigWallet1.sol\":2693:2697  txId */\n      dup5\n        /* \"contracts/MultiSigWallet1.sol\":2675:2692  _getApprovalCount */\n      tag_102\n        /* \"contracts/MultiSigWallet1.sol\":2675:2698  _getApprovalCount(txId) */\n      jump\t// in\n    tag_101:\n        /* \"contracts/MultiSigWallet1.sol\":2675:2710  _getApprovalCount(txId) >= required */\n      lt\n      iszero\n        /* \"contracts/MultiSigWallet1.sol\":2667:2734  require(_getApprovalCount(txId) >= required,\"approvals < required\") */\n      tag_103\n      jumpi\n      mload(0x40)\n      0x08c379a000000000000000000000000000000000000000000000000000000000\n      dup2\n      mstore\n      0x04\n      add\n      tag_104\n      swap1\n      tag_105\n      jump\t// in\n    tag_104:\n      mload(0x40)\n      dup1\n      swap2\n      sub\n      swap1\n      revert\n    tag_103:\n        /* \"contracts/MultiSigWallet1.sol\":2745:2776  Transaction storage transaction */\n      0x00\n        /* \"contracts/MultiSigWallet1.sol\":2779:2791  transactions */\n      0x02\n        /* \"contracts/MultiSigWallet1.sol\":2792:2796  txId */\n      dup5\n        /* \"contracts/MultiSigWallet1.sol\":2779:2797  transactions[txId] */\n      dup2\n      sload\n      dup2\n      lt\n      tag_106\n      jumpi\n      tag_107\n      tag_73\n      jump\t// in\n    tag_107:\n    tag_106:\n      swap1\n      0x00\n      mstore\n      keccak256(0x00, 0x20)\n      swap1\n      0x04\n      mul\n      add\n        /* \"contracts/MultiSigWallet1.sol\":2745:2797  Transaction storage transaction = transactions[txId] */\n      swap1\n      pop\n        /* \"contracts/MultiSigWallet1.sol\":2830:2834  true */\n      0x01\n        /* \"contracts/MultiSigWallet1.sol\":2808:2819  transaction */\n      dup2\n        /* \"contracts/MultiSigWallet1.sol\":2808:2827  transaction.excuted */\n      0x03\n      add\n      0x00\n        /* \"contracts/MultiSigWallet1.sol\":2808:2834  transaction.excuted = true */\n      0x0100\n      exp\n      dup2\n      sload\n      dup2\n      0xff\n      mul\n      not\n      and\n      swap1\n      dup4\n      iszero\n      iszero\n      mul\n      or\n      swap1\n      sstore\n      pop\n        /* \"contracts/MultiSigWallet1.sol\":2848:2860  bool success */\n      0x00\n        /* \"contracts/MultiSigWallet1.sol\":2865:2876  transaction */\n      dup2\n        /* \"contracts/MultiSigWallet1.sol\":2865:2879  transaction.to */\n      0x00\n      add\n      0x00\n      swap1\n      sload\n      swap1\n      0x0100\n      exp\n      swap1\n      div\n      0xffffffffffffffffffffffffffffffffffffffff\n      and\n        /* \"contracts/MultiSigWallet1.sol\":2865:2884  transaction.to.call */\n      0xffffffffffffffffffffffffffffffffffffffff\n      and\n        /* \"contracts/MultiSigWallet1.sol\":2891:2902  transaction */\n      dup3\n        /* \"contracts/MultiSigWallet1.sol\":2891:2908  transaction.value */\n      0x01\n      add\n      sload\n        /* \"contracts/MultiSigWallet1.sol\":2924:2935  transaction */\n      dup4\n        /* \"contracts/MultiSigWallet1.sol\":2924:2940  transaction.data */\n      0x02\n      add\n        /* \"contracts/MultiSigWallet1.sol\":2865:2951  transaction.to.call{value:transaction.value}(\r... */\n      mload(0x40)\n      tag_109\n      swap2\n      swap1\n      tag_110\n      jump\t// in\n    tag_109:\n      0x00\n      mload(0x40)\n      dup1\n      dup4\n      sub\n      dup2\n      dup6\n      dup8\n      gas\n      call\n      swap3\n      pop\n      pop\n      pop\n      returndatasize\n      dup1\n      0x00\n      dup2\n      eq\n      tag_113\n      jumpi\n      mload(0x40)\n      swap2\n      pop\n      and(add(returndatasize, 0x3f), not(0x1f))\n      dup3\n      add\n      0x40\n      mstore\n      returndatasize\n      dup3\n      mstore\n      returndatasize\n      0x00\n      0x20\n      dup5\n      add\n      returndatacopy\n      jump(tag_112)\n    tag_113:\n      0x60\n      swap2\n      pop\n    tag_112:\n      pop\n        /* \"contracts/MultiSigWallet1.sol\":2847:2951  (bool success,) = transaction.to.call{value:transaction.value}(\r... */\n      pop\n      swap1\n      pop\n        /* \"contracts/MultiSigWallet1.sol\":2981:2988  success */\n      dup1\n        /* \"contracts/MultiSigWallet1.sol\":2973:3003  require(success,\"excute fail\") */\n      tag_114\n      jumpi\n      mload(0x40)\n      0x08c379a000000000000000000000000000000000000000000000000000000000\n      dup2\n      mstore\n      0x04\n      add\n      tag_115\n      swap1\n      tag_116\n      jump\t// in\n    tag_115:\n      mload(0x40)\n      dup1\n      swap2\n      sub\n      swap1\n      revert\n    tag_114:\n        /* \"contracts/MultiSigWallet1.sol\":3019:3042  Excute(msg.sender,txId) */\n      0xe2f46220bcbc16cf5555dd459ffe49e9c5c7b8de51d6f4d39d64e30270ffa0d9\n        /* \"contracts/MultiSigWallet1.sol\":3026:3036  msg.sender */\n      caller\n        /* \"contracts/MultiSigWallet1.sol\":3037:3041  txId */\n      dup7\n        /* \"contracts/MultiSigWallet1.sol\":3019:3042  Excute(msg.sender,txId) */\n      mload(0x40)\n      tag_117\n      swap3\n      swap2\n      swap1\n      tag_14\n      jump\t// in\n    tag_117:\n      mload(0x40)\n      dup1\n      swap2\n      sub\n      swap1\n      log1\n        /* \"contracts/MultiSigWallet1.sol\":2656:3061  {\r... */\n      pop\n      pop\n        /* \"contracts/MultiSigWallet1.sol\":856:857  _ */\n      pop\n        /* \"contracts/MultiSigWallet1.sol\":2588:3061  function excute(uint txId) external trxExists(txId) notExcuted(txId){\r... */\n      pop\n      pop\n      jump\t// out\n        /* \"contracts/MultiSigWallet1.sol\":2156:2346  function approve(uint txId) external onlyOwner trxExists(txId) notApproved(txId) notExcuted(txId) {\r... */\n    tag_44:\n        /* \"contracts/MultiSigWallet1.sol\":670:677  ownerOf */\n      0x01\n        /* \"contracts/MultiSigWallet1.sol\":670:689  ownerOf[msg.sender] */\n      0x00\n        /* \"contracts/MultiSigWallet1.sol\":678:688  msg.sender */\n      caller\n        /* \"contracts/MultiSigWallet1.sol\":670:689  ownerOf[msg.sender] */\n      0xffffffffffffffffffffffffffffffffffffffff\n      and\n      0xffffffffffffffffffffffffffffffffffffffff\n      and\n      dup2\n      mstore\n      0x20\n      add\n      swap1\n      dup2\n      mstore\n      0x20\n      add\n      0x00\n      keccak256\n      0x00\n      swap1\n      sload\n      swap1\n      0x0100\n      exp\n      swap1\n      div\n      0xff\n      and\n        /* \"contracts/MultiSigWallet1.sol\":662:725  require(ownerOf[msg.sender],\"only owner can do this operation\") */\n      tag_119\n      jumpi\n      mload(0x40)\n      0x08c379a000000000000000000000000000000000000000000000000000000000\n      dup2\n      mstore\n      0x04\n      add\n      tag_120\n      swap1\n      tag_55\n      jump\t// in\n    tag_120:\n      mload(0x40)\n      dup1\n      swap2\n      sub\n      swap1\n      revert\n    tag_119:\n        /* \"contracts/MultiSigWallet1.sol\":2213:2217  txId */\n      dup1\n        /* \"contracts/MultiSigWallet1.sol\":808:820  transactions */\n      0x02\n        /* \"contracts/MultiSigWallet1.sol\":808:827  transactions.length */\n      dup1\n      sload\n      swap1\n      pop\n        /* \"contracts/MultiSigWallet1.sol\":801:805  txId */\n      dup2\n        /* \"contracts/MultiSigWallet1.sol\":801:827  txId < transactions.length */\n      lt\n        /* \"contracts/MultiSigWallet1.sol\":793:845  require(txId < transactions.length, \"tx not exists\") */\n      tag_122\n      jumpi\n      mload(0x40)\n      0x08c379a000000000000000000000000000000000000000000000000000000000\n      dup2\n      mstore\n      0x04\n      add\n      tag_123\n      swap1\n      tag_69\n      jump\t// in\n    tag_123:\n      mload(0x40)\n      dup1\n      swap2\n      sub\n      swap1\n      revert\n    tag_122:\n        /* \"contracts/MultiSigWallet1.sol\":2231:2235  txId */\n      dup2\n        /* \"contracts/MultiSigWallet1.sol\":924:932  approved */\n      0x04\n        /* \"contracts/MultiSigWallet1.sol\":924:938  approved[txId] */\n      0x00\n        /* \"contracts/MultiSigWallet1.sol\":933:937  txId */\n      dup3\n        /* \"contracts/MultiSigWallet1.sol\":924:938  approved[txId] */\n      dup2\n      mstore\n      0x20\n      add\n      swap1\n      dup2\n      mstore\n      0x20\n      add\n      0x00\n      keccak256\n        /* \"contracts/MultiSigWallet1.sol\":924:950  approved[txId][msg.sender] */\n      0x00\n        /* \"contracts/MultiSigWallet1.sol\":939:949  msg.sender */\n      caller\n        /* \"contracts/MultiSigWallet1.sol\":924:950  approved[txId][msg.sender] */\n      0xffffffffffffffffffffffffffffffffffffffff\n      and\n      0xffffffffffffffffffffffffffffffffffffffff\n      and\n      dup2\n      mstore\n      0x20\n      add\n      swap1\n      dup2\n      mstore\n      0x20\n      add\n      0x00\n      keccak256\n      0x00\n      swap1\n      sload\n      swap1\n      0x0100\n      exp\n      swap1\n      div\n      0xff\n      and\n        /* \"contracts/MultiSigWallet1.sol\":923:950  !approved[txId][msg.sender] */\n      iszero\n        /* \"contracts/MultiSigWallet1.sol\":915:974  require(!approved[txId][msg.sender], \"tx already approved\") */\n      tag_125\n      jumpi\n      mload(0x40)\n      0x08c379a000000000000000000000000000000000000000000000000000000000\n      dup2\n      mstore\n      0x04\n      add\n      tag_126\n      swap1\n      tag_127\n      jump\t// in\n    tag_126:\n      mload(0x40)\n      dup1\n      swap2\n      sub\n      swap1\n      revert\n    tag_125:\n        /* \"contracts/MultiSigWallet1.sol\":2248:2252  txId */\n      dup3\n        /* \"contracts/MultiSigWallet1.sol\":1052:1064  transactions */\n      0x02\n        /* \"contracts/MultiSigWallet1.sol\":1065:1069  txId */\n      dup2\n        /* \"contracts/MultiSigWallet1.sol\":1052:1070  transactions[txId] */\n      dup2\n      sload\n      dup2\n      lt\n      tag_129\n      jumpi\n      tag_130\n      tag_73\n      jump\t// in\n    tag_130:\n    tag_129:\n      swap1\n      0x00\n      mstore\n      keccak256(0x00, 0x20)\n      swap1\n      0x04\n      mul\n      add\n        /* \"contracts/MultiSigWallet1.sol\":1052:1078  transactions[txId].excuted */\n      0x03\n      add\n      0x00\n      swap1\n      sload\n      swap1\n      0x0100\n      exp\n      swap1\n      div\n      0xff\n      and\n        /* \"contracts/MultiSigWallet1.sol\":1051:1078  !transactions[txId].excuted */\n      iszero\n        /* \"contracts/MultiSigWallet1.sol\":1043:1101  require(!transactions[txId].excuted, \"tx already excuted\") */\n      tag_132\n      jumpi\n      mload(0x40)\n      0x08c379a000000000000000000000000000000000000000000000000000000000\n      dup2\n      mstore\n      0x04\n      add\n      tag_133\n      swap1\n      tag_77\n      jump\t// in\n    tag_133:\n      mload(0x40)\n      dup1\n      swap2\n      sub\n      swap1\n      revert\n    tag_132:\n        /* \"contracts/MultiSigWallet1.sol\":2294:2298  true */\n      0x01\n        /* \"contracts/MultiSigWallet1.sol\":2265:2273  approved */\n      0x04\n        /* \"contracts/MultiSigWallet1.sol\":2265:2279  approved[txId] */\n      0x00\n        /* \"contracts/MultiSigWallet1.sol\":2274:2278  txId */\n      dup7\n        /* \"contracts/MultiSigWallet1.sol\":2265:2279  approved[txId] */\n      dup2\n      mstore\n      0x20\n      add\n      swap1\n      dup2\n      mstore\n      0x20\n      add\n      0x00\n      keccak256\n        /* \"contracts/MultiSigWallet1.sol\":2265:2291  approved[txId][msg.sender] */\n      0x00\n        /* \"contracts/MultiSigWallet1.sol\":2280:2290  msg.sender */\n      caller\n        /* \"contracts/MultiSigWallet1.sol\":2265:2291  approved[txId][msg.sender] */\n      0xffffffffffffffffffffffffffffffffffffffff\n      and\n      0xffffffffffffffffffffffffffffffffffffffff\n      and\n      dup2\n      mstore\n      0x20\n      add\n      swap1\n      dup2\n      mstore\n      0x20\n      add\n      0x00\n      keccak256\n      0x00\n        /* \"contracts/MultiSigWallet1.sol\":2265:2298  approved[txId][msg.sender] = true */\n      0x0100\n      exp\n      dup2\n      sload\n      dup2\n      0xff\n      mul\n      not\n      and\n      swap1\n      dup4\n      iszero\n      iszero\n      mul\n      or\n      swap1\n      sstore\n      pop\n        /* \"contracts/MultiSigWallet1.sol\":2314:2338  Approve(msg.sender,txId) */\n      0x90ec57f18fa7b15c6b8d5e4d1deb90796c74b2ff23d4d0cecad0cb42a96b3128\n        /* \"contracts/MultiSigWallet1.sol\":2322:2332  msg.sender */\n      caller\n        /* \"contracts/MultiSigWallet1.sol\":2333:2337  txId */\n      dup6\n        /* \"contracts/MultiSigWallet1.sol\":2314:2338  Approve(msg.sender,txId) */\n      mload(0x40)\n      tag_135\n      swap3\n      swap2\n      swap1\n      tag_14\n      jump\t// in\n    tag_135:\n      mload(0x40)\n      dup1\n      swap2\n      sub\n      swap1\n      log1\n        /* \"contracts/MultiSigWallet1.sol\":985:986  _ */\n      pop\n        /* \"contracts/MultiSigWallet1.sol\":856:857  _ */\n      pop\n        /* \"contracts/MultiSigWallet1.sol\":736:737  _ */\n      pop\n        /* \"contracts/MultiSigWallet1.sol\":2156:2346  function approve(uint txId) external onlyOwner trxExists(txId) notApproved(txId) notExcuted(txId) {\r... */\n      pop\n      jump\t// out\n        /* \"contracts/MultiSigWallet1.sol\":415:435  uint public required */\n    tag_47:\n      sload(0x03)\n      dup2\n      jump\t// out\n        /* \"contracts/MultiSigWallet1.sol\":2354:2580  function _getApprovalCount(uint txId) private view returns (uint count){\r... */\n    tag_102:\n        /* \"contracts/MultiSigWallet1.sol\":2414:2424  uint count */\n      0x00\n        /* \"contracts/MultiSigWallet1.sol\":2441:2447  uint i */\n      dup1\n        /* \"contracts/MultiSigWallet1.sol\":2436:2573  for (uint i; i < owners.length; i++) {\r... */\n    tag_137:\n        /* \"contracts/MultiSigWallet1.sol\":2453:2459  owners */\n      0x00\n        /* \"contracts/MultiSigWallet1.sol\":2453:2466  owners.length */\n      dup1\n      sload\n      swap1\n      pop\n        /* \"contracts/MultiSigWallet1.sol\":2449:2450  i */\n      dup2\n        /* \"contracts/MultiSigWallet1.sol\":2449:2466  i < owners.length */\n      lt\n        /* \"contracts/MultiSigWallet1.sol\":2436:2573  for (uint i; i < owners.length; i++) {\r... */\n      iszero\n      tag_138\n      jumpi\n        /* \"contracts/MultiSigWallet1.sol\":2491:2499  approved */\n      0x04\n        /* \"contracts/MultiSigWallet1.sol\":2491:2505  approved[txId] */\n      0x00\n        /* \"contracts/MultiSigWallet1.sol\":2500:2504  txId */\n      dup5\n        /* \"contracts/MultiSigWallet1.sol\":2491:2505  approved[txId] */\n      dup2\n      mstore\n      0x20\n      add\n      swap1\n      dup2\n      mstore\n      0x20\n      add\n      0x00\n      keccak256\n        /* \"contracts/MultiSigWallet1.sol\":2491:2516  approved[txId][owners[i]] */\n      0x00\n        /* \"contracts/MultiSigWallet1.sol\":2506:2512  owners */\n      dup1\n        /* \"contracts/MultiSigWallet1.sol\":2513:2514  i */\n      dup4\n        /* \"contracts/MultiSigWallet1.sol\":2506:2515  owners[i] */\n      dup2\n      sload\n      dup2\n      lt\n      tag_140\n      jumpi\n      tag_141\n      tag_73\n      jump\t// in\n    tag_141:\n    tag_140:\n      swap1\n      0x00\n      mstore\n      keccak256(0x00, 0x20)\n      add\n      0x00\n      swap1\n      sload\n      swap1\n      0x0100\n      exp\n      swap1\n      div\n      0xffffffffffffffffffffffffffffffffffffffff\n      and\n        /* \"contracts/MultiSigWallet1.sol\":2491:2516  approved[txId][owners[i]] */\n      0xffffffffffffffffffffffffffffffffffffffff\n      and\n      0xffffffffffffffffffffffffffffffffffffffff\n      and\n      dup2\n      mstore\n      0x20\n      add\n      swap1\n      dup2\n      mstore\n      0x20\n      add\n      0x00\n      keccak256\n      0x00\n      swap1\n      sload\n      swap1\n      0x0100\n      exp\n      swap1\n      div\n      0xff\n      and\n        /* \"contracts/MultiSigWallet1.sol\":2488:2562  if(approved[txId][owners[i]]){\r... */\n      iszero\n      tag_143\n      jumpi\n        /* \"contracts/MultiSigWallet1.sol\":2545:2546  1 */\n      0x01\n        /* \"contracts/MultiSigWallet1.sol\":2536:2546  count += 1 */\n      dup3\n      tag_144\n      swap2\n      swap1\n      tag_145\n      jump\t// in\n    tag_144:\n      swap2\n      pop\n        /* \"contracts/MultiSigWallet1.sol\":2488:2562  if(approved[txId][owners[i]]){\r... */\n    tag_143:\n        /* \"contracts/MultiSigWallet1.sol\":2468:2471  i++ */\n      dup1\n      dup1\n      tag_146\n      swap1\n      tag_147\n      jump\t// in\n    tag_146:\n      swap2\n      pop\n      pop\n        /* \"contracts/MultiSigWallet1.sol\":2436:2573  for (uint i; i < owners.length; i++) {\r... */\n      jump(tag_137)\n    tag_138:\n      pop\n        /* \"contracts/MultiSigWallet1.sol\":2354:2580  function _getApprovalCount(uint txId) private view returns (uint count){\r... */\n      swap2\n      swap1\n      pop\n      jump\t// out\n    tag_59:\n      dup3\n      dup1\n      sload\n      tag_148\n      swap1\n      tag_86\n      jump\t// in\n    tag_148:\n      swap1\n      0x00\n      mstore\n      keccak256(0x00, 0x20)\n      swap1\n      0x1f\n      add\n      0x20\n      swap1\n      div\n      dup2\n      add\n      swap3\n      dup3\n      tag_150\n      jumpi\n      0x00\n      dup6\n      sstore\n      jump(tag_149)\n    tag_150:\n      dup3\n      0x1f\n      lt\n      tag_151\n      jumpi\n      dup1\n      mload\n      not(0xff)\n      and\n      dup4\n      dup1\n      add\n      or\n      dup6\n      sstore\n      jump(tag_149)\n    tag_151:\n      dup3\n      dup1\n      add\n      0x01\n      add\n      dup6\n      sstore\n      dup3\n      iszero\n      tag_149\n      jumpi\n      swap2\n      dup3\n      add\n    tag_152:\n      dup3\n      dup2\n      gt\n      iszero\n      tag_153\n      jumpi\n      dup3\n      mload\n      dup3\n      sstore\n      swap2\n      0x20\n      add\n      swap2\n      swap1\n      0x01\n      add\n      swap1\n      jump(tag_152)\n    tag_153:\n    tag_149:\n      pop\n      swap1\n      pop\n      tag_154\n      swap2\n      swap1\n      tag_155\n      jump\t// in\n    tag_154:\n      pop\n      swap1\n      jump\t// out\n    tag_155:\n    tag_156:\n      dup1\n      dup3\n      gt\n      iszero\n      tag_157\n      jumpi\n      0x00\n      dup2\n      0x00\n      swap1\n      sstore\n      pop\n      0x01\n      add\n      jump(tag_156)\n    tag_157:\n      pop\n      swap1\n      jump\t// out\n        /* \"#utility.yul\":7:146   */\n    tag_159:\n        /* \"#utility.yul\":53:58   */\n      0x00\n        /* \"#utility.yul\":91:97   */\n      dup2\n        /* \"#utility.yul\":78:98   */\n      calldataload\n        /* \"#utility.yul\":69:98   */\n      swap1\n      pop\n        /* \"#utility.yul\":107:140   */\n      tag_161\n        /* \"#utility.yul\":134:139   */\n      dup2\n        /* \"#utility.yul\":107:140   */\n      tag_162\n      jump\t// in\n    tag_161:\n        /* \"#utility.yul\":7:146   */\n      swap3\n      swap2\n      pop\n      pop\n      jump\t// out\n        /* \"#utility.yul\":165:717   */\n    tag_163:\n        /* \"#utility.yul\":222:230   */\n      0x00\n        /* \"#utility.yul\":232:238   */\n      dup1\n        /* \"#utility.yul\":282:285   */\n      dup4\n        /* \"#utility.yul\":275:279   */\n      0x1f\n        /* \"#utility.yul\":267:273   */\n      dup5\n        /* \"#utility.yul\":263:280   */\n      add\n        /* \"#utility.yul\":259:286   */\n      slt\n        /* \"#utility.yul\":249:371   */\n      tag_165\n      jumpi\n        /* \"#utility.yul\":290:369   */\n      tag_166\n      tag_167\n      jump\t// in\n    tag_166:\n        /* \"#utility.yul\":249:371   */\n    tag_165:\n        /* \"#utility.yul\":403:409   */\n      dup3\n        /* \"#utility.yul\":390:410   */\n      calldataload\n        /* \"#utility.yul\":380:410   */\n      swap1\n      pop\n        /* \"#utility.yul\":433:451   */\n      0xffffffffffffffff\n        /* \"#utility.yul\":425:431   */\n      dup2\n        /* \"#utility.yul\":422:452   */\n      gt\n        /* \"#utility.yul\":419:536   */\n      iszero\n      tag_168\n      jumpi\n        /* \"#utility.yul\":455:534   */\n      tag_169\n      tag_170\n      jump\t// in\n    tag_169:\n        /* \"#utility.yul\":419:536   */\n    tag_168:\n        /* \"#utility.yul\":569:573   */\n      0x20\n        /* \"#utility.yul\":561:567   */\n      dup4\n        /* \"#utility.yul\":557:574   */\n      add\n        /* \"#utility.yul\":545:574   */\n      swap2\n      pop\n        /* \"#utility.yul\":623:626   */\n      dup4\n        /* \"#utility.yul\":615:619   */\n      0x01\n        /* \"#utility.yul\":607:613   */\n      dup3\n        /* \"#utility.yul\":603:620   */\n      mul\n        /* \"#utility.yul\":593:601   */\n      dup4\n        /* \"#utility.yul\":589:621   */\n      add\n        /* \"#utility.yul\":586:627   */\n      gt\n        /* \"#utility.yul\":583:711   */\n      iszero\n      tag_171\n      jumpi\n        /* \"#utility.yul\":630:709   */\n      tag_172\n      tag_173\n      jump\t// in\n    tag_172:\n        /* \"#utility.yul\":583:711   */\n    tag_171:\n        /* \"#utility.yul\":165:717   */\n      swap3\n      pop\n      swap3\n      swap1\n      pop\n      jump\t// out\n        /* \"#utility.yul\":723:862   */\n    tag_174:\n        /* \"#utility.yul\":769:774   */\n      0x00\n        /* \"#utility.yul\":807:813   */\n      dup2\n        /* \"#utility.yul\":794:814   */\n      calldataload\n        /* \"#utility.yul\":785:814   */\n      swap1\n      pop\n        /* \"#utility.yul\":823:856   */\n      tag_176\n        /* \"#utility.yul\":850:855   */\n      dup2\n        /* \"#utility.yul\":823:856   */\n      tag_177\n      jump\t// in\n    tag_176:\n        /* \"#utility.yul\":723:862   */\n      swap3\n      swap2\n      pop\n      pop\n      jump\t// out\n        /* \"#utility.yul\":868:1685   */\n    tag_25:\n        /* \"#utility.yul\":956:962   */\n      0x00\n        /* \"#utility.yul\":964:970   */\n      dup1\n        /* \"#utility.yul\":972:978   */\n      0x00\n        /* \"#utility.yul\":980:986   */\n      dup1\n        /* \"#utility.yul\":1029:1031   */\n      0x60\n        /* \"#utility.yul\":1017:1026   */\n      dup6\n        /* \"#utility.yul\":1008:1015   */\n      dup8\n        /* \"#utility.yul\":1004:1027   */\n      sub\n        /* \"#utility.yul\":1000:1032   */\n      slt\n        /* \"#utility.yul\":997:1116   */\n      iszero\n      tag_179\n      jumpi\n        /* \"#utility.yul\":1035:1114   */\n      tag_180\n      tag_181\n      jump\t// in\n    tag_180:\n        /* \"#utility.yul\":997:1116   */\n    tag_179:\n        /* \"#utility.yul\":1155:1156   */\n      0x00\n        /* \"#utility.yul\":1180:1233   */\n      tag_182\n        /* \"#utility.yul\":1225:1232   */\n      dup8\n        /* \"#utility.yul\":1216:1222   */\n      dup3\n        /* \"#utility.yul\":1205:1214   */\n      dup9\n        /* \"#utility.yul\":1201:1223   */\n      add\n        /* \"#utility.yul\":1180:1233   */\n      tag_159\n      jump\t// in\n    tag_182:\n        /* \"#utility.yul\":1170:1233   */\n      swap5\n      pop\n        /* \"#utility.yul\":1126:1243   */\n      pop\n        /* \"#utility.yul\":1282:1284   */\n      0x20\n        /* \"#utility.yul\":1308:1361   */\n      tag_183\n        /* \"#utility.yul\":1353:1360   */\n      dup8\n        /* \"#utility.yul\":1344:1350   */\n      dup3\n        /* \"#utility.yul\":1333:1342   */\n      dup9\n        /* \"#utility.yul\":1329:1351   */\n      add\n        /* \"#utility.yul\":1308:1361   */\n      tag_174\n      jump\t// in\n    tag_183:\n        /* \"#utility.yul\":1298:1361   */\n      swap4\n      pop\n        /* \"#utility.yul\":1253:1371   */\n      pop\n        /* \"#utility.yul\":1438:1440   */\n      0x40\n        /* \"#utility.yul\":1427:1436   */\n      dup6\n        /* \"#utility.yul\":1423:1441   */\n      add\n        /* \"#utility.yul\":1410:1442   */\n      calldataload\n        /* \"#utility.yul\":1469:1487   */\n      0xffffffffffffffff\n        /* \"#utility.yul\":1461:1467   */\n      dup2\n        /* \"#utility.yul\":1458:1488   */\n      gt\n        /* \"#utility.yul\":1455:1572   */\n      iszero\n      tag_184\n      jumpi\n        /* \"#utility.yul\":1491:1570   */\n      tag_185\n      tag_186\n      jump\t// in\n    tag_185:\n        /* \"#utility.yul\":1455:1572   */\n    tag_184:\n        /* \"#utility.yul\":1604:1668   */\n      tag_187\n        /* \"#utility.yul\":1660:1667   */\n      dup8\n        /* \"#utility.yul\":1651:1657   */\n      dup3\n        /* \"#utility.yul\":1640:1649   */\n      dup9\n        /* \"#utility.yul\":1636:1658   */\n      add\n        /* \"#utility.yul\":1604:1668   */\n      tag_163\n      jump\t// in\n    tag_187:\n        /* \"#utility.yul\":1586:1668   */\n      swap3\n      pop\n      swap3\n      pop\n        /* \"#utility.yul\":1381:1678   */\n      pop\n        /* \"#utility.yul\":868:1685   */\n      swap3\n      swap6\n      swap2\n      swap5\n      pop\n      swap3\n      pop\n      jump\t// out\n        /* \"#utility.yul\":1691:2020   */\n    tag_18:\n        /* \"#utility.yul\":1750:1756   */\n      0x00\n        /* \"#utility.yul\":1799:1801   */\n      0x20\n        /* \"#utility.yul\":1787:1796   */\n      dup3\n        /* \"#utility.yul\":1778:1785   */\n      dup5\n        /* \"#utility.yul\":1774:1797   */\n      sub\n        /* \"#utility.yul\":1770:1802   */\n      slt\n        /* \"#utility.yul\":1767:1886   */\n      iszero\n      tag_189\n      jumpi\n        /* \"#utility.yul\":1805:1884   */\n      tag_190\n      tag_181\n      jump\t// in\n    tag_190:\n        /* \"#utility.yul\":1767:1886   */\n    tag_189:\n        /* \"#utility.yul\":1925:1926   */\n      0x00\n        /* \"#utility.yul\":1950:2003   */\n      tag_191\n        /* \"#utility.yul\":1995:2002   */\n      dup5\n        /* \"#utility.yul\":1986:1992   */\n      dup3\n        /* \"#utility.yul\":1975:1984   */\n      dup6\n        /* \"#utility.yul\":1971:1993   */\n      add\n        /* \"#utility.yul\":1950:2003   */\n      tag_174\n      jump\t// in\n    tag_191:\n        /* \"#utility.yul\":1940:2003   */\n      swap2\n      pop\n        /* \"#utility.yul\":1896:2013   */\n      pop\n        /* \"#utility.yul\":1691:2020   */\n      swap3\n      swap2\n      pop\n      pop\n      jump\t// out\n        /* \"#utility.yul\":2026:2144   */\n    tag_192:\n        /* \"#utility.yul\":2113:2137   */\n      tag_194\n        /* \"#utility.yul\":2131:2136   */\n      dup2\n        /* \"#utility.yul\":2113:2137   */\n      tag_195\n      jump\t// in\n    tag_194:\n        /* \"#utility.yul\":2108:2111   */\n      dup3\n        /* \"#utility.yul\":2101:2138   */\n      mstore\n        /* \"#utility.yul\":2026:2144   */\n      pop\n      pop\n      jump\t// out\n        /* \"#utility.yul\":2150:2259   */\n    tag_196:\n        /* \"#utility.yul\":2231:2252   */\n      tag_198\n        /* \"#utility.yul\":2246:2251   */\n      dup2\n        /* \"#utility.yul\":2231:2252   */\n      tag_199\n      jump\t// in\n    tag_198:\n        /* \"#utility.yul\":2226:2229   */\n      dup3\n        /* \"#utility.yul\":2219:2253   */\n      mstore\n        /* \"#utility.yul\":2150:2259   */\n      pop\n      pop\n      jump\t// out\n        /* \"#utility.yul\":2265:2625   */\n    tag_200:\n        /* \"#utility.yul\":2351:2354   */\n      0x00\n        /* \"#utility.yul\":2379:2417   */\n      tag_202\n        /* \"#utility.yul\":2411:2416   */\n      dup3\n        /* \"#utility.yul\":2379:2417   */\n      tag_203\n      jump\t// in\n    tag_202:\n        /* \"#utility.yul\":2433:2503   */\n      tag_204\n        /* \"#utility.yul\":2496:2502   */\n      dup2\n        /* \"#utility.yul\":2491:2494   */\n      dup6\n        /* \"#utility.yul\":2433:2503   */\n      tag_205\n      jump\t// in\n    tag_204:\n        /* \"#utility.yul\":2426:2503   */\n      swap4\n      pop\n        /* \"#utility.yul\":2512:2564   */\n      tag_206\n        /* \"#utility.yul\":2557:2563   */\n      dup2\n        /* \"#utility.yul\":2552:2555   */\n      dup6\n        /* \"#utility.yul\":2545:2549   */\n      0x20\n        /* \"#utility.yul\":2538:2543   */\n      dup7\n        /* \"#utility.yul\":2534:2550   */\n      add\n        /* \"#utility.yul\":2512:2564   */\n      tag_207\n      jump\t// in\n    tag_206:\n        /* \"#utility.yul\":2589:2618   */\n      tag_208\n        /* \"#utility.yul\":2611:2617   */\n      dup2\n        /* \"#utility.yul\":2589:2618   */\n      tag_209\n      jump\t// in\n    tag_208:\n        /* \"#utility.yul\":2584:2587   */\n      dup5\n        /* \"#utility.yul\":2580:2619   */\n      add\n        /* \"#utility.yul\":2573:2619   */\n      swap2\n      pop\n        /* \"#utility.yul\":2355:2625   */\n      pop\n        /* \"#utility.yul\":2265:2625   */\n      swap3\n      swap2\n      pop\n      pop\n      jump\t// out\n        /* \"#utility.yul\":2653:3494   */\n    tag_210:\n        /* \"#utility.yul\":2754:2757   */\n      0x00\n        /* \"#utility.yul\":2791:2796   */\n      dup2\n        /* \"#utility.yul\":2785:2797   */\n      sload\n        /* \"#utility.yul\":2820:2856   */\n      tag_212\n        /* \"#utility.yul\":2846:2855   */\n      dup2\n        /* \"#utility.yul\":2820:2856   */\n      tag_86\n      jump\t// in\n    tag_212:\n        /* \"#utility.yul\":2872:2960   */\n      tag_213\n        /* \"#utility.yul\":2953:2959   */\n      dup2\n        /* \"#utility.yul\":2948:2951   */\n      dup7\n        /* \"#utility.yul\":2872:2960   */\n      tag_214\n      jump\t// in\n    tag_213:\n        /* \"#utility.yul\":2865:2960   */\n      swap5\n      pop\n        /* \"#utility.yul\":2991:2992   */\n      0x01\n        /* \"#utility.yul\":2980:2989   */\n      dup3\n        /* \"#utility.yul\":2976:2993   */\n      and\n        /* \"#utility.yul\":3007:3008   */\n      0x00\n        /* \"#utility.yul\":3002:3139   */\n      dup2\n      eq\n      tag_216\n      jumpi\n        /* \"#utility.yul\":3153:3154   */\n      0x01\n        /* \"#utility.yul\":3148:3488   */\n      dup2\n      eq\n      tag_217\n      jumpi\n        /* \"#utility.yul\":2969:3488   */\n      jump(tag_215)\n        /* \"#utility.yul\":3002:3139   */\n    tag_216:\n        /* \"#utility.yul\":3086:3090   */\n      0xff\n        /* \"#utility.yul\":3082:3091   */\n      not\n        /* \"#utility.yul\":3071:3080   */\n      dup4\n        /* \"#utility.yul\":3067:3092   */\n      and\n        /* \"#utility.yul\":3062:3065   */\n      dup7\n        /* \"#utility.yul\":3055:3093   */\n      mstore\n        /* \"#utility.yul\":3122:3128   */\n      dup2\n        /* \"#utility.yul\":3117:3120   */\n      dup7\n        /* \"#utility.yul\":3113:3129   */\n      add\n        /* \"#utility.yul\":3106:3129   */\n      swap4\n      pop\n        /* \"#utility.yul\":3002:3139   */\n      jump(tag_215)\n        /* \"#utility.yul\":3148:3488   */\n    tag_217:\n        /* \"#utility.yul\":3215:3252   */\n      tag_218\n        /* \"#utility.yul\":3246:3251   */\n      dup6\n        /* \"#utility.yul\":3215:3252   */\n      tag_219\n      jump\t// in\n    tag_218:\n        /* \"#utility.yul\":3274:3275   */\n      0x00\n        /* \"#utility.yul\":3288:3442   */\n    tag_220:\n        /* \"#utility.yul\":3302:3308   */\n      dup4\n        /* \"#utility.yul\":3299:3300   */\n      dup2\n        /* \"#utility.yul\":3296:3309   */\n      lt\n        /* \"#utility.yul\":3288:3442   */\n      iszero\n      tag_222\n      jumpi\n        /* \"#utility.yul\":3376:3383   */\n      dup2\n        /* \"#utility.yul\":3370:3384   */\n      sload\n        /* \"#utility.yul\":3366:3367   */\n      dup2\n        /* \"#utility.yul\":3361:3364   */\n      dup10\n        /* \"#utility.yul\":3357:3368   */\n      add\n        /* \"#utility.yul\":3350:3385   */\n      mstore\n        /* \"#utility.yul\":3426:3427   */\n      0x01\n        /* \"#utility.yul\":3417:3424   */\n      dup3\n        /* \"#utility.yul\":3413:3428   */\n      add\n        /* \"#utility.yul\":3402:3428   */\n      swap2\n      pop\n        /* \"#utility.yul\":3324:3328   */\n      0x20\n        /* \"#utility.yul\":3321:3322   */\n      dup2\n        /* \"#utility.yul\":3317:3329   */\n      add\n        /* \"#utility.yul\":3312:3329   */\n      swap1\n      pop\n        /* \"#utility.yul\":3288:3442   */\n      jump(tag_220)\n    tag_222:\n        /* \"#utility.yul\":3471:3477   */\n      dup4\n        /* \"#utility.yul\":3466:3469   */\n      dup9\n        /* \"#utility.yul\":3462:3478   */\n      add\n        /* \"#utility.yul\":3455:3478   */\n      swap6\n      pop\n        /* \"#utility.yul\":3155:3488   */\n      pop\n      pop\n        /* \"#utility.yul\":2969:3488   */\n    tag_215:\n      pop\n        /* \"#utility.yul\":2758:3494   */\n      pop\n      pop\n        /* \"#utility.yul\":2653:3494   */\n      swap3\n      swap2\n      pop\n      pop\n      jump\t// out\n        /* \"#utility.yul\":3500:3866   */\n    tag_223:\n        /* \"#utility.yul\":3642:3645   */\n      0x00\n        /* \"#utility.yul\":3663:3730   */\n      tag_225\n        /* \"#utility.yul\":3727:3729   */\n      0x0f\n        /* \"#utility.yul\":3722:3725   */\n      dup4\n        /* \"#utility.yul\":3663:3730   */\n      tag_226\n      jump\t// in\n    tag_225:\n        /* \"#utility.yul\":3656:3730   */\n      swap2\n      pop\n        /* \"#utility.yul\":3739:3832   */\n      tag_227\n        /* \"#utility.yul\":3828:3831   */\n      dup3\n        /* \"#utility.yul\":3739:3832   */\n      tag_228\n      jump\t// in\n    tag_227:\n        /* \"#utility.yul\":3857:3859   */\n      0x20\n        /* \"#utility.yul\":3852:3855   */\n      dup3\n        /* \"#utility.yul\":3848:3860   */\n      add\n        /* \"#utility.yul\":3841:3860   */\n      swap1\n      pop\n        /* \"#utility.yul\":3500:3866   */\n      swap2\n      swap1\n      pop\n      jump\t// out\n        /* \"#utility.yul\":3872:4238   */\n    tag_229:\n        /* \"#utility.yul\":4014:4017   */\n      0x00\n        /* \"#utility.yul\":4035:4102   */\n      tag_231\n        /* \"#utility.yul\":4099:4101   */\n      0x14\n        /* \"#utility.yul\":4094:4097   */\n      dup4\n        /* \"#utility.yul\":4035:4102   */\n      tag_226\n      jump\t// in\n    tag_231:\n        /* \"#utility.yul\":4028:4102   */\n      swap2\n      pop\n        /* \"#utility.yul\":4111:4204   */\n      tag_232\n        /* \"#utility.yul\":4200:4203   */\n      dup3\n        /* \"#utility.yul\":4111:4204   */\n      tag_233\n      jump\t// in\n    tag_232:\n        /* \"#utility.yul\":4229:4231   */\n      0x20\n        /* \"#utility.yul\":4224:4227   */\n      dup3\n        /* \"#utility.yul\":4220:4232   */\n      add\n        /* \"#utility.yul\":4213:4232   */\n      swap1\n      pop\n        /* \"#utility.yul\":3872:4238   */\n      swap2\n      swap1\n      pop\n      jump\t// out\n        /* \"#utility.yul\":4244:4610   */\n    tag_234:\n        /* \"#utility.yul\":4386:4389   */\n      0x00\n        /* \"#utility.yul\":4407:4474   */\n      tag_236\n        /* \"#utility.yul\":4471:4473   */\n      0x20\n        /* \"#utility.yul\":4466:4469   */\n      dup4\n        /* \"#utility.yul\":4407:4474   */\n      tag_226\n      jump\t// in\n    tag_236:\n        /* \"#utility.yul\":4400:4474   */\n      swap2\n      pop\n        /* \"#utility.yul\":4483:4576   */\n      tag_237\n        /* \"#utility.yul\":4572:4575   */\n      dup3\n        /* \"#utility.yul\":4483:4576   */\n      tag_238\n      jump\t// in\n    tag_237:\n        /* \"#utility.yul\":4601:4603   */\n      0x20\n        /* \"#utility.yul\":4596:4599   */\n      dup3\n        /* \"#utility.yul\":4592:4604   */\n      add\n        /* \"#utility.yul\":4585:4604   */\n      swap1\n      pop\n        /* \"#utility.yul\":4244:4610   */\n      swap2\n      swap1\n      pop\n      jump\t// out\n        /* \"#utility.yul\":4616:4982   */\n    tag_239:\n        /* \"#utility.yul\":4758:4761   */\n      0x00\n        /* \"#utility.yul\":4779:4846   */\n      tag_241\n        /* \"#utility.yul\":4843:4845   */\n      0x13\n        /* \"#utility.yul\":4838:4841   */\n      dup4\n        /* \"#utility.yul\":4779:4846   */\n      tag_226\n      jump\t// in\n    tag_241:\n        /* \"#utility.yul\":4772:4846   */\n      swap2\n      pop\n        /* \"#utility.yul\":4855:4948   */\n      tag_242\n        /* \"#utility.yul\":4944:4947   */\n      dup3\n        /* \"#utility.yul\":4855:4948   */\n      tag_243\n      jump\t// in\n    tag_242:\n        /* \"#utility.yul\":4973:4975   */\n      0x20\n        /* \"#utility.yul\":4968:4971   */\n      dup3\n        /* \"#utility.yul\":4964:4976   */\n      add\n        /* \"#utility.yul\":4957:4976   */\n      swap1\n      pop\n        /* \"#utility.yul\":4616:4982   */\n      swap2\n      swap1\n      pop\n      jump\t// out\n        /* \"#utility.yul\":4988:5354   */\n    tag_244:\n        /* \"#utility.yul\":5130:5133   */\n      0x00\n        /* \"#utility.yul\":5151:5218   */\n      tag_246\n        /* \"#utility.yul\":5215:5217   */\n      0x0d\n        /* \"#utility.yul\":5210:5213   */\n      dup4\n        /* \"#utility.yul\":5151:5218   */\n      tag_226\n      jump\t// in\n    tag_246:\n        /* \"#utility.yul\":5144:5218   */\n      swap2\n      pop\n        /* \"#utility.yul\":5227:5320   */\n      tag_247\n        /* \"#utility.yul\":5316:5319   */\n      dup3\n        /* \"#utility.yul\":5227:5320   */\n      tag_248\n      jump\t// in\n    tag_247:\n        /* \"#utility.yul\":5345:5347   */\n      0x20\n        /* \"#utility.yul\":5340:5343   */\n      dup3\n        /* \"#utility.yul\":5336:5348   */\n      add\n        /* \"#utility.yul\":5329:5348   */\n      swap1\n      pop\n        /* \"#utility.yul\":4988:5354   */\n      swap2\n      swap1\n      pop\n      jump\t// out\n        /* \"#utility.yul\":5360:5726   */\n    tag_249:\n        /* \"#utility.yul\":5502:5505   */\n      0x00\n        /* \"#utility.yul\":5523:5590   */\n      tag_251\n        /* \"#utility.yul\":5587:5589   */\n      0x0b\n        /* \"#utility.yul\":5582:5585   */\n      dup4\n        /* \"#utility.yul\":5523:5590   */\n      tag_226\n      jump\t// in\n    tag_251:\n        /* \"#utility.yul\":5516:5590   */\n      swap2\n      pop\n        /* \"#utility.yul\":5599:5692   */\n      tag_252\n        /* \"#utility.yul\":5688:5691   */\n      dup3\n        /* \"#utility.yul\":5599:5692   */\n      tag_253\n      jump\t// in\n    tag_252:\n        /* \"#utility.yul\":5717:5719   */\n      0x20\n        /* \"#utility.yul\":5712:5715   */\n      dup3\n        /* \"#utility.yul\":5708:5720   */\n      add\n        /* \"#utility.yul\":5701:5720   */\n      swap1\n      pop\n        /* \"#utility.yul\":5360:5726   */\n      swap2\n      swap1\n      pop\n      jump\t// out\n        /* \"#utility.yul\":5732:6098   */\n    tag_254:\n        /* \"#utility.yul\":5874:5877   */\n      0x00\n        /* \"#utility.yul\":5895:5962   */\n      tag_256\n        /* \"#utility.yul\":5959:5961   */\n      0x12\n        /* \"#utility.yul\":5954:5957   */\n      dup4\n        /* \"#utility.yul\":5895:5962   */\n      tag_226\n      jump\t// in\n    tag_256:\n        /* \"#utility.yul\":5888:5962   */\n      swap2\n      pop\n        /* \"#utility.yul\":5971:6064   */\n      tag_257\n        /* \"#utility.yul\":6060:6063   */\n      dup3\n        /* \"#utility.yul\":5971:6064   */\n      tag_258\n      jump\t// in\n    tag_257:\n        /* \"#utility.yul\":6089:6091   */\n      0x20\n        /* \"#utility.yul\":6084:6087   */\n      dup3\n        /* \"#utility.yul\":6080:6092   */\n      add\n        /* \"#utility.yul\":6073:6092   */\n      swap1\n      pop\n        /* \"#utility.yul\":5732:6098   */\n      swap2\n      swap1\n      pop\n      jump\t// out\n        /* \"#utility.yul\":6104:6222   */\n    tag_259:\n        /* \"#utility.yul\":6191:6215   */\n      tag_261\n        /* \"#utility.yul\":6209:6214   */\n      dup2\n        /* \"#utility.yul\":6191:6215   */\n      tag_262\n      jump\t// in\n    tag_261:\n        /* \"#utility.yul\":6186:6189   */\n      dup3\n        /* \"#utility.yul\":6179:6216   */\n      mstore\n        /* \"#utility.yul\":6104:6222   */\n      pop\n      pop\n      jump\t// out\n        /* \"#utility.yul\":6228:6493   */\n    tag_110:\n        /* \"#utility.yul\":6355:6358   */\n      0x00\n        /* \"#utility.yul\":6377:6467   */\n      tag_264\n        /* \"#utility.yul\":6463:6466   */\n      dup3\n        /* \"#utility.yul\":6454:6460   */\n      dup5\n        /* \"#utility.yul\":6377:6467   */\n      tag_210\n      jump\t// in\n    tag_264:\n        /* \"#utility.yul\":6370:6467   */\n      swap2\n      pop\n        /* \"#utility.yul\":6484:6487   */\n      dup2\n        /* \"#utility.yul\":6477:6487   */\n      swap1\n      pop\n        /* \"#utility.yul\":6228:6493   */\n      swap3\n      swap2\n      pop\n      pop\n      jump\t// out\n        /* \"#utility.yul\":6499:6721   */\n    tag_21:\n        /* \"#utility.yul\":6592:6596   */\n      0x00\n        /* \"#utility.yul\":6630:6632   */\n      0x20\n        /* \"#utility.yul\":6619:6628   */\n      dup3\n        /* \"#utility.yul\":6615:6633   */\n      add\n        /* \"#utility.yul\":6607:6633   */\n      swap1\n      pop\n        /* \"#utility.yul\":6643:6714   */\n      tag_266\n        /* \"#utility.yul\":6711:6712   */\n      0x00\n        /* \"#utility.yul\":6700:6709   */\n      dup4\n        /* \"#utility.yul\":6696:6713   */\n      add\n        /* \"#utility.yul\":6687:6693   */\n      dup5\n        /* \"#utility.yul\":6643:6714   */\n      tag_192\n      jump\t// in\n    tag_266:\n        /* \"#utility.yul\":6499:6721   */\n      swap3\n      swap2\n      pop\n      pop\n      jump\t// out\n        /* \"#utility.yul\":6727:7059   */\n    tag_14:\n        /* \"#utility.yul\":6848:6852   */\n      0x00\n        /* \"#utility.yul\":6886:6888   */\n      0x40\n        /* \"#utility.yul\":6875:6884   */\n      dup3\n        /* \"#utility.yul\":6871:6889   */\n      add\n        /* \"#utility.yul\":6863:6889   */\n      swap1\n      pop\n        /* \"#utility.yul\":6899:6970   */\n      tag_268\n        /* \"#utility.yul\":6967:6968   */\n      0x00\n        /* \"#utility.yul\":6956:6965   */\n      dup4\n        /* \"#utility.yul\":6952:6969   */\n      add\n        /* \"#utility.yul\":6943:6949   */\n      dup6\n        /* \"#utility.yul\":6899:6970   */\n      tag_192\n      jump\t// in\n    tag_268:\n        /* \"#utility.yul\":6980:7052   */\n      tag_269\n        /* \"#utility.yul\":7048:7050   */\n      0x20\n        /* \"#utility.yul\":7037:7046   */\n      dup4\n        /* \"#utility.yul\":7033:7051   */\n      add\n        /* \"#utility.yul\":7024:7030   */\n      dup5\n        /* \"#utility.yul\":6980:7052   */\n      tag_259\n      jump\t// in\n    tag_269:\n        /* \"#utility.yul\":6727:7059   */\n      swap4\n      swap3\n      pop\n      pop\n      pop\n      jump\t// out\n        /* \"#utility.yul\":7065:7693   */\n    tag_36:\n        /* \"#utility.yul\":7254:7258   */\n      0x00\n        /* \"#utility.yul\":7292:7295   */\n      0x80\n        /* \"#utility.yul\":7281:7290   */\n      dup3\n        /* \"#utility.yul\":7277:7296   */\n      add\n        /* \"#utility.yul\":7269:7296   */\n      swap1\n      pop\n        /* \"#utility.yul\":7306:7377   */\n      tag_271\n        /* \"#utility.yul\":7374:7375   */\n      0x00\n        /* \"#utility.yul\":7363:7372   */\n      dup4\n        /* \"#utility.yul\":7359:7376   */\n      add\n        /* \"#utility.yul\":7350:7356   */\n      dup8\n        /* \"#utility.yul\":7306:7377   */\n      tag_192\n      jump\t// in\n    tag_271:\n        /* \"#utility.yul\":7387:7459   */\n      tag_272\n        /* \"#utility.yul\":7455:7457   */\n      0x20\n        /* \"#utility.yul\":7444:7453   */\n      dup4\n        /* \"#utility.yul\":7440:7458   */\n      add\n        /* \"#utility.yul\":7431:7437   */\n      dup7\n        /* \"#utility.yul\":7387:7459   */\n      tag_259\n      jump\t// in\n    tag_272:\n        /* \"#utility.yul\":7506:7515   */\n      dup2\n        /* \"#utility.yul\":7500:7504   */\n      dup2\n        /* \"#utility.yul\":7496:7516   */\n      sub\n        /* \"#utility.yul\":7491:7493   */\n      0x40\n        /* \"#utility.yul\":7480:7489   */\n      dup4\n        /* \"#utility.yul\":7476:7494   */\n      add\n        /* \"#utility.yul\":7469:7517   */\n      mstore\n        /* \"#utility.yul\":7534:7610   */\n      tag_273\n        /* \"#utility.yul\":7605:7609   */\n      dup2\n        /* \"#utility.yul\":7596:7602   */\n      dup6\n        /* \"#utility.yul\":7534:7610   */\n      tag_200\n      jump\t// in\n    tag_273:\n        /* \"#utility.yul\":7526:7610   */\n      swap1\n      pop\n        /* \"#utility.yul\":7620:7686   */\n      tag_274\n        /* \"#utility.yul\":7682:7684   */\n      0x60\n        /* \"#utility.yul\":7671:7680   */\n      dup4\n        /* \"#utility.yul\":7667:7685   */\n      add\n        /* \"#utility.yul\":7658:7664   */\n      dup5\n        /* \"#utility.yul\":7620:7686   */\n      tag_196\n      jump\t// in\n    tag_274:\n        /* \"#utility.yul\":7065:7693   */\n      swap6\n      swap5\n      pop\n      pop\n      pop\n      pop\n      pop\n      jump\t// out\n        /* \"#utility.yul\":7699:8118   */\n    tag_81:\n        /* \"#utility.yul\":7865:7869   */\n      0x00\n        /* \"#utility.yul\":7903:7905   */\n      0x20\n        /* \"#utility.yul\":7892:7901   */\n      dup3\n        /* \"#utility.yul\":7888:7906   */\n      add\n        /* \"#utility.yul\":7880:7906   */\n      swap1\n      pop\n        /* \"#utility.yul\":7952:7961   */\n      dup2\n        /* \"#utility.yul\":7946:7950   */\n      dup2\n        /* \"#utility.yul\":7942:7962   */\n      sub\n        /* \"#utility.yul\":7938:7939   */\n      0x00\n        /* \"#utility.yul\":7927:7936   */\n      dup4\n        /* \"#utility.yul\":7923:7940   */\n      add\n        /* \"#utility.yul\":7916:7963   */\n      mstore\n        /* \"#utility.yul\":7980:8111   */\n      tag_276\n        /* \"#utility.yul\":8106:8110   */\n      dup2\n        /* \"#utility.yul\":7980:8111   */\n      tag_223\n      jump\t// in\n    tag_276:\n        /* \"#utility.yul\":7972:8111   */\n      swap1\n      pop\n        /* \"#utility.yul\":7699:8118   */\n      swap2\n      swap1\n      pop\n      jump\t// out\n        /* \"#utility.yul\":8124:8543   */\n    tag_105:\n        /* \"#utility.yul\":8290:8294   */\n      0x00\n        /* \"#utility.yul\":8328:8330   */\n      0x20\n        /* \"#utility.yul\":8317:8326   */\n      dup3\n        /* \"#utility.yul\":8313:8331   */\n      add\n        /* \"#utility.yul\":8305:8331   */\n      swap1\n      pop\n        /* \"#utility.yul\":8377:8386   */\n      dup2\n        /* \"#utility.yul\":8371:8375   */\n      dup2\n        /* \"#utility.yul\":8367:8387   */\n      sub\n        /* \"#utility.yul\":8363:8364   */\n      0x00\n        /* \"#utility.yul\":8352:8361   */\n      dup4\n        /* \"#utility.yul\":8348:8365   */\n      add\n        /* \"#utility.yul\":8341:8388   */\n      mstore\n        /* \"#utility.yul\":8405:8536   */\n      tag_278\n        /* \"#utility.yul\":8531:8535   */\n      dup2\n        /* \"#utility.yul\":8405:8536   */\n      tag_229\n      jump\t// in\n    tag_278:\n        /* \"#utility.yul\":8397:8536   */\n      swap1\n      pop\n        /* \"#utility.yul\":8124:8543   */\n      swap2\n      swap1\n      pop\n      jump\t// out\n        /* \"#utility.yul\":8549:8968   */\n    tag_55:\n        /* \"#utility.yul\":8715:8719   */\n      0x00\n        /* \"#utility.yul\":8753:8755   */\n      0x20\n        /* \"#utility.yul\":8742:8751   */\n      dup3\n        /* \"#utility.yul\":8738:8756   */\n      add\n        /* \"#utility.yul\":8730:8756   */\n      swap1\n      pop\n        /* \"#utility.yul\":8802:8811   */\n      dup2\n        /* \"#utility.yul\":8796:8800   */\n      dup2\n        /* \"#utility.yul\":8792:8812   */\n      sub\n        /* \"#utility.yul\":8788:8789   */\n      0x00\n        /* \"#utility.yul\":8777:8786   */\n      dup4\n        /* \"#utility.yul\":8773:8790   */\n      add\n        /* \"#utility.yul\":8766:8813   */\n      mstore\n        /* \"#utility.yul\":8830:8961   */\n      tag_280\n        /* \"#utility.yul\":8956:8960   */\n      dup2\n        /* \"#utility.yul\":8830:8961   */\n      tag_234\n      jump\t// in\n    tag_280:\n        /* \"#utility.yul\":8822:8961   */\n      swap1\n      pop\n        /* \"#utility.yul\":8549:8968   */\n      swap2\n      swap1\n      pop\n      jump\t// out\n        /* \"#utility.yul\":8974:9393   */\n    tag_127:\n        /* \"#utility.yul\":9140:9144   */\n      0x00\n        /* \"#utility.yul\":9178:9180   */\n      0x20\n        /* \"#utility.yul\":9167:9176   */\n      dup3\n        /* \"#utility.yul\":9163:9181   */\n      add\n        /* \"#utility.yul\":9155:9181   */\n      swap1\n      pop\n        /* \"#utility.yul\":9227:9236   */\n      dup2\n        /* \"#utility.yul\":9221:9225   */\n      dup2\n        /* \"#utility.yul\":9217:9237   */\n      sub\n        /* \"#utility.yul\":9213:9214   */\n      0x00\n        /* \"#utility.yul\":9202:9211   */\n      dup4\n        /* \"#utility.yul\":9198:9215   */\n      add\n        /* \"#utility.yul\":9191:9238   */\n      mstore\n        /* \"#utility.yul\":9255:9386   */\n      tag_282\n        /* \"#utility.yul\":9381:9385   */\n      dup2\n        /* \"#utility.yul\":9255:9386   */\n      tag_239\n      jump\t// in\n    tag_282:\n        /* \"#utility.yul\":9247:9386   */\n      swap1\n      pop\n        /* \"#utility.yul\":8974:9393   */\n      swap2\n      swap1\n      pop\n      jump\t// out\n        /* \"#utility.yul\":9399:9818   */\n    tag_69:\n        /* \"#utility.yul\":9565:9569   */\n      0x00\n        /* \"#utility.yul\":9603:9605   */\n      0x20\n        /* \"#utility.yul\":9592:9601   */\n      dup3\n        /* \"#utility.yul\":9588:9606   */\n      add\n        /* \"#utility.yul\":9580:9606   */\n      swap1\n      pop\n        /* \"#utility.yul\":9652:9661   */\n      dup2\n        /* \"#utility.yul\":9646:9650   */\n      dup2\n        /* \"#utility.yul\":9642:9662   */\n      sub\n        /* \"#utility.yul\":9638:9639   */\n      0x00\n        /* \"#utility.yul\":9627:9636   */\n      dup4\n        /* \"#utility.yul\":9623:9640   */\n      add\n        /* \"#utility.yul\":9616:9663   */\n      mstore\n        /* \"#utility.yul\":9680:9811   */\n      tag_284\n        /* \"#utility.yul\":9806:9810   */\n      dup2\n        /* \"#utility.yul\":9680:9811   */\n      tag_244\n      jump\t// in\n    tag_284:\n        /* \"#utility.yul\":9672:9811   */\n      swap1\n      pop\n        /* \"#utility.yul\":9399:9818   */\n      swap2\n      swap1\n      pop\n      jump\t// out\n        /* \"#utility.yul\":9824:10243   */\n    tag_116:\n        /* \"#utility.yul\":9990:9994   */\n      0x00\n        /* \"#utility.yul\":10028:10030   */\n      0x20\n        /* \"#utility.yul\":10017:10026   */\n      dup3\n        /* \"#utility.yul\":10013:10031   */\n      add\n        /* \"#utility.yul\":10005:10031   */\n      swap1\n      pop\n        /* \"#utility.yul\":10077:10086   */\n      dup2\n        /* \"#utility.yul\":10071:10075   */\n      dup2\n        /* \"#utility.yul\":10067:10087   */\n      sub\n        /* \"#utility.yul\":10063:10064   */\n      0x00\n        /* \"#utility.yul\":10052:10061   */\n      dup4\n        /* \"#utility.yul\":10048:10065   */\n      add\n        /* \"#utility.yul\":10041:10088   */\n      mstore\n        /* \"#utility.yul\":10105:10236   */\n      tag_286\n        /* \"#utility.yul\":10231:10235   */\n      dup2\n        /* \"#utility.yul\":10105:10236   */\n      tag_249\n      jump\t// in\n    tag_286:\n        /* \"#utility.yul\":10097:10236   */\n      swap1\n      pop\n        /* \"#utility.yul\":9824:10243   */\n      swap2\n      swap1\n      pop\n      jump\t// out\n        /* \"#utility.yul\":10249:10668   */\n    tag_77:\n        /* \"#utility.yul\":10415:10419   */\n      0x00\n        /* \"#utility.yul\":10453:10455   */\n      0x20\n        /* \"#utility.yul\":10442:10451   */\n      dup3\n        /* \"#utility.yul\":10438:10456   */\n      add\n        /* \"#utility.yul\":10430:10456   */\n      swap1\n      pop\n        /* \"#utility.yul\":10502:10511   */\n      dup2\n        /* \"#utility.yul\":10496:10500   */\n      dup2\n        /* \"#utility.yul\":10492:10512   */\n      sub\n        /* \"#utility.yul\":10488:10489   */\n      0x00\n        /* \"#utility.yul\":10477:10486   */\n      dup4\n        /* \"#utility.yul\":10473:10490   */\n      add\n        /* \"#utility.yul\":10466:10513   */\n      mstore\n        /* \"#utility.yul\":10530:10661   */\n      tag_288\n        /* \"#utility.yul\":10656:10660   */\n      dup2\n        /* \"#utility.yul\":10530:10661   */\n      tag_254\n      jump\t// in\n    tag_288:\n        /* \"#utility.yul\":10522:10661   */\n      swap1\n      pop\n        /* \"#utility.yul\":10249:10668   */\n      swap2\n      swap1\n      pop\n      jump\t// out\n        /* \"#utility.yul\":10674:10896   */\n    tag_49:\n        /* \"#utility.yul\":10767:10771   */\n      0x00\n        /* \"#utility.yul\":10805:10807   */\n      0x20\n        /* \"#utility.yul\":10794:10803   */\n      dup3\n        /* \"#utility.yul\":10790:10808   */\n      add\n        /* \"#utility.yul\":10782:10808   */\n      swap1\n      pop\n        /* \"#utility.yul\":10818:10889   */\n      tag_290\n        /* \"#utility.yul\":10886:10887   */\n      0x00\n        /* \"#utility.yul\":10875:10884   */\n      dup4\n        /* \"#utility.yul\":10871:10888   */\n      add\n        /* \"#utility.yul\":10862:10868   */\n      dup5\n        /* \"#utility.yul\":10818:10889   */\n      tag_259\n      jump\t// in\n    tag_290:\n        /* \"#utility.yul\":10674:10896   */\n      swap3\n      swap2\n      pop\n      pop\n      jump\t// out\n        /* \"#utility.yul\":10983:11123   */\n    tag_219:\n        /* \"#utility.yul\":11031:11035   */\n      0x00\n        /* \"#utility.yul\":11054:11057   */\n      dup2\n        /* \"#utility.yul\":11046:11057   */\n      swap1\n      pop\n        /* \"#utility.yul\":11077:11080   */\n      dup2\n        /* \"#utility.yul\":11074:11075   */\n      0x00\n        /* \"#utility.yul\":11067:11081   */\n      mstore\n        /* \"#utility.yul\":11111:11115   */\n      0x20\n        /* \"#utility.yul\":11108:11109   */\n      0x00\n        /* \"#utility.yul\":11098:11116   */\n      keccak256\n        /* \"#utility.yul\":11090:11116   */\n      swap1\n      pop\n        /* \"#utility.yul\":10983:11123   */\n      swap2\n      swap1\n      pop\n      jump\t// out\n        /* \"#utility.yul\":11129:11227   */\n    tag_203:\n        /* \"#utility.yul\":11180:11186   */\n      0x00\n        /* \"#utility.yul\":11214:11219   */\n      dup2\n        /* \"#utility.yul\":11208:11220   */\n      mload\n        /* \"#utility.yul\":11198:11220   */\n      swap1\n      pop\n        /* \"#utility.yul\":11129:11227   */\n      swap2\n      swap1\n      pop\n      jump\t// out\n        /* \"#utility.yul\":11233:11401   */\n    tag_205:\n        /* \"#utility.yul\":11316:11327   */\n      0x00\n        /* \"#utility.yul\":11350:11356   */\n      dup3\n        /* \"#utility.yul\":11345:11348   */\n      dup3\n        /* \"#utility.yul\":11338:11357   */\n      mstore\n        /* \"#utility.yul\":11390:11394   */\n      0x20\n        /* \"#utility.yul\":11385:11388   */\n      dup3\n        /* \"#utility.yul\":11381:11395   */\n      add\n        /* \"#utility.yul\":11366:11395   */\n      swap1\n      pop\n        /* \"#utility.yul\":11233:11401   */\n      swap3\n      swap2\n      pop\n      pop\n      jump\t// out\n        /* \"#utility.yul\":11407:11554   */\n    tag_214:\n        /* \"#utility.yul\":11508:11519   */\n      0x00\n        /* \"#utility.yul\":11545:11548   */\n      dup2\n        /* \"#utility.yul\":11530:11548   */\n      swap1\n      pop\n        /* \"#utility.yul\":11407:11554   */\n      swap3\n      swap2\n      pop\n      pop\n      jump\t// out\n        /* \"#utility.yul\":11560:11729   */\n    tag_226:\n        /* \"#utility.yul\":11644:11655   */\n      0x00\n        /* \"#utility.yul\":11678:11684   */\n      dup3\n        /* \"#utility.yul\":11673:11676   */\n      dup3\n        /* \"#utility.yul\":11666:11685   */\n      mstore\n        /* \"#utility.yul\":11718:11722   */\n      0x20\n        /* \"#utility.yul\":11713:11716   */\n      dup3\n        /* \"#utility.yul\":11709:11723   */\n      add\n        /* \"#utility.yul\":11694:11723   */\n      swap1\n      pop\n        /* \"#utility.yul\":11560:11729   */\n      swap3\n      swap2\n      pop\n      pop\n      jump\t// out\n        /* \"#utility.yul\":11735:12040   */\n    tag_145:\n        /* \"#utility.yul\":11775:11778   */\n      0x00\n        /* \"#utility.yul\":11794:11814   */\n      tag_299\n        /* \"#utility.yul\":11812:11813   */\n      dup3\n        /* \"#utility.yul\":11794:11814   */\n      tag_262\n      jump\t// in\n    tag_299:\n        /* \"#utility.yul\":11789:11814   */\n      swap2\n      pop\n        /* \"#utility.yul\":11828:11848   */\n      tag_300\n        /* \"#utility.yul\":11846:11847   */\n      dup4\n        /* \"#utility.yul\":11828:11848   */\n      tag_262\n      jump\t// in\n    tag_300:\n        /* \"#utility.yul\":11823:11848   */\n      swap3\n      pop\n        /* \"#utility.yul\":11982:11983   */\n      dup3\n        /* \"#utility.yul\":11914:11980   */\n      0xffffffffffffffffffffffffffffffffffffffffffffffffffffffffffffffff\n        /* \"#utility.yul\":11910:11984   */\n      sub\n        /* \"#utility.yul\":11907:11908   */\n      dup3\n        /* \"#utility.yul\":11904:11985   */\n      gt\n        /* \"#utility.yul\":11901:12008   */\n      iszero\n      tag_301\n      jumpi\n        /* \"#utility.yul\":11988:12006   */\n      tag_302\n      tag_303\n      jump\t// in\n    tag_302:\n        /* \"#utility.yul\":11901:12008   */\n    tag_301:\n        /* \"#utility.yul\":12032:12033   */\n      dup3\n        /* \"#utility.yul\":12029:12030   */\n      dup3\n        /* \"#utility.yul\":12025:12034   */\n      add\n        /* \"#utility.yul\":12018:12034   */\n      swap1\n      pop\n        /* \"#utility.yul\":11735:12040   */\n      swap3\n      swap2\n      pop\n      pop\n      jump\t// out\n        /* \"#utility.yul\":12046:12237   */\n    tag_61:\n        /* \"#utility.yul\":12086:12090   */\n      0x00\n        /* \"#utility.yul\":12106:12126   */\n      tag_305\n        /* \"#utility.yul\":12124:12125   */\n      dup3\n        /* \"#utility.yul\":12106:12126   */\n      tag_262\n      jump\t// in\n    tag_305:\n        /* \"#utility.yul\":12101:12126   */\n      swap2\n      pop\n        /* \"#utility.yul\":12140:12160   */\n      tag_306\n        /* \"#utility.yul\":12158:12159   */\n      dup4\n        /* \"#utility.yul\":12140:12160   */\n      tag_262\n      jump\t// in\n    tag_306:\n        /* \"#utility.yul\":12135:12160   */\n      swap3\n      pop\n        /* \"#utility.yul\":12179:12180   */\n      dup3\n        /* \"#utility.yul\":12176:12177   */\n      dup3\n        /* \"#utility.yul\":12173:12181   */\n      lt\n        /* \"#utility.yul\":12170:12204   */\n      iszero\n      tag_307\n      jumpi\n        /* \"#utility.yul\":12184:12202   */\n      tag_308\n      tag_303\n      jump\t// in\n    tag_308:\n        /* \"#utility.yul\":12170:12204   */\n    tag_307:\n        /* \"#utility.yul\":12229:12230   */\n      dup3\n        /* \"#utility.yul\":12226:12227   */\n      dup3\n        /* \"#utility.yul\":12222:12231   */\n      sub\n        /* \"#utility.yul\":12214:12231   */\n      swap1\n      pop\n        /* \"#utility.yul\":12046:12237   */\n      swap3\n      swap2\n      pop\n      pop\n      jump\t// out\n        /* \"#utility.yul\":12243:12339   */\n    tag_195:\n        /* \"#utility.yul\":12280:12287   */\n      0x00\n        /* \"#utility.yul\":12309:12333   */\n      tag_310\n        /* \"#utility.yul\":12327:12332   */\n      dup3\n        /* \"#utility.yul\":12309:12333   */\n      tag_311\n      jump\t// in\n    tag_310:\n        /* \"#utility.yul\":12298:12333   */\n      swap1\n      pop\n        /* \"#utility.yul\":12243:12339   */\n      swap2\n      swap1\n      pop\n      jump\t// out\n        /* \"#utility.yul\":12345:12435   */\n    tag_199:\n        /* \"#utility.yul\":12379:12386   */\n      0x00\n        /* \"#utility.yul\":12422:12427   */\n      dup2\n        /* \"#utility.yul\":12415:12428   */\n      iszero\n        /* \"#utility.yul\":12408:12429   */\n      iszero\n        /* \"#utility.yul\":12397:12429   */\n      swap1\n      pop\n        /* \"#utility.yul\":12345:12435   */\n      swap2\n      swap1\n      pop\n      jump\t// out\n        /* \"#utility.yul\":12441:12567   */\n    tag_311:\n        /* \"#utility.yul\":12478:12485   */\n      0x00\n        /* \"#utility.yul\":12518:12560   */\n      0xffffffffffffffffffffffffffffffffffffffff\n        /* \"#utility.yul\":12511:12516   */\n      dup3\n        /* \"#utility.yul\":12507:12561   */\n      and\n        /* \"#utility.yul\":12496:12561   */\n      swap1\n      pop\n        /* \"#utility.yul\":12441:12567   */\n      swap2\n      swap1\n      pop\n      jump\t// out\n        /* \"#utility.yul\":12573:12650   */\n    tag_262:\n        /* \"#utility.yul\":12610:12617   */\n      0x00\n        /* \"#utility.yul\":12639:12644   */\n      dup2\n        /* \"#utility.yul\":12628:12644   */\n      swap1\n      pop\n        /* \"#utility.yul\":12573:12650   */\n      swap2\n      swap1\n      pop\n      jump\t// out\n        /* \"#utility.yul\":12656:12963   */\n    tag_207:\n        /* \"#utility.yul\":12724:12725   */\n      0x00\n        /* \"#utility.yul\":12734:12847   */\n    tag_316:\n        /* \"#utility.yul\":12748:12754   */\n      dup4\n        /* \"#utility.yul\":12745:12746   */\n      dup2\n        /* \"#utility.yul\":12742:12755   */\n      lt\n        /* \"#utility.yul\":12734:12847   */\n      iszero\n      tag_318\n      jumpi\n        /* \"#utility.yul\":12833:12834   */\n      dup1\n        /* \"#utility.yul\":12828:12831   */\n      dup3\n        /* \"#utility.yul\":12824:12835   */\n      add\n        /* \"#utility.yul\":12818:12836   */\n      mload\n        /* \"#utility.yul\":12814:12815   */\n      dup2\n        /* \"#utility.yul\":12809:12812   */\n      dup5\n        /* \"#utility.yul\":12805:12816   */\n      add\n        /* \"#utility.yul\":12798:12837   */\n      mstore\n        /* \"#utility.yul\":12770:12772   */\n      0x20\n        /* \"#utility.yul\":12767:12768   */\n      dup2\n        /* \"#utility.yul\":12763:12773   */\n      add\n        /* \"#utility.yul\":12758:12773   */\n      swap1\n      pop\n        /* \"#utility.yul\":12734:12847   */\n      jump(tag_316)\n    tag_318:\n        /* \"#utility.yul\":12865:12871   */\n      dup4\n        /* \"#utility.yul\":12862:12863   */\n      dup2\n        /* \"#utility.yul\":12859:12872   */\n      gt\n        /* \"#utility.yul\":12856:12957   */\n      iszero\n      tag_319\n      jumpi\n        /* \"#utility.yul\":12945:12946   */\n      0x00\n        /* \"#utility.yul\":12936:12942   */\n      dup5\n        /* \"#utility.yul\":12931:12934   */\n      dup5\n        /* \"#utility.yul\":12927:12943   */\n      add\n        /* \"#utility.yul\":12920:12947   */\n      mstore\n        /* \"#utility.yul\":12856:12957   */\n    tag_319:\n        /* \"#utility.yul\":12705:12963   */\n      pop\n        /* \"#utility.yul\":12656:12963   */\n      pop\n      pop\n      pop\n      jump\t// out\n        /* \"#utility.yul\":12969:13289   */\n    tag_86:\n        /* \"#utility.yul\":13013:13019   */\n      0x00\n        /* \"#utility.yul\":13050:13051   */\n      0x02\n        /* \"#utility.yul\":13044:13048   */\n      dup3\n        /* \"#utility.yul\":13040:13052   */\n      div\n        /* \"#utility.yul\":13030:13052   */\n      swap1\n      pop\n        /* \"#utility.yul\":13097:13098   */\n      0x01\n        /* \"#utility.yul\":13091:13095   */\n      dup3\n        /* \"#utility.yul\":13087:13099   */\n      and\n        /* \"#utility.yul\":13118:13136   */\n      dup1\n        /* \"#utility.yul\":13108:13189   */\n      tag_321\n      jumpi\n        /* \"#utility.yul\":13174:13178   */\n      0x7f\n        /* \"#utility.yul\":13166:13172   */\n      dup3\n        /* \"#utility.yul\":13162:13179   */\n      and\n        /* \"#utility.yul\":13152:13179   */\n      swap2\n      pop\n        /* \"#utility.yul\":13108:13189   */\n    tag_321:\n        /* \"#utility.yul\":13236:13238   */\n      0x20\n        /* \"#utility.yul\":13228:13234   */\n      dup3\n        /* \"#utility.yul\":13225:13239   */\n      lt\n        /* \"#utility.yul\":13205:13223   */\n      dup2\n        /* \"#utility.yul\":13202:13240   */\n      eq\n        /* \"#utility.yul\":13199:13283   */\n      iszero\n      tag_322\n      jumpi\n        /* \"#utility.yul\":13255:13273   */\n      tag_323\n      tag_324\n      jump\t// in\n    tag_323:\n        /* \"#utility.yul\":13199:13283   */\n    tag_322:\n        /* \"#utility.yul\":13020:13289   */\n      pop\n        /* \"#utility.yul\":12969:13289   */\n      swap2\n      swap1\n      pop\n      jump\t// out\n        /* \"#utility.yul\":13295:13528   */\n    tag_147:\n        /* \"#utility.yul\":13334:13337   */\n      0x00\n        /* \"#utility.yul\":13357:13381   */\n      tag_326\n        /* \"#utility.yul\":13375:13380   */\n      dup3\n        /* \"#utility.yul\":13357:13381   */\n      tag_262\n      jump\t// in\n    tag_326:\n        /* \"#utility.yul\":13348:13381   */\n      swap2\n      pop\n        /* \"#utility.yul\":13403:13469   */\n      0xffffffffffffffffffffffffffffffffffffffffffffffffffffffffffffffff\n        /* \"#utility.yul\":13396:13401   */\n      dup3\n        /* \"#utility.yul\":13393:13470   */\n      eq\n        /* \"#utility.yul\":13390:13493   */\n      iszero\n      tag_327\n      jumpi\n        /* \"#utility.yul\":13473:13491   */\n      tag_328\n      tag_303\n      jump\t// in\n    tag_328:\n        /* \"#utility.yul\":13390:13493   */\n    tag_327:\n        /* \"#utility.yul\":13520:13521   */\n      0x01\n        /* \"#utility.yul\":13513:13518   */\n      dup3\n        /* \"#utility.yul\":13509:13522   */\n      add\n        /* \"#utility.yul\":13502:13522   */\n      swap1\n      pop\n        /* \"#utility.yul\":13295:13528   */\n      swap2\n      swap1\n      pop\n      jump\t// out\n        /* \"#utility.yul\":13534:13714   */\n    tag_303:\n        /* \"#utility.yul\":13582:13659   */\n      0x4e487b7100000000000000000000000000000000000000000000000000000000\n        /* \"#utility.yul\":13579:13580   */\n      0x00\n        /* \"#utility.yul\":13572:13660   */\n      mstore\n        /* \"#utility.yul\":13679:13683   */\n      0x11\n        /* \"#utility.yul\":13676:13677   */\n      0x04\n        /* \"#utility.yul\":13669:13684   */\n      mstore\n        /* \"#utility.yul\":13703:13707   */\n      0x24\n        /* \"#utility.yul\":13700:13701   */\n      0x00\n        /* \"#utility.yul\":13693:13708   */\n      revert\n        /* \"#utility.yul\":13720:13900   */\n    tag_324:\n        /* \"#utility.yul\":13768:13845   */\n      0x4e487b7100000000000000000000000000000000000000000000000000000000\n        /* \"#utility.yul\":13765:13766   */\n      0x00\n        /* \"#utility.yul\":13758:13846   */\n      mstore\n        /* \"#utility.yul\":13865:13869   */\n      0x22\n        /* \"#utility.yul\":13862:13863   */\n      0x04\n        /* \"#utility.yul\":13855:13870   */\n      mstore\n        /* \"#utility.yul\":13889:13893   */\n      0x24\n        /* \"#utility.yul\":13886:13887   */\n      0x00\n        /* \"#utility.yul\":13879:13894   */\n      revert\n        /* \"#utility.yul\":13906:14086   */\n    tag_73:\n        /* \"#utility.yul\":13954:14031   */\n      0x4e487b7100000000000000000000000000000000000000000000000000000000\n        /* \"#utility.yul\":13951:13952   */\n      0x00\n        /* \"#utility.yul\":13944:14032   */\n      mstore\n        /* \"#utility.yul\":14051:14055   */\n      0x32\n        /* \"#utility.yul\":14048:14049   */\n      0x04\n        /* \"#utility.yul\":14041:14056   */\n      mstore\n        /* \"#utility.yul\":14075:14079   */\n      0x24\n        /* \"#utility.yul\":14072:14073   */\n      0x00\n        /* \"#utility.yul\":14065:14080   */\n      revert\n        /* \"#utility.yul\":14092:14209   */\n    tag_170:\n        /* \"#utility.yul\":14201:14202   */\n      0x00\n        /* \"#utility.yul\":14198:14199   */\n      dup1\n        /* \"#utility.yul\":14191:14203   */\n      revert\n        /* \"#utility.yul\":14215:14332   */\n    tag_167:\n        /* \"#utility.yul\":14324:14325   */\n      0x00\n        /* \"#utility.yul\":14321:14322   */\n      dup1\n        /* \"#utility.yul\":14314:14326   */\n      revert\n        /* \"#utility.yul\":14338:14455   */\n    tag_173:\n        /* \"#utility.yul\":14447:14448   */\n      0x00\n        /* \"#utility.yul\":14444:14445   */\n      dup1\n        /* \"#utility.yul\":14437:14449   */\n      revert\n        /* \"#utility.yul\":14461:14578   */\n    tag_186:\n        /* \"#utility.yul\":14570:14571   */\n      0x00\n        /* \"#utility.yul\":14567:14568   */\n      dup1\n        /* \"#utility.yul\":14560:14572   */\n      revert\n        /* \"#utility.yul\":14584:14701   */\n    tag_181:\n        /* \"#utility.yul\":14693:14694   */\n      0x00\n        /* \"#utility.yul\":14690:14691   */\n      dup1\n        /* \"#utility.yul\":14683:14695   */\n      revert\n        /* \"#utility.yul\":14707:14809   */\n    tag_209:\n        /* \"#utility.yul\":14748:14754   */\n      0x00\n        /* \"#utility.yul\":14799:14801   */\n      0x1f\n        /* \"#utility.yul\":14795:14802   */\n      not\n        /* \"#utility.yul\":14790:14792   */\n      0x1f\n        /* \"#utility.yul\":14783:14788   */\n      dup4\n        /* \"#utility.yul\":14779:14793   */\n      add\n        /* \"#utility.yul\":14775:14803   */\n      and\n        /* \"#utility.yul\":14765:14803   */\n      swap1\n      pop\n        /* \"#utility.yul\":14707:14809   */\n      swap2\n      swap1\n      pop\n      jump\t// out\n        /* \"#utility.yul\":14815:14980   */\n    tag_228:\n        /* \"#utility.yul\":14955:14972   */\n      0x7478206e6f7420617070726f7665640000000000000000000000000000000000\n        /* \"#utility.yul\":14951:14952   */\n      0x00\n        /* \"#utility.yul\":14943:14949   */\n      dup3\n        /* \"#utility.yul\":14939:14953   */\n      add\n        /* \"#utility.yul\":14932:14973   */\n      mstore\n        /* \"#utility.yul\":14815:14980   */\n      pop\n      jump\t// out\n        /* \"#utility.yul\":14986:15156   */\n    tag_233:\n        /* \"#utility.yul\":15126:15148   */\n      0x617070726f76616c73203c207265717569726564000000000000000000000000\n        /* \"#utility.yul\":15122:15123   */\n      0x00\n        /* \"#utility.yul\":15114:15120   */\n      dup3\n        /* \"#utility.yul\":15110:15124   */\n      add\n        /* \"#utility.yul\":15103:15149   */\n      mstore\n        /* \"#utility.yul\":14986:15156   */\n      pop\n      jump\t// out\n        /* \"#utility.yul\":15162:15344   */\n    tag_238:\n        /* \"#utility.yul\":15302:15336   */\n      0x6f6e6c79206f776e65722063616e20646f2074686973206f7065726174696f6e\n        /* \"#utility.yul\":15298:15299   */\n      0x00\n        /* \"#utility.yul\":15290:15296   */\n      dup3\n        /* \"#utility.yul\":15286:15300   */\n      add\n        /* \"#utility.yul\":15279:15337   */\n      mstore\n        /* \"#utility.yul\":15162:15344   */\n      pop\n      jump\t// out\n        /* \"#utility.yul\":15350:15519   */\n    tag_243:\n        /* \"#utility.yul\":15490:15511   */\n      0x747820616c726561647920617070726f76656400000000000000000000000000\n        /* \"#utility.yul\":15486:15487   */\n      0x00\n        /* \"#utility.yul\":15478:15484   */\n      dup3\n        /* \"#utility.yul\":15474:15488   */\n      add\n        /* \"#utility.yul\":15467:15512   */\n      mstore\n        /* \"#utility.yul\":15350:15519   */\n      pop\n      jump\t// out\n        /* \"#utility.yul\":15525:15688   */\n    tag_248:\n        /* \"#utility.yul\":15665:15680   */\n      0x7478206e6f742065786973747300000000000000000000000000000000000000\n        /* \"#utility.yul\":15661:15662   */\n      0x00\n        /* \"#utility.yul\":15653:15659   */\n      dup3\n        /* \"#utility.yul\":15649:15663   */\n      add\n        /* \"#utility.yul\":15642:15681   */\n      mstore\n        /* \"#utility.yul\":15525:15688   */\n      pop\n      jump\t// out\n        /* \"#utility.yul\":15694:15855   */\n    tag_253:\n        /* \"#utility.yul\":15834:15847   */\n      0x657863757465206661696c000000000000000000000000000000000000000000\n        /* \"#utility.yul\":15830:15831   */\n      0x00\n        /* \"#utility.yul\":15822:15828   */\n      dup3\n        /* \"#utility.yul\":15818:15832   */\n      add\n        /* \"#utility.yul\":15811:15848   */\n      mstore\n        /* \"#utility.yul\":15694:15855   */\n      pop\n      jump\t// out\n        /* \"#utility.yul\":15861:16029   */\n    tag_258:\n        /* \"#utility.yul\":16001:16021   */\n      0x747820616c726561647920657863757465640000000000000000000000000000\n        /* \"#utility.yul\":15997:15998   */\n      0x00\n        /* \"#utility.yul\":15989:15995   */\n      dup3\n        /* \"#utility.yul\":15985:15999   */\n      add\n        /* \"#utility.yul\":15978:16022   */\n      mstore\n        /* \"#utility.yul\":15861:16029   */\n      pop\n      jump\t// out\n        /* \"#utility.yul\":16035:16157   */\n    tag_162:\n        /* \"#utility.yul\":16108:16132   */\n      tag_346\n        /* \"#utility.yul\":16126:16131   */\n      dup2\n        /* \"#utility.yul\":16108:16132   */\n      tag_195\n      jump\t// in\n    tag_346:\n        /* \"#utility.yul\":16101:16106   */\n      dup2\n        /* \"#utility.yul\":16098:16133   */\n      eq\n        /* \"#utility.yul\":16088:16151   */\n      tag_347\n      jumpi\n        /* \"#utility.yul\":16147:16148   */\n      0x00\n        /* \"#utility.yul\":16144:16145   */\n      dup1\n        /* \"#utility.yul\":16137:16149   */\n      revert\n        /* \"#utility.yul\":16088:16151   */\n    tag_347:\n        /* \"#utility.yul\":16035:16157   */\n      pop\n      jump\t// out\n        /* \"#utility.yul\":16163:16285   */\n    tag_177:\n        /* \"#utility.yul\":16236:16260   */\n      tag_349\n        /* \"#utility.yul\":16254:16259   */\n      dup2\n        /* \"#utility.yul\":16236:16260   */\n      tag_262\n      jump\t// in\n    tag_349:\n        /* \"#utility.yul\":16229:16234   */\n      dup2\n        /* \"#utility.yul\":16226:16261   */\n      eq\n        /* \"#utility.yul\":16216:16279   */\n      tag_350\n      jumpi\n        /* \"#utility.yul\":16275:16276   */\n      0x00\n        /* \"#utility.yul\":16272:16273   */\n      dup1\n        /* \"#utility.yul\":16265:16277   */\n      revert\n        /* \"#utility.yul\":16216:16279   */\n    tag_350:\n        /* \"#utility.yul\":16163:16285   */\n      pop\n      jump\t// out\n\n    auxdata: 0xa2646970667358221220adba5f7de8869aebfa1555642dbffc67494e9c3c9eb1a5ad3f1bc07c129a626364736f6c63430008070033\n}\n",
				"bytecode": {
					"linkReferences": {},
					"object": "60806040523480156200001157600080fd5b5060405162001f4b38038062001f4b8339818101604052810190620000379190620003ce565b60008251116200007e576040517f08c379a00000000000000000000000000000000000000000000000000000000081526004016200007590620004f2565b60405180910390fd5b60008111801562000090575081518111155b620000d2576040517f08c379a0000000000000000000000000000000000000000000000000000000008152600401620000c99062000536565b60405180910390fd5b60005b60018351620000e59190620005c1565b8111620002e2576000838281518110620001045762000103620006ed565b5b60200260200101519050600073ffffffffffffffffffffffffffffffffffffffff168173ffffffffffffffffffffffffffffffffffffffff16141562000181576040517f08c379a0000000000000000000000000000000000000000000000000000000008152600401620001789062000514565b60405180910390fd5b600160008273ffffffffffffffffffffffffffffffffffffffff1673ffffffffffffffffffffffffffffffffffffffff16815260200190815260200160002060009054906101000a900460ff161562000211576040517f08c379a00000000000000000000000000000000000000000000000000000000081526004016200020890620004d0565b60405180910390fd5b60018060008373ffffffffffffffffffffffffffffffffffffffff1673ffffffffffffffffffffffffffffffffffffffff16815260200190815260200160002060006101000a81548160ff0219169083151502179055506000819080600181540180825580915050600190039060005260206000200160009091909190916101000a81548173ffffffffffffffffffffffffffffffffffffffff021916908373ffffffffffffffffffffffffffffffffffffffff160217905550508080620002d99062000670565b915050620000d5565b5080600381905550505062000848565b600062000309620003038462000581565b62000558565b905080838252602082019050828560208602820111156200032f576200032e62000750565b5b60005b858110156200036357816200034888826200036d565b84526020840193506020830192505060018101905062000332565b5050509392505050565b6000815190506200037e8162000814565b92915050565b600082601f8301126200039c576200039b6200074b565b5b8151620003ae848260208601620002f2565b91505092915050565b600081519050620003c8816200082e565b92915050565b60008060408385031215620003e857620003e76200075a565b5b600083015167ffffffffffffffff81111562000409576200040862000755565b5b620004178582860162000384565b92505060206200042a85828601620003b7565b9150509250929050565b600062000443601383620005b0565b9150620004508262000770565b602082019050919050565b60006200046a601e83620005b0565b9150620004778262000799565b602082019050919050565b600062000491600f83620005b0565b91506200049e82620007c2565b602082019050919050565b6000620004b8601583620005b0565b9150620004c582620007eb565b602082019050919050565b60006020820190508181036000830152620004eb8162000434565b9050919050565b600060208201905081810360008301526200050d816200045b565b9050919050565b600060208201905081810360008301526200052f8162000482565b9050919050565b600060208201905081810360008301526200055181620004a9565b9050919050565b60006200056462000577565b90506200057282826200063a565b919050565b6000604051905090565b600067ffffffffffffffff8211156200059f576200059e6200071c565b5b602082029050602081019050919050565b600082825260208201905092915050565b6000620005ce8262000630565b9150620005db8362000630565b925082821015620005f157620005f0620006be565b5b828203905092915050565b6000620006098262000610565b9050919050565b600073ffffffffffffffffffffffffffffffffffffffff82169050919050565b6000819050919050565b62000645826200075f565b810181811067ffffffffffffffff821117156200066757620006666200071c565b5b80604052505050565b60006200067d8262000630565b91507fffffffffffffffffffffffffffffffffffffffffffffffffffffffffffffffff821415620006b357620006b2620006be565b5b600182019050919050565b7f4e487b7100000000000000000000000000000000000000000000000000000000600052601160045260246000fd5b7f4e487b7100000000000000000000000000000000000000000000000000000000600052603260045260246000fd5b7f4e487b7100000000000000000000000000000000000000000000000000000000600052604160045260246000fd5b600080fd5b600080fd5b600080fd5b600080fd5b6000601f19601f8301169050919050565b7f6f776e6572206973206e6f7420756e6971756500000000000000000000000000600082015250565b7f6f776e657273206d7573742062652067726561746572207468616e2030200000600082015250565b7f696e76616c696420616464726573730000000000000000000000000000000000600082015250565b7f5f7265717569726564206e756d20696e76616c69640000000000000000000000600082015250565b6200081f81620005fc565b81146200082b57600080fd5b50565b620008398162000630565b81146200084557600080fd5b50565b6116f380620008586000396000f3fe6080604052600436106100745760003560e01c80639ace38c21161004e5780639ace38c214610148578063a96c065b14610188578063b759f954146101b1578063dc8452cd146101da576100b4565b8063025e7c27146100b957806314de327f146100f657806320c5429b1461011f576100b4565b366100b4577fe1fffcc4923d04b559f4d29a8bfc6cda04eb5b0d3c460751c2402c5c5cc9109c33346040516100aa92919061117c565b60405180910390a1005b600080fd5b3480156100c557600080fd5b506100e060048036038101906100db9190610f43565b610205565b6040516100ed9190611161565b60405180910390f35b34801561010257600080fd5b5061011d60048036038101906101189190610ecf565b610244565b005b34801561012b57600080fd5b5061014660048036038101906101419190610f43565b610457565b005b34801561015457600080fd5b5061016f600480360381019061016a9190610f43565b6106e3565b60405161017f94939291906111a5565b60405180910390f35b34801561019457600080fd5b506101af60048036038101906101aa9190610f43565b6107d8565b005b3480156101bd57600080fd5b506101d860048036038101906101d39190610f43565b610a3d565b005b3480156101e657600080fd5b506101ef610ccc565b6040516101fc91906112d1565b60405180910390f35b6000818154811061021557600080fd5b906000526020600020016000915054906101000a900473ffffffffffffffffffffffffffffffffffffffff1681565b600160003373ffffffffffffffffffffffffffffffffffffffff1673ffffffffffffffffffffffffffffffffffffffff16815260200190815260200160002060009054906101000a900460ff166102d0576040517f08c379a00000000000000000000000000000000000000000000000000000000081526004016102c790611231565b60405180910390fd5b600260405180608001604052808673ffffffffffffffffffffffffffffffffffffffff16815260200185815260200184848080601f016020809104026020016040519081016040528093929190818152602001838380828437600081840152601f19601f82011690508083019250505050505050815260200160001515815250908060018154018082558091505060019003906000526020600020906004020160009091909190915060008201518160000160006101000a81548173ffffffffffffffffffffffffffffffffffffffff021916908373ffffffffffffffffffffffffffffffffffffffff1602179055506020820151816001015560408201518160020190805190602001906103e6929190610dac565b5060608201518160030160006101000a81548160ff02191690831515021790555050507f08324b3d745b914e3abd4ffbfead91e3b78391a98c173202129215ab933adfbe600160028054905061043c919061138f565b60405161044991906112d1565b60405180910390a150505050565b600160003373ffffffffffffffffffffffffffffffffffffffff1673ffffffffffffffffffffffffffffffffffffffff16815260200190815260200160002060009054906101000a900460ff166104e3576040517f08c379a00000000000000000000000000000000000000000000000000000000081526004016104da90611231565b60405180910390fd5b80600280549050811061052b576040517f08c379a000000000000000000000000000000000000000000000000000000000815260040161052290611271565b60405180910390fd5b81600281815481106105405761053f611517565b5b906000526020600020906004020160030160009054906101000a900460ff161561059f576040517f08c379a0000000000000000000000000000000000000000000000000000000008152600401610596906112b1565b60405180910390fd5b6004600084815260200190815260200160002060003373ffffffffffffffffffffffffffffffffffffffff1673ffffffffffffffffffffffffffffffffffffffff16815260200190815260200160002060009054906101000a900460ff1661063c576040517f08c379a0000000000000000000000000000000000000000000000000000000008152600401610633906111f1565b60405180910390fd5b60006004600085815260200190815260200160002060003373ffffffffffffffffffffffffffffffffffffffff1673ffffffffffffffffffffffffffffffffffffffff16815260200190815260200160002060006101000a81548160ff0219169083151502179055507fec9ab91322523c899ede7830ec9bfc992b5981cdcc27b91162fb23de5791117b33846040516106d692919061117c565b60405180910390a1505050565b600281815481106106f357600080fd5b90600052602060002090600402016000915090508060000160009054906101000a900473ffffffffffffffffffffffffffffffffffffffff16908060010154908060020180546107429061143e565b80601f016020809104026020016040519081016040528092919081815260200182805461076e9061143e565b80156107bb5780601f10610790576101008083540402835291602001916107bb565b820191906000526020600020905b81548152906001019060200180831161079e57829003601f168201915b5050505050908060030160009054906101000a900460ff16905084565b806002805490508110610820576040517f08c379a000000000000000000000000000000000000000000000000000000000815260040161081790611271565b60405180910390fd5b816002818154811061083557610834611517565b5b906000526020600020906004020160030160009054906101000a900460ff1615610894576040517f08c379a000000000000000000000000000000000000000000000000000000000815260040161088b906112b1565b60405180910390fd5b6003546108a084610cd2565b10156108e1576040517f08c379a00000000000000000000000000000000000000000000000000000000081526004016108d890611211565b60405180910390fd5b6000600284815481106108f7576108f6611517565b5b9060005260206000209060040201905060018160030160006101000a81548160ff02191690831515021790555060008160000160009054906101000a900473ffffffffffffffffffffffffffffffffffffffff1673ffffffffffffffffffffffffffffffffffffffff16826001015483600201604051610977919061114a565b60006040518083038185875af1925050503d80600081146109b4576040519150601f19603f3d011682016040523d82523d6000602084013e6109b9565b606091505b50509050806109fd576040517f08c379a00000000000000000000000000000000000000000000000000000000081526004016109f490611291565b60405180910390fd5b7fe2f46220bcbc16cf5555dd459ffe49e9c5c7b8de51d6f4d39d64e30270ffa0d93386604051610a2e92919061117c565b60405180910390a15050505050565b600160003373ffffffffffffffffffffffffffffffffffffffff1673ffffffffffffffffffffffffffffffffffffffff16815260200190815260200160002060009054906101000a900460ff16610ac9576040517f08c379a0000000000000000000000000000000000000000000000000000000008152600401610ac090611231565b60405180910390fd5b806002805490508110610b11576040517f08c379a0000000000000000000000000000000000000000000000000000000008152600401610b0890611271565b60405180910390fd5b816004600082815260200190815260200160002060003373ffffffffffffffffffffffffffffffffffffffff1673ffffffffffffffffffffffffffffffffffffffff16815260200190815260200160002060009054906101000a900460ff1615610bb0576040517f08c379a0000000000000000000000000000000000000000000000000000000008152600401610ba790611251565b60405180910390fd5b8260028181548110610bc557610bc4611517565b5b906000526020600020906004020160030160009054906101000a900460ff1615610c24576040517f08c379a0000000000000000000000000000000000000000000000000000000008152600401610c1b906112b1565b60405180910390fd5b60016004600086815260200190815260200160002060003373ffffffffffffffffffffffffffffffffffffffff1673ffffffffffffffffffffffffffffffffffffffff16815260200190815260200160002060006101000a81548160ff0219169083151502179055507f90ec57f18fa7b15c6b8d5e4d1deb90796c74b2ff23d4d0cecad0cb42a96b31283385604051610cbe92919061117c565b60405180910390a150505050565b60035481565b6000805b600080549050811015610da657600460008481526020019081526020016000206000808381548110610d0b57610d0a611517565b5b9060005260206000200160009054906101000a900473ffffffffffffffffffffffffffffffffffffffff1673ffffffffffffffffffffffffffffffffffffffff1673ffffffffffffffffffffffffffffffffffffffff16815260200190815260200160002060009054906101000a900460ff1615610d9357600182610d909190611339565b91505b8080610d9e90611470565b915050610cd6565b50919050565b828054610db89061143e565b90600052602060002090601f016020900481019282610dda5760008555610e21565b82601f10610df357805160ff1916838001178555610e21565b82800160010185558215610e21579182015b82811115610e20578251825591602001919060010190610e05565b5b509050610e2e9190610e32565b5090565b5b80821115610e4b576000816000905550600101610e33565b5090565b600081359050610e5e8161168f565b92915050565b60008083601f840112610e7a57610e7961154b565b5b8235905067ffffffffffffffff811115610e9757610e96611546565b5b602083019150836001820283011115610eb357610eb2611550565b5b9250929050565b600081359050610ec9816116a6565b92915050565b60008060008060608587031215610ee957610ee861155a565b5b6000610ef787828801610e4f565b9450506020610f0887828801610eba565b935050604085013567ffffffffffffffff811115610f2957610f28611555565b5b610f3587828801610e64565b925092505092959194509250565b600060208284031215610f5957610f5861155a565b5b6000610f6784828501610eba565b91505092915050565b610f79816113c3565b82525050565b610f88816113d5565b82525050565b6000610f9982611301565b610fa3818561130c565b9350610fb381856020860161140b565b610fbc8161155f565b840191505092915050565b60008154610fd48161143e565b610fde818661131d565b94506001821660008114610ff9576001811461100a5761103d565b60ff1983168652818601935061103d565b611013856112ec565b60005b8381101561103557815481890152600182019150602081019050611016565b838801955050505b50505092915050565b6000611053600f83611328565b915061105e82611570565b602082019050919050565b6000611076601483611328565b915061108182611599565b602082019050919050565b6000611099602083611328565b91506110a4826115c2565b602082019050919050565b60006110bc601383611328565b91506110c7826115eb565b602082019050919050565b60006110df600d83611328565b91506110ea82611614565b602082019050919050565b6000611102600b83611328565b915061110d8261163d565b602082019050919050565b6000611125601283611328565b915061113082611666565b602082019050919050565b61114481611401565b82525050565b60006111568284610fc7565b915081905092915050565b60006020820190506111766000830184610f70565b92915050565b60006040820190506111916000830185610f70565b61119e602083018461113b565b9392505050565b60006080820190506111ba6000830187610f70565b6111c7602083018661113b565b81810360408301526111d98185610f8e565b90506111e86060830184610f7f565b95945050505050565b6000602082019050818103600083015261120a81611046565b9050919050565b6000602082019050818103600083015261122a81611069565b9050919050565b6000602082019050818103600083015261124a8161108c565b9050919050565b6000602082019050818103600083015261126a816110af565b9050919050565b6000602082019050818103600083015261128a816110d2565b9050919050565b600060208201905081810360008301526112aa816110f5565b9050919050565b600060208201905081810360008301526112ca81611118565b9050919050565b60006020820190506112e6600083018461113b565b92915050565b60008190508160005260206000209050919050565b600081519050919050565b600082825260208201905092915050565b600081905092915050565b600082825260208201905092915050565b600061134482611401565b915061134f83611401565b9250827fffffffffffffffffffffffffffffffffffffffffffffffffffffffffffffffff03821115611384576113836114b9565b5b828201905092915050565b600061139a82611401565b91506113a583611401565b9250828210156113b8576113b76114b9565b5b828203905092915050565b60006113ce826113e1565b9050919050565b60008115159050919050565b600073ffffffffffffffffffffffffffffffffffffffff82169050919050565b6000819050919050565b60005b8381101561142957808201518184015260208101905061140e565b83811115611438576000848401525b50505050565b6000600282049050600182168061145657607f821691505b6020821081141561146a576114696114e8565b5b50919050565b600061147b82611401565b91507fffffffffffffffffffffffffffffffffffffffffffffffffffffffffffffffff8214156114ae576114ad6114b9565b5b600182019050919050565b7f4e487b7100000000000000000000000000000000000000000000000000000000600052601160045260246000fd5b7f4e487b7100000000000000000000000000000000000000000000000000000000600052602260045260246000fd5b7f4e487b7100000000000000000000000000000000000000000000000000000000600052603260045260246000fd5b600080fd5b600080fd5b600080fd5b600080fd5b600080fd5b6000601f19601f8301169050919050565b7f7478206e6f7420617070726f7665640000000000000000000000000000000000600082015250565b7f617070726f76616c73203c207265717569726564000000000000000000000000600082015250565b7f6f6e6c79206f776e65722063616e20646f2074686973206f7065726174696f6e600082015250565b7f747820616c726561647920617070726f76656400000000000000000000000000600082015250565b7f7478206e6f742065786973747300000000000000000000000000000000000000600082015250565b7f657863757465206661696c000000000000000000000000000000000000000000600082015250565b7f747820616c726561647920657863757465640000000000000000000000000000600082015250565b611698816113c3565b81146116a357600080fd5b50565b6116af81611401565b81146116ba57600080fd5b5056fea2646970667358221220adba5f7de8869aebfa1555642dbffc67494e9c3c9eb1a5ad3f1bc07c129a626364736f6c63430008070033",
					"opcodes": "PUSH1 0x80 PUSH1 0x40 MSTORE CALLVALUE DUP1 ISZERO PUSH3 0x11 JUMPI PUSH1 0x0 DUP1 REVERT JUMPDEST POP PUSH1 0x40 MLOAD PUSH3 0x1F4B CODESIZE SUB DUP1 PUSH3 0x1F4B DUP4 CODECOPY DUP2 DUP2 ADD PUSH1 0x40 MSTORE DUP2 ADD SWAP1 PUSH3 0x37 SWAP2 SWAP1 PUSH3 0x3CE JUMP JUMPDEST PUSH1 0x0 DUP3 MLOAD GT PUSH3 0x7E JUMPI PUSH1 0x40 MLOAD PUSH32 0x8C379A000000000000000000000000000000000000000000000000000000000 DUP2 MSTORE PUSH1 0x4 ADD PUSH3 0x75 SWAP1 PUSH3 0x4F2 JUMP JUMPDEST PUSH1 0x40 MLOAD DUP1 SWAP2 SUB SWAP1 REVERT JUMPDEST PUSH1 0x0 DUP2 GT DUP1 ISZERO PUSH3 0x90 JUMPI POP DUP2 MLOAD DUP2 GT ISZERO JUMPDEST PUSH3 0xD2 JUMPI PUSH1 0x40 MLOAD PUSH32 0x8C379A000000000000000000000000000000000000000000000000000000000 DUP2 MSTORE PUSH1 0x4 ADD PUSH3 0xC9 SWAP1 PUSH3 0x536 JUMP JUMPDEST PUSH1 0x40 MLOAD DUP1 SWAP2 SUB SWAP1 REVERT JUMPDEST PUSH1 0x0 JUMPDEST PUSH1 0x1 DUP4 MLOAD PUSH3 0xE5 SWAP2 SWAP1 PUSH3 0x5C1 JUMP JUMPDEST DUP2 GT PUSH3 0x2E2 JUMPI PUSH1 0x0 DUP4 DUP3 DUP2 MLOAD DUP2 LT PUSH3 0x104 JUMPI PUSH3 0x103 PUSH3 0x6ED JUMP JUMPDEST JUMPDEST PUSH1 0x20 MUL PUSH1 0x20 ADD ADD MLOAD SWAP1 POP PUSH1 0x0 PUSH20 0xFFFFFFFFFFFFFFFFFFFFFFFFFFFFFFFFFFFFFFFF AND DUP2 PUSH20 0xFFFFFFFFFFFFFFFFFFFFFFFFFFFFFFFFFFFFFFFF AND EQ ISZERO PUSH3 0x181 JUMPI PUSH1 0x40 MLOAD PUSH32 0x8C379A000000000000000000000000000000000000000000000000000000000 DUP2 MSTORE PUSH1 0x4 ADD PUSH3 0x178 SWAP1 PUSH3 0x514 JUMP JUMPDEST PUSH1 0x40 MLOAD DUP1 SWAP2 SUB SWAP1 REVERT JUMPDEST PUSH1 0x1 PUSH1 0x0 DUP3 PUSH20 0xFFFFFFFFFFFFFFFFFFFFFFFFFFFFFFFFFFFFFFFF AND PUSH20 0xFFFFFFFFFFFFFFFFFFFFFFFFFFFFFFFFFFFFFFFF AND DUP2 MSTORE PUSH1 0x20 ADD SWAP1 DUP2 MSTORE PUSH1 0x20 ADD PUSH1 0x0 KECCAK256 PUSH1 0x0 SWAP1 SLOAD SWAP1 PUSH2 0x100 EXP SWAP1 DIV PUSH1 0xFF AND ISZERO PUSH3 0x211 JUMPI PUSH1 0x40 MLOAD PUSH32 0x8C379A000000000000000000000000000000000000000000000000000000000 DUP2 MSTORE PUSH1 0x4 ADD PUSH3 0x208 SWAP1 PUSH3 0x4D0 JUMP JUMPDEST PUSH1 0x40 MLOAD DUP1 SWAP2 SUB SWAP1 REVERT JUMPDEST PUSH1 0x1 DUP1 PUSH1 0x0 DUP4 PUSH20 0xFFFFFFFFFFFFFFFFFFFFFFFFFFFFFFFFFFFFFFFF AND PUSH20 0xFFFFFFFFFFFFFFFFFFFFFFFFFFFFFFFFFFFFFFFF AND DUP2 MSTORE PUSH1 0x20 ADD SWAP1 DUP2 MSTORE PUSH1 0x20 ADD PUSH1 0x0 KECCAK256 PUSH1 0x0 PUSH2 0x100 EXP DUP2 SLOAD DUP2 PUSH1 0xFF MUL NOT AND SWAP1 DUP4 ISZERO ISZERO MUL OR SWAP1 SSTORE POP PUSH1 0x0 DUP2 SWAP1 DUP1 PUSH1 0x1 DUP2 SLOAD ADD DUP1 DUP3 SSTORE DUP1 SWAP2 POP POP PUSH1 0x1 SWAP1 SUB SWAP1 PUSH1 0x0 MSTORE PUSH1 0x20 PUSH1 0x0 KECCAK256 ADD PUSH1 0x0 SWAP1 SWAP2 SWAP1 SWAP2 SWAP1 SWAP2 PUSH2 0x100 EXP DUP2 SLOAD DUP2 PUSH20 0xFFFFFFFFFFFFFFFFFFFFFFFFFFFFFFFFFFFFFFFF MUL NOT AND SWAP1 DUP4 PUSH20 0xFFFFFFFFFFFFFFFFFFFFFFFFFFFFFFFFFFFFFFFF AND MUL OR SWAP1 SSTORE POP POP DUP1 DUP1 PUSH3 0x2D9 SWAP1 PUSH3 0x670 JUMP JUMPDEST SWAP2 POP POP PUSH3 0xD5 JUMP JUMPDEST POP DUP1 PUSH1 0x3 DUP2 SWAP1 SSTORE POP POP POP PUSH3 0x848 JUMP JUMPDEST PUSH1 0x0 PUSH3 0x309 PUSH3 0x303 DUP5 PUSH3 0x581 JUMP JUMPDEST PUSH3 0x558 JUMP JUMPDEST SWAP1 POP DUP1 DUP4 DUP3 MSTORE PUSH1 0x20 DUP3 ADD SWAP1 POP DUP3 DUP6 PUSH1 0x20 DUP7 MUL DUP3 ADD GT ISZERO PUSH3 0x32F JUMPI PUSH3 0x32E PUSH3 0x750 JUMP JUMPDEST JUMPDEST PUSH1 0x0 JUMPDEST DUP6 DUP2 LT ISZERO PUSH3 0x363 JUMPI DUP2 PUSH3 0x348 DUP9 DUP3 PUSH3 0x36D JUMP JUMPDEST DUP5 MSTORE PUSH1 0x20 DUP5 ADD SWAP4 POP PUSH1 0x20 DUP4 ADD SWAP3 POP POP PUSH1 0x1 DUP2 ADD SWAP1 POP PUSH3 0x332 JUMP JUMPDEST POP POP POP SWAP4 SWAP3 POP POP POP JUMP JUMPDEST PUSH1 0x0 DUP2 MLOAD SWAP1 POP PUSH3 0x37E DUP2 PUSH3 0x814 JUMP JUMPDEST SWAP3 SWAP2 POP POP JUMP JUMPDEST PUSH1 0x0 DUP3 PUSH1 0x1F DUP4 ADD SLT PUSH3 0x39C JUMPI PUSH3 0x39B PUSH3 0x74B JUMP JUMPDEST JUMPDEST DUP2 MLOAD PUSH3 0x3AE DUP5 DUP3 PUSH1 0x20 DUP7 ADD PUSH3 0x2F2 JUMP JUMPDEST SWAP2 POP POP SWAP3 SWAP2 POP POP JUMP JUMPDEST PUSH1 0x0 DUP2 MLOAD SWAP1 POP PUSH3 0x3C8 DUP2 PUSH3 0x82E JUMP JUMPDEST SWAP3 SWAP2 POP POP JUMP JUMPDEST PUSH1 0x0 DUP1 PUSH1 0x40 DUP4 DUP6 SUB SLT ISZERO PUSH3 0x3E8 JUMPI PUSH3 0x3E7 PUSH3 0x75A JUMP JUMPDEST JUMPDEST PUSH1 0x0 DUP4 ADD MLOAD PUSH8 0xFFFFFFFFFFFFFFFF DUP2 GT ISZERO PUSH3 0x409 JUMPI PUSH3 0x408 PUSH3 0x755 JUMP JUMPDEST JUMPDEST PUSH3 0x417 DUP6 DUP3 DUP7 ADD PUSH3 0x384 JUMP JUMPDEST SWAP3 POP POP PUSH1 0x20 PUSH3 0x42A DUP6 DUP3 DUP7 ADD PUSH3 0x3B7 JUMP JUMPDEST SWAP2 POP POP SWAP3 POP SWAP3 SWAP1 POP JUMP JUMPDEST PUSH1 0x0 PUSH3 0x443 PUSH1 0x13 DUP4 PUSH3 0x5B0 JUMP JUMPDEST SWAP2 POP PUSH3 0x450 DUP3 PUSH3 0x770 JUMP JUMPDEST PUSH1 0x20 DUP3 ADD SWAP1 POP SWAP2 SWAP1 POP JUMP JUMPDEST PUSH1 0x0 PUSH3 0x46A PUSH1 0x1E DUP4 PUSH3 0x5B0 JUMP JUMPDEST SWAP2 POP PUSH3 0x477 DUP3 PUSH3 0x799 JUMP JUMPDEST PUSH1 0x20 DUP3 ADD SWAP1 POP SWAP2 SWAP1 POP JUMP JUMPDEST PUSH1 0x0 PUSH3 0x491 PUSH1 0xF DUP4 PUSH3 0x5B0 JUMP JUMPDEST SWAP2 POP PUSH3 0x49E DUP3 PUSH3 0x7C2 JUMP JUMPDEST PUSH1 0x20 DUP3 ADD SWAP1 POP SWAP2 SWAP1 POP JUMP JUMPDEST PUSH1 0x0 PUSH3 0x4B8 PUSH1 0x15 DUP4 PUSH3 0x5B0 JUMP JUMPDEST SWAP2 POP PUSH3 0x4C5 DUP3 PUSH3 0x7EB JUMP JUMPDEST PUSH1 0x20 DUP3 ADD SWAP1 POP SWAP2 SWAP1 POP JUMP JUMPDEST PUSH1 0x0 PUSH1 0x20 DUP3 ADD SWAP1 POP DUP2 DUP2 SUB PUSH1 0x0 DUP4 ADD MSTORE PUSH3 0x4EB DUP2 PUSH3 0x434 JUMP JUMPDEST SWAP1 POP SWAP2 SWAP1 POP JUMP JUMPDEST PUSH1 0x0 PUSH1 0x20 DUP3 ADD SWAP1 POP DUP2 DUP2 SUB PUSH1 0x0 DUP4 ADD MSTORE PUSH3 0x50D DUP2 PUSH3 0x45B JUMP JUMPDEST SWAP1 POP SWAP2 SWAP1 POP JUMP JUMPDEST PUSH1 0x0 PUSH1 0x20 DUP3 ADD SWAP1 POP DUP2 DUP2 SUB PUSH1 0x0 DUP4 ADD MSTORE PUSH3 0x52F DUP2 PUSH3 0x482 JUMP JUMPDEST SWAP1 POP SWAP2 SWAP1 POP JUMP JUMPDEST PUSH1 0x0 PUSH1 0x20 DUP3 ADD SWAP1 POP DUP2 DUP2 SUB PUSH1 0x0 DUP4 ADD MSTORE PUSH3 0x551 DUP2 PUSH3 0x4A9 JUMP JUMPDEST SWAP1 POP SWAP2 SWAP1 POP JUMP JUMPDEST PUSH1 0x0 PUSH3 0x564 PUSH3 0x577 JUMP JUMPDEST SWAP1 POP PUSH3 0x572 DUP3 DUP3 PUSH3 0x63A JUMP JUMPDEST SWAP2 SWAP1 POP JUMP JUMPDEST PUSH1 0x0 PUSH1 0x40 MLOAD SWAP1 POP SWAP1 JUMP JUMPDEST PUSH1 0x0 PUSH8 0xFFFFFFFFFFFFFFFF DUP3 GT ISZERO PUSH3 0x59F JUMPI PUSH3 0x59E PUSH3 0x71C JUMP JUMPDEST JUMPDEST PUSH1 0x20 DUP3 MUL SWAP1 POP PUSH1 0x20 DUP2 ADD SWAP1 POP SWAP2 SWAP1 POP JUMP JUMPDEST PUSH1 0x0 DUP3 DUP3 MSTORE PUSH1 0x20 DUP3 ADD SWAP1 POP SWAP3 SWAP2 POP POP JUMP JUMPDEST PUSH1 0x0 PUSH3 0x5CE DUP3 PUSH3 0x630 JUMP JUMPDEST SWAP2 POP PUSH3 0x5DB DUP4 PUSH3 0x630 JUMP JUMPDEST SWAP3 POP DUP3 DUP3 LT ISZERO PUSH3 0x5F1 JUMPI PUSH3 0x5F0 PUSH3 0x6BE JUMP JUMPDEST JUMPDEST DUP3 DUP3 SUB SWAP1 POP SWAP3 SWAP2 POP POP JUMP JUMPDEST PUSH1 0x0 PUSH3 0x609 DUP3 PUSH3 0x610 JUMP JUMPDEST SWAP1 POP SWAP2 SWAP1 POP JUMP JUMPDEST PUSH1 0x0 PUSH20 0xFFFFFFFFFFFFFFFFFFFFFFFFFFFFFFFFFFFFFFFF DUP3 AND SWAP1 POP SWAP2 SWAP1 POP JUMP JUMPDEST PUSH1 0x0 DUP2 SWAP1 POP SWAP2 SWAP1 POP JUMP JUMPDEST PUSH3 0x645 DUP3 PUSH3 0x75F JUMP JUMPDEST DUP2 ADD DUP2 DUP2 LT PUSH8 0xFFFFFFFFFFFFFFFF DUP3 GT OR ISZERO PUSH3 0x667 JUMPI PUSH3 0x666 PUSH3 0x71C JUMP JUMPDEST JUMPDEST DUP1 PUSH1 0x40 MSTORE POP POP POP JUMP JUMPDEST PUSH1 0x0 PUSH3 0x67D DUP3 PUSH3 0x630 JUMP JUMPDEST SWAP2 POP PUSH32 0xFFFFFFFFFFFFFFFFFFFFFFFFFFFFFFFFFFFFFFFFFFFFFFFFFFFFFFFFFFFFFFFF DUP3 EQ ISZERO PUSH3 0x6B3 JUMPI PUSH3 0x6B2 PUSH3 0x6BE JUMP JUMPDEST JUMPDEST PUSH1 0x1 DUP3 ADD SWAP1 POP SWAP2 SWAP1 POP JUMP JUMPDEST PUSH32 0x4E487B7100000000000000000000000000000000000000000000000000000000 PUSH1 0x0 MSTORE PUSH1 0x11 PUSH1 0x4 MSTORE PUSH1 0x24 PUSH1 0x0 REVERT JUMPDEST PUSH32 0x4E487B7100000000000000000000000000000000000000000000000000000000 PUSH1 0x0 MSTORE PUSH1 0x32 PUSH1 0x4 MSTORE PUSH1 0x24 PUSH1 0x0 REVERT JUMPDEST PUSH32 0x4E487B7100000000000000000000000000000000000000000000000000000000 PUSH1 0x0 MSTORE PUSH1 0x41 PUSH1 0x4 MSTORE PUSH1 0x24 PUSH1 0x0 REVERT JUMPDEST PUSH1 0x0 DUP1 REVERT JUMPDEST PUSH1 0x0 DUP1 REVERT JUMPDEST PUSH1 0x0 DUP1 REVERT JUMPDEST PUSH1 0x0 DUP1 REVERT JUMPDEST PUSH1 0x0 PUSH1 0x1F NOT PUSH1 0x1F DUP4 ADD AND SWAP1 POP SWAP2 SWAP1 POP JUMP JUMPDEST PUSH32 0x6F776E6572206973206E6F7420756E6971756500000000000000000000000000 PUSH1 0x0 DUP3 ADD MSTORE POP JUMP JUMPDEST PUSH32 0x6F776E657273206D7573742062652067726561746572207468616E2030200000 PUSH1 0x0 DUP3 ADD MSTORE POP JUMP JUMPDEST PUSH32 0x696E76616C696420616464726573730000000000000000000000000000000000 PUSH1 0x0 DUP3 ADD MSTORE POP JUMP JUMPDEST PUSH32 0x5F7265717569726564206E756D20696E76616C69640000000000000000000000 PUSH1 0x0 DUP3 ADD MSTORE POP JUMP JUMPDEST PUSH3 0x81F DUP2 PUSH3 0x5FC JUMP JUMPDEST DUP2 EQ PUSH3 0x82B JUMPI PUSH1 0x0 DUP1 REVERT JUMPDEST POP JUMP JUMPDEST PUSH3 0x839 DUP2 PUSH3 0x630 JUMP JUMPDEST DUP2 EQ PUSH3 0x845 JUMPI PUSH1 0x0 DUP1 REVERT JUMPDEST POP JUMP JUMPDEST PUSH2 0x16F3 DUP1 PUSH3 0x858 PUSH1 0x0 CODECOPY PUSH1 0x0 RETURN INVALID PUSH1 0x80 PUSH1 0x40 MSTORE PUSH1 0x4 CALLDATASIZE LT PUSH2 0x74 JUMPI PUSH1 0x0 CALLDATALOAD PUSH1 0xE0 SHR DUP1 PUSH4 0x9ACE38C2 GT PUSH2 0x4E JUMPI DUP1 PUSH4 0x9ACE38C2 EQ PUSH2 0x148 JUMPI DUP1 PUSH4 0xA96C065B EQ PUSH2 0x188 JUMPI DUP1 PUSH4 0xB759F954 EQ PUSH2 0x1B1 JUMPI DUP1 PUSH4 0xDC8452CD EQ PUSH2 0x1DA JUMPI PUSH2 0xB4 JUMP JUMPDEST DUP1 PUSH4 0x25E7C27 EQ PUSH2 0xB9 JUMPI DUP1 PUSH4 0x14DE327F EQ PUSH2 0xF6 JUMPI DUP1 PUSH4 0x20C5429B EQ PUSH2 0x11F JUMPI PUSH2 0xB4 JUMP JUMPDEST CALLDATASIZE PUSH2 0xB4 JUMPI PUSH32 0xE1FFFCC4923D04B559F4D29A8BFC6CDA04EB5B0D3C460751C2402C5C5CC9109C CALLER CALLVALUE PUSH1 0x40 MLOAD PUSH2 0xAA SWAP3 SWAP2 SWAP1 PUSH2 0x117C JUMP JUMPDEST PUSH1 0x40 MLOAD DUP1 SWAP2 SUB SWAP1 LOG1 STOP JUMPDEST PUSH1 0x0 DUP1 REVERT JUMPDEST CALLVALUE DUP1 ISZERO PUSH2 0xC5 JUMPI PUSH1 0x0 DUP1 REVERT JUMPDEST POP PUSH2 0xE0 PUSH1 0x4 DUP1 CALLDATASIZE SUB DUP2 ADD SWAP1 PUSH2 0xDB SWAP2 SWAP1 PUSH2 0xF43 JUMP JUMPDEST PUSH2 0x205 JUMP JUMPDEST PUSH1 0x40 MLOAD PUSH2 0xED SWAP2 SWAP1 PUSH2 0x1161 JUMP JUMPDEST PUSH1 0x40 MLOAD DUP1 SWAP2 SUB SWAP1 RETURN JUMPDEST CALLVALUE DUP1 ISZERO PUSH2 0x102 JUMPI PUSH1 0x0 DUP1 REVERT JUMPDEST POP PUSH2 0x11D PUSH1 0x4 DUP1 CALLDATASIZE SUB DUP2 ADD SWAP1 PUSH2 0x118 SWAP2 SWAP1 PUSH2 0xECF JUMP JUMPDEST PUSH2 0x244 JUMP JUMPDEST STOP JUMPDEST CALLVALUE DUP1 ISZERO PUSH2 0x12B JUMPI PUSH1 0x0 DUP1 REVERT JUMPDEST POP PUSH2 0x146 PUSH1 0x4 DUP1 CALLDATASIZE SUB DUP2 ADD SWAP1 PUSH2 0x141 SWAP2 SWAP1 PUSH2 0xF43 JUMP JUMPDEST PUSH2 0x457 JUMP JUMPDEST STOP JUMPDEST CALLVALUE DUP1 ISZERO PUSH2 0x154 JUMPI PUSH1 0x0 DUP1 REVERT JUMPDEST POP PUSH2 0x16F PUSH1 0x4 DUP1 CALLDATASIZE SUB DUP2 ADD SWAP1 PUSH2 0x16A SWAP2 SWAP1 PUSH2 0xF43 JUMP JUMPDEST PUSH2 0x6E3 JUMP JUMPDEST PUSH1 0x40 MLOAD PUSH2 0x17F SWAP5 SWAP4 SWAP3 SWAP2 SWAP1 PUSH2 0x11A5 JUMP JUMPDEST PUSH1 0x40 MLOAD DUP1 SWAP2 SUB SWAP1 RETURN JUMPDEST CALLVALUE DUP1 ISZERO PUSH2 0x194 JUMPI PUSH1 0x0 DUP1 REVERT JUMPDEST POP PUSH2 0x1AF PUSH1 0x4 DUP1 CALLDATASIZE SUB DUP2 ADD SWAP1 PUSH2 0x1AA SWAP2 SWAP1 PUSH2 0xF43 JUMP JUMPDEST PUSH2 0x7D8 JUMP JUMPDEST STOP JUMPDEST CALLVALUE DUP1 ISZERO PUSH2 0x1BD JUMPI PUSH1 0x0 DUP1 REVERT JUMPDEST POP PUSH2 0x1D8 PUSH1 0x4 DUP1 CALLDATASIZE SUB DUP2 ADD SWAP1 PUSH2 0x1D3 SWAP2 SWAP1 PUSH2 0xF43 JUMP JUMPDEST PUSH2 0xA3D JUMP JUMPDEST STOP JUMPDEST CALLVALUE DUP1 ISZERO PUSH2 0x1E6 JUMPI PUSH1 0x0 DUP1 REVERT JUMPDEST POP PUSH2 0x1EF PUSH2 0xCCC JUMP JUMPDEST PUSH1 0x40 MLOAD PUSH2 0x1FC SWAP2 SWAP1 PUSH2 0x12D1 JUMP JUMPDEST PUSH1 0x40 MLOAD DUP1 SWAP2 SUB SWAP1 RETURN JUMPDEST PUSH1 0x0 DUP2 DUP2 SLOAD DUP2 LT PUSH2 0x215 JUMPI PUSH1 0x0 DUP1 REVERT JUMPDEST SWAP1 PUSH1 0x0 MSTORE PUSH1 0x20 PUSH1 0x0 KECCAK256 ADD PUSH1 0x0 SWAP2 POP SLOAD SWAP1 PUSH2 0x100 EXP SWAP1 DIV PUSH20 0xFFFFFFFFFFFFFFFFFFFFFFFFFFFFFFFFFFFFFFFF AND DUP2 JUMP JUMPDEST PUSH1 0x1 PUSH1 0x0 CALLER PUSH20 0xFFFFFFFFFFFFFFFFFFFFFFFFFFFFFFFFFFFFFFFF AND PUSH20 0xFFFFFFFFFFFFFFFFFFFFFFFFFFFFFFFFFFFFFFFF AND DUP2 MSTORE PUSH1 0x20 ADD SWAP1 DUP2 MSTORE PUSH1 0x20 ADD PUSH1 0x0 KECCAK256 PUSH1 0x0 SWAP1 SLOAD SWAP1 PUSH2 0x100 EXP SWAP1 DIV PUSH1 0xFF AND PUSH2 0x2D0 JUMPI PUSH1 0x40 MLOAD PUSH32 0x8C379A000000000000000000000000000000000000000000000000000000000 DUP2 MSTORE PUSH1 0x4 ADD PUSH2 0x2C7 SWAP1 PUSH2 0x1231 JUMP JUMPDEST PUSH1 0x40 MLOAD DUP1 SWAP2 SUB SWAP1 REVERT JUMPDEST PUSH1 0x2 PUSH1 0x40 MLOAD DUP1 PUSH1 0x80 ADD PUSH1 0x40 MSTORE DUP1 DUP7 PUSH20 0xFFFFFFFFFFFFFFFFFFFFFFFFFFFFFFFFFFFFFFFF AND DUP2 MSTORE PUSH1 0x20 ADD DUP6 DUP2 MSTORE PUSH1 0x20 ADD DUP5 DUP5 DUP1 DUP1 PUSH1 0x1F ADD PUSH1 0x20 DUP1 SWAP2 DIV MUL PUSH1 0x20 ADD PUSH1 0x40 MLOAD SWAP1 DUP2 ADD PUSH1 0x40 MSTORE DUP1 SWAP4 SWAP3 SWAP2 SWAP1 DUP2 DUP2 MSTORE PUSH1 0x20 ADD DUP4 DUP4 DUP1 DUP3 DUP5 CALLDATACOPY PUSH1 0x0 DUP2 DUP5 ADD MSTORE PUSH1 0x1F NOT PUSH1 0x1F DUP3 ADD AND SWAP1 POP DUP1 DUP4 ADD SWAP3 POP POP POP POP POP POP POP DUP2 MSTORE PUSH1 0x20 ADD PUSH1 0x0 ISZERO ISZERO DUP2 MSTORE POP SWAP1 DUP1 PUSH1 0x1 DUP2 SLOAD ADD DUP1 DUP3 SSTORE DUP1 SWAP2 POP POP PUSH1 0x1 SWAP1 SUB SWAP1 PUSH1 0x0 MSTORE PUSH1 0x20 PUSH1 0x0 KECCAK256 SWAP1 PUSH1 0x4 MUL ADD PUSH1 0x0 SWAP1 SWAP2 SWAP1 SWAP2 SWAP1 SWAP2 POP PUSH1 0x0 DUP3 ADD MLOAD DUP2 PUSH1 0x0 ADD PUSH1 0x0 PUSH2 0x100 EXP DUP2 SLOAD DUP2 PUSH20 0xFFFFFFFFFFFFFFFFFFFFFFFFFFFFFFFFFFFFFFFF MUL NOT AND SWAP1 DUP4 PUSH20 0xFFFFFFFFFFFFFFFFFFFFFFFFFFFFFFFFFFFFFFFF AND MUL OR SWAP1 SSTORE POP PUSH1 0x20 DUP3 ADD MLOAD DUP2 PUSH1 0x1 ADD SSTORE PUSH1 0x40 DUP3 ADD MLOAD DUP2 PUSH1 0x2 ADD SWAP1 DUP1 MLOAD SWAP1 PUSH1 0x20 ADD SWAP1 PUSH2 0x3E6 SWAP3 SWAP2 SWAP1 PUSH2 0xDAC JUMP JUMPDEST POP PUSH1 0x60 DUP3 ADD MLOAD DUP2 PUSH1 0x3 ADD PUSH1 0x0 PUSH2 0x100 EXP DUP2 SLOAD DUP2 PUSH1 0xFF MUL NOT AND SWAP1 DUP4 ISZERO ISZERO MUL OR SWAP1 SSTORE POP POP POP PUSH32 0x8324B3D745B914E3ABD4FFBFEAD91E3B78391A98C173202129215AB933ADFBE PUSH1 0x1 PUSH1 0x2 DUP1 SLOAD SWAP1 POP PUSH2 0x43C SWAP2 SWAP1 PUSH2 0x138F JUMP JUMPDEST PUSH1 0x40 MLOAD PUSH2 0x449 SWAP2 SWAP1 PUSH2 0x12D1 JUMP JUMPDEST PUSH1 0x40 MLOAD DUP1 SWAP2 SUB SWAP1 LOG1 POP POP POP POP JUMP JUMPDEST PUSH1 0x1 PUSH1 0x0 CALLER PUSH20 0xFFFFFFFFFFFFFFFFFFFFFFFFFFFFFFFFFFFFFFFF AND PUSH20 0xFFFFFFFFFFFFFFFFFFFFFFFFFFFFFFFFFFFFFFFF AND DUP2 MSTORE PUSH1 0x20 ADD SWAP1 DUP2 MSTORE PUSH1 0x20 ADD PUSH1 0x0 KECCAK256 PUSH1 0x0 SWAP1 SLOAD SWAP1 PUSH2 0x100 EXP SWAP1 DIV PUSH1 0xFF AND PUSH2 0x4E3 JUMPI PUSH1 0x40 MLOAD PUSH32 0x8C379A000000000000000000000000000000000000000000000000000000000 DUP2 MSTORE PUSH1 0x4 ADD PUSH2 0x4DA SWAP1 PUSH2 0x1231 JUMP JUMPDEST PUSH1 0x40 MLOAD DUP1 SWAP2 SUB SWAP1 REVERT JUMPDEST DUP1 PUSH1 0x2 DUP1 SLOAD SWAP1 POP DUP2 LT PUSH2 0x52B JUMPI PUSH1 0x40 MLOAD PUSH32 0x8C379A000000000000000000000000000000000000000000000000000000000 DUP2 MSTORE PUSH1 0x4 ADD PUSH2 0x522 SWAP1 PUSH2 0x1271 JUMP JUMPDEST PUSH1 0x40 MLOAD DUP1 SWAP2 SUB SWAP1 REVERT JUMPDEST DUP2 PUSH1 0x2 DUP2 DUP2 SLOAD DUP2 LT PUSH2 0x540 JUMPI PUSH2 0x53F PUSH2 0x1517 JUMP JUMPDEST JUMPDEST SWAP1 PUSH1 0x0 MSTORE PUSH1 0x20 PUSH1 0x0 KECCAK256 SWAP1 PUSH1 0x4 MUL ADD PUSH1 0x3 ADD PUSH1 0x0 SWAP1 SLOAD SWAP1 PUSH2 0x100 EXP SWAP1 DIV PUSH1 0xFF AND ISZERO PUSH2 0x59F JUMPI PUSH1 0x40 MLOAD PUSH32 0x8C379A000000000000000000000000000000000000000000000000000000000 DUP2 MSTORE PUSH1 0x4 ADD PUSH2 0x596 SWAP1 PUSH2 0x12B1 JUMP JUMPDEST PUSH1 0x40 MLOAD DUP1 SWAP2 SUB SWAP1 REVERT JUMPDEST PUSH1 0x4 PUSH1 0x0 DUP5 DUP2 MSTORE PUSH1 0x20 ADD SWAP1 DUP2 MSTORE PUSH1 0x20 ADD PUSH1 0x0 KECCAK256 PUSH1 0x0 CALLER PUSH20 0xFFFFFFFFFFFFFFFFFFFFFFFFFFFFFFFFFFFFFFFF AND PUSH20 0xFFFFFFFFFFFFFFFFFFFFFFFFFFFFFFFFFFFFFFFF AND DUP2 MSTORE PUSH1 0x20 ADD SWAP1 DUP2 MSTORE PUSH1 0x20 ADD PUSH1 0x0 KECCAK256 PUSH1 0x0 SWAP1 SLOAD SWAP1 PUSH2 0x100 EXP SWAP1 DIV PUSH1 0xFF AND PUSH2 0x63C JUMPI PUSH1 0x40 MLOAD PUSH32 0x8C379A000000000000000000000000000000000000000000000000000000000 DUP2 MSTORE PUSH1 0x4 ADD PUSH2 0x633 SWAP1 PUSH2 0x11F1 JUMP JUMPDEST PUSH1 0x40 MLOAD DUP1 SWAP2 SUB SWAP1 REVERT JUMPDEST PUSH1 0x0 PUSH1 0x4 PUSH1 0x0 DUP6 DUP2 MSTORE PUSH1 0x20 ADD SWAP1 DUP2 MSTORE PUSH1 0x20 ADD PUSH1 0x0 KECCAK256 PUSH1 0x0 CALLER PUSH20 0xFFFFFFFFFFFFFFFFFFFFFFFFFFFFFFFFFFFFFFFF AND PUSH20 0xFFFFFFFFFFFFFFFFFFFFFFFFFFFFFFFFFFFFFFFF AND DUP2 MSTORE PUSH1 0x20 ADD SWAP1 DUP2 MSTORE PUSH1 0x20 ADD PUSH1 0x0 KECCAK256 PUSH1 0x0 PUSH2 0x100 EXP DUP2 SLOAD DUP2 PUSH1 0xFF MUL NOT AND SWAP1 DUP4 ISZERO ISZERO MUL OR SWAP1 SSTORE POP PUSH32 0xEC9AB91322523C899EDE7830EC9BFC992B5981CDCC27B91162FB23DE5791117B CALLER DUP5 PUSH1 0x40 MLOAD PUSH2 0x6D6 SWAP3 SWAP2 SWAP1 PUSH2 0x117C JUMP JUMPDEST PUSH1 0x40 MLOAD DUP1 SWAP2 SUB SWAP1 LOG1 POP POP POP JUMP JUMPDEST PUSH1 0x2 DUP2 DUP2 SLOAD DUP2 LT PUSH2 0x6F3 JUMPI PUSH1 0x0 DUP1 REVERT JUMPDEST SWAP1 PUSH1 0x0 MSTORE PUSH1 0x20 PUSH1 0x0 KECCAK256 SWAP1 PUSH1 0x4 MUL ADD PUSH1 0x0 SWAP2 POP SWAP1 POP DUP1 PUSH1 0x0 ADD PUSH1 0x0 SWAP1 SLOAD SWAP1 PUSH2 0x100 EXP SWAP1 DIV PUSH20 0xFFFFFFFFFFFFFFFFFFFFFFFFFFFFFFFFFFFFFFFF AND SWAP1 DUP1 PUSH1 0x1 ADD SLOAD SWAP1 DUP1 PUSH1 0x2 ADD DUP1 SLOAD PUSH2 0x742 SWAP1 PUSH2 0x143E JUMP JUMPDEST DUP1 PUSH1 0x1F ADD PUSH1 0x20 DUP1 SWAP2 DIV MUL PUSH1 0x20 ADD PUSH1 0x40 MLOAD SWAP1 DUP2 ADD PUSH1 0x40 MSTORE DUP1 SWAP3 SWAP2 SWAP1 DUP2 DUP2 MSTORE PUSH1 0x20 ADD DUP3 DUP1 SLOAD PUSH2 0x76E SWAP1 PUSH2 0x143E JUMP JUMPDEST DUP1 ISZERO PUSH2 0x7BB JUMPI DUP1 PUSH1 0x1F LT PUSH2 0x790 JUMPI PUSH2 0x100 DUP1 DUP4 SLOAD DIV MUL DUP4 MSTORE SWAP2 PUSH1 0x20 ADD SWAP2 PUSH2 0x7BB JUMP JUMPDEST DUP3 ADD SWAP2 SWAP1 PUSH1 0x0 MSTORE PUSH1 0x20 PUSH1 0x0 KECCAK256 SWAP1 JUMPDEST DUP2 SLOAD DUP2 MSTORE SWAP1 PUSH1 0x1 ADD SWAP1 PUSH1 0x20 ADD DUP1 DUP4 GT PUSH2 0x79E JUMPI DUP3 SWAP1 SUB PUSH1 0x1F AND DUP3 ADD SWAP2 JUMPDEST POP POP POP POP POP SWAP1 DUP1 PUSH1 0x3 ADD PUSH1 0x0 SWAP1 SLOAD SWAP1 PUSH2 0x100 EXP SWAP1 DIV PUSH1 0xFF AND SWAP1 POP DUP5 JUMP JUMPDEST DUP1 PUSH1 0x2 DUP1 SLOAD SWAP1 POP DUP2 LT PUSH2 0x820 JUMPI PUSH1 0x40 MLOAD PUSH32 0x8C379A000000000000000000000000000000000000000000000000000000000 DUP2 MSTORE PUSH1 0x4 ADD PUSH2 0x817 SWAP1 PUSH2 0x1271 JUMP JUMPDEST PUSH1 0x40 MLOAD DUP1 SWAP2 SUB SWAP1 REVERT JUMPDEST DUP2 PUSH1 0x2 DUP2 DUP2 SLOAD DUP2 LT PUSH2 0x835 JUMPI PUSH2 0x834 PUSH2 0x1517 JUMP JUMPDEST JUMPDEST SWAP1 PUSH1 0x0 MSTORE PUSH1 0x20 PUSH1 0x0 KECCAK256 SWAP1 PUSH1 0x4 MUL ADD PUSH1 0x3 ADD PUSH1 0x0 SWAP1 SLOAD SWAP1 PUSH2 0x100 EXP SWAP1 DIV PUSH1 0xFF AND ISZERO PUSH2 0x894 JUMPI PUSH1 0x40 MLOAD PUSH32 0x8C379A000000000000000000000000000000000000000000000000000000000 DUP2 MSTORE PUSH1 0x4 ADD PUSH2 0x88B SWAP1 PUSH2 0x12B1 JUMP JUMPDEST PUSH1 0x40 MLOAD DUP1 SWAP2 SUB SWAP1 REVERT JUMPDEST PUSH1 0x3 SLOAD PUSH2 0x8A0 DUP5 PUSH2 0xCD2 JUMP JUMPDEST LT ISZERO PUSH2 0x8E1 JUMPI PUSH1 0x40 MLOAD PUSH32 0x8C379A000000000000000000000000000000000000000000000000000000000 DUP2 MSTORE PUSH1 0x4 ADD PUSH2 0x8D8 SWAP1 PUSH2 0x1211 JUMP JUMPDEST PUSH1 0x40 MLOAD DUP1 SWAP2 SUB SWAP1 REVERT JUMPDEST PUSH1 0x0 PUSH1 0x2 DUP5 DUP2 SLOAD DUP2 LT PUSH2 0x8F7 JUMPI PUSH2 0x8F6 PUSH2 0x1517 JUMP JUMPDEST JUMPDEST SWAP1 PUSH1 0x0 MSTORE PUSH1 0x20 PUSH1 0x0 KECCAK256 SWAP1 PUSH1 0x4 MUL ADD SWAP1 POP PUSH1 0x1 DUP2 PUSH1 0x3 ADD PUSH1 0x0 PUSH2 0x100 EXP DUP2 SLOAD DUP2 PUSH1 0xFF MUL NOT AND SWAP1 DUP4 ISZERO ISZERO MUL OR SWAP1 SSTORE POP PUSH1 0x0 DUP2 PUSH1 0x0 ADD PUSH1 0x0 SWAP1 SLOAD SWAP1 PUSH2 0x100 EXP SWAP1 DIV PUSH20 0xFFFFFFFFFFFFFFFFFFFFFFFFFFFFFFFFFFFFFFFF AND PUSH20 0xFFFFFFFFFFFFFFFFFFFFFFFFFFFFFFFFFFFFFFFF AND DUP3 PUSH1 0x1 ADD SLOAD DUP4 PUSH1 0x2 ADD PUSH1 0x40 MLOAD PUSH2 0x977 SWAP2 SWAP1 PUSH2 0x114A JUMP JUMPDEST PUSH1 0x0 PUSH1 0x40 MLOAD DUP1 DUP4 SUB DUP2 DUP6 DUP8 GAS CALL SWAP3 POP POP POP RETURNDATASIZE DUP1 PUSH1 0x0 DUP2 EQ PUSH2 0x9B4 JUMPI PUSH1 0x40 MLOAD SWAP2 POP PUSH1 0x1F NOT PUSH1 0x3F RETURNDATASIZE ADD AND DUP3 ADD PUSH1 0x40 MSTORE RETURNDATASIZE DUP3 MSTORE RETURNDATASIZE PUSH1 0x0 PUSH1 0x20 DUP5 ADD RETURNDATACOPY PUSH2 0x9B9 JUMP JUMPDEST PUSH1 0x60 SWAP2 POP JUMPDEST POP POP SWAP1 POP DUP1 PUSH2 0x9FD JUMPI PUSH1 0x40 MLOAD PUSH32 0x8C379A000000000000000000000000000000000000000000000000000000000 DUP2 MSTORE PUSH1 0x4 ADD PUSH2 0x9F4 SWAP1 PUSH2 0x1291 JUMP JUMPDEST PUSH1 0x40 MLOAD DUP1 SWAP2 SUB SWAP1 REVERT JUMPDEST PUSH32 0xE2F46220BCBC16CF5555DD459FFE49E9C5C7B8DE51D6F4D39D64E30270FFA0D9 CALLER DUP7 PUSH1 0x40 MLOAD PUSH2 0xA2E SWAP3 SWAP2 SWAP1 PUSH2 0x117C JUMP JUMPDEST PUSH1 0x40 MLOAD DUP1 SWAP2 SUB SWAP1 LOG1 POP POP POP POP POP JUMP JUMPDEST PUSH1 0x1 PUSH1 0x0 CALLER PUSH20 0xFFFFFFFFFFFFFFFFFFFFFFFFFFFFFFFFFFFFFFFF AND PUSH20 0xFFFFFFFFFFFFFFFFFFFFFFFFFFFFFFFFFFFFFFFF AND DUP2 MSTORE PUSH1 0x20 ADD SWAP1 DUP2 MSTORE PUSH1 0x20 ADD PUSH1 0x0 KECCAK256 PUSH1 0x0 SWAP1 SLOAD SWAP1 PUSH2 0x100 EXP SWAP1 DIV PUSH1 0xFF AND PUSH2 0xAC9 JUMPI PUSH1 0x40 MLOAD PUSH32 0x8C379A000000000000000000000000000000000000000000000000000000000 DUP2 MSTORE PUSH1 0x4 ADD PUSH2 0xAC0 SWAP1 PUSH2 0x1231 JUMP JUMPDEST PUSH1 0x40 MLOAD DUP1 SWAP2 SUB SWAP1 REVERT JUMPDEST DUP1 PUSH1 0x2 DUP1 SLOAD SWAP1 POP DUP2 LT PUSH2 0xB11 JUMPI PUSH1 0x40 MLOAD PUSH32 0x8C379A000000000000000000000000000000000000000000000000000000000 DUP2 MSTORE PUSH1 0x4 ADD PUSH2 0xB08 SWAP1 PUSH2 0x1271 JUMP JUMPDEST PUSH1 0x40 MLOAD DUP1 SWAP2 SUB SWAP1 REVERT JUMPDEST DUP2 PUSH1 0x4 PUSH1 0x0 DUP3 DUP2 MSTORE PUSH1 0x20 ADD SWAP1 DUP2 MSTORE PUSH1 0x20 ADD PUSH1 0x0 KECCAK256 PUSH1 0x0 CALLER PUSH20 0xFFFFFFFFFFFFFFFFFFFFFFFFFFFFFFFFFFFFFFFF AND PUSH20 0xFFFFFFFFFFFFFFFFFFFFFFFFFFFFFFFFFFFFFFFF AND DUP2 MSTORE PUSH1 0x20 ADD SWAP1 DUP2 MSTORE PUSH1 0x20 ADD PUSH1 0x0 KECCAK256 PUSH1 0x0 SWAP1 SLOAD SWAP1 PUSH2 0x100 EXP SWAP1 DIV PUSH1 0xFF AND ISZERO PUSH2 0xBB0 JUMPI PUSH1 0x40 MLOAD PUSH32 0x8C379A000000000000000000000000000000000000000000000000000000000 DUP2 MSTORE PUSH1 0x4 ADD PUSH2 0xBA7 SWAP1 PUSH2 0x1251 JUMP JUMPDEST PUSH1 0x40 MLOAD DUP1 SWAP2 SUB SWAP1 REVERT JUMPDEST DUP3 PUSH1 0x2 DUP2 DUP2 SLOAD DUP2 LT PUSH2 0xBC5 JUMPI PUSH2 0xBC4 PUSH2 0x1517 JUMP JUMPDEST JUMPDEST SWAP1 PUSH1 0x0 MSTORE PUSH1 0x20 PUSH1 0x0 KECCAK256 SWAP1 PUSH1 0x4 MUL ADD PUSH1 0x3 ADD PUSH1 0x0 SWAP1 SLOAD SWAP1 PUSH2 0x100 EXP SWAP1 DIV PUSH1 0xFF AND ISZERO PUSH2 0xC24 JUMPI PUSH1 0x40 MLOAD PUSH32 0x8C379A000000000000000000000000000000000000000000000000000000000 DUP2 MSTORE PUSH1 0x4 ADD PUSH2 0xC1B SWAP1 PUSH2 0x12B1 JUMP JUMPDEST PUSH1 0x40 MLOAD DUP1 SWAP2 SUB SWAP1 REVERT JUMPDEST PUSH1 0x1 PUSH1 0x4 PUSH1 0x0 DUP7 DUP2 MSTORE PUSH1 0x20 ADD SWAP1 DUP2 MSTORE PUSH1 0x20 ADD PUSH1 0x0 KECCAK256 PUSH1 0x0 CALLER PUSH20 0xFFFFFFFFFFFFFFFFFFFFFFFFFFFFFFFFFFFFFFFF AND PUSH20 0xFFFFFFFFFFFFFFFFFFFFFFFFFFFFFFFFFFFFFFFF AND DUP2 MSTORE PUSH1 0x20 ADD SWAP1 DUP2 MSTORE PUSH1 0x20 ADD PUSH1 0x0 KECCAK256 PUSH1 0x0 PUSH2 0x100 EXP DUP2 SLOAD DUP2 PUSH1 0xFF MUL NOT AND SWAP1 DUP4 ISZERO ISZERO MUL OR SWAP1 SSTORE POP PUSH32 0x90EC57F18FA7B15C6B8D5E4D1DEB90796C74B2FF23D4D0CECAD0CB42A96B3128 CALLER DUP6 PUSH1 0x40 MLOAD PUSH2 0xCBE SWAP3 SWAP2 SWAP1 PUSH2 0x117C JUMP JUMPDEST PUSH1 0x40 MLOAD DUP1 SWAP2 SUB SWAP1 LOG1 POP POP POP POP JUMP JUMPDEST PUSH1 0x3 SLOAD DUP2 JUMP JUMPDEST PUSH1 0x0 DUP1 JUMPDEST PUSH1 0x0 DUP1 SLOAD SWAP1 POP DUP2 LT ISZERO PUSH2 0xDA6 JUMPI PUSH1 0x4 PUSH1 0x0 DUP5 DUP2 MSTORE PUSH1 0x20 ADD SWAP1 DUP2 MSTORE PUSH1 0x20 ADD PUSH1 0x0 KECCAK256 PUSH1 0x0 DUP1 DUP4 DUP2 SLOAD DUP2 LT PUSH2 0xD0B JUMPI PUSH2 0xD0A PUSH2 0x1517 JUMP JUMPDEST JUMPDEST SWAP1 PUSH1 0x0 MSTORE PUSH1 0x20 PUSH1 0x0 KECCAK256 ADD PUSH1 0x0 SWAP1 SLOAD SWAP1 PUSH2 0x100 EXP SWAP1 DIV PUSH20 0xFFFFFFFFFFFFFFFFFFFFFFFFFFFFFFFFFFFFFFFF AND PUSH20 0xFFFFFFFFFFFFFFFFFFFFFFFFFFFFFFFFFFFFFFFF AND PUSH20 0xFFFFFFFFFFFFFFFFFFFFFFFFFFFFFFFFFFFFFFFF AND DUP2 MSTORE PUSH1 0x20 ADD SWAP1 DUP2 MSTORE PUSH1 0x20 ADD PUSH1 0x0 KECCAK256 PUSH1 0x0 SWAP1 SLOAD SWAP1 PUSH2 0x100 EXP SWAP1 DIV PUSH1 0xFF AND ISZERO PUSH2 0xD93 JUMPI PUSH1 0x1 DUP3 PUSH2 0xD90 SWAP2 SWAP1 PUSH2 0x1339 JUMP JUMPDEST SWAP2 POP JUMPDEST DUP1 DUP1 PUSH2 0xD9E SWAP1 PUSH2 0x1470 JUMP JUMPDEST SWAP2 POP POP PUSH2 0xCD6 JUMP JUMPDEST POP SWAP2 SWAP1 POP JUMP JUMPDEST DUP3 DUP1 SLOAD PUSH2 0xDB8 SWAP1 PUSH2 0x143E JUMP JUMPDEST SWAP1 PUSH1 0x0 MSTORE PUSH1 0x20 PUSH1 0x0 KECCAK256 SWAP1 PUSH1 0x1F ADD PUSH1 0x20 SWAP1 DIV DUP2 ADD SWAP3 DUP3 PUSH2 0xDDA JUMPI PUSH1 0x0 DUP6 SSTORE PUSH2 0xE21 JUMP JUMPDEST DUP3 PUSH1 0x1F LT PUSH2 0xDF3 JUMPI DUP1 MLOAD PUSH1 0xFF NOT AND DUP4 DUP1 ADD OR DUP6 SSTORE PUSH2 0xE21 JUMP JUMPDEST DUP3 DUP1 ADD PUSH1 0x1 ADD DUP6 SSTORE DUP3 ISZERO PUSH2 0xE21 JUMPI SWAP2 DUP3 ADD JUMPDEST DUP3 DUP2 GT ISZERO PUSH2 0xE20 JUMPI DUP3 MLOAD DUP3 SSTORE SWAP2 PUSH1 0x20 ADD SWAP2 SWAP1 PUSH1 0x1 ADD SWAP1 PUSH2 0xE05 JUMP JUMPDEST JUMPDEST POP SWAP1 POP PUSH2 0xE2E SWAP2 SWAP1 PUSH2 0xE32 JUMP JUMPDEST POP SWAP1 JUMP JUMPDEST JUMPDEST DUP1 DUP3 GT ISZERO PUSH2 0xE4B JUMPI PUSH1 0x0 DUP2 PUSH1 0x0 SWAP1 SSTORE POP PUSH1 0x1 ADD PUSH2 0xE33 JUMP JUMPDEST POP SWAP1 JUMP JUMPDEST PUSH1 0x0 DUP2 CALLDATALOAD SWAP1 POP PUSH2 0xE5E DUP2 PUSH2 0x168F JUMP JUMPDEST SWAP3 SWAP2 POP POP JUMP JUMPDEST PUSH1 0x0 DUP1 DUP4 PUSH1 0x1F DUP5 ADD SLT PUSH2 0xE7A JUMPI PUSH2 0xE79 PUSH2 0x154B JUMP JUMPDEST JUMPDEST DUP3 CALLDATALOAD SWAP1 POP PUSH8 0xFFFFFFFFFFFFFFFF DUP2 GT ISZERO PUSH2 0xE97 JUMPI PUSH2 0xE96 PUSH2 0x1546 JUMP JUMPDEST JUMPDEST PUSH1 0x20 DUP4 ADD SWAP2 POP DUP4 PUSH1 0x1 DUP3 MUL DUP4 ADD GT ISZERO PUSH2 0xEB3 JUMPI PUSH2 0xEB2 PUSH2 0x1550 JUMP JUMPDEST JUMPDEST SWAP3 POP SWAP3 SWAP1 POP JUMP JUMPDEST PUSH1 0x0 DUP2 CALLDATALOAD SWAP1 POP PUSH2 0xEC9 DUP2 PUSH2 0x16A6 JUMP JUMPDEST SWAP3 SWAP2 POP POP JUMP JUMPDEST PUSH1 0x0 DUP1 PUSH1 0x0 DUP1 PUSH1 0x60 DUP6 DUP8 SUB SLT ISZERO PUSH2 0xEE9 JUMPI PUSH2 0xEE8 PUSH2 0x155A JUMP JUMPDEST JUMPDEST PUSH1 0x0 PUSH2 0xEF7 DUP8 DUP3 DUP9 ADD PUSH2 0xE4F JUMP JUMPDEST SWAP5 POP POP PUSH1 0x20 PUSH2 0xF08 DUP8 DUP3 DUP9 ADD PUSH2 0xEBA JUMP JUMPDEST SWAP4 POP POP PUSH1 0x40 DUP6 ADD CALLDATALOAD PUSH8 0xFFFFFFFFFFFFFFFF DUP2 GT ISZERO PUSH2 0xF29 JUMPI PUSH2 0xF28 PUSH2 0x1555 JUMP JUMPDEST JUMPDEST PUSH2 0xF35 DUP8 DUP3 DUP9 ADD PUSH2 0xE64 JUMP JUMPDEST SWAP3 POP SWAP3 POP POP SWAP3 SWAP6 SWAP2 SWAP5 POP SWAP3 POP JUMP JUMPDEST PUSH1 0x0 PUSH1 0x20 DUP3 DUP5 SUB SLT ISZERO PUSH2 0xF59 JUMPI PUSH2 0xF58 PUSH2 0x155A JUMP JUMPDEST JUMPDEST PUSH1 0x0 PUSH2 0xF67 DUP5 DUP3 DUP6 ADD PUSH2 0xEBA JUMP JUMPDEST SWAP2 POP POP SWAP3 SWAP2 POP POP JUMP JUMPDEST PUSH2 0xF79 DUP2 PUSH2 0x13C3 JUMP JUMPDEST DUP3 MSTORE POP POP JUMP JUMPDEST PUSH2 0xF88 DUP2 PUSH2 0x13D5 JUMP JUMPDEST DUP3 MSTORE POP POP JUMP JUMPDEST PUSH1 0x0 PUSH2 0xF99 DUP3 PUSH2 0x1301 JUMP JUMPDEST PUSH2 0xFA3 DUP2 DUP6 PUSH2 0x130C JUMP JUMPDEST SWAP4 POP PUSH2 0xFB3 DUP2 DUP6 PUSH1 0x20 DUP7 ADD PUSH2 0x140B JUMP JUMPDEST PUSH2 0xFBC DUP2 PUSH2 0x155F JUMP JUMPDEST DUP5 ADD SWAP2 POP POP SWAP3 SWAP2 POP POP JUMP JUMPDEST PUSH1 0x0 DUP2 SLOAD PUSH2 0xFD4 DUP2 PUSH2 0x143E JUMP JUMPDEST PUSH2 0xFDE DUP2 DUP7 PUSH2 0x131D JUMP JUMPDEST SWAP5 POP PUSH1 0x1 DUP3 AND PUSH1 0x0 DUP2 EQ PUSH2 0xFF9 JUMPI PUSH1 0x1 DUP2 EQ PUSH2 0x100A JUMPI PUSH2 0x103D JUMP JUMPDEST PUSH1 0xFF NOT DUP4 AND DUP7 MSTORE DUP2 DUP7 ADD SWAP4 POP PUSH2 0x103D JUMP JUMPDEST PUSH2 0x1013 DUP6 PUSH2 0x12EC JUMP JUMPDEST PUSH1 0x0 JUMPDEST DUP4 DUP2 LT ISZERO PUSH2 0x1035 JUMPI DUP2 SLOAD DUP2 DUP10 ADD MSTORE PUSH1 0x1 DUP3 ADD SWAP2 POP PUSH1 0x20 DUP2 ADD SWAP1 POP PUSH2 0x1016 JUMP JUMPDEST DUP4 DUP9 ADD SWAP6 POP POP POP JUMPDEST POP POP POP SWAP3 SWAP2 POP POP JUMP JUMPDEST PUSH1 0x0 PUSH2 0x1053 PUSH1 0xF DUP4 PUSH2 0x1328 JUMP JUMPDEST SWAP2 POP PUSH2 0x105E DUP3 PUSH2 0x1570 JUMP JUMPDEST PUSH1 0x20 DUP3 ADD SWAP1 POP SWAP2 SWAP1 POP JUMP JUMPDEST PUSH1 0x0 PUSH2 0x1076 PUSH1 0x14 DUP4 PUSH2 0x1328 JUMP JUMPDEST SWAP2 POP PUSH2 0x1081 DUP3 PUSH2 0x1599 JUMP JUMPDEST PUSH1 0x20 DUP3 ADD SWAP1 POP SWAP2 SWAP1 POP JUMP JUMPDEST PUSH1 0x0 PUSH2 0x1099 PUSH1 0x20 DUP4 PUSH2 0x1328 JUMP JUMPDEST SWAP2 POP PUSH2 0x10A4 DUP3 PUSH2 0x15C2 JUMP JUMPDEST PUSH1 0x20 DUP3 ADD SWAP1 POP SWAP2 SWAP1 POP JUMP JUMPDEST PUSH1 0x0 PUSH2 0x10BC PUSH1 0x13 DUP4 PUSH2 0x1328 JUMP JUMPDEST SWAP2 POP PUSH2 0x10C7 DUP3 PUSH2 0x15EB JUMP JUMPDEST PUSH1 0x20 DUP3 ADD SWAP1 POP SWAP2 SWAP1 POP JUMP JUMPDEST PUSH1 0x0 PUSH2 0x10DF PUSH1 0xD DUP4 PUSH2 0x1328 JUMP JUMPDEST SWAP2 POP PUSH2 0x10EA DUP3 PUSH2 0x1614 JUMP JUMPDEST PUSH1 0x20 DUP3 ADD SWAP1 POP SWAP2 SWAP1 POP JUMP JUMPDEST PUSH1 0x0 PUSH2 0x1102 PUSH1 0xB DUP4 PUSH2 0x1328 JUMP JUMPDEST SWAP2 POP PUSH2 0x110D DUP3 PUSH2 0x163D JUMP JUMPDEST PUSH1 0x20 DUP3 ADD SWAP1 POP SWAP2 SWAP1 POP JUMP JUMPDEST PUSH1 0x0 PUSH2 0x1125 PUSH1 0x12 DUP4 PUSH2 0x1328 JUMP JUMPDEST SWAP2 POP PUSH2 0x1130 DUP3 PUSH2 0x1666 JUMP JUMPDEST PUSH1 0x20 DUP3 ADD SWAP1 POP SWAP2 SWAP1 POP JUMP JUMPDEST PUSH2 0x1144 DUP2 PUSH2 0x1401 JUMP JUMPDEST DUP3 MSTORE POP POP JUMP JUMPDEST PUSH1 0x0 PUSH2 0x1156 DUP3 DUP5 PUSH2 0xFC7 JUMP JUMPDEST SWAP2 POP DUP2 SWAP1 POP SWAP3 SWAP2 POP POP JUMP JUMPDEST PUSH1 0x0 PUSH1 0x20 DUP3 ADD SWAP1 POP PUSH2 0x1176 PUSH1 0x0 DUP4 ADD DUP5 PUSH2 0xF70 JUMP JUMPDEST SWAP3 SWAP2 POP POP JUMP JUMPDEST PUSH1 0x0 PUSH1 0x40 DUP3 ADD SWAP1 POP PUSH2 0x1191 PUSH1 0x0 DUP4 ADD DUP6 PUSH2 0xF70 JUMP JUMPDEST PUSH2 0x119E PUSH1 0x20 DUP4 ADD DUP5 PUSH2 0x113B JUMP JUMPDEST SWAP4 SWAP3 POP POP POP JUMP JUMPDEST PUSH1 0x0 PUSH1 0x80 DUP3 ADD SWAP1 POP PUSH2 0x11BA PUSH1 0x0 DUP4 ADD DUP8 PUSH2 0xF70 JUMP JUMPDEST PUSH2 0x11C7 PUSH1 0x20 DUP4 ADD DUP7 PUSH2 0x113B JUMP JUMPDEST DUP2 DUP2 SUB PUSH1 0x40 DUP4 ADD MSTORE PUSH2 0x11D9 DUP2 DUP6 PUSH2 0xF8E JUMP JUMPDEST SWAP1 POP PUSH2 0x11E8 PUSH1 0x60 DUP4 ADD DUP5 PUSH2 0xF7F JUMP JUMPDEST SWAP6 SWAP5 POP POP POP POP POP JUMP JUMPDEST PUSH1 0x0 PUSH1 0x20 DUP3 ADD SWAP1 POP DUP2 DUP2 SUB PUSH1 0x0 DUP4 ADD MSTORE PUSH2 0x120A DUP2 PUSH2 0x1046 JUMP JUMPDEST SWAP1 POP SWAP2 SWAP1 POP JUMP JUMPDEST PUSH1 0x0 PUSH1 0x20 DUP3 ADD SWAP1 POP DUP2 DUP2 SUB PUSH1 0x0 DUP4 ADD MSTORE PUSH2 0x122A DUP2 PUSH2 0x1069 JUMP JUMPDEST SWAP1 POP SWAP2 SWAP1 POP JUMP JUMPDEST PUSH1 0x0 PUSH1 0x20 DUP3 ADD SWAP1 POP DUP2 DUP2 SUB PUSH1 0x0 DUP4 ADD MSTORE PUSH2 0x124A DUP2 PUSH2 0x108C JUMP JUMPDEST SWAP1 POP SWAP2 SWAP1 POP JUMP JUMPDEST PUSH1 0x0 PUSH1 0x20 DUP3 ADD SWAP1 POP DUP2 DUP2 SUB PUSH1 0x0 DUP4 ADD MSTORE PUSH2 0x126A DUP2 PUSH2 0x10AF JUMP JUMPDEST SWAP1 POP SWAP2 SWAP1 POP JUMP JUMPDEST PUSH1 0x0 PUSH1 0x20 DUP3 ADD SWAP1 POP DUP2 DUP2 SUB PUSH1 0x0 DUP4 ADD MSTORE PUSH2 0x128A DUP2 PUSH2 0x10D2 JUMP JUMPDEST SWAP1 POP SWAP2 SWAP1 POP JUMP JUMPDEST PUSH1 0x0 PUSH1 0x20 DUP3 ADD SWAP1 POP DUP2 DUP2 SUB PUSH1 0x0 DUP4 ADD MSTORE PUSH2 0x12AA DUP2 PUSH2 0x10F5 JUMP JUMPDEST SWAP1 POP SWAP2 SWAP1 POP JUMP JUMPDEST PUSH1 0x0 PUSH1 0x20 DUP3 ADD SWAP1 POP DUP2 DUP2 SUB PUSH1 0x0 DUP4 ADD MSTORE PUSH2 0x12CA DUP2 PUSH2 0x1118 JUMP JUMPDEST SWAP1 POP SWAP2 SWAP1 POP JUMP JUMPDEST PUSH1 0x0 PUSH1 0x20 DUP3 ADD SWAP1 POP PUSH2 0x12E6 PUSH1 0x0 DUP4 ADD DUP5 PUSH2 0x113B JUMP JUMPDEST SWAP3 SWAP2 POP POP JUMP JUMPDEST PUSH1 0x0 DUP2 SWAP1 POP DUP2 PUSH1 0x0 MSTORE PUSH1 0x20 PUSH1 0x0 KECCAK256 SWAP1 POP SWAP2 SWAP1 POP JUMP JUMPDEST PUSH1 0x0 DUP2 MLOAD SWAP1 POP SWAP2 SWAP1 POP JUMP JUMPDEST PUSH1 0x0 DUP3 DUP3 MSTORE PUSH1 0x20 DUP3 ADD SWAP1 POP SWAP3 SWAP2 POP POP JUMP JUMPDEST PUSH1 0x0 DUP2 SWAP1 POP SWAP3 SWAP2 POP POP JUMP JUMPDEST PUSH1 0x0 DUP3 DUP3 MSTORE PUSH1 0x20 DUP3 ADD SWAP1 POP SWAP3 SWAP2 POP POP JUMP JUMPDEST PUSH1 0x0 PUSH2 0x1344 DUP3 PUSH2 0x1401 JUMP JUMPDEST SWAP2 POP PUSH2 0x134F DUP4 PUSH2 0x1401 JUMP JUMPDEST SWAP3 POP DUP3 PUSH32 0xFFFFFFFFFFFFFFFFFFFFFFFFFFFFFFFFFFFFFFFFFFFFFFFFFFFFFFFFFFFFFFFF SUB DUP3 GT ISZERO PUSH2 0x1384 JUMPI PUSH2 0x1383 PUSH2 0x14B9 JUMP JUMPDEST JUMPDEST DUP3 DUP3 ADD SWAP1 POP SWAP3 SWAP2 POP POP JUMP JUMPDEST PUSH1 0x0 PUSH2 0x139A DUP3 PUSH2 0x1401 JUMP JUMPDEST SWAP2 POP PUSH2 0x13A5 DUP4 PUSH2 0x1401 JUMP JUMPDEST SWAP3 POP DUP3 DUP3 LT ISZERO PUSH2 0x13B8 JUMPI PUSH2 0x13B7 PUSH2 0x14B9 JUMP JUMPDEST JUMPDEST DUP3 DUP3 SUB SWAP1 POP SWAP3 SWAP2 POP POP JUMP JUMPDEST PUSH1 0x0 PUSH2 0x13CE DUP3 PUSH2 0x13E1 JUMP JUMPDEST SWAP1 POP SWAP2 SWAP1 POP JUMP JUMPDEST PUSH1 0x0 DUP2 ISZERO ISZERO SWAP1 POP SWAP2 SWAP1 POP JUMP JUMPDEST PUSH1 0x0 PUSH20 0xFFFFFFFFFFFFFFFFFFFFFFFFFFFFFFFFFFFFFFFF DUP3 AND SWAP1 POP SWAP2 SWAP1 POP JUMP JUMPDEST PUSH1 0x0 DUP2 SWAP1 POP SWAP2 SWAP1 POP JUMP JUMPDEST PUSH1 0x0 JUMPDEST DUP4 DUP2 LT ISZERO PUSH2 0x1429 JUMPI DUP1 DUP3 ADD MLOAD DUP2 DUP5 ADD MSTORE PUSH1 0x20 DUP2 ADD SWAP1 POP PUSH2 0x140E JUMP JUMPDEST DUP4 DUP2 GT ISZERO PUSH2 0x1438 JUMPI PUSH1 0x0 DUP5 DUP5 ADD MSTORE JUMPDEST POP POP POP POP JUMP JUMPDEST PUSH1 0x0 PUSH1 0x2 DUP3 DIV SWAP1 POP PUSH1 0x1 DUP3 AND DUP1 PUSH2 0x1456 JUMPI PUSH1 0x7F DUP3 AND SWAP2 POP JUMPDEST PUSH1 0x20 DUP3 LT DUP2 EQ ISZERO PUSH2 0x146A JUMPI PUSH2 0x1469 PUSH2 0x14E8 JUMP JUMPDEST JUMPDEST POP SWAP2 SWAP1 POP JUMP JUMPDEST PUSH1 0x0 PUSH2 0x147B DUP3 PUSH2 0x1401 JUMP JUMPDEST SWAP2 POP PUSH32 0xFFFFFFFFFFFFFFFFFFFFFFFFFFFFFFFFFFFFFFFFFFFFFFFFFFFFFFFFFFFFFFFF DUP3 EQ ISZERO PUSH2 0x14AE JUMPI PUSH2 0x14AD PUSH2 0x14B9 JUMP JUMPDEST JUMPDEST PUSH1 0x1 DUP3 ADD SWAP1 POP SWAP2 SWAP1 POP JUMP JUMPDEST PUSH32 0x4E487B7100000000000000000000000000000000000000000000000000000000 PUSH1 0x0 MSTORE PUSH1 0x11 PUSH1 0x4 MSTORE PUSH1 0x24 PUSH1 0x0 REVERT JUMPDEST PUSH32 0x4E487B7100000000000000000000000000000000000000000000000000000000 PUSH1 0x0 MSTORE PUSH1 0x22 PUSH1 0x4 MSTORE PUSH1 0x24 PUSH1 0x0 REVERT JUMPDEST PUSH32 0x4E487B7100000000000000000000000000000000000000000000000000000000 PUSH1 0x0 MSTORE PUSH1 0x32 PUSH1 0x4 MSTORE PUSH1 0x24 PUSH1 0x0 REVERT JUMPDEST PUSH1 0x0 DUP1 REVERT JUMPDEST PUSH1 0x0 DUP1 REVERT JUMPDEST PUSH1 0x0 DUP1 REVERT JUMPDEST PUSH1 0x0 DUP1 REVERT JUMPDEST PUSH1 0x0 DUP1 REVERT JUMPDEST PUSH1 0x0 PUSH1 0x1F NOT PUSH1 0x1F DUP4 ADD AND SWAP1 POP SWAP2 SWAP1 POP JUMP JUMPDEST PUSH32 0x7478206E6F7420617070726F7665640000000000000000000000000000000000 PUSH1 0x0 DUP3 ADD MSTORE POP JUMP JUMPDEST PUSH32 0x617070726F76616C73203C207265717569726564000000000000000000000000 PUSH1 0x0 DUP3 ADD MSTORE POP JUMP JUMPDEST PUSH32 0x6F6E6C79206F776E65722063616E20646F2074686973206F7065726174696F6E PUSH1 0x0 DUP3 ADD MSTORE POP JUMP JUMPDEST PUSH32 0x747820616C726561647920617070726F76656400000000000000000000000000 PUSH1 0x0 DUP3 ADD MSTORE POP JUMP JUMPDEST PUSH32 0x7478206E6F742065786973747300000000000000000000000000000000000000 PUSH1 0x0 DUP3 ADD MSTORE POP JUMP JUMPDEST PUSH32 0x657863757465206661696C000000000000000000000000000000000000000000 PUSH1 0x0 DUP3 ADD MSTORE POP JUMP JUMPDEST PUSH32 0x747820616C726561647920657863757465640000000000000000000000000000 PUSH1 0x0 DUP3 ADD MSTORE POP JUMP JUMPDEST PUSH2 0x1698 DUP2 PUSH2 0x13C3 JUMP JUMPDEST DUP2 EQ PUSH2 0x16A3 JUMPI PUSH1 0x0 DUP1 REVERT JUMPDEST POP JUMP JUMPDEST PUSH2 0x16AF DUP2 PUSH2 0x1401 JUMP JUMPDEST DUP2 EQ PUSH2 0x16BA JUMPI PUSH1 0x0 DUP1 REVERT JUMPDEST POP JUMP INVALID LOG2 PUSH5 0x6970667358 0x22 SLT KECCAK256 0xAD 0xBA 0x5F PUSH30 0xE8869AEBFA1555642DBFFC67494E9C3C9EB1A5AD3F1BC07C129A62636473 PUSH16 0x6C634300080700330000000000000000 "
				},
				"gasEstimates": {
					"creation": {
						"codeDepositCost": "1175000",
						"executionCost": "infinite",
						"totalCost": "infinite"
					},
					"external": {
						"approve(uint256)": "infinite",
						"excute(uint256)": "infinite",
						"owners(uint256)": "4957",
						"required()": "2495",
						"revoke(uint256)": "infinite",
						"submit(address,uint256,bytes)": "infinite",
						"transactions(uint256)": "infinite"
					},
					"internal": {
						"_getApprovalCount(uint256)": "infinite"
					}
				},
				"methodIdentifiers": {
					"approve(uint256)": "b759f954",
					"excute(uint256)": "a96c065b",
					"owners(uint256)": "025e7c27",
					"required()": "dc8452cd",
					"revoke(uint256)": "20c5429b",
					"submit(address,uint256,bytes)": "14de327f",
					"transactions(uint256)": "9ace38c2"
				}
			},
			"storageLayout": {
				"storage": [
					{
						"astId": 32,
						"contract": "contracts/MultiSigWallet1.sol:MultiSigWallet1",
						"label": "owners",
						"offset": 0,
						"slot": "0",
						"type": "t_array(t_address)dyn_storage"
					},
					{
						"astId": 36,
						"contract": "contracts/MultiSigWallet1.sol:MultiSigWallet1",
						"label": "ownerOf",
						"offset": 0,
						"slot": "1",
						"type": "t_mapping(t_address,t_bool)"
					},
					{
						"astId": 40,
						"contract": "contracts/MultiSigWallet1.sol:MultiSigWallet1",
						"label": "transactions",
						"offset": 0,
						"slot": "2",
						"type": "t_array(t_struct(Transaction)57_storage)dyn_storage"
					},
					{
						"astId": 42,
						"contract": "contracts/MultiSigWallet1.sol:MultiSigWallet1",
						"label": "required",
						"offset": 0,
						"slot": "3",
						"type": "t_uint256"
					},
					{
						"astId": 48,
						"contract": "contracts/MultiSigWallet1.sol:MultiSigWallet1",
						"label": "approved",
						"offset": 0,
						"slot": "4",
						"type": "t_mapping(t_uint256,t_mapping(t_address,t_bool))"
					}
				],
				"types": {
					"t_address": {
						"encoding": "inplace",
						"label": "address",
						"numberOfBytes": "20"
					},
					"t_array(t_address)dyn_storage": {
						"base": "t_address",
						"encoding": "dynamic_array",
						"label": "address[]",
						"numberOfBytes": "32"
					},
					"t_array(t_struct(Transaction)57_storage)dyn_storage": {
						"base": "t_struct(Transaction)57_storage",
						"encoding": "dynamic_array",
						"label": "struct MultiSigWallet1.Transaction[]",
						"numberOfBytes": "32"
					},
					"t_bool": {
						"encoding": "inplace",
						"label": "bool",
						"numberOfBytes": "1"
					},
					"t_bytes_storage": {
						"encoding": "bytes",
						"label": "bytes",
						"numberOfBytes": "32"
					},
					"t_mapping(t_address,t_bool)": {
						"encoding": "mapping",
						"key": "t_address",
						"label": "mapping(address => bool)",
						"numberOfBytes": "32",
						"value": "t_bool"
					},
					"t_mapping(t_uint256,t_mapping(t_address,t_bool))": {
						"encoding": "mapping",
						"key": "t_uint256",
						"label": "mapping(uint256 => mapping(address => bool))",
						"numberOfBytes": "32",
						"value": "t_mapping(t_address,t_bool)"
					},
					"t_struct(Transaction)57_storage": {
						"encoding": "inplace",
						"label": "struct MultiSigWallet1.Transaction",
						"members": [
							{
								"astId": 50,
								"contract": "contracts/MultiSigWallet1.sol:MultiSigWallet1",
								"label": "to",
								"offset": 0,
								"slot": "0",
								"type": "t_address"
							},
							{
								"astId": 52,
								"contract": "contracts/MultiSigWallet1.sol:MultiSigWallet1",
								"label": "value",
								"offset": 0,
								"slot": "1",
								"type": "t_uint256"
							},
							{
								"astId": 54,
								"contract": "contracts/MultiSigWallet1.sol:MultiSigWallet1",
								"label": "data",
								"offset": 0,
								"slot": "2",
								"type": "t_bytes_storage"
							},
							{
								"astId": 56,
								"contract": "contracts/MultiSigWallet1.sol:MultiSigWallet1",
								"label": "excuted",
								"offset": 0,
								"slot": "3",
								"type": "t_bool"
							}
						],
						"numberOfBytes": "128"
					},
					"t_uint256": {
						"encoding": "inplace",
						"label": "uint256",
						"numberOfBytes": "32"
					}
				}
			},
			"userdoc": {
				"kind": "user",
				"methods": {},
				"version": 1
			}
		}
	}
}