{
	"contracts/MyNFT.sol": {
		"MyNFT": {
			"abi": [
				{
					"anonymous": false,
					"inputs": [
						{
							"indexed": true,
							"internalType": "address",
							"name": "owner",
							"type": "address"
						},
						{
							"indexed": true,
							"internalType": "address",
							"name": "approved",
							"type": "address"
						},
						{
							"indexed": true,
							"internalType": "uint256",
							"name": "tokenId",
							"type": "uint256"
						}
					],
					"name": "Approval",
					"type": "event"
				},
				{
					"anonymous": false,
					"inputs": [
						{
							"indexed": true,
							"internalType": "address",
							"name": "owner",
							"type": "address"
						},
						{
							"indexed": true,
							"internalType": "address",
							"name": "operator",
							"type": "address"
						},
						{
							"indexed": false,
							"internalType": "bool",
							"name": "approved",
							"type": "bool"
						}
					],
					"name": "ApprovalForAll",
					"type": "event"
				},
				{
					"anonymous": false,
					"inputs": [
						{
							"indexed": true,
							"internalType": "address",
							"name": "from",
							"type": "address"
						},
						{
							"indexed": true,
							"internalType": "address",
							"name": "to",
							"type": "address"
						},
						{
							"indexed": true,
							"internalType": "uint256",
							"name": "tokenId",
							"type": "uint256"
						}
					],
					"name": "Transfer",
					"type": "event"
				},
				{
					"inputs": [
						{
							"internalType": "address",
							"name": "to",
							"type": "address"
						},
						{
							"internalType": "uint256",
							"name": "tokenId",
							"type": "uint256"
						}
					],
					"name": "approve",
					"outputs": [],
					"stateMutability": "nonpayable",
					"type": "function"
				},
				{
					"inputs": [
						{
							"internalType": "address",
							"name": "owner",
							"type": "address"
						}
					],
					"name": "balanceOf",
					"outputs": [
						{
							"internalType": "uint256",
							"name": "",
							"type": "uint256"
						}
					],
					"stateMutability": "view",
					"type": "function"
				},
				{
					"inputs": [
						{
							"internalType": "uint256",
							"name": "tokenId",
							"type": "uint256"
						}
					],
					"name": "burn",
					"outputs": [],
					"stateMutability": "nonpayable",
					"type": "function"
				},
				{
					"inputs": [
						{
							"internalType": "uint256",
							"name": "tokenId",
							"type": "uint256"
						}
					],
					"name": "getApproved",
					"outputs": [
						{
							"internalType": "address",
							"name": "",
							"type": "address"
						}
					],
					"stateMutability": "view",
					"type": "function"
				},
				{
					"inputs": [
						{
							"internalType": "address",
							"name": "owner",
							"type": "address"
						},
						{
							"internalType": "address",
							"name": "operator",
							"type": "address"
						}
					],
					"name": "isApprovedForAll",
					"outputs": [
						{
							"internalType": "bool",
							"name": "",
							"type": "bool"
						}
					],
					"stateMutability": "view",
					"type": "function"
				},
				{
					"inputs": [
						{
							"internalType": "address",
							"name": "to",
							"type": "address"
						},
						{
							"internalType": "uint256",
							"name": "tokenId",
							"type": "uint256"
						}
					],
					"name": "mint",
					"outputs": [],
					"stateMutability": "nonpayable",
					"type": "function"
				},
				{
					"inputs": [
						{
							"internalType": "uint256",
							"name": "tokenId",
							"type": "uint256"
						}
					],
					"name": "ownerOf",
					"outputs": [
						{
							"internalType": "address",
							"name": "",
							"type": "address"
						}
					],
					"stateMutability": "view",
					"type": "function"
				},
				{
					"inputs": [
						{
							"internalType": "address",
							"name": "from",
							"type": "address"
						},
						{
							"internalType": "address",
							"name": "to",
							"type": "address"
						},
						{
							"internalType": "uint256",
							"name": "tokenId",
							"type": "uint256"
						}
					],
					"name": "safeTransferFrom",
					"outputs": [],
					"stateMutability": "nonpayable",
					"type": "function"
				},
				{
					"inputs": [
						{
							"internalType": "address",
							"name": "from",
							"type": "address"
						},
						{
							"internalType": "address",
							"name": "to",
							"type": "address"
						},
						{
							"internalType": "uint256",
							"name": "tokenId",
							"type": "uint256"
						},
						{
							"internalType": "bytes",
							"name": "_data",
							"type": "bytes"
						}
					],
					"name": "safeTransferFrom",
					"outputs": [],
					"stateMutability": "nonpayable",
					"type": "function"
				},
				{
					"inputs": [
						{
							"internalType": "address",
							"name": "operator",
							"type": "address"
						},
						{
							"internalType": "bool",
							"name": "approved",
							"type": "bool"
						}
					],
					"name": "setApprovalForAll",
					"outputs": [],
					"stateMutability": "nonpayable",
					"type": "function"
				},
				{
					"inputs": [
						{
							"internalType": "bytes4",
							"name": "interfaceId",
							"type": "bytes4"
						}
					],
					"name": "supportsInterface",
					"outputs": [
						{
							"internalType": "bool",
							"name": "",
							"type": "bool"
						}
					],
					"stateMutability": "view",
					"type": "function"
				},
				{
					"inputs": [
						{
							"internalType": "address",
							"name": "from",
							"type": "address"
						},
						{
							"internalType": "address",
							"name": "to",
							"type": "address"
						},
						{
							"internalType": "uint256",
							"name": "tokenId",
							"type": "uint256"
						}
					],
					"name": "transferFrom",
					"outputs": [],
					"stateMutability": "nonpayable",
					"type": "function"
				}
			],
			"devdoc": {
				"kind": "dev",
				"methods": {},
				"version": 1
			},
			"evm": {
				"assembly": "    /* \"contracts/MyNFT.sol\":9661:9872  contract MyNFT is ERC721 {\r... */\n  mstore(0x40, 0x80)\n  callvalue\n  dup1\n  iszero\n  tag_1\n  jumpi\n  0x00\n  dup1\n  revert\ntag_1:\n  pop\n  dataSize(sub_0)\n  dup1\n  dataOffset(sub_0)\n  0x00\n  codecopy\n  0x00\n  return\nstop\n\nsub_0: assembly {\n        /* \"contracts/MyNFT.sol\":9661:9872  contract MyNFT is ERC721 {\r... */\n      mstore(0x40, 0x80)\n      callvalue\n      dup1\n      iszero\n      tag_1\n      jumpi\n      0x00\n      dup1\n      revert\n    tag_1:\n      pop\n      jumpi(tag_2, lt(calldatasize, 0x04))\n      shr(0xe0, calldataload(0x00))\n      dup1\n      0x42966c68\n      gt\n      tag_15\n      jumpi\n      dup1\n      0x42966c68\n      eq\n      tag_9\n      jumpi\n      dup1\n      0x6352211e\n      eq\n      tag_10\n      jumpi\n      dup1\n      0x70a08231\n      eq\n      tag_11\n      jumpi\n      dup1\n      0xa22cb465\n      eq\n      tag_12\n      jumpi\n      dup1\n      0xb88d4fde\n      eq\n      tag_13\n      jumpi\n      dup1\n      0xe985e9c5\n      eq\n      tag_14\n      jumpi\n      jump(tag_2)\n    tag_15:\n      dup1\n      0x01ffc9a7\n      eq\n      tag_3\n      jumpi\n      dup1\n      0x081812fc\n      eq\n      tag_4\n      jumpi\n      dup1\n      0x095ea7b3\n      eq\n      tag_5\n      jumpi\n      dup1\n      0x23b872dd\n      eq\n      tag_6\n      jumpi\n      dup1\n      0x40c10f19\n      eq\n      tag_7\n      jumpi\n      dup1\n      0x42842e0e\n      eq\n      tag_8\n      jumpi\n    tag_2:\n      0x00\n      dup1\n      revert\n        /* \"contracts/MyNFT.sol\":3188:3389  function supportsInterface(bytes4 interfaceId) public view virtual override returns (bool) {\r... */\n    tag_3:\n      tag_16\n      0x04\n      dup1\n      calldatasize\n      sub\n      dup2\n      add\n      swap1\n      tag_17\n      swap2\n      swap1\n      tag_18\n      jump\t// in\n    tag_17:\n      tag_19\n      jump\t// in\n    tag_16:\n      mload(0x40)\n      tag_20\n      swap2\n      swap1\n      tag_21\n      jump\t// in\n    tag_20:\n      mload(0x40)\n      dup1\n      swap2\n      sub\n      swap1\n      return\n        /* \"contracts/MyNFT.sol\":5038:5257  function getApproved(uint256 tokenId) public view virtual override returns (address) {\r... */\n    tag_4:\n      tag_22\n      0x04\n      dup1\n      calldatasize\n      sub\n      dup2\n      add\n      swap1\n      tag_23\n      swap2\n      swap1\n      tag_24\n      jump\t// in\n    tag_23:\n      tag_25\n      jump\t// in\n    tag_22:\n      mload(0x40)\n      tag_26\n      swap2\n      swap1\n      tag_27\n      jump\t// in\n    tag_26:\n      mload(0x40)\n      dup1\n      swap2\n      sub\n      swap1\n      return\n        /* \"contracts/MyNFT.sol\":4568:4970  function approve(address to, uint256 tokenId) public virtual override {\r... */\n    tag_5:\n      tag_28\n      0x04\n      dup1\n      calldatasize\n      sub\n      dup2\n      add\n      swap1\n      tag_29\n      swap2\n      swap1\n      tag_30\n      jump\t// in\n    tag_29:\n      tag_31\n      jump\t// in\n    tag_28:\n      stop\n        /* \"contracts/MyNFT.sol\":6082:6332  function transferFrom(address from, address to, uint256 tokenId) public virtual override {\r... */\n    tag_6:\n      tag_32\n      0x04\n      dup1\n      calldatasize\n      sub\n      dup2\n      add\n      swap1\n      tag_33\n      swap2\n      swap1\n      tag_34\n      jump\t// in\n    tag_33:\n      tag_35\n      jump\t// in\n    tag_32:\n      stop\n        /* \"contracts/MyNFT.sol\":9693:9782  function mint(address to, uint256 tokenId) external {\r... */\n    tag_7:\n      tag_36\n      0x04\n      dup1\n      calldatasize\n      sub\n      dup2\n      add\n      swap1\n      tag_37\n      swap2\n      swap1\n      tag_30\n      jump\t// in\n    tag_37:\n      tag_38\n      jump\t// in\n    tag_36:\n      stop\n        /* \"contracts/MyNFT.sol\":6442:6593  function safeTransferFrom(address from, address to, uint256 tokenId) public virtual override {\r... */\n    tag_8:\n      tag_39\n      0x04\n      dup1\n      calldatasize\n      sub\n      dup2\n      add\n      swap1\n      tag_40\n      swap2\n      swap1\n      tag_34\n      jump\t// in\n    tag_40:\n      tag_41\n      jump\t// in\n    tag_39:\n      stop\n        /* \"contracts/MyNFT.sol\":9794:9867  function burn(uint256 tokenId) external {\r... */\n    tag_9:\n      tag_42\n      0x04\n      dup1\n      calldatasize\n      sub\n      dup2\n      add\n      swap1\n      tag_43\n      swap2\n      swap1\n      tag_24\n      jump\t// in\n    tag_43:\n      tag_44\n      jump\t// in\n    tag_42:\n      stop\n        /* \"contracts/MyNFT.sol\":3721:3960  function ownerOf(uint256 tokenId) public view virtual override returns (address) {\r... */\n    tag_10:\n      tag_45\n      0x04\n      dup1\n      calldatasize\n      sub\n      dup2\n      add\n      swap1\n      tag_46\n      swap2\n      swap1\n      tag_24\n      jump\t// in\n    tag_46:\n      tag_47\n      jump\t// in\n    tag_45:\n      mload(0x40)\n      tag_48\n      swap2\n      swap1\n      tag_27\n      jump\t// in\n    tag_48:\n      mload(0x40)\n      dup1\n      swap2\n      sub\n      swap1\n      return\n        /* \"contracts/MyNFT.sol\":3450:3658  function balanceOf(address owner) public view virtual override returns (uint256) {\r... */\n    tag_11:\n      tag_49\n      0x04\n      dup1\n      calldatasize\n      sub\n      dup2\n      add\n      swap1\n      tag_50\n      swap2\n      swap1\n      tag_51\n      jump\t// in\n    tag_50:\n      tag_52\n      jump\t// in\n    tag_49:\n      mload(0x40)\n      tag_53\n      swap2\n      swap1\n      tag_54\n      jump\t// in\n    tag_53:\n      mload(0x40)\n      dup1\n      swap2\n      sub\n      swap1\n      return\n        /* \"contracts/MyNFT.sol\":5388:5675  function setApprovalForAll(address operator, bool approved) public virtual override {\r... */\n    tag_12:\n      tag_55\n      0x04\n      dup1\n      calldatasize\n      sub\n      dup2\n      add\n      swap1\n      tag_56\n      swap2\n      swap1\n      tag_57\n      jump\t// in\n    tag_56:\n      tag_58\n      jump\t// in\n    tag_55:\n      stop\n        /* \"contracts/MyNFT.sol\":6605:6890  function safeTransferFrom(address from, address to, uint256 tokenId, bytes memory _data) public virtual override {\r... */\n    tag_13:\n      tag_59\n      0x04\n      dup1\n      calldatasize\n      sub\n      dup2\n      add\n      swap1\n      tag_60\n      swap2\n      swap1\n      tag_61\n      jump\t// in\n    tag_60:\n      tag_62\n      jump\t// in\n    tag_59:\n      stop\n        /* \"contracts/MyNFT.sol\":4025:4189  function isApprovedForAll(address owner, address operator) public view virtual override returns (bool) {\r... */\n    tag_14:\n      tag_63\n      0x04\n      dup1\n      calldatasize\n      sub\n      dup2\n      add\n      swap1\n      tag_64\n      swap2\n      swap1\n      tag_65\n      jump\t// in\n    tag_64:\n      tag_66\n      jump\t// in\n    tag_63:\n      mload(0x40)\n      tag_67\n      swap2\n      swap1\n      tag_21\n      jump\t// in\n    tag_67:\n      mload(0x40)\n      dup1\n      swap2\n      sub\n      swap1\n      return\n        /* \"contracts/MyNFT.sol\":3188:3389  function supportsInterface(bytes4 interfaceId) public view virtual override returns (bool) {\r... */\n    tag_19:\n        /* \"contracts/MyNFT.sol\":3273:3277  bool */\n      0x00\n        /* \"contracts/MyNFT.sol\":3312:3337  type(IERC721).interfaceId */\n      0x80ac58cd00000000000000000000000000000000000000000000000000000000\n        /* \"contracts/MyNFT.sol\":3297:3337  interfaceId == type(IERC721).interfaceId */\n      not(0xffffffffffffffffffffffffffffffffffffffffffffffffffffffff)\n      and\n        /* \"contracts/MyNFT.sol\":3297:3308  interfaceId */\n      dup3\n        /* \"contracts/MyNFT.sol\":3297:3337  interfaceId == type(IERC721).interfaceId */\n      not(0xffffffffffffffffffffffffffffffffffffffffffffffffffffffff)\n      and\n      eq\n        /* \"contracts/MyNFT.sol\":3297:3381  interfaceId == type(IERC721).interfaceId || interfaceId == type(IERC165).interfaceId */\n      dup1\n      tag_69\n      jumpi\n      pop\n        /* \"contracts/MyNFT.sol\":3356:3381  type(IERC165).interfaceId */\n      0x01ffc9a700000000000000000000000000000000000000000000000000000000\n        /* \"contracts/MyNFT.sol\":3341:3381  interfaceId == type(IERC165).interfaceId */\n      not(0xffffffffffffffffffffffffffffffffffffffffffffffffffffffff)\n      and\n        /* \"contracts/MyNFT.sol\":3341:3352  interfaceId */\n      dup3\n        /* \"contracts/MyNFT.sol\":3341:3381  interfaceId == type(IERC165).interfaceId */\n      not(0xffffffffffffffffffffffffffffffffffffffffffffffffffffffff)\n      and\n      eq\n        /* \"contracts/MyNFT.sol\":3297:3381  interfaceId == type(IERC721).interfaceId || interfaceId == type(IERC165).interfaceId */\n    tag_69:\n        /* \"contracts/MyNFT.sol\":3290:3381  return interfaceId == type(IERC721).interfaceId || interfaceId == type(IERC165).interfaceId */\n      swap1\n      pop\n        /* \"contracts/MyNFT.sol\":3188:3389  function supportsInterface(bytes4 interfaceId) public view virtual override returns (bool) {\r... */\n      swap2\n      swap1\n      pop\n      jump\t// out\n        /* \"contracts/MyNFT.sol\":5038:5257  function getApproved(uint256 tokenId) public view virtual override returns (address) {\r... */\n    tag_25:\n        /* \"contracts/MyNFT.sol\":5114:5121  address */\n      0x00\n        /* \"contracts/MyNFT.sol\":5142:5158  _exists(tokenId) */\n      tag_71\n        /* \"contracts/MyNFT.sol\":5150:5157  tokenId */\n      dup3\n        /* \"contracts/MyNFT.sol\":5142:5149  _exists */\n      tag_72\n        /* \"contracts/MyNFT.sol\":5142:5158  _exists(tokenId) */\n      jump\t// in\n    tag_71:\n        /* \"contracts/MyNFT.sol\":5134:5207  require(_exists(tokenId), \"ERC721: approved query for nonexistent token\") */\n      tag_73\n      jumpi\n      mload(0x40)\n      0x08c379a000000000000000000000000000000000000000000000000000000000\n      dup2\n      mstore\n      0x04\n      add\n      tag_74\n      swap1\n      tag_75\n      jump\t// in\n    tag_74:\n      mload(0x40)\n      dup1\n      swap2\n      sub\n      swap1\n      revert\n    tag_73:\n        /* \"contracts/MyNFT.sol\":5225:5240  _tokenApprovals */\n      0x02\n        /* \"contracts/MyNFT.sol\":5225:5249  _tokenApprovals[tokenId] */\n      0x00\n        /* \"contracts/MyNFT.sol\":5241:5248  tokenId */\n      dup4\n        /* \"contracts/MyNFT.sol\":5225:5249  _tokenApprovals[tokenId] */\n      dup2\n      mstore\n      0x20\n      add\n      swap1\n      dup2\n      mstore\n      0x20\n      add\n      0x00\n      keccak256\n      0x00\n      swap1\n      sload\n      swap1\n      0x0100\n      exp\n      swap1\n      div\n      0xffffffffffffffffffffffffffffffffffffffff\n      and\n        /* \"contracts/MyNFT.sol\":5218:5249  return _tokenApprovals[tokenId] */\n      swap1\n      pop\n        /* \"contracts/MyNFT.sol\":5038:5257  function getApproved(uint256 tokenId) public view virtual override returns (address) {\r... */\n      swap2\n      swap1\n      pop\n      jump\t// out\n        /* \"contracts/MyNFT.sol\":4568:4970  function approve(address to, uint256 tokenId) public virtual override {\r... */\n    tag_31:\n        /* \"contracts/MyNFT.sol\":4651:4664  address owner */\n      0x00\n        /* \"contracts/MyNFT.sol\":4667:4683  ownerOf(tokenId) */\n      tag_77\n        /* \"contracts/MyNFT.sol\":4675:4682  tokenId */\n      dup3\n        /* \"contracts/MyNFT.sol\":4667:4674  ownerOf */\n      tag_47\n        /* \"contracts/MyNFT.sol\":4667:4683  ownerOf(tokenId) */\n      jump\t// in\n    tag_77:\n        /* \"contracts/MyNFT.sol\":4651:4683  address owner = ownerOf(tokenId) */\n      swap1\n      pop\n        /* \"contracts/MyNFT.sol\":4708:4713  owner */\n      dup1\n        /* \"contracts/MyNFT.sol\":4702:4713  to != owner */\n      0xffffffffffffffffffffffffffffffffffffffff\n      and\n        /* \"contracts/MyNFT.sol\":4702:4704  to */\n      dup4\n        /* \"contracts/MyNFT.sol\":4702:4713  to != owner */\n      0xffffffffffffffffffffffffffffffffffffffff\n      and\n      eq\n      iszero\n        /* \"contracts/MyNFT.sol\":4694:4751  require(to != owner, \"ERC721: approval to current owner\") */\n      tag_78\n      jumpi\n      mload(0x40)\n      0x08c379a000000000000000000000000000000000000000000000000000000000\n      dup2\n      mstore\n      0x04\n      add\n      tag_79\n      swap1\n      tag_80\n      jump\t// in\n    tag_79:\n      mload(0x40)\n      dup1\n      swap2\n      sub\n      swap1\n      revert\n    tag_78:\n        /* \"contracts/MyNFT.sol\":4798:4803  owner */\n      dup1\n        /* \"contracts/MyNFT.sol\":4784:4803  msg.sender == owner */\n      0xffffffffffffffffffffffffffffffffffffffff\n      and\n        /* \"contracts/MyNFT.sol\":4784:4794  msg.sender */\n      caller\n        /* \"contracts/MyNFT.sol\":4784:4803  msg.sender == owner */\n      0xffffffffffffffffffffffffffffffffffffffff\n      and\n      eq\n        /* \"contracts/MyNFT.sol\":4784:4842  msg.sender == owner || isApprovedForAll(owner, msg.sender) */\n      dup1\n      tag_81\n      jumpi\n      pop\n        /* \"contracts/MyNFT.sol\":4807:4842  isApprovedForAll(owner, msg.sender) */\n      tag_82\n        /* \"contracts/MyNFT.sol\":4824:4829  owner */\n      dup2\n        /* \"contracts/MyNFT.sol\":4831:4841  msg.sender */\n      caller\n        /* \"contracts/MyNFT.sol\":4807:4823  isApprovedForAll */\n      tag_66\n        /* \"contracts/MyNFT.sol\":4807:4842  isApprovedForAll(owner, msg.sender) */\n      jump\t// in\n    tag_82:\n        /* \"contracts/MyNFT.sol\":4784:4842  msg.sender == owner || isApprovedForAll(owner, msg.sender) */\n    tag_81:\n        /* \"contracts/MyNFT.sol\":4762:4926  require(\r... */\n      tag_83\n      jumpi\n      mload(0x40)\n      0x08c379a000000000000000000000000000000000000000000000000000000000\n      dup2\n      mstore\n      0x04\n      add\n      tag_84\n      swap1\n      tag_85\n      jump\t// in\n    tag_84:\n      mload(0x40)\n      dup1\n      swap2\n      sub\n      swap1\n      revert\n    tag_83:\n        /* \"contracts/MyNFT.sol\":4939:4960  _approve(to, tokenId) */\n      tag_86\n        /* \"contracts/MyNFT.sol\":4948:4950  to */\n      dup4\n        /* \"contracts/MyNFT.sol\":4952:4959  tokenId */\n      dup4\n        /* \"contracts/MyNFT.sol\":4939:4947  _approve */\n      tag_87\n        /* \"contracts/MyNFT.sol\":4939:4960  _approve(to, tokenId) */\n      jump\t// in\n    tag_86:\n        /* \"contracts/MyNFT.sol\":4638:4970  {\r... */\n      pop\n        /* \"contracts/MyNFT.sol\":4568:4970  function approve(address to, uint256 tokenId) public virtual override {\r... */\n      pop\n      pop\n      jump\t// out\n        /* \"contracts/MyNFT.sol\":6082:6332  function transferFrom(address from, address to, uint256 tokenId) public virtual override {\r... */\n    tag_35:\n        /* \"contracts/MyNFT.sol\":6190:6229  _isApprovedOrOwner(msg.sender, tokenId) */\n      tag_89\n        /* \"contracts/MyNFT.sol\":6209:6219  msg.sender */\n      caller\n        /* \"contracts/MyNFT.sol\":6221:6228  tokenId */\n      dup3\n        /* \"contracts/MyNFT.sol\":6190:6208  _isApprovedOrOwner */\n      tag_90\n        /* \"contracts/MyNFT.sol\":6190:6229  _isApprovedOrOwner(msg.sender, tokenId) */\n      jump\t// in\n    tag_89:\n        /* \"contracts/MyNFT.sol\":6182:6283  require(_isApprovedOrOwner(msg.sender, tokenId), \"ERC721: transfer caller is not owner nor approved\") */\n      tag_91\n      jumpi\n      mload(0x40)\n      0x08c379a000000000000000000000000000000000000000000000000000000000\n      dup2\n      mstore\n      0x04\n      add\n      tag_92\n      swap1\n      tag_93\n      jump\t// in\n    tag_92:\n      mload(0x40)\n      dup1\n      swap2\n      sub\n      swap1\n      revert\n    tag_91:\n        /* \"contracts/MyNFT.sol\":6294:6322  _transfer(from, to, tokenId) */\n      tag_94\n        /* \"contracts/MyNFT.sol\":6304:6308  from */\n      dup4\n        /* \"contracts/MyNFT.sol\":6310:6312  to */\n      dup4\n        /* \"contracts/MyNFT.sol\":6314:6321  tokenId */\n      dup4\n        /* \"contracts/MyNFT.sol\":6294:6303  _transfer */\n      tag_95\n        /* \"contracts/MyNFT.sol\":6294:6322  _transfer(from, to, tokenId) */\n      jump\t// in\n    tag_94:\n        /* \"contracts/MyNFT.sol\":6082:6332  function transferFrom(address from, address to, uint256 tokenId) public virtual override {\r... */\n      pop\n      pop\n      pop\n      jump\t// out\n        /* \"contracts/MyNFT.sol\":9693:9782  function mint(address to, uint256 tokenId) external {\r... */\n    tag_38:\n        /* \"contracts/MyNFT.sol\":9756:9774  _mint(to, tokenId) */\n      tag_97\n        /* \"contracts/MyNFT.sol\":9762:9764  to */\n      dup3\n        /* \"contracts/MyNFT.sol\":9766:9773  tokenId */\n      dup3\n        /* \"contracts/MyNFT.sol\":9756:9761  _mint */\n      tag_98\n        /* \"contracts/MyNFT.sol\":9756:9774  _mint(to, tokenId) */\n      jump\t// in\n    tag_97:\n        /* \"contracts/MyNFT.sol\":9693:9782  function mint(address to, uint256 tokenId) external {\r... */\n      pop\n      pop\n      jump\t// out\n        /* \"contracts/MyNFT.sol\":6442:6593  function safeTransferFrom(address from, address to, uint256 tokenId) public virtual override {\r... */\n    tag_41:\n        /* \"contracts/MyNFT.sol\":6546:6585  safeTransferFrom(from, to, tokenId, \"\") */\n      tag_100\n        /* \"contracts/MyNFT.sol\":6563:6567  from */\n      dup4\n        /* \"contracts/MyNFT.sol\":6569:6571  to */\n      dup4\n        /* \"contracts/MyNFT.sol\":6573:6580  tokenId */\n      dup4\n        /* \"contracts/MyNFT.sol\":6546:6585  safeTransferFrom(from, to, tokenId, \"\") */\n      mload(0x40)\n      dup1\n      0x20\n      add\n      0x40\n      mstore\n      dup1\n      0x00\n      dup2\n      mstore\n      pop\n        /* \"contracts/MyNFT.sol\":6546:6562  safeTransferFrom */\n      tag_62\n        /* \"contracts/MyNFT.sol\":6546:6585  safeTransferFrom(from, to, tokenId, \"\") */\n      jump\t// in\n    tag_100:\n        /* \"contracts/MyNFT.sol\":6442:6593  function safeTransferFrom(address from, address to, uint256 tokenId) public virtual override {\r... */\n      pop\n      pop\n      pop\n      jump\t// out\n        /* \"contracts/MyNFT.sol\":9794:9867  function burn(uint256 tokenId) external {\r... */\n    tag_44:\n        /* \"contracts/MyNFT.sol\":9845:9859  _burn(tokenId) */\n      tag_102\n        /* \"contracts/MyNFT.sol\":9851:9858  tokenId */\n      dup2\n        /* \"contracts/MyNFT.sol\":9845:9850  _burn */\n      tag_103\n        /* \"contracts/MyNFT.sol\":9845:9859  _burn(tokenId) */\n      jump\t// in\n    tag_102:\n        /* \"contracts/MyNFT.sol\":9794:9867  function burn(uint256 tokenId) external {\r... */\n      pop\n      jump\t// out\n        /* \"contracts/MyNFT.sol\":3721:3960  function ownerOf(uint256 tokenId) public view virtual override returns (address) {\r... */\n    tag_47:\n        /* \"contracts/MyNFT.sol\":3793:3800  address */\n      0x00\n        /* \"contracts/MyNFT.sol\":3813:3826  address owner */\n      dup1\n        /* \"contracts/MyNFT.sol\":3829:3836  _owners */\n      0x00\n        /* \"contracts/MyNFT.sol\":3829:3845  _owners[tokenId] */\n      dup1\n        /* \"contracts/MyNFT.sol\":3837:3844  tokenId */\n      dup5\n        /* \"contracts/MyNFT.sol\":3829:3845  _owners[tokenId] */\n      dup2\n      mstore\n      0x20\n      add\n      swap1\n      dup2\n      mstore\n      0x20\n      add\n      0x00\n      keccak256\n      0x00\n      swap1\n      sload\n      swap1\n      0x0100\n      exp\n      swap1\n      div\n      0xffffffffffffffffffffffffffffffffffffffff\n      and\n        /* \"contracts/MyNFT.sol\":3813:3845  address owner = _owners[tokenId] */\n      swap1\n      pop\n        /* \"contracts/MyNFT.sol\":3881:3882  0 */\n      0x00\n        /* \"contracts/MyNFT.sol\":3864:3883  owner != address(0) */\n      0xffffffffffffffffffffffffffffffffffffffff\n      and\n        /* \"contracts/MyNFT.sol\":3864:3869  owner */\n      dup2\n        /* \"contracts/MyNFT.sol\":3864:3883  owner != address(0) */\n      0xffffffffffffffffffffffffffffffffffffffff\n      and\n      eq\n      iszero\n        /* \"contracts/MyNFT.sol\":3856:3929  require(owner != address(0), \"ERC721: owner query for nonexistent token\") */\n      tag_105\n      jumpi\n      mload(0x40)\n      0x08c379a000000000000000000000000000000000000000000000000000000000\n      dup2\n      mstore\n      0x04\n      add\n      tag_106\n      swap1\n      tag_107\n      jump\t// in\n    tag_106:\n      mload(0x40)\n      dup1\n      swap2\n      sub\n      swap1\n      revert\n    tag_105:\n        /* \"contracts/MyNFT.sol\":3947:3952  owner */\n      dup1\n        /* \"contracts/MyNFT.sol\":3940:3952  return owner */\n      swap2\n      pop\n      pop\n        /* \"contracts/MyNFT.sol\":3721:3960  function ownerOf(uint256 tokenId) public view virtual override returns (address) {\r... */\n      swap2\n      swap1\n      pop\n      jump\t// out\n        /* \"contracts/MyNFT.sol\":3450:3658  function balanceOf(address owner) public view virtual override returns (uint256) {\r... */\n    tag_52:\n        /* \"contracts/MyNFT.sol\":3522:3529  uint256 */\n      0x00\n        /* \"contracts/MyNFT.sol\":3567:3568  0 */\n      dup1\n        /* \"contracts/MyNFT.sol\":3550:3569  owner != address(0) */\n      0xffffffffffffffffffffffffffffffffffffffff\n      and\n        /* \"contracts/MyNFT.sol\":3550:3555  owner */\n      dup3\n        /* \"contracts/MyNFT.sol\":3550:3569  owner != address(0) */\n      0xffffffffffffffffffffffffffffffffffffffff\n      and\n      eq\n      iszero\n        /* \"contracts/MyNFT.sol\":3542:3616  require(owner != address(0), \"ERC721: balance query for the zero address\") */\n      tag_109\n      jumpi\n      mload(0x40)\n      0x08c379a000000000000000000000000000000000000000000000000000000000\n      dup2\n      mstore\n      0x04\n      add\n      tag_110\n      swap1\n      tag_111\n      jump\t// in\n    tag_110:\n      mload(0x40)\n      dup1\n      swap2\n      sub\n      swap1\n      revert\n    tag_109:\n        /* \"contracts/MyNFT.sol\":3634:3643  _balances */\n      0x01\n        /* \"contracts/MyNFT.sol\":3634:3650  _balances[owner] */\n      0x00\n        /* \"contracts/MyNFT.sol\":3644:3649  owner */\n      dup4\n        /* \"contracts/MyNFT.sol\":3634:3650  _balances[owner] */\n      0xffffffffffffffffffffffffffffffffffffffff\n      and\n      0xffffffffffffffffffffffffffffffffffffffff\n      and\n      dup2\n      mstore\n      0x20\n      add\n      swap1\n      dup2\n      mstore\n      0x20\n      add\n      0x00\n      keccak256\n      sload\n        /* \"contracts/MyNFT.sol\":3627:3650  return _balances[owner] */\n      swap1\n      pop\n        /* \"contracts/MyNFT.sol\":3450:3658  function balanceOf(address owner) public view virtual override returns (uint256) {\r... */\n      swap2\n      swap1\n      pop\n      jump\t// out\n        /* \"contracts/MyNFT.sol\":5388:5675  function setApprovalForAll(address operator, bool approved) public virtual override {\r... */\n    tag_58:\n        /* \"contracts/MyNFT.sol\":5503:5513  msg.sender */\n      caller\n        /* \"contracts/MyNFT.sol\":5491:5513  operator != msg.sender */\n      0xffffffffffffffffffffffffffffffffffffffff\n      and\n        /* \"contracts/MyNFT.sol\":5491:5499  operator */\n      dup3\n        /* \"contracts/MyNFT.sol\":5491:5513  operator != msg.sender */\n      0xffffffffffffffffffffffffffffffffffffffff\n      and\n      eq\n      iszero\n        /* \"contracts/MyNFT.sol\":5483:5543  require(operator != msg.sender, \"ERC721: approve to caller\") */\n      tag_113\n      jumpi\n      mload(0x40)\n      0x08c379a000000000000000000000000000000000000000000000000000000000\n      dup2\n      mstore\n      0x04\n      add\n      tag_114\n      swap1\n      tag_115\n      jump\t// in\n    tag_114:\n      mload(0x40)\n      dup1\n      swap2\n      sub\n      swap1\n      revert\n    tag_113:\n        /* \"contracts/MyNFT.sol\":5597:5605  approved */\n      dup1\n        /* \"contracts/MyNFT.sol\":5554:5572  _operatorApprovals */\n      0x03\n        /* \"contracts/MyNFT.sol\":5554:5584  _operatorApprovals[msg.sender] */\n      0x00\n        /* \"contracts/MyNFT.sol\":5573:5583  msg.sender */\n      caller\n        /* \"contracts/MyNFT.sol\":5554:5584  _operatorApprovals[msg.sender] */\n      0xffffffffffffffffffffffffffffffffffffffff\n      and\n      0xffffffffffffffffffffffffffffffffffffffff\n      and\n      dup2\n      mstore\n      0x20\n      add\n      swap1\n      dup2\n      mstore\n      0x20\n      add\n      0x00\n      keccak256\n        /* \"contracts/MyNFT.sol\":5554:5594  _operatorApprovals[msg.sender][operator] */\n      0x00\n        /* \"contracts/MyNFT.sol\":5585:5593  operator */\n      dup5\n        /* \"contracts/MyNFT.sol\":5554:5594  _operatorApprovals[msg.sender][operator] */\n      0xffffffffffffffffffffffffffffffffffffffff\n      and\n      0xffffffffffffffffffffffffffffffffffffffff\n      and\n      dup2\n      mstore\n      0x20\n      add\n      swap1\n      dup2\n      mstore\n      0x20\n      add\n      0x00\n      keccak256\n      0x00\n        /* \"contracts/MyNFT.sol\":5554:5605  _operatorApprovals[msg.sender][operator] = approved */\n      0x0100\n      exp\n      dup2\n      sload\n      dup2\n      0xff\n      mul\n      not\n      and\n      swap1\n      dup4\n      iszero\n      iszero\n      mul\n      or\n      swap1\n      sstore\n      pop\n        /* \"contracts/MyNFT.sol\":5648:5656  operator */\n      dup2\n        /* \"contracts/MyNFT.sol\":5621:5667  ApprovalForAll(msg.sender, operator, approved) */\n      0xffffffffffffffffffffffffffffffffffffffff\n      and\n        /* \"contracts/MyNFT.sol\":5636:5646  msg.sender */\n      caller\n        /* \"contracts/MyNFT.sol\":5621:5667  ApprovalForAll(msg.sender, operator, approved) */\n      0xffffffffffffffffffffffffffffffffffffffff\n      and\n      0x17307eab39ab6107e8899845ad3d59bd9653f200f220920489ca2b5937696c31\n        /* \"contracts/MyNFT.sol\":5658:5666  approved */\n      dup4\n        /* \"contracts/MyNFT.sol\":5621:5667  ApprovalForAll(msg.sender, operator, approved) */\n      mload(0x40)\n      tag_116\n      swap2\n      swap1\n      tag_21\n      jump\t// in\n    tag_116:\n      mload(0x40)\n      dup1\n      swap2\n      sub\n      swap1\n      log3\n        /* \"contracts/MyNFT.sol\":5388:5675  function setApprovalForAll(address operator, bool approved) public virtual override {\r... */\n      pop\n      pop\n      jump\t// out\n        /* \"contracts/MyNFT.sol\":6605:6890  function safeTransferFrom(address from, address to, uint256 tokenId, bytes memory _data) public virtual override {\r... */\n    tag_62:\n        /* \"contracts/MyNFT.sol\":6737:6776  _isApprovedOrOwner(msg.sender, tokenId) */\n      tag_118\n        /* \"contracts/MyNFT.sol\":6756:6766  msg.sender */\n      caller\n        /* \"contracts/MyNFT.sol\":6768:6775  tokenId */\n      dup4\n        /* \"contracts/MyNFT.sol\":6737:6755  _isApprovedOrOwner */\n      tag_90\n        /* \"contracts/MyNFT.sol\":6737:6776  _isApprovedOrOwner(msg.sender, tokenId) */\n      jump\t// in\n    tag_118:\n        /* \"contracts/MyNFT.sol\":6729:6830  require(_isApprovedOrOwner(msg.sender, tokenId), \"ERC721: transfer caller is not owner nor approved\") */\n      tag_119\n      jumpi\n      mload(0x40)\n      0x08c379a000000000000000000000000000000000000000000000000000000000\n      dup2\n      mstore\n      0x04\n      add\n      tag_120\n      swap1\n      tag_93\n      jump\t// in\n    tag_120:\n      mload(0x40)\n      dup1\n      swap2\n      sub\n      swap1\n      revert\n    tag_119:\n        /* \"contracts/MyNFT.sol\":6841:6880  _safeTransfer(from, to, tokenId, _data) */\n      tag_121\n        /* \"contracts/MyNFT.sol\":6855:6859  from */\n      dup5\n        /* \"contracts/MyNFT.sol\":6861:6863  to */\n      dup5\n        /* \"contracts/MyNFT.sol\":6865:6872  tokenId */\n      dup5\n        /* \"contracts/MyNFT.sol\":6874:6879  _data */\n      dup5\n        /* \"contracts/MyNFT.sol\":6841:6854  _safeTransfer */\n      tag_122\n        /* \"contracts/MyNFT.sol\":6841:6880  _safeTransfer(from, to, tokenId, _data) */\n      jump\t// in\n    tag_121:\n        /* \"contracts/MyNFT.sol\":6605:6890  function safeTransferFrom(address from, address to, uint256 tokenId, bytes memory _data) public virtual override {\r... */\n      pop\n      pop\n      pop\n      pop\n      jump\t// out\n        /* \"contracts/MyNFT.sol\":4025:4189  function isApprovedForAll(address owner, address operator) public view virtual override returns (bool) {\r... */\n    tag_66:\n        /* \"contracts/MyNFT.sol\":4122:4126  bool */\n      0x00\n        /* \"contracts/MyNFT.sol\":4146:4164  _operatorApprovals */\n      0x03\n        /* \"contracts/MyNFT.sol\":4146:4171  _operatorApprovals[owner] */\n      0x00\n        /* \"contracts/MyNFT.sol\":4165:4170  owner */\n      dup5\n        /* \"contracts/MyNFT.sol\":4146:4171  _operatorApprovals[owner] */\n      0xffffffffffffffffffffffffffffffffffffffff\n      and\n      0xffffffffffffffffffffffffffffffffffffffff\n      and\n      dup2\n      mstore\n      0x20\n      add\n      swap1\n      dup2\n      mstore\n      0x20\n      add\n      0x00\n      keccak256\n        /* \"contracts/MyNFT.sol\":4146:4181  _operatorApprovals[owner][operator] */\n      0x00\n        /* \"contracts/MyNFT.sol\":4172:4180  operator */\n      dup4\n        /* \"contracts/MyNFT.sol\":4146:4181  _operatorApprovals[owner][operator] */\n      0xffffffffffffffffffffffffffffffffffffffff\n      and\n      0xffffffffffffffffffffffffffffffffffffffff\n      and\n      dup2\n      mstore\n      0x20\n      add\n      swap1\n      dup2\n      mstore\n      0x20\n      add\n      0x00\n      keccak256\n      0x00\n      swap1\n      sload\n      swap1\n      0x0100\n      exp\n      swap1\n      div\n      0xff\n      and\n        /* \"contracts/MyNFT.sol\":4139:4181  return _operatorApprovals[owner][operator] */\n      swap1\n      pop\n        /* \"contracts/MyNFT.sol\":4025:4189  function isApprovedForAll(address owner, address operator) public view virtual override returns (bool) {\r... */\n      swap3\n      swap2\n      pop\n      pop\n      jump\t// out\n        /* \"contracts/MyNFT.sol\":4378:4505  function _exists(uint256 tokenId) internal view virtual returns (bool) {\r... */\n    tag_72:\n        /* \"contracts/MyNFT.sol\":4443:4447  bool */\n      0x00\n        /* \"contracts/MyNFT.sol\":4495:4496  0 */\n      dup1\n        /* \"contracts/MyNFT.sol\":4467:4497  _owners[tokenId] != address(0) */\n      0xffffffffffffffffffffffffffffffffffffffff\n      and\n        /* \"contracts/MyNFT.sol\":4467:4474  _owners */\n      0x00\n        /* \"contracts/MyNFT.sol\":4467:4483  _owners[tokenId] */\n      dup1\n        /* \"contracts/MyNFT.sol\":4475:4482  tokenId */\n      dup5\n        /* \"contracts/MyNFT.sol\":4467:4483  _owners[tokenId] */\n      dup2\n      mstore\n      0x20\n      add\n      swap1\n      dup2\n      mstore\n      0x20\n      add\n      0x00\n      keccak256\n      0x00\n      swap1\n      sload\n      swap1\n      0x0100\n      exp\n      swap1\n      div\n      0xffffffffffffffffffffffffffffffffffffffff\n      and\n        /* \"contracts/MyNFT.sol\":4467:4497  _owners[tokenId] != address(0) */\n      0xffffffffffffffffffffffffffffffffffffffff\n      and\n      eq\n      iszero\n        /* \"contracts/MyNFT.sol\":4460:4497  return _owners[tokenId] != address(0) */\n      swap1\n      pop\n        /* \"contracts/MyNFT.sol\":4378:4505  function _exists(uint256 tokenId) internal view virtual returns (bool) {\r... */\n      swap2\n      swap1\n      pop\n      jump\t// out\n        /* \"contracts/MyNFT.sol\":4199:4368  function _approve(address to, uint256 tokenId) internal virtual {\r... */\n    tag_87:\n        /* \"contracts/MyNFT.sol\":4301:4303  to */\n      dup2\n        /* \"contracts/MyNFT.sol\":4274:4289  _tokenApprovals */\n      0x02\n        /* \"contracts/MyNFT.sol\":4274:4298  _tokenApprovals[tokenId] */\n      0x00\n        /* \"contracts/MyNFT.sol\":4290:4297  tokenId */\n      dup4\n        /* \"contracts/MyNFT.sol\":4274:4298  _tokenApprovals[tokenId] */\n      dup2\n      mstore\n      0x20\n      add\n      swap1\n      dup2\n      mstore\n      0x20\n      add\n      0x00\n      keccak256\n      0x00\n        /* \"contracts/MyNFT.sol\":4274:4303  _tokenApprovals[tokenId] = to */\n      0x0100\n      exp\n      dup2\n      sload\n      dup2\n      0xffffffffffffffffffffffffffffffffffffffff\n      mul\n      not\n      and\n      swap1\n      dup4\n      0xffffffffffffffffffffffffffffffffffffffff\n      and\n      mul\n      or\n      swap1\n      sstore\n      pop\n        /* \"contracts/MyNFT.sol\":4350:4357  tokenId */\n      dup1\n        /* \"contracts/MyNFT.sol\":4346:4348  to */\n      dup3\n        /* \"contracts/MyNFT.sol\":4319:4358  Approval(ownerOf(tokenId), to, tokenId) */\n      0xffffffffffffffffffffffffffffffffffffffff\n      and\n        /* \"contracts/MyNFT.sol\":4328:4344  ownerOf(tokenId) */\n      tag_126\n        /* \"contracts/MyNFT.sol\":4336:4343  tokenId */\n      dup4\n        /* \"contracts/MyNFT.sol\":4328:4335  ownerOf */\n      tag_47\n        /* \"contracts/MyNFT.sol\":4328:4344  ownerOf(tokenId) */\n      jump\t// in\n    tag_126:\n        /* \"contracts/MyNFT.sol\":4319:4358  Approval(ownerOf(tokenId), to, tokenId) */\n      0xffffffffffffffffffffffffffffffffffffffff\n      and\n      0x8c5be1e5ebec7d5bd14f71427d1e84f3dd0314c0f7b2291e5b200ac8c7c3b925\n      mload(0x40)\n      mload(0x40)\n      dup1\n      swap2\n      sub\n      swap1\n      log4\n        /* \"contracts/MyNFT.sol\":4199:4368  function _approve(address to, uint256 tokenId) internal virtual {\r... */\n      pop\n      pop\n      jump\t// out\n        /* \"contracts/MyNFT.sol\":5685:6028  function _isApprovedOrOwner(address spender, uint256 tokenId) internal view virtual returns (bool) {\r... */\n    tag_90:\n        /* \"contracts/MyNFT.sol\":5778:5782  bool */\n      0x00\n        /* \"contracts/MyNFT.sol\":5803:5819  _exists(tokenId) */\n      tag_128\n        /* \"contracts/MyNFT.sol\":5811:5818  tokenId */\n      dup3\n        /* \"contracts/MyNFT.sol\":5803:5810  _exists */\n      tag_72\n        /* \"contracts/MyNFT.sol\":5803:5819  _exists(tokenId) */\n      jump\t// in\n    tag_128:\n        /* \"contracts/MyNFT.sol\":5795:5868  require(_exists(tokenId), \"ERC721: operator query for nonexistent token\") */\n      tag_129\n      jumpi\n      mload(0x40)\n      0x08c379a000000000000000000000000000000000000000000000000000000000\n      dup2\n      mstore\n      0x04\n      add\n      tag_130\n      swap1\n      tag_131\n      jump\t// in\n    tag_130:\n      mload(0x40)\n      dup1\n      swap2\n      sub\n      swap1\n      revert\n    tag_129:\n        /* \"contracts/MyNFT.sol\":5879:5892  address owner */\n      0x00\n        /* \"contracts/MyNFT.sol\":5895:5911  ownerOf(tokenId) */\n      tag_132\n        /* \"contracts/MyNFT.sol\":5903:5910  tokenId */\n      dup4\n        /* \"contracts/MyNFT.sol\":5895:5902  ownerOf */\n      tag_47\n        /* \"contracts/MyNFT.sol\":5895:5911  ownerOf(tokenId) */\n      jump\t// in\n    tag_132:\n        /* \"contracts/MyNFT.sol\":5879:5911  address owner = ownerOf(tokenId) */\n      swap1\n      pop\n        /* \"contracts/MyNFT.sol\":5941:5946  owner */\n      dup1\n        /* \"contracts/MyNFT.sol\":5930:5946  spender == owner */\n      0xffffffffffffffffffffffffffffffffffffffff\n      and\n        /* \"contracts/MyNFT.sol\":5930:5937  spender */\n      dup5\n        /* \"contracts/MyNFT.sol\":5930:5946  spender == owner */\n      0xffffffffffffffffffffffffffffffffffffffff\n      and\n      eq\n        /* \"contracts/MyNFT.sol\":5930:5981  spender == owner || getApproved(tokenId) == spender */\n      dup1\n      tag_133\n      jumpi\n      pop\n        /* \"contracts/MyNFT.sol\":5974:5981  spender */\n      dup4\n        /* \"contracts/MyNFT.sol\":5950:5981  getApproved(tokenId) == spender */\n      0xffffffffffffffffffffffffffffffffffffffff\n      and\n        /* \"contracts/MyNFT.sol\":5950:5970  getApproved(tokenId) */\n      tag_134\n        /* \"contracts/MyNFT.sol\":5962:5969  tokenId */\n      dup5\n        /* \"contracts/MyNFT.sol\":5950:5961  getApproved */\n      tag_25\n        /* \"contracts/MyNFT.sol\":5950:5970  getApproved(tokenId) */\n      jump\t// in\n    tag_134:\n        /* \"contracts/MyNFT.sol\":5950:5981  getApproved(tokenId) == spender */\n      0xffffffffffffffffffffffffffffffffffffffff\n      and\n      eq\n        /* \"contracts/MyNFT.sol\":5930:5981  spender == owner || getApproved(tokenId) == spender */\n    tag_133:\n        /* \"contracts/MyNFT.sol\":5930:6017  spender == owner || getApproved(tokenId) == spender || isApprovedForAll(owner, spender) */\n      dup1\n      tag_135\n      jumpi\n      pop\n        /* \"contracts/MyNFT.sol\":5985:6017  isApprovedForAll(owner, spender) */\n      tag_136\n        /* \"contracts/MyNFT.sol\":6002:6007  owner */\n      dup2\n        /* \"contracts/MyNFT.sol\":6009:6016  spender */\n      dup6\n        /* \"contracts/MyNFT.sol\":5985:6001  isApprovedForAll */\n      tag_66\n        /* \"contracts/MyNFT.sol\":5985:6017  isApprovedForAll(owner, spender) */\n      jump\t// in\n    tag_136:\n        /* \"contracts/MyNFT.sol\":5930:6017  spender == owner || getApproved(tokenId) == spender || isApprovedForAll(owner, spender) */\n    tag_135:\n        /* \"contracts/MyNFT.sol\":5922:6018  return (spender == owner || getApproved(tokenId) == spender || isApprovedForAll(owner, spender)) */\n      swap2\n      pop\n      pop\n        /* \"contracts/MyNFT.sol\":5685:6028  function _isApprovedOrOwner(address spender, uint256 tokenId) internal view virtual returns (bool) {\r... */\n      swap3\n      swap2\n      pop\n      pop\n      jump\t// out\n        /* \"contracts/MyNFT.sol\":7242:8169  function _transfer(address from, address to, uint256 tokenId) internal virtual {\r... */\n    tag_95:\n        /* \"contracts/MyNFT.sol\":7453:7457  from */\n      dup3\n        /* \"contracts/MyNFT.sol\":7433:7457  ownerOf(tokenId) == from */\n      0xffffffffffffffffffffffffffffffffffffffff\n      and\n        /* \"contracts/MyNFT.sol\":7433:7449  ownerOf(tokenId) */\n      tag_138\n        /* \"contracts/MyNFT.sol\":7441:7448  tokenId */\n      dup3\n        /* \"contracts/MyNFT.sol\":7433:7440  ownerOf */\n      tag_47\n        /* \"contracts/MyNFT.sol\":7433:7449  ownerOf(tokenId) */\n      jump\t// in\n    tag_138:\n        /* \"contracts/MyNFT.sol\":7433:7457  ownerOf(tokenId) == from */\n      0xffffffffffffffffffffffffffffffffffffffff\n      and\n      eq\n        /* \"contracts/MyNFT.sol\":7425:7503  require(ownerOf(tokenId) == from, \"ERC721: transfer of token that is not own\") */\n      tag_139\n      jumpi\n      mload(0x40)\n      0x08c379a000000000000000000000000000000000000000000000000000000000\n      dup2\n      mstore\n      0x04\n      add\n      tag_140\n      swap1\n      tag_141\n      jump\t// in\n    tag_140:\n      mload(0x40)\n      dup1\n      swap2\n      sub\n      swap1\n      revert\n    tag_139:\n        /* \"contracts/MyNFT.sol\":7607:7608  0 */\n      0x00\n        /* \"contracts/MyNFT.sol\":7593:7609  to != address(0) */\n      0xffffffffffffffffffffffffffffffffffffffff\n      and\n        /* \"contracts/MyNFT.sol\":7593:7595  to */\n      dup3\n        /* \"contracts/MyNFT.sol\":7593:7609  to != address(0) */\n      0xffffffffffffffffffffffffffffffffffffffff\n      and\n      eq\n      iszero\n        /* \"contracts/MyNFT.sol\":7585:7650  require(to != address(0), \"ERC721: transfer to the zero address\") */\n      tag_142\n      jumpi\n      mload(0x40)\n      0x08c379a000000000000000000000000000000000000000000000000000000000\n      dup2\n      mstore\n      0x04\n      add\n      tag_143\n      swap1\n      tag_144\n      jump\t// in\n    tag_143:\n      mload(0x40)\n      dup1\n      swap2\n      sub\n      swap1\n      revert\n    tag_142:\n        /* \"contracts/MyNFT.sol\":7737:7766  _approve(address(0), tokenId) */\n      tag_145\n        /* \"contracts/MyNFT.sol\":7754:7755  0 */\n      0x00\n        /* \"contracts/MyNFT.sol\":7758:7765  tokenId */\n      dup3\n        /* \"contracts/MyNFT.sol\":7737:7745  _approve */\n      tag_87\n        /* \"contracts/MyNFT.sol\":7737:7766  _approve(address(0), tokenId) */\n      jump\t// in\n    tag_145:\n        /* \"contracts/MyNFT.sol\":7839:7840  1 */\n      0x01\n        /* \"contracts/MyNFT.sol\":7820:7829  _balances */\n      dup1\n        /* \"contracts/MyNFT.sol\":7820:7835  _balances[from] */\n      0x00\n        /* \"contracts/MyNFT.sol\":7830:7834  from */\n      dup6\n        /* \"contracts/MyNFT.sol\":7820:7835  _balances[from] */\n      0xffffffffffffffffffffffffffffffffffffffff\n      and\n      0xffffffffffffffffffffffffffffffffffffffff\n      and\n      dup2\n      mstore\n      0x20\n      add\n      swap1\n      dup2\n      mstore\n      0x20\n      add\n      0x00\n      keccak256\n      0x00\n        /* \"contracts/MyNFT.sol\":7820:7840  _balances[from] -= 1 */\n      dup3\n      dup3\n      sload\n      tag_146\n      swap2\n      swap1\n      tag_147\n      jump\t// in\n    tag_146:\n      swap3\n      pop\n      pop\n      dup2\n      swap1\n      sstore\n      pop\n        /* \"contracts/MyNFT.sol\":7912:7913  1 */\n      0x01\n        /* \"contracts/MyNFT.sol\":7895:7904  _balances */\n      dup1\n        /* \"contracts/MyNFT.sol\":7895:7908  _balances[to] */\n      0x00\n        /* \"contracts/MyNFT.sol\":7905:7907  to */\n      dup5\n        /* \"contracts/MyNFT.sol\":7895:7908  _balances[to] */\n      0xffffffffffffffffffffffffffffffffffffffff\n      and\n      0xffffffffffffffffffffffffffffffffffffffff\n      and\n      dup2\n      mstore\n      0x20\n      add\n      swap1\n      dup2\n      mstore\n      0x20\n      add\n      0x00\n      keccak256\n      0x00\n        /* \"contracts/MyNFT.sol\":7895:7913  _balances[to] += 1 */\n      dup3\n      dup3\n      sload\n      tag_148\n      swap2\n      swap1\n      tag_149\n      jump\t// in\n    tag_148:\n      swap3\n      pop\n      pop\n      dup2\n      swap1\n      sstore\n      pop\n        /* \"contracts/MyNFT.sol\":7983:7985  to */\n      dup2\n        /* \"contracts/MyNFT.sol\":7964:7971  _owners */\n      0x00\n        /* \"contracts/MyNFT.sol\":7964:7980  _owners[tokenId] */\n      dup1\n        /* \"contracts/MyNFT.sol\":7972:7979  tokenId */\n      dup4\n        /* \"contracts/MyNFT.sol\":7964:7980  _owners[tokenId] */\n      dup2\n      mstore\n      0x20\n      add\n      swap1\n      dup2\n      mstore\n      0x20\n      add\n      0x00\n      keccak256\n      0x00\n        /* \"contracts/MyNFT.sol\":7964:7985  _owners[tokenId] = to */\n      0x0100\n      exp\n      dup2\n      sload\n      dup2\n      0xffffffffffffffffffffffffffffffffffffffff\n      mul\n      not\n      and\n      swap1\n      dup4\n      0xffffffffffffffffffffffffffffffffffffffff\n      and\n      mul\n      or\n      swap1\n      sstore\n      pop\n        /* \"contracts/MyNFT.sol\":8153:8160  tokenId */\n      dup1\n        /* \"contracts/MyNFT.sol\":8149:8151  to */\n      dup3\n        /* \"contracts/MyNFT.sol\":8134:8161  Transfer(from, to, tokenId) */\n      0xffffffffffffffffffffffffffffffffffffffff\n      and\n        /* \"contracts/MyNFT.sol\":8143:8147  from */\n      dup5\n        /* \"contracts/MyNFT.sol\":8134:8161  Transfer(from, to, tokenId) */\n      0xffffffffffffffffffffffffffffffffffffffff\n      and\n      0xddf252ad1be2c89b69c2b068fc378daa952ba7f163c4a11628f55a4df523b3ef\n      mload(0x40)\n      mload(0x40)\n      dup1\n      swap2\n      sub\n      swap1\n      log4\n        /* \"contracts/MyNFT.sol\":7242:8169  function _transfer(address from, address to, uint256 tokenId) internal virtual {\r... */\n      pop\n      pop\n      pop\n      jump\t// out\n        /* \"contracts/MyNFT.sol\":8981:9290  function _mint(address to, uint tokenId) internal {\r... */\n    tag_98:\n        /* \"contracts/MyNFT.sol\":9064:9065  0 */\n      0x00\n        /* \"contracts/MyNFT.sol\":9050:9066  to != address(0) */\n      0xffffffffffffffffffffffffffffffffffffffff\n      and\n        /* \"contracts/MyNFT.sol\":9050:9052  to */\n      dup3\n        /* \"contracts/MyNFT.sol\":9050:9066  to != address(0) */\n      0xffffffffffffffffffffffffffffffffffffffff\n      and\n      eq\n      iszero\n        /* \"contracts/MyNFT.sol\":9042:9103  require(to != address(0), \"ERC721: mint to the zero address\") */\n      tag_151\n      jumpi\n      mload(0x40)\n      0x08c379a000000000000000000000000000000000000000000000000000000000\n      dup2\n      mstore\n      0x04\n      add\n      tag_152\n      swap1\n      tag_153\n      jump\t// in\n    tag_152:\n      mload(0x40)\n      dup1\n      swap2\n      sub\n      swap1\n      revert\n    tag_151:\n        /* \"contracts/MyNFT.sol\":9123:9139  _exists(tokenId) */\n      tag_154\n        /* \"contracts/MyNFT.sol\":9131:9138  tokenId */\n      dup2\n        /* \"contracts/MyNFT.sol\":9123:9130  _exists */\n      tag_72\n        /* \"contracts/MyNFT.sol\":9123:9139  _exists(tokenId) */\n      jump\t// in\n    tag_154:\n        /* \"contracts/MyNFT.sol\":9122:9139  !_exists(tokenId) */\n      iszero\n        /* \"contracts/MyNFT.sol\":9114:9172  require(!_exists(tokenId), \"ERC721: token already minted\") */\n      tag_155\n      jumpi\n      mload(0x40)\n      0x08c379a000000000000000000000000000000000000000000000000000000000\n      dup2\n      mstore\n      0x04\n      add\n      tag_156\n      swap1\n      tag_157\n      jump\t// in\n    tag_156:\n      mload(0x40)\n      dup1\n      swap2\n      sub\n      swap1\n      revert\n    tag_155:\n        /* \"contracts/MyNFT.sol\":9200:9201  1 */\n      0x01\n        /* \"contracts/MyNFT.sol\":9183:9192  _balances */\n      dup1\n        /* \"contracts/MyNFT.sol\":9183:9196  _balances[to] */\n      0x00\n        /* \"contracts/MyNFT.sol\":9193:9195  to */\n      dup5\n        /* \"contracts/MyNFT.sol\":9183:9196  _balances[to] */\n      0xffffffffffffffffffffffffffffffffffffffff\n      and\n      0xffffffffffffffffffffffffffffffffffffffff\n      and\n      dup2\n      mstore\n      0x20\n      add\n      swap1\n      dup2\n      mstore\n      0x20\n      add\n      0x00\n      keccak256\n      0x00\n        /* \"contracts/MyNFT.sol\":9183:9201  _balances[to] += 1 */\n      dup3\n      dup3\n      sload\n      tag_158\n      swap2\n      swap1\n      tag_149\n      jump\t// in\n    tag_158:\n      swap3\n      pop\n      pop\n      dup2\n      swap1\n      sstore\n      pop\n        /* \"contracts/MyNFT.sol\":9231:9233  to */\n      dup2\n        /* \"contracts/MyNFT.sol\":9212:9219  _owners */\n      0x00\n        /* \"contracts/MyNFT.sol\":9212:9228  _owners[tokenId] */\n      dup1\n        /* \"contracts/MyNFT.sol\":9220:9227  tokenId */\n      dup4\n        /* \"contracts/MyNFT.sol\":9212:9228  _owners[tokenId] */\n      dup2\n      mstore\n      0x20\n      add\n      swap1\n      dup2\n      mstore\n      0x20\n      add\n      0x00\n      keccak256\n      0x00\n        /* \"contracts/MyNFT.sol\":9212:9233  _owners[tokenId] = to */\n      0x0100\n      exp\n      dup2\n      sload\n      dup2\n      0xffffffffffffffffffffffffffffffffffffffff\n      mul\n      not\n      and\n      swap1\n      dup4\n      0xffffffffffffffffffffffffffffffffffffffff\n      and\n      mul\n      or\n      swap1\n      sstore\n      pop\n        /* \"contracts/MyNFT.sol\":9274:9281  tokenId */\n      dup1\n        /* \"contracts/MyNFT.sol\":9270:9272  to */\n      dup3\n        /* \"contracts/MyNFT.sol\":9249:9282  Transfer(address(0), to, tokenId) */\n      0xffffffffffffffffffffffffffffffffffffffff\n      and\n        /* \"contracts/MyNFT.sol\":9266:9267  0 */\n      0x00\n        /* \"contracts/MyNFT.sol\":9249:9282  Transfer(address(0), to, tokenId) */\n      0xffffffffffffffffffffffffffffffffffffffff\n      and\n      0xddf252ad1be2c89b69c2b068fc378daa952ba7f163c4a11628f55a4df523b3ef\n      mload(0x40)\n      mload(0x40)\n      dup1\n      swap2\n      sub\n      swap1\n      log4\n        /* \"contracts/MyNFT.sol\":8981:9290  function _mint(address to, uint tokenId) internal {\r... */\n      pop\n      pop\n      jump\t// out\n        /* \"contracts/MyNFT.sol\":9321:9648  function _burn(uint tokenId) internal {\r... */\n    tag_103:\n        /* \"contracts/MyNFT.sol\":9370:9383  address owner */\n      0x00\n        /* \"contracts/MyNFT.sol\":9386:9402  ownerOf(tokenId) */\n      tag_160\n        /* \"contracts/MyNFT.sol\":9394:9401  tokenId */\n      dup3\n        /* \"contracts/MyNFT.sol\":9386:9393  ownerOf */\n      tag_47\n        /* \"contracts/MyNFT.sol\":9386:9402  ownerOf(tokenId) */\n      jump\t// in\n    tag_160:\n        /* \"contracts/MyNFT.sol\":9370:9402  address owner = ownerOf(tokenId) */\n      swap1\n      pop\n        /* \"contracts/MyNFT.sol\":9435:9440  owner */\n      dup1\n        /* \"contracts/MyNFT.sol\":9421:9440  msg.sender == owner */\n      0xffffffffffffffffffffffffffffffffffffffff\n      and\n        /* \"contracts/MyNFT.sol\":9421:9431  msg.sender */\n      caller\n        /* \"contracts/MyNFT.sol\":9421:9440  msg.sender == owner */\n      0xffffffffffffffffffffffffffffffffffffffff\n      and\n      eq\n        /* \"contracts/MyNFT.sol\":9413:9482  require(msg.sender == owner, \"ERC721: burn of token that is not own\") */\n      tag_161\n      jumpi\n      mload(0x40)\n      0x08c379a000000000000000000000000000000000000000000000000000000000\n      dup2\n      mstore\n      0x04\n      add\n      tag_162\n      swap1\n      tag_163\n      jump\t// in\n    tag_162:\n      mload(0x40)\n      dup1\n      swap2\n      sub\n      swap1\n      revert\n    tag_161:\n        /* \"contracts/MyNFT.sol\":9493:9522  _approve(address(0), tokenId) */\n      tag_164\n        /* \"contracts/MyNFT.sol\":9510:9511  0 */\n      0x00\n        /* \"contracts/MyNFT.sol\":9514:9521  tokenId */\n      dup4\n        /* \"contracts/MyNFT.sol\":9493:9501  _approve */\n      tag_87\n        /* \"contracts/MyNFT.sol\":9493:9522  _approve(address(0), tokenId) */\n      jump\t// in\n    tag_164:\n        /* \"contracts/MyNFT.sol\":9553:9554  1 */\n      0x01\n        /* \"contracts/MyNFT.sol\":9533:9542  _balances */\n      dup1\n        /* \"contracts/MyNFT.sol\":9533:9549  _balances[owner] */\n      0x00\n        /* \"contracts/MyNFT.sol\":9543:9548  owner */\n      dup4\n        /* \"contracts/MyNFT.sol\":9533:9549  _balances[owner] */\n      0xffffffffffffffffffffffffffffffffffffffff\n      and\n      0xffffffffffffffffffffffffffffffffffffffff\n      and\n      dup2\n      mstore\n      0x20\n      add\n      swap1\n      dup2\n      mstore\n      0x20\n      add\n      0x00\n      keccak256\n      0x00\n        /* \"contracts/MyNFT.sol\":9533:9554  _balances[owner] -= 1 */\n      dup3\n      dup3\n      sload\n      tag_165\n      swap2\n      swap1\n      tag_147\n      jump\t// in\n    tag_165:\n      swap3\n      pop\n      pop\n      dup2\n      swap1\n      sstore\n      pop\n        /* \"contracts/MyNFT.sol\":9572:9579  _owners */\n      0x00\n        /* \"contracts/MyNFT.sol\":9572:9588  _owners[tokenId] */\n      dup1\n        /* \"contracts/MyNFT.sol\":9580:9587  tokenId */\n      dup4\n        /* \"contracts/MyNFT.sol\":9572:9588  _owners[tokenId] */\n      dup2\n      mstore\n      0x20\n      add\n      swap1\n      dup2\n      mstore\n      0x20\n      add\n      0x00\n      keccak256\n      0x00\n        /* \"contracts/MyNFT.sol\":9565:9588  delete _owners[tokenId] */\n      0x0100\n      exp\n      dup2\n      sload\n      swap1\n      0xffffffffffffffffffffffffffffffffffffffff\n      mul\n      not\n      and\n      swap1\n      sstore\n        /* \"contracts/MyNFT.sol\":9632:9639  tokenId */\n      dup2\n        /* \"contracts/MyNFT.sol\":9628:9629  0 */\n      0x00\n        /* \"contracts/MyNFT.sol\":9604:9640  Transfer(owner, address(0), tokenId) */\n      0xffffffffffffffffffffffffffffffffffffffff\n      and\n        /* \"contracts/MyNFT.sol\":9613:9618  owner */\n      dup3\n        /* \"contracts/MyNFT.sol\":9604:9640  Transfer(owner, address(0), tokenId) */\n      0xffffffffffffffffffffffffffffffffffffffff\n      and\n      0xddf252ad1be2c89b69c2b068fc378daa952ba7f163c4a11628f55a4df523b3ef\n      mload(0x40)\n      mload(0x40)\n      dup1\n      swap2\n      sub\n      swap1\n      log4\n        /* \"contracts/MyNFT.sol\":9359:9648  {\r... */\n      pop\n        /* \"contracts/MyNFT.sol\":9321:9648  function _burn(uint tokenId) internal {\r... */\n      pop\n      jump\t// out\n        /* \"contracts/MyNFT.sol\":6956:7230  function _safeTransfer(address from, address to, uint256 tokenId, bytes memory _data) internal virtual {\r... */\n    tag_122:\n        /* \"contracts/MyNFT.sol\":7070:7098  _transfer(from, to, tokenId) */\n      tag_167\n        /* \"contracts/MyNFT.sol\":7080:7084  from */\n      dup5\n        /* \"contracts/MyNFT.sol\":7086:7088  to */\n      dup5\n        /* \"contracts/MyNFT.sol\":7090:7097  tokenId */\n      dup5\n        /* \"contracts/MyNFT.sol\":7070:7079  _transfer */\n      tag_95\n        /* \"contracts/MyNFT.sol\":7070:7098  _transfer(from, to, tokenId) */\n      jump\t// in\n    tag_167:\n        /* \"contracts/MyNFT.sol\":7117:7165  _checkOnERC721Received(from, to, tokenId, _data) */\n      tag_168\n        /* \"contracts/MyNFT.sol\":7140:7144  from */\n      dup5\n        /* \"contracts/MyNFT.sol\":7146:7148  to */\n      dup5\n        /* \"contracts/MyNFT.sol\":7150:7157  tokenId */\n      dup5\n        /* \"contracts/MyNFT.sol\":7159:7164  _data */\n      dup5\n        /* \"contracts/MyNFT.sol\":7117:7139  _checkOnERC721Received */\n      tag_169\n        /* \"contracts/MyNFT.sol\":7117:7165  _checkOnERC721Received(from, to, tokenId, _data) */\n      jump\t// in\n    tag_168:\n        /* \"contracts/MyNFT.sol\":7109:7220  require(_checkOnERC721Received(from, to, tokenId, _data), \"ERC721: transfer to non ERC721Receiver implementer\") */\n      tag_170\n      jumpi\n      mload(0x40)\n      0x08c379a000000000000000000000000000000000000000000000000000000000\n      dup2\n      mstore\n      0x04\n      add\n      tag_171\n      swap1\n      tag_172\n      jump\t// in\n    tag_171:\n      mload(0x40)\n      dup1\n      swap2\n      sub\n      swap1\n      revert\n    tag_170:\n        /* \"contracts/MyNFT.sol\":6956:7230  function _safeTransfer(address from, address to, uint256 tokenId, bytes memory _data) internal virtual {\r... */\n      pop\n      pop\n      pop\n      pop\n      jump\t// out\n        /* \"contracts/MyNFT.sol\":8183:8942  function _checkOnERC721Received(address from, address to, uint256 tokenId, bytes memory _data) private returns (bool) {\r... */\n    tag_169:\n        /* \"contracts/MyNFT.sol\":8295:8299  bool */\n      0x00\n        /* \"contracts/MyNFT.sol\":8333:8334  0 */\n      dup1\n        /* \"contracts/MyNFT.sol\":8316:8318  to */\n      dup5\n        /* \"contracts/MyNFT.sol\":8316:8330  to.code.length */\n      0xffffffffffffffffffffffffffffffffffffffff\n      and\n      extcodesize\n        /* \"contracts/MyNFT.sol\":8316:8334  to.code.length > 0 */\n      gt\n        /* \"contracts/MyNFT.sol\":8312:8933  if (to.code.length > 0) {\r... */\n      iszero\n      tag_174\n      jumpi\n        /* \"contracts/MyNFT.sol\":8371:8373  to */\n      dup4\n        /* \"contracts/MyNFT.sol\":8355:8391  IERC721Receiver(to).onERC721Received */\n      0xffffffffffffffffffffffffffffffffffffffff\n      and\n      0x150b7a02\n        /* \"contracts/MyNFT.sol\":8392:8402  msg.sender */\n      caller\n        /* \"contracts/MyNFT.sol\":8404:8408  from */\n      dup8\n        /* \"contracts/MyNFT.sol\":8410:8417  tokenId */\n      dup7\n        /* \"contracts/MyNFT.sol\":8419:8424  _data */\n      dup7\n        /* \"contracts/MyNFT.sol\":8355:8425  IERC721Receiver(to).onERC721Received(msg.sender, from, tokenId, _data) */\n      mload(0x40)\n      dup6\n      0xffffffff\n      and\n      0xe0\n      shl\n      dup2\n      mstore\n      0x04\n      add\n      tag_175\n      swap5\n      swap4\n      swap3\n      swap2\n      swap1\n      tag_176\n      jump\t// in\n    tag_175:\n      0x20\n      mload(0x40)\n      dup1\n      dup4\n      sub\n      dup2\n      0x00\n      dup8\n      dup1\n      extcodesize\n      iszero\n      dup1\n      iszero\n      tag_177\n      jumpi\n      0x00\n      dup1\n      revert\n    tag_177:\n      pop\n      gas\n      call\n      swap3\n      pop\n      pop\n      pop\n      dup1\n      iszero\n      tag_178\n      jumpi\n      pop\n      mload(0x40)\n      returndatasize\n      not(0x1f)\n      0x1f\n      dup3\n      add\n      and\n      dup3\n      add\n      dup1\n      0x40\n      mstore\n      pop\n      dup2\n      add\n      swap1\n      tag_179\n      swap2\n      swap1\n      tag_180\n      jump\t// in\n    tag_179:\n      0x01\n    tag_178:\n        /* \"contracts/MyNFT.sol\":8351:8878  try IERC721Receiver(to).onERC721Received(msg.sender, from, tokenId, _data) returns (bytes4 retval) {\r... */\n      tag_181\n      jumpi\n      returndatasize\n      dup1\n      0x00\n      dup2\n      eq\n      tag_186\n      jumpi\n      mload(0x40)\n      swap2\n      pop\n      and(add(returndatasize, 0x3f), not(0x1f))\n      dup3\n      add\n      0x40\n      mstore\n      returndatasize\n      dup3\n      mstore\n      returndatasize\n      0x00\n      0x20\n      dup5\n      add\n      returndatacopy\n      jump(tag_185)\n    tag_186:\n      0x60\n      swap2\n      pop\n    tag_185:\n      pop\n        /* \"contracts/MyNFT.sol\":8612:8613  0 */\n      0x00\n        /* \"contracts/MyNFT.sol\":8595:8601  reason */\n      dup2\n        /* \"contracts/MyNFT.sol\":8595:8608  reason.length */\n      mload\n        /* \"contracts/MyNFT.sol\":8595:8613  reason.length == 0 */\n      eq\n        /* \"contracts/MyNFT.sol\":8591:8863  if (reason.length == 0) {\r... */\n      iszero\n      tag_187\n      jumpi\n        /* \"contracts/MyNFT.sol\":8638:8698  revert(\"ERC721: transfer to non ERC721Receiver implementer\") */\n      mload(0x40)\n      0x08c379a000000000000000000000000000000000000000000000000000000000\n      dup2\n      mstore\n      0x04\n      add\n      tag_188\n      swap1\n      tag_172\n      jump\t// in\n    tag_188:\n      mload(0x40)\n      dup1\n      swap2\n      sub\n      swap1\n      revert\n        /* \"contracts/MyNFT.sol\":8591:8863  if (reason.length == 0) {\r... */\n    tag_187:\n        /* \"contracts/MyNFT.sol\":8813:8819  reason */\n      dup1\n        /* \"contracts/MyNFT.sol\":8807:8820  mload(reason) */\n      mload\n        /* \"contracts/MyNFT.sol\":8798:8804  reason */\n      dup2\n        /* \"contracts/MyNFT.sol\":8794:8796  32 */\n      0x20\n        /* \"contracts/MyNFT.sol\":8790:8805  add(32, reason) */\n      add\n        /* \"contracts/MyNFT.sol\":8783:8821  revert(add(32, reason), mload(reason)) */\n      revert\n        /* \"contracts/MyNFT.sol\":8351:8878  try IERC721Receiver(to).onERC721Received(msg.sender, from, tokenId, _data) returns (bytes4 retval) {\r... */\n    tag_181:\n        /* \"contracts/MyNFT.sol\":8486:8527  IERC721Receiver.onERC721Received.selector */\n      shl(0xe0, 0x150b7a02)\n        /* \"contracts/MyNFT.sol\":8476:8527  retval == IERC721Receiver.onERC721Received.selector */\n      not(0xffffffffffffffffffffffffffffffffffffffffffffffffffffffff)\n      and\n        /* \"contracts/MyNFT.sol\":8476:8482  retval */\n      dup2\n        /* \"contracts/MyNFT.sol\":8476:8527  retval == IERC721Receiver.onERC721Received.selector */\n      not(0xffffffffffffffffffffffffffffffffffffffffffffffffffffffff)\n      and\n      eq\n        /* \"contracts/MyNFT.sol\":8469:8527  return retval == IERC721Receiver.onERC721Received.selector */\n      swap2\n      pop\n      pop\n      jump(tag_173)\n        /* \"contracts/MyNFT.sol\":8312:8933  if (to.code.length > 0) {\r... */\n    tag_174:\n        /* \"contracts/MyNFT.sol\":8917:8921  true */\n      0x01\n        /* \"contracts/MyNFT.sol\":8910:8921  return true */\n      swap1\n      pop\n        /* \"contracts/MyNFT.sol\":8183:8942  function _checkOnERC721Received(address from, address to, uint256 tokenId, bytes memory _data) private returns (bool) {\r... */\n    tag_173:\n      swap5\n      swap4\n      pop\n      pop\n      pop\n      pop\n      jump\t// out\n        /* \"#utility.yul\":7:417   */\n    tag_193:\n        /* \"#utility.yul\":84:89   */\n      0x00\n        /* \"#utility.yul\":109:174   */\n      tag_195\n        /* \"#utility.yul\":125:173   */\n      tag_196\n        /* \"#utility.yul\":166:172   */\n      dup5\n        /* \"#utility.yul\":125:173   */\n      tag_197\n      jump\t// in\n    tag_196:\n        /* \"#utility.yul\":109:174   */\n      tag_198\n      jump\t// in\n    tag_195:\n        /* \"#utility.yul\":100:174   */\n      swap1\n      pop\n        /* \"#utility.yul\":197:203   */\n      dup3\n        /* \"#utility.yul\":190:195   */\n      dup2\n        /* \"#utility.yul\":183:204   */\n      mstore\n        /* \"#utility.yul\":235:239   */\n      0x20\n        /* \"#utility.yul\":228:233   */\n      dup2\n        /* \"#utility.yul\":224:240   */\n      add\n        /* \"#utility.yul\":273:276   */\n      dup5\n        /* \"#utility.yul\":264:270   */\n      dup5\n        /* \"#utility.yul\":259:262   */\n      dup5\n        /* \"#utility.yul\":255:271   */\n      add\n        /* \"#utility.yul\":252:277   */\n      gt\n        /* \"#utility.yul\":249:361   */\n      iszero\n      tag_199\n      jumpi\n        /* \"#utility.yul\":280:359   */\n      tag_200\n      tag_201\n      jump\t// in\n    tag_200:\n        /* \"#utility.yul\":249:361   */\n    tag_199:\n        /* \"#utility.yul\":370:411   */\n      tag_202\n        /* \"#utility.yul\":404:410   */\n      dup5\n        /* \"#utility.yul\":399:402   */\n      dup3\n        /* \"#utility.yul\":394:397   */\n      dup6\n        /* \"#utility.yul\":370:411   */\n      tag_203\n      jump\t// in\n    tag_202:\n        /* \"#utility.yul\":90:417   */\n      pop\n        /* \"#utility.yul\":7:417   */\n      swap4\n      swap3\n      pop\n      pop\n      pop\n      jump\t// out\n        /* \"#utility.yul\":423:562   */\n    tag_204:\n        /* \"#utility.yul\":469:474   */\n      0x00\n        /* \"#utility.yul\":507:513   */\n      dup2\n        /* \"#utility.yul\":494:514   */\n      calldataload\n        /* \"#utility.yul\":485:514   */\n      swap1\n      pop\n        /* \"#utility.yul\":523:556   */\n      tag_206\n        /* \"#utility.yul\":550:555   */\n      dup2\n        /* \"#utility.yul\":523:556   */\n      tag_207\n      jump\t// in\n    tag_206:\n        /* \"#utility.yul\":423:562   */\n      swap3\n      swap2\n      pop\n      pop\n      jump\t// out\n        /* \"#utility.yul\":568:701   */\n    tag_208:\n        /* \"#utility.yul\":611:616   */\n      0x00\n        /* \"#utility.yul\":649:655   */\n      dup2\n        /* \"#utility.yul\":636:656   */\n      calldataload\n        /* \"#utility.yul\":627:656   */\n      swap1\n      pop\n        /* \"#utility.yul\":665:695   */\n      tag_210\n        /* \"#utility.yul\":689:694   */\n      dup2\n        /* \"#utility.yul\":665:695   */\n      tag_211\n      jump\t// in\n    tag_210:\n        /* \"#utility.yul\":568:701   */\n      swap3\n      swap2\n      pop\n      pop\n      jump\t// out\n        /* \"#utility.yul\":707:844   */\n    tag_212:\n        /* \"#utility.yul\":752:757   */\n      0x00\n        /* \"#utility.yul\":790:796   */\n      dup2\n        /* \"#utility.yul\":777:797   */\n      calldataload\n        /* \"#utility.yul\":768:797   */\n      swap1\n      pop\n        /* \"#utility.yul\":806:838   */\n      tag_214\n        /* \"#utility.yul\":832:837   */\n      dup2\n        /* \"#utility.yul\":806:838   */\n      tag_215\n      jump\t// in\n    tag_214:\n        /* \"#utility.yul\":707:844   */\n      swap3\n      swap2\n      pop\n      pop\n      jump\t// out\n        /* \"#utility.yul\":850:991   */\n    tag_216:\n        /* \"#utility.yul\":906:911   */\n      0x00\n        /* \"#utility.yul\":937:943   */\n      dup2\n        /* \"#utility.yul\":931:944   */\n      mload\n        /* \"#utility.yul\":922:944   */\n      swap1\n      pop\n        /* \"#utility.yul\":953:985   */\n      tag_218\n        /* \"#utility.yul\":979:984   */\n      dup2\n        /* \"#utility.yul\":953:985   */\n      tag_215\n      jump\t// in\n    tag_218:\n        /* \"#utility.yul\":850:991   */\n      swap3\n      swap2\n      pop\n      pop\n      jump\t// out\n        /* \"#utility.yul\":1010:1348   */\n    tag_219:\n        /* \"#utility.yul\":1065:1070   */\n      0x00\n        /* \"#utility.yul\":1114:1117   */\n      dup3\n        /* \"#utility.yul\":1107:1111   */\n      0x1f\n        /* \"#utility.yul\":1099:1105   */\n      dup4\n        /* \"#utility.yul\":1095:1112   */\n      add\n        /* \"#utility.yul\":1091:1118   */\n      slt\n        /* \"#utility.yul\":1081:1203   */\n      tag_221\n      jumpi\n        /* \"#utility.yul\":1122:1201   */\n      tag_222\n      tag_223\n      jump\t// in\n    tag_222:\n        /* \"#utility.yul\":1081:1203   */\n    tag_221:\n        /* \"#utility.yul\":1239:1245   */\n      dup2\n        /* \"#utility.yul\":1226:1246   */\n      calldataload\n        /* \"#utility.yul\":1264:1342   */\n      tag_224\n        /* \"#utility.yul\":1338:1341   */\n      dup5\n        /* \"#utility.yul\":1330:1336   */\n      dup3\n        /* \"#utility.yul\":1323:1327   */\n      0x20\n        /* \"#utility.yul\":1315:1321   */\n      dup7\n        /* \"#utility.yul\":1311:1328   */\n      add\n        /* \"#utility.yul\":1264:1342   */\n      tag_193\n      jump\t// in\n    tag_224:\n        /* \"#utility.yul\":1255:1342   */\n      swap2\n      pop\n        /* \"#utility.yul\":1071:1348   */\n      pop\n        /* \"#utility.yul\":1010:1348   */\n      swap3\n      swap2\n      pop\n      pop\n      jump\t// out\n        /* \"#utility.yul\":1354:1493   */\n    tag_225:\n        /* \"#utility.yul\":1400:1405   */\n      0x00\n        /* \"#utility.yul\":1438:1444   */\n      dup2\n        /* \"#utility.yul\":1425:1445   */\n      calldataload\n        /* \"#utility.yul\":1416:1445   */\n      swap1\n      pop\n        /* \"#utility.yul\":1454:1487   */\n      tag_227\n        /* \"#utility.yul\":1481:1486   */\n      dup2\n        /* \"#utility.yul\":1454:1487   */\n      tag_228\n      jump\t// in\n    tag_227:\n        /* \"#utility.yul\":1354:1493   */\n      swap3\n      swap2\n      pop\n      pop\n      jump\t// out\n        /* \"#utility.yul\":1499:1828   */\n    tag_51:\n        /* \"#utility.yul\":1558:1564   */\n      0x00\n        /* \"#utility.yul\":1607:1609   */\n      0x20\n        /* \"#utility.yul\":1595:1604   */\n      dup3\n        /* \"#utility.yul\":1586:1593   */\n      dup5\n        /* \"#utility.yul\":1582:1605   */\n      sub\n        /* \"#utility.yul\":1578:1610   */\n      slt\n        /* \"#utility.yul\":1575:1694   */\n      iszero\n      tag_230\n      jumpi\n        /* \"#utility.yul\":1613:1692   */\n      tag_231\n      tag_232\n      jump\t// in\n    tag_231:\n        /* \"#utility.yul\":1575:1694   */\n    tag_230:\n        /* \"#utility.yul\":1733:1734   */\n      0x00\n        /* \"#utility.yul\":1758:1811   */\n      tag_233\n        /* \"#utility.yul\":1803:1810   */\n      dup5\n        /* \"#utility.yul\":1794:1800   */\n      dup3\n        /* \"#utility.yul\":1783:1792   */\n      dup6\n        /* \"#utility.yul\":1779:1801   */\n      add\n        /* \"#utility.yul\":1758:1811   */\n      tag_204\n      jump\t// in\n    tag_233:\n        /* \"#utility.yul\":1748:1811   */\n      swap2\n      pop\n        /* \"#utility.yul\":1704:1821   */\n      pop\n        /* \"#utility.yul\":1499:1828   */\n      swap3\n      swap2\n      pop\n      pop\n      jump\t// out\n        /* \"#utility.yul\":1834:2308   */\n    tag_65:\n        /* \"#utility.yul\":1902:1908   */\n      0x00\n        /* \"#utility.yul\":1910:1916   */\n      dup1\n        /* \"#utility.yul\":1959:1961   */\n      0x40\n        /* \"#utility.yul\":1947:1956   */\n      dup4\n        /* \"#utility.yul\":1938:1945   */\n      dup6\n        /* \"#utility.yul\":1934:1957   */\n      sub\n        /* \"#utility.yul\":1930:1962   */\n      slt\n        /* \"#utility.yul\":1927:2046   */\n      iszero\n      tag_235\n      jumpi\n        /* \"#utility.yul\":1965:2044   */\n      tag_236\n      tag_232\n      jump\t// in\n    tag_236:\n        /* \"#utility.yul\":1927:2046   */\n    tag_235:\n        /* \"#utility.yul\":2085:2086   */\n      0x00\n        /* \"#utility.yul\":2110:2163   */\n      tag_237\n        /* \"#utility.yul\":2155:2162   */\n      dup6\n        /* \"#utility.yul\":2146:2152   */\n      dup3\n        /* \"#utility.yul\":2135:2144   */\n      dup7\n        /* \"#utility.yul\":2131:2153   */\n      add\n        /* \"#utility.yul\":2110:2163   */\n      tag_204\n      jump\t// in\n    tag_237:\n        /* \"#utility.yul\":2100:2163   */\n      swap3\n      pop\n        /* \"#utility.yul\":2056:2173   */\n      pop\n        /* \"#utility.yul\":2212:2214   */\n      0x20\n        /* \"#utility.yul\":2238:2291   */\n      tag_238\n        /* \"#utility.yul\":2283:2290   */\n      dup6\n        /* \"#utility.yul\":2274:2280   */\n      dup3\n        /* \"#utility.yul\":2263:2272   */\n      dup7\n        /* \"#utility.yul\":2259:2281   */\n      add\n        /* \"#utility.yul\":2238:2291   */\n      tag_204\n      jump\t// in\n    tag_238:\n        /* \"#utility.yul\":2228:2291   */\n      swap2\n      pop\n        /* \"#utility.yul\":2183:2301   */\n      pop\n        /* \"#utility.yul\":1834:2308   */\n      swap3\n      pop\n      swap3\n      swap1\n      pop\n      jump\t// out\n        /* \"#utility.yul\":2314:2933   */\n    tag_34:\n        /* \"#utility.yul\":2391:2397   */\n      0x00\n        /* \"#utility.yul\":2399:2405   */\n      dup1\n        /* \"#utility.yul\":2407:2413   */\n      0x00\n        /* \"#utility.yul\":2456:2458   */\n      0x60\n        /* \"#utility.yul\":2444:2453   */\n      dup5\n        /* \"#utility.yul\":2435:2442   */\n      dup7\n        /* \"#utility.yul\":2431:2454   */\n      sub\n        /* \"#utility.yul\":2427:2459   */\n      slt\n        /* \"#utility.yul\":2424:2543   */\n      iszero\n      tag_240\n      jumpi\n        /* \"#utility.yul\":2462:2541   */\n      tag_241\n      tag_232\n      jump\t// in\n    tag_241:\n        /* \"#utility.yul\":2424:2543   */\n    tag_240:\n        /* \"#utility.yul\":2582:2583   */\n      0x00\n        /* \"#utility.yul\":2607:2660   */\n      tag_242\n        /* \"#utility.yul\":2652:2659   */\n      dup7\n        /* \"#utility.yul\":2643:2649   */\n      dup3\n        /* \"#utility.yul\":2632:2641   */\n      dup8\n        /* \"#utility.yul\":2628:2650   */\n      add\n        /* \"#utility.yul\":2607:2660   */\n      tag_204\n      jump\t// in\n    tag_242:\n        /* \"#utility.yul\":2597:2660   */\n      swap4\n      pop\n        /* \"#utility.yul\":2553:2670   */\n      pop\n        /* \"#utility.yul\":2709:2711   */\n      0x20\n        /* \"#utility.yul\":2735:2788   */\n      tag_243\n        /* \"#utility.yul\":2780:2787   */\n      dup7\n        /* \"#utility.yul\":2771:2777   */\n      dup3\n        /* \"#utility.yul\":2760:2769   */\n      dup8\n        /* \"#utility.yul\":2756:2778   */\n      add\n        /* \"#utility.yul\":2735:2788   */\n      tag_204\n      jump\t// in\n    tag_243:\n        /* \"#utility.yul\":2725:2788   */\n      swap3\n      pop\n        /* \"#utility.yul\":2680:2798   */\n      pop\n        /* \"#utility.yul\":2837:2839   */\n      0x40\n        /* \"#utility.yul\":2863:2916   */\n      tag_244\n        /* \"#utility.yul\":2908:2915   */\n      dup7\n        /* \"#utility.yul\":2899:2905   */\n      dup3\n        /* \"#utility.yul\":2888:2897   */\n      dup8\n        /* \"#utility.yul\":2884:2906   */\n      add\n        /* \"#utility.yul\":2863:2916   */\n      tag_225\n      jump\t// in\n    tag_244:\n        /* \"#utility.yul\":2853:2916   */\n      swap2\n      pop\n        /* \"#utility.yul\":2808:2926   */\n      pop\n        /* \"#utility.yul\":2314:2933   */\n      swap3\n      pop\n      swap3\n      pop\n      swap3\n      jump\t// out\n        /* \"#utility.yul\":2939:3882   */\n    tag_61:\n        /* \"#utility.yul\":3034:3040   */\n      0x00\n        /* \"#utility.yul\":3042:3048   */\n      dup1\n        /* \"#utility.yul\":3050:3056   */\n      0x00\n        /* \"#utility.yul\":3058:3064   */\n      dup1\n        /* \"#utility.yul\":3107:3110   */\n      0x80\n        /* \"#utility.yul\":3095:3104   */\n      dup6\n        /* \"#utility.yul\":3086:3093   */\n      dup8\n        /* \"#utility.yul\":3082:3105   */\n      sub\n        /* \"#utility.yul\":3078:3111   */\n      slt\n        /* \"#utility.yul\":3075:3195   */\n      iszero\n      tag_246\n      jumpi\n        /* \"#utility.yul\":3114:3193   */\n      tag_247\n      tag_232\n      jump\t// in\n    tag_247:\n        /* \"#utility.yul\":3075:3195   */\n    tag_246:\n        /* \"#utility.yul\":3234:3235   */\n      0x00\n        /* \"#utility.yul\":3259:3312   */\n      tag_248\n        /* \"#utility.yul\":3304:3311   */\n      dup8\n        /* \"#utility.yul\":3295:3301   */\n      dup3\n        /* \"#utility.yul\":3284:3293   */\n      dup9\n        /* \"#utility.yul\":3280:3302   */\n      add\n        /* \"#utility.yul\":3259:3312   */\n      tag_204\n      jump\t// in\n    tag_248:\n        /* \"#utility.yul\":3249:3312   */\n      swap5\n      pop\n        /* \"#utility.yul\":3205:3322   */\n      pop\n        /* \"#utility.yul\":3361:3363   */\n      0x20\n        /* \"#utility.yul\":3387:3440   */\n      tag_249\n        /* \"#utility.yul\":3432:3439   */\n      dup8\n        /* \"#utility.yul\":3423:3429   */\n      dup3\n        /* \"#utility.yul\":3412:3421   */\n      dup9\n        /* \"#utility.yul\":3408:3430   */\n      add\n        /* \"#utility.yul\":3387:3440   */\n      tag_204\n      jump\t// in\n    tag_249:\n        /* \"#utility.yul\":3377:3440   */\n      swap4\n      pop\n        /* \"#utility.yul\":3332:3450   */\n      pop\n        /* \"#utility.yul\":3489:3491   */\n      0x40\n        /* \"#utility.yul\":3515:3568   */\n      tag_250\n        /* \"#utility.yul\":3560:3567   */\n      dup8\n        /* \"#utility.yul\":3551:3557   */\n      dup3\n        /* \"#utility.yul\":3540:3549   */\n      dup9\n        /* \"#utility.yul\":3536:3558   */\n      add\n        /* \"#utility.yul\":3515:3568   */\n      tag_225\n      jump\t// in\n    tag_250:\n        /* \"#utility.yul\":3505:3568   */\n      swap3\n      pop\n        /* \"#utility.yul\":3460:3578   */\n      pop\n        /* \"#utility.yul\":3645:3647   */\n      0x60\n        /* \"#utility.yul\":3634:3643   */\n      dup6\n        /* \"#utility.yul\":3630:3648   */\n      add\n        /* \"#utility.yul\":3617:3649   */\n      calldataload\n        /* \"#utility.yul\":3676:3694   */\n      0xffffffffffffffff\n        /* \"#utility.yul\":3668:3674   */\n      dup2\n        /* \"#utility.yul\":3665:3695   */\n      gt\n        /* \"#utility.yul\":3662:3779   */\n      iszero\n      tag_251\n      jumpi\n        /* \"#utility.yul\":3698:3777   */\n      tag_252\n      tag_253\n      jump\t// in\n    tag_252:\n        /* \"#utility.yul\":3662:3779   */\n    tag_251:\n        /* \"#utility.yul\":3803:3865   */\n      tag_254\n        /* \"#utility.yul\":3857:3864   */\n      dup8\n        /* \"#utility.yul\":3848:3854   */\n      dup3\n        /* \"#utility.yul\":3837:3846   */\n      dup9\n        /* \"#utility.yul\":3833:3855   */\n      add\n        /* \"#utility.yul\":3803:3865   */\n      tag_219\n      jump\t// in\n    tag_254:\n        /* \"#utility.yul\":3793:3865   */\n      swap2\n      pop\n        /* \"#utility.yul\":3588:3875   */\n      pop\n        /* \"#utility.yul\":2939:3882   */\n      swap3\n      swap6\n      swap2\n      swap5\n      pop\n      swap3\n      pop\n      jump\t// out\n        /* \"#utility.yul\":3888:4356   */\n    tag_57:\n        /* \"#utility.yul\":3953:3959   */\n      0x00\n        /* \"#utility.yul\":3961:3967   */\n      dup1\n        /* \"#utility.yul\":4010:4012   */\n      0x40\n        /* \"#utility.yul\":3998:4007   */\n      dup4\n        /* \"#utility.yul\":3989:3996   */\n      dup6\n        /* \"#utility.yul\":3985:4008   */\n      sub\n        /* \"#utility.yul\":3981:4013   */\n      slt\n        /* \"#utility.yul\":3978:4097   */\n      iszero\n      tag_256\n      jumpi\n        /* \"#utility.yul\":4016:4095   */\n      tag_257\n      tag_232\n      jump\t// in\n    tag_257:\n        /* \"#utility.yul\":3978:4097   */\n    tag_256:\n        /* \"#utility.yul\":4136:4137   */\n      0x00\n        /* \"#utility.yul\":4161:4214   */\n      tag_258\n        /* \"#utility.yul\":4206:4213   */\n      dup6\n        /* \"#utility.yul\":4197:4203   */\n      dup3\n        /* \"#utility.yul\":4186:4195   */\n      dup7\n        /* \"#utility.yul\":4182:4204   */\n      add\n        /* \"#utility.yul\":4161:4214   */\n      tag_204\n      jump\t// in\n    tag_258:\n        /* \"#utility.yul\":4151:4214   */\n      swap3\n      pop\n        /* \"#utility.yul\":4107:4224   */\n      pop\n        /* \"#utility.yul\":4263:4265   */\n      0x20\n        /* \"#utility.yul\":4289:4339   */\n      tag_259\n        /* \"#utility.yul\":4331:4338   */\n      dup6\n        /* \"#utility.yul\":4322:4328   */\n      dup3\n        /* \"#utility.yul\":4311:4320   */\n      dup7\n        /* \"#utility.yul\":4307:4329   */\n      add\n        /* \"#utility.yul\":4289:4339   */\n      tag_208\n      jump\t// in\n    tag_259:\n        /* \"#utility.yul\":4279:4339   */\n      swap2\n      pop\n        /* \"#utility.yul\":4234:4349   */\n      pop\n        /* \"#utility.yul\":3888:4356   */\n      swap3\n      pop\n      swap3\n      swap1\n      pop\n      jump\t// out\n        /* \"#utility.yul\":4362:4836   */\n    tag_30:\n        /* \"#utility.yul\":4430:4436   */\n      0x00\n        /* \"#utility.yul\":4438:4444   */\n      dup1\n        /* \"#utility.yul\":4487:4489   */\n      0x40\n        /* \"#utility.yul\":4475:4484   */\n      dup4\n        /* \"#utility.yul\":4466:4473   */\n      dup6\n        /* \"#utility.yul\":4462:4485   */\n      sub\n        /* \"#utility.yul\":4458:4490   */\n      slt\n        /* \"#utility.yul\":4455:4574   */\n      iszero\n      tag_261\n      jumpi\n        /* \"#utility.yul\":4493:4572   */\n      tag_262\n      tag_232\n      jump\t// in\n    tag_262:\n        /* \"#utility.yul\":4455:4574   */\n    tag_261:\n        /* \"#utility.yul\":4613:4614   */\n      0x00\n        /* \"#utility.yul\":4638:4691   */\n      tag_263\n        /* \"#utility.yul\":4683:4690   */\n      dup6\n        /* \"#utility.yul\":4674:4680   */\n      dup3\n        /* \"#utility.yul\":4663:4672   */\n      dup7\n        /* \"#utility.yul\":4659:4681   */\n      add\n        /* \"#utility.yul\":4638:4691   */\n      tag_204\n      jump\t// in\n    tag_263:\n        /* \"#utility.yul\":4628:4691   */\n      swap3\n      pop\n        /* \"#utility.yul\":4584:4701   */\n      pop\n        /* \"#utility.yul\":4740:4742   */\n      0x20\n        /* \"#utility.yul\":4766:4819   */\n      tag_264\n        /* \"#utility.yul\":4811:4818   */\n      dup6\n        /* \"#utility.yul\":4802:4808   */\n      dup3\n        /* \"#utility.yul\":4791:4800   */\n      dup7\n        /* \"#utility.yul\":4787:4809   */\n      add\n        /* \"#utility.yul\":4766:4819   */\n      tag_225\n      jump\t// in\n    tag_264:\n        /* \"#utility.yul\":4756:4819   */\n      swap2\n      pop\n        /* \"#utility.yul\":4711:4829   */\n      pop\n        /* \"#utility.yul\":4362:4836   */\n      swap3\n      pop\n      swap3\n      swap1\n      pop\n      jump\t// out\n        /* \"#utility.yul\":4842:5169   */\n    tag_18:\n        /* \"#utility.yul\":4900:4906   */\n      0x00\n        /* \"#utility.yul\":4949:4951   */\n      0x20\n        /* \"#utility.yul\":4937:4946   */\n      dup3\n        /* \"#utility.yul\":4928:4935   */\n      dup5\n        /* \"#utility.yul\":4924:4947   */\n      sub\n        /* \"#utility.yul\":4920:4952   */\n      slt\n        /* \"#utility.yul\":4917:5036   */\n      iszero\n      tag_266\n      jumpi\n        /* \"#utility.yul\":4955:5034   */\n      tag_267\n      tag_232\n      jump\t// in\n    tag_267:\n        /* \"#utility.yul\":4917:5036   */\n    tag_266:\n        /* \"#utility.yul\":5075:5076   */\n      0x00\n        /* \"#utility.yul\":5100:5152   */\n      tag_268\n        /* \"#utility.yul\":5144:5151   */\n      dup5\n        /* \"#utility.yul\":5135:5141   */\n      dup3\n        /* \"#utility.yul\":5124:5133   */\n      dup6\n        /* \"#utility.yul\":5120:5142   */\n      add\n        /* \"#utility.yul\":5100:5152   */\n      tag_212\n      jump\t// in\n    tag_268:\n        /* \"#utility.yul\":5090:5152   */\n      swap2\n      pop\n        /* \"#utility.yul\":5046:5162   */\n      pop\n        /* \"#utility.yul\":4842:5169   */\n      swap3\n      swap2\n      pop\n      pop\n      jump\t// out\n        /* \"#utility.yul\":5175:5524   */\n    tag_180:\n        /* \"#utility.yul\":5244:5250   */\n      0x00\n        /* \"#utility.yul\":5293:5295   */\n      0x20\n        /* \"#utility.yul\":5281:5290   */\n      dup3\n        /* \"#utility.yul\":5272:5279   */\n      dup5\n        /* \"#utility.yul\":5268:5291   */\n      sub\n        /* \"#utility.yul\":5264:5296   */\n      slt\n        /* \"#utility.yul\":5261:5380   */\n      iszero\n      tag_270\n      jumpi\n        /* \"#utility.yul\":5299:5378   */\n      tag_271\n      tag_232\n      jump\t// in\n    tag_271:\n        /* \"#utility.yul\":5261:5380   */\n    tag_270:\n        /* \"#utility.yul\":5419:5420   */\n      0x00\n        /* \"#utility.yul\":5444:5507   */\n      tag_272\n        /* \"#utility.yul\":5499:5506   */\n      dup5\n        /* \"#utility.yul\":5490:5496   */\n      dup3\n        /* \"#utility.yul\":5479:5488   */\n      dup6\n        /* \"#utility.yul\":5475:5497   */\n      add\n        /* \"#utility.yul\":5444:5507   */\n      tag_216\n      jump\t// in\n    tag_272:\n        /* \"#utility.yul\":5434:5507   */\n      swap2\n      pop\n        /* \"#utility.yul\":5390:5517   */\n      pop\n        /* \"#utility.yul\":5175:5524   */\n      swap3\n      swap2\n      pop\n      pop\n      jump\t// out\n        /* \"#utility.yul\":5530:5859   */\n    tag_24:\n        /* \"#utility.yul\":5589:5595   */\n      0x00\n        /* \"#utility.yul\":5638:5640   */\n      0x20\n        /* \"#utility.yul\":5626:5635   */\n      dup3\n        /* \"#utility.yul\":5617:5624   */\n      dup5\n        /* \"#utility.yul\":5613:5636   */\n      sub\n        /* \"#utility.yul\":5609:5641   */\n      slt\n        /* \"#utility.yul\":5606:5725   */\n      iszero\n      tag_274\n      jumpi\n        /* \"#utility.yul\":5644:5723   */\n      tag_275\n      tag_232\n      jump\t// in\n    tag_275:\n        /* \"#utility.yul\":5606:5725   */\n    tag_274:\n        /* \"#utility.yul\":5764:5765   */\n      0x00\n        /* \"#utility.yul\":5789:5842   */\n      tag_276\n        /* \"#utility.yul\":5834:5841   */\n      dup5\n        /* \"#utility.yul\":5825:5831   */\n      dup3\n        /* \"#utility.yul\":5814:5823   */\n      dup6\n        /* \"#utility.yul\":5810:5832   */\n      add\n        /* \"#utility.yul\":5789:5842   */\n      tag_225\n      jump\t// in\n    tag_276:\n        /* \"#utility.yul\":5779:5842   */\n      swap2\n      pop\n        /* \"#utility.yul\":5735:5852   */\n      pop\n        /* \"#utility.yul\":5530:5859   */\n      swap3\n      swap2\n      pop\n      pop\n      jump\t// out\n        /* \"#utility.yul\":5865:5983   */\n    tag_277:\n        /* \"#utility.yul\":5952:5976   */\n      tag_279\n        /* \"#utility.yul\":5970:5975   */\n      dup2\n        /* \"#utility.yul\":5952:5976   */\n      tag_280\n      jump\t// in\n    tag_279:\n        /* \"#utility.yul\":5947:5950   */\n      dup3\n        /* \"#utility.yul\":5940:5977   */\n      mstore\n        /* \"#utility.yul\":5865:5983   */\n      pop\n      pop\n      jump\t// out\n        /* \"#utility.yul\":5989:6098   */\n    tag_281:\n        /* \"#utility.yul\":6070:6091   */\n      tag_283\n        /* \"#utility.yul\":6085:6090   */\n      dup2\n        /* \"#utility.yul\":6070:6091   */\n      tag_284\n      jump\t// in\n    tag_283:\n        /* \"#utility.yul\":6065:6068   */\n      dup3\n        /* \"#utility.yul\":6058:6092   */\n      mstore\n        /* \"#utility.yul\":5989:6098   */\n      pop\n      pop\n      jump\t// out\n        /* \"#utility.yul\":6104:6464   */\n    tag_285:\n        /* \"#utility.yul\":6190:6193   */\n      0x00\n        /* \"#utility.yul\":6218:6256   */\n      tag_287\n        /* \"#utility.yul\":6250:6255   */\n      dup3\n        /* \"#utility.yul\":6218:6256   */\n      tag_288\n      jump\t// in\n    tag_287:\n        /* \"#utility.yul\":6272:6342   */\n      tag_289\n        /* \"#utility.yul\":6335:6341   */\n      dup2\n        /* \"#utility.yul\":6330:6333   */\n      dup6\n        /* \"#utility.yul\":6272:6342   */\n      tag_290\n      jump\t// in\n    tag_289:\n        /* \"#utility.yul\":6265:6342   */\n      swap4\n      pop\n        /* \"#utility.yul\":6351:6403   */\n      tag_291\n        /* \"#utility.yul\":6396:6402   */\n      dup2\n        /* \"#utility.yul\":6391:6394   */\n      dup6\n        /* \"#utility.yul\":6384:6388   */\n      0x20\n        /* \"#utility.yul\":6377:6382   */\n      dup7\n        /* \"#utility.yul\":6373:6389   */\n      add\n        /* \"#utility.yul\":6351:6403   */\n      tag_292\n      jump\t// in\n    tag_291:\n        /* \"#utility.yul\":6428:6457   */\n      tag_293\n        /* \"#utility.yul\":6450:6456   */\n      dup2\n        /* \"#utility.yul\":6428:6457   */\n      tag_294\n      jump\t// in\n    tag_293:\n        /* \"#utility.yul\":6423:6426   */\n      dup5\n        /* \"#utility.yul\":6419:6458   */\n      add\n        /* \"#utility.yul\":6412:6458   */\n      swap2\n      pop\n        /* \"#utility.yul\":6194:6464   */\n      pop\n        /* \"#utility.yul\":6104:6464   */\n      swap3\n      swap2\n      pop\n      pop\n      jump\t// out\n        /* \"#utility.yul\":6470:6836   */\n    tag_295:\n        /* \"#utility.yul\":6612:6615   */\n      0x00\n        /* \"#utility.yul\":6633:6700   */\n      tag_297\n        /* \"#utility.yul\":6697:6699   */\n      0x32\n        /* \"#utility.yul\":6692:6695   */\n      dup4\n        /* \"#utility.yul\":6633:6700   */\n      tag_298\n      jump\t// in\n    tag_297:\n        /* \"#utility.yul\":6626:6700   */\n      swap2\n      pop\n        /* \"#utility.yul\":6709:6802   */\n      tag_299\n        /* \"#utility.yul\":6798:6801   */\n      dup3\n        /* \"#utility.yul\":6709:6802   */\n      tag_300\n      jump\t// in\n    tag_299:\n        /* \"#utility.yul\":6827:6829   */\n      0x40\n        /* \"#utility.yul\":6822:6825   */\n      dup3\n        /* \"#utility.yul\":6818:6830   */\n      add\n        /* \"#utility.yul\":6811:6830   */\n      swap1\n      pop\n        /* \"#utility.yul\":6470:6836   */\n      swap2\n      swap1\n      pop\n      jump\t// out\n        /* \"#utility.yul\":6842:7208   */\n    tag_301:\n        /* \"#utility.yul\":6984:6987   */\n      0x00\n        /* \"#utility.yul\":7005:7072   */\n      tag_303\n        /* \"#utility.yul\":7069:7071   */\n      0x1c\n        /* \"#utility.yul\":7064:7067   */\n      dup4\n        /* \"#utility.yul\":7005:7072   */\n      tag_298\n      jump\t// in\n    tag_303:\n        /* \"#utility.yul\":6998:7072   */\n      swap2\n      pop\n        /* \"#utility.yul\":7081:7174   */\n      tag_304\n        /* \"#utility.yul\":7170:7173   */\n      dup3\n        /* \"#utility.yul\":7081:7174   */\n      tag_305\n      jump\t// in\n    tag_304:\n        /* \"#utility.yul\":7199:7201   */\n      0x20\n        /* \"#utility.yul\":7194:7197   */\n      dup3\n        /* \"#utility.yul\":7190:7202   */\n      add\n        /* \"#utility.yul\":7183:7202   */\n      swap1\n      pop\n        /* \"#utility.yul\":6842:7208   */\n      swap2\n      swap1\n      pop\n      jump\t// out\n        /* \"#utility.yul\":7214:7580   */\n    tag_306:\n        /* \"#utility.yul\":7356:7359   */\n      0x00\n        /* \"#utility.yul\":7377:7444   */\n      tag_308\n        /* \"#utility.yul\":7441:7443   */\n      0x24\n        /* \"#utility.yul\":7436:7439   */\n      dup4\n        /* \"#utility.yul\":7377:7444   */\n      tag_298\n      jump\t// in\n    tag_308:\n        /* \"#utility.yul\":7370:7444   */\n      swap2\n      pop\n        /* \"#utility.yul\":7453:7546   */\n      tag_309\n        /* \"#utility.yul\":7542:7545   */\n      dup3\n        /* \"#utility.yul\":7453:7546   */\n      tag_310\n      jump\t// in\n    tag_309:\n        /* \"#utility.yul\":7571:7573   */\n      0x40\n        /* \"#utility.yul\":7566:7569   */\n      dup3\n        /* \"#utility.yul\":7562:7574   */\n      add\n        /* \"#utility.yul\":7555:7574   */\n      swap1\n      pop\n        /* \"#utility.yul\":7214:7580   */\n      swap2\n      swap1\n      pop\n      jump\t// out\n        /* \"#utility.yul\":7586:7952   */\n    tag_311:\n        /* \"#utility.yul\":7728:7731   */\n      0x00\n        /* \"#utility.yul\":7749:7816   */\n      tag_313\n        /* \"#utility.yul\":7813:7815   */\n      0x19\n        /* \"#utility.yul\":7808:7811   */\n      dup4\n        /* \"#utility.yul\":7749:7816   */\n      tag_298\n      jump\t// in\n    tag_313:\n        /* \"#utility.yul\":7742:7816   */\n      swap2\n      pop\n        /* \"#utility.yul\":7825:7918   */\n      tag_314\n        /* \"#utility.yul\":7914:7917   */\n      dup3\n        /* \"#utility.yul\":7825:7918   */\n      tag_315\n      jump\t// in\n    tag_314:\n        /* \"#utility.yul\":7943:7945   */\n      0x20\n        /* \"#utility.yul\":7938:7941   */\n      dup3\n        /* \"#utility.yul\":7934:7946   */\n      add\n        /* \"#utility.yul\":7927:7946   */\n      swap1\n      pop\n        /* \"#utility.yul\":7586:7952   */\n      swap2\n      swap1\n      pop\n      jump\t// out\n        /* \"#utility.yul\":7958:8324   */\n    tag_316:\n        /* \"#utility.yul\":8100:8103   */\n      0x00\n        /* \"#utility.yul\":8121:8188   */\n      tag_318\n        /* \"#utility.yul\":8185:8187   */\n      0x2c\n        /* \"#utility.yul\":8180:8183   */\n      dup4\n        /* \"#utility.yul\":8121:8188   */\n      tag_298\n      jump\t// in\n    tag_318:\n        /* \"#utility.yul\":8114:8188   */\n      swap2\n      pop\n        /* \"#utility.yul\":8197:8290   */\n      tag_319\n        /* \"#utility.yul\":8286:8289   */\n      dup3\n        /* \"#utility.yul\":8197:8290   */\n      tag_320\n      jump\t// in\n    tag_319:\n        /* \"#utility.yul\":8315:8317   */\n      0x40\n        /* \"#utility.yul\":8310:8313   */\n      dup3\n        /* \"#utility.yul\":8306:8318   */\n      add\n        /* \"#utility.yul\":8299:8318   */\n      swap1\n      pop\n        /* \"#utility.yul\":7958:8324   */\n      swap2\n      swap1\n      pop\n      jump\t// out\n        /* \"#utility.yul\":8330:8696   */\n    tag_321:\n        /* \"#utility.yul\":8472:8475   */\n      0x00\n        /* \"#utility.yul\":8493:8560   */\n      tag_323\n        /* \"#utility.yul\":8557:8559   */\n      0x38\n        /* \"#utility.yul\":8552:8555   */\n      dup4\n        /* \"#utility.yul\":8493:8560   */\n      tag_298\n      jump\t// in\n    tag_323:\n        /* \"#utility.yul\":8486:8560   */\n      swap2\n      pop\n        /* \"#utility.yul\":8569:8662   */\n      tag_324\n        /* \"#utility.yul\":8658:8661   */\n      dup3\n        /* \"#utility.yul\":8569:8662   */\n      tag_325\n      jump\t// in\n    tag_324:\n        /* \"#utility.yul\":8687:8689   */\n      0x40\n        /* \"#utility.yul\":8682:8685   */\n      dup3\n        /* \"#utility.yul\":8678:8690   */\n      add\n        /* \"#utility.yul\":8671:8690   */\n      swap1\n      pop\n        /* \"#utility.yul\":8330:8696   */\n      swap2\n      swap1\n      pop\n      jump\t// out\n        /* \"#utility.yul\":8702:9068   */\n    tag_326:\n        /* \"#utility.yul\":8844:8847   */\n      0x00\n        /* \"#utility.yul\":8865:8932   */\n      tag_328\n        /* \"#utility.yul\":8929:8931   */\n      0x2a\n        /* \"#utility.yul\":8924:8927   */\n      dup4\n        /* \"#utility.yul\":8865:8932   */\n      tag_298\n      jump\t// in\n    tag_328:\n        /* \"#utility.yul\":8858:8932   */\n      swap2\n      pop\n        /* \"#utility.yul\":8941:9034   */\n      tag_329\n        /* \"#utility.yul\":9030:9033   */\n      dup3\n        /* \"#utility.yul\":8941:9034   */\n      tag_330\n      jump\t// in\n    tag_329:\n        /* \"#utility.yul\":9059:9061   */\n      0x40\n        /* \"#utility.yul\":9054:9057   */\n      dup3\n        /* \"#utility.yul\":9050:9062   */\n      add\n        /* \"#utility.yul\":9043:9062   */\n      swap1\n      pop\n        /* \"#utility.yul\":8702:9068   */\n      swap2\n      swap1\n      pop\n      jump\t// out\n        /* \"#utility.yul\":9074:9440   */\n    tag_331:\n        /* \"#utility.yul\":9216:9219   */\n      0x00\n        /* \"#utility.yul\":9237:9304   */\n      tag_333\n        /* \"#utility.yul\":9301:9303   */\n      0x29\n        /* \"#utility.yul\":9296:9299   */\n      dup4\n        /* \"#utility.yul\":9237:9304   */\n      tag_298\n      jump\t// in\n    tag_333:\n        /* \"#utility.yul\":9230:9304   */\n      swap2\n      pop\n        /* \"#utility.yul\":9313:9406   */\n      tag_334\n        /* \"#utility.yul\":9402:9405   */\n      dup3\n        /* \"#utility.yul\":9313:9406   */\n      tag_335\n      jump\t// in\n    tag_334:\n        /* \"#utility.yul\":9431:9433   */\n      0x40\n        /* \"#utility.yul\":9426:9429   */\n      dup3\n        /* \"#utility.yul\":9422:9434   */\n      add\n        /* \"#utility.yul\":9415:9434   */\n      swap1\n      pop\n        /* \"#utility.yul\":9074:9440   */\n      swap2\n      swap1\n      pop\n      jump\t// out\n        /* \"#utility.yul\":9446:9812   */\n    tag_336:\n        /* \"#utility.yul\":9588:9591   */\n      0x00\n        /* \"#utility.yul\":9609:9676   */\n      tag_338\n        /* \"#utility.yul\":9673:9675   */\n      0x20\n        /* \"#utility.yul\":9668:9671   */\n      dup4\n        /* \"#utility.yul\":9609:9676   */\n      tag_298\n      jump\t// in\n    tag_338:\n        /* \"#utility.yul\":9602:9676   */\n      swap2\n      pop\n        /* \"#utility.yul\":9685:9778   */\n      tag_339\n        /* \"#utility.yul\":9774:9777   */\n      dup3\n        /* \"#utility.yul\":9685:9778   */\n      tag_340\n      jump\t// in\n    tag_339:\n        /* \"#utility.yul\":9803:9805   */\n      0x20\n        /* \"#utility.yul\":9798:9801   */\n      dup3\n        /* \"#utility.yul\":9794:9806   */\n      add\n        /* \"#utility.yul\":9787:9806   */\n      swap1\n      pop\n        /* \"#utility.yul\":9446:9812   */\n      swap2\n      swap1\n      pop\n      jump\t// out\n        /* \"#utility.yul\":9818:10184   */\n    tag_341:\n        /* \"#utility.yul\":9960:9963   */\n      0x00\n        /* \"#utility.yul\":9981:10048   */\n      tag_343\n        /* \"#utility.yul\":10045:10047   */\n      0x2c\n        /* \"#utility.yul\":10040:10043   */\n      dup4\n        /* \"#utility.yul\":9981:10048   */\n      tag_298\n      jump\t// in\n    tag_343:\n        /* \"#utility.yul\":9974:10048   */\n      swap2\n      pop\n        /* \"#utility.yul\":10057:10150   */\n      tag_344\n        /* \"#utility.yul\":10146:10149   */\n      dup3\n        /* \"#utility.yul\":10057:10150   */\n      tag_345\n      jump\t// in\n    tag_344:\n        /* \"#utility.yul\":10175:10177   */\n      0x40\n        /* \"#utility.yul\":10170:10173   */\n      dup3\n        /* \"#utility.yul\":10166:10178   */\n      add\n        /* \"#utility.yul\":10159:10178   */\n      swap1\n      pop\n        /* \"#utility.yul\":9818:10184   */\n      swap2\n      swap1\n      pop\n      jump\t// out\n        /* \"#utility.yul\":10190:10556   */\n    tag_346:\n        /* \"#utility.yul\":10332:10335   */\n      0x00\n        /* \"#utility.yul\":10353:10420   */\n      tag_348\n        /* \"#utility.yul\":10417:10419   */\n      0x29\n        /* \"#utility.yul\":10412:10415   */\n      dup4\n        /* \"#utility.yul\":10353:10420   */\n      tag_298\n      jump\t// in\n    tag_348:\n        /* \"#utility.yul\":10346:10420   */\n      swap2\n      pop\n        /* \"#utility.yul\":10429:10522   */\n      tag_349\n        /* \"#utility.yul\":10518:10521   */\n      dup3\n        /* \"#utility.yul\":10429:10522   */\n      tag_350\n      jump\t// in\n    tag_349:\n        /* \"#utility.yul\":10547:10549   */\n      0x40\n        /* \"#utility.yul\":10542:10545   */\n      dup3\n        /* \"#utility.yul\":10538:10550   */\n      add\n        /* \"#utility.yul\":10531:10550   */\n      swap1\n      pop\n        /* \"#utility.yul\":10190:10556   */\n      swap2\n      swap1\n      pop\n      jump\t// out\n        /* \"#utility.yul\":10562:10928   */\n    tag_351:\n        /* \"#utility.yul\":10704:10707   */\n      0x00\n        /* \"#utility.yul\":10725:10792   */\n      tag_353\n        /* \"#utility.yul\":10789:10791   */\n      0x21\n        /* \"#utility.yul\":10784:10787   */\n      dup4\n        /* \"#utility.yul\":10725:10792   */\n      tag_298\n      jump\t// in\n    tag_353:\n        /* \"#utility.yul\":10718:10792   */\n      swap2\n      pop\n        /* \"#utility.yul\":10801:10894   */\n      tag_354\n        /* \"#utility.yul\":10890:10893   */\n      dup3\n        /* \"#utility.yul\":10801:10894   */\n      tag_355\n      jump\t// in\n    tag_354:\n        /* \"#utility.yul\":10919:10921   */\n      0x40\n        /* \"#utility.yul\":10914:10917   */\n      dup3\n        /* \"#utility.yul\":10910:10922   */\n      add\n        /* \"#utility.yul\":10903:10922   */\n      swap1\n      pop\n        /* \"#utility.yul\":10562:10928   */\n      swap2\n      swap1\n      pop\n      jump\t// out\n        /* \"#utility.yul\":10934:11300   */\n    tag_356:\n        /* \"#utility.yul\":11076:11079   */\n      0x00\n        /* \"#utility.yul\":11097:11164   */\n      tag_358\n        /* \"#utility.yul\":11161:11163   */\n      0x31\n        /* \"#utility.yul\":11156:11159   */\n      dup4\n        /* \"#utility.yul\":11097:11164   */\n      tag_298\n      jump\t// in\n    tag_358:\n        /* \"#utility.yul\":11090:11164   */\n      swap2\n      pop\n        /* \"#utility.yul\":11173:11266   */\n      tag_359\n        /* \"#utility.yul\":11262:11265   */\n      dup3\n        /* \"#utility.yul\":11173:11266   */\n      tag_360\n      jump\t// in\n    tag_359:\n        /* \"#utility.yul\":11291:11293   */\n      0x40\n        /* \"#utility.yul\":11286:11289   */\n      dup3\n        /* \"#utility.yul\":11282:11294   */\n      add\n        /* \"#utility.yul\":11275:11294   */\n      swap1\n      pop\n        /* \"#utility.yul\":10934:11300   */\n      swap2\n      swap1\n      pop\n      jump\t// out\n        /* \"#utility.yul\":11306:11672   */\n    tag_361:\n        /* \"#utility.yul\":11448:11451   */\n      0x00\n        /* \"#utility.yul\":11469:11536   */\n      tag_363\n        /* \"#utility.yul\":11533:11535   */\n      0x25\n        /* \"#utility.yul\":11528:11531   */\n      dup4\n        /* \"#utility.yul\":11469:11536   */\n      tag_298\n      jump\t// in\n    tag_363:\n        /* \"#utility.yul\":11462:11536   */\n      swap2\n      pop\n        /* \"#utility.yul\":11545:11638   */\n      tag_364\n        /* \"#utility.yul\":11634:11637   */\n      dup3\n        /* \"#utility.yul\":11545:11638   */\n      tag_365\n      jump\t// in\n    tag_364:\n        /* \"#utility.yul\":11663:11665   */\n      0x40\n        /* \"#utility.yul\":11658:11661   */\n      dup3\n        /* \"#utility.yul\":11654:11666   */\n      add\n        /* \"#utility.yul\":11647:11666   */\n      swap1\n      pop\n        /* \"#utility.yul\":11306:11672   */\n      swap2\n      swap1\n      pop\n      jump\t// out\n        /* \"#utility.yul\":11678:11796   */\n    tag_366:\n        /* \"#utility.yul\":11765:11789   */\n      tag_368\n        /* \"#utility.yul\":11783:11788   */\n      dup2\n        /* \"#utility.yul\":11765:11789   */\n      tag_369\n      jump\t// in\n    tag_368:\n        /* \"#utility.yul\":11760:11763   */\n      dup3\n        /* \"#utility.yul\":11753:11790   */\n      mstore\n        /* \"#utility.yul\":11678:11796   */\n      pop\n      pop\n      jump\t// out\n        /* \"#utility.yul\":11802:12024   */\n    tag_27:\n        /* \"#utility.yul\":11895:11899   */\n      0x00\n        /* \"#utility.yul\":11933:11935   */\n      0x20\n        /* \"#utility.yul\":11922:11931   */\n      dup3\n        /* \"#utility.yul\":11918:11936   */\n      add\n        /* \"#utility.yul\":11910:11936   */\n      swap1\n      pop\n        /* \"#utility.yul\":11946:12017   */\n      tag_371\n        /* \"#utility.yul\":12014:12015   */\n      0x00\n        /* \"#utility.yul\":12003:12012   */\n      dup4\n        /* \"#utility.yul\":11999:12016   */\n      add\n        /* \"#utility.yul\":11990:11996   */\n      dup5\n        /* \"#utility.yul\":11946:12017   */\n      tag_277\n      jump\t// in\n    tag_371:\n        /* \"#utility.yul\":11802:12024   */\n      swap3\n      swap2\n      pop\n      pop\n      jump\t// out\n        /* \"#utility.yul\":12030:12670   */\n    tag_176:\n        /* \"#utility.yul\":12225:12229   */\n      0x00\n        /* \"#utility.yul\":12263:12266   */\n      0x80\n        /* \"#utility.yul\":12252:12261   */\n      dup3\n        /* \"#utility.yul\":12248:12267   */\n      add\n        /* \"#utility.yul\":12240:12267   */\n      swap1\n      pop\n        /* \"#utility.yul\":12277:12348   */\n      tag_373\n        /* \"#utility.yul\":12345:12346   */\n      0x00\n        /* \"#utility.yul\":12334:12343   */\n      dup4\n        /* \"#utility.yul\":12330:12347   */\n      add\n        /* \"#utility.yul\":12321:12327   */\n      dup8\n        /* \"#utility.yul\":12277:12348   */\n      tag_277\n      jump\t// in\n    tag_373:\n        /* \"#utility.yul\":12358:12430   */\n      tag_374\n        /* \"#utility.yul\":12426:12428   */\n      0x20\n        /* \"#utility.yul\":12415:12424   */\n      dup4\n        /* \"#utility.yul\":12411:12429   */\n      add\n        /* \"#utility.yul\":12402:12408   */\n      dup7\n        /* \"#utility.yul\":12358:12430   */\n      tag_277\n      jump\t// in\n    tag_374:\n        /* \"#utility.yul\":12440:12512   */\n      tag_375\n        /* \"#utility.yul\":12508:12510   */\n      0x40\n        /* \"#utility.yul\":12497:12506   */\n      dup4\n        /* \"#utility.yul\":12493:12511   */\n      add\n        /* \"#utility.yul\":12484:12490   */\n      dup6\n        /* \"#utility.yul\":12440:12512   */\n      tag_366\n      jump\t// in\n    tag_375:\n        /* \"#utility.yul\":12559:12568   */\n      dup2\n        /* \"#utility.yul\":12553:12557   */\n      dup2\n        /* \"#utility.yul\":12549:12569   */\n      sub\n        /* \"#utility.yul\":12544:12546   */\n      0x60\n        /* \"#utility.yul\":12533:12542   */\n      dup4\n        /* \"#utility.yul\":12529:12547   */\n      add\n        /* \"#utility.yul\":12522:12570   */\n      mstore\n        /* \"#utility.yul\":12587:12663   */\n      tag_376\n        /* \"#utility.yul\":12658:12662   */\n      dup2\n        /* \"#utility.yul\":12649:12655   */\n      dup5\n        /* \"#utility.yul\":12587:12663   */\n      tag_285\n      jump\t// in\n    tag_376:\n        /* \"#utility.yul\":12579:12663   */\n      swap1\n      pop\n        /* \"#utility.yul\":12030:12670   */\n      swap6\n      swap5\n      pop\n      pop\n      pop\n      pop\n      pop\n      jump\t// out\n        /* \"#utility.yul\":12676:12886   */\n    tag_21:\n        /* \"#utility.yul\":12763:12767   */\n      0x00\n        /* \"#utility.yul\":12801:12803   */\n      0x20\n        /* \"#utility.yul\":12790:12799   */\n      dup3\n        /* \"#utility.yul\":12786:12804   */\n      add\n        /* \"#utility.yul\":12778:12804   */\n      swap1\n      pop\n        /* \"#utility.yul\":12814:12879   */\n      tag_378\n        /* \"#utility.yul\":12876:12877   */\n      0x00\n        /* \"#utility.yul\":12865:12874   */\n      dup4\n        /* \"#utility.yul\":12861:12878   */\n      add\n        /* \"#utility.yul\":12852:12858   */\n      dup5\n        /* \"#utility.yul\":12814:12879   */\n      tag_281\n      jump\t// in\n    tag_378:\n        /* \"#utility.yul\":12676:12886   */\n      swap3\n      swap2\n      pop\n      pop\n      jump\t// out\n        /* \"#utility.yul\":12892:13311   */\n    tag_172:\n        /* \"#utility.yul\":13058:13062   */\n      0x00\n        /* \"#utility.yul\":13096:13098   */\n      0x20\n        /* \"#utility.yul\":13085:13094   */\n      dup3\n        /* \"#utility.yul\":13081:13099   */\n      add\n        /* \"#utility.yul\":13073:13099   */\n      swap1\n      pop\n        /* \"#utility.yul\":13145:13154   */\n      dup2\n        /* \"#utility.yul\":13139:13143   */\n      dup2\n        /* \"#utility.yul\":13135:13155   */\n      sub\n        /* \"#utility.yul\":13131:13132   */\n      0x00\n        /* \"#utility.yul\":13120:13129   */\n      dup4\n        /* \"#utility.yul\":13116:13133   */\n      add\n        /* \"#utility.yul\":13109:13156   */\n      mstore\n        /* \"#utility.yul\":13173:13304   */\n      tag_380\n        /* \"#utility.yul\":13299:13303   */\n      dup2\n        /* \"#utility.yul\":13173:13304   */\n      tag_295\n      jump\t// in\n    tag_380:\n        /* \"#utility.yul\":13165:13304   */\n      swap1\n      pop\n        /* \"#utility.yul\":12892:13311   */\n      swap2\n      swap1\n      pop\n      jump\t// out\n        /* \"#utility.yul\":13317:13736   */\n    tag_157:\n        /* \"#utility.yul\":13483:13487   */\n      0x00\n        /* \"#utility.yul\":13521:13523   */\n      0x20\n        /* \"#utility.yul\":13510:13519   */\n      dup3\n        /* \"#utility.yul\":13506:13524   */\n      add\n        /* \"#utility.yul\":13498:13524   */\n      swap1\n      pop\n        /* \"#utility.yul\":13570:13579   */\n      dup2\n        /* \"#utility.yul\":13564:13568   */\n      dup2\n        /* \"#utility.yul\":13560:13580   */\n      sub\n        /* \"#utility.yul\":13556:13557   */\n      0x00\n        /* \"#utility.yul\":13545:13554   */\n      dup4\n        /* \"#utility.yul\":13541:13558   */\n      add\n        /* \"#utility.yul\":13534:13581   */\n      mstore\n        /* \"#utility.yul\":13598:13729   */\n      tag_382\n        /* \"#utility.yul\":13724:13728   */\n      dup2\n        /* \"#utility.yul\":13598:13729   */\n      tag_301\n      jump\t// in\n    tag_382:\n        /* \"#utility.yul\":13590:13729   */\n      swap1\n      pop\n        /* \"#utility.yul\":13317:13736   */\n      swap2\n      swap1\n      pop\n      jump\t// out\n        /* \"#utility.yul\":13742:14161   */\n    tag_144:\n        /* \"#utility.yul\":13908:13912   */\n      0x00\n        /* \"#utility.yul\":13946:13948   */\n      0x20\n        /* \"#utility.yul\":13935:13944   */\n      dup3\n        /* \"#utility.yul\":13931:13949   */\n      add\n        /* \"#utility.yul\":13923:13949   */\n      swap1\n      pop\n        /* \"#utility.yul\":13995:14004   */\n      dup2\n        /* \"#utility.yul\":13989:13993   */\n      dup2\n        /* \"#utility.yul\":13985:14005   */\n      sub\n        /* \"#utility.yul\":13981:13982   */\n      0x00\n        /* \"#utility.yul\":13970:13979   */\n      dup4\n        /* \"#utility.yul\":13966:13983   */\n      add\n        /* \"#utility.yul\":13959:14006   */\n      mstore\n        /* \"#utility.yul\":14023:14154   */\n      tag_384\n        /* \"#utility.yul\":14149:14153   */\n      dup2\n        /* \"#utility.yul\":14023:14154   */\n      tag_306\n      jump\t// in\n    tag_384:\n        /* \"#utility.yul\":14015:14154   */\n      swap1\n      pop\n        /* \"#utility.yul\":13742:14161   */\n      swap2\n      swap1\n      pop\n      jump\t// out\n        /* \"#utility.yul\":14167:14586   */\n    tag_115:\n        /* \"#utility.yul\":14333:14337   */\n      0x00\n        /* \"#utility.yul\":14371:14373   */\n      0x20\n        /* \"#utility.yul\":14360:14369   */\n      dup3\n        /* \"#utility.yul\":14356:14374   */\n      add\n        /* \"#utility.yul\":14348:14374   */\n      swap1\n      pop\n        /* \"#utility.yul\":14420:14429   */\n      dup2\n        /* \"#utility.yul\":14414:14418   */\n      dup2\n        /* \"#utility.yul\":14410:14430   */\n      sub\n        /* \"#utility.yul\":14406:14407   */\n      0x00\n        /* \"#utility.yul\":14395:14404   */\n      dup4\n        /* \"#utility.yul\":14391:14408   */\n      add\n        /* \"#utility.yul\":14384:14431   */\n      mstore\n        /* \"#utility.yul\":14448:14579   */\n      tag_386\n        /* \"#utility.yul\":14574:14578   */\n      dup2\n        /* \"#utility.yul\":14448:14579   */\n      tag_311\n      jump\t// in\n    tag_386:\n        /* \"#utility.yul\":14440:14579   */\n      swap1\n      pop\n        /* \"#utility.yul\":14167:14586   */\n      swap2\n      swap1\n      pop\n      jump\t// out\n        /* \"#utility.yul\":14592:15011   */\n    tag_131:\n        /* \"#utility.yul\":14758:14762   */\n      0x00\n        /* \"#utility.yul\":14796:14798   */\n      0x20\n        /* \"#utility.yul\":14785:14794   */\n      dup3\n        /* \"#utility.yul\":14781:14799   */\n      add\n        /* \"#utility.yul\":14773:14799   */\n      swap1\n      pop\n        /* \"#utility.yul\":14845:14854   */\n      dup2\n        /* \"#utility.yul\":14839:14843   */\n      dup2\n        /* \"#utility.yul\":14835:14855   */\n      sub\n        /* \"#utility.yul\":14831:14832   */\n      0x00\n        /* \"#utility.yul\":14820:14829   */\n      dup4\n        /* \"#utility.yul\":14816:14833   */\n      add\n        /* \"#utility.yul\":14809:14856   */\n      mstore\n        /* \"#utility.yul\":14873:15004   */\n      tag_388\n        /* \"#utility.yul\":14999:15003   */\n      dup2\n        /* \"#utility.yul\":14873:15004   */\n      tag_316\n      jump\t// in\n    tag_388:\n        /* \"#utility.yul\":14865:15004   */\n      swap1\n      pop\n        /* \"#utility.yul\":14592:15011   */\n      swap2\n      swap1\n      pop\n      jump\t// out\n        /* \"#utility.yul\":15017:15436   */\n    tag_85:\n        /* \"#utility.yul\":15183:15187   */\n      0x00\n        /* \"#utility.yul\":15221:15223   */\n      0x20\n        /* \"#utility.yul\":15210:15219   */\n      dup3\n        /* \"#utility.yul\":15206:15224   */\n      add\n        /* \"#utility.yul\":15198:15224   */\n      swap1\n      pop\n        /* \"#utility.yul\":15270:15279   */\n      dup2\n        /* \"#utility.yul\":15264:15268   */\n      dup2\n        /* \"#utility.yul\":15260:15280   */\n      sub\n        /* \"#utility.yul\":15256:15257   */\n      0x00\n        /* \"#utility.yul\":15245:15254   */\n      dup4\n        /* \"#utility.yul\":15241:15258   */\n      add\n        /* \"#utility.yul\":15234:15281   */\n      mstore\n        /* \"#utility.yul\":15298:15429   */\n      tag_390\n        /* \"#utility.yul\":15424:15428   */\n      dup2\n        /* \"#utility.yul\":15298:15429   */\n      tag_321\n      jump\t// in\n    tag_390:\n        /* \"#utility.yul\":15290:15429   */\n      swap1\n      pop\n        /* \"#utility.yul\":15017:15436   */\n      swap2\n      swap1\n      pop\n      jump\t// out\n        /* \"#utility.yul\":15442:15861   */\n    tag_111:\n        /* \"#utility.yul\":15608:15612   */\n      0x00\n        /* \"#utility.yul\":15646:15648   */\n      0x20\n        /* \"#utility.yul\":15635:15644   */\n      dup3\n        /* \"#utility.yul\":15631:15649   */\n      add\n        /* \"#utility.yul\":15623:15649   */\n      swap1\n      pop\n        /* \"#utility.yul\":15695:15704   */\n      dup2\n        /* \"#utility.yul\":15689:15693   */\n      dup2\n        /* \"#utility.yul\":15685:15705   */\n      sub\n        /* \"#utility.yul\":15681:15682   */\n      0x00\n        /* \"#utility.yul\":15670:15679   */\n      dup4\n        /* \"#utility.yul\":15666:15683   */\n      add\n        /* \"#utility.yul\":15659:15706   */\n      mstore\n        /* \"#utility.yul\":15723:15854   */\n      tag_392\n        /* \"#utility.yul\":15849:15853   */\n      dup2\n        /* \"#utility.yul\":15723:15854   */\n      tag_326\n      jump\t// in\n    tag_392:\n        /* \"#utility.yul\":15715:15854   */\n      swap1\n      pop\n        /* \"#utility.yul\":15442:15861   */\n      swap2\n      swap1\n      pop\n      jump\t// out\n        /* \"#utility.yul\":15867:16286   */\n    tag_107:\n        /* \"#utility.yul\":16033:16037   */\n      0x00\n        /* \"#utility.yul\":16071:16073   */\n      0x20\n        /* \"#utility.yul\":16060:16069   */\n      dup3\n        /* \"#utility.yul\":16056:16074   */\n      add\n        /* \"#utility.yul\":16048:16074   */\n      swap1\n      pop\n        /* \"#utility.yul\":16120:16129   */\n      dup2\n        /* \"#utility.yul\":16114:16118   */\n      dup2\n        /* \"#utility.yul\":16110:16130   */\n      sub\n        /* \"#utility.yul\":16106:16107   */\n      0x00\n        /* \"#utility.yul\":16095:16104   */\n      dup4\n        /* \"#utility.yul\":16091:16108   */\n      add\n        /* \"#utility.yul\":16084:16131   */\n      mstore\n        /* \"#utility.yul\":16148:16279   */\n      tag_394\n        /* \"#utility.yul\":16274:16278   */\n      dup2\n        /* \"#utility.yul\":16148:16279   */\n      tag_331\n      jump\t// in\n    tag_394:\n        /* \"#utility.yul\":16140:16279   */\n      swap1\n      pop\n        /* \"#utility.yul\":15867:16286   */\n      swap2\n      swap1\n      pop\n      jump\t// out\n        /* \"#utility.yul\":16292:16711   */\n    tag_153:\n        /* \"#utility.yul\":16458:16462   */\n      0x00\n        /* \"#utility.yul\":16496:16498   */\n      0x20\n        /* \"#utility.yul\":16485:16494   */\n      dup3\n        /* \"#utility.yul\":16481:16499   */\n      add\n        /* \"#utility.yul\":16473:16499   */\n      swap1\n      pop\n        /* \"#utility.yul\":16545:16554   */\n      dup2\n        /* \"#utility.yul\":16539:16543   */\n      dup2\n        /* \"#utility.yul\":16535:16555   */\n      sub\n        /* \"#utility.yul\":16531:16532   */\n      0x00\n        /* \"#utility.yul\":16520:16529   */\n      dup4\n        /* \"#utility.yul\":16516:16533   */\n      add\n        /* \"#utility.yul\":16509:16556   */\n      mstore\n        /* \"#utility.yul\":16573:16704   */\n      tag_396\n        /* \"#utility.yul\":16699:16703   */\n      dup2\n        /* \"#utility.yul\":16573:16704   */\n      tag_336\n      jump\t// in\n    tag_396:\n        /* \"#utility.yul\":16565:16704   */\n      swap1\n      pop\n        /* \"#utility.yul\":16292:16711   */\n      swap2\n      swap1\n      pop\n      jump\t// out\n        /* \"#utility.yul\":16717:17136   */\n    tag_75:\n        /* \"#utility.yul\":16883:16887   */\n      0x00\n        /* \"#utility.yul\":16921:16923   */\n      0x20\n        /* \"#utility.yul\":16910:16919   */\n      dup3\n        /* \"#utility.yul\":16906:16924   */\n      add\n        /* \"#utility.yul\":16898:16924   */\n      swap1\n      pop\n        /* \"#utility.yul\":16970:16979   */\n      dup2\n        /* \"#utility.yul\":16964:16968   */\n      dup2\n        /* \"#utility.yul\":16960:16980   */\n      sub\n        /* \"#utility.yul\":16956:16957   */\n      0x00\n        /* \"#utility.yul\":16945:16954   */\n      dup4\n        /* \"#utility.yul\":16941:16958   */\n      add\n        /* \"#utility.yul\":16934:16981   */\n      mstore\n        /* \"#utility.yul\":16998:17129   */\n      tag_398\n        /* \"#utility.yul\":17124:17128   */\n      dup2\n        /* \"#utility.yul\":16998:17129   */\n      tag_341\n      jump\t// in\n    tag_398:\n        /* \"#utility.yul\":16990:17129   */\n      swap1\n      pop\n        /* \"#utility.yul\":16717:17136   */\n      swap2\n      swap1\n      pop\n      jump\t// out\n        /* \"#utility.yul\":17142:17561   */\n    tag_141:\n        /* \"#utility.yul\":17308:17312   */\n      0x00\n        /* \"#utility.yul\":17346:17348   */\n      0x20\n        /* \"#utility.yul\":17335:17344   */\n      dup3\n        /* \"#utility.yul\":17331:17349   */\n      add\n        /* \"#utility.yul\":17323:17349   */\n      swap1\n      pop\n        /* \"#utility.yul\":17395:17404   */\n      dup2\n        /* \"#utility.yul\":17389:17393   */\n      dup2\n        /* \"#utility.yul\":17385:17405   */\n      sub\n        /* \"#utility.yul\":17381:17382   */\n      0x00\n        /* \"#utility.yul\":17370:17379   */\n      dup4\n        /* \"#utility.yul\":17366:17383   */\n      add\n        /* \"#utility.yul\":17359:17406   */\n      mstore\n        /* \"#utility.yul\":17423:17554   */\n      tag_400\n        /* \"#utility.yul\":17549:17553   */\n      dup2\n        /* \"#utility.yul\":17423:17554   */\n      tag_346\n      jump\t// in\n    tag_400:\n        /* \"#utility.yul\":17415:17554   */\n      swap1\n      pop\n        /* \"#utility.yul\":17142:17561   */\n      swap2\n      swap1\n      pop\n      jump\t// out\n        /* \"#utility.yul\":17567:17986   */\n    tag_80:\n        /* \"#utility.yul\":17733:17737   */\n      0x00\n        /* \"#utility.yul\":17771:17773   */\n      0x20\n        /* \"#utility.yul\":17760:17769   */\n      dup3\n        /* \"#utility.yul\":17756:17774   */\n      add\n        /* \"#utility.yul\":17748:17774   */\n      swap1\n      pop\n        /* \"#utility.yul\":17820:17829   */\n      dup2\n        /* \"#utility.yul\":17814:17818   */\n      dup2\n        /* \"#utility.yul\":17810:17830   */\n      sub\n        /* \"#utility.yul\":17806:17807   */\n      0x00\n        /* \"#utility.yul\":17795:17804   */\n      dup4\n        /* \"#utility.yul\":17791:17808   */\n      add\n        /* \"#utility.yul\":17784:17831   */\n      mstore\n        /* \"#utility.yul\":17848:17979   */\n      tag_402\n        /* \"#utility.yul\":17974:17978   */\n      dup2\n        /* \"#utility.yul\":17848:17979   */\n      tag_351\n      jump\t// in\n    tag_402:\n        /* \"#utility.yul\":17840:17979   */\n      swap1\n      pop\n        /* \"#utility.yul\":17567:17986   */\n      swap2\n      swap1\n      pop\n      jump\t// out\n        /* \"#utility.yul\":17992:18411   */\n    tag_93:\n        /* \"#utility.yul\":18158:18162   */\n      0x00\n        /* \"#utility.yul\":18196:18198   */\n      0x20\n        /* \"#utility.yul\":18185:18194   */\n      dup3\n        /* \"#utility.yul\":18181:18199   */\n      add\n        /* \"#utility.yul\":18173:18199   */\n      swap1\n      pop\n        /* \"#utility.yul\":18245:18254   */\n      dup2\n        /* \"#utility.yul\":18239:18243   */\n      dup2\n        /* \"#utility.yul\":18235:18255   */\n      sub\n        /* \"#utility.yul\":18231:18232   */\n      0x00\n        /* \"#utility.yul\":18220:18229   */\n      dup4\n        /* \"#utility.yul\":18216:18233   */\n      add\n        /* \"#utility.yul\":18209:18256   */\n      mstore\n        /* \"#utility.yul\":18273:18404   */\n      tag_404\n        /* \"#utility.yul\":18399:18403   */\n      dup2\n        /* \"#utility.yul\":18273:18404   */\n      tag_356\n      jump\t// in\n    tag_404:\n        /* \"#utility.yul\":18265:18404   */\n      swap1\n      pop\n        /* \"#utility.yul\":17992:18411   */\n      swap2\n      swap1\n      pop\n      jump\t// out\n        /* \"#utility.yul\":18417:18836   */\n    tag_163:\n        /* \"#utility.yul\":18583:18587   */\n      0x00\n        /* \"#utility.yul\":18621:18623   */\n      0x20\n        /* \"#utility.yul\":18610:18619   */\n      dup3\n        /* \"#utility.yul\":18606:18624   */\n      add\n        /* \"#utility.yul\":18598:18624   */\n      swap1\n      pop\n        /* \"#utility.yul\":18670:18679   */\n      dup2\n        /* \"#utility.yul\":18664:18668   */\n      dup2\n        /* \"#utility.yul\":18660:18680   */\n      sub\n        /* \"#utility.yul\":18656:18657   */\n      0x00\n        /* \"#utility.yul\":18645:18654   */\n      dup4\n        /* \"#utility.yul\":18641:18658   */\n      add\n        /* \"#utility.yul\":18634:18681   */\n      mstore\n        /* \"#utility.yul\":18698:18829   */\n      tag_406\n        /* \"#utility.yul\":18824:18828   */\n      dup2\n        /* \"#utility.yul\":18698:18829   */\n      tag_361\n      jump\t// in\n    tag_406:\n        /* \"#utility.yul\":18690:18829   */\n      swap1\n      pop\n        /* \"#utility.yul\":18417:18836   */\n      swap2\n      swap1\n      pop\n      jump\t// out\n        /* \"#utility.yul\":18842:19064   */\n    tag_54:\n        /* \"#utility.yul\":18935:18939   */\n      0x00\n        /* \"#utility.yul\":18973:18975   */\n      0x20\n        /* \"#utility.yul\":18962:18971   */\n      dup3\n        /* \"#utility.yul\":18958:18976   */\n      add\n        /* \"#utility.yul\":18950:18976   */\n      swap1\n      pop\n        /* \"#utility.yul\":18986:19057   */\n      tag_408\n        /* \"#utility.yul\":19054:19055   */\n      0x00\n        /* \"#utility.yul\":19043:19052   */\n      dup4\n        /* \"#utility.yul\":19039:19056   */\n      add\n        /* \"#utility.yul\":19030:19036   */\n      dup5\n        /* \"#utility.yul\":18986:19057   */\n      tag_366\n      jump\t// in\n    tag_408:\n        /* \"#utility.yul\":18842:19064   */\n      swap3\n      swap2\n      pop\n      pop\n      jump\t// out\n        /* \"#utility.yul\":19070:19199   */\n    tag_198:\n        /* \"#utility.yul\":19104:19110   */\n      0x00\n        /* \"#utility.yul\":19131:19151   */\n      tag_410\n      tag_411\n      jump\t// in\n    tag_410:\n        /* \"#utility.yul\":19121:19151   */\n      swap1\n      pop\n        /* \"#utility.yul\":19160:19193   */\n      tag_412\n        /* \"#utility.yul\":19188:19192   */\n      dup3\n        /* \"#utility.yul\":19180:19186   */\n      dup3\n        /* \"#utility.yul\":19160:19193   */\n      tag_413\n      jump\t// in\n    tag_412:\n        /* \"#utility.yul\":19070:19199   */\n      swap2\n      swap1\n      pop\n      jump\t// out\n        /* \"#utility.yul\":19205:19280   */\n    tag_411:\n        /* \"#utility.yul\":19238:19244   */\n      0x00\n        /* \"#utility.yul\":19271:19273   */\n      0x40\n        /* \"#utility.yul\":19265:19274   */\n      mload\n        /* \"#utility.yul\":19255:19274   */\n      swap1\n      pop\n        /* \"#utility.yul\":19205:19280   */\n      swap1\n      jump\t// out\n        /* \"#utility.yul\":19286:19593   */\n    tag_197:\n        /* \"#utility.yul\":19347:19351   */\n      0x00\n        /* \"#utility.yul\":19437:19455   */\n      0xffffffffffffffff\n        /* \"#utility.yul\":19429:19435   */\n      dup3\n        /* \"#utility.yul\":19426:19456   */\n      gt\n        /* \"#utility.yul\":19423:19479   */\n      iszero\n      tag_416\n      jumpi\n        /* \"#utility.yul\":19459:19477   */\n      tag_417\n      tag_418\n      jump\t// in\n    tag_417:\n        /* \"#utility.yul\":19423:19479   */\n    tag_416:\n        /* \"#utility.yul\":19497:19526   */\n      tag_419\n        /* \"#utility.yul\":19519:19525   */\n      dup3\n        /* \"#utility.yul\":19497:19526   */\n      tag_294\n      jump\t// in\n    tag_419:\n        /* \"#utility.yul\":19489:19526   */\n      swap1\n      pop\n        /* \"#utility.yul\":19581:19585   */\n      0x20\n        /* \"#utility.yul\":19575:19579   */\n      dup2\n        /* \"#utility.yul\":19571:19586   */\n      add\n        /* \"#utility.yul\":19563:19586   */\n      swap1\n      pop\n        /* \"#utility.yul\":19286:19593   */\n      swap2\n      swap1\n      pop\n      jump\t// out\n        /* \"#utility.yul\":19599:19697   */\n    tag_288:\n        /* \"#utility.yul\":19650:19656   */\n      0x00\n        /* \"#utility.yul\":19684:19689   */\n      dup2\n        /* \"#utility.yul\":19678:19690   */\n      mload\n        /* \"#utility.yul\":19668:19690   */\n      swap1\n      pop\n        /* \"#utility.yul\":19599:19697   */\n      swap2\n      swap1\n      pop\n      jump\t// out\n        /* \"#utility.yul\":19703:19871   */\n    tag_290:\n        /* \"#utility.yul\":19786:19797   */\n      0x00\n        /* \"#utility.yul\":19820:19826   */\n      dup3\n        /* \"#utility.yul\":19815:19818   */\n      dup3\n        /* \"#utility.yul\":19808:19827   */\n      mstore\n        /* \"#utility.yul\":19860:19864   */\n      0x20\n        /* \"#utility.yul\":19855:19858   */\n      dup3\n        /* \"#utility.yul\":19851:19865   */\n      add\n        /* \"#utility.yul\":19836:19865   */\n      swap1\n      pop\n        /* \"#utility.yul\":19703:19871   */\n      swap3\n      swap2\n      pop\n      pop\n      jump\t// out\n        /* \"#utility.yul\":19877:20046   */\n    tag_298:\n        /* \"#utility.yul\":19961:19972   */\n      0x00\n        /* \"#utility.yul\":19995:20001   */\n      dup3\n        /* \"#utility.yul\":19990:19993   */\n      dup3\n        /* \"#utility.yul\":19983:20002   */\n      mstore\n        /* \"#utility.yul\":20035:20039   */\n      0x20\n        /* \"#utility.yul\":20030:20033   */\n      dup3\n        /* \"#utility.yul\":20026:20040   */\n      add\n        /* \"#utility.yul\":20011:20040   */\n      swap1\n      pop\n        /* \"#utility.yul\":19877:20046   */\n      swap3\n      swap2\n      pop\n      pop\n      jump\t// out\n        /* \"#utility.yul\":20052:20357   */\n    tag_149:\n        /* \"#utility.yul\":20092:20095   */\n      0x00\n        /* \"#utility.yul\":20111:20131   */\n      tag_424\n        /* \"#utility.yul\":20129:20130   */\n      dup3\n        /* \"#utility.yul\":20111:20131   */\n      tag_369\n      jump\t// in\n    tag_424:\n        /* \"#utility.yul\":20106:20131   */\n      swap2\n      pop\n        /* \"#utility.yul\":20145:20165   */\n      tag_425\n        /* \"#utility.yul\":20163:20164   */\n      dup4\n        /* \"#utility.yul\":20145:20165   */\n      tag_369\n      jump\t// in\n    tag_425:\n        /* \"#utility.yul\":20140:20165   */\n      swap3\n      pop\n        /* \"#utility.yul\":20299:20300   */\n      dup3\n        /* \"#utility.yul\":20231:20297   */\n      0xffffffffffffffffffffffffffffffffffffffffffffffffffffffffffffffff\n        /* \"#utility.yul\":20227:20301   */\n      sub\n        /* \"#utility.yul\":20224:20225   */\n      dup3\n        /* \"#utility.yul\":20221:20302   */\n      gt\n        /* \"#utility.yul\":20218:20325   */\n      iszero\n      tag_426\n      jumpi\n        /* \"#utility.yul\":20305:20323   */\n      tag_427\n      tag_428\n      jump\t// in\n    tag_427:\n        /* \"#utility.yul\":20218:20325   */\n    tag_426:\n        /* \"#utility.yul\":20349:20350   */\n      dup3\n        /* \"#utility.yul\":20346:20347   */\n      dup3\n        /* \"#utility.yul\":20342:20351   */\n      add\n        /* \"#utility.yul\":20335:20351   */\n      swap1\n      pop\n        /* \"#utility.yul\":20052:20357   */\n      swap3\n      swap2\n      pop\n      pop\n      jump\t// out\n        /* \"#utility.yul\":20363:20554   */\n    tag_147:\n        /* \"#utility.yul\":20403:20407   */\n      0x00\n        /* \"#utility.yul\":20423:20443   */\n      tag_430\n        /* \"#utility.yul\":20441:20442   */\n      dup3\n        /* \"#utility.yul\":20423:20443   */\n      tag_369\n      jump\t// in\n    tag_430:\n        /* \"#utility.yul\":20418:20443   */\n      swap2\n      pop\n        /* \"#utility.yul\":20457:20477   */\n      tag_431\n        /* \"#utility.yul\":20475:20476   */\n      dup4\n        /* \"#utility.yul\":20457:20477   */\n      tag_369\n      jump\t// in\n    tag_431:\n        /* \"#utility.yul\":20452:20477   */\n      swap3\n      pop\n        /* \"#utility.yul\":20496:20497   */\n      dup3\n        /* \"#utility.yul\":20493:20494   */\n      dup3\n        /* \"#utility.yul\":20490:20498   */\n      lt\n        /* \"#utility.yul\":20487:20521   */\n      iszero\n      tag_432\n      jumpi\n        /* \"#utility.yul\":20501:20519   */\n      tag_433\n      tag_428\n      jump\t// in\n    tag_433:\n        /* \"#utility.yul\":20487:20521   */\n    tag_432:\n        /* \"#utility.yul\":20546:20547   */\n      dup3\n        /* \"#utility.yul\":20543:20544   */\n      dup3\n        /* \"#utility.yul\":20539:20548   */\n      sub\n        /* \"#utility.yul\":20531:20548   */\n      swap1\n      pop\n        /* \"#utility.yul\":20363:20554   */\n      swap3\n      swap2\n      pop\n      pop\n      jump\t// out\n        /* \"#utility.yul\":20560:20656   */\n    tag_280:\n        /* \"#utility.yul\":20597:20604   */\n      0x00\n        /* \"#utility.yul\":20626:20650   */\n      tag_435\n        /* \"#utility.yul\":20644:20649   */\n      dup3\n        /* \"#utility.yul\":20626:20650   */\n      tag_436\n      jump\t// in\n    tag_435:\n        /* \"#utility.yul\":20615:20650   */\n      swap1\n      pop\n        /* \"#utility.yul\":20560:20656   */\n      swap2\n      swap1\n      pop\n      jump\t// out\n        /* \"#utility.yul\":20662:20752   */\n    tag_284:\n        /* \"#utility.yul\":20696:20703   */\n      0x00\n        /* \"#utility.yul\":20739:20744   */\n      dup2\n        /* \"#utility.yul\":20732:20745   */\n      iszero\n        /* \"#utility.yul\":20725:20746   */\n      iszero\n        /* \"#utility.yul\":20714:20746   */\n      swap1\n      pop\n        /* \"#utility.yul\":20662:20752   */\n      swap2\n      swap1\n      pop\n      jump\t// out\n        /* \"#utility.yul\":20758:20907   */\n    tag_438:\n        /* \"#utility.yul\":20794:20801   */\n      0x00\n        /* \"#utility.yul\":20834:20900   */\n      0xffffffff00000000000000000000000000000000000000000000000000000000\n        /* \"#utility.yul\":20827:20832   */\n      dup3\n        /* \"#utility.yul\":20823:20901   */\n      and\n        /* \"#utility.yul\":20812:20901   */\n      swap1\n      pop\n        /* \"#utility.yul\":20758:20907   */\n      swap2\n      swap1\n      pop\n      jump\t// out\n        /* \"#utility.yul\":20913:21039   */\n    tag_436:\n        /* \"#utility.yul\":20950:20957   */\n      0x00\n        /* \"#utility.yul\":20990:21032   */\n      0xffffffffffffffffffffffffffffffffffffffff\n        /* \"#utility.yul\":20983:20988   */\n      dup3\n        /* \"#utility.yul\":20979:21033   */\n      and\n        /* \"#utility.yul\":20968:21033   */\n      swap1\n      pop\n        /* \"#utility.yul\":20913:21039   */\n      swap2\n      swap1\n      pop\n      jump\t// out\n        /* \"#utility.yul\":21045:21122   */\n    tag_369:\n        /* \"#utility.yul\":21082:21089   */\n      0x00\n        /* \"#utility.yul\":21111:21116   */\n      dup2\n        /* \"#utility.yul\":21100:21116   */\n      swap1\n      pop\n        /* \"#utility.yul\":21045:21122   */\n      swap2\n      swap1\n      pop\n      jump\t// out\n        /* \"#utility.yul\":21128:21282   */\n    tag_203:\n        /* \"#utility.yul\":21212:21218   */\n      dup3\n        /* \"#utility.yul\":21207:21210   */\n      dup2\n        /* \"#utility.yul\":21202:21205   */\n      dup4\n        /* \"#utility.yul\":21189:21219   */\n      calldatacopy\n        /* \"#utility.yul\":21274:21275   */\n      0x00\n        /* \"#utility.yul\":21265:21271   */\n      dup4\n        /* \"#utility.yul\":21260:21263   */\n      dup4\n        /* \"#utility.yul\":21256:21272   */\n      add\n        /* \"#utility.yul\":21249:21276   */\n      mstore\n        /* \"#utility.yul\":21128:21282   */\n      pop\n      pop\n      pop\n      jump\t// out\n        /* \"#utility.yul\":21288:21595   */\n    tag_292:\n        /* \"#utility.yul\":21356:21357   */\n      0x00\n        /* \"#utility.yul\":21366:21479   */\n    tag_444:\n        /* \"#utility.yul\":21380:21386   */\n      dup4\n        /* \"#utility.yul\":21377:21378   */\n      dup2\n        /* \"#utility.yul\":21374:21387   */\n      lt\n        /* \"#utility.yul\":21366:21479   */\n      iszero\n      tag_446\n      jumpi\n        /* \"#utility.yul\":21465:21466   */\n      dup1\n        /* \"#utility.yul\":21460:21463   */\n      dup3\n        /* \"#utility.yul\":21456:21467   */\n      add\n        /* \"#utility.yul\":21450:21468   */\n      mload\n        /* \"#utility.yul\":21446:21447   */\n      dup2\n        /* \"#utility.yul\":21441:21444   */\n      dup5\n        /* \"#utility.yul\":21437:21448   */\n      add\n        /* \"#utility.yul\":21430:21469   */\n      mstore\n        /* \"#utility.yul\":21402:21404   */\n      0x20\n        /* \"#utility.yul\":21399:21400   */\n      dup2\n        /* \"#utility.yul\":21395:21405   */\n      add\n        /* \"#utility.yul\":21390:21405   */\n      swap1\n      pop\n        /* \"#utility.yul\":21366:21479   */\n      jump(tag_444)\n    tag_446:\n        /* \"#utility.yul\":21497:21503   */\n      dup4\n        /* \"#utility.yul\":21494:21495   */\n      dup2\n        /* \"#utility.yul\":21491:21504   */\n      gt\n        /* \"#utility.yul\":21488:21589   */\n      iszero\n      tag_447\n      jumpi\n        /* \"#utility.yul\":21577:21578   */\n      0x00\n        /* \"#utility.yul\":21568:21574   */\n      dup5\n        /* \"#utility.yul\":21563:21566   */\n      dup5\n        /* \"#utility.yul\":21559:21575   */\n      add\n        /* \"#utility.yul\":21552:21579   */\n      mstore\n        /* \"#utility.yul\":21488:21589   */\n    tag_447:\n        /* \"#utility.yul\":21337:21595   */\n      pop\n        /* \"#utility.yul\":21288:21595   */\n      pop\n      pop\n      pop\n      jump\t// out\n        /* \"#utility.yul\":21601:21882   */\n    tag_413:\n        /* \"#utility.yul\":21684:21711   */\n      tag_449\n        /* \"#utility.yul\":21706:21710   */\n      dup3\n        /* \"#utility.yul\":21684:21711   */\n      tag_294\n      jump\t// in\n    tag_449:\n        /* \"#utility.yul\":21676:21682   */\n      dup2\n        /* \"#utility.yul\":21672:21712   */\n      add\n        /* \"#utility.yul\":21814:21820   */\n      dup2\n        /* \"#utility.yul\":21802:21812   */\n      dup2\n        /* \"#utility.yul\":21799:21821   */\n      lt\n        /* \"#utility.yul\":21778:21796   */\n      0xffffffffffffffff\n        /* \"#utility.yul\":21766:21776   */\n      dup3\n        /* \"#utility.yul\":21763:21797   */\n      gt\n        /* \"#utility.yul\":21760:21822   */\n      or\n        /* \"#utility.yul\":21757:21845   */\n      iszero\n      tag_450\n      jumpi\n        /* \"#utility.yul\":21825:21843   */\n      tag_451\n      tag_418\n      jump\t// in\n    tag_451:\n        /* \"#utility.yul\":21757:21845   */\n    tag_450:\n        /* \"#utility.yul\":21865:21875   */\n      dup1\n        /* \"#utility.yul\":21861:21863   */\n      0x40\n        /* \"#utility.yul\":21854:21876   */\n      mstore\n        /* \"#utility.yul\":21644:21882   */\n      pop\n        /* \"#utility.yul\":21601:21882   */\n      pop\n      pop\n      jump\t// out\n        /* \"#utility.yul\":21888:22068   */\n    tag_428:\n        /* \"#utility.yul\":21936:22013   */\n      0x4e487b7100000000000000000000000000000000000000000000000000000000\n        /* \"#utility.yul\":21933:21934   */\n      0x00\n        /* \"#utility.yul\":21926:22014   */\n      mstore\n        /* \"#utility.yul\":22033:22037   */\n      0x11\n        /* \"#utility.yul\":22030:22031   */\n      0x04\n        /* \"#utility.yul\":22023:22038   */\n      mstore\n        /* \"#utility.yul\":22057:22061   */\n      0x24\n        /* \"#utility.yul\":22054:22055   */\n      0x00\n        /* \"#utility.yul\":22047:22062   */\n      revert\n        /* \"#utility.yul\":22074:22254   */\n    tag_418:\n        /* \"#utility.yul\":22122:22199   */\n      0x4e487b7100000000000000000000000000000000000000000000000000000000\n        /* \"#utility.yul\":22119:22120   */\n      0x00\n        /* \"#utility.yul\":22112:22200   */\n      mstore\n        /* \"#utility.yul\":22219:22223   */\n      0x41\n        /* \"#utility.yul\":22216:22217   */\n      0x04\n        /* \"#utility.yul\":22209:22224   */\n      mstore\n        /* \"#utility.yul\":22243:22247   */\n      0x24\n        /* \"#utility.yul\":22240:22241   */\n      0x00\n        /* \"#utility.yul\":22233:22248   */\n      revert\n        /* \"#utility.yul\":22260:22377   */\n    tag_223:\n        /* \"#utility.yul\":22369:22370   */\n      0x00\n        /* \"#utility.yul\":22366:22367   */\n      dup1\n        /* \"#utility.yul\":22359:22371   */\n      revert\n        /* \"#utility.yul\":22383:22500   */\n    tag_201:\n        /* \"#utility.yul\":22492:22493   */\n      0x00\n        /* \"#utility.yul\":22489:22490   */\n      dup1\n        /* \"#utility.yul\":22482:22494   */\n      revert\n        /* \"#utility.yul\":22506:22623   */\n    tag_253:\n        /* \"#utility.yul\":22615:22616   */\n      0x00\n        /* \"#utility.yul\":22612:22613   */\n      dup1\n        /* \"#utility.yul\":22605:22617   */\n      revert\n        /* \"#utility.yul\":22629:22746   */\n    tag_232:\n        /* \"#utility.yul\":22738:22739   */\n      0x00\n        /* \"#utility.yul\":22735:22736   */\n      dup1\n        /* \"#utility.yul\":22728:22740   */\n      revert\n        /* \"#utility.yul\":22752:22854   */\n    tag_294:\n        /* \"#utility.yul\":22793:22799   */\n      0x00\n        /* \"#utility.yul\":22844:22846   */\n      0x1f\n        /* \"#utility.yul\":22840:22847   */\n      not\n        /* \"#utility.yul\":22835:22837   */\n      0x1f\n        /* \"#utility.yul\":22828:22833   */\n      dup4\n        /* \"#utility.yul\":22824:22838   */\n      add\n        /* \"#utility.yul\":22820:22848   */\n      and\n        /* \"#utility.yul\":22810:22848   */\n      swap1\n      pop\n        /* \"#utility.yul\":22752:22854   */\n      swap2\n      swap1\n      pop\n      jump\t// out\n        /* \"#utility.yul\":22860:23097   */\n    tag_300:\n        /* \"#utility.yul\":23000:23034   */\n      0x4552433732313a207472616e7366657220746f206e6f6e204552433732315265\n        /* \"#utility.yul\":22996:22997   */\n      0x00\n        /* \"#utility.yul\":22988:22994   */\n      dup3\n        /* \"#utility.yul\":22984:22998   */\n      add\n        /* \"#utility.yul\":22977:23035   */\n      mstore\n        /* \"#utility.yul\":23069:23089   */\n      0x63656976657220696d706c656d656e7465720000000000000000000000000000\n        /* \"#utility.yul\":23064:23066   */\n      0x20\n        /* \"#utility.yul\":23056:23062   */\n      dup3\n        /* \"#utility.yul\":23052:23067   */\n      add\n        /* \"#utility.yul\":23045:23090   */\n      mstore\n        /* \"#utility.yul\":22860:23097   */\n      pop\n      jump\t// out\n        /* \"#utility.yul\":23103:23281   */\n    tag_305:\n        /* \"#utility.yul\":23243:23273   */\n      0x4552433732313a20746f6b656e20616c7265616479206d696e74656400000000\n        /* \"#utility.yul\":23239:23240   */\n      0x00\n        /* \"#utility.yul\":23231:23237   */\n      dup3\n        /* \"#utility.yul\":23227:23241   */\n      add\n        /* \"#utility.yul\":23220:23274   */\n      mstore\n        /* \"#utility.yul\":23103:23281   */\n      pop\n      jump\t// out\n        /* \"#utility.yul\":23287:23510   */\n    tag_310:\n        /* \"#utility.yul\":23427:23461   */\n      0x4552433732313a207472616e7366657220746f20746865207a65726f20616464\n        /* \"#utility.yul\":23423:23424   */\n      0x00\n        /* \"#utility.yul\":23415:23421   */\n      dup3\n        /* \"#utility.yul\":23411:23425   */\n      add\n        /* \"#utility.yul\":23404:23462   */\n      mstore\n        /* \"#utility.yul\":23496:23502   */\n      0x7265737300000000000000000000000000000000000000000000000000000000\n        /* \"#utility.yul\":23491:23493   */\n      0x20\n        /* \"#utility.yul\":23483:23489   */\n      dup3\n        /* \"#utility.yul\":23479:23494   */\n      add\n        /* \"#utility.yul\":23472:23503   */\n      mstore\n        /* \"#utility.yul\":23287:23510   */\n      pop\n      jump\t// out\n        /* \"#utility.yul\":23516:23691   */\n    tag_315:\n        /* \"#utility.yul\":23656:23683   */\n      0x4552433732313a20617070726f766520746f2063616c6c657200000000000000\n        /* \"#utility.yul\":23652:23653   */\n      0x00\n        /* \"#utility.yul\":23644:23650   */\n      dup3\n        /* \"#utility.yul\":23640:23654   */\n      add\n        /* \"#utility.yul\":23633:23684   */\n      mstore\n        /* \"#utility.yul\":23516:23691   */\n      pop\n      jump\t// out\n        /* \"#utility.yul\":23697:23928   */\n    tag_320:\n        /* \"#utility.yul\":23837:23871   */\n      0x4552433732313a206f70657261746f7220717565727920666f72206e6f6e6578\n        /* \"#utility.yul\":23833:23834   */\n      0x00\n        /* \"#utility.yul\":23825:23831   */\n      dup3\n        /* \"#utility.yul\":23821:23835   */\n      add\n        /* \"#utility.yul\":23814:23872   */\n      mstore\n        /* \"#utility.yul\":23906:23920   */\n      0x697374656e7420746f6b656e0000000000000000000000000000000000000000\n        /* \"#utility.yul\":23901:23903   */\n      0x20\n        /* \"#utility.yul\":23893:23899   */\n      dup3\n        /* \"#utility.yul\":23889:23904   */\n      add\n        /* \"#utility.yul\":23882:23921   */\n      mstore\n        /* \"#utility.yul\":23697:23928   */\n      pop\n      jump\t// out\n        /* \"#utility.yul\":23934:24177   */\n    tag_325:\n        /* \"#utility.yul\":24074:24108   */\n      0x4552433732313a20617070726f76652063616c6c6572206973206e6f74206f77\n        /* \"#utility.yul\":24070:24071   */\n      0x00\n        /* \"#utility.yul\":24062:24068   */\n      dup3\n        /* \"#utility.yul\":24058:24072   */\n      add\n        /* \"#utility.yul\":24051:24109   */\n      mstore\n        /* \"#utility.yul\":24143:24169   */\n      0x6e6572206e6f7220617070726f76656420666f7220616c6c0000000000000000\n        /* \"#utility.yul\":24138:24140   */\n      0x20\n        /* \"#utility.yul\":24130:24136   */\n      dup3\n        /* \"#utility.yul\":24126:24141   */\n      add\n        /* \"#utility.yul\":24119:24170   */\n      mstore\n        /* \"#utility.yul\":23934:24177   */\n      pop\n      jump\t// out\n        /* \"#utility.yul\":24183:24412   */\n    tag_330:\n        /* \"#utility.yul\":24323:24357   */\n      0x4552433732313a2062616c616e636520717565727920666f7220746865207a65\n        /* \"#utility.yul\":24319:24320   */\n      0x00\n        /* \"#utility.yul\":24311:24317   */\n      dup3\n        /* \"#utility.yul\":24307:24321   */\n      add\n        /* \"#utility.yul\":24300:24358   */\n      mstore\n        /* \"#utility.yul\":24392:24404   */\n      0x726f206164647265737300000000000000000000000000000000000000000000\n        /* \"#utility.yul\":24387:24389   */\n      0x20\n        /* \"#utility.yul\":24379:24385   */\n      dup3\n        /* \"#utility.yul\":24375:24390   */\n      add\n        /* \"#utility.yul\":24368:24405   */\n      mstore\n        /* \"#utility.yul\":24183:24412   */\n      pop\n      jump\t// out\n        /* \"#utility.yul\":24418:24646   */\n    tag_335:\n        /* \"#utility.yul\":24558:24592   */\n      0x4552433732313a206f776e657220717565727920666f72206e6f6e6578697374\n        /* \"#utility.yul\":24554:24555   */\n      0x00\n        /* \"#utility.yul\":24546:24552   */\n      dup3\n        /* \"#utility.yul\":24542:24556   */\n      add\n        /* \"#utility.yul\":24535:24593   */\n      mstore\n        /* \"#utility.yul\":24627:24638   */\n      0x656e7420746f6b656e0000000000000000000000000000000000000000000000\n        /* \"#utility.yul\":24622:24624   */\n      0x20\n        /* \"#utility.yul\":24614:24620   */\n      dup3\n        /* \"#utility.yul\":24610:24625   */\n      add\n        /* \"#utility.yul\":24603:24639   */\n      mstore\n        /* \"#utility.yul\":24418:24646   */\n      pop\n      jump\t// out\n        /* \"#utility.yul\":24652:24834   */\n    tag_340:\n        /* \"#utility.yul\":24792:24826   */\n      0x4552433732313a206d696e7420746f20746865207a65726f2061646472657373\n        /* \"#utility.yul\":24788:24789   */\n      0x00\n        /* \"#utility.yul\":24780:24786   */\n      dup3\n        /* \"#utility.yul\":24776:24790   */\n      add\n        /* \"#utility.yul\":24769:24827   */\n      mstore\n        /* \"#utility.yul\":24652:24834   */\n      pop\n      jump\t// out\n        /* \"#utility.yul\":24840:25071   */\n    tag_345:\n        /* \"#utility.yul\":24980:25014   */\n      0x4552433732313a20617070726f76656420717565727920666f72206e6f6e6578\n        /* \"#utility.yul\":24976:24977   */\n      0x00\n        /* \"#utility.yul\":24968:24974   */\n      dup3\n        /* \"#utility.yul\":24964:24978   */\n      add\n        /* \"#utility.yul\":24957:25015   */\n      mstore\n        /* \"#utility.yul\":25049:25063   */\n      0x697374656e7420746f6b656e0000000000000000000000000000000000000000\n        /* \"#utility.yul\":25044:25046   */\n      0x20\n        /* \"#utility.yul\":25036:25042   */\n      dup3\n        /* \"#utility.yul\":25032:25047   */\n      add\n        /* \"#utility.yul\":25025:25064   */\n      mstore\n        /* \"#utility.yul\":24840:25071   */\n      pop\n      jump\t// out\n        /* \"#utility.yul\":25077:25305   */\n    tag_350:\n        /* \"#utility.yul\":25217:25251   */\n      0x4552433732313a207472616e73666572206f6620746f6b656e20746861742069\n        /* \"#utility.yul\":25213:25214   */\n      0x00\n        /* \"#utility.yul\":25205:25211   */\n      dup3\n        /* \"#utility.yul\":25201:25215   */\n      add\n        /* \"#utility.yul\":25194:25252   */\n      mstore\n        /* \"#utility.yul\":25286:25297   */\n      0x73206e6f74206f776e0000000000000000000000000000000000000000000000\n        /* \"#utility.yul\":25281:25283   */\n      0x20\n        /* \"#utility.yul\":25273:25279   */\n      dup3\n        /* \"#utility.yul\":25269:25284   */\n      add\n        /* \"#utility.yul\":25262:25298   */\n      mstore\n        /* \"#utility.yul\":25077:25305   */\n      pop\n      jump\t// out\n        /* \"#utility.yul\":25311:25531   */\n    tag_355:\n        /* \"#utility.yul\":25451:25485   */\n      0x4552433732313a20617070726f76616c20746f2063757272656e74206f776e65\n        /* \"#utility.yul\":25447:25448   */\n      0x00\n        /* \"#utility.yul\":25439:25445   */\n      dup3\n        /* \"#utility.yul\":25435:25449   */\n      add\n        /* \"#utility.yul\":25428:25486   */\n      mstore\n        /* \"#utility.yul\":25520:25523   */\n      0x7200000000000000000000000000000000000000000000000000000000000000\n        /* \"#utility.yul\":25515:25517   */\n      0x20\n        /* \"#utility.yul\":25507:25513   */\n      dup3\n        /* \"#utility.yul\":25503:25518   */\n      add\n        /* \"#utility.yul\":25496:25524   */\n      mstore\n        /* \"#utility.yul\":25311:25531   */\n      pop\n      jump\t// out\n        /* \"#utility.yul\":25537:25773   */\n    tag_360:\n        /* \"#utility.yul\":25677:25711   */\n      0x4552433732313a207472616e736665722063616c6c6572206973206e6f74206f\n        /* \"#utility.yul\":25673:25674   */\n      0x00\n        /* \"#utility.yul\":25665:25671   */\n      dup3\n        /* \"#utility.yul\":25661:25675   */\n      add\n        /* \"#utility.yul\":25654:25712   */\n      mstore\n        /* \"#utility.yul\":25746:25765   */\n      0x776e6572206e6f7220617070726f766564000000000000000000000000000000\n        /* \"#utility.yul\":25741:25743   */\n      0x20\n        /* \"#utility.yul\":25733:25739   */\n      dup3\n        /* \"#utility.yul\":25729:25744   */\n      add\n        /* \"#utility.yul\":25722:25766   */\n      mstore\n        /* \"#utility.yul\":25537:25773   */\n      pop\n      jump\t// out\n        /* \"#utility.yul\":25779:26003   */\n    tag_365:\n        /* \"#utility.yul\":25919:25953   */\n      0x4552433732313a206275726e206f6620746f6b656e2074686174206973206e6f\n        /* \"#utility.yul\":25915:25916   */\n      0x00\n        /* \"#utility.yul\":25907:25913   */\n      dup3\n        /* \"#utility.yul\":25903:25917   */\n      add\n        /* \"#utility.yul\":25896:25954   */\n      mstore\n        /* \"#utility.yul\":25988:25995   */\n      0x74206f776e000000000000000000000000000000000000000000000000000000\n        /* \"#utility.yul\":25983:25985   */\n      0x20\n        /* \"#utility.yul\":25975:25981   */\n      dup3\n        /* \"#utility.yul\":25971:25986   */\n      add\n        /* \"#utility.yul\":25964:25996   */\n      mstore\n        /* \"#utility.yul\":25779:26003   */\n      pop\n      jump\t// out\n        /* \"#utility.yul\":26009:26131   */\n    tag_207:\n        /* \"#utility.yul\":26082:26106   */\n      tag_474\n        /* \"#utility.yul\":26100:26105   */\n      dup2\n        /* \"#utility.yul\":26082:26106   */\n      tag_280\n      jump\t// in\n    tag_474:\n        /* \"#utility.yul\":26075:26080   */\n      dup2\n        /* \"#utility.yul\":26072:26107   */\n      eq\n        /* \"#utility.yul\":26062:26125   */\n      tag_475\n      jumpi\n        /* \"#utility.yul\":26121:26122   */\n      0x00\n        /* \"#utility.yul\":26118:26119   */\n      dup1\n        /* \"#utility.yul\":26111:26123   */\n      revert\n        /* \"#utility.yul\":26062:26125   */\n    tag_475:\n        /* \"#utility.yul\":26009:26131   */\n      pop\n      jump\t// out\n        /* \"#utility.yul\":26137:26253   */\n    tag_211:\n        /* \"#utility.yul\":26207:26228   */\n      tag_477\n        /* \"#utility.yul\":26222:26227   */\n      dup2\n        /* \"#utility.yul\":26207:26228   */\n      tag_284\n      jump\t// in\n    tag_477:\n        /* \"#utility.yul\":26200:26205   */\n      dup2\n        /* \"#utility.yul\":26197:26229   */\n      eq\n        /* \"#utility.yul\":26187:26247   */\n      tag_478\n      jumpi\n        /* \"#utility.yul\":26243:26244   */\n      0x00\n        /* \"#utility.yul\":26240:26241   */\n      dup1\n        /* \"#utility.yul\":26233:26245   */\n      revert\n        /* \"#utility.yul\":26187:26247   */\n    tag_478:\n        /* \"#utility.yul\":26137:26253   */\n      pop\n      jump\t// out\n        /* \"#utility.yul\":26259:26379   */\n    tag_215:\n        /* \"#utility.yul\":26331:26354   */\n      tag_480\n        /* \"#utility.yul\":26348:26353   */\n      dup2\n        /* \"#utility.yul\":26331:26354   */\n      tag_438\n      jump\t// in\n    tag_480:\n        /* \"#utility.yul\":26324:26329   */\n      dup2\n        /* \"#utility.yul\":26321:26355   */\n      eq\n        /* \"#utility.yul\":26311:26373   */\n      tag_481\n      jumpi\n        /* \"#utility.yul\":26369:26370   */\n      0x00\n        /* \"#utility.yul\":26366:26367   */\n      dup1\n        /* \"#utility.yul\":26359:26371   */\n      revert\n        /* \"#utility.yul\":26311:26373   */\n    tag_481:\n        /* \"#utility.yul\":26259:26379   */\n      pop\n      jump\t// out\n        /* \"#utility.yul\":26385:26507   */\n    tag_228:\n        /* \"#utility.yul\":26458:26482   */\n      tag_483\n        /* \"#utility.yul\":26476:26481   */\n      dup2\n        /* \"#utility.yul\":26458:26482   */\n      tag_369\n      jump\t// in\n    tag_483:\n        /* \"#utility.yul\":26451:26456   */\n      dup2\n        /* \"#utility.yul\":26448:26483   */\n      eq\n        /* \"#utility.yul\":26438:26501   */\n      tag_484\n      jumpi\n        /* \"#utility.yul\":26497:26498   */\n      0x00\n        /* \"#utility.yul\":26494:26495   */\n      dup1\n        /* \"#utility.yul\":26487:26499   */\n      revert\n        /* \"#utility.yul\":26438:26501   */\n    tag_484:\n        /* \"#utility.yul\":26385:26507   */\n      pop\n      jump\t// out\n\n    auxdata: 0xa26469706673582212201a2855e1cdfd6aa64200471fcef5f8985726031b275fe7d1a40f4eab52ffb08864736f6c63430008070033\n}\n",
				"bytecode": {
					"linkReferences": {},
					"object": "608060405234801561001057600080fd5b50612146806100206000396000f3fe608060405234801561001057600080fd5b50600436106100b45760003560e01c806342966c681161007157806342966c68146101895780636352211e146101a557806370a08231146101d5578063a22cb46514610205578063b88d4fde14610221578063e985e9c51461023d576100b4565b806301ffc9a7146100b9578063081812fc146100e9578063095ea7b31461011957806323b872dd1461013557806340c10f191461015157806342842e0e1461016d575b600080fd5b6100d360048036038101906100ce9190611529565b61026d565b6040516100e09190611867565b60405180910390f35b61010360048036038101906100fe9190611583565b61033f565b6040516101109190611800565b60405180910390f35b610133600480360381019061012e91906114e9565b6103c4565b005b61014f600480360381019061014a91906113d3565b6104ce565b005b61016b600480360381019061016691906114e9565b610527565b005b610187600480360381019061018291906113d3565b610535565b005b6101a3600480360381019061019e9190611583565b610555565b005b6101bf60048036038101906101ba9190611583565b610561565b6040516101cc9190611800565b60405180910390f35b6101ef60048036038101906101ea9190611366565b610612565b6040516101fc9190611a42565b60405180910390f35b61021f600480360381019061021a91906114a9565b6106ca565b005b61023b60048036038101906102369190611426565b610836565b005b61025760048036038101906102529190611393565b610891565b6040516102649190611867565b60405180910390f35b60007f80ac58cd000000000000000000000000000000000000000000000000000000007bffffffffffffffffffffffffffffffffffffffffffffffffffffffff1916827bffffffffffffffffffffffffffffffffffffffffffffffffffffffff1916148061033857507f01ffc9a7000000000000000000000000000000000000000000000000000000007bffffffffffffffffffffffffffffffffffffffffffffffffffffffff1916827bffffffffffffffffffffffffffffffffffffffffffffffffffffffff1916145b9050919050565b600061034a82610925565b610389576040517f08c379a0000000000000000000000000000000000000000000000000000000008152600401610380906119a2565b60405180910390fd5b6002600083815260200190815260200160002060009054906101000a900473ffffffffffffffffffffffffffffffffffffffff169050919050565b60006103cf82610561565b90508073ffffffffffffffffffffffffffffffffffffffff168373ffffffffffffffffffffffffffffffffffffffff161415610440576040517f08c379a0000000000000000000000000000000000000000000000000000000008152600401610437906119e2565b60405180910390fd5b8073ffffffffffffffffffffffffffffffffffffffff163373ffffffffffffffffffffffffffffffffffffffff161480610480575061047f8133610891565b5b6104bf576040517f08c379a00000000000000000000000000000000000000000000000000000000081526004016104b690611922565b60405180910390fd5b6104c98383610990565b505050565b6104d83382610a49565b610517576040517f08c379a000000000000000000000000000000000000000000000000000000000815260040161050e90611a02565b60405180910390fd5b610522838383610b27565b505050565b6105318282610d75565b5050565b61055083838360405180602001604052806000815250610836565b505050565b61055e81610f35565b50565b60008060008084815260200190815260200160002060009054906101000a900473ffffffffffffffffffffffffffffffffffffffff169050600073ffffffffffffffffffffffffffffffffffffffff168173ffffffffffffffffffffffffffffffffffffffff161415610609576040517f08c379a000000000000000000000000000000000000000000000000000000000815260040161060090611962565b60405180910390fd5b80915050919050565b60008073ffffffffffffffffffffffffffffffffffffffff168273ffffffffffffffffffffffffffffffffffffffff161415610683576040517f08c379a000000000000000000000000000000000000000000000000000000000815260040161067a90611942565b60405180910390fd5b600160008373ffffffffffffffffffffffffffffffffffffffff1673ffffffffffffffffffffffffffffffffffffffff168152602001908152602001600020549050919050565b3373ffffffffffffffffffffffffffffffffffffffff168273ffffffffffffffffffffffffffffffffffffffff161415610739576040517f08c379a0000000000000000000000000000000000000000000000000000000008152600401610730906118e2565b60405180910390fd5b80600360003373ffffffffffffffffffffffffffffffffffffffff1673ffffffffffffffffffffffffffffffffffffffff16815260200190815260200160002060008473ffffffffffffffffffffffffffffffffffffffff1673ffffffffffffffffffffffffffffffffffffffff16815260200190815260200160002060006101000a81548160ff0219169083151502179055508173ffffffffffffffffffffffffffffffffffffffff163373ffffffffffffffffffffffffffffffffffffffff167f17307eab39ab6107e8899845ad3d59bd9653f200f220920489ca2b5937696c318360405161082a9190611867565b60405180910390a35050565b6108403383610a49565b61087f576040517f08c379a000000000000000000000000000000000000000000000000000000000815260040161087690611a02565b60405180910390fd5b61088b848484846110a6565b50505050565b6000600360008473ffffffffffffffffffffffffffffffffffffffff1673ffffffffffffffffffffffffffffffffffffffff16815260200190815260200160002060008373ffffffffffffffffffffffffffffffffffffffff1673ffffffffffffffffffffffffffffffffffffffff16815260200190815260200160002060009054906101000a900460ff16905092915050565b60008073ffffffffffffffffffffffffffffffffffffffff1660008084815260200190815260200160002060009054906101000a900473ffffffffffffffffffffffffffffffffffffffff1673ffffffffffffffffffffffffffffffffffffffff1614159050919050565b816002600083815260200190815260200160002060006101000a81548173ffffffffffffffffffffffffffffffffffffffff021916908373ffffffffffffffffffffffffffffffffffffffff160217905550808273ffffffffffffffffffffffffffffffffffffffff16610a0383610561565b73ffffffffffffffffffffffffffffffffffffffff167f8c5be1e5ebec7d5bd14f71427d1e84f3dd0314c0f7b2291e5b200ac8c7c3b92560405160405180910390a45050565b6000610a5482610925565b610a93576040517f08c379a0000000000000000000000000000000000000000000000000000000008152600401610a8a90611902565b60405180910390fd5b6000610a9e83610561565b90508073ffffffffffffffffffffffffffffffffffffffff168473ffffffffffffffffffffffffffffffffffffffff161480610b0d57508373ffffffffffffffffffffffffffffffffffffffff16610af58461033f565b73ffffffffffffffffffffffffffffffffffffffff16145b80610b1e5750610b1d8185610891565b5b91505092915050565b8273ffffffffffffffffffffffffffffffffffffffff16610b4782610561565b73ffffffffffffffffffffffffffffffffffffffff1614610b9d576040517f08c379a0000000000000000000000000000000000000000000000000000000008152600401610b94906119c2565b60405180910390fd5b600073ffffffffffffffffffffffffffffffffffffffff168273ffffffffffffffffffffffffffffffffffffffff161415610c0d576040517f08c379a0000000000000000000000000000000000000000000000000000000008152600401610c04906118c2565b60405180910390fd5b610c18600082610990565b60018060008573ffffffffffffffffffffffffffffffffffffffff1673ffffffffffffffffffffffffffffffffffffffff1681526020019081526020016000206000828254610c679190611b36565b9250508190555060018060008473ffffffffffffffffffffffffffffffffffffffff1673ffffffffffffffffffffffffffffffffffffffff1681526020019081526020016000206000828254610cbd9190611ae0565b925050819055508160008083815260200190815260200160002060006101000a81548173ffffffffffffffffffffffffffffffffffffffff021916908373ffffffffffffffffffffffffffffffffffffffff160217905550808273ffffffffffffffffffffffffffffffffffffffff168473ffffffffffffffffffffffffffffffffffffffff167fddf252ad1be2c89b69c2b068fc378daa952ba7f163c4a11628f55a4df523b3ef60405160405180910390a4505050565b600073ffffffffffffffffffffffffffffffffffffffff168273ffffffffffffffffffffffffffffffffffffffff161415610de5576040517f08c379a0000000000000000000000000000000000000000000000000000000008152600401610ddc90611982565b60405180910390fd5b610dee81610925565b15610e2e576040517f08c379a0000000000000000000000000000000000000000000000000000000008152600401610e25906118a2565b60405180910390fd5b60018060008473ffffffffffffffffffffffffffffffffffffffff1673ffffffffffffffffffffffffffffffffffffffff1681526020019081526020016000206000828254610e7d9190611ae0565b925050819055508160008083815260200190815260200160002060006101000a81548173ffffffffffffffffffffffffffffffffffffffff021916908373ffffffffffffffffffffffffffffffffffffffff160217905550808273ffffffffffffffffffffffffffffffffffffffff16600073ffffffffffffffffffffffffffffffffffffffff167fddf252ad1be2c89b69c2b068fc378daa952ba7f163c4a11628f55a4df523b3ef60405160405180910390a45050565b6000610f4082610561565b90508073ffffffffffffffffffffffffffffffffffffffff163373ffffffffffffffffffffffffffffffffffffffff1614610fb0576040517f08c379a0000000000000000000000000000000000000000000000000000000008152600401610fa790611a22565b60405180910390fd5b610fbb600083610990565b60018060008373ffffffffffffffffffffffffffffffffffffffff1673ffffffffffffffffffffffffffffffffffffffff168152602001908152602001600020600082825461100a9190611b36565b9250508190555060008083815260200190815260200160002060006101000a81549073ffffffffffffffffffffffffffffffffffffffff021916905581600073ffffffffffffffffffffffffffffffffffffffff168273ffffffffffffffffffffffffffffffffffffffff167fddf252ad1be2c89b69c2b068fc378daa952ba7f163c4a11628f55a4df523b3ef60405160405180910390a45050565b6110b1848484610b27565b6110bd84848484611102565b6110fc576040517f08c379a00000000000000000000000000000000000000000000000000000000081526004016110f390611882565b60405180910390fd5b50505050565b6000808473ffffffffffffffffffffffffffffffffffffffff163b1115611280578373ffffffffffffffffffffffffffffffffffffffff1663150b7a02338786866040518563ffffffff1660e01b8152600401611162949392919061181b565b602060405180830381600087803b15801561117c57600080fd5b505af19250505080156111ad57506040513d601f19601f820116820180604052508101906111aa9190611556565b60015b611230573d80600081146111dd576040519150601f19603f3d011682016040523d82523d6000602084013e6111e2565b606091505b50600081511415611228576040517f08c379a000000000000000000000000000000000000000000000000000000000815260040161121f90611882565b60405180910390fd5b805181602001fd5b63150b7a0260e01b7bffffffffffffffffffffffffffffffffffffffffffffffffffffffff1916817bffffffffffffffffffffffffffffffffffffffffffffffffffffffff191614915050611285565b600190505b949350505050565b60006112a061129b84611a82565b611a5d565b9050828152602081018484840111156112bc576112bb611cb4565b5b6112c7848285611bde565b509392505050565b6000813590506112de816120b4565b92915050565b6000813590506112f3816120cb565b92915050565b600081359050611308816120e2565b92915050565b60008151905061131d816120e2565b92915050565b600082601f83011261133857611337611caf565b5b813561134884826020860161128d565b91505092915050565b600081359050611360816120f9565b92915050565b60006020828403121561137c5761137b611cbe565b5b600061138a848285016112cf565b91505092915050565b600080604083850312156113aa576113a9611cbe565b5b60006113b8858286016112cf565b92505060206113c9858286016112cf565b9150509250929050565b6000806000606084860312156113ec576113eb611cbe565b5b60006113fa868287016112cf565b935050602061140b868287016112cf565b925050604061141c86828701611351565b9150509250925092565b600080600080608085870312156114405761143f611cbe565b5b600061144e878288016112cf565b945050602061145f878288016112cf565b935050604061147087828801611351565b925050606085013567ffffffffffffffff81111561149157611490611cb9565b5b61149d87828801611323565b91505092959194509250565b600080604083850312156114c0576114bf611cbe565b5b60006114ce858286016112cf565b92505060206114df858286016112e4565b9150509250929050565b60008060408385031215611500576114ff611cbe565b5b600061150e858286016112cf565b925050602061151f85828601611351565b9150509250929050565b60006020828403121561153f5761153e611cbe565b5b600061154d848285016112f9565b91505092915050565b60006020828403121561156c5761156b611cbe565b5b600061157a8482850161130e565b91505092915050565b60006020828403121561159957611598611cbe565b5b60006115a784828501611351565b91505092915050565b6115b981611b6a565b82525050565b6115c881611b7c565b82525050565b60006115d982611ab3565b6115e38185611abe565b93506115f3818560208601611bed565b6115fc81611cc3565b840191505092915050565b6000611614603283611acf565b915061161f82611cd4565b604082019050919050565b6000611637601c83611acf565b915061164282611d23565b602082019050919050565b600061165a602483611acf565b915061166582611d4c565b604082019050919050565b600061167d601983611acf565b915061168882611d9b565b602082019050919050565b60006116a0602c83611acf565b91506116ab82611dc4565b604082019050919050565b60006116c3603883611acf565b91506116ce82611e13565b604082019050919050565b60006116e6602a83611acf565b91506116f182611e62565b604082019050919050565b6000611709602983611acf565b915061171482611eb1565b604082019050919050565b600061172c602083611acf565b915061173782611f00565b602082019050919050565b600061174f602c83611acf565b915061175a82611f29565b604082019050919050565b6000611772602983611acf565b915061177d82611f78565b604082019050919050565b6000611795602183611acf565b91506117a082611fc7565b604082019050919050565b60006117b8603183611acf565b91506117c382612016565b604082019050919050565b60006117db602583611acf565b91506117e682612065565b604082019050919050565b6117fa81611bd4565b82525050565b600060208201905061181560008301846115b0565b92915050565b600060808201905061183060008301876115b0565b61183d60208301866115b0565b61184a60408301856117f1565b818103606083015261185c81846115ce565b905095945050505050565b600060208201905061187c60008301846115bf565b92915050565b6000602082019050818103600083015261189b81611607565b9050919050565b600060208201905081810360008301526118bb8161162a565b9050919050565b600060208201905081810360008301526118db8161164d565b9050919050565b600060208201905081810360008301526118fb81611670565b9050919050565b6000602082019050818103600083015261191b81611693565b9050919050565b6000602082019050818103600083015261193b816116b6565b9050919050565b6000602082019050818103600083015261195b816116d9565b9050919050565b6000602082019050818103600083015261197b816116fc565b9050919050565b6000602082019050818103600083015261199b8161171f565b9050919050565b600060208201905081810360008301526119bb81611742565b9050919050565b600060208201905081810360008301526119db81611765565b9050919050565b600060208201905081810360008301526119fb81611788565b9050919050565b60006020820190508181036000830152611a1b816117ab565b9050919050565b60006020820190508181036000830152611a3b816117ce565b9050919050565b6000602082019050611a5760008301846117f1565b92915050565b6000611a67611a78565b9050611a738282611c20565b919050565b6000604051905090565b600067ffffffffffffffff821115611a9d57611a9c611c80565b5b611aa682611cc3565b9050602081019050919050565b600081519050919050565b600082825260208201905092915050565b600082825260208201905092915050565b6000611aeb82611bd4565b9150611af683611bd4565b9250827fffffffffffffffffffffffffffffffffffffffffffffffffffffffffffffffff03821115611b2b57611b2a611c51565b5b828201905092915050565b6000611b4182611bd4565b9150611b4c83611bd4565b925082821015611b5f57611b5e611c51565b5b828203905092915050565b6000611b7582611bb4565b9050919050565b60008115159050919050565b60007fffffffff0000000000000000000000000000000000000000000000000000000082169050919050565b600073ffffffffffffffffffffffffffffffffffffffff82169050919050565b6000819050919050565b82818337600083830152505050565b60005b83811015611c0b578082015181840152602081019050611bf0565b83811115611c1a576000848401525b50505050565b611c2982611cc3565b810181811067ffffffffffffffff82111715611c4857611c47611c80565b5b80604052505050565b7f4e487b7100000000000000000000000000000000000000000000000000000000600052601160045260246000fd5b7f4e487b7100000000000000000000000000000000000000000000000000000000600052604160045260246000fd5b600080fd5b600080fd5b600080fd5b600080fd5b6000601f19601f8301169050919050565b7f4552433732313a207472616e7366657220746f206e6f6e20455243373231526560008201527f63656976657220696d706c656d656e7465720000000000000000000000000000602082015250565b7f4552433732313a20746f6b656e20616c7265616479206d696e74656400000000600082015250565b7f4552433732313a207472616e7366657220746f20746865207a65726f2061646460008201527f7265737300000000000000000000000000000000000000000000000000000000602082015250565b7f4552433732313a20617070726f766520746f2063616c6c657200000000000000600082015250565b7f4552433732313a206f70657261746f7220717565727920666f72206e6f6e657860008201527f697374656e7420746f6b656e0000000000000000000000000000000000000000602082015250565b7f4552433732313a20617070726f76652063616c6c6572206973206e6f74206f7760008201527f6e6572206e6f7220617070726f76656420666f7220616c6c0000000000000000602082015250565b7f4552433732313a2062616c616e636520717565727920666f7220746865207a6560008201527f726f206164647265737300000000000000000000000000000000000000000000602082015250565b7f4552433732313a206f776e657220717565727920666f72206e6f6e657869737460008201527f656e7420746f6b656e0000000000000000000000000000000000000000000000602082015250565b7f4552433732313a206d696e7420746f20746865207a65726f2061646472657373600082015250565b7f4552433732313a20617070726f76656420717565727920666f72206e6f6e657860008201527f697374656e7420746f6b656e0000000000000000000000000000000000000000602082015250565b7f4552433732313a207472616e73666572206f6620746f6b656e2074686174206960008201527f73206e6f74206f776e0000000000000000000000000000000000000000000000602082015250565b7f4552433732313a20617070726f76616c20746f2063757272656e74206f776e6560008201527f7200000000000000000000000000000000000000000000000000000000000000602082015250565b7f4552433732313a207472616e736665722063616c6c6572206973206e6f74206f60008201527f776e6572206e6f7220617070726f766564000000000000000000000000000000602082015250565b7f4552433732313a206275726e206f6620746f6b656e2074686174206973206e6f60008201527f74206f776e000000000000000000000000000000000000000000000000000000602082015250565b6120bd81611b6a565b81146120c857600080fd5b50565b6120d481611b7c565b81146120df57600080fd5b50565b6120eb81611b88565b81146120f657600080fd5b50565b61210281611bd4565b811461210d57600080fd5b5056fea26469706673582212201a2855e1cdfd6aa64200471fcef5f8985726031b275fe7d1a40f4eab52ffb08864736f6c63430008070033",
					"opcodes": "PUSH1 0x80 PUSH1 0x40 MSTORE CALLVALUE DUP1 ISZERO PUSH2 0x10 JUMPI PUSH1 0x0 DUP1 REVERT JUMPDEST POP PUSH2 0x2146 DUP1 PUSH2 0x20 PUSH1 0x0 CODECOPY PUSH1 0x0 RETURN INVALID PUSH1 0x80 PUSH1 0x40 MSTORE CALLVALUE DUP1 ISZERO PUSH2 0x10 JUMPI PUSH1 0x0 DUP1 REVERT JUMPDEST POP PUSH1 0x4 CALLDATASIZE LT PUSH2 0xB4 JUMPI PUSH1 0x0 CALLDATALOAD PUSH1 0xE0 SHR DUP1 PUSH4 0x42966C68 GT PUSH2 0x71 JUMPI DUP1 PUSH4 0x42966C68 EQ PUSH2 0x189 JUMPI DUP1 PUSH4 0x6352211E EQ PUSH2 0x1A5 JUMPI DUP1 PUSH4 0x70A08231 EQ PUSH2 0x1D5 JUMPI DUP1 PUSH4 0xA22CB465 EQ PUSH2 0x205 JUMPI DUP1 PUSH4 0xB88D4FDE EQ PUSH2 0x221 JUMPI DUP1 PUSH4 0xE985E9C5 EQ PUSH2 0x23D JUMPI PUSH2 0xB4 JUMP JUMPDEST DUP1 PUSH4 0x1FFC9A7 EQ PUSH2 0xB9 JUMPI DUP1 PUSH4 0x81812FC EQ PUSH2 0xE9 JUMPI DUP1 PUSH4 0x95EA7B3 EQ PUSH2 0x119 JUMPI DUP1 PUSH4 0x23B872DD EQ PUSH2 0x135 JUMPI DUP1 PUSH4 0x40C10F19 EQ PUSH2 0x151 JUMPI DUP1 PUSH4 0x42842E0E EQ PUSH2 0x16D JUMPI JUMPDEST PUSH1 0x0 DUP1 REVERT JUMPDEST PUSH2 0xD3 PUSH1 0x4 DUP1 CALLDATASIZE SUB DUP2 ADD SWAP1 PUSH2 0xCE SWAP2 SWAP1 PUSH2 0x1529 JUMP JUMPDEST PUSH2 0x26D JUMP JUMPDEST PUSH1 0x40 MLOAD PUSH2 0xE0 SWAP2 SWAP1 PUSH2 0x1867 JUMP JUMPDEST PUSH1 0x40 MLOAD DUP1 SWAP2 SUB SWAP1 RETURN JUMPDEST PUSH2 0x103 PUSH1 0x4 DUP1 CALLDATASIZE SUB DUP2 ADD SWAP1 PUSH2 0xFE SWAP2 SWAP1 PUSH2 0x1583 JUMP JUMPDEST PUSH2 0x33F JUMP JUMPDEST PUSH1 0x40 MLOAD PUSH2 0x110 SWAP2 SWAP1 PUSH2 0x1800 JUMP JUMPDEST PUSH1 0x40 MLOAD DUP1 SWAP2 SUB SWAP1 RETURN JUMPDEST PUSH2 0x133 PUSH1 0x4 DUP1 CALLDATASIZE SUB DUP2 ADD SWAP1 PUSH2 0x12E SWAP2 SWAP1 PUSH2 0x14E9 JUMP JUMPDEST PUSH2 0x3C4 JUMP JUMPDEST STOP JUMPDEST PUSH2 0x14F PUSH1 0x4 DUP1 CALLDATASIZE SUB DUP2 ADD SWAP1 PUSH2 0x14A SWAP2 SWAP1 PUSH2 0x13D3 JUMP JUMPDEST PUSH2 0x4CE JUMP JUMPDEST STOP JUMPDEST PUSH2 0x16B PUSH1 0x4 DUP1 CALLDATASIZE SUB DUP2 ADD SWAP1 PUSH2 0x166 SWAP2 SWAP1 PUSH2 0x14E9 JUMP JUMPDEST PUSH2 0x527 JUMP JUMPDEST STOP JUMPDEST PUSH2 0x187 PUSH1 0x4 DUP1 CALLDATASIZE SUB DUP2 ADD SWAP1 PUSH2 0x182 SWAP2 SWAP1 PUSH2 0x13D3 JUMP JUMPDEST PUSH2 0x535 JUMP JUMPDEST STOP JUMPDEST PUSH2 0x1A3 PUSH1 0x4 DUP1 CALLDATASIZE SUB DUP2 ADD SWAP1 PUSH2 0x19E SWAP2 SWAP1 PUSH2 0x1583 JUMP JUMPDEST PUSH2 0x555 JUMP JUMPDEST STOP JUMPDEST PUSH2 0x1BF PUSH1 0x4 DUP1 CALLDATASIZE SUB DUP2 ADD SWAP1 PUSH2 0x1BA SWAP2 SWAP1 PUSH2 0x1583 JUMP JUMPDEST PUSH2 0x561 JUMP JUMPDEST PUSH1 0x40 MLOAD PUSH2 0x1CC SWAP2 SWAP1 PUSH2 0x1800 JUMP JUMPDEST PUSH1 0x40 MLOAD DUP1 SWAP2 SUB SWAP1 RETURN JUMPDEST PUSH2 0x1EF PUSH1 0x4 DUP1 CALLDATASIZE SUB DUP2 ADD SWAP1 PUSH2 0x1EA SWAP2 SWAP1 PUSH2 0x1366 JUMP JUMPDEST PUSH2 0x612 JUMP JUMPDEST PUSH1 0x40 MLOAD PUSH2 0x1FC SWAP2 SWAP1 PUSH2 0x1A42 JUMP JUMPDEST PUSH1 0x40 MLOAD DUP1 SWAP2 SUB SWAP1 RETURN JUMPDEST PUSH2 0x21F PUSH1 0x4 DUP1 CALLDATASIZE SUB DUP2 ADD SWAP1 PUSH2 0x21A SWAP2 SWAP1 PUSH2 0x14A9 JUMP JUMPDEST PUSH2 0x6CA JUMP JUMPDEST STOP JUMPDEST PUSH2 0x23B PUSH1 0x4 DUP1 CALLDATASIZE SUB DUP2 ADD SWAP1 PUSH2 0x236 SWAP2 SWAP1 PUSH2 0x1426 JUMP JUMPDEST PUSH2 0x836 JUMP JUMPDEST STOP JUMPDEST PUSH2 0x257 PUSH1 0x4 DUP1 CALLDATASIZE SUB DUP2 ADD SWAP1 PUSH2 0x252 SWAP2 SWAP1 PUSH2 0x1393 JUMP JUMPDEST PUSH2 0x891 JUMP JUMPDEST PUSH1 0x40 MLOAD PUSH2 0x264 SWAP2 SWAP1 PUSH2 0x1867 JUMP JUMPDEST PUSH1 0x40 MLOAD DUP1 SWAP2 SUB SWAP1 RETURN JUMPDEST PUSH1 0x0 PUSH32 0x80AC58CD00000000000000000000000000000000000000000000000000000000 PUSH28 0xFFFFFFFFFFFFFFFFFFFFFFFFFFFFFFFFFFFFFFFFFFFFFFFFFFFFFFFF NOT AND DUP3 PUSH28 0xFFFFFFFFFFFFFFFFFFFFFFFFFFFFFFFFFFFFFFFFFFFFFFFFFFFFFFFF NOT AND EQ DUP1 PUSH2 0x338 JUMPI POP PUSH32 0x1FFC9A700000000000000000000000000000000000000000000000000000000 PUSH28 0xFFFFFFFFFFFFFFFFFFFFFFFFFFFFFFFFFFFFFFFFFFFFFFFFFFFFFFFF NOT AND DUP3 PUSH28 0xFFFFFFFFFFFFFFFFFFFFFFFFFFFFFFFFFFFFFFFFFFFFFFFFFFFFFFFF NOT AND EQ JUMPDEST SWAP1 POP SWAP2 SWAP1 POP JUMP JUMPDEST PUSH1 0x0 PUSH2 0x34A DUP3 PUSH2 0x925 JUMP JUMPDEST PUSH2 0x389 JUMPI PUSH1 0x40 MLOAD PUSH32 0x8C379A000000000000000000000000000000000000000000000000000000000 DUP2 MSTORE PUSH1 0x4 ADD PUSH2 0x380 SWAP1 PUSH2 0x19A2 JUMP JUMPDEST PUSH1 0x40 MLOAD DUP1 SWAP2 SUB SWAP1 REVERT JUMPDEST PUSH1 0x2 PUSH1 0x0 DUP4 DUP2 MSTORE PUSH1 0x20 ADD SWAP1 DUP2 MSTORE PUSH1 0x20 ADD PUSH1 0x0 KECCAK256 PUSH1 0x0 SWAP1 SLOAD SWAP1 PUSH2 0x100 EXP SWAP1 DIV PUSH20 0xFFFFFFFFFFFFFFFFFFFFFFFFFFFFFFFFFFFFFFFF AND SWAP1 POP SWAP2 SWAP1 POP JUMP JUMPDEST PUSH1 0x0 PUSH2 0x3CF DUP3 PUSH2 0x561 JUMP JUMPDEST SWAP1 POP DUP1 PUSH20 0xFFFFFFFFFFFFFFFFFFFFFFFFFFFFFFFFFFFFFFFF AND DUP4 PUSH20 0xFFFFFFFFFFFFFFFFFFFFFFFFFFFFFFFFFFFFFFFF AND EQ ISZERO PUSH2 0x440 JUMPI PUSH1 0x40 MLOAD PUSH32 0x8C379A000000000000000000000000000000000000000000000000000000000 DUP2 MSTORE PUSH1 0x4 ADD PUSH2 0x437 SWAP1 PUSH2 0x19E2 JUMP JUMPDEST PUSH1 0x40 MLOAD DUP1 SWAP2 SUB SWAP1 REVERT JUMPDEST DUP1 PUSH20 0xFFFFFFFFFFFFFFFFFFFFFFFFFFFFFFFFFFFFFFFF AND CALLER PUSH20 0xFFFFFFFFFFFFFFFFFFFFFFFFFFFFFFFFFFFFFFFF AND EQ DUP1 PUSH2 0x480 JUMPI POP PUSH2 0x47F DUP2 CALLER PUSH2 0x891 JUMP JUMPDEST JUMPDEST PUSH2 0x4BF JUMPI PUSH1 0x40 MLOAD PUSH32 0x8C379A000000000000000000000000000000000000000000000000000000000 DUP2 MSTORE PUSH1 0x4 ADD PUSH2 0x4B6 SWAP1 PUSH2 0x1922 JUMP JUMPDEST PUSH1 0x40 MLOAD DUP1 SWAP2 SUB SWAP1 REVERT JUMPDEST PUSH2 0x4C9 DUP4 DUP4 PUSH2 0x990 JUMP JUMPDEST POP POP POP JUMP JUMPDEST PUSH2 0x4D8 CALLER DUP3 PUSH2 0xA49 JUMP JUMPDEST PUSH2 0x517 JUMPI PUSH1 0x40 MLOAD PUSH32 0x8C379A000000000000000000000000000000000000000000000000000000000 DUP2 MSTORE PUSH1 0x4 ADD PUSH2 0x50E SWAP1 PUSH2 0x1A02 JUMP JUMPDEST PUSH1 0x40 MLOAD DUP1 SWAP2 SUB SWAP1 REVERT JUMPDEST PUSH2 0x522 DUP4 DUP4 DUP4 PUSH2 0xB27 JUMP JUMPDEST POP POP POP JUMP JUMPDEST PUSH2 0x531 DUP3 DUP3 PUSH2 0xD75 JUMP JUMPDEST POP POP JUMP JUMPDEST PUSH2 0x550 DUP4 DUP4 DUP4 PUSH1 0x40 MLOAD DUP1 PUSH1 0x20 ADD PUSH1 0x40 MSTORE DUP1 PUSH1 0x0 DUP2 MSTORE POP PUSH2 0x836 JUMP JUMPDEST POP POP POP JUMP JUMPDEST PUSH2 0x55E DUP2 PUSH2 0xF35 JUMP JUMPDEST POP JUMP JUMPDEST PUSH1 0x0 DUP1 PUSH1 0x0 DUP1 DUP5 DUP2 MSTORE PUSH1 0x20 ADD SWAP1 DUP2 MSTORE PUSH1 0x20 ADD PUSH1 0x0 KECCAK256 PUSH1 0x0 SWAP1 SLOAD SWAP1 PUSH2 0x100 EXP SWAP1 DIV PUSH20 0xFFFFFFFFFFFFFFFFFFFFFFFFFFFFFFFFFFFFFFFF AND SWAP1 POP PUSH1 0x0 PUSH20 0xFFFFFFFFFFFFFFFFFFFFFFFFFFFFFFFFFFFFFFFF AND DUP2 PUSH20 0xFFFFFFFFFFFFFFFFFFFFFFFFFFFFFFFFFFFFFFFF AND EQ ISZERO PUSH2 0x609 JUMPI PUSH1 0x40 MLOAD PUSH32 0x8C379A000000000000000000000000000000000000000000000000000000000 DUP2 MSTORE PUSH1 0x4 ADD PUSH2 0x600 SWAP1 PUSH2 0x1962 JUMP JUMPDEST PUSH1 0x40 MLOAD DUP1 SWAP2 SUB SWAP1 REVERT JUMPDEST DUP1 SWAP2 POP POP SWAP2 SWAP1 POP JUMP JUMPDEST PUSH1 0x0 DUP1 PUSH20 0xFFFFFFFFFFFFFFFFFFFFFFFFFFFFFFFFFFFFFFFF AND DUP3 PUSH20 0xFFFFFFFFFFFFFFFFFFFFFFFFFFFFFFFFFFFFFFFF AND EQ ISZERO PUSH2 0x683 JUMPI PUSH1 0x40 MLOAD PUSH32 0x8C379A000000000000000000000000000000000000000000000000000000000 DUP2 MSTORE PUSH1 0x4 ADD PUSH2 0x67A SWAP1 PUSH2 0x1942 JUMP JUMPDEST PUSH1 0x40 MLOAD DUP1 SWAP2 SUB SWAP1 REVERT JUMPDEST PUSH1 0x1 PUSH1 0x0 DUP4 PUSH20 0xFFFFFFFFFFFFFFFFFFFFFFFFFFFFFFFFFFFFFFFF AND PUSH20 0xFFFFFFFFFFFFFFFFFFFFFFFFFFFFFFFFFFFFFFFF AND DUP2 MSTORE PUSH1 0x20 ADD SWAP1 DUP2 MSTORE PUSH1 0x20 ADD PUSH1 0x0 KECCAK256 SLOAD SWAP1 POP SWAP2 SWAP1 POP JUMP JUMPDEST CALLER PUSH20 0xFFFFFFFFFFFFFFFFFFFFFFFFFFFFFFFFFFFFFFFF AND DUP3 PUSH20 0xFFFFFFFFFFFFFFFFFFFFFFFFFFFFFFFFFFFFFFFF AND EQ ISZERO PUSH2 0x739 JUMPI PUSH1 0x40 MLOAD PUSH32 0x8C379A000000000000000000000000000000000000000000000000000000000 DUP2 MSTORE PUSH1 0x4 ADD PUSH2 0x730 SWAP1 PUSH2 0x18E2 JUMP JUMPDEST PUSH1 0x40 MLOAD DUP1 SWAP2 SUB SWAP1 REVERT JUMPDEST DUP1 PUSH1 0x3 PUSH1 0x0 CALLER PUSH20 0xFFFFFFFFFFFFFFFFFFFFFFFFFFFFFFFFFFFFFFFF AND PUSH20 0xFFFFFFFFFFFFFFFFFFFFFFFFFFFFFFFFFFFFFFFF AND DUP2 MSTORE PUSH1 0x20 ADD SWAP1 DUP2 MSTORE PUSH1 0x20 ADD PUSH1 0x0 KECCAK256 PUSH1 0x0 DUP5 PUSH20 0xFFFFFFFFFFFFFFFFFFFFFFFFFFFFFFFFFFFFFFFF AND PUSH20 0xFFFFFFFFFFFFFFFFFFFFFFFFFFFFFFFFFFFFFFFF AND DUP2 MSTORE PUSH1 0x20 ADD SWAP1 DUP2 MSTORE PUSH1 0x20 ADD PUSH1 0x0 KECCAK256 PUSH1 0x0 PUSH2 0x100 EXP DUP2 SLOAD DUP2 PUSH1 0xFF MUL NOT AND SWAP1 DUP4 ISZERO ISZERO MUL OR SWAP1 SSTORE POP DUP2 PUSH20 0xFFFFFFFFFFFFFFFFFFFFFFFFFFFFFFFFFFFFFFFF AND CALLER PUSH20 0xFFFFFFFFFFFFFFFFFFFFFFFFFFFFFFFFFFFFFFFF AND PUSH32 0x17307EAB39AB6107E8899845AD3D59BD9653F200F220920489CA2B5937696C31 DUP4 PUSH1 0x40 MLOAD PUSH2 0x82A SWAP2 SWAP1 PUSH2 0x1867 JUMP JUMPDEST PUSH1 0x40 MLOAD DUP1 SWAP2 SUB SWAP1 LOG3 POP POP JUMP JUMPDEST PUSH2 0x840 CALLER DUP4 PUSH2 0xA49 JUMP JUMPDEST PUSH2 0x87F JUMPI PUSH1 0x40 MLOAD PUSH32 0x8C379A000000000000000000000000000000000000000000000000000000000 DUP2 MSTORE PUSH1 0x4 ADD PUSH2 0x876 SWAP1 PUSH2 0x1A02 JUMP JUMPDEST PUSH1 0x40 MLOAD DUP1 SWAP2 SUB SWAP1 REVERT JUMPDEST PUSH2 0x88B DUP5 DUP5 DUP5 DUP5 PUSH2 0x10A6 JUMP JUMPDEST POP POP POP POP JUMP JUMPDEST PUSH1 0x0 PUSH1 0x3 PUSH1 0x0 DUP5 PUSH20 0xFFFFFFFFFFFFFFFFFFFFFFFFFFFFFFFFFFFFFFFF AND PUSH20 0xFFFFFFFFFFFFFFFFFFFFFFFFFFFFFFFFFFFFFFFF AND DUP2 MSTORE PUSH1 0x20 ADD SWAP1 DUP2 MSTORE PUSH1 0x20 ADD PUSH1 0x0 KECCAK256 PUSH1 0x0 DUP4 PUSH20 0xFFFFFFFFFFFFFFFFFFFFFFFFFFFFFFFFFFFFFFFF AND PUSH20 0xFFFFFFFFFFFFFFFFFFFFFFFFFFFFFFFFFFFFFFFF AND DUP2 MSTORE PUSH1 0x20 ADD SWAP1 DUP2 MSTORE PUSH1 0x20 ADD PUSH1 0x0 KECCAK256 PUSH1 0x0 SWAP1 SLOAD SWAP1 PUSH2 0x100 EXP SWAP1 DIV PUSH1 0xFF AND SWAP1 POP SWAP3 SWAP2 POP POP JUMP JUMPDEST PUSH1 0x0 DUP1 PUSH20 0xFFFFFFFFFFFFFFFFFFFFFFFFFFFFFFFFFFFFFFFF AND PUSH1 0x0 DUP1 DUP5 DUP2 MSTORE PUSH1 0x20 ADD SWAP1 DUP2 MSTORE PUSH1 0x20 ADD PUSH1 0x0 KECCAK256 PUSH1 0x0 SWAP1 SLOAD SWAP1 PUSH2 0x100 EXP SWAP1 DIV PUSH20 0xFFFFFFFFFFFFFFFFFFFFFFFFFFFFFFFFFFFFFFFF AND PUSH20 0xFFFFFFFFFFFFFFFFFFFFFFFFFFFFFFFFFFFFFFFF AND EQ ISZERO SWAP1 POP SWAP2 SWAP1 POP JUMP JUMPDEST DUP2 PUSH1 0x2 PUSH1 0x0 DUP4 DUP2 MSTORE PUSH1 0x20 ADD SWAP1 DUP2 MSTORE PUSH1 0x20 ADD PUSH1 0x0 KECCAK256 PUSH1 0x0 PUSH2 0x100 EXP DUP2 SLOAD DUP2 PUSH20 0xFFFFFFFFFFFFFFFFFFFFFFFFFFFFFFFFFFFFFFFF MUL NOT AND SWAP1 DUP4 PUSH20 0xFFFFFFFFFFFFFFFFFFFFFFFFFFFFFFFFFFFFFFFF AND MUL OR SWAP1 SSTORE POP DUP1 DUP3 PUSH20 0xFFFFFFFFFFFFFFFFFFFFFFFFFFFFFFFFFFFFFFFF AND PUSH2 0xA03 DUP4 PUSH2 0x561 JUMP JUMPDEST PUSH20 0xFFFFFFFFFFFFFFFFFFFFFFFFFFFFFFFFFFFFFFFF AND PUSH32 0x8C5BE1E5EBEC7D5BD14F71427D1E84F3DD0314C0F7B2291E5B200AC8C7C3B925 PUSH1 0x40 MLOAD PUSH1 0x40 MLOAD DUP1 SWAP2 SUB SWAP1 LOG4 POP POP JUMP JUMPDEST PUSH1 0x0 PUSH2 0xA54 DUP3 PUSH2 0x925 JUMP JUMPDEST PUSH2 0xA93 JUMPI PUSH1 0x40 MLOAD PUSH32 0x8C379A000000000000000000000000000000000000000000000000000000000 DUP2 MSTORE PUSH1 0x4 ADD PUSH2 0xA8A SWAP1 PUSH2 0x1902 JUMP JUMPDEST PUSH1 0x40 MLOAD DUP1 SWAP2 SUB SWAP1 REVERT JUMPDEST PUSH1 0x0 PUSH2 0xA9E DUP4 PUSH2 0x561 JUMP JUMPDEST SWAP1 POP DUP1 PUSH20 0xFFFFFFFFFFFFFFFFFFFFFFFFFFFFFFFFFFFFFFFF AND DUP5 PUSH20 0xFFFFFFFFFFFFFFFFFFFFFFFFFFFFFFFFFFFFFFFF AND EQ DUP1 PUSH2 0xB0D JUMPI POP DUP4 PUSH20 0xFFFFFFFFFFFFFFFFFFFFFFFFFFFFFFFFFFFFFFFF AND PUSH2 0xAF5 DUP5 PUSH2 0x33F JUMP JUMPDEST PUSH20 0xFFFFFFFFFFFFFFFFFFFFFFFFFFFFFFFFFFFFFFFF AND EQ JUMPDEST DUP1 PUSH2 0xB1E JUMPI POP PUSH2 0xB1D DUP2 DUP6 PUSH2 0x891 JUMP JUMPDEST JUMPDEST SWAP2 POP POP SWAP3 SWAP2 POP POP JUMP JUMPDEST DUP3 PUSH20 0xFFFFFFFFFFFFFFFFFFFFFFFFFFFFFFFFFFFFFFFF AND PUSH2 0xB47 DUP3 PUSH2 0x561 JUMP JUMPDEST PUSH20 0xFFFFFFFFFFFFFFFFFFFFFFFFFFFFFFFFFFFFFFFF AND EQ PUSH2 0xB9D JUMPI PUSH1 0x40 MLOAD PUSH32 0x8C379A000000000000000000000000000000000000000000000000000000000 DUP2 MSTORE PUSH1 0x4 ADD PUSH2 0xB94 SWAP1 PUSH2 0x19C2 JUMP JUMPDEST PUSH1 0x40 MLOAD DUP1 SWAP2 SUB SWAP1 REVERT JUMPDEST PUSH1 0x0 PUSH20 0xFFFFFFFFFFFFFFFFFFFFFFFFFFFFFFFFFFFFFFFF AND DUP3 PUSH20 0xFFFFFFFFFFFFFFFFFFFFFFFFFFFFFFFFFFFFFFFF AND EQ ISZERO PUSH2 0xC0D JUMPI PUSH1 0x40 MLOAD PUSH32 0x8C379A000000000000000000000000000000000000000000000000000000000 DUP2 MSTORE PUSH1 0x4 ADD PUSH2 0xC04 SWAP1 PUSH2 0x18C2 JUMP JUMPDEST PUSH1 0x40 MLOAD DUP1 SWAP2 SUB SWAP1 REVERT JUMPDEST PUSH2 0xC18 PUSH1 0x0 DUP3 PUSH2 0x990 JUMP JUMPDEST PUSH1 0x1 DUP1 PUSH1 0x0 DUP6 PUSH20 0xFFFFFFFFFFFFFFFFFFFFFFFFFFFFFFFFFFFFFFFF AND PUSH20 0xFFFFFFFFFFFFFFFFFFFFFFFFFFFFFFFFFFFFFFFF AND DUP2 MSTORE PUSH1 0x20 ADD SWAP1 DUP2 MSTORE PUSH1 0x20 ADD PUSH1 0x0 KECCAK256 PUSH1 0x0 DUP3 DUP3 SLOAD PUSH2 0xC67 SWAP2 SWAP1 PUSH2 0x1B36 JUMP JUMPDEST SWAP3 POP POP DUP2 SWAP1 SSTORE POP PUSH1 0x1 DUP1 PUSH1 0x0 DUP5 PUSH20 0xFFFFFFFFFFFFFFFFFFFFFFFFFFFFFFFFFFFFFFFF AND PUSH20 0xFFFFFFFFFFFFFFFFFFFFFFFFFFFFFFFFFFFFFFFF AND DUP2 MSTORE PUSH1 0x20 ADD SWAP1 DUP2 MSTORE PUSH1 0x20 ADD PUSH1 0x0 KECCAK256 PUSH1 0x0 DUP3 DUP3 SLOAD PUSH2 0xCBD SWAP2 SWAP1 PUSH2 0x1AE0 JUMP JUMPDEST SWAP3 POP POP DUP2 SWAP1 SSTORE POP DUP2 PUSH1 0x0 DUP1 DUP4 DUP2 MSTORE PUSH1 0x20 ADD SWAP1 DUP2 MSTORE PUSH1 0x20 ADD PUSH1 0x0 KECCAK256 PUSH1 0x0 PUSH2 0x100 EXP DUP2 SLOAD DUP2 PUSH20 0xFFFFFFFFFFFFFFFFFFFFFFFFFFFFFFFFFFFFFFFF MUL NOT AND SWAP1 DUP4 PUSH20 0xFFFFFFFFFFFFFFFFFFFFFFFFFFFFFFFFFFFFFFFF AND MUL OR SWAP1 SSTORE POP DUP1 DUP3 PUSH20 0xFFFFFFFFFFFFFFFFFFFFFFFFFFFFFFFFFFFFFFFF AND DUP5 PUSH20 0xFFFFFFFFFFFFFFFFFFFFFFFFFFFFFFFFFFFFFFFF AND PUSH32 0xDDF252AD1BE2C89B69C2B068FC378DAA952BA7F163C4A11628F55A4DF523B3EF PUSH1 0x40 MLOAD PUSH1 0x40 MLOAD DUP1 SWAP2 SUB SWAP1 LOG4 POP POP POP JUMP JUMPDEST PUSH1 0x0 PUSH20 0xFFFFFFFFFFFFFFFFFFFFFFFFFFFFFFFFFFFFFFFF AND DUP3 PUSH20 0xFFFFFFFFFFFFFFFFFFFFFFFFFFFFFFFFFFFFFFFF AND EQ ISZERO PUSH2 0xDE5 JUMPI PUSH1 0x40 MLOAD PUSH32 0x8C379A000000000000000000000000000000000000000000000000000000000 DUP2 MSTORE PUSH1 0x4 ADD PUSH2 0xDDC SWAP1 PUSH2 0x1982 JUMP JUMPDEST PUSH1 0x40 MLOAD DUP1 SWAP2 SUB SWAP1 REVERT JUMPDEST PUSH2 0xDEE DUP2 PUSH2 0x925 JUMP JUMPDEST ISZERO PUSH2 0xE2E JUMPI PUSH1 0x40 MLOAD PUSH32 0x8C379A000000000000000000000000000000000000000000000000000000000 DUP2 MSTORE PUSH1 0x4 ADD PUSH2 0xE25 SWAP1 PUSH2 0x18A2 JUMP JUMPDEST PUSH1 0x40 MLOAD DUP1 SWAP2 SUB SWAP1 REVERT JUMPDEST PUSH1 0x1 DUP1 PUSH1 0x0 DUP5 PUSH20 0xFFFFFFFFFFFFFFFFFFFFFFFFFFFFFFFFFFFFFFFF AND PUSH20 0xFFFFFFFFFFFFFFFFFFFFFFFFFFFFFFFFFFFFFFFF AND DUP2 MSTORE PUSH1 0x20 ADD SWAP1 DUP2 MSTORE PUSH1 0x20 ADD PUSH1 0x0 KECCAK256 PUSH1 0x0 DUP3 DUP3 SLOAD PUSH2 0xE7D SWAP2 SWAP1 PUSH2 0x1AE0 JUMP JUMPDEST SWAP3 POP POP DUP2 SWAP1 SSTORE POP DUP2 PUSH1 0x0 DUP1 DUP4 DUP2 MSTORE PUSH1 0x20 ADD SWAP1 DUP2 MSTORE PUSH1 0x20 ADD PUSH1 0x0 KECCAK256 PUSH1 0x0 PUSH2 0x100 EXP DUP2 SLOAD DUP2 PUSH20 0xFFFFFFFFFFFFFFFFFFFFFFFFFFFFFFFFFFFFFFFF MUL NOT AND SWAP1 DUP4 PUSH20 0xFFFFFFFFFFFFFFFFFFFFFFFFFFFFFFFFFFFFFFFF AND MUL OR SWAP1 SSTORE POP DUP1 DUP3 PUSH20 0xFFFFFFFFFFFFFFFFFFFFFFFFFFFFFFFFFFFFFFFF AND PUSH1 0x0 PUSH20 0xFFFFFFFFFFFFFFFFFFFFFFFFFFFFFFFFFFFFFFFF AND PUSH32 0xDDF252AD1BE2C89B69C2B068FC378DAA952BA7F163C4A11628F55A4DF523B3EF PUSH1 0x40 MLOAD PUSH1 0x40 MLOAD DUP1 SWAP2 SUB SWAP1 LOG4 POP POP JUMP JUMPDEST PUSH1 0x0 PUSH2 0xF40 DUP3 PUSH2 0x561 JUMP JUMPDEST SWAP1 POP DUP1 PUSH20 0xFFFFFFFFFFFFFFFFFFFFFFFFFFFFFFFFFFFFFFFF AND CALLER PUSH20 0xFFFFFFFFFFFFFFFFFFFFFFFFFFFFFFFFFFFFFFFF AND EQ PUSH2 0xFB0 JUMPI PUSH1 0x40 MLOAD PUSH32 0x8C379A000000000000000000000000000000000000000000000000000000000 DUP2 MSTORE PUSH1 0x4 ADD PUSH2 0xFA7 SWAP1 PUSH2 0x1A22 JUMP JUMPDEST PUSH1 0x40 MLOAD DUP1 SWAP2 SUB SWAP1 REVERT JUMPDEST PUSH2 0xFBB PUSH1 0x0 DUP4 PUSH2 0x990 JUMP JUMPDEST PUSH1 0x1 DUP1 PUSH1 0x0 DUP4 PUSH20 0xFFFFFFFFFFFFFFFFFFFFFFFFFFFFFFFFFFFFFFFF AND PUSH20 0xFFFFFFFFFFFFFFFFFFFFFFFFFFFFFFFFFFFFFFFF AND DUP2 MSTORE PUSH1 0x20 ADD SWAP1 DUP2 MSTORE PUSH1 0x20 ADD PUSH1 0x0 KECCAK256 PUSH1 0x0 DUP3 DUP3 SLOAD PUSH2 0x100A SWAP2 SWAP1 PUSH2 0x1B36 JUMP JUMPDEST SWAP3 POP POP DUP2 SWAP1 SSTORE POP PUSH1 0x0 DUP1 DUP4 DUP2 MSTORE PUSH1 0x20 ADD SWAP1 DUP2 MSTORE PUSH1 0x20 ADD PUSH1 0x0 KECCAK256 PUSH1 0x0 PUSH2 0x100 EXP DUP2 SLOAD SWAP1 PUSH20 0xFFFFFFFFFFFFFFFFFFFFFFFFFFFFFFFFFFFFFFFF MUL NOT AND SWAP1 SSTORE DUP2 PUSH1 0x0 PUSH20 0xFFFFFFFFFFFFFFFFFFFFFFFFFFFFFFFFFFFFFFFF AND DUP3 PUSH20 0xFFFFFFFFFFFFFFFFFFFFFFFFFFFFFFFFFFFFFFFF AND PUSH32 0xDDF252AD1BE2C89B69C2B068FC378DAA952BA7F163C4A11628F55A4DF523B3EF PUSH1 0x40 MLOAD PUSH1 0x40 MLOAD DUP1 SWAP2 SUB SWAP1 LOG4 POP POP JUMP JUMPDEST PUSH2 0x10B1 DUP5 DUP5 DUP5 PUSH2 0xB27 JUMP JUMPDEST PUSH2 0x10BD DUP5 DUP5 DUP5 DUP5 PUSH2 0x1102 JUMP JUMPDEST PUSH2 0x10FC JUMPI PUSH1 0x40 MLOAD PUSH32 0x8C379A000000000000000000000000000000000000000000000000000000000 DUP2 MSTORE PUSH1 0x4 ADD PUSH2 0x10F3 SWAP1 PUSH2 0x1882 JUMP JUMPDEST PUSH1 0x40 MLOAD DUP1 SWAP2 SUB SWAP1 REVERT JUMPDEST POP POP POP POP JUMP JUMPDEST PUSH1 0x0 DUP1 DUP5 PUSH20 0xFFFFFFFFFFFFFFFFFFFFFFFFFFFFFFFFFFFFFFFF AND EXTCODESIZE GT ISZERO PUSH2 0x1280 JUMPI DUP4 PUSH20 0xFFFFFFFFFFFFFFFFFFFFFFFFFFFFFFFFFFFFFFFF AND PUSH4 0x150B7A02 CALLER DUP8 DUP7 DUP7 PUSH1 0x40 MLOAD DUP6 PUSH4 0xFFFFFFFF AND PUSH1 0xE0 SHL DUP2 MSTORE PUSH1 0x4 ADD PUSH2 0x1162 SWAP5 SWAP4 SWAP3 SWAP2 SWAP1 PUSH2 0x181B JUMP JUMPDEST PUSH1 0x20 PUSH1 0x40 MLOAD DUP1 DUP4 SUB DUP2 PUSH1 0x0 DUP8 DUP1 EXTCODESIZE ISZERO DUP1 ISZERO PUSH2 0x117C JUMPI PUSH1 0x0 DUP1 REVERT JUMPDEST POP GAS CALL SWAP3 POP POP POP DUP1 ISZERO PUSH2 0x11AD JUMPI POP PUSH1 0x40 MLOAD RETURNDATASIZE PUSH1 0x1F NOT PUSH1 0x1F DUP3 ADD AND DUP3 ADD DUP1 PUSH1 0x40 MSTORE POP DUP2 ADD SWAP1 PUSH2 0x11AA SWAP2 SWAP1 PUSH2 0x1556 JUMP JUMPDEST PUSH1 0x1 JUMPDEST PUSH2 0x1230 JUMPI RETURNDATASIZE DUP1 PUSH1 0x0 DUP2 EQ PUSH2 0x11DD JUMPI PUSH1 0x40 MLOAD SWAP2 POP PUSH1 0x1F NOT PUSH1 0x3F RETURNDATASIZE ADD AND DUP3 ADD PUSH1 0x40 MSTORE RETURNDATASIZE DUP3 MSTORE RETURNDATASIZE PUSH1 0x0 PUSH1 0x20 DUP5 ADD RETURNDATACOPY PUSH2 0x11E2 JUMP JUMPDEST PUSH1 0x60 SWAP2 POP JUMPDEST POP PUSH1 0x0 DUP2 MLOAD EQ ISZERO PUSH2 0x1228 JUMPI PUSH1 0x40 MLOAD PUSH32 0x8C379A000000000000000000000000000000000000000000000000000000000 DUP2 MSTORE PUSH1 0x4 ADD PUSH2 0x121F SWAP1 PUSH2 0x1882 JUMP JUMPDEST PUSH1 0x40 MLOAD DUP1 SWAP2 SUB SWAP1 REVERT JUMPDEST DUP1 MLOAD DUP2 PUSH1 0x20 ADD REVERT JUMPDEST PUSH4 0x150B7A02 PUSH1 0xE0 SHL PUSH28 0xFFFFFFFFFFFFFFFFFFFFFFFFFFFFFFFFFFFFFFFFFFFFFFFFFFFFFFFF NOT AND DUP2 PUSH28 0xFFFFFFFFFFFFFFFFFFFFFFFFFFFFFFFFFFFFFFFFFFFFFFFFFFFFFFFF NOT AND EQ SWAP2 POP POP PUSH2 0x1285 JUMP JUMPDEST PUSH1 0x1 SWAP1 POP JUMPDEST SWAP5 SWAP4 POP POP POP POP JUMP JUMPDEST PUSH1 0x0 PUSH2 0x12A0 PUSH2 0x129B DUP5 PUSH2 0x1A82 JUMP JUMPDEST PUSH2 0x1A5D JUMP JUMPDEST SWAP1 POP DUP3 DUP2 MSTORE PUSH1 0x20 DUP2 ADD DUP5 DUP5 DUP5 ADD GT ISZERO PUSH2 0x12BC JUMPI PUSH2 0x12BB PUSH2 0x1CB4 JUMP JUMPDEST JUMPDEST PUSH2 0x12C7 DUP5 DUP3 DUP6 PUSH2 0x1BDE JUMP JUMPDEST POP SWAP4 SWAP3 POP POP POP JUMP JUMPDEST PUSH1 0x0 DUP2 CALLDATALOAD SWAP1 POP PUSH2 0x12DE DUP2 PUSH2 0x20B4 JUMP JUMPDEST SWAP3 SWAP2 POP POP JUMP JUMPDEST PUSH1 0x0 DUP2 CALLDATALOAD SWAP1 POP PUSH2 0x12F3 DUP2 PUSH2 0x20CB JUMP JUMPDEST SWAP3 SWAP2 POP POP JUMP JUMPDEST PUSH1 0x0 DUP2 CALLDATALOAD SWAP1 POP PUSH2 0x1308 DUP2 PUSH2 0x20E2 JUMP JUMPDEST SWAP3 SWAP2 POP POP JUMP JUMPDEST PUSH1 0x0 DUP2 MLOAD SWAP1 POP PUSH2 0x131D DUP2 PUSH2 0x20E2 JUMP JUMPDEST SWAP3 SWAP2 POP POP JUMP JUMPDEST PUSH1 0x0 DUP3 PUSH1 0x1F DUP4 ADD SLT PUSH2 0x1338 JUMPI PUSH2 0x1337 PUSH2 0x1CAF JUMP JUMPDEST JUMPDEST DUP2 CALLDATALOAD PUSH2 0x1348 DUP5 DUP3 PUSH1 0x20 DUP7 ADD PUSH2 0x128D JUMP JUMPDEST SWAP2 POP POP SWAP3 SWAP2 POP POP JUMP JUMPDEST PUSH1 0x0 DUP2 CALLDATALOAD SWAP1 POP PUSH2 0x1360 DUP2 PUSH2 0x20F9 JUMP JUMPDEST SWAP3 SWAP2 POP POP JUMP JUMPDEST PUSH1 0x0 PUSH1 0x20 DUP3 DUP5 SUB SLT ISZERO PUSH2 0x137C JUMPI PUSH2 0x137B PUSH2 0x1CBE JUMP JUMPDEST JUMPDEST PUSH1 0x0 PUSH2 0x138A DUP5 DUP3 DUP6 ADD PUSH2 0x12CF JUMP JUMPDEST SWAP2 POP POP SWAP3 SWAP2 POP POP JUMP JUMPDEST PUSH1 0x0 DUP1 PUSH1 0x40 DUP4 DUP6 SUB SLT ISZERO PUSH2 0x13AA JUMPI PUSH2 0x13A9 PUSH2 0x1CBE JUMP JUMPDEST JUMPDEST PUSH1 0x0 PUSH2 0x13B8 DUP6 DUP3 DUP7 ADD PUSH2 0x12CF JUMP JUMPDEST SWAP3 POP POP PUSH1 0x20 PUSH2 0x13C9 DUP6 DUP3 DUP7 ADD PUSH2 0x12CF JUMP JUMPDEST SWAP2 POP POP SWAP3 POP SWAP3 SWAP1 POP JUMP JUMPDEST PUSH1 0x0 DUP1 PUSH1 0x0 PUSH1 0x60 DUP5 DUP7 SUB SLT ISZERO PUSH2 0x13EC JUMPI PUSH2 0x13EB PUSH2 0x1CBE JUMP JUMPDEST JUMPDEST PUSH1 0x0 PUSH2 0x13FA DUP7 DUP3 DUP8 ADD PUSH2 0x12CF JUMP JUMPDEST SWAP4 POP POP PUSH1 0x20 PUSH2 0x140B DUP7 DUP3 DUP8 ADD PUSH2 0x12CF JUMP JUMPDEST SWAP3 POP POP PUSH1 0x40 PUSH2 0x141C DUP7 DUP3 DUP8 ADD PUSH2 0x1351 JUMP JUMPDEST SWAP2 POP POP SWAP3 POP SWAP3 POP SWAP3 JUMP JUMPDEST PUSH1 0x0 DUP1 PUSH1 0x0 DUP1 PUSH1 0x80 DUP6 DUP8 SUB SLT ISZERO PUSH2 0x1440 JUMPI PUSH2 0x143F PUSH2 0x1CBE JUMP JUMPDEST JUMPDEST PUSH1 0x0 PUSH2 0x144E DUP8 DUP3 DUP9 ADD PUSH2 0x12CF JUMP JUMPDEST SWAP5 POP POP PUSH1 0x20 PUSH2 0x145F DUP8 DUP3 DUP9 ADD PUSH2 0x12CF JUMP JUMPDEST SWAP4 POP POP PUSH1 0x40 PUSH2 0x1470 DUP8 DUP3 DUP9 ADD PUSH2 0x1351 JUMP JUMPDEST SWAP3 POP POP PUSH1 0x60 DUP6 ADD CALLDATALOAD PUSH8 0xFFFFFFFFFFFFFFFF DUP2 GT ISZERO PUSH2 0x1491 JUMPI PUSH2 0x1490 PUSH2 0x1CB9 JUMP JUMPDEST JUMPDEST PUSH2 0x149D DUP8 DUP3 DUP9 ADD PUSH2 0x1323 JUMP JUMPDEST SWAP2 POP POP SWAP3 SWAP6 SWAP2 SWAP5 POP SWAP3 POP JUMP JUMPDEST PUSH1 0x0 DUP1 PUSH1 0x40 DUP4 DUP6 SUB SLT ISZERO PUSH2 0x14C0 JUMPI PUSH2 0x14BF PUSH2 0x1CBE JUMP JUMPDEST JUMPDEST PUSH1 0x0 PUSH2 0x14CE DUP6 DUP3 DUP7 ADD PUSH2 0x12CF JUMP JUMPDEST SWAP3 POP POP PUSH1 0x20 PUSH2 0x14DF DUP6 DUP3 DUP7 ADD PUSH2 0x12E4 JUMP JUMPDEST SWAP2 POP POP SWAP3 POP SWAP3 SWAP1 POP JUMP JUMPDEST PUSH1 0x0 DUP1 PUSH1 0x40 DUP4 DUP6 SUB SLT ISZERO PUSH2 0x1500 JUMPI PUSH2 0x14FF PUSH2 0x1CBE JUMP JUMPDEST JUMPDEST PUSH1 0x0 PUSH2 0x150E DUP6 DUP3 DUP7 ADD PUSH2 0x12CF JUMP JUMPDEST SWAP3 POP POP PUSH1 0x20 PUSH2 0x151F DUP6 DUP3 DUP7 ADD PUSH2 0x1351 JUMP JUMPDEST SWAP2 POP POP SWAP3 POP SWAP3 SWAP1 POP JUMP JUMPDEST PUSH1 0x0 PUSH1 0x20 DUP3 DUP5 SUB SLT ISZERO PUSH2 0x153F JUMPI PUSH2 0x153E PUSH2 0x1CBE JUMP JUMPDEST JUMPDEST PUSH1 0x0 PUSH2 0x154D DUP5 DUP3 DUP6 ADD PUSH2 0x12F9 JUMP JUMPDEST SWAP2 POP POP SWAP3 SWAP2 POP POP JUMP JUMPDEST PUSH1 0x0 PUSH1 0x20 DUP3 DUP5 SUB SLT ISZERO PUSH2 0x156C JUMPI PUSH2 0x156B PUSH2 0x1CBE JUMP JUMPDEST JUMPDEST PUSH1 0x0 PUSH2 0x157A DUP5 DUP3 DUP6 ADD PUSH2 0x130E JUMP JUMPDEST SWAP2 POP POP SWAP3 SWAP2 POP POP JUMP JUMPDEST PUSH1 0x0 PUSH1 0x20 DUP3 DUP5 SUB SLT ISZERO PUSH2 0x1599 JUMPI PUSH2 0x1598 PUSH2 0x1CBE JUMP JUMPDEST JUMPDEST PUSH1 0x0 PUSH2 0x15A7 DUP5 DUP3 DUP6 ADD PUSH2 0x1351 JUMP JUMPDEST SWAP2 POP POP SWAP3 SWAP2 POP POP JUMP JUMPDEST PUSH2 0x15B9 DUP2 PUSH2 0x1B6A JUMP JUMPDEST DUP3 MSTORE POP POP JUMP JUMPDEST PUSH2 0x15C8 DUP2 PUSH2 0x1B7C JUMP JUMPDEST DUP3 MSTORE POP POP JUMP JUMPDEST PUSH1 0x0 PUSH2 0x15D9 DUP3 PUSH2 0x1AB3 JUMP JUMPDEST PUSH2 0x15E3 DUP2 DUP6 PUSH2 0x1ABE JUMP JUMPDEST SWAP4 POP PUSH2 0x15F3 DUP2 DUP6 PUSH1 0x20 DUP7 ADD PUSH2 0x1BED JUMP JUMPDEST PUSH2 0x15FC DUP2 PUSH2 0x1CC3 JUMP JUMPDEST DUP5 ADD SWAP2 POP POP SWAP3 SWAP2 POP POP JUMP JUMPDEST PUSH1 0x0 PUSH2 0x1614 PUSH1 0x32 DUP4 PUSH2 0x1ACF JUMP JUMPDEST SWAP2 POP PUSH2 0x161F DUP3 PUSH2 0x1CD4 JUMP JUMPDEST PUSH1 0x40 DUP3 ADD SWAP1 POP SWAP2 SWAP1 POP JUMP JUMPDEST PUSH1 0x0 PUSH2 0x1637 PUSH1 0x1C DUP4 PUSH2 0x1ACF JUMP JUMPDEST SWAP2 POP PUSH2 0x1642 DUP3 PUSH2 0x1D23 JUMP JUMPDEST PUSH1 0x20 DUP3 ADD SWAP1 POP SWAP2 SWAP1 POP JUMP JUMPDEST PUSH1 0x0 PUSH2 0x165A PUSH1 0x24 DUP4 PUSH2 0x1ACF JUMP JUMPDEST SWAP2 POP PUSH2 0x1665 DUP3 PUSH2 0x1D4C JUMP JUMPDEST PUSH1 0x40 DUP3 ADD SWAP1 POP SWAP2 SWAP1 POP JUMP JUMPDEST PUSH1 0x0 PUSH2 0x167D PUSH1 0x19 DUP4 PUSH2 0x1ACF JUMP JUMPDEST SWAP2 POP PUSH2 0x1688 DUP3 PUSH2 0x1D9B JUMP JUMPDEST PUSH1 0x20 DUP3 ADD SWAP1 POP SWAP2 SWAP1 POP JUMP JUMPDEST PUSH1 0x0 PUSH2 0x16A0 PUSH1 0x2C DUP4 PUSH2 0x1ACF JUMP JUMPDEST SWAP2 POP PUSH2 0x16AB DUP3 PUSH2 0x1DC4 JUMP JUMPDEST PUSH1 0x40 DUP3 ADD SWAP1 POP SWAP2 SWAP1 POP JUMP JUMPDEST PUSH1 0x0 PUSH2 0x16C3 PUSH1 0x38 DUP4 PUSH2 0x1ACF JUMP JUMPDEST SWAP2 POP PUSH2 0x16CE DUP3 PUSH2 0x1E13 JUMP JUMPDEST PUSH1 0x40 DUP3 ADD SWAP1 POP SWAP2 SWAP1 POP JUMP JUMPDEST PUSH1 0x0 PUSH2 0x16E6 PUSH1 0x2A DUP4 PUSH2 0x1ACF JUMP JUMPDEST SWAP2 POP PUSH2 0x16F1 DUP3 PUSH2 0x1E62 JUMP JUMPDEST PUSH1 0x40 DUP3 ADD SWAP1 POP SWAP2 SWAP1 POP JUMP JUMPDEST PUSH1 0x0 PUSH2 0x1709 PUSH1 0x29 DUP4 PUSH2 0x1ACF JUMP JUMPDEST SWAP2 POP PUSH2 0x1714 DUP3 PUSH2 0x1EB1 JUMP JUMPDEST PUSH1 0x40 DUP3 ADD SWAP1 POP SWAP2 SWAP1 POP JUMP JUMPDEST PUSH1 0x0 PUSH2 0x172C PUSH1 0x20 DUP4 PUSH2 0x1ACF JUMP JUMPDEST SWAP2 POP PUSH2 0x1737 DUP3 PUSH2 0x1F00 JUMP JUMPDEST PUSH1 0x20 DUP3 ADD SWAP1 POP SWAP2 SWAP1 POP JUMP JUMPDEST PUSH1 0x0 PUSH2 0x174F PUSH1 0x2C DUP4 PUSH2 0x1ACF JUMP JUMPDEST SWAP2 POP PUSH2 0x175A DUP3 PUSH2 0x1F29 JUMP JUMPDEST PUSH1 0x40 DUP3 ADD SWAP1 POP SWAP2 SWAP1 POP JUMP JUMPDEST PUSH1 0x0 PUSH2 0x1772 PUSH1 0x29 DUP4 PUSH2 0x1ACF JUMP JUMPDEST SWAP2 POP PUSH2 0x177D DUP3 PUSH2 0x1F78 JUMP JUMPDEST PUSH1 0x40 DUP3 ADD SWAP1 POP SWAP2 SWAP1 POP JUMP JUMPDEST PUSH1 0x0 PUSH2 0x1795 PUSH1 0x21 DUP4 PUSH2 0x1ACF JUMP JUMPDEST SWAP2 POP PUSH2 0x17A0 DUP3 PUSH2 0x1FC7 JUMP JUMPDEST PUSH1 0x40 DUP3 ADD SWAP1 POP SWAP2 SWAP1 POP JUMP JUMPDEST PUSH1 0x0 PUSH2 0x17B8 PUSH1 0x31 DUP4 PUSH2 0x1ACF JUMP JUMPDEST SWAP2 POP PUSH2 0x17C3 DUP3 PUSH2 0x2016 JUMP JUMPDEST PUSH1 0x40 DUP3 ADD SWAP1 POP SWAP2 SWAP1 POP JUMP JUMPDEST PUSH1 0x0 PUSH2 0x17DB PUSH1 0x25 DUP4 PUSH2 0x1ACF JUMP JUMPDEST SWAP2 POP PUSH2 0x17E6 DUP3 PUSH2 0x2065 JUMP JUMPDEST PUSH1 0x40 DUP3 ADD SWAP1 POP SWAP2 SWAP1 POP JUMP JUMPDEST PUSH2 0x17FA DUP2 PUSH2 0x1BD4 JUMP JUMPDEST DUP3 MSTORE POP POP JUMP JUMPDEST PUSH1 0x0 PUSH1 0x20 DUP3 ADD SWAP1 POP PUSH2 0x1815 PUSH1 0x0 DUP4 ADD DUP5 PUSH2 0x15B0 JUMP JUMPDEST SWAP3 SWAP2 POP POP JUMP JUMPDEST PUSH1 0x0 PUSH1 0x80 DUP3 ADD SWAP1 POP PUSH2 0x1830 PUSH1 0x0 DUP4 ADD DUP8 PUSH2 0x15B0 JUMP JUMPDEST PUSH2 0x183D PUSH1 0x20 DUP4 ADD DUP7 PUSH2 0x15B0 JUMP JUMPDEST PUSH2 0x184A PUSH1 0x40 DUP4 ADD DUP6 PUSH2 0x17F1 JUMP JUMPDEST DUP2 DUP2 SUB PUSH1 0x60 DUP4 ADD MSTORE PUSH2 0x185C DUP2 DUP5 PUSH2 0x15CE JUMP JUMPDEST SWAP1 POP SWAP6 SWAP5 POP POP POP POP POP JUMP JUMPDEST PUSH1 0x0 PUSH1 0x20 DUP3 ADD SWAP1 POP PUSH2 0x187C PUSH1 0x0 DUP4 ADD DUP5 PUSH2 0x15BF JUMP JUMPDEST SWAP3 SWAP2 POP POP JUMP JUMPDEST PUSH1 0x0 PUSH1 0x20 DUP3 ADD SWAP1 POP DUP2 DUP2 SUB PUSH1 0x0 DUP4 ADD MSTORE PUSH2 0x189B DUP2 PUSH2 0x1607 JUMP JUMPDEST SWAP1 POP SWAP2 SWAP1 POP JUMP JUMPDEST PUSH1 0x0 PUSH1 0x20 DUP3 ADD SWAP1 POP DUP2 DUP2 SUB PUSH1 0x0 DUP4 ADD MSTORE PUSH2 0x18BB DUP2 PUSH2 0x162A JUMP JUMPDEST SWAP1 POP SWAP2 SWAP1 POP JUMP JUMPDEST PUSH1 0x0 PUSH1 0x20 DUP3 ADD SWAP1 POP DUP2 DUP2 SUB PUSH1 0x0 DUP4 ADD MSTORE PUSH2 0x18DB DUP2 PUSH2 0x164D JUMP JUMPDEST SWAP1 POP SWAP2 SWAP1 POP JUMP JUMPDEST PUSH1 0x0 PUSH1 0x20 DUP3 ADD SWAP1 POP DUP2 DUP2 SUB PUSH1 0x0 DUP4 ADD MSTORE PUSH2 0x18FB DUP2 PUSH2 0x1670 JUMP JUMPDEST SWAP1 POP SWAP2 SWAP1 POP JUMP JUMPDEST PUSH1 0x0 PUSH1 0x20 DUP3 ADD SWAP1 POP DUP2 DUP2 SUB PUSH1 0x0 DUP4 ADD MSTORE PUSH2 0x191B DUP2 PUSH2 0x1693 JUMP JUMPDEST SWAP1 POP SWAP2 SWAP1 POP JUMP JUMPDEST PUSH1 0x0 PUSH1 0x20 DUP3 ADD SWAP1 POP DUP2 DUP2 SUB PUSH1 0x0 DUP4 ADD MSTORE PUSH2 0x193B DUP2 PUSH2 0x16B6 JUMP JUMPDEST SWAP1 POP SWAP2 SWAP1 POP JUMP JUMPDEST PUSH1 0x0 PUSH1 0x20 DUP3 ADD SWAP1 POP DUP2 DUP2 SUB PUSH1 0x0 DUP4 ADD MSTORE PUSH2 0x195B DUP2 PUSH2 0x16D9 JUMP JUMPDEST SWAP1 POP SWAP2 SWAP1 POP JUMP JUMPDEST PUSH1 0x0 PUSH1 0x20 DUP3 ADD SWAP1 POP DUP2 DUP2 SUB PUSH1 0x0 DUP4 ADD MSTORE PUSH2 0x197B DUP2 PUSH2 0x16FC JUMP JUMPDEST SWAP1 POP SWAP2 SWAP1 POP JUMP JUMPDEST PUSH1 0x0 PUSH1 0x20 DUP3 ADD SWAP1 POP DUP2 DUP2 SUB PUSH1 0x0 DUP4 ADD MSTORE PUSH2 0x199B DUP2 PUSH2 0x171F JUMP JUMPDEST SWAP1 POP SWAP2 SWAP1 POP JUMP JUMPDEST PUSH1 0x0 PUSH1 0x20 DUP3 ADD SWAP1 POP DUP2 DUP2 SUB PUSH1 0x0 DUP4 ADD MSTORE PUSH2 0x19BB DUP2 PUSH2 0x1742 JUMP JUMPDEST SWAP1 POP SWAP2 SWAP1 POP JUMP JUMPDEST PUSH1 0x0 PUSH1 0x20 DUP3 ADD SWAP1 POP DUP2 DUP2 SUB PUSH1 0x0 DUP4 ADD MSTORE PUSH2 0x19DB DUP2 PUSH2 0x1765 JUMP JUMPDEST SWAP1 POP SWAP2 SWAP1 POP JUMP JUMPDEST PUSH1 0x0 PUSH1 0x20 DUP3 ADD SWAP1 POP DUP2 DUP2 SUB PUSH1 0x0 DUP4 ADD MSTORE PUSH2 0x19FB DUP2 PUSH2 0x1788 JUMP JUMPDEST SWAP1 POP SWAP2 SWAP1 POP JUMP JUMPDEST PUSH1 0x0 PUSH1 0x20 DUP3 ADD SWAP1 POP DUP2 DUP2 SUB PUSH1 0x0 DUP4 ADD MSTORE PUSH2 0x1A1B DUP2 PUSH2 0x17AB JUMP JUMPDEST SWAP1 POP SWAP2 SWAP1 POP JUMP JUMPDEST PUSH1 0x0 PUSH1 0x20 DUP3 ADD SWAP1 POP DUP2 DUP2 SUB PUSH1 0x0 DUP4 ADD MSTORE PUSH2 0x1A3B DUP2 PUSH2 0x17CE JUMP JUMPDEST SWAP1 POP SWAP2 SWAP1 POP JUMP JUMPDEST PUSH1 0x0 PUSH1 0x20 DUP3 ADD SWAP1 POP PUSH2 0x1A57 PUSH1 0x0 DUP4 ADD DUP5 PUSH2 0x17F1 JUMP JUMPDEST SWAP3 SWAP2 POP POP JUMP JUMPDEST PUSH1 0x0 PUSH2 0x1A67 PUSH2 0x1A78 JUMP JUMPDEST SWAP1 POP PUSH2 0x1A73 DUP3 DUP3 PUSH2 0x1C20 JUMP JUMPDEST SWAP2 SWAP1 POP JUMP JUMPDEST PUSH1 0x0 PUSH1 0x40 MLOAD SWAP1 POP SWAP1 JUMP JUMPDEST PUSH1 0x0 PUSH8 0xFFFFFFFFFFFFFFFF DUP3 GT ISZERO PUSH2 0x1A9D JUMPI PUSH2 0x1A9C PUSH2 0x1C80 JUMP JUMPDEST JUMPDEST PUSH2 0x1AA6 DUP3 PUSH2 0x1CC3 JUMP JUMPDEST SWAP1 POP PUSH1 0x20 DUP2 ADD SWAP1 POP SWAP2 SWAP1 POP JUMP JUMPDEST PUSH1 0x0 DUP2 MLOAD SWAP1 POP SWAP2 SWAP1 POP JUMP JUMPDEST PUSH1 0x0 DUP3 DUP3 MSTORE PUSH1 0x20 DUP3 ADD SWAP1 POP SWAP3 SWAP2 POP POP JUMP JUMPDEST PUSH1 0x0 DUP3 DUP3 MSTORE PUSH1 0x20 DUP3 ADD SWAP1 POP SWAP3 SWAP2 POP POP JUMP JUMPDEST PUSH1 0x0 PUSH2 0x1AEB DUP3 PUSH2 0x1BD4 JUMP JUMPDEST SWAP2 POP PUSH2 0x1AF6 DUP4 PUSH2 0x1BD4 JUMP JUMPDEST SWAP3 POP DUP3 PUSH32 0xFFFFFFFFFFFFFFFFFFFFFFFFFFFFFFFFFFFFFFFFFFFFFFFFFFFFFFFFFFFFFFFF SUB DUP3 GT ISZERO PUSH2 0x1B2B JUMPI PUSH2 0x1B2A PUSH2 0x1C51 JUMP JUMPDEST JUMPDEST DUP3 DUP3 ADD SWAP1 POP SWAP3 SWAP2 POP POP JUMP JUMPDEST PUSH1 0x0 PUSH2 0x1B41 DUP3 PUSH2 0x1BD4 JUMP JUMPDEST SWAP2 POP PUSH2 0x1B4C DUP4 PUSH2 0x1BD4 JUMP JUMPDEST SWAP3 POP DUP3 DUP3 LT ISZERO PUSH2 0x1B5F JUMPI PUSH2 0x1B5E PUSH2 0x1C51 JUMP JUMPDEST JUMPDEST DUP3 DUP3 SUB SWAP1 POP SWAP3 SWAP2 POP POP JUMP JUMPDEST PUSH1 0x0 PUSH2 0x1B75 DUP3 PUSH2 0x1BB4 JUMP JUMPDEST SWAP1 POP SWAP2 SWAP1 POP JUMP JUMPDEST PUSH1 0x0 DUP2 ISZERO ISZERO SWAP1 POP SWAP2 SWAP1 POP JUMP JUMPDEST PUSH1 0x0 PUSH32 0xFFFFFFFF00000000000000000000000000000000000000000000000000000000 DUP3 AND SWAP1 POP SWAP2 SWAP1 POP JUMP JUMPDEST PUSH1 0x0 PUSH20 0xFFFFFFFFFFFFFFFFFFFFFFFFFFFFFFFFFFFFFFFF DUP3 AND SWAP1 POP SWAP2 SWAP1 POP JUMP JUMPDEST PUSH1 0x0 DUP2 SWAP1 POP SWAP2 SWAP1 POP JUMP JUMPDEST DUP3 DUP2 DUP4 CALLDATACOPY PUSH1 0x0 DUP4 DUP4 ADD MSTORE POP POP POP JUMP JUMPDEST PUSH1 0x0 JUMPDEST DUP4 DUP2 LT ISZERO PUSH2 0x1C0B JUMPI DUP1 DUP3 ADD MLOAD DUP2 DUP5 ADD MSTORE PUSH1 0x20 DUP2 ADD SWAP1 POP PUSH2 0x1BF0 JUMP JUMPDEST DUP4 DUP2 GT ISZERO PUSH2 0x1C1A JUMPI PUSH1 0x0 DUP5 DUP5 ADD MSTORE JUMPDEST POP POP POP POP JUMP JUMPDEST PUSH2 0x1C29 DUP3 PUSH2 0x1CC3 JUMP JUMPDEST DUP2 ADD DUP2 DUP2 LT PUSH8 0xFFFFFFFFFFFFFFFF DUP3 GT OR ISZERO PUSH2 0x1C48 JUMPI PUSH2 0x1C47 PUSH2 0x1C80 JUMP JUMPDEST JUMPDEST DUP1 PUSH1 0x40 MSTORE POP POP POP JUMP JUMPDEST PUSH32 0x4E487B7100000000000000000000000000000000000000000000000000000000 PUSH1 0x0 MSTORE PUSH1 0x11 PUSH1 0x4 MSTORE PUSH1 0x24 PUSH1 0x0 REVERT JUMPDEST PUSH32 0x4E487B7100000000000000000000000000000000000000000000000000000000 PUSH1 0x0 MSTORE PUSH1 0x41 PUSH1 0x4 MSTORE PUSH1 0x24 PUSH1 0x0 REVERT JUMPDEST PUSH1 0x0 DUP1 REVERT JUMPDEST PUSH1 0x0 DUP1 REVERT JUMPDEST PUSH1 0x0 DUP1 REVERT JUMPDEST PUSH1 0x0 DUP1 REVERT JUMPDEST PUSH1 0x0 PUSH1 0x1F NOT PUSH1 0x1F DUP4 ADD AND SWAP1 POP SWAP2 SWAP1 POP JUMP JUMPDEST PUSH32 0x4552433732313A207472616E7366657220746F206E6F6E204552433732315265 PUSH1 0x0 DUP3 ADD MSTORE PUSH32 0x63656976657220696D706C656D656E7465720000000000000000000000000000 PUSH1 0x20 DUP3 ADD MSTORE POP JUMP JUMPDEST PUSH32 0x4552433732313A20746F6B656E20616C7265616479206D696E74656400000000 PUSH1 0x0 DUP3 ADD MSTORE POP JUMP JUMPDEST PUSH32 0x4552433732313A207472616E7366657220746F20746865207A65726F20616464 PUSH1 0x0 DUP3 ADD MSTORE PUSH32 0x7265737300000000000000000000000000000000000000000000000000000000 PUSH1 0x20 DUP3 ADD MSTORE POP JUMP JUMPDEST PUSH32 0x4552433732313A20617070726F766520746F2063616C6C657200000000000000 PUSH1 0x0 DUP3 ADD MSTORE POP JUMP JUMPDEST PUSH32 0x4552433732313A206F70657261746F7220717565727920666F72206E6F6E6578 PUSH1 0x0 DUP3 ADD MSTORE PUSH32 0x697374656E7420746F6B656E0000000000000000000000000000000000000000 PUSH1 0x20 DUP3 ADD MSTORE POP JUMP JUMPDEST PUSH32 0x4552433732313A20617070726F76652063616C6C6572206973206E6F74206F77 PUSH1 0x0 DUP3 ADD MSTORE PUSH32 0x6E6572206E6F7220617070726F76656420666F7220616C6C0000000000000000 PUSH1 0x20 DUP3 ADD MSTORE POP JUMP JUMPDEST PUSH32 0x4552433732313A2062616C616E636520717565727920666F7220746865207A65 PUSH1 0x0 DUP3 ADD MSTORE PUSH32 0x726F206164647265737300000000000000000000000000000000000000000000 PUSH1 0x20 DUP3 ADD MSTORE POP JUMP JUMPDEST PUSH32 0x4552433732313A206F776E657220717565727920666F72206E6F6E6578697374 PUSH1 0x0 DUP3 ADD MSTORE PUSH32 0x656E7420746F6B656E0000000000000000000000000000000000000000000000 PUSH1 0x20 DUP3 ADD MSTORE POP JUMP JUMPDEST PUSH32 0x4552433732313A206D696E7420746F20746865207A65726F2061646472657373 PUSH1 0x0 DUP3 ADD MSTORE POP JUMP JUMPDEST PUSH32 0x4552433732313A20617070726F76656420717565727920666F72206E6F6E6578 PUSH1 0x0 DUP3 ADD MSTORE PUSH32 0x697374656E7420746F6B656E0000000000000000000000000000000000000000 PUSH1 0x20 DUP3 ADD MSTORE POP JUMP JUMPDEST PUSH32 0x4552433732313A207472616E73666572206F6620746F6B656E20746861742069 PUSH1 0x0 DUP3 ADD MSTORE PUSH32 0x73206E6F74206F776E0000000000000000000000000000000000000000000000 PUSH1 0x20 DUP3 ADD MSTORE POP JUMP JUMPDEST PUSH32 0x4552433732313A20617070726F76616C20746F2063757272656E74206F776E65 PUSH1 0x0 DUP3 ADD MSTORE PUSH32 0x7200000000000000000000000000000000000000000000000000000000000000 PUSH1 0x20 DUP3 ADD MSTORE POP JUMP JUMPDEST PUSH32 0x4552433732313A207472616E736665722063616C6C6572206973206E6F74206F PUSH1 0x0 DUP3 ADD MSTORE PUSH32 0x776E6572206E6F7220617070726F766564000000000000000000000000000000 PUSH1 0x20 DUP3 ADD MSTORE POP JUMP JUMPDEST PUSH32 0x4552433732313A206275726E206F6620746F6B656E2074686174206973206E6F PUSH1 0x0 DUP3 ADD MSTORE PUSH32 0x74206F776E000000000000000000000000000000000000000000000000000000 PUSH1 0x20 DUP3 ADD MSTORE POP JUMP JUMPDEST PUSH2 0x20BD DUP2 PUSH2 0x1B6A JUMP JUMPDEST DUP2 EQ PUSH2 0x20C8 JUMPI PUSH1 0x0 DUP1 REVERT JUMPDEST POP JUMP JUMPDEST PUSH2 0x20D4 DUP2 PUSH2 0x1B7C JUMP JUMPDEST DUP2 EQ PUSH2 0x20DF JUMPI PUSH1 0x0 DUP1 REVERT JUMPDEST POP JUMP JUMPDEST PUSH2 0x20EB DUP2 PUSH2 0x1B88 JUMP JUMPDEST DUP2 EQ PUSH2 0x20F6 JUMPI PUSH1 0x0 DUP1 REVERT JUMPDEST POP JUMP JUMPDEST PUSH2 0x2102 DUP2 PUSH2 0x1BD4 JUMP JUMPDEST DUP2 EQ PUSH2 0x210D JUMPI PUSH1 0x0 DUP1 REVERT JUMPDEST POP JUMP INVALID LOG2 PUSH5 0x6970667358 0x22 SLT KECCAK256 BYTE 0x28 SSTORE 0xE1 0xCD REVERT PUSH11 0xA64200471FCEF5F8985726 SUB SHL 0x27 0x5F 0xE7 0xD1 LOG4 0xF 0x4E 0xAB MSTORE SELFDESTRUCT 0xB0 DUP9 PUSH5 0x736F6C6343 STOP ADDMOD SMOD STOP CALLER "
				},
				"gasEstimates": {
					"creation": {
						"codeDepositCost": "1703600",
						"executionCost": "1792",
						"totalCost": "1705392"
					},
					"external": {
						"approve(address,uint256)": "infinite",
						"balanceOf(address)": "2923",
						"burn(uint256)": "infinite",
						"getApproved(uint256)": "5183",
						"isApprovedForAll(address,address)": "infinite",
						"mint(address,uint256)": "infinite",
						"ownerOf(uint256)": "2999",
						"safeTransferFrom(address,address,uint256)": "infinite",
						"safeTransferFrom(address,address,uint256,bytes)": "infinite",
						"setApprovalForAll(address,bool)": "infinite",
						"supportsInterface(bytes4)": "685",
						"transferFrom(address,address,uint256)": "infinite"
					}
				},
				"methodIdentifiers": {
					"approve(address,uint256)": "095ea7b3",
					"balanceOf(address)": "70a08231",
					"burn(uint256)": "42966c68",
					"getApproved(uint256)": "081812fc",
					"isApprovedForAll(address,address)": "e985e9c5",
					"mint(address,uint256)": "40c10f19",
					"ownerOf(uint256)": "6352211e",
					"safeTransferFrom(address,address,uint256)": "42842e0e",
					"safeTransferFrom(address,address,uint256,bytes)": "b88d4fde",
					"setApprovalForAll(address,bool)": "a22cb465",
					"supportsInterface(bytes4)": "01ffc9a7",
					"transferFrom(address,address,uint256)": "23b872dd"
				}
			},
			"storageLayout": {
				"storage": [
					{
						"astId": 129,
						"contract": "contracts/MyNFT.sol:MyNFT",
						"label": "_owners",
						"offset": 0,
						"slot": "0",
						"type": "t_mapping(t_uint256,t_address)"
					},
					{
						"astId": 133,
						"contract": "contracts/MyNFT.sol:MyNFT",
						"label": "_balances",
						"offset": 0,
						"slot": "1",
						"type": "t_mapping(t_address,t_uint256)"
					},
					{
						"astId": 137,
						"contract": "contracts/MyNFT.sol:MyNFT",
						"label": "_tokenApprovals",
						"offset": 0,
						"slot": "2",
						"type": "t_mapping(t_uint256,t_address)"
					},
					{
						"astId": 143,
						"contract": "contracts/MyNFT.sol:MyNFT",
						"label": "_operatorApprovals",
						"offset": 0,
						"slot": "3",
						"type": "t_mapping(t_address,t_mapping(t_address,t_bool))"
					}
				],
				"types": {
					"t_address": {
						"encoding": "inplace",
						"label": "address",
						"numberOfBytes": "20"
					},
					"t_bool": {
						"encoding": "inplace",
						"label": "bool",
						"numberOfBytes": "1"
					},
					"t_mapping(t_address,t_bool)": {
						"encoding": "mapping",
						"key": "t_address",
						"label": "mapping(address => bool)",
						"numberOfBytes": "32",
						"value": "t_bool"
					},
					"t_mapping(t_address,t_mapping(t_address,t_bool))": {
						"encoding": "mapping",
						"key": "t_address",
						"label": "mapping(address => mapping(address => bool))",
						"numberOfBytes": "32",
						"value": "t_mapping(t_address,t_bool)"
					},
					"t_mapping(t_address,t_uint256)": {
						"encoding": "mapping",
						"key": "t_address",
						"label": "mapping(address => uint256)",
						"numberOfBytes": "32",
						"value": "t_uint256"
					},
					"t_mapping(t_uint256,t_address)": {
						"encoding": "mapping",
						"key": "t_uint256",
						"label": "mapping(uint256 => address)",
						"numberOfBytes": "32",
						"value": "t_address"
					},
					"t_uint256": {
						"encoding": "inplace",
						"label": "uint256",
						"numberOfBytes": "32"
					}
				}
			},
			"userdoc": {
				"kind": "user",
				"methods": {},
				"version": 1
			}
		}
	}
}