{
	"contracts/EnglishAuction.sol": {
		"EnglishAuction": {
			"abi": [
				{
					"inputs": [
						{
							"internalType": "address",
							"name": "_nft",
							"type": "address"
						},
						{
							"internalType": "uint256",
							"name": "_nftId",
							"type": "uint256"
						},
						{
							"internalType": "uint256",
							"name": "_startBid",
							"type": "uint256"
						}
					],
					"stateMutability": "nonpayable",
					"type": "constructor"
				},
				{
					"anonymous": false,
					"inputs": [
						{
							"indexed": false,
							"internalType": "address",
							"name": "sender",
							"type": "address"
						},
						{
							"indexed": false,
							"internalType": "uint256",
							"name": "amount",
							"type": "uint256"
						}
					],
					"name": "Bid",
					"type": "event"
				},
				{
					"anonymous": false,
					"inputs": [],
					"name": "Start",
					"type": "event"
				},
				{
					"inputs": [],
					"name": "bid",
					"outputs": [],
					"stateMutability": "payable",
					"type": "function"
				},
				{
					"inputs": [],
					"name": "biggestBid",
					"outputs": [
						{
							"internalType": "uint256",
							"name": "",
							"type": "uint256"
						}
					],
					"stateMutability": "view",
					"type": "function"
				},
				{
					"inputs": [],
					"name": "biggestBidder",
					"outputs": [
						{
							"internalType": "address",
							"name": "",
							"type": "address"
						}
					],
					"stateMutability": "view",
					"type": "function"
				},
				{
					"inputs": [],
					"name": "endAt",
					"outputs": [
						{
							"internalType": "uint32",
							"name": "",
							"type": "uint32"
						}
					],
					"stateMutability": "view",
					"type": "function"
				},
				{
					"inputs": [],
					"name": "ended",
					"outputs": [
						{
							"internalType": "bool",
							"name": "",
							"type": "bool"
						}
					],
					"stateMutability": "view",
					"type": "function"
				},
				{
					"inputs": [],
					"name": "nft",
					"outputs": [
						{
							"internalType": "contract IERC721",
							"name": "",
							"type": "address"
						}
					],
					"stateMutability": "view",
					"type": "function"
				},
				{
					"inputs": [],
					"name": "nftId",
					"outputs": [
						{
							"internalType": "uint256",
							"name": "",
							"type": "uint256"
						}
					],
					"stateMutability": "view",
					"type": "function"
				},
				{
					"inputs": [],
					"name": "seller",
					"outputs": [
						{
							"internalType": "address payable",
							"name": "",
							"type": "address"
						}
					],
					"stateMutability": "view",
					"type": "function"
				},
				{
					"inputs": [],
					"name": "start",
					"outputs": [],
					"stateMutability": "nonpayable",
					"type": "function"
				},
				{
					"inputs": [],
					"name": "started",
					"outputs": [
						{
							"internalType": "bool",
							"name": "",
							"type": "bool"
						}
					],
					"stateMutability": "view",
					"type": "function"
				}
			],
			"devdoc": {
				"kind": "dev",
				"methods": {},
				"version": 1
			},
			"evm": {
				"assembly": "    /* \"contracts/EnglishAuction.sol\":184:1481  contract EnglishAuction {... */\n  mstore(0x40, 0xe0)\n    /* \"contracts/EnglishAuction.sol\":563:778  constructor(... */\n  callvalue\n  dup1\n  iszero\n  tag_1\n  jumpi\n  0x00\n  dup1\n  revert\ntag_1:\n  pop\n  mload(0x40)\n  sub(codesize, bytecodeSize)\n  dup1\n  bytecodeSize\n  dup4\n  codecopy\n  dup2\n  dup2\n  add\n  0x40\n  mstore\n  dup2\n  add\n  swap1\n  tag_2\n  swap2\n  swap1\n  tag_3\n  jump\t// in\ntag_2:\n    /* \"contracts/EnglishAuction.sol\":672:676  _nft */\n  dup3\n    /* \"contracts/EnglishAuction.sol\":658:677  nft = IERC721(_nft) */\n  0xffffffffffffffffffffffffffffffffffffffff\n  and\n  0x80\n  dup2\n  0xffffffffffffffffffffffffffffffffffffffff\n  and\n  0x60\n  shl\n  dup2\n  mstore\n  pop\n  pop\n    /* \"contracts/EnglishAuction.sol\":695:701  _nftId */\n  dup2\n    /* \"contracts/EnglishAuction.sol\":687:701  nftId = _nftId */\n  0xa0\n  dup2\n  dup2\n  mstore\n  pop\n  pop\n    /* \"contracts/EnglishAuction.sol\":728:738  msg.sender */\n  caller\n    /* \"contracts/EnglishAuction.sol\":711:739  seller = payable(msg.sender) */\n  0xffffffffffffffffffffffffffffffffffffffff\n  and\n  0xc0\n  dup2\n  0xffffffffffffffffffffffffffffffffffffffff\n  and\n  0x60\n  shl\n  dup2\n  mstore\n  pop\n  pop\n    /* \"contracts/EnglishAuction.sol\":762:771  _startBid */\n  dup1\n    /* \"contracts/EnglishAuction.sol\":749:759  biggestBid */\n  0x01\n    /* \"contracts/EnglishAuction.sol\":749:771  biggestBid = _startBid */\n  dup2\n  swap1\n  sstore\n  pop\n    /* \"contracts/EnglishAuction.sol\":563:778  constructor(... */\n  pop\n  pop\n  pop\n    /* \"contracts/EnglishAuction.sol\":184:1481  contract EnglishAuction {... */\n  jump(tag_6)\n    /* \"#utility.yul\":7:150   */\ntag_8:\n    /* \"#utility.yul\":64:69   */\n  0x00\n    /* \"#utility.yul\":95:101   */\n  dup2\n    /* \"#utility.yul\":89:102   */\n  mload\n    /* \"#utility.yul\":80:102   */\n  swap1\n  pop\n    /* \"#utility.yul\":111:144   */\n  tag_10\n    /* \"#utility.yul\":138:143   */\n  dup2\n    /* \"#utility.yul\":111:144   */\n  tag_11\n  jump\t// in\ntag_10:\n    /* \"#utility.yul\":7:150   */\n  swap3\n  swap2\n  pop\n  pop\n  jump\t// out\n    /* \"#utility.yul\":156:299   */\ntag_12:\n    /* \"#utility.yul\":213:218   */\n  0x00\n    /* \"#utility.yul\":244:250   */\n  dup2\n    /* \"#utility.yul\":238:251   */\n  mload\n    /* \"#utility.yul\":229:251   */\n  swap1\n  pop\n    /* \"#utility.yul\":260:293   */\n  tag_14\n    /* \"#utility.yul\":287:292   */\n  dup2\n    /* \"#utility.yul\":260:293   */\n  tag_15\n  jump\t// in\ntag_14:\n    /* \"#utility.yul\":156:299   */\n  swap3\n  swap2\n  pop\n  pop\n  jump\t// out\n    /* \"#utility.yul\":305:968   */\ntag_3:\n    /* \"#utility.yul\":393:399   */\n  0x00\n    /* \"#utility.yul\":401:407   */\n  dup1\n    /* \"#utility.yul\":409:415   */\n  0x00\n    /* \"#utility.yul\":458:460   */\n  0x60\n    /* \"#utility.yul\":446:455   */\n  dup5\n    /* \"#utility.yul\":437:444   */\n  dup7\n    /* \"#utility.yul\":433:456   */\n  sub\n    /* \"#utility.yul\":429:461   */\n  slt\n    /* \"#utility.yul\":426:545   */\n  iszero\n  tag_17\n  jumpi\n    /* \"#utility.yul\":464:543   */\n  tag_18\n  tag_19\n  jump\t// in\ntag_18:\n    /* \"#utility.yul\":426:545   */\ntag_17:\n    /* \"#utility.yul\":584:585   */\n  0x00\n    /* \"#utility.yul\":609:673   */\n  tag_20\n    /* \"#utility.yul\":665:672   */\n  dup7\n    /* \"#utility.yul\":656:662   */\n  dup3\n    /* \"#utility.yul\":645:654   */\n  dup8\n    /* \"#utility.yul\":641:663   */\n  add\n    /* \"#utility.yul\":609:673   */\n  tag_8\n  jump\t// in\ntag_20:\n    /* \"#utility.yul\":599:673   */\n  swap4\n  pop\n    /* \"#utility.yul\":555:683   */\n  pop\n    /* \"#utility.yul\":722:724   */\n  0x20\n    /* \"#utility.yul\":748:812   */\n  tag_21\n    /* \"#utility.yul\":804:811   */\n  dup7\n    /* \"#utility.yul\":795:801   */\n  dup3\n    /* \"#utility.yul\":784:793   */\n  dup8\n    /* \"#utility.yul\":780:802   */\n  add\n    /* \"#utility.yul\":748:812   */\n  tag_12\n  jump\t// in\ntag_21:\n    /* \"#utility.yul\":738:812   */\n  swap3\n  pop\n    /* \"#utility.yul\":693:822   */\n  pop\n    /* \"#utility.yul\":861:863   */\n  0x40\n    /* \"#utility.yul\":887:951   */\n  tag_22\n    /* \"#utility.yul\":943:950   */\n  dup7\n    /* \"#utility.yul\":934:940   */\n  dup3\n    /* \"#utility.yul\":923:932   */\n  dup8\n    /* \"#utility.yul\":919:941   */\n  add\n    /* \"#utility.yul\":887:951   */\n  tag_12\n  jump\t// in\ntag_22:\n    /* \"#utility.yul\":877:951   */\n  swap2\n  pop\n    /* \"#utility.yul\":832:961   */\n  pop\n    /* \"#utility.yul\":305:968   */\n  swap3\n  pop\n  swap3\n  pop\n  swap3\n  jump\t// out\n    /* \"#utility.yul\":1055:1151   */\ntag_25:\n    /* \"#utility.yul\":1092:1099   */\n  0x00\n    /* \"#utility.yul\":1121:1145   */\n  tag_27\n    /* \"#utility.yul\":1139:1144   */\n  dup3\n    /* \"#utility.yul\":1121:1145   */\n  tag_28\n  jump\t// in\ntag_27:\n    /* \"#utility.yul\":1110:1145   */\n  swap1\n  pop\n    /* \"#utility.yul\":1055:1151   */\n  swap2\n  swap1\n  pop\n  jump\t// out\n    /* \"#utility.yul\":1157:1283   */\ntag_28:\n    /* \"#utility.yul\":1194:1201   */\n  0x00\n    /* \"#utility.yul\":1234:1276   */\n  0xffffffffffffffffffffffffffffffffffffffff\n    /* \"#utility.yul\":1227:1232   */\n  dup3\n    /* \"#utility.yul\":1223:1277   */\n  and\n    /* \"#utility.yul\":1212:1277   */\n  swap1\n  pop\n    /* \"#utility.yul\":1157:1283   */\n  swap2\n  swap1\n  pop\n  jump\t// out\n    /* \"#utility.yul\":1289:1366   */\ntag_30:\n    /* \"#utility.yul\":1326:1333   */\n  0x00\n    /* \"#utility.yul\":1355:1360   */\n  dup2\n    /* \"#utility.yul\":1344:1360   */\n  swap1\n  pop\n    /* \"#utility.yul\":1289:1366   */\n  swap2\n  swap1\n  pop\n  jump\t// out\n    /* \"#utility.yul\":1495:1612   */\ntag_19:\n    /* \"#utility.yul\":1604:1605   */\n  0x00\n    /* \"#utility.yul\":1601:1602   */\n  dup1\n    /* \"#utility.yul\":1594:1606   */\n  revert\n    /* \"#utility.yul\":1618:1740   */\ntag_11:\n    /* \"#utility.yul\":1691:1715   */\n  tag_36\n    /* \"#utility.yul\":1709:1714   */\n  dup2\n    /* \"#utility.yul\":1691:1715   */\n  tag_25\n  jump\t// in\ntag_36:\n    /* \"#utility.yul\":1684:1689   */\n  dup2\n    /* \"#utility.yul\":1681:1716   */\n  eq\n    /* \"#utility.yul\":1671:1734   */\n  tag_37\n  jumpi\n    /* \"#utility.yul\":1730:1731   */\n  0x00\n    /* \"#utility.yul\":1727:1728   */\n  dup1\n    /* \"#utility.yul\":1720:1732   */\n  revert\n    /* \"#utility.yul\":1671:1734   */\ntag_37:\n    /* \"#utility.yul\":1618:1740   */\n  pop\n  jump\t// out\n    /* \"#utility.yul\":1746:1868   */\ntag_15:\n    /* \"#utility.yul\":1819:1843   */\n  tag_39\n    /* \"#utility.yul\":1837:1842   */\n  dup2\n    /* \"#utility.yul\":1819:1843   */\n  tag_30\n  jump\t// in\ntag_39:\n    /* \"#utility.yul\":1812:1817   */\n  dup2\n    /* \"#utility.yul\":1809:1844   */\n  eq\n    /* \"#utility.yul\":1799:1862   */\n  tag_40\n  jumpi\n    /* \"#utility.yul\":1858:1859   */\n  0x00\n    /* \"#utility.yul\":1855:1856   */\n  dup1\n    /* \"#utility.yul\":1848:1860   */\n  revert\n    /* \"#utility.yul\":1799:1862   */\ntag_40:\n    /* \"#utility.yul\":1746:1868   */\n  pop\n  jump\t// out\n    /* \"contracts/EnglishAuction.sol\":184:1481  contract EnglishAuction {... */\ntag_6:\n  shr(0x60, mload(0x80))\n  mload(0xa0)\n  shr(0x60, mload(0xc0))\n  codecopy(0x00, dataOffset(sub_0), dataSize(sub_0))\n  0x00\n  assignImmutable(\"0x9cce9eb03c9f29c6481fca9f0f942b15bef0bbbc47fda0ddb44df157019835d9\")\n  0x00\n  assignImmutable(\"0x6585423cb6456b1d4957f6454d2f004f0c4f58d53a00082412d5c2ef4b1b31fd\")\n  0x00\n  assignImmutable(\"0xd4d1a59767271eefdc7830a772b9732a11d503531d972ab8c981a6b1c0e666e5\")\n  return(0x00, dataSize(sub_0))\nstop\n\nsub_0: assembly {\n        /* \"contracts/EnglishAuction.sol\":184:1481  contract EnglishAuction {... */\n      mstore(0x40, 0x80)\n      jumpi(tag_1, lt(calldatasize, 0x04))\n      shr(0xe0, calldataload(0x00))\n      dup1\n      0x47ccca02\n      gt\n      tag_12\n      jumpi\n      dup1\n      0x47ccca02\n      eq\n      tag_7\n      jumpi\n      dup1\n      0x7cc3ae8c\n      eq\n      tag_8\n      jumpi\n      dup1\n      0xbdf3253d\n      eq\n      tag_9\n      jumpi\n      dup1\n      0xbe9a6555\n      eq\n      tag_10\n      jumpi\n      dup1\n      0xc6bc5182\n      eq\n      tag_11\n      jumpi\n      jump(tag_1)\n    tag_12:\n      dup1\n      0x08551a53\n      eq\n      tag_2\n      jumpi\n      dup1\n      0x090bcedf\n      eq\n      tag_3\n      jumpi\n      dup1\n      0x12fa6feb\n      eq\n      tag_4\n      jumpi\n      dup1\n      0x1998aeef\n      eq\n      tag_5\n      jumpi\n      dup1\n      0x1f2698ab\n      eq\n      tag_6\n      jumpi\n    tag_1:\n      0x00\n      dup1\n      revert\n        /* \"contracts/EnglishAuction.sol\":345:384  address payable public immutable seller */\n    tag_2:\n      callvalue\n      dup1\n      iszero\n      tag_13\n      jumpi\n      0x00\n      dup1\n      revert\n    tag_13:\n      pop\n      tag_14\n      tag_15\n      jump\t// in\n    tag_14:\n      mload(0x40)\n      tag_16\n      swap2\n      swap1\n      tag_17\n      jump\t// in\n    tag_16:\n      mload(0x40)\n      dup1\n      swap2\n      sub\n      swap1\n      return\n        /* \"contracts/EnglishAuction.sol\":498:520  uint public biggestBid */\n    tag_3:\n      callvalue\n      dup1\n      iszero\n      tag_18\n      jumpi\n      0x00\n      dup1\n      revert\n    tag_18:\n      pop\n      tag_19\n      tag_20\n      jump\t// in\n    tag_19:\n      mload(0x40)\n      tag_21\n      swap2\n      swap1\n      tag_22\n      jump\t// in\n    tag_21:\n      mload(0x40)\n      dup1\n      swap2\n      sub\n      swap1\n      return\n        /* \"contracts/EnglishAuction.sol\":440:457  bool public ended */\n    tag_4:\n      callvalue\n      dup1\n      iszero\n      tag_23\n      jumpi\n      0x00\n      dup1\n      revert\n    tag_23:\n      pop\n      tag_24\n      tag_25\n      jump\t// in\n    tag_24:\n      mload(0x40)\n      tag_26\n      swap2\n      swap1\n      tag_27\n      jump\t// in\n    tag_26:\n      mload(0x40)\n      dup1\n      swap2\n      sub\n      swap1\n      return\n        /* \"contracts/EnglishAuction.sol\":1070:1479  function bid()external payable {... */\n    tag_5:\n      tag_28\n      tag_29\n      jump\t// in\n    tag_28:\n      stop\n        /* \"contracts/EnglishAuction.sol\":415:434  bool public started */\n    tag_6:\n      callvalue\n      dup1\n      iszero\n      tag_30\n      jumpi\n      0x00\n      dup1\n      revert\n    tag_30:\n      pop\n      tag_31\n      tag_32\n      jump\t// in\n    tag_31:\n      mload(0x40)\n      tag_33\n      swap2\n      swap1\n      tag_27\n      jump\t// in\n    tag_33:\n      mload(0x40)\n      dup1\n      swap2\n      sub\n      swap1\n      return\n        /* \"contracts/EnglishAuction.sol\":277:305  IERC721 public immutable nft */\n    tag_7:\n      callvalue\n      dup1\n      iszero\n      tag_34\n      jumpi\n      0x00\n      dup1\n      revert\n    tag_34:\n      pop\n      tag_35\n      tag_36\n      jump\t// in\n    tag_35:\n      mload(0x40)\n      tag_37\n      swap2\n      swap1\n      tag_38\n      jump\t// in\n    tag_37:\n      mload(0x40)\n      dup1\n      swap2\n      sub\n      swap1\n      return\n        /* \"contracts/EnglishAuction.sol\":390:409  uint32 public endAt */\n    tag_8:\n      callvalue\n      dup1\n      iszero\n      tag_39\n      jumpi\n      0x00\n      dup1\n      revert\n    tag_39:\n      pop\n      tag_40\n      tag_41\n      jump\t// in\n    tag_40:\n      mload(0x40)\n      tag_42\n      swap2\n      swap1\n      tag_43\n      jump\t// in\n    tag_42:\n      mload(0x40)\n      dup1\n      swap2\n      sub\n      swap1\n      return\n        /* \"contracts/EnglishAuction.sol\":464:492  address public biggestBidder */\n    tag_9:\n      callvalue\n      dup1\n      iszero\n      tag_44\n      jumpi\n      0x00\n      dup1\n      revert\n    tag_44:\n      pop\n      tag_45\n      tag_46\n      jump\t// in\n    tag_45:\n      mload(0x40)\n      tag_47\n      swap2\n      swap1\n      tag_48\n      jump\t// in\n    tag_47:\n      mload(0x40)\n      dup1\n      swap2\n      sub\n      swap1\n      return\n        /* \"contracts/EnglishAuction.sol\":784:1064  function start() external {... */\n    tag_10:\n      callvalue\n      dup1\n      iszero\n      tag_49\n      jumpi\n      0x00\n      dup1\n      revert\n    tag_49:\n      pop\n      tag_50\n      tag_51\n      jump\t// in\n    tag_50:\n      stop\n        /* \"contracts/EnglishAuction.sol\":311:338  uint public immutable nftId */\n    tag_11:\n      callvalue\n      dup1\n      iszero\n      tag_52\n      jumpi\n      0x00\n      dup1\n      revert\n    tag_52:\n      pop\n      tag_53\n      tag_54\n      jump\t// in\n    tag_53:\n      mload(0x40)\n      tag_55\n      swap2\n      swap1\n      tag_22\n      jump\t// in\n    tag_55:\n      mload(0x40)\n      dup1\n      swap2\n      sub\n      swap1\n      return\n        /* \"contracts/EnglishAuction.sol\":345:384  address payable public immutable seller */\n    tag_15:\n      immutable(\"0x9cce9eb03c9f29c6481fca9f0f942b15bef0bbbc47fda0ddb44df157019835d9\")\n      dup2\n      jump\t// out\n        /* \"contracts/EnglishAuction.sol\":498:520  uint public biggestBid */\n    tag_20:\n      sload(0x01)\n      dup2\n      jump\t// out\n        /* \"contracts/EnglishAuction.sol\":440:457  bool public ended */\n    tag_25:\n      0x00\n      0x05\n      swap1\n      sload\n      swap1\n      0x0100\n      exp\n      swap1\n      div\n      0xff\n      and\n      dup2\n      jump\t// out\n        /* \"contracts/EnglishAuction.sol\":1070:1479  function bid()external payable {... */\n    tag_29:\n        /* \"contracts/EnglishAuction.sol\":1119:1126  started */\n      0x00\n      0x04\n      swap1\n      sload\n      swap1\n      0x0100\n      exp\n      swap1\n      div\n      0xff\n      and\n        /* \"contracts/EnglishAuction.sol\":1111:1142  require(started, \"not started\") */\n      tag_57\n      jumpi\n      mload(0x40)\n      0x08c379a000000000000000000000000000000000000000000000000000000000\n      dup2\n      mstore\n      0x04\n      add\n      tag_58\n      swap1\n      tag_59\n      jump\t// in\n    tag_58:\n      mload(0x40)\n      dup1\n      swap2\n      sub\n      swap1\n      revert\n    tag_57:\n        /* \"contracts/EnglishAuction.sol\":1178:1183  endAt */\n      0x00\n      dup1\n      sload\n      swap1\n      0x0100\n      exp\n      swap1\n      div\n      0xffffffff\n      and\n        /* \"contracts/EnglishAuction.sol\":1160:1183  block.timestamp < endAt */\n      0xffffffff\n      and\n        /* \"contracts/EnglishAuction.sol\":1160:1175  block.timestamp */\n      timestamp\n        /* \"contracts/EnglishAuction.sol\":1160:1183  block.timestamp < endAt */\n      lt\n        /* \"contracts/EnglishAuction.sol\":1152:1200  require(block.timestamp < endAt,\"already ended\") */\n      tag_60\n      jumpi\n      mload(0x40)\n      0x08c379a000000000000000000000000000000000000000000000000000000000\n      dup2\n      mstore\n      0x04\n      add\n      tag_61\n      swap1\n      tag_62\n      jump\t// in\n    tag_61:\n      mload(0x40)\n      dup1\n      swap2\n      sub\n      swap1\n      revert\n    tag_60:\n        /* \"contracts/EnglishAuction.sol\":1231:1241  biggestBid */\n      sload(0x01)\n        /* \"contracts/EnglishAuction.sol\":1218:1227  msg.value */\n      callvalue\n        /* \"contracts/EnglishAuction.sol\":1218:1241  msg.value >= biggestBid */\n      lt\n      iszero\n        /* \"contracts/EnglishAuction.sol\":1210:1263  require(msg.value >= biggestBid,\"value < biggestBid\") */\n      tag_63\n      jumpi\n      mload(0x40)\n      0x08c379a000000000000000000000000000000000000000000000000000000000\n      dup2\n      mstore\n      0x04\n      add\n      tag_64\n      swap1\n      tag_65\n      jump\t// in\n    tag_64:\n      mload(0x40)\n      dup1\n      swap2\n      sub\n      swap1\n      revert\n    tag_63:\n        /* \"contracts/EnglishAuction.sol\":1303:1304  0 */\n      0x00\n        /* \"contracts/EnglishAuction.sol\":1278:1305  biggestBidder != address(0) */\n      0xffffffffffffffffffffffffffffffffffffffff\n      and\n        /* \"contracts/EnglishAuction.sol\":1278:1291  biggestBidder */\n      0x00\n      0x06\n      swap1\n      sload\n      swap1\n      0x0100\n      exp\n      swap1\n      div\n      0xffffffffffffffffffffffffffffffffffffffff\n      and\n        /* \"contracts/EnglishAuction.sol\":1278:1305  biggestBidder != address(0) */\n      0xffffffffffffffffffffffffffffffffffffffff\n      and\n      eq\n        /* \"contracts/EnglishAuction.sol\":1274:1364  if (biggestBidder != address(0)){... */\n      tag_66\n      jumpi\n        /* \"contracts/EnglishAuction.sol\":1343:1353  biggestBid */\n      sload(0x01)\n        /* \"contracts/EnglishAuction.sol\":1320:1324  bids */\n      0x02\n        /* \"contracts/EnglishAuction.sol\":1320:1339  bids[biggestBidder] */\n      0x00\n        /* \"contracts/EnglishAuction.sol\":1325:1338  biggestBidder */\n      dup1\n      0x06\n      swap1\n      sload\n      swap1\n      0x0100\n      exp\n      swap1\n      div\n      0xffffffffffffffffffffffffffffffffffffffff\n      and\n        /* \"contracts/EnglishAuction.sol\":1320:1339  bids[biggestBidder] */\n      0xffffffffffffffffffffffffffffffffffffffff\n      and\n      0xffffffffffffffffffffffffffffffffffffffff\n      and\n      dup2\n      mstore\n      0x20\n      add\n      swap1\n      dup2\n      mstore\n      0x20\n      add\n      0x00\n      keccak256\n      0x00\n        /* \"contracts/EnglishAuction.sol\":1320:1353  bids[biggestBidder] += biggestBid */\n      dup3\n      dup3\n      sload\n      tag_67\n      swap2\n      swap1\n      tag_68\n      jump\t// in\n    tag_67:\n      swap3\n      pop\n      pop\n      dup2\n      swap1\n      sstore\n      pop\n        /* \"contracts/EnglishAuction.sol\":1274:1364  if (biggestBidder != address(0)){... */\n    tag_66:\n        /* \"contracts/EnglishAuction.sol\":1390:1400  msg.sender */\n      caller\n        /* \"contracts/EnglishAuction.sol\":1374:1387  biggestBidder */\n      0x00\n      0x06\n        /* \"contracts/EnglishAuction.sol\":1374:1400  biggestBidder = msg.sender */\n      0x0100\n      exp\n      dup2\n      sload\n      dup2\n      0xffffffffffffffffffffffffffffffffffffffff\n      mul\n      not\n      and\n      swap1\n      dup4\n      0xffffffffffffffffffffffffffffffffffffffff\n      and\n      mul\n      or\n      swap1\n      sstore\n      pop\n        /* \"contracts/EnglishAuction.sol\":1423:1432  msg.value */\n      callvalue\n        /* \"contracts/EnglishAuction.sol\":1410:1420  biggestBid */\n      0x01\n        /* \"contracts/EnglishAuction.sol\":1410:1432  biggestBid = msg.value */\n      dup2\n      swap1\n      sstore\n      pop\n        /* \"contracts/EnglishAuction.sol\":1447:1472  Bid(msg.sender,msg.value) */\n      0xe684a55f31b79eca403df938249029212a5925ec6be8012e099b45bc1019e5d2\n        /* \"contracts/EnglishAuction.sol\":1451:1461  msg.sender */\n      caller\n        /* \"contracts/EnglishAuction.sol\":1462:1471  msg.value */\n      callvalue\n        /* \"contracts/EnglishAuction.sol\":1447:1472  Bid(msg.sender,msg.value) */\n      mload(0x40)\n      tag_69\n      swap3\n      swap2\n      swap1\n      tag_70\n      jump\t// in\n    tag_69:\n      mload(0x40)\n      dup1\n      swap2\n      sub\n      swap1\n      log1\n        /* \"contracts/EnglishAuction.sol\":1070:1479  function bid()external payable {... */\n      jump\t// out\n        /* \"contracts/EnglishAuction.sol\":415:434  bool public started */\n    tag_32:\n      0x00\n      0x04\n      swap1\n      sload\n      swap1\n      0x0100\n      exp\n      swap1\n      div\n      0xff\n      and\n      dup2\n      jump\t// out\n        /* \"contracts/EnglishAuction.sol\":277:305  IERC721 public immutable nft */\n    tag_36:\n      immutable(\"0xd4d1a59767271eefdc7830a772b9732a11d503531d972ab8c981a6b1c0e666e5\")\n      dup2\n      jump\t// out\n        /* \"contracts/EnglishAuction.sol\":390:409  uint32 public endAt */\n    tag_41:\n      0x00\n      dup1\n      sload\n      swap1\n      0x0100\n      exp\n      swap1\n      div\n      0xffffffff\n      and\n      dup2\n      jump\t// out\n        /* \"contracts/EnglishAuction.sol\":464:492  address public biggestBidder */\n    tag_46:\n      0x00\n      0x06\n      swap1\n      sload\n      swap1\n      0x0100\n      exp\n      swap1\n      div\n      0xffffffffffffffffffffffffffffffffffffffff\n      and\n      dup2\n      jump\t// out\n        /* \"contracts/EnglishAuction.sol\":784:1064  function start() external {... */\n    tag_51:\n        /* \"contracts/EnglishAuction.sol\":842:848  seller */\n      immutable(\"0x9cce9eb03c9f29c6481fca9f0f942b15bef0bbbc47fda0ddb44df157019835d9\")\n        /* \"contracts/EnglishAuction.sol\":828:848  msg.sender == seller */\n      0xffffffffffffffffffffffffffffffffffffffff\n      and\n        /* \"contracts/EnglishAuction.sol\":828:838  msg.sender */\n      caller\n        /* \"contracts/EnglishAuction.sol\":828:848  msg.sender == seller */\n      0xffffffffffffffffffffffffffffffffffffffff\n      and\n      eq\n        /* \"contracts/EnglishAuction.sol\":820:863  require(msg.sender == seller ,\"not seller\") */\n      tag_72\n      jumpi\n      mload(0x40)\n      0x08c379a000000000000000000000000000000000000000000000000000000000\n      dup2\n      mstore\n      0x04\n      add\n      tag_73\n      swap1\n      tag_74\n      jump\t// in\n    tag_73:\n      mload(0x40)\n      dup1\n      swap2\n      sub\n      swap1\n      revert\n    tag_72:\n        /* \"contracts/EnglishAuction.sol\":882:889  started */\n      0x00\n      0x04\n      swap1\n      sload\n      swap1\n      0x0100\n      exp\n      swap1\n      div\n      0xff\n      and\n        /* \"contracts/EnglishAuction.sol\":881:889  !started */\n      iszero\n        /* \"contracts/EnglishAuction.sol\":873:909  require(!started, \"already started\") */\n      tag_75\n      jumpi\n      mload(0x40)\n      0x08c379a000000000000000000000000000000000000000000000000000000000\n      dup2\n      mstore\n      0x04\n      add\n      tag_76\n      swap1\n      tag_77\n      jump\t// in\n    tag_76:\n      mload(0x40)\n      dup1\n      swap2\n      sub\n      swap1\n      revert\n    tag_75:\n        /* \"contracts/EnglishAuction.sol\":930:934  true */\n      0x01\n        /* \"contracts/EnglishAuction.sol\":920:927  started */\n      0x00\n      0x04\n        /* \"contracts/EnglishAuction.sol\":920:934  started = true */\n      0x0100\n      exp\n      dup2\n      sload\n      dup2\n      0xff\n      mul\n      not\n      and\n      swap1\n      dup4\n      iszero\n      iszero\n      mul\n      or\n      swap1\n      sstore\n      pop\n        /* \"contracts/EnglishAuction.sol\":977:979  60 */\n      0x3c\n        /* \"contracts/EnglishAuction.sol\":959:974  block.timestamp */\n      timestamp\n        /* \"contracts/EnglishAuction.sol\":959:979  block.timestamp + 60 */\n      tag_78\n      swap2\n      swap1\n      tag_68\n      jump\t// in\n    tag_78:\n        /* \"contracts/EnglishAuction.sol\":944:949  endAt */\n      0x00\n      dup1\n        /* \"contracts/EnglishAuction.sol\":944:980  endAt = uint32(block.timestamp + 60) */\n      0x0100\n      exp\n      dup2\n      sload\n      dup2\n      0xffffffff\n      mul\n      not\n      and\n      swap1\n      dup4\n      0xffffffff\n      and\n      mul\n      or\n      swap1\n      sstore\n      pop\n        /* \"contracts/EnglishAuction.sol\":990:993  nft */\n      immutable(\"0xd4d1a59767271eefdc7830a772b9732a11d503531d972ab8c981a6b1c0e666e5\")\n        /* \"contracts/EnglishAuction.sol\":990:1006  nft.transferFrom */\n      0xffffffffffffffffffffffffffffffffffffffff\n      and\n      0x23b872dd\n        /* \"contracts/EnglishAuction.sol\":1007:1013  seller */\n      immutable(\"0x9cce9eb03c9f29c6481fca9f0f942b15bef0bbbc47fda0ddb44df157019835d9\")\n        /* \"contracts/EnglishAuction.sol\":1022:1026  this */\n      address\n        /* \"contracts/EnglishAuction.sol\":1028:1033  nftId */\n      immutable(\"0x6585423cb6456b1d4957f6454d2f004f0c4f58d53a00082412d5c2ef4b1b31fd\")\n        /* \"contracts/EnglishAuction.sol\":990:1034  nft.transferFrom(seller,address(this),nftId) */\n      mload(0x40)\n      dup5\n      0xffffffff\n      and\n      0xe0\n      shl\n      dup2\n      mstore\n      0x04\n      add\n      tag_79\n      swap4\n      swap3\n      swap2\n      swap1\n      tag_80\n      jump\t// in\n    tag_79:\n      0x00\n      mload(0x40)\n      dup1\n      dup4\n      sub\n      dup2\n      0x00\n      dup8\n      dup1\n      extcodesize\n      iszero\n      dup1\n      iszero\n      tag_81\n      jumpi\n      0x00\n      dup1\n      revert\n    tag_81:\n      pop\n      gas\n      call\n      iszero\n      dup1\n      iszero\n      tag_83\n      jumpi\n      returndatasize\n      0x00\n      dup1\n      returndatacopy\n      revert(0x00, returndatasize)\n    tag_83:\n      pop\n      pop\n      pop\n      pop\n        /* \"contracts/EnglishAuction.sol\":1050:1057  Start() */\n      0x1b55ba3aa851a46be3b365aee5b5c140edd620d578922f3e8466d2cbd96f954b\n      mload(0x40)\n      mload(0x40)\n      dup1\n      swap2\n      sub\n      swap1\n      log1\n        /* \"contracts/EnglishAuction.sol\":784:1064  function start() external {... */\n      jump\t// out\n        /* \"contracts/EnglishAuction.sol\":311:338  uint public immutable nftId */\n    tag_54:\n      immutable(\"0x6585423cb6456b1d4957f6454d2f004f0c4f58d53a00082412d5c2ef4b1b31fd\")\n      dup2\n      jump\t// out\n        /* \"#utility.yul\":7:154   */\n    tag_85:\n        /* \"#utility.yul\":102:147   */\n      tag_87\n        /* \"#utility.yul\":141:146   */\n      dup2\n        /* \"#utility.yul\":102:147   */\n      tag_88\n      jump\t// in\n    tag_87:\n        /* \"#utility.yul\":97:100   */\n      dup3\n        /* \"#utility.yul\":90:148   */\n      mstore\n        /* \"#utility.yul\":7:154   */\n      pop\n      pop\n      jump\t// out\n        /* \"#utility.yul\":160:302   */\n    tag_89:\n        /* \"#utility.yul\":263:295   */\n      tag_91\n        /* \"#utility.yul\":289:294   */\n      dup2\n        /* \"#utility.yul\":263:295   */\n      tag_92\n      jump\t// in\n    tag_91:\n        /* \"#utility.yul\":258:261   */\n      dup3\n        /* \"#utility.yul\":251:296   */\n      mstore\n        /* \"#utility.yul\":160:302   */\n      pop\n      pop\n      jump\t// out\n        /* \"#utility.yul\":308:426   */\n    tag_93:\n        /* \"#utility.yul\":395:419   */\n      tag_95\n        /* \"#utility.yul\":413:418   */\n      dup2\n        /* \"#utility.yul\":395:419   */\n      tag_96\n      jump\t// in\n    tag_95:\n        /* \"#utility.yul\":390:393   */\n      dup3\n        /* \"#utility.yul\":383:420   */\n      mstore\n        /* \"#utility.yul\":308:426   */\n      pop\n      pop\n      jump\t// out\n        /* \"#utility.yul\":432:541   */\n    tag_97:\n        /* \"#utility.yul\":513:534   */\n      tag_99\n        /* \"#utility.yul\":528:533   */\n      dup2\n        /* \"#utility.yul\":513:534   */\n      tag_100\n      jump\t// in\n    tag_99:\n        /* \"#utility.yul\":508:511   */\n      dup3\n        /* \"#utility.yul\":501:535   */\n      mstore\n        /* \"#utility.yul\":432:541   */\n      pop\n      pop\n      jump\t// out\n        /* \"#utility.yul\":547:706   */\n    tag_101:\n        /* \"#utility.yul\":648:699   */\n      tag_103\n        /* \"#utility.yul\":693:698   */\n      dup2\n        /* \"#utility.yul\":648:699   */\n      tag_104\n      jump\t// in\n    tag_103:\n        /* \"#utility.yul\":643:646   */\n      dup3\n        /* \"#utility.yul\":636:700   */\n      mstore\n        /* \"#utility.yul\":547:706   */\n      pop\n      pop\n      jump\t// out\n        /* \"#utility.yul\":712:1078   */\n    tag_105:\n        /* \"#utility.yul\":854:857   */\n      0x00\n        /* \"#utility.yul\":875:942   */\n      tag_107\n        /* \"#utility.yul\":939:941   */\n      0x12\n        /* \"#utility.yul\":934:937   */\n      dup4\n        /* \"#utility.yul\":875:942   */\n      tag_108\n      jump\t// in\n    tag_107:\n        /* \"#utility.yul\":868:942   */\n      swap2\n      pop\n        /* \"#utility.yul\":951:1044   */\n      tag_109\n        /* \"#utility.yul\":1040:1043   */\n      dup3\n        /* \"#utility.yul\":951:1044   */\n      tag_110\n      jump\t// in\n    tag_109:\n        /* \"#utility.yul\":1069:1071   */\n      0x20\n        /* \"#utility.yul\":1064:1067   */\n      dup3\n        /* \"#utility.yul\":1060:1072   */\n      add\n        /* \"#utility.yul\":1053:1072   */\n      swap1\n      pop\n        /* \"#utility.yul\":712:1078   */\n      swap2\n      swap1\n      pop\n      jump\t// out\n        /* \"#utility.yul\":1084:1450   */\n    tag_111:\n        /* \"#utility.yul\":1226:1229   */\n      0x00\n        /* \"#utility.yul\":1247:1314   */\n      tag_113\n        /* \"#utility.yul\":1311:1313   */\n      0x0f\n        /* \"#utility.yul\":1306:1309   */\n      dup4\n        /* \"#utility.yul\":1247:1314   */\n      tag_108\n      jump\t// in\n    tag_113:\n        /* \"#utility.yul\":1240:1314   */\n      swap2\n      pop\n        /* \"#utility.yul\":1323:1416   */\n      tag_114\n        /* \"#utility.yul\":1412:1415   */\n      dup3\n        /* \"#utility.yul\":1323:1416   */\n      tag_115\n      jump\t// in\n    tag_114:\n        /* \"#utility.yul\":1441:1443   */\n      0x20\n        /* \"#utility.yul\":1436:1439   */\n      dup3\n        /* \"#utility.yul\":1432:1444   */\n      add\n        /* \"#utility.yul\":1425:1444   */\n      swap1\n      pop\n        /* \"#utility.yul\":1084:1450   */\n      swap2\n      swap1\n      pop\n      jump\t// out\n        /* \"#utility.yul\":1456:1822   */\n    tag_116:\n        /* \"#utility.yul\":1598:1601   */\n      0x00\n        /* \"#utility.yul\":1619:1686   */\n      tag_118\n        /* \"#utility.yul\":1683:1685   */\n      0x0b\n        /* \"#utility.yul\":1678:1681   */\n      dup4\n        /* \"#utility.yul\":1619:1686   */\n      tag_108\n      jump\t// in\n    tag_118:\n        /* \"#utility.yul\":1612:1686   */\n      swap2\n      pop\n        /* \"#utility.yul\":1695:1788   */\n      tag_119\n        /* \"#utility.yul\":1784:1787   */\n      dup3\n        /* \"#utility.yul\":1695:1788   */\n      tag_120\n      jump\t// in\n    tag_119:\n        /* \"#utility.yul\":1813:1815   */\n      0x20\n        /* \"#utility.yul\":1808:1811   */\n      dup3\n        /* \"#utility.yul\":1804:1816   */\n      add\n        /* \"#utility.yul\":1797:1816   */\n      swap1\n      pop\n        /* \"#utility.yul\":1456:1822   */\n      swap2\n      swap1\n      pop\n      jump\t// out\n        /* \"#utility.yul\":1828:2194   */\n    tag_121:\n        /* \"#utility.yul\":1970:1973   */\n      0x00\n        /* \"#utility.yul\":1991:2058   */\n      tag_123\n        /* \"#utility.yul\":2055:2057   */\n      0x0a\n        /* \"#utility.yul\":2050:2053   */\n      dup4\n        /* \"#utility.yul\":1991:2058   */\n      tag_108\n      jump\t// in\n    tag_123:\n        /* \"#utility.yul\":1984:2058   */\n      swap2\n      pop\n        /* \"#utility.yul\":2067:2160   */\n      tag_124\n        /* \"#utility.yul\":2156:2159   */\n      dup3\n        /* \"#utility.yul\":2067:2160   */\n      tag_125\n      jump\t// in\n    tag_124:\n        /* \"#utility.yul\":2185:2187   */\n      0x20\n        /* \"#utility.yul\":2180:2183   */\n      dup3\n        /* \"#utility.yul\":2176:2188   */\n      add\n        /* \"#utility.yul\":2169:2188   */\n      swap1\n      pop\n        /* \"#utility.yul\":1828:2194   */\n      swap2\n      swap1\n      pop\n      jump\t// out\n        /* \"#utility.yul\":2200:2566   */\n    tag_126:\n        /* \"#utility.yul\":2342:2345   */\n      0x00\n        /* \"#utility.yul\":2363:2430   */\n      tag_128\n        /* \"#utility.yul\":2427:2429   */\n      0x0d\n        /* \"#utility.yul\":2422:2425   */\n      dup4\n        /* \"#utility.yul\":2363:2430   */\n      tag_108\n      jump\t// in\n    tag_128:\n        /* \"#utility.yul\":2356:2430   */\n      swap2\n      pop\n        /* \"#utility.yul\":2439:2532   */\n      tag_129\n        /* \"#utility.yul\":2528:2531   */\n      dup3\n        /* \"#utility.yul\":2439:2532   */\n      tag_130\n      jump\t// in\n    tag_129:\n        /* \"#utility.yul\":2557:2559   */\n      0x20\n        /* \"#utility.yul\":2552:2555   */\n      dup3\n        /* \"#utility.yul\":2548:2560   */\n      add\n        /* \"#utility.yul\":2541:2560   */\n      swap1\n      pop\n        /* \"#utility.yul\":2200:2566   */\n      swap2\n      swap1\n      pop\n      jump\t// out\n        /* \"#utility.yul\":2572:2690   */\n    tag_131:\n        /* \"#utility.yul\":2659:2683   */\n      tag_133\n        /* \"#utility.yul\":2677:2682   */\n      dup2\n        /* \"#utility.yul\":2659:2683   */\n      tag_134\n      jump\t// in\n    tag_133:\n        /* \"#utility.yul\":2654:2657   */\n      dup3\n        /* \"#utility.yul\":2647:2684   */\n      mstore\n        /* \"#utility.yul\":2572:2690   */\n      pop\n      pop\n      jump\t// out\n        /* \"#utility.yul\":2696:2811   */\n    tag_135:\n        /* \"#utility.yul\":2781:2804   */\n      tag_137\n        /* \"#utility.yul\":2798:2803   */\n      dup2\n        /* \"#utility.yul\":2781:2804   */\n      tag_138\n      jump\t// in\n    tag_137:\n        /* \"#utility.yul\":2776:2779   */\n      dup3\n        /* \"#utility.yul\":2769:2805   */\n      mstore\n        /* \"#utility.yul\":2696:2811   */\n      pop\n      pop\n      jump\t// out\n        /* \"#utility.yul\":2817:3039   */\n    tag_48:\n        /* \"#utility.yul\":2910:2914   */\n      0x00\n        /* \"#utility.yul\":2948:2950   */\n      0x20\n        /* \"#utility.yul\":2937:2946   */\n      dup3\n        /* \"#utility.yul\":2933:2951   */\n      add\n        /* \"#utility.yul\":2925:2951   */\n      swap1\n      pop\n        /* \"#utility.yul\":2961:3032   */\n      tag_140\n        /* \"#utility.yul\":3029:3030   */\n      0x00\n        /* \"#utility.yul\":3018:3027   */\n      dup4\n        /* \"#utility.yul\":3014:3031   */\n      add\n        /* \"#utility.yul\":3005:3011   */\n      dup5\n        /* \"#utility.yul\":2961:3032   */\n      tag_93\n      jump\t// in\n    tag_140:\n        /* \"#utility.yul\":2817:3039   */\n      swap3\n      swap2\n      pop\n      pop\n      jump\t// out\n        /* \"#utility.yul\":3045:3299   */\n    tag_17:\n        /* \"#utility.yul\":3154:3158   */\n      0x00\n        /* \"#utility.yul\":3192:3194   */\n      0x20\n        /* \"#utility.yul\":3181:3190   */\n      dup3\n        /* \"#utility.yul\":3177:3195   */\n      add\n        /* \"#utility.yul\":3169:3195   */\n      swap1\n      pop\n        /* \"#utility.yul\":3205:3292   */\n      tag_142\n        /* \"#utility.yul\":3289:3290   */\n      0x00\n        /* \"#utility.yul\":3278:3287   */\n      dup4\n        /* \"#utility.yul\":3274:3291   */\n      add\n        /* \"#utility.yul\":3265:3271   */\n      dup5\n        /* \"#utility.yul\":3205:3292   */\n      tag_89\n      jump\t// in\n    tag_142:\n        /* \"#utility.yul\":3045:3299   */\n      swap3\n      swap2\n      pop\n      pop\n      jump\t// out\n        /* \"#utility.yul\":3305:3763   */\n    tag_80:\n        /* \"#utility.yul\":3462:3466   */\n      0x00\n        /* \"#utility.yul\":3500:3502   */\n      0x60\n        /* \"#utility.yul\":3489:3498   */\n      dup3\n        /* \"#utility.yul\":3485:3503   */\n      add\n        /* \"#utility.yul\":3477:3503   */\n      swap1\n      pop\n        /* \"#utility.yul\":3513:3592   */\n      tag_144\n        /* \"#utility.yul\":3589:3590   */\n      0x00\n        /* \"#utility.yul\":3578:3587   */\n      dup4\n        /* \"#utility.yul\":3574:3591   */\n      add\n        /* \"#utility.yul\":3565:3571   */\n      dup7\n        /* \"#utility.yul\":3513:3592   */\n      tag_85\n      jump\t// in\n    tag_144:\n        /* \"#utility.yul\":3602:3674   */\n      tag_145\n        /* \"#utility.yul\":3670:3672   */\n      0x20\n        /* \"#utility.yul\":3659:3668   */\n      dup4\n        /* \"#utility.yul\":3655:3673   */\n      add\n        /* \"#utility.yul\":3646:3652   */\n      dup6\n        /* \"#utility.yul\":3602:3674   */\n      tag_93\n      jump\t// in\n    tag_145:\n        /* \"#utility.yul\":3684:3756   */\n      tag_146\n        /* \"#utility.yul\":3752:3754   */\n      0x40\n        /* \"#utility.yul\":3741:3750   */\n      dup4\n        /* \"#utility.yul\":3737:3755   */\n      add\n        /* \"#utility.yul\":3728:3734   */\n      dup5\n        /* \"#utility.yul\":3684:3756   */\n      tag_131\n      jump\t// in\n    tag_146:\n        /* \"#utility.yul\":3305:3763   */\n      swap5\n      swap4\n      pop\n      pop\n      pop\n      pop\n      jump\t// out\n        /* \"#utility.yul\":3769:4101   */\n    tag_70:\n        /* \"#utility.yul\":3890:3894   */\n      0x00\n        /* \"#utility.yul\":3928:3930   */\n      0x40\n        /* \"#utility.yul\":3917:3926   */\n      dup3\n        /* \"#utility.yul\":3913:3931   */\n      add\n        /* \"#utility.yul\":3905:3931   */\n      swap1\n      pop\n        /* \"#utility.yul\":3941:4012   */\n      tag_148\n        /* \"#utility.yul\":4009:4010   */\n      0x00\n        /* \"#utility.yul\":3998:4007   */\n      dup4\n        /* \"#utility.yul\":3994:4011   */\n      add\n        /* \"#utility.yul\":3985:3991   */\n      dup6\n        /* \"#utility.yul\":3941:4012   */\n      tag_93\n      jump\t// in\n    tag_148:\n        /* \"#utility.yul\":4022:4094   */\n      tag_149\n        /* \"#utility.yul\":4090:4092   */\n      0x20\n        /* \"#utility.yul\":4079:4088   */\n      dup4\n        /* \"#utility.yul\":4075:4093   */\n      add\n        /* \"#utility.yul\":4066:4072   */\n      dup5\n        /* \"#utility.yul\":4022:4094   */\n      tag_131\n      jump\t// in\n    tag_149:\n        /* \"#utility.yul\":3769:4101   */\n      swap4\n      swap3\n      pop\n      pop\n      pop\n      jump\t// out\n        /* \"#utility.yul\":4107:4317   */\n    tag_27:\n        /* \"#utility.yul\":4194:4198   */\n      0x00\n        /* \"#utility.yul\":4232:4234   */\n      0x20\n        /* \"#utility.yul\":4221:4230   */\n      dup3\n        /* \"#utility.yul\":4217:4235   */\n      add\n        /* \"#utility.yul\":4209:4235   */\n      swap1\n      pop\n        /* \"#utility.yul\":4245:4310   */\n      tag_151\n        /* \"#utility.yul\":4307:4308   */\n      0x00\n        /* \"#utility.yul\":4296:4305   */\n      dup4\n        /* \"#utility.yul\":4292:4309   */\n      add\n        /* \"#utility.yul\":4283:4289   */\n      dup5\n        /* \"#utility.yul\":4245:4310   */\n      tag_97\n      jump\t// in\n    tag_151:\n        /* \"#utility.yul\":4107:4317   */\n      swap3\n      swap2\n      pop\n      pop\n      jump\t// out\n        /* \"#utility.yul\":4323:4573   */\n    tag_38:\n        /* \"#utility.yul\":4430:4434   */\n      0x00\n        /* \"#utility.yul\":4468:4470   */\n      0x20\n        /* \"#utility.yul\":4457:4466   */\n      dup3\n        /* \"#utility.yul\":4453:4471   */\n      add\n        /* \"#utility.yul\":4445:4471   */\n      swap1\n      pop\n        /* \"#utility.yul\":4481:4566   */\n      tag_153\n        /* \"#utility.yul\":4563:4564   */\n      0x00\n        /* \"#utility.yul\":4552:4561   */\n      dup4\n        /* \"#utility.yul\":4548:4565   */\n      add\n        /* \"#utility.yul\":4539:4545   */\n      dup5\n        /* \"#utility.yul\":4481:4566   */\n      tag_101\n      jump\t// in\n    tag_153:\n        /* \"#utility.yul\":4323:4573   */\n      swap3\n      swap2\n      pop\n      pop\n      jump\t// out\n        /* \"#utility.yul\":4579:4998   */\n    tag_65:\n        /* \"#utility.yul\":4745:4749   */\n      0x00\n        /* \"#utility.yul\":4783:4785   */\n      0x20\n        /* \"#utility.yul\":4772:4781   */\n      dup3\n        /* \"#utility.yul\":4768:4786   */\n      add\n        /* \"#utility.yul\":4760:4786   */\n      swap1\n      pop\n        /* \"#utility.yul\":4832:4841   */\n      dup2\n        /* \"#utility.yul\":4826:4830   */\n      dup2\n        /* \"#utility.yul\":4822:4842   */\n      sub\n        /* \"#utility.yul\":4818:4819   */\n      0x00\n        /* \"#utility.yul\":4807:4816   */\n      dup4\n        /* \"#utility.yul\":4803:4820   */\n      add\n        /* \"#utility.yul\":4796:4843   */\n      mstore\n        /* \"#utility.yul\":4860:4991   */\n      tag_155\n        /* \"#utility.yul\":4986:4990   */\n      dup2\n        /* \"#utility.yul\":4860:4991   */\n      tag_105\n      jump\t// in\n    tag_155:\n        /* \"#utility.yul\":4852:4991   */\n      swap1\n      pop\n        /* \"#utility.yul\":4579:4998   */\n      swap2\n      swap1\n      pop\n      jump\t// out\n        /* \"#utility.yul\":5004:5423   */\n    tag_77:\n        /* \"#utility.yul\":5170:5174   */\n      0x00\n        /* \"#utility.yul\":5208:5210   */\n      0x20\n        /* \"#utility.yul\":5197:5206   */\n      dup3\n        /* \"#utility.yul\":5193:5211   */\n      add\n        /* \"#utility.yul\":5185:5211   */\n      swap1\n      pop\n        /* \"#utility.yul\":5257:5266   */\n      dup2\n        /* \"#utility.yul\":5251:5255   */\n      dup2\n        /* \"#utility.yul\":5247:5267   */\n      sub\n        /* \"#utility.yul\":5243:5244   */\n      0x00\n        /* \"#utility.yul\":5232:5241   */\n      dup4\n        /* \"#utility.yul\":5228:5245   */\n      add\n        /* \"#utility.yul\":5221:5268   */\n      mstore\n        /* \"#utility.yul\":5285:5416   */\n      tag_157\n        /* \"#utility.yul\":5411:5415   */\n      dup2\n        /* \"#utility.yul\":5285:5416   */\n      tag_111\n      jump\t// in\n    tag_157:\n        /* \"#utility.yul\":5277:5416   */\n      swap1\n      pop\n        /* \"#utility.yul\":5004:5423   */\n      swap2\n      swap1\n      pop\n      jump\t// out\n        /* \"#utility.yul\":5429:5848   */\n    tag_59:\n        /* \"#utility.yul\":5595:5599   */\n      0x00\n        /* \"#utility.yul\":5633:5635   */\n      0x20\n        /* \"#utility.yul\":5622:5631   */\n      dup3\n        /* \"#utility.yul\":5618:5636   */\n      add\n        /* \"#utility.yul\":5610:5636   */\n      swap1\n      pop\n        /* \"#utility.yul\":5682:5691   */\n      dup2\n        /* \"#utility.yul\":5676:5680   */\n      dup2\n        /* \"#utility.yul\":5672:5692   */\n      sub\n        /* \"#utility.yul\":5668:5669   */\n      0x00\n        /* \"#utility.yul\":5657:5666   */\n      dup4\n        /* \"#utility.yul\":5653:5670   */\n      add\n        /* \"#utility.yul\":5646:5693   */\n      mstore\n        /* \"#utility.yul\":5710:5841   */\n      tag_159\n        /* \"#utility.yul\":5836:5840   */\n      dup2\n        /* \"#utility.yul\":5710:5841   */\n      tag_116\n      jump\t// in\n    tag_159:\n        /* \"#utility.yul\":5702:5841   */\n      swap1\n      pop\n        /* \"#utility.yul\":5429:5848   */\n      swap2\n      swap1\n      pop\n      jump\t// out\n        /* \"#utility.yul\":5854:6273   */\n    tag_74:\n        /* \"#utility.yul\":6020:6024   */\n      0x00\n        /* \"#utility.yul\":6058:6060   */\n      0x20\n        /* \"#utility.yul\":6047:6056   */\n      dup3\n        /* \"#utility.yul\":6043:6061   */\n      add\n        /* \"#utility.yul\":6035:6061   */\n      swap1\n      pop\n        /* \"#utility.yul\":6107:6116   */\n      dup2\n        /* \"#utility.yul\":6101:6105   */\n      dup2\n        /* \"#utility.yul\":6097:6117   */\n      sub\n        /* \"#utility.yul\":6093:6094   */\n      0x00\n        /* \"#utility.yul\":6082:6091   */\n      dup4\n        /* \"#utility.yul\":6078:6095   */\n      add\n        /* \"#utility.yul\":6071:6118   */\n      mstore\n        /* \"#utility.yul\":6135:6266   */\n      tag_161\n        /* \"#utility.yul\":6261:6265   */\n      dup2\n        /* \"#utility.yul\":6135:6266   */\n      tag_121\n      jump\t// in\n    tag_161:\n        /* \"#utility.yul\":6127:6266   */\n      swap1\n      pop\n        /* \"#utility.yul\":5854:6273   */\n      swap2\n      swap1\n      pop\n      jump\t// out\n        /* \"#utility.yul\":6279:6698   */\n    tag_62:\n        /* \"#utility.yul\":6445:6449   */\n      0x00\n        /* \"#utility.yul\":6483:6485   */\n      0x20\n        /* \"#utility.yul\":6472:6481   */\n      dup3\n        /* \"#utility.yul\":6468:6486   */\n      add\n        /* \"#utility.yul\":6460:6486   */\n      swap1\n      pop\n        /* \"#utility.yul\":6532:6541   */\n      dup2\n        /* \"#utility.yul\":6526:6530   */\n      dup2\n        /* \"#utility.yul\":6522:6542   */\n      sub\n        /* \"#utility.yul\":6518:6519   */\n      0x00\n        /* \"#utility.yul\":6507:6516   */\n      dup4\n        /* \"#utility.yul\":6503:6520   */\n      add\n        /* \"#utility.yul\":6496:6543   */\n      mstore\n        /* \"#utility.yul\":6560:6691   */\n      tag_163\n        /* \"#utility.yul\":6686:6690   */\n      dup2\n        /* \"#utility.yul\":6560:6691   */\n      tag_126\n      jump\t// in\n    tag_163:\n        /* \"#utility.yul\":6552:6691   */\n      swap1\n      pop\n        /* \"#utility.yul\":6279:6698   */\n      swap2\n      swap1\n      pop\n      jump\t// out\n        /* \"#utility.yul\":6704:6926   */\n    tag_22:\n        /* \"#utility.yul\":6797:6801   */\n      0x00\n        /* \"#utility.yul\":6835:6837   */\n      0x20\n        /* \"#utility.yul\":6824:6833   */\n      dup3\n        /* \"#utility.yul\":6820:6838   */\n      add\n        /* \"#utility.yul\":6812:6838   */\n      swap1\n      pop\n        /* \"#utility.yul\":6848:6919   */\n      tag_165\n        /* \"#utility.yul\":6916:6917   */\n      0x00\n        /* \"#utility.yul\":6905:6914   */\n      dup4\n        /* \"#utility.yul\":6901:6918   */\n      add\n        /* \"#utility.yul\":6892:6898   */\n      dup5\n        /* \"#utility.yul\":6848:6919   */\n      tag_131\n      jump\t// in\n    tag_165:\n        /* \"#utility.yul\":6704:6926   */\n      swap3\n      swap2\n      pop\n      pop\n      jump\t// out\n        /* \"#utility.yul\":6932:7150   */\n    tag_43:\n        /* \"#utility.yul\":7023:7027   */\n      0x00\n        /* \"#utility.yul\":7061:7063   */\n      0x20\n        /* \"#utility.yul\":7050:7059   */\n      dup3\n        /* \"#utility.yul\":7046:7064   */\n      add\n        /* \"#utility.yul\":7038:7064   */\n      swap1\n      pop\n        /* \"#utility.yul\":7074:7143   */\n      tag_167\n        /* \"#utility.yul\":7140:7141   */\n      0x00\n        /* \"#utility.yul\":7129:7138   */\n      dup4\n        /* \"#utility.yul\":7125:7142   */\n      add\n        /* \"#utility.yul\":7116:7122   */\n      dup5\n        /* \"#utility.yul\":7074:7143   */\n      tag_135\n      jump\t// in\n    tag_167:\n        /* \"#utility.yul\":6932:7150   */\n      swap3\n      swap2\n      pop\n      pop\n      jump\t// out\n        /* \"#utility.yul\":7156:7325   */\n    tag_108:\n        /* \"#utility.yul\":7240:7251   */\n      0x00\n        /* \"#utility.yul\":7274:7280   */\n      dup3\n        /* \"#utility.yul\":7269:7272   */\n      dup3\n        /* \"#utility.yul\":7262:7281   */\n      mstore\n        /* \"#utility.yul\":7314:7318   */\n      0x20\n        /* \"#utility.yul\":7309:7312   */\n      dup3\n        /* \"#utility.yul\":7305:7319   */\n      add\n        /* \"#utility.yul\":7290:7319   */\n      swap1\n      pop\n        /* \"#utility.yul\":7156:7325   */\n      swap3\n      swap2\n      pop\n      pop\n      jump\t// out\n        /* \"#utility.yul\":7331:7636   */\n    tag_68:\n        /* \"#utility.yul\":7371:7374   */\n      0x00\n        /* \"#utility.yul\":7390:7410   */\n      tag_170\n        /* \"#utility.yul\":7408:7409   */\n      dup3\n        /* \"#utility.yul\":7390:7410   */\n      tag_134\n      jump\t// in\n    tag_170:\n        /* \"#utility.yul\":7385:7410   */\n      swap2\n      pop\n        /* \"#utility.yul\":7424:7444   */\n      tag_171\n        /* \"#utility.yul\":7442:7443   */\n      dup4\n        /* \"#utility.yul\":7424:7444   */\n      tag_134\n      jump\t// in\n    tag_171:\n        /* \"#utility.yul\":7419:7444   */\n      swap3\n      pop\n        /* \"#utility.yul\":7578:7579   */\n      dup3\n        /* \"#utility.yul\":7510:7576   */\n      0xffffffffffffffffffffffffffffffffffffffffffffffffffffffffffffffff\n        /* \"#utility.yul\":7506:7580   */\n      sub\n        /* \"#utility.yul\":7503:7504   */\n      dup3\n        /* \"#utility.yul\":7500:7581   */\n      gt\n        /* \"#utility.yul\":7497:7604   */\n      iszero\n      tag_172\n      jumpi\n        /* \"#utility.yul\":7584:7602   */\n      tag_173\n      tag_174\n      jump\t// in\n    tag_173:\n        /* \"#utility.yul\":7497:7604   */\n    tag_172:\n        /* \"#utility.yul\":7628:7629   */\n      dup3\n        /* \"#utility.yul\":7625:7626   */\n      dup3\n        /* \"#utility.yul\":7621:7630   */\n      add\n        /* \"#utility.yul\":7614:7630   */\n      swap1\n      pop\n        /* \"#utility.yul\":7331:7636   */\n      swap3\n      swap2\n      pop\n      pop\n      jump\t// out\n        /* \"#utility.yul\":7642:7738   */\n    tag_96:\n        /* \"#utility.yul\":7679:7686   */\n      0x00\n        /* \"#utility.yul\":7708:7732   */\n      tag_176\n        /* \"#utility.yul\":7726:7731   */\n      dup3\n        /* \"#utility.yul\":7708:7732   */\n      tag_177\n      jump\t// in\n    tag_176:\n        /* \"#utility.yul\":7697:7732   */\n      swap1\n      pop\n        /* \"#utility.yul\":7642:7738   */\n      swap2\n      swap1\n      pop\n      jump\t// out\n        /* \"#utility.yul\":7744:7848   */\n    tag_92:\n        /* \"#utility.yul\":7789:7796   */\n      0x00\n        /* \"#utility.yul\":7818:7842   */\n      tag_179\n        /* \"#utility.yul\":7836:7841   */\n      dup3\n        /* \"#utility.yul\":7818:7842   */\n      tag_177\n      jump\t// in\n    tag_179:\n        /* \"#utility.yul\":7807:7842   */\n      swap1\n      pop\n        /* \"#utility.yul\":7744:7848   */\n      swap2\n      swap1\n      pop\n      jump\t// out\n        /* \"#utility.yul\":7854:7944   */\n    tag_100:\n        /* \"#utility.yul\":7888:7895   */\n      0x00\n        /* \"#utility.yul\":7931:7936   */\n      dup2\n        /* \"#utility.yul\":7924:7937   */\n      iszero\n        /* \"#utility.yul\":7917:7938   */\n      iszero\n        /* \"#utility.yul\":7906:7938   */\n      swap1\n      pop\n        /* \"#utility.yul\":7854:7944   */\n      swap2\n      swap1\n      pop\n      jump\t// out\n        /* \"#utility.yul\":7950:8076   */\n    tag_177:\n        /* \"#utility.yul\":7987:7994   */\n      0x00\n        /* \"#utility.yul\":8027:8069   */\n      0xffffffffffffffffffffffffffffffffffffffff\n        /* \"#utility.yul\":8020:8025   */\n      dup3\n        /* \"#utility.yul\":8016:8070   */\n      and\n        /* \"#utility.yul\":8005:8070   */\n      swap1\n      pop\n        /* \"#utility.yul\":7950:8076   */\n      swap2\n      swap1\n      pop\n      jump\t// out\n        /* \"#utility.yul\":8082:8159   */\n    tag_134:\n        /* \"#utility.yul\":8119:8126   */\n      0x00\n        /* \"#utility.yul\":8148:8153   */\n      dup2\n        /* \"#utility.yul\":8137:8153   */\n      swap1\n      pop\n        /* \"#utility.yul\":8082:8159   */\n      swap2\n      swap1\n      pop\n      jump\t// out\n        /* \"#utility.yul\":8165:8258   */\n    tag_138:\n        /* \"#utility.yul\":8201:8208   */\n      0x00\n        /* \"#utility.yul\":8241:8251   */\n      0xffffffff\n        /* \"#utility.yul\":8234:8239   */\n      dup3\n        /* \"#utility.yul\":8230:8252   */\n      and\n        /* \"#utility.yul\":8219:8252   */\n      swap1\n      pop\n        /* \"#utility.yul\":8165:8258   */\n      swap2\n      swap1\n      pop\n      jump\t// out\n        /* \"#utility.yul\":8264:8398   */\n    tag_88:\n        /* \"#utility.yul\":8322:8331   */\n      0x00\n        /* \"#utility.yul\":8355:8392   */\n      tag_185\n        /* \"#utility.yul\":8386:8391   */\n      dup3\n        /* \"#utility.yul\":8355:8392   */\n      tag_186\n      jump\t// in\n    tag_185:\n        /* \"#utility.yul\":8342:8392   */\n      swap1\n      pop\n        /* \"#utility.yul\":8264:8398   */\n      swap2\n      swap1\n      pop\n      jump\t// out\n        /* \"#utility.yul\":8404:8544   */\n    tag_104:\n        /* \"#utility.yul\":8468:8477   */\n      0x00\n        /* \"#utility.yul\":8501:8538   */\n      tag_188\n        /* \"#utility.yul\":8532:8537   */\n      dup3\n        /* \"#utility.yul\":8501:8538   */\n      tag_186\n      jump\t// in\n    tag_188:\n        /* \"#utility.yul\":8488:8538   */\n      swap1\n      pop\n        /* \"#utility.yul\":8404:8544   */\n      swap2\n      swap1\n      pop\n      jump\t// out\n        /* \"#utility.yul\":8550:8676   */\n    tag_186:\n        /* \"#utility.yul\":8600:8609   */\n      0x00\n        /* \"#utility.yul\":8633:8670   */\n      tag_190\n        /* \"#utility.yul\":8664:8669   */\n      dup3\n        /* \"#utility.yul\":8633:8670   */\n      tag_191\n      jump\t// in\n    tag_190:\n        /* \"#utility.yul\":8620:8670   */\n      swap1\n      pop\n        /* \"#utility.yul\":8550:8676   */\n      swap2\n      swap1\n      pop\n      jump\t// out\n        /* \"#utility.yul\":8682:8795   */\n    tag_191:\n        /* \"#utility.yul\":8732:8741   */\n      0x00\n        /* \"#utility.yul\":8765:8789   */\n      tag_193\n        /* \"#utility.yul\":8783:8788   */\n      dup3\n        /* \"#utility.yul\":8765:8789   */\n      tag_177\n      jump\t// in\n    tag_193:\n        /* \"#utility.yul\":8752:8789   */\n      swap1\n      pop\n        /* \"#utility.yul\":8682:8795   */\n      swap2\n      swap1\n      pop\n      jump\t// out\n        /* \"#utility.yul\":8801:8981   */\n    tag_174:\n        /* \"#utility.yul\":8849:8926   */\n      0x4e487b7100000000000000000000000000000000000000000000000000000000\n        /* \"#utility.yul\":8846:8847   */\n      0x00\n        /* \"#utility.yul\":8839:8927   */\n      mstore\n        /* \"#utility.yul\":8946:8950   */\n      0x11\n        /* \"#utility.yul\":8943:8944   */\n      0x04\n        /* \"#utility.yul\":8936:8951   */\n      mstore\n        /* \"#utility.yul\":8970:8974   */\n      0x24\n        /* \"#utility.yul\":8967:8968   */\n      0x00\n        /* \"#utility.yul\":8960:8975   */\n      revert\n        /* \"#utility.yul\":8987:9155   */\n    tag_110:\n        /* \"#utility.yul\":9127:9147   */\n      0x76616c7565203c20626967676573744269640000000000000000000000000000\n        /* \"#utility.yul\":9123:9124   */\n      0x00\n        /* \"#utility.yul\":9115:9121   */\n      dup3\n        /* \"#utility.yul\":9111:9125   */\n      add\n        /* \"#utility.yul\":9104:9148   */\n      mstore\n        /* \"#utility.yul\":8987:9155   */\n      pop\n      jump\t// out\n        /* \"#utility.yul\":9161:9326   */\n    tag_115:\n        /* \"#utility.yul\":9301:9318   */\n      0x616c726561647920737461727465640000000000000000000000000000000000\n        /* \"#utility.yul\":9297:9298   */\n      0x00\n        /* \"#utility.yul\":9289:9295   */\n      dup3\n        /* \"#utility.yul\":9285:9299   */\n      add\n        /* \"#utility.yul\":9278:9319   */\n      mstore\n        /* \"#utility.yul\":9161:9326   */\n      pop\n      jump\t// out\n        /* \"#utility.yul\":9332:9493   */\n    tag_120:\n        /* \"#utility.yul\":9472:9485   */\n      0x6e6f742073746172746564000000000000000000000000000000000000000000\n        /* \"#utility.yul\":9468:9469   */\n      0x00\n        /* \"#utility.yul\":9460:9466   */\n      dup3\n        /* \"#utility.yul\":9456:9470   */\n      add\n        /* \"#utility.yul\":9449:9486   */\n      mstore\n        /* \"#utility.yul\":9332:9493   */\n      pop\n      jump\t// out\n        /* \"#utility.yul\":9499:9659   */\n    tag_125:\n        /* \"#utility.yul\":9639:9651   */\n      0x6e6f742073656c6c657200000000000000000000000000000000000000000000\n        /* \"#utility.yul\":9635:9636   */\n      0x00\n        /* \"#utility.yul\":9627:9633   */\n      dup3\n        /* \"#utility.yul\":9623:9637   */\n      add\n        /* \"#utility.yul\":9616:9652   */\n      mstore\n        /* \"#utility.yul\":9499:9659   */\n      pop\n      jump\t// out\n        /* \"#utility.yul\":9665:9828   */\n    tag_130:\n        /* \"#utility.yul\":9805:9820   */\n      0x616c726561647920656e64656400000000000000000000000000000000000000\n        /* \"#utility.yul\":9801:9802   */\n      0x00\n        /* \"#utility.yul\":9793:9799   */\n      dup3\n        /* \"#utility.yul\":9789:9803   */\n      add\n        /* \"#utility.yul\":9782:9821   */\n      mstore\n        /* \"#utility.yul\":9665:9828   */\n      pop\n      jump\t// out\n\n    auxdata: 0xa264697066735822122089f16e6543ce01ee837dccddd40a127e14500281f02ec363a62dd1eda9c9a4f264736f6c63430008070033\n}\n",
				"bytecode": {
					"linkReferences": {},
					"object": "60e06040523480156200001157600080fd5b5060405162000e5738038062000e578339818101604052810190620000379190620000eb565b8273ffffffffffffffffffffffffffffffffffffffff1660808173ffffffffffffffffffffffffffffffffffffffff1660601b815250508160a081815250503373ffffffffffffffffffffffffffffffffffffffff1660c08173ffffffffffffffffffffffffffffffffffffffff1660601b8152505080600181905550505050620001be565b600081519050620000ce816200018a565b92915050565b600081519050620000e581620001a4565b92915050565b60008060006060848603121562000107576200010662000185565b5b60006200011786828701620000bd565b93505060206200012a86828701620000d4565b92505060406200013d86828701620000d4565b9150509250925092565b600062000154826200015b565b9050919050565b600073ffffffffffffffffffffffffffffffffffffffff82169050919050565b6000819050919050565b600080fd5b620001958162000147565b8114620001a157600080fd5b50565b620001af816200017b565b8114620001bb57600080fd5b50565b60805160601c60a05160c05160601c610c476200021060003960008181610211015281816104fe015261065f01526000818161068101526107200152600081816104a001526106230152610c476000f3fe6080604052600436106100915760003560e01c806347ccca021161005957806347ccca021461014c5780637cc3ae8c14610177578063bdf3253d146101a2578063be9a6555146101cd578063c6bc5182146101e457610091565b806308551a5314610096578063090bcedf146100c157806312fa6feb146100ec5780631998aeef146101175780631f2698ab14610121575b600080fd5b3480156100a257600080fd5b506100ab61020f565b6040516100b89190610875565b60405180910390f35b3480156100cd57600080fd5b506100d6610233565b6040516100e391906109c6565b60405180910390f35b3480156100f857600080fd5b50610101610239565b60405161010e91906108f0565b60405180910390f35b61011f61024c565b005b34801561012d57600080fd5b5061013661048b565b60405161014391906108f0565b60405180910390f35b34801561015857600080fd5b5061016161049e565b60405161016e919061090b565b60405180910390f35b34801561018357600080fd5b5061018c6104c2565b60405161019991906109e1565b60405180910390f35b3480156101ae57600080fd5b506101b76104d6565b6040516101c4919061085a565b60405180910390f35b3480156101d957600080fd5b506101e26104fc565b005b3480156101f057600080fd5b506101f961071e565b60405161020691906109c6565b60405180910390f35b7f000000000000000000000000000000000000000000000000000000000000000081565b60015481565b600060059054906101000a900460ff1681565b600060049054906101000a900460ff1661029b576040517f08c379a000000000000000000000000000000000000000000000000000000000815260040161029290610966565b60405180910390fd5b60008054906101000a900463ffffffff1663ffffffff1642106102f3576040517f08c379a00000000000000000000000000000000000000000000000000000000081526004016102ea906109a6565b60405180910390fd5b600154341015610338576040517f08c379a000000000000000000000000000000000000000000000000000000000815260040161032f90610926565b60405180910390fd5b600073ffffffffffffffffffffffffffffffffffffffff16600060069054906101000a900473ffffffffffffffffffffffffffffffffffffffff1673ffffffffffffffffffffffffffffffffffffffff161461040857600154600260008060069054906101000a900473ffffffffffffffffffffffffffffffffffffffff1673ffffffffffffffffffffffffffffffffffffffff1673ffffffffffffffffffffffffffffffffffffffff16815260200190815260200160002060008282546104009190610a0d565b925050819055505b33600060066101000a81548173ffffffffffffffffffffffffffffffffffffffff021916908373ffffffffffffffffffffffffffffffffffffffff160217905550346001819055507fe684a55f31b79eca403df938249029212a5925ec6be8012e099b45bc1019e5d233346040516104819291906108c7565b60405180910390a1565b600060049054906101000a900460ff1681565b7f000000000000000000000000000000000000000000000000000000000000000081565b60008054906101000a900463ffffffff1681565b600060069054906101000a900473ffffffffffffffffffffffffffffffffffffffff1681565b7f000000000000000000000000000000000000000000000000000000000000000073ffffffffffffffffffffffffffffffffffffffff163373ffffffffffffffffffffffffffffffffffffffff161461058a576040517f08c379a000000000000000000000000000000000000000000000000000000000815260040161058190610986565b60405180910390fd5b600060049054906101000a900460ff16156105da576040517f08c379a00000000000000000000000000000000000000000000000000000000081526004016105d190610946565b60405180910390fd5b6001600060046101000a81548160ff021916908315150217905550603c426106029190610a0d565b6000806101000a81548163ffffffff021916908363ffffffff1602179055507f000000000000000000000000000000000000000000000000000000000000000073ffffffffffffffffffffffffffffffffffffffff166323b872dd7f0000000000000000000000000000000000000000000000000000000000000000307f00000000000000000000000000000000000000000000000000000000000000006040518463ffffffff1660e01b81526004016106be93929190610890565b600060405180830381600087803b1580156106d857600080fd5b505af11580156106ec573d6000803e3d6000fd5b505050507f1b55ba3aa851a46be3b365aee5b5c140edd620d578922f3e8466d2cbd96f954b60405160405180910390a1565b7f000000000000000000000000000000000000000000000000000000000000000081565b61074b81610acd565b82525050565b61075a81610a75565b82525050565b61076981610a63565b82525050565b61077881610a87565b82525050565b61078781610adf565b82525050565b600061079a6012836109fc565b91506107a582610b44565b602082019050919050565b60006107bd600f836109fc565b91506107c882610b6d565b602082019050919050565b60006107e0600b836109fc565b91506107eb82610b96565b602082019050919050565b6000610803600a836109fc565b915061080e82610bbf565b602082019050919050565b6000610826600d836109fc565b915061083182610be8565b602082019050919050565b61084581610ab3565b82525050565b61085481610abd565b82525050565b600060208201905061086f6000830184610760565b92915050565b600060208201905061088a6000830184610751565b92915050565b60006060820190506108a56000830186610742565b6108b26020830185610760565b6108bf604083018461083c565b949350505050565b60006040820190506108dc6000830185610760565b6108e9602083018461083c565b9392505050565b6000602082019050610905600083018461076f565b92915050565b6000602082019050610920600083018461077e565b92915050565b6000602082019050818103600083015261093f8161078d565b9050919050565b6000602082019050818103600083015261095f816107b0565b9050919050565b6000602082019050818103600083015261097f816107d3565b9050919050565b6000602082019050818103600083015261099f816107f6565b9050919050565b600060208201905081810360008301526109bf81610819565b9050919050565b60006020820190506109db600083018461083c565b92915050565b60006020820190506109f6600083018461084b565b92915050565b600082825260208201905092915050565b6000610a1882610ab3565b9150610a2383610ab3565b9250827fffffffffffffffffffffffffffffffffffffffffffffffffffffffffffffffff03821115610a5857610a57610b15565b5b828201905092915050565b6000610a6e82610a93565b9050919050565b6000610a8082610a93565b9050919050565b60008115159050919050565b600073ffffffffffffffffffffffffffffffffffffffff82169050919050565b6000819050919050565b600063ffffffff82169050919050565b6000610ad882610af1565b9050919050565b6000610aea82610af1565b9050919050565b6000610afc82610b03565b9050919050565b6000610b0e82610a93565b9050919050565b7f4e487b7100000000000000000000000000000000000000000000000000000000600052601160045260246000fd5b7f76616c7565203c20626967676573744269640000000000000000000000000000600082015250565b7f616c726561647920737461727465640000000000000000000000000000000000600082015250565b7f6e6f742073746172746564000000000000000000000000000000000000000000600082015250565b7f6e6f742073656c6c657200000000000000000000000000000000000000000000600082015250565b7f616c726561647920656e6465640000000000000000000000000000000000000060008201525056fea264697066735822122089f16e6543ce01ee837dccddd40a127e14500281f02ec363a62dd1eda9c9a4f264736f6c63430008070033",
					"opcodes": "PUSH1 0xE0 PUSH1 0x40 MSTORE CALLVALUE DUP1 ISZERO PUSH3 0x11 JUMPI PUSH1 0x0 DUP1 REVERT JUMPDEST POP PUSH1 0x40 MLOAD PUSH3 0xE57 CODESIZE SUB DUP1 PUSH3 0xE57 DUP4 CODECOPY DUP2 DUP2 ADD PUSH1 0x40 MSTORE DUP2 ADD SWAP1 PUSH3 0x37 SWAP2 SWAP1 PUSH3 0xEB JUMP JUMPDEST DUP3 PUSH20 0xFFFFFFFFFFFFFFFFFFFFFFFFFFFFFFFFFFFFFFFF AND PUSH1 0x80 DUP2 PUSH20 0xFFFFFFFFFFFFFFFFFFFFFFFFFFFFFFFFFFFFFFFF AND PUSH1 0x60 SHL DUP2 MSTORE POP POP DUP2 PUSH1 0xA0 DUP2 DUP2 MSTORE POP POP CALLER PUSH20 0xFFFFFFFFFFFFFFFFFFFFFFFFFFFFFFFFFFFFFFFF AND PUSH1 0xC0 DUP2 PUSH20 0xFFFFFFFFFFFFFFFFFFFFFFFFFFFFFFFFFFFFFFFF AND PUSH1 0x60 SHL DUP2 MSTORE POP POP DUP1 PUSH1 0x1 DUP2 SWAP1 SSTORE POP POP POP POP PUSH3 0x1BE JUMP JUMPDEST PUSH1 0x0 DUP2 MLOAD SWAP1 POP PUSH3 0xCE DUP2 PUSH3 0x18A JUMP JUMPDEST SWAP3 SWAP2 POP POP JUMP JUMPDEST PUSH1 0x0 DUP2 MLOAD SWAP1 POP PUSH3 0xE5 DUP2 PUSH3 0x1A4 JUMP JUMPDEST SWAP3 SWAP2 POP POP JUMP JUMPDEST PUSH1 0x0 DUP1 PUSH1 0x0 PUSH1 0x60 DUP5 DUP7 SUB SLT ISZERO PUSH3 0x107 JUMPI PUSH3 0x106 PUSH3 0x185 JUMP JUMPDEST JUMPDEST PUSH1 0x0 PUSH3 0x117 DUP7 DUP3 DUP8 ADD PUSH3 0xBD JUMP JUMPDEST SWAP4 POP POP PUSH1 0x20 PUSH3 0x12A DUP7 DUP3 DUP8 ADD PUSH3 0xD4 JUMP JUMPDEST SWAP3 POP POP PUSH1 0x40 PUSH3 0x13D DUP7 DUP3 DUP8 ADD PUSH3 0xD4 JUMP JUMPDEST SWAP2 POP POP SWAP3 POP SWAP3 POP SWAP3 JUMP JUMPDEST PUSH1 0x0 PUSH3 0x154 DUP3 PUSH3 0x15B JUMP JUMPDEST SWAP1 POP SWAP2 SWAP1 POP JUMP JUMPDEST PUSH1 0x0 PUSH20 0xFFFFFFFFFFFFFFFFFFFFFFFFFFFFFFFFFFFFFFFF DUP3 AND SWAP1 POP SWAP2 SWAP1 POP JUMP JUMPDEST PUSH1 0x0 DUP2 SWAP1 POP SWAP2 SWAP1 POP JUMP JUMPDEST PUSH1 0x0 DUP1 REVERT JUMPDEST PUSH3 0x195 DUP2 PUSH3 0x147 JUMP JUMPDEST DUP2 EQ PUSH3 0x1A1 JUMPI PUSH1 0x0 DUP1 REVERT JUMPDEST POP JUMP JUMPDEST PUSH3 0x1AF DUP2 PUSH3 0x17B JUMP JUMPDEST DUP2 EQ PUSH3 0x1BB JUMPI PUSH1 0x0 DUP1 REVERT JUMPDEST POP JUMP JUMPDEST PUSH1 0x80 MLOAD PUSH1 0x60 SHR PUSH1 0xA0 MLOAD PUSH1 0xC0 MLOAD PUSH1 0x60 SHR PUSH2 0xC47 PUSH3 0x210 PUSH1 0x0 CODECOPY PUSH1 0x0 DUP2 DUP2 PUSH2 0x211 ADD MSTORE DUP2 DUP2 PUSH2 0x4FE ADD MSTORE PUSH2 0x65F ADD MSTORE PUSH1 0x0 DUP2 DUP2 PUSH2 0x681 ADD MSTORE PUSH2 0x720 ADD MSTORE PUSH1 0x0 DUP2 DUP2 PUSH2 0x4A0 ADD MSTORE PUSH2 0x623 ADD MSTORE PUSH2 0xC47 PUSH1 0x0 RETURN INVALID PUSH1 0x80 PUSH1 0x40 MSTORE PUSH1 0x4 CALLDATASIZE LT PUSH2 0x91 JUMPI PUSH1 0x0 CALLDATALOAD PUSH1 0xE0 SHR DUP1 PUSH4 0x47CCCA02 GT PUSH2 0x59 JUMPI DUP1 PUSH4 0x47CCCA02 EQ PUSH2 0x14C JUMPI DUP1 PUSH4 0x7CC3AE8C EQ PUSH2 0x177 JUMPI DUP1 PUSH4 0xBDF3253D EQ PUSH2 0x1A2 JUMPI DUP1 PUSH4 0xBE9A6555 EQ PUSH2 0x1CD JUMPI DUP1 PUSH4 0xC6BC5182 EQ PUSH2 0x1E4 JUMPI PUSH2 0x91 JUMP JUMPDEST DUP1 PUSH4 0x8551A53 EQ PUSH2 0x96 JUMPI DUP1 PUSH4 0x90BCEDF EQ PUSH2 0xC1 JUMPI DUP1 PUSH4 0x12FA6FEB EQ PUSH2 0xEC JUMPI DUP1 PUSH4 0x1998AEEF EQ PUSH2 0x117 JUMPI DUP1 PUSH4 0x1F2698AB EQ PUSH2 0x121 JUMPI JUMPDEST PUSH1 0x0 DUP1 REVERT JUMPDEST CALLVALUE DUP1 ISZERO PUSH2 0xA2 JUMPI PUSH1 0x0 DUP1 REVERT JUMPDEST POP PUSH2 0xAB PUSH2 0x20F JUMP JUMPDEST PUSH1 0x40 MLOAD PUSH2 0xB8 SWAP2 SWAP1 PUSH2 0x875 JUMP JUMPDEST PUSH1 0x40 MLOAD DUP1 SWAP2 SUB SWAP1 RETURN JUMPDEST CALLVALUE DUP1 ISZERO PUSH2 0xCD JUMPI PUSH1 0x0 DUP1 REVERT JUMPDEST POP PUSH2 0xD6 PUSH2 0x233 JUMP JUMPDEST PUSH1 0x40 MLOAD PUSH2 0xE3 SWAP2 SWAP1 PUSH2 0x9C6 JUMP JUMPDEST PUSH1 0x40 MLOAD DUP1 SWAP2 SUB SWAP1 RETURN JUMPDEST CALLVALUE DUP1 ISZERO PUSH2 0xF8 JUMPI PUSH1 0x0 DUP1 REVERT JUMPDEST POP PUSH2 0x101 PUSH2 0x239 JUMP JUMPDEST PUSH1 0x40 MLOAD PUSH2 0x10E SWAP2 SWAP1 PUSH2 0x8F0 JUMP JUMPDEST PUSH1 0x40 MLOAD DUP1 SWAP2 SUB SWAP1 RETURN JUMPDEST PUSH2 0x11F PUSH2 0x24C JUMP JUMPDEST STOP JUMPDEST CALLVALUE DUP1 ISZERO PUSH2 0x12D JUMPI PUSH1 0x0 DUP1 REVERT JUMPDEST POP PUSH2 0x136 PUSH2 0x48B JUMP JUMPDEST PUSH1 0x40 MLOAD PUSH2 0x143 SWAP2 SWAP1 PUSH2 0x8F0 JUMP JUMPDEST PUSH1 0x40 MLOAD DUP1 SWAP2 SUB SWAP1 RETURN JUMPDEST CALLVALUE DUP1 ISZERO PUSH2 0x158 JUMPI PUSH1 0x0 DUP1 REVERT JUMPDEST POP PUSH2 0x161 PUSH2 0x49E JUMP JUMPDEST PUSH1 0x40 MLOAD PUSH2 0x16E SWAP2 SWAP1 PUSH2 0x90B JUMP JUMPDEST PUSH1 0x40 MLOAD DUP1 SWAP2 SUB SWAP1 RETURN JUMPDEST CALLVALUE DUP1 ISZERO PUSH2 0x183 JUMPI PUSH1 0x0 DUP1 REVERT JUMPDEST POP PUSH2 0x18C PUSH2 0x4C2 JUMP JUMPDEST PUSH1 0x40 MLOAD PUSH2 0x199 SWAP2 SWAP1 PUSH2 0x9E1 JUMP JUMPDEST PUSH1 0x40 MLOAD DUP1 SWAP2 SUB SWAP1 RETURN JUMPDEST CALLVALUE DUP1 ISZERO PUSH2 0x1AE JUMPI PUSH1 0x0 DUP1 REVERT JUMPDEST POP PUSH2 0x1B7 PUSH2 0x4D6 JUMP JUMPDEST PUSH1 0x40 MLOAD PUSH2 0x1C4 SWAP2 SWAP1 PUSH2 0x85A JUMP JUMPDEST PUSH1 0x40 MLOAD DUP1 SWAP2 SUB SWAP1 RETURN JUMPDEST CALLVALUE DUP1 ISZERO PUSH2 0x1D9 JUMPI PUSH1 0x0 DUP1 REVERT JUMPDEST POP PUSH2 0x1E2 PUSH2 0x4FC JUMP JUMPDEST STOP JUMPDEST CALLVALUE DUP1 ISZERO PUSH2 0x1F0 JUMPI PUSH1 0x0 DUP1 REVERT JUMPDEST POP PUSH2 0x1F9 PUSH2 0x71E JUMP JUMPDEST PUSH1 0x40 MLOAD PUSH2 0x206 SWAP2 SWAP1 PUSH2 0x9C6 JUMP JUMPDEST PUSH1 0x40 MLOAD DUP1 SWAP2 SUB SWAP1 RETURN JUMPDEST PUSH32 0x0 DUP2 JUMP JUMPDEST PUSH1 0x1 SLOAD DUP2 JUMP JUMPDEST PUSH1 0x0 PUSH1 0x5 SWAP1 SLOAD SWAP1 PUSH2 0x100 EXP SWAP1 DIV PUSH1 0xFF AND DUP2 JUMP JUMPDEST PUSH1 0x0 PUSH1 0x4 SWAP1 SLOAD SWAP1 PUSH2 0x100 EXP SWAP1 DIV PUSH1 0xFF AND PUSH2 0x29B JUMPI PUSH1 0x40 MLOAD PUSH32 0x8C379A000000000000000000000000000000000000000000000000000000000 DUP2 MSTORE PUSH1 0x4 ADD PUSH2 0x292 SWAP1 PUSH2 0x966 JUMP JUMPDEST PUSH1 0x40 MLOAD DUP1 SWAP2 SUB SWAP1 REVERT JUMPDEST PUSH1 0x0 DUP1 SLOAD SWAP1 PUSH2 0x100 EXP SWAP1 DIV PUSH4 0xFFFFFFFF AND PUSH4 0xFFFFFFFF AND TIMESTAMP LT PUSH2 0x2F3 JUMPI PUSH1 0x40 MLOAD PUSH32 0x8C379A000000000000000000000000000000000000000000000000000000000 DUP2 MSTORE PUSH1 0x4 ADD PUSH2 0x2EA SWAP1 PUSH2 0x9A6 JUMP JUMPDEST PUSH1 0x40 MLOAD DUP1 SWAP2 SUB SWAP1 REVERT JUMPDEST PUSH1 0x1 SLOAD CALLVALUE LT ISZERO PUSH2 0x338 JUMPI PUSH1 0x40 MLOAD PUSH32 0x8C379A000000000000000000000000000000000000000000000000000000000 DUP2 MSTORE PUSH1 0x4 ADD PUSH2 0x32F SWAP1 PUSH2 0x926 JUMP JUMPDEST PUSH1 0x40 MLOAD DUP1 SWAP2 SUB SWAP1 REVERT JUMPDEST PUSH1 0x0 PUSH20 0xFFFFFFFFFFFFFFFFFFFFFFFFFFFFFFFFFFFFFFFF AND PUSH1 0x0 PUSH1 0x6 SWAP1 SLOAD SWAP1 PUSH2 0x100 EXP SWAP1 DIV PUSH20 0xFFFFFFFFFFFFFFFFFFFFFFFFFFFFFFFFFFFFFFFF AND PUSH20 0xFFFFFFFFFFFFFFFFFFFFFFFFFFFFFFFFFFFFFFFF AND EQ PUSH2 0x408 JUMPI PUSH1 0x1 SLOAD PUSH1 0x2 PUSH1 0x0 DUP1 PUSH1 0x6 SWAP1 SLOAD SWAP1 PUSH2 0x100 EXP SWAP1 DIV PUSH20 0xFFFFFFFFFFFFFFFFFFFFFFFFFFFFFFFFFFFFFFFF AND PUSH20 0xFFFFFFFFFFFFFFFFFFFFFFFFFFFFFFFFFFFFFFFF AND PUSH20 0xFFFFFFFFFFFFFFFFFFFFFFFFFFFFFFFFFFFFFFFF AND DUP2 MSTORE PUSH1 0x20 ADD SWAP1 DUP2 MSTORE PUSH1 0x20 ADD PUSH1 0x0 KECCAK256 PUSH1 0x0 DUP3 DUP3 SLOAD PUSH2 0x400 SWAP2 SWAP1 PUSH2 0xA0D JUMP JUMPDEST SWAP3 POP POP DUP2 SWAP1 SSTORE POP JUMPDEST CALLER PUSH1 0x0 PUSH1 0x6 PUSH2 0x100 EXP DUP2 SLOAD DUP2 PUSH20 0xFFFFFFFFFFFFFFFFFFFFFFFFFFFFFFFFFFFFFFFF MUL NOT AND SWAP1 DUP4 PUSH20 0xFFFFFFFFFFFFFFFFFFFFFFFFFFFFFFFFFFFFFFFF AND MUL OR SWAP1 SSTORE POP CALLVALUE PUSH1 0x1 DUP2 SWAP1 SSTORE POP PUSH32 0xE684A55F31B79ECA403DF938249029212A5925EC6BE8012E099B45BC1019E5D2 CALLER CALLVALUE PUSH1 0x40 MLOAD PUSH2 0x481 SWAP3 SWAP2 SWAP1 PUSH2 0x8C7 JUMP JUMPDEST PUSH1 0x40 MLOAD DUP1 SWAP2 SUB SWAP1 LOG1 JUMP JUMPDEST PUSH1 0x0 PUSH1 0x4 SWAP1 SLOAD SWAP1 PUSH2 0x100 EXP SWAP1 DIV PUSH1 0xFF AND DUP2 JUMP JUMPDEST PUSH32 0x0 DUP2 JUMP JUMPDEST PUSH1 0x0 DUP1 SLOAD SWAP1 PUSH2 0x100 EXP SWAP1 DIV PUSH4 0xFFFFFFFF AND DUP2 JUMP JUMPDEST PUSH1 0x0 PUSH1 0x6 SWAP1 SLOAD SWAP1 PUSH2 0x100 EXP SWAP1 DIV PUSH20 0xFFFFFFFFFFFFFFFFFFFFFFFFFFFFFFFFFFFFFFFF AND DUP2 JUMP JUMPDEST PUSH32 0x0 PUSH20 0xFFFFFFFFFFFFFFFFFFFFFFFFFFFFFFFFFFFFFFFF AND CALLER PUSH20 0xFFFFFFFFFFFFFFFFFFFFFFFFFFFFFFFFFFFFFFFF AND EQ PUSH2 0x58A JUMPI PUSH1 0x40 MLOAD PUSH32 0x8C379A000000000000000000000000000000000000000000000000000000000 DUP2 MSTORE PUSH1 0x4 ADD PUSH2 0x581 SWAP1 PUSH2 0x986 JUMP JUMPDEST PUSH1 0x40 MLOAD DUP1 SWAP2 SUB SWAP1 REVERT JUMPDEST PUSH1 0x0 PUSH1 0x4 SWAP1 SLOAD SWAP1 PUSH2 0x100 EXP SWAP1 DIV PUSH1 0xFF AND ISZERO PUSH2 0x5DA JUMPI PUSH1 0x40 MLOAD PUSH32 0x8C379A000000000000000000000000000000000000000000000000000000000 DUP2 MSTORE PUSH1 0x4 ADD PUSH2 0x5D1 SWAP1 PUSH2 0x946 JUMP JUMPDEST PUSH1 0x40 MLOAD DUP1 SWAP2 SUB SWAP1 REVERT JUMPDEST PUSH1 0x1 PUSH1 0x0 PUSH1 0x4 PUSH2 0x100 EXP DUP2 SLOAD DUP2 PUSH1 0xFF MUL NOT AND SWAP1 DUP4 ISZERO ISZERO MUL OR SWAP1 SSTORE POP PUSH1 0x3C TIMESTAMP PUSH2 0x602 SWAP2 SWAP1 PUSH2 0xA0D JUMP JUMPDEST PUSH1 0x0 DUP1 PUSH2 0x100 EXP DUP2 SLOAD DUP2 PUSH4 0xFFFFFFFF MUL NOT AND SWAP1 DUP4 PUSH4 0xFFFFFFFF AND MUL OR SWAP1 SSTORE POP PUSH32 0x0 PUSH20 0xFFFFFFFFFFFFFFFFFFFFFFFFFFFFFFFFFFFFFFFF AND PUSH4 0x23B872DD PUSH32 0x0 ADDRESS PUSH32 0x0 PUSH1 0x40 MLOAD DUP5 PUSH4 0xFFFFFFFF AND PUSH1 0xE0 SHL DUP2 MSTORE PUSH1 0x4 ADD PUSH2 0x6BE SWAP4 SWAP3 SWAP2 SWAP1 PUSH2 0x890 JUMP JUMPDEST PUSH1 0x0 PUSH1 0x40 MLOAD DUP1 DUP4 SUB DUP2 PUSH1 0x0 DUP8 DUP1 EXTCODESIZE ISZERO DUP1 ISZERO PUSH2 0x6D8 JUMPI PUSH1 0x0 DUP1 REVERT JUMPDEST POP GAS CALL ISZERO DUP1 ISZERO PUSH2 0x6EC JUMPI RETURNDATASIZE PUSH1 0x0 DUP1 RETURNDATACOPY RETURNDATASIZE PUSH1 0x0 REVERT JUMPDEST POP POP POP POP PUSH32 0x1B55BA3AA851A46BE3B365AEE5B5C140EDD620D578922F3E8466D2CBD96F954B PUSH1 0x40 MLOAD PUSH1 0x40 MLOAD DUP1 SWAP2 SUB SWAP1 LOG1 JUMP JUMPDEST PUSH32 0x0 DUP2 JUMP JUMPDEST PUSH2 0x74B DUP2 PUSH2 0xACD JUMP JUMPDEST DUP3 MSTORE POP POP JUMP JUMPDEST PUSH2 0x75A DUP2 PUSH2 0xA75 JUMP JUMPDEST DUP3 MSTORE POP POP JUMP JUMPDEST PUSH2 0x769 DUP2 PUSH2 0xA63 JUMP JUMPDEST DUP3 MSTORE POP POP JUMP JUMPDEST PUSH2 0x778 DUP2 PUSH2 0xA87 JUMP JUMPDEST DUP3 MSTORE POP POP JUMP JUMPDEST PUSH2 0x787 DUP2 PUSH2 0xADF JUMP JUMPDEST DUP3 MSTORE POP POP JUMP JUMPDEST PUSH1 0x0 PUSH2 0x79A PUSH1 0x12 DUP4 PUSH2 0x9FC JUMP JUMPDEST SWAP2 POP PUSH2 0x7A5 DUP3 PUSH2 0xB44 JUMP JUMPDEST PUSH1 0x20 DUP3 ADD SWAP1 POP SWAP2 SWAP1 POP JUMP JUMPDEST PUSH1 0x0 PUSH2 0x7BD PUSH1 0xF DUP4 PUSH2 0x9FC JUMP JUMPDEST SWAP2 POP PUSH2 0x7C8 DUP3 PUSH2 0xB6D JUMP JUMPDEST PUSH1 0x20 DUP3 ADD SWAP1 POP SWAP2 SWAP1 POP JUMP JUMPDEST PUSH1 0x0 PUSH2 0x7E0 PUSH1 0xB DUP4 PUSH2 0x9FC JUMP JUMPDEST SWAP2 POP PUSH2 0x7EB DUP3 PUSH2 0xB96 JUMP JUMPDEST PUSH1 0x20 DUP3 ADD SWAP1 POP SWAP2 SWAP1 POP JUMP JUMPDEST PUSH1 0x0 PUSH2 0x803 PUSH1 0xA DUP4 PUSH2 0x9FC JUMP JUMPDEST SWAP2 POP PUSH2 0x80E DUP3 PUSH2 0xBBF JUMP JUMPDEST PUSH1 0x20 DUP3 ADD SWAP1 POP SWAP2 SWAP1 POP JUMP JUMPDEST PUSH1 0x0 PUSH2 0x826 PUSH1 0xD DUP4 PUSH2 0x9FC JUMP JUMPDEST SWAP2 POP PUSH2 0x831 DUP3 PUSH2 0xBE8 JUMP JUMPDEST PUSH1 0x20 DUP3 ADD SWAP1 POP SWAP2 SWAP1 POP JUMP JUMPDEST PUSH2 0x845 DUP2 PUSH2 0xAB3 JUMP JUMPDEST DUP3 MSTORE POP POP JUMP JUMPDEST PUSH2 0x854 DUP2 PUSH2 0xABD JUMP JUMPDEST DUP3 MSTORE POP POP JUMP JUMPDEST PUSH1 0x0 PUSH1 0x20 DUP3 ADD SWAP1 POP PUSH2 0x86F PUSH1 0x0 DUP4 ADD DUP5 PUSH2 0x760 JUMP JUMPDEST SWAP3 SWAP2 POP POP JUMP JUMPDEST PUSH1 0x0 PUSH1 0x20 DUP3 ADD SWAP1 POP PUSH2 0x88A PUSH1 0x0 DUP4 ADD DUP5 PUSH2 0x751 JUMP JUMPDEST SWAP3 SWAP2 POP POP JUMP JUMPDEST PUSH1 0x0 PUSH1 0x60 DUP3 ADD SWAP1 POP PUSH2 0x8A5 PUSH1 0x0 DUP4 ADD DUP7 PUSH2 0x742 JUMP JUMPDEST PUSH2 0x8B2 PUSH1 0x20 DUP4 ADD DUP6 PUSH2 0x760 JUMP JUMPDEST PUSH2 0x8BF PUSH1 0x40 DUP4 ADD DUP5 PUSH2 0x83C JUMP JUMPDEST SWAP5 SWAP4 POP POP POP POP JUMP JUMPDEST PUSH1 0x0 PUSH1 0x40 DUP3 ADD SWAP1 POP PUSH2 0x8DC PUSH1 0x0 DUP4 ADD DUP6 PUSH2 0x760 JUMP JUMPDEST PUSH2 0x8E9 PUSH1 0x20 DUP4 ADD DUP5 PUSH2 0x83C JUMP JUMPDEST SWAP4 SWAP3 POP POP POP JUMP JUMPDEST PUSH1 0x0 PUSH1 0x20 DUP3 ADD SWAP1 POP PUSH2 0x905 PUSH1 0x0 DUP4 ADD DUP5 PUSH2 0x76F JUMP JUMPDEST SWAP3 SWAP2 POP POP JUMP JUMPDEST PUSH1 0x0 PUSH1 0x20 DUP3 ADD SWAP1 POP PUSH2 0x920 PUSH1 0x0 DUP4 ADD DUP5 PUSH2 0x77E JUMP JUMPDEST SWAP3 SWAP2 POP POP JUMP JUMPDEST PUSH1 0x0 PUSH1 0x20 DUP3 ADD SWAP1 POP DUP2 DUP2 SUB PUSH1 0x0 DUP4 ADD MSTORE PUSH2 0x93F DUP2 PUSH2 0x78D JUMP JUMPDEST SWAP1 POP SWAP2 SWAP1 POP JUMP JUMPDEST PUSH1 0x0 PUSH1 0x20 DUP3 ADD SWAP1 POP DUP2 DUP2 SUB PUSH1 0x0 DUP4 ADD MSTORE PUSH2 0x95F DUP2 PUSH2 0x7B0 JUMP JUMPDEST SWAP1 POP SWAP2 SWAP1 POP JUMP JUMPDEST PUSH1 0x0 PUSH1 0x20 DUP3 ADD SWAP1 POP DUP2 DUP2 SUB PUSH1 0x0 DUP4 ADD MSTORE PUSH2 0x97F DUP2 PUSH2 0x7D3 JUMP JUMPDEST SWAP1 POP SWAP2 SWAP1 POP JUMP JUMPDEST PUSH1 0x0 PUSH1 0x20 DUP3 ADD SWAP1 POP DUP2 DUP2 SUB PUSH1 0x0 DUP4 ADD MSTORE PUSH2 0x99F DUP2 PUSH2 0x7F6 JUMP JUMPDEST SWAP1 POP SWAP2 SWAP1 POP JUMP JUMPDEST PUSH1 0x0 PUSH1 0x20 DUP3 ADD SWAP1 POP DUP2 DUP2 SUB PUSH1 0x0 DUP4 ADD MSTORE PUSH2 0x9BF DUP2 PUSH2 0x819 JUMP JUMPDEST SWAP1 POP SWAP2 SWAP1 POP JUMP JUMPDEST PUSH1 0x0 PUSH1 0x20 DUP3 ADD SWAP1 POP PUSH2 0x9DB PUSH1 0x0 DUP4 ADD DUP5 PUSH2 0x83C JUMP JUMPDEST SWAP3 SWAP2 POP POP JUMP JUMPDEST PUSH1 0x0 PUSH1 0x20 DUP3 ADD SWAP1 POP PUSH2 0x9F6 PUSH1 0x0 DUP4 ADD DUP5 PUSH2 0x84B JUMP JUMPDEST SWAP3 SWAP2 POP POP JUMP JUMPDEST PUSH1 0x0 DUP3 DUP3 MSTORE PUSH1 0x20 DUP3 ADD SWAP1 POP SWAP3 SWAP2 POP POP JUMP JUMPDEST PUSH1 0x0 PUSH2 0xA18 DUP3 PUSH2 0xAB3 JUMP JUMPDEST SWAP2 POP PUSH2 0xA23 DUP4 PUSH2 0xAB3 JUMP JUMPDEST SWAP3 POP DUP3 PUSH32 0xFFFFFFFFFFFFFFFFFFFFFFFFFFFFFFFFFFFFFFFFFFFFFFFFFFFFFFFFFFFFFFFF SUB DUP3 GT ISZERO PUSH2 0xA58 JUMPI PUSH2 0xA57 PUSH2 0xB15 JUMP JUMPDEST JUMPDEST DUP3 DUP3 ADD SWAP1 POP SWAP3 SWAP2 POP POP JUMP JUMPDEST PUSH1 0x0 PUSH2 0xA6E DUP3 PUSH2 0xA93 JUMP JUMPDEST SWAP1 POP SWAP2 SWAP1 POP JUMP JUMPDEST PUSH1 0x0 PUSH2 0xA80 DUP3 PUSH2 0xA93 JUMP JUMPDEST SWAP1 POP SWAP2 SWAP1 POP JUMP JUMPDEST PUSH1 0x0 DUP2 ISZERO ISZERO SWAP1 POP SWAP2 SWAP1 POP JUMP JUMPDEST PUSH1 0x0 PUSH20 0xFFFFFFFFFFFFFFFFFFFFFFFFFFFFFFFFFFFFFFFF DUP3 AND SWAP1 POP SWAP2 SWAP1 POP JUMP JUMPDEST PUSH1 0x0 DUP2 SWAP1 POP SWAP2 SWAP1 POP JUMP JUMPDEST PUSH1 0x0 PUSH4 0xFFFFFFFF DUP3 AND SWAP1 POP SWAP2 SWAP1 POP JUMP JUMPDEST PUSH1 0x0 PUSH2 0xAD8 DUP3 PUSH2 0xAF1 JUMP JUMPDEST SWAP1 POP SWAP2 SWAP1 POP JUMP JUMPDEST PUSH1 0x0 PUSH2 0xAEA DUP3 PUSH2 0xAF1 JUMP JUMPDEST SWAP1 POP SWAP2 SWAP1 POP JUMP JUMPDEST PUSH1 0x0 PUSH2 0xAFC DUP3 PUSH2 0xB03 JUMP JUMPDEST SWAP1 POP SWAP2 SWAP1 POP JUMP JUMPDEST PUSH1 0x0 PUSH2 0xB0E DUP3 PUSH2 0xA93 JUMP JUMPDEST SWAP1 POP SWAP2 SWAP1 POP JUMP JUMPDEST PUSH32 0x4E487B7100000000000000000000000000000000000000000000000000000000 PUSH1 0x0 MSTORE PUSH1 0x11 PUSH1 0x4 MSTORE PUSH1 0x24 PUSH1 0x0 REVERT JUMPDEST PUSH32 0x76616C7565203C20626967676573744269640000000000000000000000000000 PUSH1 0x0 DUP3 ADD MSTORE POP JUMP JUMPDEST PUSH32 0x616C726561647920737461727465640000000000000000000000000000000000 PUSH1 0x0 DUP3 ADD MSTORE POP JUMP JUMPDEST PUSH32 0x6E6F742073746172746564000000000000000000000000000000000000000000 PUSH1 0x0 DUP3 ADD MSTORE POP JUMP JUMPDEST PUSH32 0x6E6F742073656C6C657200000000000000000000000000000000000000000000 PUSH1 0x0 DUP3 ADD MSTORE POP JUMP JUMPDEST PUSH32 0x616C726561647920656E64656400000000000000000000000000000000000000 PUSH1 0x0 DUP3 ADD MSTORE POP JUMP INVALID LOG2 PUSH5 0x6970667358 0x22 SLT KECCAK256 DUP10 CALL PUSH15 0x6543CE01EE837DCCDDD40A127E1450 MUL DUP2 CREATE 0x2E 0xC3 PUSH4 0xA62DD1ED 0xA9 0xC9 LOG4 CALLCODE PUSH5 0x736F6C6343 STOP ADDMOD SMOD STOP CALLER "
				},
				"gasEstimates": {
					"creation": {
						"codeDepositCost": "628600",
						"executionCost": "infinite",
						"totalCost": "infinite"
					},
					"external": {
						"bid()": "infinite",
						"biggestBid()": "2452",
						"biggestBidder()": "2608",
						"endAt()": "2490",
						"ended()": "2566",
						"nft()": "infinite",
						"nftId()": "infinite",
						"seller()": "infinite",
						"start()": "infinite",
						"started()": "2610"
					}
				},
				"methodIdentifiers": {
					"bid()": "1998aeef",
					"biggestBid()": "090bcedf",
					"biggestBidder()": "bdf3253d",
					"endAt()": "7cc3ae8c",
					"ended()": "12fa6feb",
					"nft()": "47ccca02",
					"nftId()": "c6bc5182",
					"seller()": "08551a53",
					"start()": "be9a6555",
					"started()": "1f2698ab"
				}
			},
			"storageLayout": {
				"storage": [
					{
						"astId": 28,
						"contract": "contracts/EnglishAuction.sol:EnglishAuction",
						"label": "endAt",
						"offset": 0,
						"slot": "0",
						"type": "t_uint32"
					},
					{
						"astId": 30,
						"contract": "contracts/EnglishAuction.sol:EnglishAuction",
						"label": "started",
						"offset": 4,
						"slot": "0",
						"type": "t_bool"
					},
					{
						"astId": 32,
						"contract": "contracts/EnglishAuction.sol:EnglishAuction",
						"label": "ended",
						"offset": 5,
						"slot": "0",
						"type": "t_bool"
					},
					{
						"astId": 34,
						"contract": "contracts/EnglishAuction.sol:EnglishAuction",
						"label": "biggestBidder",
						"offset": 6,
						"slot": "0",
						"type": "t_address"
					},
					{
						"astId": 36,
						"contract": "contracts/EnglishAuction.sol:EnglishAuction",
						"label": "biggestBid",
						"offset": 0,
						"slot": "1",
						"type": "t_uint256"
					},
					{
						"astId": 40,
						"contract": "contracts/EnglishAuction.sol:EnglishAuction",
						"label": "bids",
						"offset": 0,
						"slot": "2",
						"type": "t_mapping(t_address,t_uint256)"
					}
				],
				"types": {
					"t_address": {
						"encoding": "inplace",
						"label": "address",
						"numberOfBytes": "20"
					},
					"t_bool": {
						"encoding": "inplace",
						"label": "bool",
						"numberOfBytes": "1"
					},
					"t_mapping(t_address,t_uint256)": {
						"encoding": "mapping",
						"key": "t_address",
						"label": "mapping(address => uint256)",
						"numberOfBytes": "32",
						"value": "t_uint256"
					},
					"t_uint256": {
						"encoding": "inplace",
						"label": "uint256",
						"numberOfBytes": "32"
					},
					"t_uint32": {
						"encoding": "inplace",
						"label": "uint32",
						"numberOfBytes": "4"
					}
				}
			},
			"userdoc": {
				"kind": "user",
				"methods": {},
				"version": 1
			}
		}
	}
}