{
	"contracts/DutchAuction.sol": {
		"DutchAuction": {
			"abi": [
				{
					"inputs": [
						{
							"internalType": "address",
							"name": "_nft",
							"type": "address"
						},
						{
							"internalType": "uint256",
							"name": "_nftId",
							"type": "uint256"
						},
						{
							"internalType": "uint256",
							"name": "_startingPrice",
							"type": "uint256"
						},
						{
							"internalType": "uint256",
							"name": "_discountRate",
							"type": "uint256"
						}
					],
					"stateMutability": "nonpayable",
					"type": "constructor"
				},
				{
					"inputs": [],
					"name": "buy",
					"outputs": [],
					"stateMutability": "payable",
					"type": "function"
				},
				{
					"inputs": [],
					"name": "discountRate",
					"outputs": [
						{
							"internalType": "uint256",
							"name": "",
							"type": "uint256"
						}
					],
					"stateMutability": "view",
					"type": "function"
				},
				{
					"inputs": [],
					"name": "expireAt",
					"outputs": [
						{
							"internalType": "uint256",
							"name": "",
							"type": "uint256"
						}
					],
					"stateMutability": "view",
					"type": "function"
				},
				{
					"inputs": [],
					"name": "getPrice",
					"outputs": [
						{
							"internalType": "uint256",
							"name": "",
							"type": "uint256"
						}
					],
					"stateMutability": "view",
					"type": "function"
				},
				{
					"inputs": [],
					"name": "nft",
					"outputs": [
						{
							"internalType": "contract IERC721",
							"name": "",
							"type": "address"
						}
					],
					"stateMutability": "view",
					"type": "function"
				},
				{
					"inputs": [],
					"name": "nftId",
					"outputs": [
						{
							"internalType": "uint256",
							"name": "",
							"type": "uint256"
						}
					],
					"stateMutability": "view",
					"type": "function"
				},
				{
					"inputs": [],
					"name": "seller",
					"outputs": [
						{
							"internalType": "address",
							"name": "",
							"type": "address"
						}
					],
					"stateMutability": "view",
					"type": "function"
				},
				{
					"inputs": [],
					"name": "startAt",
					"outputs": [
						{
							"internalType": "uint256",
							"name": "",
							"type": "uint256"
						}
					],
					"stateMutability": "view",
					"type": "function"
				},
				{
					"inputs": [],
					"name": "startingPrice",
					"outputs": [
						{
							"internalType": "uint256",
							"name": "",
							"type": "uint256"
						}
					],
					"stateMutability": "view",
					"type": "function"
				}
			],
			"devdoc": {
				"kind": "dev",
				"methods": {},
				"version": 1
			},
			"evm": {
				"assembly": "    /* \"contracts/DutchAuction.sol\":669:2951  contract DutchAuction {\r... */\n  mstore(0x40, 0x0160)\n    /* \"contracts/DutchAuction.sol\":1335:1899  constructor(\r... */\n  callvalue\n  dup1\n  iszero\n  tag_1\n  jumpi\n  0x00\n  dup1\n  revert\ntag_1:\n  pop\n  mload(0x40)\n  sub(codesize, bytecodeSize)\n  dup1\n  bytecodeSize\n  dup4\n  codecopy\n  dup2\n  dup2\n  add\n  0x40\n  mstore\n  dup2\n  add\n  swap1\n  tag_2\n  swap2\n  swap1\n  tag_3\n  jump\t// in\ntag_2:\n    /* \"contracts/DutchAuction.sol\":1486:1496  msg.sender */\n  caller\n    /* \"contracts/DutchAuction.sol\":1469:1497  seller = payable(msg.sender) */\n  0xffffffffffffffffffffffffffffffffffffffff\n  and\n  0xc0\n  dup2\n  0xffffffffffffffffffffffffffffffffffffffff\n  and\n  0x60\n  shl\n  dup2\n  mstore\n  pop\n  pop\n    /* \"contracts/DutchAuction.sol\":1524:1538  _startingPrice */\n  dup2\n    /* \"contracts/DutchAuction.sol\":1508:1538  startingPrice = _startingPrice */\n  0xe0\n  dup2\n  dup2\n  mstore\n  pop\n  pop\n    /* \"contracts/DutchAuction.sol\":1559:1574  block.timestamp */\n  timestamp\n    /* \"contracts/DutchAuction.sol\":1549:1574  startAt = block.timestamp */\n  0x0100\n  dup2\n  dup2\n  mstore\n  pop\n  pop\n    /* \"contracts/DutchAuction.sol\":778:784  7 days */\n  0x093a80\n    /* \"contracts/DutchAuction.sol\":1596:1611  block.timestamp */\n  timestamp\n    /* \"contracts/DutchAuction.sol\":1596:1622  block.timestamp + DURATION */\n  tag_6\n  swap2\n  swap1\n  tag_7\n  jump\t// in\ntag_6:\n    /* \"contracts/DutchAuction.sol\":1585:1622  expireAt = block.timestamp + DURATION */\n  0x0120\n  dup2\n  dup2\n  mstore\n  pop\n  pop\n    /* \"contracts/DutchAuction.sol\":1648:1661  _discountRate */\n  dup1\n    /* \"contracts/DutchAuction.sol\":1633:1661  discountRate = _discountRate */\n  0x0140\n  dup2\n  dup2\n  mstore\n  pop\n  pop\n    /* \"contracts/DutchAuction.sol\":778:784  7 days */\n  0x093a80\n    /* \"contracts/DutchAuction.sol\":1783:1796  _discountRate */\n  dup2\n    /* \"contracts/DutchAuction.sol\":1783:1805  _discountRate*DURATION */\n  tag_8\n  swap2\n  swap1\n  tag_9\n  jump\t// in\ntag_8:\n    /* \"contracts/DutchAuction.sol\":1765:1779  _startingPrice */\n  dup3\n    /* \"contracts/DutchAuction.sol\":1765:1805  _startingPrice >= _discountRate*DURATION */\n  lt\n  iszero\n    /* \"contracts/DutchAuction.sol\":1757:1834  require(_startingPrice >= _discountRate*DURATION, \"startingPrice < discount\") */\n  tag_10\n  jumpi\n  mload(0x40)\n  0x08c379a000000000000000000000000000000000000000000000000000000000\n  dup2\n  mstore\n  0x04\n  add\n  tag_11\n  swap1\n  tag_12\n  jump\t// in\ntag_11:\n  mload(0x40)\n  dup1\n  swap2\n  sub\n  swap1\n  revert\ntag_10:\n    /* \"contracts/DutchAuction.sol\":1861:1865  _nft */\n  dup4\n    /* \"contracts/DutchAuction.sol\":1847:1866  nft = IERC721(_nft) */\n  0xffffffffffffffffffffffffffffffffffffffff\n  and\n  0x80\n  dup2\n  0xffffffffffffffffffffffffffffffffffffffff\n  and\n  0x60\n  shl\n  dup2\n  mstore\n  pop\n  pop\n    /* \"contracts/DutchAuction.sol\":1885:1891  _nftId */\n  dup3\n    /* \"contracts/DutchAuction.sol\":1877:1891  nftId = _nftId */\n  0xa0\n  dup2\n  dup2\n  mstore\n  pop\n  pop\n    /* \"contracts/DutchAuction.sol\":1335:1899  constructor(\r... */\n  pop\n  pop\n  pop\n  pop\n    /* \"contracts/DutchAuction.sol\":669:2951  contract DutchAuction {\r... */\n  jump(tag_13)\n    /* \"#utility.yul\":7:150   */\ntag_15:\n    /* \"#utility.yul\":64:69   */\n  0x00\n    /* \"#utility.yul\":95:101   */\n  dup2\n    /* \"#utility.yul\":89:102   */\n  mload\n    /* \"#utility.yul\":80:102   */\n  swap1\n  pop\n    /* \"#utility.yul\":111:144   */\n  tag_17\n    /* \"#utility.yul\":138:143   */\n  dup2\n    /* \"#utility.yul\":111:144   */\n  tag_18\n  jump\t// in\ntag_17:\n    /* \"#utility.yul\":7:150   */\n  swap3\n  swap2\n  pop\n  pop\n  jump\t// out\n    /* \"#utility.yul\":156:299   */\ntag_19:\n    /* \"#utility.yul\":213:218   */\n  0x00\n    /* \"#utility.yul\":244:250   */\n  dup2\n    /* \"#utility.yul\":238:251   */\n  mload\n    /* \"#utility.yul\":229:251   */\n  swap1\n  pop\n    /* \"#utility.yul\":260:293   */\n  tag_21\n    /* \"#utility.yul\":287:292   */\n  dup2\n    /* \"#utility.yul\":260:293   */\n  tag_22\n  jump\t// in\ntag_21:\n    /* \"#utility.yul\":156:299   */\n  swap3\n  swap2\n  pop\n  pop\n  jump\t// out\n    /* \"#utility.yul\":305:1125   */\ntag_3:\n    /* \"#utility.yul\":402:408   */\n  0x00\n    /* \"#utility.yul\":410:416   */\n  dup1\n    /* \"#utility.yul\":418:424   */\n  0x00\n    /* \"#utility.yul\":426:432   */\n  dup1\n    /* \"#utility.yul\":475:478   */\n  0x80\n    /* \"#utility.yul\":463:472   */\n  dup6\n    /* \"#utility.yul\":454:461   */\n  dup8\n    /* \"#utility.yul\":450:473   */\n  sub\n    /* \"#utility.yul\":446:479   */\n  slt\n    /* \"#utility.yul\":443:563   */\n  iszero\n  tag_24\n  jumpi\n    /* \"#utility.yul\":482:561   */\n  tag_25\n  tag_26\n  jump\t// in\ntag_25:\n    /* \"#utility.yul\":443:563   */\ntag_24:\n    /* \"#utility.yul\":602:603   */\n  0x00\n    /* \"#utility.yul\":627:691   */\n  tag_27\n    /* \"#utility.yul\":683:690   */\n  dup8\n    /* \"#utility.yul\":674:680   */\n  dup3\n    /* \"#utility.yul\":663:672   */\n  dup9\n    /* \"#utility.yul\":659:681   */\n  add\n    /* \"#utility.yul\":627:691   */\n  tag_15\n  jump\t// in\ntag_27:\n    /* \"#utility.yul\":617:691   */\n  swap5\n  pop\n    /* \"#utility.yul\":573:701   */\n  pop\n    /* \"#utility.yul\":740:742   */\n  0x20\n    /* \"#utility.yul\":766:830   */\n  tag_28\n    /* \"#utility.yul\":822:829   */\n  dup8\n    /* \"#utility.yul\":813:819   */\n  dup3\n    /* \"#utility.yul\":802:811   */\n  dup9\n    /* \"#utility.yul\":798:820   */\n  add\n    /* \"#utility.yul\":766:830   */\n  tag_19\n  jump\t// in\ntag_28:\n    /* \"#utility.yul\":756:830   */\n  swap4\n  pop\n    /* \"#utility.yul\":711:840   */\n  pop\n    /* \"#utility.yul\":879:881   */\n  0x40\n    /* \"#utility.yul\":905:969   */\n  tag_29\n    /* \"#utility.yul\":961:968   */\n  dup8\n    /* \"#utility.yul\":952:958   */\n  dup3\n    /* \"#utility.yul\":941:950   */\n  dup9\n    /* \"#utility.yul\":937:959   */\n  add\n    /* \"#utility.yul\":905:969   */\n  tag_19\n  jump\t// in\ntag_29:\n    /* \"#utility.yul\":895:969   */\n  swap3\n  pop\n    /* \"#utility.yul\":850:979   */\n  pop\n    /* \"#utility.yul\":1018:1020   */\n  0x60\n    /* \"#utility.yul\":1044:1108   */\n  tag_30\n    /* \"#utility.yul\":1100:1107   */\n  dup8\n    /* \"#utility.yul\":1091:1097   */\n  dup3\n    /* \"#utility.yul\":1080:1089   */\n  dup9\n    /* \"#utility.yul\":1076:1098   */\n  add\n    /* \"#utility.yul\":1044:1108   */\n  tag_19\n  jump\t// in\ntag_30:\n    /* \"#utility.yul\":1034:1108   */\n  swap2\n  pop\n    /* \"#utility.yul\":989:1118   */\n  pop\n    /* \"#utility.yul\":305:1125   */\n  swap3\n  swap6\n  swap2\n  swap5\n  pop\n  swap3\n  pop\n  jump\t// out\n    /* \"#utility.yul\":1131:1497   */\ntag_31:\n    /* \"#utility.yul\":1273:1276   */\n  0x00\n    /* \"#utility.yul\":1294:1361   */\n  tag_33\n    /* \"#utility.yul\":1358:1360   */\n  0x18\n    /* \"#utility.yul\":1353:1356   */\n  dup4\n    /* \"#utility.yul\":1294:1361   */\n  tag_34\n  jump\t// in\ntag_33:\n    /* \"#utility.yul\":1287:1361   */\n  swap2\n  pop\n    /* \"#utility.yul\":1370:1463   */\n  tag_35\n    /* \"#utility.yul\":1459:1462   */\n  dup3\n    /* \"#utility.yul\":1370:1463   */\n  tag_36\n  jump\t// in\ntag_35:\n    /* \"#utility.yul\":1488:1490   */\n  0x20\n    /* \"#utility.yul\":1483:1486   */\n  dup3\n    /* \"#utility.yul\":1479:1491   */\n  add\n    /* \"#utility.yul\":1472:1491   */\n  swap1\n  pop\n    /* \"#utility.yul\":1131:1497   */\n  swap2\n  swap1\n  pop\n  jump\t// out\n    /* \"#utility.yul\":1503:1922   */\ntag_12:\n    /* \"#utility.yul\":1669:1673   */\n  0x00\n    /* \"#utility.yul\":1707:1709   */\n  0x20\n    /* \"#utility.yul\":1696:1705   */\n  dup3\n    /* \"#utility.yul\":1692:1710   */\n  add\n    /* \"#utility.yul\":1684:1710   */\n  swap1\n  pop\n    /* \"#utility.yul\":1756:1765   */\n  dup2\n    /* \"#utility.yul\":1750:1754   */\n  dup2\n    /* \"#utility.yul\":1746:1766   */\n  sub\n    /* \"#utility.yul\":1742:1743   */\n  0x00\n    /* \"#utility.yul\":1731:1740   */\n  dup4\n    /* \"#utility.yul\":1727:1744   */\n  add\n    /* \"#utility.yul\":1720:1767   */\n  mstore\n    /* \"#utility.yul\":1784:1915   */\n  tag_38\n    /* \"#utility.yul\":1910:1914   */\n  dup2\n    /* \"#utility.yul\":1784:1915   */\n  tag_31\n  jump\t// in\ntag_38:\n    /* \"#utility.yul\":1776:1915   */\n  swap1\n  pop\n    /* \"#utility.yul\":1503:1922   */\n  swap2\n  swap1\n  pop\n  jump\t// out\n    /* \"#utility.yul\":2009:2178   */\ntag_34:\n    /* \"#utility.yul\":2093:2104   */\n  0x00\n    /* \"#utility.yul\":2127:2133   */\n  dup3\n    /* \"#utility.yul\":2122:2125   */\n  dup3\n    /* \"#utility.yul\":2115:2134   */\n  mstore\n    /* \"#utility.yul\":2167:2171   */\n  0x20\n    /* \"#utility.yul\":2162:2165   */\n  dup3\n    /* \"#utility.yul\":2158:2172   */\n  add\n    /* \"#utility.yul\":2143:2172   */\n  swap1\n  pop\n    /* \"#utility.yul\":2009:2178   */\n  swap3\n  swap2\n  pop\n  pop\n  jump\t// out\n    /* \"#utility.yul\":2184:2489   */\ntag_7:\n    /* \"#utility.yul\":2224:2227   */\n  0x00\n    /* \"#utility.yul\":2243:2263   */\n  tag_43\n    /* \"#utility.yul\":2261:2262   */\n  dup3\n    /* \"#utility.yul\":2243:2263   */\n  tag_44\n  jump\t// in\ntag_43:\n    /* \"#utility.yul\":2238:2263   */\n  swap2\n  pop\n    /* \"#utility.yul\":2277:2297   */\n  tag_45\n    /* \"#utility.yul\":2295:2296   */\n  dup4\n    /* \"#utility.yul\":2277:2297   */\n  tag_44\n  jump\t// in\ntag_45:\n    /* \"#utility.yul\":2272:2297   */\n  swap3\n  pop\n    /* \"#utility.yul\":2431:2432   */\n  dup3\n    /* \"#utility.yul\":2363:2429   */\n  0xffffffffffffffffffffffffffffffffffffffffffffffffffffffffffffffff\n    /* \"#utility.yul\":2359:2433   */\n  sub\n    /* \"#utility.yul\":2356:2357   */\n  dup3\n    /* \"#utility.yul\":2353:2434   */\n  gt\n    /* \"#utility.yul\":2350:2457   */\n  iszero\n  tag_46\n  jumpi\n    /* \"#utility.yul\":2437:2455   */\n  tag_47\n  tag_48\n  jump\t// in\ntag_47:\n    /* \"#utility.yul\":2350:2457   */\ntag_46:\n    /* \"#utility.yul\":2481:2482   */\n  dup3\n    /* \"#utility.yul\":2478:2479   */\n  dup3\n    /* \"#utility.yul\":2474:2483   */\n  add\n    /* \"#utility.yul\":2467:2483   */\n  swap1\n  pop\n    /* \"#utility.yul\":2184:2489   */\n  swap3\n  swap2\n  pop\n  pop\n  jump\t// out\n    /* \"#utility.yul\":2495:2843   */\ntag_9:\n    /* \"#utility.yul\":2535:2542   */\n  0x00\n    /* \"#utility.yul\":2558:2578   */\n  tag_50\n    /* \"#utility.yul\":2576:2577   */\n  dup3\n    /* \"#utility.yul\":2558:2578   */\n  tag_44\n  jump\t// in\ntag_50:\n    /* \"#utility.yul\":2553:2578   */\n  swap2\n  pop\n    /* \"#utility.yul\":2592:2612   */\n  tag_51\n    /* \"#utility.yul\":2610:2611   */\n  dup4\n    /* \"#utility.yul\":2592:2612   */\n  tag_44\n  jump\t// in\ntag_51:\n    /* \"#utility.yul\":2587:2612   */\n  swap3\n  pop\n    /* \"#utility.yul\":2780:2781   */\n  dup2\n    /* \"#utility.yul\":2712:2778   */\n  0xffffffffffffffffffffffffffffffffffffffffffffffffffffffffffffffff\n    /* \"#utility.yul\":2708:2782   */\n  div\n    /* \"#utility.yul\":2705:2706   */\n  dup4\n    /* \"#utility.yul\":2702:2783   */\n  gt\n    /* \"#utility.yul\":2697:2698   */\n  dup3\n    /* \"#utility.yul\":2690:2699   */\n  iszero\n    /* \"#utility.yul\":2683:2700   */\n  iszero\n    /* \"#utility.yul\":2679:2784   */\n  and\n    /* \"#utility.yul\":2676:2807   */\n  iszero\n  tag_52\n  jumpi\n    /* \"#utility.yul\":2787:2805   */\n  tag_53\n  tag_48\n  jump\t// in\ntag_53:\n    /* \"#utility.yul\":2676:2807   */\ntag_52:\n    /* \"#utility.yul\":2835:2836   */\n  dup3\n    /* \"#utility.yul\":2832:2833   */\n  dup3\n    /* \"#utility.yul\":2828:2837   */\n  mul\n    /* \"#utility.yul\":2817:2837   */\n  swap1\n  pop\n    /* \"#utility.yul\":2495:2843   */\n  swap3\n  swap2\n  pop\n  pop\n  jump\t// out\n    /* \"#utility.yul\":2849:2945   */\ntag_54:\n    /* \"#utility.yul\":2886:2893   */\n  0x00\n    /* \"#utility.yul\":2915:2939   */\n  tag_56\n    /* \"#utility.yul\":2933:2938   */\n  dup3\n    /* \"#utility.yul\":2915:2939   */\n  tag_57\n  jump\t// in\ntag_56:\n    /* \"#utility.yul\":2904:2939   */\n  swap1\n  pop\n    /* \"#utility.yul\":2849:2945   */\n  swap2\n  swap1\n  pop\n  jump\t// out\n    /* \"#utility.yul\":2951:3077   */\ntag_57:\n    /* \"#utility.yul\":2988:2995   */\n  0x00\n    /* \"#utility.yul\":3028:3070   */\n  0xffffffffffffffffffffffffffffffffffffffff\n    /* \"#utility.yul\":3021:3026   */\n  dup3\n    /* \"#utility.yul\":3017:3071   */\n  and\n    /* \"#utility.yul\":3006:3071   */\n  swap1\n  pop\n    /* \"#utility.yul\":2951:3077   */\n  swap2\n  swap1\n  pop\n  jump\t// out\n    /* \"#utility.yul\":3083:3160   */\ntag_44:\n    /* \"#utility.yul\":3120:3127   */\n  0x00\n    /* \"#utility.yul\":3149:3154   */\n  dup2\n    /* \"#utility.yul\":3138:3154   */\n  swap1\n  pop\n    /* \"#utility.yul\":3083:3160   */\n  swap2\n  swap1\n  pop\n  jump\t// out\n    /* \"#utility.yul\":3166:3346   */\ntag_48:\n    /* \"#utility.yul\":3214:3291   */\n  0x4e487b7100000000000000000000000000000000000000000000000000000000\n    /* \"#utility.yul\":3211:3212   */\n  0x00\n    /* \"#utility.yul\":3204:3292   */\n  mstore\n    /* \"#utility.yul\":3311:3315   */\n  0x11\n    /* \"#utility.yul\":3308:3309   */\n  0x04\n    /* \"#utility.yul\":3301:3316   */\n  mstore\n    /* \"#utility.yul\":3335:3339   */\n  0x24\n    /* \"#utility.yul\":3332:3333   */\n  0x00\n    /* \"#utility.yul\":3325:3340   */\n  revert\n    /* \"#utility.yul\":3475:3592   */\ntag_26:\n    /* \"#utility.yul\":3584:3585   */\n  0x00\n    /* \"#utility.yul\":3581:3582   */\n  dup1\n    /* \"#utility.yul\":3574:3586   */\n  revert\n    /* \"#utility.yul\":3598:3772   */\ntag_36:\n    /* \"#utility.yul\":3738:3764   */\n  0x7374617274696e675072696365203c20646973636f756e740000000000000000\n    /* \"#utility.yul\":3734:3735   */\n  0x00\n    /* \"#utility.yul\":3726:3732   */\n  dup3\n    /* \"#utility.yul\":3722:3736   */\n  add\n    /* \"#utility.yul\":3715:3765   */\n  mstore\n    /* \"#utility.yul\":3598:3772   */\n  pop\n  jump\t// out\n    /* \"#utility.yul\":3778:3900   */\ntag_18:\n    /* \"#utility.yul\":3851:3875   */\n  tag_66\n    /* \"#utility.yul\":3869:3874   */\n  dup2\n    /* \"#utility.yul\":3851:3875   */\n  tag_54\n  jump\t// in\ntag_66:\n    /* \"#utility.yul\":3844:3849   */\n  dup2\n    /* \"#utility.yul\":3841:3876   */\n  eq\n    /* \"#utility.yul\":3831:3894   */\n  tag_67\n  jumpi\n    /* \"#utility.yul\":3890:3891   */\n  0x00\n    /* \"#utility.yul\":3887:3888   */\n  dup1\n    /* \"#utility.yul\":3880:3892   */\n  revert\n    /* \"#utility.yul\":3831:3894   */\ntag_67:\n    /* \"#utility.yul\":3778:3900   */\n  pop\n  jump\t// out\n    /* \"#utility.yul\":3906:4028   */\ntag_22:\n    /* \"#utility.yul\":3979:4003   */\n  tag_69\n    /* \"#utility.yul\":3997:4002   */\n  dup2\n    /* \"#utility.yul\":3979:4003   */\n  tag_44\n  jump\t// in\ntag_69:\n    /* \"#utility.yul\":3972:3977   */\n  dup2\n    /* \"#utility.yul\":3969:4004   */\n  eq\n    /* \"#utility.yul\":3959:4022   */\n  tag_70\n  jumpi\n    /* \"#utility.yul\":4018:4019   */\n  0x00\n    /* \"#utility.yul\":4015:4016   */\n  dup1\n    /* \"#utility.yul\":4008:4020   */\n  revert\n    /* \"#utility.yul\":3959:4022   */\ntag_70:\n    /* \"#utility.yul\":3906:4028   */\n  pop\n  jump\t// out\n    /* \"contracts/DutchAuction.sol\":669:2951  contract DutchAuction {\r... */\ntag_13:\n  shr(0x60, mload(0x80))\n  mload(0xa0)\n  shr(0x60, mload(0xc0))\n  mload(0xe0)\n  mload(0x0100)\n  mload(0x0120)\n  mload(0x0140)\n  codecopy(0x00, dataOffset(sub_0), dataSize(sub_0))\n  0x00\n  assignImmutable(\"0x7749cc8014201da2069c21d93ba99c584b6f62d393fde534ed47eac227e31561\")\n  0x00\n  assignImmutable(\"0x58a280f74f57bf051c40f060139dc747e015be52f68c57e2c4ab2e4bd4146f43\")\n  0x00\n  assignImmutable(\"0x81e080ffc23e8b8d44dd829bc823229e92b893eb1d8f624419d3f5682eb97fc3\")\n  0x00\n  assignImmutable(\"0x1572b593c53d839d80004aa4b8c51211864104f06ace9e22be9c4365b50655ea\")\n  0x00\n  assignImmutable(\"0xf4c2b5de886427473655d4c904c743576dc2d53249b7535d96c06cc97ae7216b\")\n  0x00\n  assignImmutable(\"0x939eb54753ed0cc7e2272bfb34cbe098308c93936ed54d79078f76ade0b2e789\")\n  0x00\n  assignImmutable(\"0x8e8fab5f003314da8d1873ea7720e8d9f47650136d916064d1edb8a11d682624\")\n  return(0x00, dataSize(sub_0))\nstop\n\nsub_0: assembly {\n        /* \"contracts/DutchAuction.sol\":669:2951  contract DutchAuction {\r... */\n      mstore(0x40, 0x80)\n      jumpi(tag_1, lt(calldatasize, 0x04))\n      shr(0xe0, calldataload(0x00))\n      dup1\n      0xa6f2ae3a\n      gt\n      tag_11\n      jumpi\n      dup1\n      0xa6f2ae3a\n      eq\n      tag_6\n      jumpi\n      dup1\n      0xc6bc5182\n      eq\n      tag_7\n      jumpi\n      dup1\n      0xc7446565\n      eq\n      tag_8\n      jumpi\n      dup1\n      0xd6fbf202\n      eq\n      tag_9\n      jumpi\n      dup1\n      0xe6c0e6d5\n      eq\n      tag_10\n      jumpi\n      jump(tag_1)\n    tag_11:\n      dup1\n      0x08551a53\n      eq\n      tag_2\n      jumpi\n      dup1\n      0x47ccca02\n      eq\n      tag_3\n      jumpi\n      dup1\n      0x748ef72e\n      eq\n      tag_4\n      jumpi\n      dup1\n      0x98d5fdca\n      eq\n      tag_5\n      jumpi\n    tag_1:\n      0x00\n      dup1\n      revert\n        /* \"contracts/DutchAuction.sol\":1015:1046  address public immutable seller */\n    tag_2:\n      callvalue\n      dup1\n      iszero\n      tag_12\n      jumpi\n      0x00\n      dup1\n      revert\n    tag_12:\n      pop\n      tag_13\n      tag_14\n      jump\t// in\n    tag_13:\n      mload(0x40)\n      tag_15\n      swap2\n      swap1\n      tag_16\n      jump\t// in\n    tag_15:\n      mload(0x40)\n      dup1\n      swap2\n      sub\n      swap1\n      return\n        /* \"contracts/DutchAuction.sol\":863:891  IERC721 public immutable nft */\n    tag_3:\n      callvalue\n      dup1\n      iszero\n      tag_17\n      jumpi\n      0x00\n      dup1\n      revert\n    tag_17:\n      pop\n      tag_18\n      tag_19\n      jump\t// in\n    tag_18:\n      mload(0x40)\n      tag_20\n      swap2\n      swap1\n      tag_21\n      jump\t// in\n    tag_20:\n      mload(0x40)\n      dup1\n      swap2\n      sub\n      swap1\n      return\n        /* \"contracts/DutchAuction.sol\":1226:1256  uint public immutable expireAt */\n    tag_4:\n      callvalue\n      dup1\n      iszero\n      tag_22\n      jumpi\n      0x00\n      dup1\n      revert\n    tag_22:\n      pop\n      tag_23\n      tag_24\n      jump\t// in\n    tag_23:\n      mload(0x40)\n      tag_25\n      swap2\n      swap1\n      tag_26\n      jump\t// in\n    tag_25:\n      mload(0x40)\n      dup1\n      swap2\n      sub\n      swap1\n      return\n        /* \"contracts/DutchAuction.sol\":1999:2202  function getPrice()public view returns (uint){\r... */\n    tag_5:\n      callvalue\n      dup1\n      iszero\n      tag_27\n      jumpi\n      0x00\n      dup1\n      revert\n    tag_27:\n      pop\n      tag_28\n      tag_29\n      jump\t// in\n    tag_28:\n      mload(0x40)\n      tag_30\n      swap2\n      swap1\n      tag_26\n      jump\t// in\n    tag_30:\n      mload(0x40)\n      dup1\n      swap2\n      sub\n      swap1\n      return\n        /* \"contracts/DutchAuction.sol\":2279:2940  function buy() external payable{\r... */\n    tag_6:\n      tag_31\n      tag_32\n      jump\t// in\n    tag_31:\n      stop\n        /* \"contracts/DutchAuction.sol\":929:956  uint public immutable nftId */\n    tag_7:\n      callvalue\n      dup1\n      iszero\n      tag_33\n      jumpi\n      0x00\n      dup1\n      revert\n    tag_33:\n      pop\n      tag_34\n      tag_35\n      jump\t// in\n    tag_34:\n      mload(0x40)\n      tag_36\n      swap2\n      swap1\n      tag_26\n      jump\t// in\n    tag_36:\n      mload(0x40)\n      dup1\n      swap2\n      sub\n      swap1\n      return\n        /* \"contracts/DutchAuction.sol\":1158:1187  uint public immutable startAt */\n    tag_8:\n      callvalue\n      dup1\n      iszero\n      tag_37\n      jumpi\n      0x00\n      dup1\n      revert\n    tag_37:\n      pop\n      tag_38\n      tag_39\n      jump\t// in\n    tag_38:\n      mload(0x40)\n      tag_40\n      swap2\n      swap1\n      tag_26\n      jump\t// in\n    tag_40:\n      mload(0x40)\n      dup1\n      swap2\n      sub\n      swap1\n      return\n        /* \"contracts/DutchAuction.sol\":1082:1117  uint public immutable startingPrice */\n    tag_9:\n      callvalue\n      dup1\n      iszero\n      tag_41\n      jumpi\n      0x00\n      dup1\n      revert\n    tag_41:\n      pop\n      tag_42\n      tag_43\n      jump\t// in\n    tag_42:\n      mload(0x40)\n      tag_44\n      swap2\n      swap1\n      tag_26\n      jump\t// in\n    tag_44:\n      mload(0x40)\n      dup1\n      swap2\n      sub\n      swap1\n      return\n        /* \"contracts/DutchAuction.sol\":1292:1326  uint public immutable discountRate */\n    tag_10:\n      callvalue\n      dup1\n      iszero\n      tag_45\n      jumpi\n      0x00\n      dup1\n      revert\n    tag_45:\n      pop\n      tag_46\n      tag_47\n      jump\t// in\n    tag_46:\n      mload(0x40)\n      tag_48\n      swap2\n      swap1\n      tag_26\n      jump\t// in\n    tag_48:\n      mload(0x40)\n      dup1\n      swap2\n      sub\n      swap1\n      return\n        /* \"contracts/DutchAuction.sol\":1015:1046  address public immutable seller */\n    tag_14:\n      immutable(\"0xf4c2b5de886427473655d4c904c743576dc2d53249b7535d96c06cc97ae7216b\")\n      dup2\n      jump\t// out\n        /* \"contracts/DutchAuction.sol\":863:891  IERC721 public immutable nft */\n    tag_19:\n      immutable(\"0x8e8fab5f003314da8d1873ea7720e8d9f47650136d916064d1edb8a11d682624\")\n      dup2\n      jump\t// out\n        /* \"contracts/DutchAuction.sol\":1226:1256  uint public immutable expireAt */\n    tag_24:\n      immutable(\"0x58a280f74f57bf051c40f060139dc747e015be52f68c57e2c4ab2e4bd4146f43\")\n      dup2\n      jump\t// out\n        /* \"contracts/DutchAuction.sol\":1999:2202  function getPrice()public view returns (uint){\r... */\n    tag_29:\n        /* \"contracts/DutchAuction.sol\":2039:2043  uint */\n      0x00\n        /* \"contracts/DutchAuction.sol\":2055:2071  uint timeElapsed */\n      dup1\n        /* \"contracts/DutchAuction.sol\":2092:2099  startAt */\n      immutable(\"0x81e080ffc23e8b8d44dd829bc823229e92b893eb1d8f624419d3f5682eb97fc3\")\n        /* \"contracts/DutchAuction.sol\":2074:2089  block.timestamp */\n      timestamp\n        /* \"contracts/DutchAuction.sol\":2074:2099  block.timestamp - startAt */\n      tag_50\n      swap2\n      swap1\n      tag_51\n      jump\t// in\n    tag_50:\n        /* \"contracts/DutchAuction.sol\":2055:2099  uint timeElapsed = block.timestamp - startAt */\n      swap1\n      pop\n        /* \"contracts/DutchAuction.sol\":2110:2123  uint discount */\n      0x00\n        /* \"contracts/DutchAuction.sol\":2139:2150  timeElapsed */\n      dup2\n        /* \"contracts/DutchAuction.sol\":2126:2138  discountRate */\n      immutable(\"0x7749cc8014201da2069c21d93ba99c584b6f62d393fde534ed47eac227e31561\")\n        /* \"contracts/DutchAuction.sol\":2126:2150  discountRate*timeElapsed */\n      tag_52\n      swap2\n      swap1\n      tag_53\n      jump\t// in\n    tag_52:\n        /* \"contracts/DutchAuction.sol\":2110:2150  uint discount = discountRate*timeElapsed */\n      swap1\n      pop\n        /* \"contracts/DutchAuction.sol\":2184:2192  discount */\n      dup1\n        /* \"contracts/DutchAuction.sol\":2168:2181  startingPrice */\n      immutable(\"0x1572b593c53d839d80004aa4b8c51211864104f06ace9e22be9c4365b50655ea\")\n        /* \"contracts/DutchAuction.sol\":2168:2192  startingPrice - discount */\n      tag_54\n      swap2\n      swap1\n      tag_51\n      jump\t// in\n    tag_54:\n        /* \"contracts/DutchAuction.sol\":2161:2192  return startingPrice - discount */\n      swap3\n      pop\n      pop\n      pop\n        /* \"contracts/DutchAuction.sol\":1999:2202  function getPrice()public view returns (uint){\r... */\n      swap1\n      jump\t// out\n        /* \"contracts/DutchAuction.sol\":2279:2940  function buy() external payable{\r... */\n    tag_32:\n        /* \"contracts/DutchAuction.sol\":2347:2355  expireAt */\n      immutable(\"0x58a280f74f57bf051c40f060139dc747e015be52f68c57e2c4ab2e4bd4146f43\")\n        /* \"contracts/DutchAuction.sol\":2329:2344  block.timestamp */\n      timestamp\n        /* \"contracts/DutchAuction.sol\":2329:2355  block.timestamp < expireAt */\n      lt\n        /* \"contracts/DutchAuction.sol\":2321:2374  require(block.timestamp < expireAt, \"aution expired\") */\n      tag_56\n      jumpi\n      mload(0x40)\n      0x08c379a000000000000000000000000000000000000000000000000000000000\n      dup2\n      mstore\n      0x04\n      add\n      tag_57\n      swap1\n      tag_58\n      jump\t// in\n    tag_57:\n      mload(0x40)\n      dup1\n      swap2\n      sub\n      swap1\n      revert\n    tag_56:\n        /* \"contracts/DutchAuction.sol\":2487:2497  uint price */\n      0x00\n        /* \"contracts/DutchAuction.sol\":2500:2510  getPrice() */\n      tag_59\n        /* \"contracts/DutchAuction.sol\":2500:2508  getPrice */\n      tag_29\n        /* \"contracts/DutchAuction.sol\":2500:2510  getPrice() */\n      jump\t// in\n    tag_59:\n        /* \"contracts/DutchAuction.sol\":2487:2510  uint price = getPrice() */\n      swap1\n      pop\n        /* \"contracts/DutchAuction.sol\":2542:2547  price */\n      dup1\n        /* \"contracts/DutchAuction.sol\":2529:2538  msg.value */\n      callvalue\n        /* \"contracts/DutchAuction.sol\":2529:2547  msg.value >= price */\n      lt\n      iszero\n        /* \"contracts/DutchAuction.sol\":2521:2562  require(msg.value >= price,\"ETH < price\") */\n      tag_60\n      jumpi\n      mload(0x40)\n      0x08c379a000000000000000000000000000000000000000000000000000000000\n      dup2\n      mstore\n      0x04\n      add\n      tag_61\n      swap1\n      tag_62\n      jump\t// in\n    tag_61:\n      mload(0x40)\n      dup1\n      swap2\n      sub\n      swap1\n      revert\n    tag_60:\n        /* \"contracts/DutchAuction.sol\":2651:2654  nft */\n      immutable(\"0x8e8fab5f003314da8d1873ea7720e8d9f47650136d916064d1edb8a11d682624\")\n        /* \"contracts/DutchAuction.sol\":2651:2667  nft.transferFrom */\n      0xffffffffffffffffffffffffffffffffffffffff\n      and\n      0x23b872dd\n        /* \"contracts/DutchAuction.sol\":2668:2674  seller */\n      immutable(\"0xf4c2b5de886427473655d4c904c743576dc2d53249b7535d96c06cc97ae7216b\")\n        /* \"contracts/DutchAuction.sol\":2676:2686  msg.sender */\n      caller\n        /* \"contracts/DutchAuction.sol\":2688:2693  nftId */\n      immutable(\"0x939eb54753ed0cc7e2272bfb34cbe098308c93936ed54d79078f76ade0b2e789\")\n        /* \"contracts/DutchAuction.sol\":2651:2694  nft.transferFrom(seller, msg.sender, nftId) */\n      mload(0x40)\n      dup5\n      0xffffffff\n      and\n      0xe0\n      shl\n      dup2\n      mstore\n      0x04\n      add\n      tag_63\n      swap4\n      swap3\n      swap2\n      swap1\n      tag_64\n      jump\t// in\n    tag_63:\n      0x00\n      mload(0x40)\n      dup1\n      dup4\n      sub\n      dup2\n      0x00\n      dup8\n      dup1\n      extcodesize\n      iszero\n      dup1\n      iszero\n      tag_65\n      jumpi\n      0x00\n      dup1\n      revert\n    tag_65:\n      pop\n      gas\n      call\n      iszero\n      dup1\n      iszero\n      tag_67\n      jumpi\n      returndatasize\n      0x00\n      dup1\n      returndatacopy\n      revert(0x00, returndatasize)\n    tag_67:\n      pop\n      pop\n      pop\n      pop\n        /* \"contracts/DutchAuction.sol\":2705:2716  uint reFund */\n      0x00\n        /* \"contracts/DutchAuction.sol\":2731:2736  price */\n      dup2\n        /* \"contracts/DutchAuction.sol\":2719:2728  msg.value */\n      callvalue\n        /* \"contracts/DutchAuction.sol\":2719:2736  msg.value - price */\n      tag_68\n      swap2\n      swap1\n      tag_51\n      jump\t// in\n    tag_68:\n        /* \"contracts/DutchAuction.sol\":2705:2736  uint reFund = msg.value - price */\n      swap1\n      pop\n        /* \"contracts/DutchAuction.sol\":2760:2761  0 */\n      0x00\n        /* \"contracts/DutchAuction.sol\":2751:2757  reFund */\n      dup2\n        /* \"contracts/DutchAuction.sol\":2751:2761  reFund > 0 */\n      gt\n        /* \"contracts/DutchAuction.sol\":2747:2931  if (reFund > 0){\r... */\n      iszero\n      tag_69\n      jumpi\n        /* \"contracts/DutchAuction.sol\":2891:2901  msg.sender */\n      caller\n        /* \"contracts/DutchAuction.sol\":2883:2911  payable(msg.sender).transfer */\n      0xffffffffffffffffffffffffffffffffffffffff\n      and\n        /* \"contracts/DutchAuction.sol\":2883:2919  payable(msg.sender).transfer(reFund) */\n      0x08fc\n        /* \"contracts/DutchAuction.sol\":2912:2918  reFund */\n      dup3\n        /* \"contracts/DutchAuction.sol\":2883:2919  payable(msg.sender).transfer(reFund) */\n      swap1\n      dup2\n      iszero\n      mul\n      swap1\n      mload(0x40)\n      0x00\n      mload(0x40)\n      dup1\n      dup4\n      sub\n      dup2\n      dup6\n      dup9\n      dup9\n      call\n      swap4\n      pop\n      pop\n      pop\n      pop\n      iszero\n      dup1\n      iszero\n      tag_71\n      jumpi\n      returndatasize\n      0x00\n      dup1\n      returndatacopy\n      revert(0x00, returndatasize)\n    tag_71:\n      pop\n        /* \"contracts/DutchAuction.sol\":2747:2931  if (reFund > 0){\r... */\n    tag_69:\n        /* \"contracts/DutchAuction.sol\":2310:2940  {\r... */\n      pop\n      pop\n        /* \"contracts/DutchAuction.sol\":2279:2940  function buy() external payable{\r... */\n      jump\t// out\n        /* \"contracts/DutchAuction.sol\":929:956  uint public immutable nftId */\n    tag_35:\n      immutable(\"0x939eb54753ed0cc7e2272bfb34cbe098308c93936ed54d79078f76ade0b2e789\")\n      dup2\n      jump\t// out\n        /* \"contracts/DutchAuction.sol\":1158:1187  uint public immutable startAt */\n    tag_39:\n      immutable(\"0x81e080ffc23e8b8d44dd829bc823229e92b893eb1d8f624419d3f5682eb97fc3\")\n      dup2\n      jump\t// out\n        /* \"contracts/DutchAuction.sol\":1082:1117  uint public immutable startingPrice */\n    tag_43:\n      immutable(\"0x1572b593c53d839d80004aa4b8c51211864104f06ace9e22be9c4365b50655ea\")\n      dup2\n      jump\t// out\n        /* \"contracts/DutchAuction.sol\":1292:1326  uint public immutable discountRate */\n    tag_47:\n      immutable(\"0x7749cc8014201da2069c21d93ba99c584b6f62d393fde534ed47eac227e31561\")\n      dup2\n      jump\t// out\n        /* \"#utility.yul\":7:125   */\n    tag_73:\n        /* \"#utility.yul\":94:118   */\n      tag_75\n        /* \"#utility.yul\":112:117   */\n      dup2\n        /* \"#utility.yul\":94:118   */\n      tag_76\n      jump\t// in\n    tag_75:\n        /* \"#utility.yul\":89:92   */\n      dup3\n        /* \"#utility.yul\":82:119   */\n      mstore\n        /* \"#utility.yul\":7:125   */\n      pop\n      pop\n      jump\t// out\n        /* \"#utility.yul\":131:290   */\n    tag_77:\n        /* \"#utility.yul\":232:283   */\n      tag_79\n        /* \"#utility.yul\":277:282   */\n      dup2\n        /* \"#utility.yul\":232:283   */\n      tag_80\n      jump\t// in\n    tag_79:\n        /* \"#utility.yul\":227:230   */\n      dup3\n        /* \"#utility.yul\":220:284   */\n      mstore\n        /* \"#utility.yul\":131:290   */\n      pop\n      pop\n      jump\t// out\n        /* \"#utility.yul\":296:662   */\n    tag_81:\n        /* \"#utility.yul\":438:441   */\n      0x00\n        /* \"#utility.yul\":459:526   */\n      tag_83\n        /* \"#utility.yul\":523:525   */\n      0x0b\n        /* \"#utility.yul\":518:521   */\n      dup4\n        /* \"#utility.yul\":459:526   */\n      tag_84\n      jump\t// in\n    tag_83:\n        /* \"#utility.yul\":452:526   */\n      swap2\n      pop\n        /* \"#utility.yul\":535:628   */\n      tag_85\n        /* \"#utility.yul\":624:627   */\n      dup3\n        /* \"#utility.yul\":535:628   */\n      tag_86\n      jump\t// in\n    tag_85:\n        /* \"#utility.yul\":653:655   */\n      0x20\n        /* \"#utility.yul\":648:651   */\n      dup3\n        /* \"#utility.yul\":644:656   */\n      add\n        /* \"#utility.yul\":637:656   */\n      swap1\n      pop\n        /* \"#utility.yul\":296:662   */\n      swap2\n      swap1\n      pop\n      jump\t// out\n        /* \"#utility.yul\":668:1034   */\n    tag_87:\n        /* \"#utility.yul\":810:813   */\n      0x00\n        /* \"#utility.yul\":831:898   */\n      tag_89\n        /* \"#utility.yul\":895:897   */\n      0x0e\n        /* \"#utility.yul\":890:893   */\n      dup4\n        /* \"#utility.yul\":831:898   */\n      tag_84\n      jump\t// in\n    tag_89:\n        /* \"#utility.yul\":824:898   */\n      swap2\n      pop\n        /* \"#utility.yul\":907:1000   */\n      tag_90\n        /* \"#utility.yul\":996:999   */\n      dup3\n        /* \"#utility.yul\":907:1000   */\n      tag_91\n      jump\t// in\n    tag_90:\n        /* \"#utility.yul\":1025:1027   */\n      0x20\n        /* \"#utility.yul\":1020:1023   */\n      dup3\n        /* \"#utility.yul\":1016:1028   */\n      add\n        /* \"#utility.yul\":1009:1028   */\n      swap1\n      pop\n        /* \"#utility.yul\":668:1034   */\n      swap2\n      swap1\n      pop\n      jump\t// out\n        /* \"#utility.yul\":1040:1158   */\n    tag_92:\n        /* \"#utility.yul\":1127:1151   */\n      tag_94\n        /* \"#utility.yul\":1145:1150   */\n      dup2\n        /* \"#utility.yul\":1127:1151   */\n      tag_95\n      jump\t// in\n    tag_94:\n        /* \"#utility.yul\":1122:1125   */\n      dup3\n        /* \"#utility.yul\":1115:1152   */\n      mstore\n        /* \"#utility.yul\":1040:1158   */\n      pop\n      pop\n      jump\t// out\n        /* \"#utility.yul\":1164:1386   */\n    tag_16:\n        /* \"#utility.yul\":1257:1261   */\n      0x00\n        /* \"#utility.yul\":1295:1297   */\n      0x20\n        /* \"#utility.yul\":1284:1293   */\n      dup3\n        /* \"#utility.yul\":1280:1298   */\n      add\n        /* \"#utility.yul\":1272:1298   */\n      swap1\n      pop\n        /* \"#utility.yul\":1308:1379   */\n      tag_97\n        /* \"#utility.yul\":1376:1377   */\n      0x00\n        /* \"#utility.yul\":1365:1374   */\n      dup4\n        /* \"#utility.yul\":1361:1378   */\n      add\n        /* \"#utility.yul\":1352:1358   */\n      dup5\n        /* \"#utility.yul\":1308:1379   */\n      tag_73\n      jump\t// in\n    tag_97:\n        /* \"#utility.yul\":1164:1386   */\n      swap3\n      swap2\n      pop\n      pop\n      jump\t// out\n        /* \"#utility.yul\":1392:1834   */\n    tag_64:\n        /* \"#utility.yul\":1541:1545   */\n      0x00\n        /* \"#utility.yul\":1579:1581   */\n      0x60\n        /* \"#utility.yul\":1568:1577   */\n      dup3\n        /* \"#utility.yul\":1564:1582   */\n      add\n        /* \"#utility.yul\":1556:1582   */\n      swap1\n      pop\n        /* \"#utility.yul\":1592:1663   */\n      tag_99\n        /* \"#utility.yul\":1660:1661   */\n      0x00\n        /* \"#utility.yul\":1649:1658   */\n      dup4\n        /* \"#utility.yul\":1645:1662   */\n      add\n        /* \"#utility.yul\":1636:1642   */\n      dup7\n        /* \"#utility.yul\":1592:1663   */\n      tag_73\n      jump\t// in\n    tag_99:\n        /* \"#utility.yul\":1673:1745   */\n      tag_100\n        /* \"#utility.yul\":1741:1743   */\n      0x20\n        /* \"#utility.yul\":1730:1739   */\n      dup4\n        /* \"#utility.yul\":1726:1744   */\n      add\n        /* \"#utility.yul\":1717:1723   */\n      dup6\n        /* \"#utility.yul\":1673:1745   */\n      tag_73\n      jump\t// in\n    tag_100:\n        /* \"#utility.yul\":1755:1827   */\n      tag_101\n        /* \"#utility.yul\":1823:1825   */\n      0x40\n        /* \"#utility.yul\":1812:1821   */\n      dup4\n        /* \"#utility.yul\":1808:1826   */\n      add\n        /* \"#utility.yul\":1799:1805   */\n      dup5\n        /* \"#utility.yul\":1755:1827   */\n      tag_92\n      jump\t// in\n    tag_101:\n        /* \"#utility.yul\":1392:1834   */\n      swap5\n      swap4\n      pop\n      pop\n      pop\n      pop\n      jump\t// out\n        /* \"#utility.yul\":1840:2090   */\n    tag_21:\n        /* \"#utility.yul\":1947:1951   */\n      0x00\n        /* \"#utility.yul\":1985:1987   */\n      0x20\n        /* \"#utility.yul\":1974:1983   */\n      dup3\n        /* \"#utility.yul\":1970:1988   */\n      add\n        /* \"#utility.yul\":1962:1988   */\n      swap1\n      pop\n        /* \"#utility.yul\":1998:2083   */\n      tag_103\n        /* \"#utility.yul\":2080:2081   */\n      0x00\n        /* \"#utility.yul\":2069:2078   */\n      dup4\n        /* \"#utility.yul\":2065:2082   */\n      add\n        /* \"#utility.yul\":2056:2062   */\n      dup5\n        /* \"#utility.yul\":1998:2083   */\n      tag_77\n      jump\t// in\n    tag_103:\n        /* \"#utility.yul\":1840:2090   */\n      swap3\n      swap2\n      pop\n      pop\n      jump\t// out\n        /* \"#utility.yul\":2096:2515   */\n    tag_62:\n        /* \"#utility.yul\":2262:2266   */\n      0x00\n        /* \"#utility.yul\":2300:2302   */\n      0x20\n        /* \"#utility.yul\":2289:2298   */\n      dup3\n        /* \"#utility.yul\":2285:2303   */\n      add\n        /* \"#utility.yul\":2277:2303   */\n      swap1\n      pop\n        /* \"#utility.yul\":2349:2358   */\n      dup2\n        /* \"#utility.yul\":2343:2347   */\n      dup2\n        /* \"#utility.yul\":2339:2359   */\n      sub\n        /* \"#utility.yul\":2335:2336   */\n      0x00\n        /* \"#utility.yul\":2324:2333   */\n      dup4\n        /* \"#utility.yul\":2320:2337   */\n      add\n        /* \"#utility.yul\":2313:2360   */\n      mstore\n        /* \"#utility.yul\":2377:2508   */\n      tag_105\n        /* \"#utility.yul\":2503:2507   */\n      dup2\n        /* \"#utility.yul\":2377:2508   */\n      tag_81\n      jump\t// in\n    tag_105:\n        /* \"#utility.yul\":2369:2508   */\n      swap1\n      pop\n        /* \"#utility.yul\":2096:2515   */\n      swap2\n      swap1\n      pop\n      jump\t// out\n        /* \"#utility.yul\":2521:2940   */\n    tag_58:\n        /* \"#utility.yul\":2687:2691   */\n      0x00\n        /* \"#utility.yul\":2725:2727   */\n      0x20\n        /* \"#utility.yul\":2714:2723   */\n      dup3\n        /* \"#utility.yul\":2710:2728   */\n      add\n        /* \"#utility.yul\":2702:2728   */\n      swap1\n      pop\n        /* \"#utility.yul\":2774:2783   */\n      dup2\n        /* \"#utility.yul\":2768:2772   */\n      dup2\n        /* \"#utility.yul\":2764:2784   */\n      sub\n        /* \"#utility.yul\":2760:2761   */\n      0x00\n        /* \"#utility.yul\":2749:2758   */\n      dup4\n        /* \"#utility.yul\":2745:2762   */\n      add\n        /* \"#utility.yul\":2738:2785   */\n      mstore\n        /* \"#utility.yul\":2802:2933   */\n      tag_107\n        /* \"#utility.yul\":2928:2932   */\n      dup2\n        /* \"#utility.yul\":2802:2933   */\n      tag_87\n      jump\t// in\n    tag_107:\n        /* \"#utility.yul\":2794:2933   */\n      swap1\n      pop\n        /* \"#utility.yul\":2521:2940   */\n      swap2\n      swap1\n      pop\n      jump\t// out\n        /* \"#utility.yul\":2946:3168   */\n    tag_26:\n        /* \"#utility.yul\":3039:3043   */\n      0x00\n        /* \"#utility.yul\":3077:3079   */\n      0x20\n        /* \"#utility.yul\":3066:3075   */\n      dup3\n        /* \"#utility.yul\":3062:3080   */\n      add\n        /* \"#utility.yul\":3054:3080   */\n      swap1\n      pop\n        /* \"#utility.yul\":3090:3161   */\n      tag_109\n        /* \"#utility.yul\":3158:3159   */\n      0x00\n        /* \"#utility.yul\":3147:3156   */\n      dup4\n        /* \"#utility.yul\":3143:3160   */\n      add\n        /* \"#utility.yul\":3134:3140   */\n      dup5\n        /* \"#utility.yul\":3090:3161   */\n      tag_92\n      jump\t// in\n    tag_109:\n        /* \"#utility.yul\":2946:3168   */\n      swap3\n      swap2\n      pop\n      pop\n      jump\t// out\n        /* \"#utility.yul\":3174:3343   */\n    tag_84:\n        /* \"#utility.yul\":3258:3269   */\n      0x00\n        /* \"#utility.yul\":3292:3298   */\n      dup3\n        /* \"#utility.yul\":3287:3290   */\n      dup3\n        /* \"#utility.yul\":3280:3299   */\n      mstore\n        /* \"#utility.yul\":3332:3336   */\n      0x20\n        /* \"#utility.yul\":3327:3330   */\n      dup3\n        /* \"#utility.yul\":3323:3337   */\n      add\n        /* \"#utility.yul\":3308:3337   */\n      swap1\n      pop\n        /* \"#utility.yul\":3174:3343   */\n      swap3\n      swap2\n      pop\n      pop\n      jump\t// out\n        /* \"#utility.yul\":3349:3697   */\n    tag_53:\n        /* \"#utility.yul\":3389:3396   */\n      0x00\n        /* \"#utility.yul\":3412:3432   */\n      tag_112\n        /* \"#utility.yul\":3430:3431   */\n      dup3\n        /* \"#utility.yul\":3412:3432   */\n      tag_95\n      jump\t// in\n    tag_112:\n        /* \"#utility.yul\":3407:3432   */\n      swap2\n      pop\n        /* \"#utility.yul\":3446:3466   */\n      tag_113\n        /* \"#utility.yul\":3464:3465   */\n      dup4\n        /* \"#utility.yul\":3446:3466   */\n      tag_95\n      jump\t// in\n    tag_113:\n        /* \"#utility.yul\":3441:3466   */\n      swap3\n      pop\n        /* \"#utility.yul\":3634:3635   */\n      dup2\n        /* \"#utility.yul\":3566:3632   */\n      0xffffffffffffffffffffffffffffffffffffffffffffffffffffffffffffffff\n        /* \"#utility.yul\":3562:3636   */\n      div\n        /* \"#utility.yul\":3559:3560   */\n      dup4\n        /* \"#utility.yul\":3556:3637   */\n      gt\n        /* \"#utility.yul\":3551:3552   */\n      dup3\n        /* \"#utility.yul\":3544:3553   */\n      iszero\n        /* \"#utility.yul\":3537:3554   */\n      iszero\n        /* \"#utility.yul\":3533:3638   */\n      and\n        /* \"#utility.yul\":3530:3661   */\n      iszero\n      tag_114\n      jumpi\n        /* \"#utility.yul\":3641:3659   */\n      tag_115\n      tag_116\n      jump\t// in\n    tag_115:\n        /* \"#utility.yul\":3530:3661   */\n    tag_114:\n        /* \"#utility.yul\":3689:3690   */\n      dup3\n        /* \"#utility.yul\":3686:3687   */\n      dup3\n        /* \"#utility.yul\":3682:3691   */\n      mul\n        /* \"#utility.yul\":3671:3691   */\n      swap1\n      pop\n        /* \"#utility.yul\":3349:3697   */\n      swap3\n      swap2\n      pop\n      pop\n      jump\t// out\n        /* \"#utility.yul\":3703:3894   */\n    tag_51:\n        /* \"#utility.yul\":3743:3747   */\n      0x00\n        /* \"#utility.yul\":3763:3783   */\n      tag_118\n        /* \"#utility.yul\":3781:3782   */\n      dup3\n        /* \"#utility.yul\":3763:3783   */\n      tag_95\n      jump\t// in\n    tag_118:\n        /* \"#utility.yul\":3758:3783   */\n      swap2\n      pop\n        /* \"#utility.yul\":3797:3817   */\n      tag_119\n        /* \"#utility.yul\":3815:3816   */\n      dup4\n        /* \"#utility.yul\":3797:3817   */\n      tag_95\n      jump\t// in\n    tag_119:\n        /* \"#utility.yul\":3792:3817   */\n      swap3\n      pop\n        /* \"#utility.yul\":3836:3837   */\n      dup3\n        /* \"#utility.yul\":3833:3834   */\n      dup3\n        /* \"#utility.yul\":3830:3838   */\n      lt\n        /* \"#utility.yul\":3827:3861   */\n      iszero\n      tag_120\n      jumpi\n        /* \"#utility.yul\":3841:3859   */\n      tag_121\n      tag_116\n      jump\t// in\n    tag_121:\n        /* \"#utility.yul\":3827:3861   */\n    tag_120:\n        /* \"#utility.yul\":3886:3887   */\n      dup3\n        /* \"#utility.yul\":3883:3884   */\n      dup3\n        /* \"#utility.yul\":3879:3888   */\n      sub\n        /* \"#utility.yul\":3871:3888   */\n      swap1\n      pop\n        /* \"#utility.yul\":3703:3894   */\n      swap3\n      swap2\n      pop\n      pop\n      jump\t// out\n        /* \"#utility.yul\":3900:3996   */\n    tag_76:\n        /* \"#utility.yul\":3937:3944   */\n      0x00\n        /* \"#utility.yul\":3966:3990   */\n      tag_123\n        /* \"#utility.yul\":3984:3989   */\n      dup3\n        /* \"#utility.yul\":3966:3990   */\n      tag_124\n      jump\t// in\n    tag_123:\n        /* \"#utility.yul\":3955:3990   */\n      swap1\n      pop\n        /* \"#utility.yul\":3900:3996   */\n      swap2\n      swap1\n      pop\n      jump\t// out\n        /* \"#utility.yul\":4002:4128   */\n    tag_124:\n        /* \"#utility.yul\":4039:4046   */\n      0x00\n        /* \"#utility.yul\":4079:4121   */\n      0xffffffffffffffffffffffffffffffffffffffff\n        /* \"#utility.yul\":4072:4077   */\n      dup3\n        /* \"#utility.yul\":4068:4122   */\n      and\n        /* \"#utility.yul\":4057:4122   */\n      swap1\n      pop\n        /* \"#utility.yul\":4002:4128   */\n      swap2\n      swap1\n      pop\n      jump\t// out\n        /* \"#utility.yul\":4134:4211   */\n    tag_95:\n        /* \"#utility.yul\":4171:4178   */\n      0x00\n        /* \"#utility.yul\":4200:4205   */\n      dup2\n        /* \"#utility.yul\":4189:4205   */\n      swap1\n      pop\n        /* \"#utility.yul\":4134:4211   */\n      swap2\n      swap1\n      pop\n      jump\t// out\n        /* \"#utility.yul\":4217:4357   */\n    tag_80:\n        /* \"#utility.yul\":4281:4290   */\n      0x00\n        /* \"#utility.yul\":4314:4351   */\n      tag_128\n        /* \"#utility.yul\":4345:4350   */\n      dup3\n        /* \"#utility.yul\":4314:4351   */\n      tag_129\n      jump\t// in\n    tag_128:\n        /* \"#utility.yul\":4301:4351   */\n      swap1\n      pop\n        /* \"#utility.yul\":4217:4357   */\n      swap2\n      swap1\n      pop\n      jump\t// out\n        /* \"#utility.yul\":4363:4489   */\n    tag_129:\n        /* \"#utility.yul\":4413:4422   */\n      0x00\n        /* \"#utility.yul\":4446:4483   */\n      tag_131\n        /* \"#utility.yul\":4477:4482   */\n      dup3\n        /* \"#utility.yul\":4446:4483   */\n      tag_132\n      jump\t// in\n    tag_131:\n        /* \"#utility.yul\":4433:4483   */\n      swap1\n      pop\n        /* \"#utility.yul\":4363:4489   */\n      swap2\n      swap1\n      pop\n      jump\t// out\n        /* \"#utility.yul\":4495:4608   */\n    tag_132:\n        /* \"#utility.yul\":4545:4554   */\n      0x00\n        /* \"#utility.yul\":4578:4602   */\n      tag_134\n        /* \"#utility.yul\":4596:4601   */\n      dup3\n        /* \"#utility.yul\":4578:4602   */\n      tag_124\n      jump\t// in\n    tag_134:\n        /* \"#utility.yul\":4565:4602   */\n      swap1\n      pop\n        /* \"#utility.yul\":4495:4608   */\n      swap2\n      swap1\n      pop\n      jump\t// out\n        /* \"#utility.yul\":4614:4794   */\n    tag_116:\n        /* \"#utility.yul\":4662:4739   */\n      0x4e487b7100000000000000000000000000000000000000000000000000000000\n        /* \"#utility.yul\":4659:4660   */\n      0x00\n        /* \"#utility.yul\":4652:4740   */\n      mstore\n        /* \"#utility.yul\":4759:4763   */\n      0x11\n        /* \"#utility.yul\":4756:4757   */\n      0x04\n        /* \"#utility.yul\":4749:4764   */\n      mstore\n        /* \"#utility.yul\":4783:4787   */\n      0x24\n        /* \"#utility.yul\":4780:4781   */\n      0x00\n        /* \"#utility.yul\":4773:4788   */\n      revert\n        /* \"#utility.yul\":4800:4961   */\n    tag_86:\n        /* \"#utility.yul\":4940:4953   */\n      0x455448203c207072696365000000000000000000000000000000000000000000\n        /* \"#utility.yul\":4936:4937   */\n      0x00\n        /* \"#utility.yul\":4928:4934   */\n      dup3\n        /* \"#utility.yul\":4924:4938   */\n      add\n        /* \"#utility.yul\":4917:4954   */\n      mstore\n        /* \"#utility.yul\":4800:4961   */\n      pop\n      jump\t// out\n        /* \"#utility.yul\":4967:5131   */\n    tag_91:\n        /* \"#utility.yul\":5107:5123   */\n      0x617574696f6e2065787069726564000000000000000000000000000000000000\n        /* \"#utility.yul\":5103:5104   */\n      0x00\n        /* \"#utility.yul\":5095:5101   */\n      dup3\n        /* \"#utility.yul\":5091:5105   */\n      add\n        /* \"#utility.yul\":5084:5124   */\n      mstore\n        /* \"#utility.yul\":4967:5131   */\n      pop\n      jump\t// out\n\n    auxdata: 0xa2646970667358221220cef8959dd682de895633e0481d9b0d0fe50ac725a71299a630578c004c5d333864736f6c63430008070033\n}\n",
				"bytecode": {
					"linkReferences": {},
					"object": "6101606040523480156200001257600080fd5b5060405162000cbf38038062000cbf83398181016040528101906200003891906200016f565b3373ffffffffffffffffffffffffffffffffffffffff1660c08173ffffffffffffffffffffffffffffffffffffffff1660601b815250508160e0818152505042610100818152505062093a80426200009191906200023b565b610120818152505080610140818152505062093a8081620000b3919062000298565b821015620000f8576040517f08c379a0000000000000000000000000000000000000000000000000000000008152600401620000ef9062000208565b60405180910390fd5b8373ffffffffffffffffffffffffffffffffffffffff1660808173ffffffffffffffffffffffffffffffffffffffff1660601b815250508260a0818152505050505050620003c8565b600081519050620001528162000394565b92915050565b6000815190506200016981620003ae565b92915050565b600080600080608085870312156200018c576200018b62000366565b5b60006200019c8782880162000141565b9450506020620001af8782880162000158565b9350506040620001c28782880162000158565b9250506060620001d58782880162000158565b91505092959194509250565b6000620001f06018836200022a565b9150620001fd826200036b565b602082019050919050565b600060208201905081810360008301526200022381620001e1565b9050919050565b600082825260208201905092915050565b600062000248826200032d565b915062000255836200032d565b9250827fffffffffffffffffffffffffffffffffffffffffffffffffffffffffffffffff038211156200028d576200028c62000337565b5b828201905092915050565b6000620002a5826200032d565b9150620002b2836200032d565b9250817fffffffffffffffffffffffffffffffffffffffffffffffffffffffffffffffff0483118215151615620002ee57620002ed62000337565b5b828202905092915050565b600062000306826200030d565b9050919050565b600073ffffffffffffffffffffffffffffffffffffffff82169050919050565b6000819050919050565b7f4e487b7100000000000000000000000000000000000000000000000000000000600052601160045260246000fd5b600080fd5b7f7374617274696e675072696365203c20646973636f756e740000000000000000600082015250565b6200039f81620002f9565b8114620003ab57600080fd5b50565b620003b9816200032d565b8114620003c557600080fd5b50565b60805160601c60a05160c05160601c60e0516101005161012051610140516108656200045a6000396000818161028f015261054001526000818161023701526102ef01526000818161025e01526104f80152600081816102bd015261051c0152600081816101ef01526103dc0152600081816103fe01526104d401526000818161021301526103a001526108656000f3fe6080604052600436106100865760003560e01c8063a6f2ae3a11610059578063a6f2ae3a14610137578063c6bc518214610141578063c74465651461016c578063d6fbf20214610197578063e6c0e6d5146101c257610086565b806308551a531461008b57806347ccca02146100b6578063748ef72e146100e157806398d5fdca1461010c575b600080fd5b34801561009757600080fd5b506100a06101ed565b6040516100ad91906105d5565b60405180910390f35b3480156100c257600080fd5b506100cb610211565b6040516100d89190610627565b60405180910390f35b3480156100ed57600080fd5b506100f6610235565b6040516101039190610682565b60405180910390f35b34801561011857600080fd5b50610121610259565b60405161012e9190610682565b60405180910390f35b61013f6102ed565b005b34801561014d57600080fd5b506101566104d2565b6040516101639190610682565b60405180910390f35b34801561017857600080fd5b506101816104f6565b60405161018e9190610682565b60405180910390f35b3480156101a357600080fd5b506101ac61051a565b6040516101b99190610682565b60405180910390f35b3480156101ce57600080fd5b506101d761053e565b6040516101e49190610682565b60405180910390f35b7f000000000000000000000000000000000000000000000000000000000000000081565b7f000000000000000000000000000000000000000000000000000000000000000081565b7f000000000000000000000000000000000000000000000000000000000000000081565b6000807f0000000000000000000000000000000000000000000000000000000000000000426102889190610708565b90506000817f00000000000000000000000000000000000000000000000000000000000000006102b891906106ae565b9050807f00000000000000000000000000000000000000000000000000000000000000006102e69190610708565b9250505090565b7f0000000000000000000000000000000000000000000000000000000000000000421061034f576040517f08c379a000000000000000000000000000000000000000000000000000000000815260040161034690610662565b60405180910390fd5b6000610359610259565b90508034101561039e576040517f08c379a000000000000000000000000000000000000000000000000000000000815260040161039590610642565b60405180910390fd5b7f000000000000000000000000000000000000000000000000000000000000000073ffffffffffffffffffffffffffffffffffffffff166323b872dd7f0000000000000000000000000000000000000000000000000000000000000000337f00000000000000000000000000000000000000000000000000000000000000006040518463ffffffff1660e01b815260040161043b939291906105f0565b600060405180830381600087803b15801561045557600080fd5b505af1158015610469573d6000803e3d6000fd5b505050506000813461047b9190610708565b905060008111156104ce573373ffffffffffffffffffffffffffffffffffffffff166108fc829081150290604051600060405180830381858888f193505050501580156104cc573d6000803e3d6000fd5b505b5050565b7f000000000000000000000000000000000000000000000000000000000000000081565b7f000000000000000000000000000000000000000000000000000000000000000081565b7f000000000000000000000000000000000000000000000000000000000000000081565b7f000000000000000000000000000000000000000000000000000000000000000081565b61056b8161073c565b82525050565b61057a81610778565b82525050565b600061058d600b8361069d565b9150610598826107dd565b602082019050919050565b60006105b0600e8361069d565b91506105bb82610806565b602082019050919050565b6105cf8161076e565b82525050565b60006020820190506105ea6000830184610562565b92915050565b60006060820190506106056000830186610562565b6106126020830185610562565b61061f60408301846105c6565b949350505050565b600060208201905061063c6000830184610571565b92915050565b6000602082019050818103600083015261065b81610580565b9050919050565b6000602082019050818103600083015261067b816105a3565b9050919050565b600060208201905061069760008301846105c6565b92915050565b600082825260208201905092915050565b60006106b98261076e565b91506106c48361076e565b9250817fffffffffffffffffffffffffffffffffffffffffffffffffffffffffffffffff04831182151516156106fd576106fc6107ae565b5b828202905092915050565b60006107138261076e565b915061071e8361076e565b925082821015610731576107306107ae565b5b828203905092915050565b60006107478261074e565b9050919050565b600073ffffffffffffffffffffffffffffffffffffffff82169050919050565b6000819050919050565b60006107838261078a565b9050919050565b60006107958261079c565b9050919050565b60006107a78261074e565b9050919050565b7f4e487b7100000000000000000000000000000000000000000000000000000000600052601160045260246000fd5b7f455448203c207072696365000000000000000000000000000000000000000000600082015250565b7f617574696f6e206578706972656400000000000000000000000000000000000060008201525056fea2646970667358221220cef8959dd682de895633e0481d9b0d0fe50ac725a71299a630578c004c5d333864736f6c63430008070033",
					"opcodes": "PUSH2 0x160 PUSH1 0x40 MSTORE CALLVALUE DUP1 ISZERO PUSH3 0x12 JUMPI PUSH1 0x0 DUP1 REVERT JUMPDEST POP PUSH1 0x40 MLOAD PUSH3 0xCBF CODESIZE SUB DUP1 PUSH3 0xCBF DUP4 CODECOPY DUP2 DUP2 ADD PUSH1 0x40 MSTORE DUP2 ADD SWAP1 PUSH3 0x38 SWAP2 SWAP1 PUSH3 0x16F JUMP JUMPDEST CALLER PUSH20 0xFFFFFFFFFFFFFFFFFFFFFFFFFFFFFFFFFFFFFFFF AND PUSH1 0xC0 DUP2 PUSH20 0xFFFFFFFFFFFFFFFFFFFFFFFFFFFFFFFFFFFFFFFF AND PUSH1 0x60 SHL DUP2 MSTORE POP POP DUP2 PUSH1 0xE0 DUP2 DUP2 MSTORE POP POP TIMESTAMP PUSH2 0x100 DUP2 DUP2 MSTORE POP POP PUSH3 0x93A80 TIMESTAMP PUSH3 0x91 SWAP2 SWAP1 PUSH3 0x23B JUMP JUMPDEST PUSH2 0x120 DUP2 DUP2 MSTORE POP POP DUP1 PUSH2 0x140 DUP2 DUP2 MSTORE POP POP PUSH3 0x93A80 DUP2 PUSH3 0xB3 SWAP2 SWAP1 PUSH3 0x298 JUMP JUMPDEST DUP3 LT ISZERO PUSH3 0xF8 JUMPI PUSH1 0x40 MLOAD PUSH32 0x8C379A000000000000000000000000000000000000000000000000000000000 DUP2 MSTORE PUSH1 0x4 ADD PUSH3 0xEF SWAP1 PUSH3 0x208 JUMP JUMPDEST PUSH1 0x40 MLOAD DUP1 SWAP2 SUB SWAP1 REVERT JUMPDEST DUP4 PUSH20 0xFFFFFFFFFFFFFFFFFFFFFFFFFFFFFFFFFFFFFFFF AND PUSH1 0x80 DUP2 PUSH20 0xFFFFFFFFFFFFFFFFFFFFFFFFFFFFFFFFFFFFFFFF AND PUSH1 0x60 SHL DUP2 MSTORE POP POP DUP3 PUSH1 0xA0 DUP2 DUP2 MSTORE POP POP POP POP POP POP PUSH3 0x3C8 JUMP JUMPDEST PUSH1 0x0 DUP2 MLOAD SWAP1 POP PUSH3 0x152 DUP2 PUSH3 0x394 JUMP JUMPDEST SWAP3 SWAP2 POP POP JUMP JUMPDEST PUSH1 0x0 DUP2 MLOAD SWAP1 POP PUSH3 0x169 DUP2 PUSH3 0x3AE JUMP JUMPDEST SWAP3 SWAP2 POP POP JUMP JUMPDEST PUSH1 0x0 DUP1 PUSH1 0x0 DUP1 PUSH1 0x80 DUP6 DUP8 SUB SLT ISZERO PUSH3 0x18C JUMPI PUSH3 0x18B PUSH3 0x366 JUMP JUMPDEST JUMPDEST PUSH1 0x0 PUSH3 0x19C DUP8 DUP3 DUP9 ADD PUSH3 0x141 JUMP JUMPDEST SWAP5 POP POP PUSH1 0x20 PUSH3 0x1AF DUP8 DUP3 DUP9 ADD PUSH3 0x158 JUMP JUMPDEST SWAP4 POP POP PUSH1 0x40 PUSH3 0x1C2 DUP8 DUP3 DUP9 ADD PUSH3 0x158 JUMP JUMPDEST SWAP3 POP POP PUSH1 0x60 PUSH3 0x1D5 DUP8 DUP3 DUP9 ADD PUSH3 0x158 JUMP JUMPDEST SWAP2 POP POP SWAP3 SWAP6 SWAP2 SWAP5 POP SWAP3 POP JUMP JUMPDEST PUSH1 0x0 PUSH3 0x1F0 PUSH1 0x18 DUP4 PUSH3 0x22A JUMP JUMPDEST SWAP2 POP PUSH3 0x1FD DUP3 PUSH3 0x36B JUMP JUMPDEST PUSH1 0x20 DUP3 ADD SWAP1 POP SWAP2 SWAP1 POP JUMP JUMPDEST PUSH1 0x0 PUSH1 0x20 DUP3 ADD SWAP1 POP DUP2 DUP2 SUB PUSH1 0x0 DUP4 ADD MSTORE PUSH3 0x223 DUP2 PUSH3 0x1E1 JUMP JUMPDEST SWAP1 POP SWAP2 SWAP1 POP JUMP JUMPDEST PUSH1 0x0 DUP3 DUP3 MSTORE PUSH1 0x20 DUP3 ADD SWAP1 POP SWAP3 SWAP2 POP POP JUMP JUMPDEST PUSH1 0x0 PUSH3 0x248 DUP3 PUSH3 0x32D JUMP JUMPDEST SWAP2 POP PUSH3 0x255 DUP4 PUSH3 0x32D JUMP JUMPDEST SWAP3 POP DUP3 PUSH32 0xFFFFFFFFFFFFFFFFFFFFFFFFFFFFFFFFFFFFFFFFFFFFFFFFFFFFFFFFFFFFFFFF SUB DUP3 GT ISZERO PUSH3 0x28D JUMPI PUSH3 0x28C PUSH3 0x337 JUMP JUMPDEST JUMPDEST DUP3 DUP3 ADD SWAP1 POP SWAP3 SWAP2 POP POP JUMP JUMPDEST PUSH1 0x0 PUSH3 0x2A5 DUP3 PUSH3 0x32D JUMP JUMPDEST SWAP2 POP PUSH3 0x2B2 DUP4 PUSH3 0x32D JUMP JUMPDEST SWAP3 POP DUP2 PUSH32 0xFFFFFFFFFFFFFFFFFFFFFFFFFFFFFFFFFFFFFFFFFFFFFFFFFFFFFFFFFFFFFFFF DIV DUP4 GT DUP3 ISZERO ISZERO AND ISZERO PUSH3 0x2EE JUMPI PUSH3 0x2ED PUSH3 0x337 JUMP JUMPDEST JUMPDEST DUP3 DUP3 MUL SWAP1 POP SWAP3 SWAP2 POP POP JUMP JUMPDEST PUSH1 0x0 PUSH3 0x306 DUP3 PUSH3 0x30D JUMP JUMPDEST SWAP1 POP SWAP2 SWAP1 POP JUMP JUMPDEST PUSH1 0x0 PUSH20 0xFFFFFFFFFFFFFFFFFFFFFFFFFFFFFFFFFFFFFFFF DUP3 AND SWAP1 POP SWAP2 SWAP1 POP JUMP JUMPDEST PUSH1 0x0 DUP2 SWAP1 POP SWAP2 SWAP1 POP JUMP JUMPDEST PUSH32 0x4E487B7100000000000000000000000000000000000000000000000000000000 PUSH1 0x0 MSTORE PUSH1 0x11 PUSH1 0x4 MSTORE PUSH1 0x24 PUSH1 0x0 REVERT JUMPDEST PUSH1 0x0 DUP1 REVERT JUMPDEST PUSH32 0x7374617274696E675072696365203C20646973636F756E740000000000000000 PUSH1 0x0 DUP3 ADD MSTORE POP JUMP JUMPDEST PUSH3 0x39F DUP2 PUSH3 0x2F9 JUMP JUMPDEST DUP2 EQ PUSH3 0x3AB JUMPI PUSH1 0x0 DUP1 REVERT JUMPDEST POP JUMP JUMPDEST PUSH3 0x3B9 DUP2 PUSH3 0x32D JUMP JUMPDEST DUP2 EQ PUSH3 0x3C5 JUMPI PUSH1 0x0 DUP1 REVERT JUMPDEST POP JUMP JUMPDEST PUSH1 0x80 MLOAD PUSH1 0x60 SHR PUSH1 0xA0 MLOAD PUSH1 0xC0 MLOAD PUSH1 0x60 SHR PUSH1 0xE0 MLOAD PUSH2 0x100 MLOAD PUSH2 0x120 MLOAD PUSH2 0x140 MLOAD PUSH2 0x865 PUSH3 0x45A PUSH1 0x0 CODECOPY PUSH1 0x0 DUP2 DUP2 PUSH2 0x28F ADD MSTORE PUSH2 0x540 ADD MSTORE PUSH1 0x0 DUP2 DUP2 PUSH2 0x237 ADD MSTORE PUSH2 0x2EF ADD MSTORE PUSH1 0x0 DUP2 DUP2 PUSH2 0x25E ADD MSTORE PUSH2 0x4F8 ADD MSTORE PUSH1 0x0 DUP2 DUP2 PUSH2 0x2BD ADD MSTORE PUSH2 0x51C ADD MSTORE PUSH1 0x0 DUP2 DUP2 PUSH2 0x1EF ADD MSTORE PUSH2 0x3DC ADD MSTORE PUSH1 0x0 DUP2 DUP2 PUSH2 0x3FE ADD MSTORE PUSH2 0x4D4 ADD MSTORE PUSH1 0x0 DUP2 DUP2 PUSH2 0x213 ADD MSTORE PUSH2 0x3A0 ADD MSTORE PUSH2 0x865 PUSH1 0x0 RETURN INVALID PUSH1 0x80 PUSH1 0x40 MSTORE PUSH1 0x4 CALLDATASIZE LT PUSH2 0x86 JUMPI PUSH1 0x0 CALLDATALOAD PUSH1 0xE0 SHR DUP1 PUSH4 0xA6F2AE3A GT PUSH2 0x59 JUMPI DUP1 PUSH4 0xA6F2AE3A EQ PUSH2 0x137 JUMPI DUP1 PUSH4 0xC6BC5182 EQ PUSH2 0x141 JUMPI DUP1 PUSH4 0xC7446565 EQ PUSH2 0x16C JUMPI DUP1 PUSH4 0xD6FBF202 EQ PUSH2 0x197 JUMPI DUP1 PUSH4 0xE6C0E6D5 EQ PUSH2 0x1C2 JUMPI PUSH2 0x86 JUMP JUMPDEST DUP1 PUSH4 0x8551A53 EQ PUSH2 0x8B JUMPI DUP1 PUSH4 0x47CCCA02 EQ PUSH2 0xB6 JUMPI DUP1 PUSH4 0x748EF72E EQ PUSH2 0xE1 JUMPI DUP1 PUSH4 0x98D5FDCA EQ PUSH2 0x10C JUMPI JUMPDEST PUSH1 0x0 DUP1 REVERT JUMPDEST CALLVALUE DUP1 ISZERO PUSH2 0x97 JUMPI PUSH1 0x0 DUP1 REVERT JUMPDEST POP PUSH2 0xA0 PUSH2 0x1ED JUMP JUMPDEST PUSH1 0x40 MLOAD PUSH2 0xAD SWAP2 SWAP1 PUSH2 0x5D5 JUMP JUMPDEST PUSH1 0x40 MLOAD DUP1 SWAP2 SUB SWAP1 RETURN JUMPDEST CALLVALUE DUP1 ISZERO PUSH2 0xC2 JUMPI PUSH1 0x0 DUP1 REVERT JUMPDEST POP PUSH2 0xCB PUSH2 0x211 JUMP JUMPDEST PUSH1 0x40 MLOAD PUSH2 0xD8 SWAP2 SWAP1 PUSH2 0x627 JUMP JUMPDEST PUSH1 0x40 MLOAD DUP1 SWAP2 SUB SWAP1 RETURN JUMPDEST CALLVALUE DUP1 ISZERO PUSH2 0xED JUMPI PUSH1 0x0 DUP1 REVERT JUMPDEST POP PUSH2 0xF6 PUSH2 0x235 JUMP JUMPDEST PUSH1 0x40 MLOAD PUSH2 0x103 SWAP2 SWAP1 PUSH2 0x682 JUMP JUMPDEST PUSH1 0x40 MLOAD DUP1 SWAP2 SUB SWAP1 RETURN JUMPDEST CALLVALUE DUP1 ISZERO PUSH2 0x118 JUMPI PUSH1 0x0 DUP1 REVERT JUMPDEST POP PUSH2 0x121 PUSH2 0x259 JUMP JUMPDEST PUSH1 0x40 MLOAD PUSH2 0x12E SWAP2 SWAP1 PUSH2 0x682 JUMP JUMPDEST PUSH1 0x40 MLOAD DUP1 SWAP2 SUB SWAP1 RETURN JUMPDEST PUSH2 0x13F PUSH2 0x2ED JUMP JUMPDEST STOP JUMPDEST CALLVALUE DUP1 ISZERO PUSH2 0x14D JUMPI PUSH1 0x0 DUP1 REVERT JUMPDEST POP PUSH2 0x156 PUSH2 0x4D2 JUMP JUMPDEST PUSH1 0x40 MLOAD PUSH2 0x163 SWAP2 SWAP1 PUSH2 0x682 JUMP JUMPDEST PUSH1 0x40 MLOAD DUP1 SWAP2 SUB SWAP1 RETURN JUMPDEST CALLVALUE DUP1 ISZERO PUSH2 0x178 JUMPI PUSH1 0x0 DUP1 REVERT JUMPDEST POP PUSH2 0x181 PUSH2 0x4F6 JUMP JUMPDEST PUSH1 0x40 MLOAD PUSH2 0x18E SWAP2 SWAP1 PUSH2 0x682 JUMP JUMPDEST PUSH1 0x40 MLOAD DUP1 SWAP2 SUB SWAP1 RETURN JUMPDEST CALLVALUE DUP1 ISZERO PUSH2 0x1A3 JUMPI PUSH1 0x0 DUP1 REVERT JUMPDEST POP PUSH2 0x1AC PUSH2 0x51A JUMP JUMPDEST PUSH1 0x40 MLOAD PUSH2 0x1B9 SWAP2 SWAP1 PUSH2 0x682 JUMP JUMPDEST PUSH1 0x40 MLOAD DUP1 SWAP2 SUB SWAP1 RETURN JUMPDEST CALLVALUE DUP1 ISZERO PUSH2 0x1CE JUMPI PUSH1 0x0 DUP1 REVERT JUMPDEST POP PUSH2 0x1D7 PUSH2 0x53E JUMP JUMPDEST PUSH1 0x40 MLOAD PUSH2 0x1E4 SWAP2 SWAP1 PUSH2 0x682 JUMP JUMPDEST PUSH1 0x40 MLOAD DUP1 SWAP2 SUB SWAP1 RETURN JUMPDEST PUSH32 0x0 DUP2 JUMP JUMPDEST PUSH32 0x0 DUP2 JUMP JUMPDEST PUSH32 0x0 DUP2 JUMP JUMPDEST PUSH1 0x0 DUP1 PUSH32 0x0 TIMESTAMP PUSH2 0x288 SWAP2 SWAP1 PUSH2 0x708 JUMP JUMPDEST SWAP1 POP PUSH1 0x0 DUP2 PUSH32 0x0 PUSH2 0x2B8 SWAP2 SWAP1 PUSH2 0x6AE JUMP JUMPDEST SWAP1 POP DUP1 PUSH32 0x0 PUSH2 0x2E6 SWAP2 SWAP1 PUSH2 0x708 JUMP JUMPDEST SWAP3 POP POP POP SWAP1 JUMP JUMPDEST PUSH32 0x0 TIMESTAMP LT PUSH2 0x34F JUMPI PUSH1 0x40 MLOAD PUSH32 0x8C379A000000000000000000000000000000000000000000000000000000000 DUP2 MSTORE PUSH1 0x4 ADD PUSH2 0x346 SWAP1 PUSH2 0x662 JUMP JUMPDEST PUSH1 0x40 MLOAD DUP1 SWAP2 SUB SWAP1 REVERT JUMPDEST PUSH1 0x0 PUSH2 0x359 PUSH2 0x259 JUMP JUMPDEST SWAP1 POP DUP1 CALLVALUE LT ISZERO PUSH2 0x39E JUMPI PUSH1 0x40 MLOAD PUSH32 0x8C379A000000000000000000000000000000000000000000000000000000000 DUP2 MSTORE PUSH1 0x4 ADD PUSH2 0x395 SWAP1 PUSH2 0x642 JUMP JUMPDEST PUSH1 0x40 MLOAD DUP1 SWAP2 SUB SWAP1 REVERT JUMPDEST PUSH32 0x0 PUSH20 0xFFFFFFFFFFFFFFFFFFFFFFFFFFFFFFFFFFFFFFFF AND PUSH4 0x23B872DD PUSH32 0x0 CALLER PUSH32 0x0 PUSH1 0x40 MLOAD DUP5 PUSH4 0xFFFFFFFF AND PUSH1 0xE0 SHL DUP2 MSTORE PUSH1 0x4 ADD PUSH2 0x43B SWAP4 SWAP3 SWAP2 SWAP1 PUSH2 0x5F0 JUMP JUMPDEST PUSH1 0x0 PUSH1 0x40 MLOAD DUP1 DUP4 SUB DUP2 PUSH1 0x0 DUP8 DUP1 EXTCODESIZE ISZERO DUP1 ISZERO PUSH2 0x455 JUMPI PUSH1 0x0 DUP1 REVERT JUMPDEST POP GAS CALL ISZERO DUP1 ISZERO PUSH2 0x469 JUMPI RETURNDATASIZE PUSH1 0x0 DUP1 RETURNDATACOPY RETURNDATASIZE PUSH1 0x0 REVERT JUMPDEST POP POP POP POP PUSH1 0x0 DUP2 CALLVALUE PUSH2 0x47B SWAP2 SWAP1 PUSH2 0x708 JUMP JUMPDEST SWAP1 POP PUSH1 0x0 DUP2 GT ISZERO PUSH2 0x4CE JUMPI CALLER PUSH20 0xFFFFFFFFFFFFFFFFFFFFFFFFFFFFFFFFFFFFFFFF AND PUSH2 0x8FC DUP3 SWAP1 DUP2 ISZERO MUL SWAP1 PUSH1 0x40 MLOAD PUSH1 0x0 PUSH1 0x40 MLOAD DUP1 DUP4 SUB DUP2 DUP6 DUP9 DUP9 CALL SWAP4 POP POP POP POP ISZERO DUP1 ISZERO PUSH2 0x4CC JUMPI RETURNDATASIZE PUSH1 0x0 DUP1 RETURNDATACOPY RETURNDATASIZE PUSH1 0x0 REVERT JUMPDEST POP JUMPDEST POP POP JUMP JUMPDEST PUSH32 0x0 DUP2 JUMP JUMPDEST PUSH32 0x0 DUP2 JUMP JUMPDEST PUSH32 0x0 DUP2 JUMP JUMPDEST PUSH32 0x0 DUP2 JUMP JUMPDEST PUSH2 0x56B DUP2 PUSH2 0x73C JUMP JUMPDEST DUP3 MSTORE POP POP JUMP JUMPDEST PUSH2 0x57A DUP2 PUSH2 0x778 JUMP JUMPDEST DUP3 MSTORE POP POP JUMP JUMPDEST PUSH1 0x0 PUSH2 0x58D PUSH1 0xB DUP4 PUSH2 0x69D JUMP JUMPDEST SWAP2 POP PUSH2 0x598 DUP3 PUSH2 0x7DD JUMP JUMPDEST PUSH1 0x20 DUP3 ADD SWAP1 POP SWAP2 SWAP1 POP JUMP JUMPDEST PUSH1 0x0 PUSH2 0x5B0 PUSH1 0xE DUP4 PUSH2 0x69D JUMP JUMPDEST SWAP2 POP PUSH2 0x5BB DUP3 PUSH2 0x806 JUMP JUMPDEST PUSH1 0x20 DUP3 ADD SWAP1 POP SWAP2 SWAP1 POP JUMP JUMPDEST PUSH2 0x5CF DUP2 PUSH2 0x76E JUMP JUMPDEST DUP3 MSTORE POP POP JUMP JUMPDEST PUSH1 0x0 PUSH1 0x20 DUP3 ADD SWAP1 POP PUSH2 0x5EA PUSH1 0x0 DUP4 ADD DUP5 PUSH2 0x562 JUMP JUMPDEST SWAP3 SWAP2 POP POP JUMP JUMPDEST PUSH1 0x0 PUSH1 0x60 DUP3 ADD SWAP1 POP PUSH2 0x605 PUSH1 0x0 DUP4 ADD DUP7 PUSH2 0x562 JUMP JUMPDEST PUSH2 0x612 PUSH1 0x20 DUP4 ADD DUP6 PUSH2 0x562 JUMP JUMPDEST PUSH2 0x61F PUSH1 0x40 DUP4 ADD DUP5 PUSH2 0x5C6 JUMP JUMPDEST SWAP5 SWAP4 POP POP POP POP JUMP JUMPDEST PUSH1 0x0 PUSH1 0x20 DUP3 ADD SWAP1 POP PUSH2 0x63C PUSH1 0x0 DUP4 ADD DUP5 PUSH2 0x571 JUMP JUMPDEST SWAP3 SWAP2 POP POP JUMP JUMPDEST PUSH1 0x0 PUSH1 0x20 DUP3 ADD SWAP1 POP DUP2 DUP2 SUB PUSH1 0x0 DUP4 ADD MSTORE PUSH2 0x65B DUP2 PUSH2 0x580 JUMP JUMPDEST SWAP1 POP SWAP2 SWAP1 POP JUMP JUMPDEST PUSH1 0x0 PUSH1 0x20 DUP3 ADD SWAP1 POP DUP2 DUP2 SUB PUSH1 0x0 DUP4 ADD MSTORE PUSH2 0x67B DUP2 PUSH2 0x5A3 JUMP JUMPDEST SWAP1 POP SWAP2 SWAP1 POP JUMP JUMPDEST PUSH1 0x0 PUSH1 0x20 DUP3 ADD SWAP1 POP PUSH2 0x697 PUSH1 0x0 DUP4 ADD DUP5 PUSH2 0x5C6 JUMP JUMPDEST SWAP3 SWAP2 POP POP JUMP JUMPDEST PUSH1 0x0 DUP3 DUP3 MSTORE PUSH1 0x20 DUP3 ADD SWAP1 POP SWAP3 SWAP2 POP POP JUMP JUMPDEST PUSH1 0x0 PUSH2 0x6B9 DUP3 PUSH2 0x76E JUMP JUMPDEST SWAP2 POP PUSH2 0x6C4 DUP4 PUSH2 0x76E JUMP JUMPDEST SWAP3 POP DUP2 PUSH32 0xFFFFFFFFFFFFFFFFFFFFFFFFFFFFFFFFFFFFFFFFFFFFFFFFFFFFFFFFFFFFFFFF DIV DUP4 GT DUP3 ISZERO ISZERO AND ISZERO PUSH2 0x6FD JUMPI PUSH2 0x6FC PUSH2 0x7AE JUMP JUMPDEST JUMPDEST DUP3 DUP3 MUL SWAP1 POP SWAP3 SWAP2 POP POP JUMP JUMPDEST PUSH1 0x0 PUSH2 0x713 DUP3 PUSH2 0x76E JUMP JUMPDEST SWAP2 POP PUSH2 0x71E DUP4 PUSH2 0x76E JUMP JUMPDEST SWAP3 POP DUP3 DUP3 LT ISZERO PUSH2 0x731 JUMPI PUSH2 0x730 PUSH2 0x7AE JUMP JUMPDEST JUMPDEST DUP3 DUP3 SUB SWAP1 POP SWAP3 SWAP2 POP POP JUMP JUMPDEST PUSH1 0x0 PUSH2 0x747 DUP3 PUSH2 0x74E JUMP JUMPDEST SWAP1 POP SWAP2 SWAP1 POP JUMP JUMPDEST PUSH1 0x0 PUSH20 0xFFFFFFFFFFFFFFFFFFFFFFFFFFFFFFFFFFFFFFFF DUP3 AND SWAP1 POP SWAP2 SWAP1 POP JUMP JUMPDEST PUSH1 0x0 DUP2 SWAP1 POP SWAP2 SWAP1 POP JUMP JUMPDEST PUSH1 0x0 PUSH2 0x783 DUP3 PUSH2 0x78A JUMP JUMPDEST SWAP1 POP SWAP2 SWAP1 POP JUMP JUMPDEST PUSH1 0x0 PUSH2 0x795 DUP3 PUSH2 0x79C JUMP JUMPDEST SWAP1 POP SWAP2 SWAP1 POP JUMP JUMPDEST PUSH1 0x0 PUSH2 0x7A7 DUP3 PUSH2 0x74E JUMP JUMPDEST SWAP1 POP SWAP2 SWAP1 POP JUMP JUMPDEST PUSH32 0x4E487B7100000000000000000000000000000000000000000000000000000000 PUSH1 0x0 MSTORE PUSH1 0x11 PUSH1 0x4 MSTORE PUSH1 0x24 PUSH1 0x0 REVERT JUMPDEST PUSH32 0x455448203C207072696365000000000000000000000000000000000000000000 PUSH1 0x0 DUP3 ADD MSTORE POP JUMP JUMPDEST PUSH32 0x617574696F6E2065787069726564000000000000000000000000000000000000 PUSH1 0x0 DUP3 ADD MSTORE POP JUMP INVALID LOG2 PUSH5 0x6970667358 0x22 SLT KECCAK256 0xCE 0xF8 SWAP6 SWAP14 0xD6 DUP3 0xDE DUP10 JUMP CALLER 0xE0 BASEFEE SAR SWAP12 0xD 0xF 0xE5 EXP 0xC7 0x25 0xA7 SLT SWAP10 0xA6 ADDRESS JUMPI DUP13 STOP 0x4C 0x5D CALLER CODESIZE PUSH5 0x736F6C6343 STOP ADDMOD SMOD STOP CALLER "
				},
				"gasEstimates": {
					"creation": {
						"codeDepositCost": "429800",
						"executionCost": "infinite",
						"totalCost": "infinite"
					},
					"external": {
						"buy()": "infinite",
						"discountRate()": "infinite",
						"expireAt()": "infinite",
						"getPrice()": "infinite",
						"nft()": "infinite",
						"nftId()": "infinite",
						"seller()": "infinite",
						"startAt()": "infinite",
						"startingPrice()": "infinite"
					}
				},
				"methodIdentifiers": {
					"buy()": "a6f2ae3a",
					"discountRate()": "e6c0e6d5",
					"expireAt()": "748ef72e",
					"getPrice()": "98d5fdca",
					"nft()": "47ccca02",
					"nftId()": "c6bc5182",
					"seller()": "08551a53",
					"startAt()": "c7446565",
					"startingPrice()": "d6fbf202"
				}
			},
			"storageLayout": {
				"storage": [],
				"types": null
			},
			"userdoc": {
				"kind": "user",
				"methods": {},
				"version": 1
			}
		}
	}
}