{
	"contracts/MyNFT.sol": {
		"MyNFT": {
			"abi": [
				{
					"anonymous": false,
					"inputs": [
						{
							"indexed": true,
							"internalType": "address",
							"name": "owner",
							"type": "address"
						},
						{
							"indexed": true,
							"internalType": "address",
							"name": "approved",
							"type": "address"
						},
						{
							"indexed": true,
							"internalType": "uint256",
							"name": "tokenId",
							"type": "uint256"
						}
					],
					"name": "Approval",
					"type": "event"
				},
				{
					"anonymous": false,
					"inputs": [
						{
							"indexed": true,
							"internalType": "address",
							"name": "owner",
							"type": "address"
						},
						{
							"indexed": true,
							"internalType": "address",
							"name": "operator",
							"type": "address"
						},
						{
							"indexed": false,
							"internalType": "bool",
							"name": "approved",
							"type": "bool"
						}
					],
					"name": "ApprovalForAll",
					"type": "event"
				},
				{
					"anonymous": false,
					"inputs": [
						{
							"indexed": true,
							"internalType": "address",
							"name": "from",
							"type": "address"
						},
						{
							"indexed": true,
							"internalType": "address",
							"name": "to",
							"type": "address"
						},
						{
							"indexed": true,
							"internalType": "uint256",
							"name": "tokenId",
							"type": "uint256"
						}
					],
					"name": "Transfer",
					"type": "event"
				},
				{
					"inputs": [
						{
							"internalType": "address",
							"name": "to",
							"type": "address"
						},
						{
							"internalType": "uint256",
							"name": "tokenId",
							"type": "uint256"
						}
					],
					"name": "approve",
					"outputs": [],
					"stateMutability": "nonpayable",
					"type": "function"
				},
				{
					"inputs": [
						{
							"internalType": "address",
							"name": "owner",
							"type": "address"
						}
					],
					"name": "balanceOf",
					"outputs": [
						{
							"internalType": "uint256",
							"name": "",
							"type": "uint256"
						}
					],
					"stateMutability": "view",
					"type": "function"
				},
				{
					"inputs": [
						{
							"internalType": "uint256",
							"name": "tokenId",
							"type": "uint256"
						}
					],
					"name": "burn",
					"outputs": [],
					"stateMutability": "nonpayable",
					"type": "function"
				},
				{
					"inputs": [
						{
							"internalType": "uint256",
							"name": "tokenId",
							"type": "uint256"
						}
					],
					"name": "getApproved",
					"outputs": [
						{
							"internalType": "address",
							"name": "",
							"type": "address"
						}
					],
					"stateMutability": "view",
					"type": "function"
				},
				{
					"inputs": [
						{
							"internalType": "address",
							"name": "owner",
							"type": "address"
						},
						{
							"internalType": "address",
							"name": "operator",
							"type": "address"
						}
					],
					"name": "isApprovedForAll",
					"outputs": [
						{
							"internalType": "bool",
							"name": "",
							"type": "bool"
						}
					],
					"stateMutability": "view",
					"type": "function"
				},
				{
					"inputs": [
						{
							"internalType": "address",
							"name": "to",
							"type": "address"
						},
						{
							"internalType": "uint256",
							"name": "tokenId",
							"type": "uint256"
						}
					],
					"name": "mint",
					"outputs": [],
					"stateMutability": "nonpayable",
					"type": "function"
				},
				{
					"inputs": [
						{
							"internalType": "uint256",
							"name": "tokenId",
							"type": "uint256"
						}
					],
					"name": "ownerOf",
					"outputs": [
						{
							"internalType": "address",
							"name": "",
							"type": "address"
						}
					],
					"stateMutability": "view",
					"type": "function"
				},
				{
					"inputs": [
						{
							"internalType": "address",
							"name": "from",
							"type": "address"
						},
						{
							"internalType": "address",
							"name": "to",
							"type": "address"
						},
						{
							"internalType": "uint256",
							"name": "tokenId",
							"type": "uint256"
						}
					],
					"name": "safeTransferFrom",
					"outputs": [],
					"stateMutability": "nonpayable",
					"type": "function"
				},
				{
					"inputs": [
						{
							"internalType": "address",
							"name": "from",
							"type": "address"
						},
						{
							"internalType": "address",
							"name": "to",
							"type": "address"
						},
						{
							"internalType": "uint256",
							"name": "tokenId",
							"type": "uint256"
						},
						{
							"internalType": "bytes",
							"name": "_data",
							"type": "bytes"
						}
					],
					"name": "safeTransferFrom",
					"outputs": [],
					"stateMutability": "nonpayable",
					"type": "function"
				},
				{
					"inputs": [
						{
							"internalType": "address",
							"name": "operator",
							"type": "address"
						},
						{
							"internalType": "bool",
							"name": "approved",
							"type": "bool"
						}
					],
					"name": "setApprovalForAll",
					"outputs": [],
					"stateMutability": "nonpayable",
					"type": "function"
				},
				{
					"inputs": [
						{
							"internalType": "bytes4",
							"name": "interfaceId",
							"type": "bytes4"
						}
					],
					"name": "supportsInterface",
					"outputs": [
						{
							"internalType": "bool",
							"name": "",
							"type": "bool"
						}
					],
					"stateMutability": "view",
					"type": "function"
				},
				{
					"inputs": [
						{
							"internalType": "address",
							"name": "from",
							"type": "address"
						},
						{
							"internalType": "address",
							"name": "to",
							"type": "address"
						},
						{
							"internalType": "uint256",
							"name": "tokenId",
							"type": "uint256"
						}
					],
					"name": "transferFrom",
					"outputs": [],
					"stateMutability": "nonpayable",
					"type": "function"
				}
			],
			"devdoc": {
				"kind": "dev",
				"methods": {},
				"version": 1
			},
			"evm": {
				"assembly": "    /* \"contracts/MyNFT.sol\":9676:9887  contract MyNFT is ERC721 {... */\n  mstore(0x40, 0x80)\n  callvalue\n  dup1\n  iszero\n  tag_1\n  jumpi\n  revert(0x00, 0x00)\ntag_1:\n  pop\n  dataSize(sub_0)\n  dup1\n  dataOffset(sub_0)\n  0x00\n  codecopy\n  0x00\n  return\nstop\n\nsub_0: assembly {\n        /* \"contracts/MyNFT.sol\":9676:9887  contract MyNFT is ERC721 {... */\n      mstore(0x40, 0x80)\n      callvalue\n      dup1\n      iszero\n      tag_1\n      jumpi\n      revert(0x00, 0x00)\n    tag_1:\n      pop\n      jumpi(tag_2, lt(calldatasize, 0x04))\n      shr(0xe0, calldataload(0x00))\n      dup1\n      0x42966c68\n      gt\n      tag_15\n      jumpi\n      dup1\n      0x42966c68\n      eq\n      tag_9\n      jumpi\n      dup1\n      0x6352211e\n      eq\n      tag_10\n      jumpi\n      dup1\n      0x70a08231\n      eq\n      tag_11\n      jumpi\n      dup1\n      0xa22cb465\n      eq\n      tag_12\n      jumpi\n      dup1\n      0xb88d4fde\n      eq\n      tag_13\n      jumpi\n      dup1\n      0xe985e9c5\n      eq\n      tag_14\n      jumpi\n      jump(tag_2)\n    tag_15:\n      dup1\n      0x01ffc9a7\n      eq\n      tag_3\n      jumpi\n      dup1\n      0x081812fc\n      eq\n      tag_4\n      jumpi\n      dup1\n      0x095ea7b3\n      eq\n      tag_5\n      jumpi\n      dup1\n      0x23b872dd\n      eq\n      tag_6\n      jumpi\n      dup1\n      0x40c10f19\n      eq\n      tag_7\n      jumpi\n      dup1\n      0x42842e0e\n      eq\n      tag_8\n      jumpi\n    tag_2:\n      revert(0x00, 0x00)\n        /* \"contracts/MyNFT.sol\":3203:3404  function supportsInterface(bytes4 interfaceId) public view virtual override returns (bool) {... */\n    tag_3:\n      tag_16\n      0x04\n      dup1\n      calldatasize\n      sub\n      dup2\n      add\n      swap1\n      tag_17\n      swap2\n      swap1\n      tag_18\n      jump\t// in\n    tag_17:\n      tag_19\n      jump\t// in\n    tag_16:\n      mload(0x40)\n      tag_20\n      swap2\n      swap1\n      tag_21\n      jump\t// in\n    tag_20:\n      mload(0x40)\n      dup1\n      swap2\n      sub\n      swap1\n      return\n        /* \"contracts/MyNFT.sol\":5053:5272  function getApproved(uint256 tokenId) public view virtual override returns (address) {... */\n    tag_4:\n      tag_22\n      0x04\n      dup1\n      calldatasize\n      sub\n      dup2\n      add\n      swap1\n      tag_23\n      swap2\n      swap1\n      tag_24\n      jump\t// in\n    tag_23:\n      tag_25\n      jump\t// in\n    tag_22:\n      mload(0x40)\n      tag_26\n      swap2\n      swap1\n      tag_27\n      jump\t// in\n    tag_26:\n      mload(0x40)\n      dup1\n      swap2\n      sub\n      swap1\n      return\n        /* \"contracts/MyNFT.sol\":4583:4985  function approve(address to, uint256 tokenId) public virtual override {... */\n    tag_5:\n      tag_28\n      0x04\n      dup1\n      calldatasize\n      sub\n      dup2\n      add\n      swap1\n      tag_29\n      swap2\n      swap1\n      tag_30\n      jump\t// in\n    tag_29:\n      tag_31\n      jump\t// in\n    tag_28:\n      stop\n        /* \"contracts/MyNFT.sol\":6097:6347  function transferFrom(address from, address to, uint256 tokenId) public virtual override {... */\n    tag_6:\n      tag_32\n      0x04\n      dup1\n      calldatasize\n      sub\n      dup2\n      add\n      swap1\n      tag_33\n      swap2\n      swap1\n      tag_34\n      jump\t// in\n    tag_33:\n      tag_35\n      jump\t// in\n    tag_32:\n      stop\n        /* \"contracts/MyNFT.sol\":9708:9797  function mint(address to, uint256 tokenId) external {... */\n    tag_7:\n      tag_36\n      0x04\n      dup1\n      calldatasize\n      sub\n      dup2\n      add\n      swap1\n      tag_37\n      swap2\n      swap1\n      tag_30\n      jump\t// in\n    tag_37:\n      tag_38\n      jump\t// in\n    tag_36:\n      stop\n        /* \"contracts/MyNFT.sol\":6457:6608  function safeTransferFrom(address from, address to, uint256 tokenId) public virtual override {... */\n    tag_8:\n      tag_39\n      0x04\n      dup1\n      calldatasize\n      sub\n      dup2\n      add\n      swap1\n      tag_40\n      swap2\n      swap1\n      tag_34\n      jump\t// in\n    tag_40:\n      tag_41\n      jump\t// in\n    tag_39:\n      stop\n        /* \"contracts/MyNFT.sol\":9809:9882  function burn(uint256 tokenId) external {... */\n    tag_9:\n      tag_42\n      0x04\n      dup1\n      calldatasize\n      sub\n      dup2\n      add\n      swap1\n      tag_43\n      swap2\n      swap1\n      tag_24\n      jump\t// in\n    tag_43:\n      tag_44\n      jump\t// in\n    tag_42:\n      stop\n        /* \"contracts/MyNFT.sol\":3736:3975  function ownerOf(uint256 tokenId) public view virtual override returns (address) {... */\n    tag_10:\n      tag_45\n      0x04\n      dup1\n      calldatasize\n      sub\n      dup2\n      add\n      swap1\n      tag_46\n      swap2\n      swap1\n      tag_24\n      jump\t// in\n    tag_46:\n      tag_47\n      jump\t// in\n    tag_45:\n      mload(0x40)\n      tag_48\n      swap2\n      swap1\n      tag_27\n      jump\t// in\n    tag_48:\n      mload(0x40)\n      dup1\n      swap2\n      sub\n      swap1\n      return\n        /* \"contracts/MyNFT.sol\":3465:3673  function balanceOf(address owner) public view virtual override returns (uint256) {... */\n    tag_11:\n      tag_49\n      0x04\n      dup1\n      calldatasize\n      sub\n      dup2\n      add\n      swap1\n      tag_50\n      swap2\n      swap1\n      tag_51\n      jump\t// in\n    tag_50:\n      tag_52\n      jump\t// in\n    tag_49:\n      mload(0x40)\n      tag_53\n      swap2\n      swap1\n      tag_54\n      jump\t// in\n    tag_53:\n      mload(0x40)\n      dup1\n      swap2\n      sub\n      swap1\n      return\n        /* \"contracts/MyNFT.sol\":5403:5690  function setApprovalForAll(address operator, bool approved) public virtual override {... */\n    tag_12:\n      tag_55\n      0x04\n      dup1\n      calldatasize\n      sub\n      dup2\n      add\n      swap1\n      tag_56\n      swap2\n      swap1\n      tag_57\n      jump\t// in\n    tag_56:\n      tag_58\n      jump\t// in\n    tag_55:\n      stop\n        /* \"contracts/MyNFT.sol\":6620:6905  function safeTransferFrom(address from, address to, uint256 tokenId, bytes memory _data) public virtual override {... */\n    tag_13:\n      tag_59\n      0x04\n      dup1\n      calldatasize\n      sub\n      dup2\n      add\n      swap1\n      tag_60\n      swap2\n      swap1\n      tag_61\n      jump\t// in\n    tag_60:\n      tag_62\n      jump\t// in\n    tag_59:\n      stop\n        /* \"contracts/MyNFT.sol\":4040:4204  function isApprovedForAll(address owner, address operator) public view virtual override returns (bool) {... */\n    tag_14:\n      tag_63\n      0x04\n      dup1\n      calldatasize\n      sub\n      dup2\n      add\n      swap1\n      tag_64\n      swap2\n      swap1\n      tag_65\n      jump\t// in\n    tag_64:\n      tag_66\n      jump\t// in\n    tag_63:\n      mload(0x40)\n      tag_67\n      swap2\n      swap1\n      tag_21\n      jump\t// in\n    tag_67:\n      mload(0x40)\n      dup1\n      swap2\n      sub\n      swap1\n      return\n        /* \"contracts/MyNFT.sol\":3203:3404  function supportsInterface(bytes4 interfaceId) public view virtual override returns (bool) {... */\n    tag_19:\n        /* \"contracts/MyNFT.sol\":3288:3292  bool */\n      0x00\n        /* \"contracts/MyNFT.sol\":3327:3352  type(IERC721).interfaceId */\n      0x80ac58cd00000000000000000000000000000000000000000000000000000000\n        /* \"contracts/MyNFT.sol\":3312:3352  interfaceId == type(IERC721).interfaceId */\n      not(0xffffffffffffffffffffffffffffffffffffffffffffffffffffffff)\n      and\n        /* \"contracts/MyNFT.sol\":3312:3323  interfaceId */\n      dup3\n        /* \"contracts/MyNFT.sol\":3312:3352  interfaceId == type(IERC721).interfaceId */\n      not(0xffffffffffffffffffffffffffffffffffffffffffffffffffffffff)\n      and\n      eq\n        /* \"contracts/MyNFT.sol\":3312:3396  interfaceId == type(IERC721).interfaceId || interfaceId == type(IERC165).interfaceId */\n      dup1\n      tag_69\n      jumpi\n      pop\n        /* \"contracts/MyNFT.sol\":3371:3396  type(IERC165).interfaceId */\n      0x01ffc9a700000000000000000000000000000000000000000000000000000000\n        /* \"contracts/MyNFT.sol\":3356:3396  interfaceId == type(IERC165).interfaceId */\n      not(0xffffffffffffffffffffffffffffffffffffffffffffffffffffffff)\n      and\n        /* \"contracts/MyNFT.sol\":3356:3367  interfaceId */\n      dup3\n        /* \"contracts/MyNFT.sol\":3356:3396  interfaceId == type(IERC165).interfaceId */\n      not(0xffffffffffffffffffffffffffffffffffffffffffffffffffffffff)\n      and\n      eq\n        /* \"contracts/MyNFT.sol\":3312:3396  interfaceId == type(IERC721).interfaceId || interfaceId == type(IERC165).interfaceId */\n    tag_69:\n        /* \"contracts/MyNFT.sol\":3305:3396  return interfaceId == type(IERC721).interfaceId || interfaceId == type(IERC165).interfaceId */\n      swap1\n      pop\n        /* \"contracts/MyNFT.sol\":3203:3404  function supportsInterface(bytes4 interfaceId) public view virtual override returns (bool) {... */\n      swap2\n      swap1\n      pop\n      jump\t// out\n        /* \"contracts/MyNFT.sol\":5053:5272  function getApproved(uint256 tokenId) public view virtual override returns (address) {... */\n    tag_25:\n        /* \"contracts/MyNFT.sol\":5129:5136  address */\n      0x00\n        /* \"contracts/MyNFT.sol\":5157:5173  _exists(tokenId) */\n      tag_71\n        /* \"contracts/MyNFT.sol\":5165:5172  tokenId */\n      dup3\n        /* \"contracts/MyNFT.sol\":5157:5164  _exists */\n      tag_72\n        /* \"contracts/MyNFT.sol\":5157:5173  _exists(tokenId) */\n      jump\t// in\n    tag_71:\n        /* \"contracts/MyNFT.sol\":5149:5222  require(_exists(tokenId), \"ERC721: approved query for nonexistent token\") */\n      tag_73\n      jumpi\n      mload(0x40)\n      0x08c379a000000000000000000000000000000000000000000000000000000000\n      dup2\n      mstore\n      0x04\n      add\n      tag_74\n      swap1\n      tag_75\n      jump\t// in\n    tag_74:\n      mload(0x40)\n      dup1\n      swap2\n      sub\n      swap1\n      revert\n    tag_73:\n        /* \"contracts/MyNFT.sol\":5240:5255  _tokenApprovals */\n      0x02\n        /* \"contracts/MyNFT.sol\":5240:5264  _tokenApprovals[tokenId] */\n      0x00\n        /* \"contracts/MyNFT.sol\":5256:5263  tokenId */\n      dup4\n        /* \"contracts/MyNFT.sol\":5240:5264  _tokenApprovals[tokenId] */\n      dup2\n      mstore\n      0x20\n      add\n      swap1\n      dup2\n      mstore\n      0x20\n      add\n      0x00\n      keccak256\n      0x00\n      swap1\n      sload\n      swap1\n      0x0100\n      exp\n      swap1\n      div\n      0xffffffffffffffffffffffffffffffffffffffff\n      and\n        /* \"contracts/MyNFT.sol\":5233:5264  return _tokenApprovals[tokenId] */\n      swap1\n      pop\n        /* \"contracts/MyNFT.sol\":5053:5272  function getApproved(uint256 tokenId) public view virtual override returns (address) {... */\n      swap2\n      swap1\n      pop\n      jump\t// out\n        /* \"contracts/MyNFT.sol\":4583:4985  function approve(address to, uint256 tokenId) public virtual override {... */\n    tag_31:\n        /* \"contracts/MyNFT.sol\":4666:4679  address owner */\n      0x00\n        /* \"contracts/MyNFT.sol\":4682:4698  ownerOf(tokenId) */\n      tag_77\n        /* \"contracts/MyNFT.sol\":4690:4697  tokenId */\n      dup3\n        /* \"contracts/MyNFT.sol\":4682:4689  ownerOf */\n      tag_47\n        /* \"contracts/MyNFT.sol\":4682:4698  ownerOf(tokenId) */\n      jump\t// in\n    tag_77:\n        /* \"contracts/MyNFT.sol\":4666:4698  address owner = ownerOf(tokenId) */\n      swap1\n      pop\n        /* \"contracts/MyNFT.sol\":4723:4728  owner */\n      dup1\n        /* \"contracts/MyNFT.sol\":4717:4728  to != owner */\n      0xffffffffffffffffffffffffffffffffffffffff\n      and\n        /* \"contracts/MyNFT.sol\":4717:4719  to */\n      dup4\n        /* \"contracts/MyNFT.sol\":4717:4728  to != owner */\n      0xffffffffffffffffffffffffffffffffffffffff\n      and\n      sub\n        /* \"contracts/MyNFT.sol\":4709:4766  require(to != owner, \"ERC721: approval to current owner\") */\n      tag_78\n      jumpi\n      mload(0x40)\n      0x08c379a000000000000000000000000000000000000000000000000000000000\n      dup2\n      mstore\n      0x04\n      add\n      tag_79\n      swap1\n      tag_80\n      jump\t// in\n    tag_79:\n      mload(0x40)\n      dup1\n      swap2\n      sub\n      swap1\n      revert\n    tag_78:\n        /* \"contracts/MyNFT.sol\":4813:4818  owner */\n      dup1\n        /* \"contracts/MyNFT.sol\":4799:4818  msg.sender == owner */\n      0xffffffffffffffffffffffffffffffffffffffff\n      and\n        /* \"contracts/MyNFT.sol\":4799:4809  msg.sender */\n      caller\n        /* \"contracts/MyNFT.sol\":4799:4818  msg.sender == owner */\n      0xffffffffffffffffffffffffffffffffffffffff\n      and\n      eq\n        /* \"contracts/MyNFT.sol\":4799:4857  msg.sender == owner || isApprovedForAll(owner, msg.sender) */\n      dup1\n      tag_81\n      jumpi\n      pop\n        /* \"contracts/MyNFT.sol\":4822:4857  isApprovedForAll(owner, msg.sender) */\n      tag_82\n        /* \"contracts/MyNFT.sol\":4839:4844  owner */\n      dup2\n        /* \"contracts/MyNFT.sol\":4846:4856  msg.sender */\n      caller\n        /* \"contracts/MyNFT.sol\":4822:4838  isApprovedForAll */\n      tag_66\n        /* \"contracts/MyNFT.sol\":4822:4857  isApprovedForAll(owner, msg.sender) */\n      jump\t// in\n    tag_82:\n        /* \"contracts/MyNFT.sol\":4799:4857  msg.sender == owner || isApprovedForAll(owner, msg.sender) */\n    tag_81:\n        /* \"contracts/MyNFT.sol\":4777:4941  require(... */\n      tag_83\n      jumpi\n      mload(0x40)\n      0x08c379a000000000000000000000000000000000000000000000000000000000\n      dup2\n      mstore\n      0x04\n      add\n      tag_84\n      swap1\n      tag_85\n      jump\t// in\n    tag_84:\n      mload(0x40)\n      dup1\n      swap2\n      sub\n      swap1\n      revert\n    tag_83:\n        /* \"contracts/MyNFT.sol\":4954:4975  _approve(to, tokenId) */\n      tag_86\n        /* \"contracts/MyNFT.sol\":4963:4965  to */\n      dup4\n        /* \"contracts/MyNFT.sol\":4967:4974  tokenId */\n      dup4\n        /* \"contracts/MyNFT.sol\":4954:4962  _approve */\n      tag_87\n        /* \"contracts/MyNFT.sol\":4954:4975  _approve(to, tokenId) */\n      jump\t// in\n    tag_86:\n        /* \"contracts/MyNFT.sol\":4653:4985  {... */\n      pop\n        /* \"contracts/MyNFT.sol\":4583:4985  function approve(address to, uint256 tokenId) public virtual override {... */\n      pop\n      pop\n      jump\t// out\n        /* \"contracts/MyNFT.sol\":6097:6347  function transferFrom(address from, address to, uint256 tokenId) public virtual override {... */\n    tag_35:\n        /* \"contracts/MyNFT.sol\":6205:6244  _isApprovedOrOwner(msg.sender, tokenId) */\n      tag_89\n        /* \"contracts/MyNFT.sol\":6224:6234  msg.sender */\n      caller\n        /* \"contracts/MyNFT.sol\":6236:6243  tokenId */\n      dup3\n        /* \"contracts/MyNFT.sol\":6205:6223  _isApprovedOrOwner */\n      tag_90\n        /* \"contracts/MyNFT.sol\":6205:6244  _isApprovedOrOwner(msg.sender, tokenId) */\n      jump\t// in\n    tag_89:\n        /* \"contracts/MyNFT.sol\":6197:6298  require(_isApprovedOrOwner(msg.sender, tokenId), \"ERC721: transfer caller is not owner nor approved\") */\n      tag_91\n      jumpi\n      mload(0x40)\n      0x08c379a000000000000000000000000000000000000000000000000000000000\n      dup2\n      mstore\n      0x04\n      add\n      tag_92\n      swap1\n      tag_93\n      jump\t// in\n    tag_92:\n      mload(0x40)\n      dup1\n      swap2\n      sub\n      swap1\n      revert\n    tag_91:\n        /* \"contracts/MyNFT.sol\":6309:6337  _transfer(from, to, tokenId) */\n      tag_94\n        /* \"contracts/MyNFT.sol\":6319:6323  from */\n      dup4\n        /* \"contracts/MyNFT.sol\":6325:6327  to */\n      dup4\n        /* \"contracts/MyNFT.sol\":6329:6336  tokenId */\n      dup4\n        /* \"contracts/MyNFT.sol\":6309:6318  _transfer */\n      tag_95\n        /* \"contracts/MyNFT.sol\":6309:6337  _transfer(from, to, tokenId) */\n      jump\t// in\n    tag_94:\n        /* \"contracts/MyNFT.sol\":6097:6347  function transferFrom(address from, address to, uint256 tokenId) public virtual override {... */\n      pop\n      pop\n      pop\n      jump\t// out\n        /* \"contracts/MyNFT.sol\":9708:9797  function mint(address to, uint256 tokenId) external {... */\n    tag_38:\n        /* \"contracts/MyNFT.sol\":9771:9789  _mint(to, tokenId) */\n      tag_97\n        /* \"contracts/MyNFT.sol\":9777:9779  to */\n      dup3\n        /* \"contracts/MyNFT.sol\":9781:9788  tokenId */\n      dup3\n        /* \"contracts/MyNFT.sol\":9771:9776  _mint */\n      tag_98\n        /* \"contracts/MyNFT.sol\":9771:9789  _mint(to, tokenId) */\n      jump\t// in\n    tag_97:\n        /* \"contracts/MyNFT.sol\":9708:9797  function mint(address to, uint256 tokenId) external {... */\n      pop\n      pop\n      jump\t// out\n        /* \"contracts/MyNFT.sol\":6457:6608  function safeTransferFrom(address from, address to, uint256 tokenId) public virtual override {... */\n    tag_41:\n        /* \"contracts/MyNFT.sol\":6561:6600  safeTransferFrom(from, to, tokenId, \"\") */\n      tag_100\n        /* \"contracts/MyNFT.sol\":6578:6582  from */\n      dup4\n        /* \"contracts/MyNFT.sol\":6584:6586  to */\n      dup4\n        /* \"contracts/MyNFT.sol\":6588:6595  tokenId */\n      dup4\n        /* \"contracts/MyNFT.sol\":6561:6600  safeTransferFrom(from, to, tokenId, \"\") */\n      mload(0x40)\n      dup1\n      0x20\n      add\n      0x40\n      mstore\n      dup1\n      0x00\n      dup2\n      mstore\n      pop\n        /* \"contracts/MyNFT.sol\":6561:6577  safeTransferFrom */\n      tag_62\n        /* \"contracts/MyNFT.sol\":6561:6600  safeTransferFrom(from, to, tokenId, \"\") */\n      jump\t// in\n    tag_100:\n        /* \"contracts/MyNFT.sol\":6457:6608  function safeTransferFrom(address from, address to, uint256 tokenId) public virtual override {... */\n      pop\n      pop\n      pop\n      jump\t// out\n        /* \"contracts/MyNFT.sol\":9809:9882  function burn(uint256 tokenId) external {... */\n    tag_44:\n        /* \"contracts/MyNFT.sol\":9860:9874  _burn(tokenId) */\n      tag_102\n        /* \"contracts/MyNFT.sol\":9866:9873  tokenId */\n      dup2\n        /* \"contracts/MyNFT.sol\":9860:9865  _burn */\n      tag_103\n        /* \"contracts/MyNFT.sol\":9860:9874  _burn(tokenId) */\n      jump\t// in\n    tag_102:\n        /* \"contracts/MyNFT.sol\":9809:9882  function burn(uint256 tokenId) external {... */\n      pop\n      jump\t// out\n        /* \"contracts/MyNFT.sol\":3736:3975  function ownerOf(uint256 tokenId) public view virtual override returns (address) {... */\n    tag_47:\n        /* \"contracts/MyNFT.sol\":3808:3815  address */\n      0x00\n        /* \"contracts/MyNFT.sol\":3828:3841  address owner */\n      0x00\n        /* \"contracts/MyNFT.sol\":3844:3851  _owners */\n      0x00\n        /* \"contracts/MyNFT.sol\":3844:3860  _owners[tokenId] */\n      0x00\n        /* \"contracts/MyNFT.sol\":3852:3859  tokenId */\n      dup5\n        /* \"contracts/MyNFT.sol\":3844:3860  _owners[tokenId] */\n      dup2\n      mstore\n      0x20\n      add\n      swap1\n      dup2\n      mstore\n      0x20\n      add\n      0x00\n      keccak256\n      0x00\n      swap1\n      sload\n      swap1\n      0x0100\n      exp\n      swap1\n      div\n      0xffffffffffffffffffffffffffffffffffffffff\n      and\n        /* \"contracts/MyNFT.sol\":3828:3860  address owner = _owners[tokenId] */\n      swap1\n      pop\n        /* \"contracts/MyNFT.sol\":3896:3897  0 */\n      0x00\n        /* \"contracts/MyNFT.sol\":3879:3898  owner != address(0) */\n      0xffffffffffffffffffffffffffffffffffffffff\n      and\n        /* \"contracts/MyNFT.sol\":3879:3884  owner */\n      dup2\n        /* \"contracts/MyNFT.sol\":3879:3898  owner != address(0) */\n      0xffffffffffffffffffffffffffffffffffffffff\n      and\n      sub\n        /* \"contracts/MyNFT.sol\":3871:3944  require(owner != address(0), \"ERC721: owner query for nonexistent token\") */\n      tag_105\n      jumpi\n      mload(0x40)\n      0x08c379a000000000000000000000000000000000000000000000000000000000\n      dup2\n      mstore\n      0x04\n      add\n      tag_106\n      swap1\n      tag_107\n      jump\t// in\n    tag_106:\n      mload(0x40)\n      dup1\n      swap2\n      sub\n      swap1\n      revert\n    tag_105:\n        /* \"contracts/MyNFT.sol\":3962:3967  owner */\n      dup1\n        /* \"contracts/MyNFT.sol\":3955:3967  return owner */\n      swap2\n      pop\n      pop\n        /* \"contracts/MyNFT.sol\":3736:3975  function ownerOf(uint256 tokenId) public view virtual override returns (address) {... */\n      swap2\n      swap1\n      pop\n      jump\t// out\n        /* \"contracts/MyNFT.sol\":3465:3673  function balanceOf(address owner) public view virtual override returns (uint256) {... */\n    tag_52:\n        /* \"contracts/MyNFT.sol\":3537:3544  uint256 */\n      0x00\n        /* \"contracts/MyNFT.sol\":3582:3583  0 */\n      0x00\n        /* \"contracts/MyNFT.sol\":3565:3584  owner != address(0) */\n      0xffffffffffffffffffffffffffffffffffffffff\n      and\n        /* \"contracts/MyNFT.sol\":3565:3570  owner */\n      dup3\n        /* \"contracts/MyNFT.sol\":3565:3584  owner != address(0) */\n      0xffffffffffffffffffffffffffffffffffffffff\n      and\n      sub\n        /* \"contracts/MyNFT.sol\":3557:3631  require(owner != address(0), \"ERC721: balance query for the zero address\") */\n      tag_109\n      jumpi\n      mload(0x40)\n      0x08c379a000000000000000000000000000000000000000000000000000000000\n      dup2\n      mstore\n      0x04\n      add\n      tag_110\n      swap1\n      tag_111\n      jump\t// in\n    tag_110:\n      mload(0x40)\n      dup1\n      swap2\n      sub\n      swap1\n      revert\n    tag_109:\n        /* \"contracts/MyNFT.sol\":3649:3658  _balances */\n      0x01\n        /* \"contracts/MyNFT.sol\":3649:3665  _balances[owner] */\n      0x00\n        /* \"contracts/MyNFT.sol\":3659:3664  owner */\n      dup4\n        /* \"contracts/MyNFT.sol\":3649:3665  _balances[owner] */\n      0xffffffffffffffffffffffffffffffffffffffff\n      and\n      0xffffffffffffffffffffffffffffffffffffffff\n      and\n      dup2\n      mstore\n      0x20\n      add\n      swap1\n      dup2\n      mstore\n      0x20\n      add\n      0x00\n      keccak256\n      sload\n        /* \"contracts/MyNFT.sol\":3642:3665  return _balances[owner] */\n      swap1\n      pop\n        /* \"contracts/MyNFT.sol\":3465:3673  function balanceOf(address owner) public view virtual override returns (uint256) {... */\n      swap2\n      swap1\n      pop\n      jump\t// out\n        /* \"contracts/MyNFT.sol\":5403:5690  function setApprovalForAll(address operator, bool approved) public virtual override {... */\n    tag_58:\n        /* \"contracts/MyNFT.sol\":5518:5528  msg.sender */\n      caller\n        /* \"contracts/MyNFT.sol\":5506:5528  operator != msg.sender */\n      0xffffffffffffffffffffffffffffffffffffffff\n      and\n        /* \"contracts/MyNFT.sol\":5506:5514  operator */\n      dup3\n        /* \"contracts/MyNFT.sol\":5506:5528  operator != msg.sender */\n      0xffffffffffffffffffffffffffffffffffffffff\n      and\n      sub\n        /* \"contracts/MyNFT.sol\":5498:5558  require(operator != msg.sender, \"ERC721: approve to caller\") */\n      tag_113\n      jumpi\n      mload(0x40)\n      0x08c379a000000000000000000000000000000000000000000000000000000000\n      dup2\n      mstore\n      0x04\n      add\n      tag_114\n      swap1\n      tag_115\n      jump\t// in\n    tag_114:\n      mload(0x40)\n      dup1\n      swap2\n      sub\n      swap1\n      revert\n    tag_113:\n        /* \"contracts/MyNFT.sol\":5612:5620  approved */\n      dup1\n        /* \"contracts/MyNFT.sol\":5569:5587  _operatorApprovals */\n      0x03\n        /* \"contracts/MyNFT.sol\":5569:5599  _operatorApprovals[msg.sender] */\n      0x00\n        /* \"contracts/MyNFT.sol\":5588:5598  msg.sender */\n      caller\n        /* \"contracts/MyNFT.sol\":5569:5599  _operatorApprovals[msg.sender] */\n      0xffffffffffffffffffffffffffffffffffffffff\n      and\n      0xffffffffffffffffffffffffffffffffffffffff\n      and\n      dup2\n      mstore\n      0x20\n      add\n      swap1\n      dup2\n      mstore\n      0x20\n      add\n      0x00\n      keccak256\n        /* \"contracts/MyNFT.sol\":5569:5609  _operatorApprovals[msg.sender][operator] */\n      0x00\n        /* \"contracts/MyNFT.sol\":5600:5608  operator */\n      dup5\n        /* \"contracts/MyNFT.sol\":5569:5609  _operatorApprovals[msg.sender][operator] */\n      0xffffffffffffffffffffffffffffffffffffffff\n      and\n      0xffffffffffffffffffffffffffffffffffffffff\n      and\n      dup2\n      mstore\n      0x20\n      add\n      swap1\n      dup2\n      mstore\n      0x20\n      add\n      0x00\n      keccak256\n      0x00\n        /* \"contracts/MyNFT.sol\":5569:5620  _operatorApprovals[msg.sender][operator] = approved */\n      0x0100\n      exp\n      dup2\n      sload\n      dup2\n      0xff\n      mul\n      not\n      and\n      swap1\n      dup4\n      iszero\n      iszero\n      mul\n      or\n      swap1\n      sstore\n      pop\n        /* \"contracts/MyNFT.sol\":5663:5671  operator */\n      dup2\n        /* \"contracts/MyNFT.sol\":5636:5682  ApprovalForAll(msg.sender, operator, approved) */\n      0xffffffffffffffffffffffffffffffffffffffff\n      and\n        /* \"contracts/MyNFT.sol\":5651:5661  msg.sender */\n      caller\n        /* \"contracts/MyNFT.sol\":5636:5682  ApprovalForAll(msg.sender, operator, approved) */\n      0xffffffffffffffffffffffffffffffffffffffff\n      and\n      0x17307eab39ab6107e8899845ad3d59bd9653f200f220920489ca2b5937696c31\n        /* \"contracts/MyNFT.sol\":5673:5681  approved */\n      dup4\n        /* \"contracts/MyNFT.sol\":5636:5682  ApprovalForAll(msg.sender, operator, approved) */\n      mload(0x40)\n      tag_116\n      swap2\n      swap1\n      tag_21\n      jump\t// in\n    tag_116:\n      mload(0x40)\n      dup1\n      swap2\n      sub\n      swap1\n      log3\n        /* \"contracts/MyNFT.sol\":5403:5690  function setApprovalForAll(address operator, bool approved) public virtual override {... */\n      pop\n      pop\n      jump\t// out\n        /* \"contracts/MyNFT.sol\":6620:6905  function safeTransferFrom(address from, address to, uint256 tokenId, bytes memory _data) public virtual override {... */\n    tag_62:\n        /* \"contracts/MyNFT.sol\":6752:6791  _isApprovedOrOwner(msg.sender, tokenId) */\n      tag_118\n        /* \"contracts/MyNFT.sol\":6771:6781  msg.sender */\n      caller\n        /* \"contracts/MyNFT.sol\":6783:6790  tokenId */\n      dup4\n        /* \"contracts/MyNFT.sol\":6752:6770  _isApprovedOrOwner */\n      tag_90\n        /* \"contracts/MyNFT.sol\":6752:6791  _isApprovedOrOwner(msg.sender, tokenId) */\n      jump\t// in\n    tag_118:\n        /* \"contracts/MyNFT.sol\":6744:6845  require(_isApprovedOrOwner(msg.sender, tokenId), \"ERC721: transfer caller is not owner nor approved\") */\n      tag_119\n      jumpi\n      mload(0x40)\n      0x08c379a000000000000000000000000000000000000000000000000000000000\n      dup2\n      mstore\n      0x04\n      add\n      tag_120\n      swap1\n      tag_93\n      jump\t// in\n    tag_120:\n      mload(0x40)\n      dup1\n      swap2\n      sub\n      swap1\n      revert\n    tag_119:\n        /* \"contracts/MyNFT.sol\":6856:6895  _safeTransfer(from, to, tokenId, _data) */\n      tag_121\n        /* \"contracts/MyNFT.sol\":6870:6874  from */\n      dup5\n        /* \"contracts/MyNFT.sol\":6876:6878  to */\n      dup5\n        /* \"contracts/MyNFT.sol\":6880:6887  tokenId */\n      dup5\n        /* \"contracts/MyNFT.sol\":6889:6894  _data */\n      dup5\n        /* \"contracts/MyNFT.sol\":6856:6869  _safeTransfer */\n      tag_122\n        /* \"contracts/MyNFT.sol\":6856:6895  _safeTransfer(from, to, tokenId, _data) */\n      jump\t// in\n    tag_121:\n        /* \"contracts/MyNFT.sol\":6620:6905  function safeTransferFrom(address from, address to, uint256 tokenId, bytes memory _data) public virtual override {... */\n      pop\n      pop\n      pop\n      pop\n      jump\t// out\n        /* \"contracts/MyNFT.sol\":4040:4204  function isApprovedForAll(address owner, address operator) public view virtual override returns (bool) {... */\n    tag_66:\n        /* \"contracts/MyNFT.sol\":4137:4141  bool */\n      0x00\n        /* \"contracts/MyNFT.sol\":4161:4179  _operatorApprovals */\n      0x03\n        /* \"contracts/MyNFT.sol\":4161:4186  _operatorApprovals[owner] */\n      0x00\n        /* \"contracts/MyNFT.sol\":4180:4185  owner */\n      dup5\n        /* \"contracts/MyNFT.sol\":4161:4186  _operatorApprovals[owner] */\n      0xffffffffffffffffffffffffffffffffffffffff\n      and\n      0xffffffffffffffffffffffffffffffffffffffff\n      and\n      dup2\n      mstore\n      0x20\n      add\n      swap1\n      dup2\n      mstore\n      0x20\n      add\n      0x00\n      keccak256\n        /* \"contracts/MyNFT.sol\":4161:4196  _operatorApprovals[owner][operator] */\n      0x00\n        /* \"contracts/MyNFT.sol\":4187:4195  operator */\n      dup4\n        /* \"contracts/MyNFT.sol\":4161:4196  _operatorApprovals[owner][operator] */\n      0xffffffffffffffffffffffffffffffffffffffff\n      and\n      0xffffffffffffffffffffffffffffffffffffffff\n      and\n      dup2\n      mstore\n      0x20\n      add\n      swap1\n      dup2\n      mstore\n      0x20\n      add\n      0x00\n      keccak256\n      0x00\n      swap1\n      sload\n      swap1\n      0x0100\n      exp\n      swap1\n      div\n      0xff\n      and\n        /* \"contracts/MyNFT.sol\":4154:4196  return _operatorApprovals[owner][operator] */\n      swap1\n      pop\n        /* \"contracts/MyNFT.sol\":4040:4204  function isApprovedForAll(address owner, address operator) public view virtual override returns (bool) {... */\n      swap3\n      swap2\n      pop\n      pop\n      jump\t// out\n        /* \"contracts/MyNFT.sol\":4393:4520  function _exists(uint256 tokenId) internal view virtual returns (bool) {... */\n    tag_72:\n        /* \"contracts/MyNFT.sol\":4458:4462  bool */\n      0x00\n        /* \"contracts/MyNFT.sol\":4510:4511  0 */\n      0x00\n        /* \"contracts/MyNFT.sol\":4482:4512  _owners[tokenId] != address(0) */\n      0xffffffffffffffffffffffffffffffffffffffff\n      and\n        /* \"contracts/MyNFT.sol\":4482:4489  _owners */\n      0x00\n        /* \"contracts/MyNFT.sol\":4482:4498  _owners[tokenId] */\n      0x00\n        /* \"contracts/MyNFT.sol\":4490:4497  tokenId */\n      dup5\n        /* \"contracts/MyNFT.sol\":4482:4498  _owners[tokenId] */\n      dup2\n      mstore\n      0x20\n      add\n      swap1\n      dup2\n      mstore\n      0x20\n      add\n      0x00\n      keccak256\n      0x00\n      swap1\n      sload\n      swap1\n      0x0100\n      exp\n      swap1\n      div\n      0xffffffffffffffffffffffffffffffffffffffff\n      and\n        /* \"contracts/MyNFT.sol\":4482:4512  _owners[tokenId] != address(0) */\n      0xffffffffffffffffffffffffffffffffffffffff\n      and\n      eq\n      iszero\n        /* \"contracts/MyNFT.sol\":4475:4512  return _owners[tokenId] != address(0) */\n      swap1\n      pop\n        /* \"contracts/MyNFT.sol\":4393:4520  function _exists(uint256 tokenId) internal view virtual returns (bool) {... */\n      swap2\n      swap1\n      pop\n      jump\t// out\n        /* \"contracts/MyNFT.sol\":4214:4383  function _approve(address to, uint256 tokenId) internal virtual {... */\n    tag_87:\n        /* \"contracts/MyNFT.sol\":4316:4318  to */\n      dup2\n        /* \"contracts/MyNFT.sol\":4289:4304  _tokenApprovals */\n      0x02\n        /* \"contracts/MyNFT.sol\":4289:4313  _tokenApprovals[tokenId] */\n      0x00\n        /* \"contracts/MyNFT.sol\":4305:4312  tokenId */\n      dup4\n        /* \"contracts/MyNFT.sol\":4289:4313  _tokenApprovals[tokenId] */\n      dup2\n      mstore\n      0x20\n      add\n      swap1\n      dup2\n      mstore\n      0x20\n      add\n      0x00\n      keccak256\n      0x00\n        /* \"contracts/MyNFT.sol\":4289:4318  _tokenApprovals[tokenId] = to */\n      0x0100\n      exp\n      dup2\n      sload\n      dup2\n      0xffffffffffffffffffffffffffffffffffffffff\n      mul\n      not\n      and\n      swap1\n      dup4\n      0xffffffffffffffffffffffffffffffffffffffff\n      and\n      mul\n      or\n      swap1\n      sstore\n      pop\n        /* \"contracts/MyNFT.sol\":4365:4372  tokenId */\n      dup1\n        /* \"contracts/MyNFT.sol\":4361:4363  to */\n      dup3\n        /* \"contracts/MyNFT.sol\":4334:4373  Approval(ownerOf(tokenId), to, tokenId) */\n      0xffffffffffffffffffffffffffffffffffffffff\n      and\n        /* \"contracts/MyNFT.sol\":4343:4359  ownerOf(tokenId) */\n      tag_126\n        /* \"contracts/MyNFT.sol\":4351:4358  tokenId */\n      dup4\n        /* \"contracts/MyNFT.sol\":4343:4350  ownerOf */\n      tag_47\n        /* \"contracts/MyNFT.sol\":4343:4359  ownerOf(tokenId) */\n      jump\t// in\n    tag_126:\n        /* \"contracts/MyNFT.sol\":4334:4373  Approval(ownerOf(tokenId), to, tokenId) */\n      0xffffffffffffffffffffffffffffffffffffffff\n      and\n      0x8c5be1e5ebec7d5bd14f71427d1e84f3dd0314c0f7b2291e5b200ac8c7c3b925\n      mload(0x40)\n      mload(0x40)\n      dup1\n      swap2\n      sub\n      swap1\n      log4\n        /* \"contracts/MyNFT.sol\":4214:4383  function _approve(address to, uint256 tokenId) internal virtual {... */\n      pop\n      pop\n      jump\t// out\n        /* \"contracts/MyNFT.sol\":5700:6043  function _isApprovedOrOwner(address spender, uint256 tokenId) internal view virtual returns (bool) {... */\n    tag_90:\n        /* \"contracts/MyNFT.sol\":5793:5797  bool */\n      0x00\n        /* \"contracts/MyNFT.sol\":5818:5834  _exists(tokenId) */\n      tag_128\n        /* \"contracts/MyNFT.sol\":5826:5833  tokenId */\n      dup3\n        /* \"contracts/MyNFT.sol\":5818:5825  _exists */\n      tag_72\n        /* \"contracts/MyNFT.sol\":5818:5834  _exists(tokenId) */\n      jump\t// in\n    tag_128:\n        /* \"contracts/MyNFT.sol\":5810:5883  require(_exists(tokenId), \"ERC721: operator query for nonexistent token\") */\n      tag_129\n      jumpi\n      mload(0x40)\n      0x08c379a000000000000000000000000000000000000000000000000000000000\n      dup2\n      mstore\n      0x04\n      add\n      tag_130\n      swap1\n      tag_131\n      jump\t// in\n    tag_130:\n      mload(0x40)\n      dup1\n      swap2\n      sub\n      swap1\n      revert\n    tag_129:\n        /* \"contracts/MyNFT.sol\":5894:5907  address owner */\n      0x00\n        /* \"contracts/MyNFT.sol\":5910:5926  ownerOf(tokenId) */\n      tag_132\n        /* \"contracts/MyNFT.sol\":5918:5925  tokenId */\n      dup4\n        /* \"contracts/MyNFT.sol\":5910:5917  ownerOf */\n      tag_47\n        /* \"contracts/MyNFT.sol\":5910:5926  ownerOf(tokenId) */\n      jump\t// in\n    tag_132:\n        /* \"contracts/MyNFT.sol\":5894:5926  address owner = ownerOf(tokenId) */\n      swap1\n      pop\n        /* \"contracts/MyNFT.sol\":5956:5961  owner */\n      dup1\n        /* \"contracts/MyNFT.sol\":5945:5961  spender == owner */\n      0xffffffffffffffffffffffffffffffffffffffff\n      and\n        /* \"contracts/MyNFT.sol\":5945:5952  spender */\n      dup5\n        /* \"contracts/MyNFT.sol\":5945:5961  spender == owner */\n      0xffffffffffffffffffffffffffffffffffffffff\n      and\n      eq\n        /* \"contracts/MyNFT.sol\":5945:5996  spender == owner || getApproved(tokenId) == spender */\n      dup1\n      tag_133\n      jumpi\n      pop\n        /* \"contracts/MyNFT.sol\":5989:5996  spender */\n      dup4\n        /* \"contracts/MyNFT.sol\":5965:5996  getApproved(tokenId) == spender */\n      0xffffffffffffffffffffffffffffffffffffffff\n      and\n        /* \"contracts/MyNFT.sol\":5965:5985  getApproved(tokenId) */\n      tag_134\n        /* \"contracts/MyNFT.sol\":5977:5984  tokenId */\n      dup5\n        /* \"contracts/MyNFT.sol\":5965:5976  getApproved */\n      tag_25\n        /* \"contracts/MyNFT.sol\":5965:5985  getApproved(tokenId) */\n      jump\t// in\n    tag_134:\n        /* \"contracts/MyNFT.sol\":5965:5996  getApproved(tokenId) == spender */\n      0xffffffffffffffffffffffffffffffffffffffff\n      and\n      eq\n        /* \"contracts/MyNFT.sol\":5945:5996  spender == owner || getApproved(tokenId) == spender */\n    tag_133:\n        /* \"contracts/MyNFT.sol\":5945:6032  spender == owner || getApproved(tokenId) == spender || isApprovedForAll(owner, spender) */\n      dup1\n      tag_135\n      jumpi\n      pop\n        /* \"contracts/MyNFT.sol\":6000:6032  isApprovedForAll(owner, spender) */\n      tag_136\n        /* \"contracts/MyNFT.sol\":6017:6022  owner */\n      dup2\n        /* \"contracts/MyNFT.sol\":6024:6031  spender */\n      dup6\n        /* \"contracts/MyNFT.sol\":6000:6016  isApprovedForAll */\n      tag_66\n        /* \"contracts/MyNFT.sol\":6000:6032  isApprovedForAll(owner, spender) */\n      jump\t// in\n    tag_136:\n        /* \"contracts/MyNFT.sol\":5945:6032  spender == owner || getApproved(tokenId) == spender || isApprovedForAll(owner, spender) */\n    tag_135:\n        /* \"contracts/MyNFT.sol\":5937:6033  return (spender == owner || getApproved(tokenId) == spender || isApprovedForAll(owner, spender)) */\n      swap2\n      pop\n      pop\n        /* \"contracts/MyNFT.sol\":5700:6043  function _isApprovedOrOwner(address spender, uint256 tokenId) internal view virtual returns (bool) {... */\n      swap3\n      swap2\n      pop\n      pop\n      jump\t// out\n        /* \"contracts/MyNFT.sol\":7257:8184  function _transfer(address from, address to, uint256 tokenId) internal virtual {... */\n    tag_95:\n        /* \"contracts/MyNFT.sol\":7468:7472  from */\n      dup3\n        /* \"contracts/MyNFT.sol\":7448:7472  ownerOf(tokenId) == from */\n      0xffffffffffffffffffffffffffffffffffffffff\n      and\n        /* \"contracts/MyNFT.sol\":7448:7464  ownerOf(tokenId) */\n      tag_138\n        /* \"contracts/MyNFT.sol\":7456:7463  tokenId */\n      dup3\n        /* \"contracts/MyNFT.sol\":7448:7455  ownerOf */\n      tag_47\n        /* \"contracts/MyNFT.sol\":7448:7464  ownerOf(tokenId) */\n      jump\t// in\n    tag_138:\n        /* \"contracts/MyNFT.sol\":7448:7472  ownerOf(tokenId) == from */\n      0xffffffffffffffffffffffffffffffffffffffff\n      and\n      eq\n        /* \"contracts/MyNFT.sol\":7440:7518  require(ownerOf(tokenId) == from, \"ERC721: transfer of token that is not own\") */\n      tag_139\n      jumpi\n      mload(0x40)\n      0x08c379a000000000000000000000000000000000000000000000000000000000\n      dup2\n      mstore\n      0x04\n      add\n      tag_140\n      swap1\n      tag_141\n      jump\t// in\n    tag_140:\n      mload(0x40)\n      dup1\n      swap2\n      sub\n      swap1\n      revert\n    tag_139:\n        /* \"contracts/MyNFT.sol\":7622:7623  0 */\n      0x00\n        /* \"contracts/MyNFT.sol\":7608:7624  to != address(0) */\n      0xffffffffffffffffffffffffffffffffffffffff\n      and\n        /* \"contracts/MyNFT.sol\":7608:7610  to */\n      dup3\n        /* \"contracts/MyNFT.sol\":7608:7624  to != address(0) */\n      0xffffffffffffffffffffffffffffffffffffffff\n      and\n      sub\n        /* \"contracts/MyNFT.sol\":7600:7665  require(to != address(0), \"ERC721: transfer to the zero address\") */\n      tag_142\n      jumpi\n      mload(0x40)\n      0x08c379a000000000000000000000000000000000000000000000000000000000\n      dup2\n      mstore\n      0x04\n      add\n      tag_143\n      swap1\n      tag_144\n      jump\t// in\n    tag_143:\n      mload(0x40)\n      dup1\n      swap2\n      sub\n      swap1\n      revert\n    tag_142:\n        /* \"contracts/MyNFT.sol\":7752:7781  _approve(address(0), tokenId) */\n      tag_145\n        /* \"contracts/MyNFT.sol\":7769:7770  0 */\n      0x00\n        /* \"contracts/MyNFT.sol\":7773:7780  tokenId */\n      dup3\n        /* \"contracts/MyNFT.sol\":7752:7760  _approve */\n      tag_87\n        /* \"contracts/MyNFT.sol\":7752:7781  _approve(address(0), tokenId) */\n      jump\t// in\n    tag_145:\n        /* \"contracts/MyNFT.sol\":7854:7855  1 */\n      0x01\n        /* \"contracts/MyNFT.sol\":7835:7844  _balances */\n      dup1\n        /* \"contracts/MyNFT.sol\":7835:7850  _balances[from] */\n      0x00\n        /* \"contracts/MyNFT.sol\":7845:7849  from */\n      dup6\n        /* \"contracts/MyNFT.sol\":7835:7850  _balances[from] */\n      0xffffffffffffffffffffffffffffffffffffffff\n      and\n      0xffffffffffffffffffffffffffffffffffffffff\n      and\n      dup2\n      mstore\n      0x20\n      add\n      swap1\n      dup2\n      mstore\n      0x20\n      add\n      0x00\n      keccak256\n      0x00\n        /* \"contracts/MyNFT.sol\":7835:7855  _balances[from] -= 1 */\n      dup3\n      dup3\n      sload\n      tag_146\n      swap2\n      swap1\n      tag_147\n      jump\t// in\n    tag_146:\n      swap3\n      pop\n      pop\n      dup2\n      swap1\n      sstore\n      pop\n        /* \"contracts/MyNFT.sol\":7927:7928  1 */\n      0x01\n        /* \"contracts/MyNFT.sol\":7910:7919  _balances */\n      dup1\n        /* \"contracts/MyNFT.sol\":7910:7923  _balances[to] */\n      0x00\n        /* \"contracts/MyNFT.sol\":7920:7922  to */\n      dup5\n        /* \"contracts/MyNFT.sol\":7910:7923  _balances[to] */\n      0xffffffffffffffffffffffffffffffffffffffff\n      and\n      0xffffffffffffffffffffffffffffffffffffffff\n      and\n      dup2\n      mstore\n      0x20\n      add\n      swap1\n      dup2\n      mstore\n      0x20\n      add\n      0x00\n      keccak256\n      0x00\n        /* \"contracts/MyNFT.sol\":7910:7928  _balances[to] += 1 */\n      dup3\n      dup3\n      sload\n      tag_148\n      swap2\n      swap1\n      tag_149\n      jump\t// in\n    tag_148:\n      swap3\n      pop\n      pop\n      dup2\n      swap1\n      sstore\n      pop\n        /* \"contracts/MyNFT.sol\":7998:8000  to */\n      dup2\n        /* \"contracts/MyNFT.sol\":7979:7986  _owners */\n      0x00\n        /* \"contracts/MyNFT.sol\":7979:7995  _owners[tokenId] */\n      0x00\n        /* \"contracts/MyNFT.sol\":7987:7994  tokenId */\n      dup4\n        /* \"contracts/MyNFT.sol\":7979:7995  _owners[tokenId] */\n      dup2\n      mstore\n      0x20\n      add\n      swap1\n      dup2\n      mstore\n      0x20\n      add\n      0x00\n      keccak256\n      0x00\n        /* \"contracts/MyNFT.sol\":7979:8000  _owners[tokenId] = to */\n      0x0100\n      exp\n      dup2\n      sload\n      dup2\n      0xffffffffffffffffffffffffffffffffffffffff\n      mul\n      not\n      and\n      swap1\n      dup4\n      0xffffffffffffffffffffffffffffffffffffffff\n      and\n      mul\n      or\n      swap1\n      sstore\n      pop\n        /* \"contracts/MyNFT.sol\":8168:8175  tokenId */\n      dup1\n        /* \"contracts/MyNFT.sol\":8164:8166  to */\n      dup3\n        /* \"contracts/MyNFT.sol\":8149:8176  Transfer(from, to, tokenId) */\n      0xffffffffffffffffffffffffffffffffffffffff\n      and\n        /* \"contracts/MyNFT.sol\":8158:8162  from */\n      dup5\n        /* \"contracts/MyNFT.sol\":8149:8176  Transfer(from, to, tokenId) */\n      0xffffffffffffffffffffffffffffffffffffffff\n      and\n      0xddf252ad1be2c89b69c2b068fc378daa952ba7f163c4a11628f55a4df523b3ef\n      mload(0x40)\n      mload(0x40)\n      dup1\n      swap2\n      sub\n      swap1\n      log4\n        /* \"contracts/MyNFT.sol\":7257:8184  function _transfer(address from, address to, uint256 tokenId) internal virtual {... */\n      pop\n      pop\n      pop\n      jump\t// out\n        /* \"contracts/MyNFT.sol\":8996:9305  function _mint(address to, uint tokenId) internal {... */\n    tag_98:\n        /* \"contracts/MyNFT.sol\":9079:9080  0 */\n      0x00\n        /* \"contracts/MyNFT.sol\":9065:9081  to != address(0) */\n      0xffffffffffffffffffffffffffffffffffffffff\n      and\n        /* \"contracts/MyNFT.sol\":9065:9067  to */\n      dup3\n        /* \"contracts/MyNFT.sol\":9065:9081  to != address(0) */\n      0xffffffffffffffffffffffffffffffffffffffff\n      and\n      sub\n        /* \"contracts/MyNFT.sol\":9057:9118  require(to != address(0), \"ERC721: mint to the zero address\") */\n      tag_151\n      jumpi\n      mload(0x40)\n      0x08c379a000000000000000000000000000000000000000000000000000000000\n      dup2\n      mstore\n      0x04\n      add\n      tag_152\n      swap1\n      tag_153\n      jump\t// in\n    tag_152:\n      mload(0x40)\n      dup1\n      swap2\n      sub\n      swap1\n      revert\n    tag_151:\n        /* \"contracts/MyNFT.sol\":9138:9154  _exists(tokenId) */\n      tag_154\n        /* \"contracts/MyNFT.sol\":9146:9153  tokenId */\n      dup2\n        /* \"contracts/MyNFT.sol\":9138:9145  _exists */\n      tag_72\n        /* \"contracts/MyNFT.sol\":9138:9154  _exists(tokenId) */\n      jump\t// in\n    tag_154:\n        /* \"contracts/MyNFT.sol\":9137:9154  !_exists(tokenId) */\n      iszero\n        /* \"contracts/MyNFT.sol\":9129:9187  require(!_exists(tokenId), \"ERC721: token already minted\") */\n      tag_155\n      jumpi\n      mload(0x40)\n      0x08c379a000000000000000000000000000000000000000000000000000000000\n      dup2\n      mstore\n      0x04\n      add\n      tag_156\n      swap1\n      tag_157\n      jump\t// in\n    tag_156:\n      mload(0x40)\n      dup1\n      swap2\n      sub\n      swap1\n      revert\n    tag_155:\n        /* \"contracts/MyNFT.sol\":9215:9216  1 */\n      0x01\n        /* \"contracts/MyNFT.sol\":9198:9207  _balances */\n      dup1\n        /* \"contracts/MyNFT.sol\":9198:9211  _balances[to] */\n      0x00\n        /* \"contracts/MyNFT.sol\":9208:9210  to */\n      dup5\n        /* \"contracts/MyNFT.sol\":9198:9211  _balances[to] */\n      0xffffffffffffffffffffffffffffffffffffffff\n      and\n      0xffffffffffffffffffffffffffffffffffffffff\n      and\n      dup2\n      mstore\n      0x20\n      add\n      swap1\n      dup2\n      mstore\n      0x20\n      add\n      0x00\n      keccak256\n      0x00\n        /* \"contracts/MyNFT.sol\":9198:9216  _balances[to] += 1 */\n      dup3\n      dup3\n      sload\n      tag_158\n      swap2\n      swap1\n      tag_149\n      jump\t// in\n    tag_158:\n      swap3\n      pop\n      pop\n      dup2\n      swap1\n      sstore\n      pop\n        /* \"contracts/MyNFT.sol\":9246:9248  to */\n      dup2\n        /* \"contracts/MyNFT.sol\":9227:9234  _owners */\n      0x00\n        /* \"contracts/MyNFT.sol\":9227:9243  _owners[tokenId] */\n      0x00\n        /* \"contracts/MyNFT.sol\":9235:9242  tokenId */\n      dup4\n        /* \"contracts/MyNFT.sol\":9227:9243  _owners[tokenId] */\n      dup2\n      mstore\n      0x20\n      add\n      swap1\n      dup2\n      mstore\n      0x20\n      add\n      0x00\n      keccak256\n      0x00\n        /* \"contracts/MyNFT.sol\":9227:9248  _owners[tokenId] = to */\n      0x0100\n      exp\n      dup2\n      sload\n      dup2\n      0xffffffffffffffffffffffffffffffffffffffff\n      mul\n      not\n      and\n      swap1\n      dup4\n      0xffffffffffffffffffffffffffffffffffffffff\n      and\n      mul\n      or\n      swap1\n      sstore\n      pop\n        /* \"contracts/MyNFT.sol\":9289:9296  tokenId */\n      dup1\n        /* \"contracts/MyNFT.sol\":9285:9287  to */\n      dup3\n        /* \"contracts/MyNFT.sol\":9264:9297  Transfer(address(0), to, tokenId) */\n      0xffffffffffffffffffffffffffffffffffffffff\n      and\n        /* \"contracts/MyNFT.sol\":9281:9282  0 */\n      0x00\n        /* \"contracts/MyNFT.sol\":9264:9297  Transfer(address(0), to, tokenId) */\n      0xffffffffffffffffffffffffffffffffffffffff\n      and\n      0xddf252ad1be2c89b69c2b068fc378daa952ba7f163c4a11628f55a4df523b3ef\n      mload(0x40)\n      mload(0x40)\n      dup1\n      swap2\n      sub\n      swap1\n      log4\n        /* \"contracts/MyNFT.sol\":8996:9305  function _mint(address to, uint tokenId) internal {... */\n      pop\n      pop\n      jump\t// out\n        /* \"contracts/MyNFT.sol\":9336:9663  function _burn(uint tokenId) internal {... */\n    tag_103:\n        /* \"contracts/MyNFT.sol\":9385:9398  address owner */\n      0x00\n        /* \"contracts/MyNFT.sol\":9401:9417  ownerOf(tokenId) */\n      tag_160\n        /* \"contracts/MyNFT.sol\":9409:9416  tokenId */\n      dup3\n        /* \"contracts/MyNFT.sol\":9401:9408  ownerOf */\n      tag_47\n        /* \"contracts/MyNFT.sol\":9401:9417  ownerOf(tokenId) */\n      jump\t// in\n    tag_160:\n        /* \"contracts/MyNFT.sol\":9385:9417  address owner = ownerOf(tokenId) */\n      swap1\n      pop\n        /* \"contracts/MyNFT.sol\":9450:9455  owner */\n      dup1\n        /* \"contracts/MyNFT.sol\":9436:9455  msg.sender == owner */\n      0xffffffffffffffffffffffffffffffffffffffff\n      and\n        /* \"contracts/MyNFT.sol\":9436:9446  msg.sender */\n      caller\n        /* \"contracts/MyNFT.sol\":9436:9455  msg.sender == owner */\n      0xffffffffffffffffffffffffffffffffffffffff\n      and\n      eq\n        /* \"contracts/MyNFT.sol\":9428:9497  require(msg.sender == owner, \"ERC721: burn of token that is not own\") */\n      tag_161\n      jumpi\n      mload(0x40)\n      0x08c379a000000000000000000000000000000000000000000000000000000000\n      dup2\n      mstore\n      0x04\n      add\n      tag_162\n      swap1\n      tag_163\n      jump\t// in\n    tag_162:\n      mload(0x40)\n      dup1\n      swap2\n      sub\n      swap1\n      revert\n    tag_161:\n        /* \"contracts/MyNFT.sol\":9508:9537  _approve(address(0), tokenId) */\n      tag_164\n        /* \"contracts/MyNFT.sol\":9525:9526  0 */\n      0x00\n        /* \"contracts/MyNFT.sol\":9529:9536  tokenId */\n      dup4\n        /* \"contracts/MyNFT.sol\":9508:9516  _approve */\n      tag_87\n        /* \"contracts/MyNFT.sol\":9508:9537  _approve(address(0), tokenId) */\n      jump\t// in\n    tag_164:\n        /* \"contracts/MyNFT.sol\":9568:9569  1 */\n      0x01\n        /* \"contracts/MyNFT.sol\":9548:9557  _balances */\n      dup1\n        /* \"contracts/MyNFT.sol\":9548:9564  _balances[owner] */\n      0x00\n        /* \"contracts/MyNFT.sol\":9558:9563  owner */\n      dup4\n        /* \"contracts/MyNFT.sol\":9548:9564  _balances[owner] */\n      0xffffffffffffffffffffffffffffffffffffffff\n      and\n      0xffffffffffffffffffffffffffffffffffffffff\n      and\n      dup2\n      mstore\n      0x20\n      add\n      swap1\n      dup2\n      mstore\n      0x20\n      add\n      0x00\n      keccak256\n      0x00\n        /* \"contracts/MyNFT.sol\":9548:9569  _balances[owner] -= 1 */\n      dup3\n      dup3\n      sload\n      tag_165\n      swap2\n      swap1\n      tag_147\n      jump\t// in\n    tag_165:\n      swap3\n      pop\n      pop\n      dup2\n      swap1\n      sstore\n      pop\n        /* \"contracts/MyNFT.sol\":9587:9594  _owners */\n      0x00\n        /* \"contracts/MyNFT.sol\":9587:9603  _owners[tokenId] */\n      0x00\n        /* \"contracts/MyNFT.sol\":9595:9602  tokenId */\n      dup4\n        /* \"contracts/MyNFT.sol\":9587:9603  _owners[tokenId] */\n      dup2\n      mstore\n      0x20\n      add\n      swap1\n      dup2\n      mstore\n      0x20\n      add\n      0x00\n      keccak256\n      0x00\n        /* \"contracts/MyNFT.sol\":9580:9603  delete _owners[tokenId] */\n      0x0100\n      exp\n      dup2\n      sload\n      swap1\n      0xffffffffffffffffffffffffffffffffffffffff\n      mul\n      not\n      and\n      swap1\n      sstore\n        /* \"contracts/MyNFT.sol\":9647:9654  tokenId */\n      dup2\n        /* \"contracts/MyNFT.sol\":9643:9644  0 */\n      0x00\n        /* \"contracts/MyNFT.sol\":9619:9655  Transfer(owner, address(0), tokenId) */\n      0xffffffffffffffffffffffffffffffffffffffff\n      and\n        /* \"contracts/MyNFT.sol\":9628:9633  owner */\n      dup3\n        /* \"contracts/MyNFT.sol\":9619:9655  Transfer(owner, address(0), tokenId) */\n      0xffffffffffffffffffffffffffffffffffffffff\n      and\n      0xddf252ad1be2c89b69c2b068fc378daa952ba7f163c4a11628f55a4df523b3ef\n      mload(0x40)\n      mload(0x40)\n      dup1\n      swap2\n      sub\n      swap1\n      log4\n        /* \"contracts/MyNFT.sol\":9374:9663  {... */\n      pop\n        /* \"contracts/MyNFT.sol\":9336:9663  function _burn(uint tokenId) internal {... */\n      pop\n      jump\t// out\n        /* \"contracts/MyNFT.sol\":6971:7245  function _safeTransfer(address from, address to, uint256 tokenId, bytes memory _data) internal virtual {... */\n    tag_122:\n        /* \"contracts/MyNFT.sol\":7085:7113  _transfer(from, to, tokenId) */\n      tag_167\n        /* \"contracts/MyNFT.sol\":7095:7099  from */\n      dup5\n        /* \"contracts/MyNFT.sol\":7101:7103  to */\n      dup5\n        /* \"contracts/MyNFT.sol\":7105:7112  tokenId */\n      dup5\n        /* \"contracts/MyNFT.sol\":7085:7094  _transfer */\n      tag_95\n        /* \"contracts/MyNFT.sol\":7085:7113  _transfer(from, to, tokenId) */\n      jump\t// in\n    tag_167:\n        /* \"contracts/MyNFT.sol\":7132:7180  _checkOnERC721Received(from, to, tokenId, _data) */\n      tag_168\n        /* \"contracts/MyNFT.sol\":7155:7159  from */\n      dup5\n        /* \"contracts/MyNFT.sol\":7161:7163  to */\n      dup5\n        /* \"contracts/MyNFT.sol\":7165:7172  tokenId */\n      dup5\n        /* \"contracts/MyNFT.sol\":7174:7179  _data */\n      dup5\n        /* \"contracts/MyNFT.sol\":7132:7154  _checkOnERC721Received */\n      tag_169\n        /* \"contracts/MyNFT.sol\":7132:7180  _checkOnERC721Received(from, to, tokenId, _data) */\n      jump\t// in\n    tag_168:\n        /* \"contracts/MyNFT.sol\":7124:7235  require(_checkOnERC721Received(from, to, tokenId, _data), \"ERC721: transfer to non ERC721Receiver implementer\") */\n      tag_170\n      jumpi\n      mload(0x40)\n      0x08c379a000000000000000000000000000000000000000000000000000000000\n      dup2\n      mstore\n      0x04\n      add\n      tag_171\n      swap1\n      tag_172\n      jump\t// in\n    tag_171:\n      mload(0x40)\n      dup1\n      swap2\n      sub\n      swap1\n      revert\n    tag_170:\n        /* \"contracts/MyNFT.sol\":6971:7245  function _safeTransfer(address from, address to, uint256 tokenId, bytes memory _data) internal virtual {... */\n      pop\n      pop\n      pop\n      pop\n      jump\t// out\n        /* \"contracts/MyNFT.sol\":8198:8957  function _checkOnERC721Received(address from, address to, uint256 tokenId, bytes memory _data) private returns (bool) {... */\n    tag_169:\n        /* \"contracts/MyNFT.sol\":8310:8314  bool */\n      0x00\n        /* \"contracts/MyNFT.sol\":8348:8349  0 */\n      0x00\n        /* \"contracts/MyNFT.sol\":8331:8333  to */\n      dup5\n        /* \"contracts/MyNFT.sol\":8331:8345  to.code.length */\n      0xffffffffffffffffffffffffffffffffffffffff\n      and\n      extcodesize\n        /* \"contracts/MyNFT.sol\":8331:8349  to.code.length > 0 */\n      gt\n        /* \"contracts/MyNFT.sol\":8327:8948  if (to.code.length > 0) {... */\n      iszero\n      tag_174\n      jumpi\n        /* \"contracts/MyNFT.sol\":8386:8388  to */\n      dup4\n        /* \"contracts/MyNFT.sol\":8370:8406  IERC721Receiver(to).onERC721Received */\n      0xffffffffffffffffffffffffffffffffffffffff\n      and\n      0x150b7a02\n        /* \"contracts/MyNFT.sol\":8407:8417  msg.sender */\n      caller\n        /* \"contracts/MyNFT.sol\":8419:8423  from */\n      dup8\n        /* \"contracts/MyNFT.sol\":8425:8432  tokenId */\n      dup7\n        /* \"contracts/MyNFT.sol\":8434:8439  _data */\n      dup7\n        /* \"contracts/MyNFT.sol\":8370:8440  IERC721Receiver(to).onERC721Received(msg.sender, from, tokenId, _data) */\n      mload(0x40)\n      dup6\n      0xffffffff\n      and\n      0xe0\n      shl\n      dup2\n      mstore\n      0x04\n      add\n      tag_175\n      swap5\n      swap4\n      swap3\n      swap2\n      swap1\n      tag_176\n      jump\t// in\n    tag_175:\n      0x20\n      mload(0x40)\n      dup1\n      dup4\n      sub\n      dup2\n      0x00\n      dup8\n      gas\n      call\n      swap3\n      pop\n      pop\n      pop\n      dup1\n      iszero\n      tag_177\n      jumpi\n      pop\n      mload(0x40)\n      returndatasize\n      not(0x1f)\n      0x1f\n      dup3\n      add\n      and\n      dup3\n      add\n      dup1\n      0x40\n      mstore\n      pop\n      dup2\n      add\n      swap1\n      tag_178\n      swap2\n      swap1\n      tag_179\n      jump\t// in\n    tag_178:\n      0x01\n    tag_177:\n        /* \"contracts/MyNFT.sol\":8366:8893  try IERC721Receiver(to).onERC721Received(msg.sender, from, tokenId, _data) returns (bytes4 retval) {... */\n      tag_180\n      jumpi\n      returndatasize\n      dup1\n      0x00\n      dup2\n      eq\n      tag_185\n      jumpi\n      mload(0x40)\n      swap2\n      pop\n      and(add(returndatasize, 0x3f), not(0x1f))\n      dup3\n      add\n      0x40\n      mstore\n      returndatasize\n      dup3\n      mstore\n      returndatasize\n      0x00\n      0x20\n      dup5\n      add\n      returndatacopy\n      jump(tag_184)\n    tag_185:\n      0x60\n      swap2\n      pop\n    tag_184:\n      pop\n        /* \"contracts/MyNFT.sol\":8627:8628  0 */\n      0x00\n        /* \"contracts/MyNFT.sol\":8610:8616  reason */\n      dup2\n        /* \"contracts/MyNFT.sol\":8610:8623  reason.length */\n      mload\n        /* \"contracts/MyNFT.sol\":8610:8628  reason.length == 0 */\n      sub\n        /* \"contracts/MyNFT.sol\":8606:8878  if (reason.length == 0) {... */\n      tag_186\n      jumpi\n        /* \"contracts/MyNFT.sol\":8653:8713  revert(\"ERC721: transfer to non ERC721Receiver implementer\") */\n      mload(0x40)\n      0x08c379a000000000000000000000000000000000000000000000000000000000\n      dup2\n      mstore\n      0x04\n      add\n      tag_187\n      swap1\n      tag_172\n      jump\t// in\n    tag_187:\n      mload(0x40)\n      dup1\n      swap2\n      sub\n      swap1\n      revert\n        /* \"contracts/MyNFT.sol\":8606:8878  if (reason.length == 0) {... */\n    tag_186:\n        /* \"contracts/MyNFT.sol\":8828:8834  reason */\n      dup1\n        /* \"contracts/MyNFT.sol\":8822:8835  mload(reason) */\n      mload\n        /* \"contracts/MyNFT.sol\":8813:8819  reason */\n      dup2\n        /* \"contracts/MyNFT.sol\":8809:8811  32 */\n      0x20\n        /* \"contracts/MyNFT.sol\":8805:8820  add(32, reason) */\n      add\n        /* \"contracts/MyNFT.sol\":8798:8836  revert(add(32, reason), mload(reason)) */\n      revert\n        /* \"contracts/MyNFT.sol\":8366:8893  try IERC721Receiver(to).onERC721Received(msg.sender, from, tokenId, _data) returns (bytes4 retval) {... */\n    tag_180:\n        /* \"contracts/MyNFT.sol\":8501:8542  IERC721Receiver.onERC721Received.selector */\n      shl(0xe0, 0x150b7a02)\n        /* \"contracts/MyNFT.sol\":8491:8542  retval == IERC721Receiver.onERC721Received.selector */\n      not(0xffffffffffffffffffffffffffffffffffffffffffffffffffffffff)\n      and\n        /* \"contracts/MyNFT.sol\":8491:8497  retval */\n      dup2\n        /* \"contracts/MyNFT.sol\":8491:8542  retval == IERC721Receiver.onERC721Received.selector */\n      not(0xffffffffffffffffffffffffffffffffffffffffffffffffffffffff)\n      and\n      eq\n        /* \"contracts/MyNFT.sol\":8484:8542  return retval == IERC721Receiver.onERC721Received.selector */\n      swap2\n      pop\n      pop\n      jump(tag_173)\n        /* \"contracts/MyNFT.sol\":8327:8948  if (to.code.length > 0) {... */\n    tag_174:\n        /* \"contracts/MyNFT.sol\":8932:8936  true */\n      0x01\n        /* \"contracts/MyNFT.sol\":8925:8936  return true */\n      swap1\n      pop\n        /* \"contracts/MyNFT.sol\":8198:8957  function _checkOnERC721Received(address from, address to, uint256 tokenId, bytes memory _data) private returns (bool) {... */\n    tag_173:\n      swap5\n      swap4\n      pop\n      pop\n      pop\n      pop\n      jump\t// out\n        /* \"#utility.yul\":7:82   */\n    tag_191:\n        /* \"#utility.yul\":40:46   */\n      0x00\n        /* \"#utility.yul\":73:75   */\n      0x40\n        /* \"#utility.yul\":67:76   */\n      mload\n        /* \"#utility.yul\":57:76   */\n      swap1\n      pop\n        /* \"#utility.yul\":7:82   */\n      swap1\n      jump\t// out\n        /* \"#utility.yul\":88:205   */\n    tag_192:\n        /* \"#utility.yul\":197:198   */\n      0x00\n        /* \"#utility.yul\":194:195   */\n      0x00\n        /* \"#utility.yul\":187:199   */\n      revert\n        /* \"#utility.yul\":211:328   */\n    tag_193:\n        /* \"#utility.yul\":320:321   */\n      0x00\n        /* \"#utility.yul\":317:318   */\n      0x00\n        /* \"#utility.yul\":310:322   */\n      revert\n        /* \"#utility.yul\":334:483   */\n    tag_194:\n        /* \"#utility.yul\":370:377   */\n      0x00\n        /* \"#utility.yul\":410:476   */\n      0xffffffff00000000000000000000000000000000000000000000000000000000\n        /* \"#utility.yul\":403:408   */\n      dup3\n        /* \"#utility.yul\":399:477   */\n      and\n        /* \"#utility.yul\":388:477   */\n      swap1\n      pop\n        /* \"#utility.yul\":334:483   */\n      swap2\n      swap1\n      pop\n      jump\t// out\n        /* \"#utility.yul\":489:609   */\n    tag_195:\n        /* \"#utility.yul\":561:584   */\n      tag_261\n        /* \"#utility.yul\":578:583   */\n      dup2\n        /* \"#utility.yul\":561:584   */\n      tag_194\n      jump\t// in\n    tag_261:\n        /* \"#utility.yul\":554:559   */\n      dup2\n        /* \"#utility.yul\":551:585   */\n      eq\n        /* \"#utility.yul\":541:603   */\n      tag_262\n      jumpi\n        /* \"#utility.yul\":599:600   */\n      0x00\n        /* \"#utility.yul\":596:597   */\n      0x00\n        /* \"#utility.yul\":589:601   */\n      revert\n        /* \"#utility.yul\":541:603   */\n    tag_262:\n        /* \"#utility.yul\":489:609   */\n      pop\n      jump\t// out\n        /* \"#utility.yul\":615:752   */\n    tag_196:\n        /* \"#utility.yul\":660:665   */\n      0x00\n        /* \"#utility.yul\":698:704   */\n      dup2\n        /* \"#utility.yul\":685:705   */\n      calldataload\n        /* \"#utility.yul\":676:705   */\n      swap1\n      pop\n        /* \"#utility.yul\":714:746   */\n      tag_264\n        /* \"#utility.yul\":740:745   */\n      dup2\n        /* \"#utility.yul\":714:746   */\n      tag_195\n      jump\t// in\n    tag_264:\n        /* \"#utility.yul\":615:752   */\n      swap3\n      swap2\n      pop\n      pop\n      jump\t// out\n        /* \"#utility.yul\":758:1085   */\n    tag_18:\n        /* \"#utility.yul\":816:822   */\n      0x00\n        /* \"#utility.yul\":865:867   */\n      0x20\n        /* \"#utility.yul\":853:862   */\n      dup3\n        /* \"#utility.yul\":844:851   */\n      dup5\n        /* \"#utility.yul\":840:863   */\n      sub\n        /* \"#utility.yul\":836:868   */\n      slt\n        /* \"#utility.yul\":833:952   */\n      iszero\n      tag_266\n      jumpi\n        /* \"#utility.yul\":871:950   */\n      tag_267\n      tag_192\n      jump\t// in\n    tag_267:\n        /* \"#utility.yul\":833:952   */\n    tag_266:\n        /* \"#utility.yul\":991:992   */\n      0x00\n        /* \"#utility.yul\":1016:1068   */\n      tag_268\n        /* \"#utility.yul\":1060:1067   */\n      dup5\n        /* \"#utility.yul\":1051:1057   */\n      dup3\n        /* \"#utility.yul\":1040:1049   */\n      dup6\n        /* \"#utility.yul\":1036:1058   */\n      add\n        /* \"#utility.yul\":1016:1068   */\n      tag_196\n      jump\t// in\n    tag_268:\n        /* \"#utility.yul\":1006:1068   */\n      swap2\n      pop\n        /* \"#utility.yul\":962:1078   */\n      pop\n        /* \"#utility.yul\":758:1085   */\n      swap3\n      swap2\n      pop\n      pop\n      jump\t// out\n        /* \"#utility.yul\":1091:1181   */\n    tag_197:\n        /* \"#utility.yul\":1125:1132   */\n      0x00\n        /* \"#utility.yul\":1168:1173   */\n      dup2\n        /* \"#utility.yul\":1161:1174   */\n      iszero\n        /* \"#utility.yul\":1154:1175   */\n      iszero\n        /* \"#utility.yul\":1143:1175   */\n      swap1\n      pop\n        /* \"#utility.yul\":1091:1181   */\n      swap2\n      swap1\n      pop\n      jump\t// out\n        /* \"#utility.yul\":1187:1296   */\n    tag_198:\n        /* \"#utility.yul\":1268:1289   */\n      tag_271\n        /* \"#utility.yul\":1283:1288   */\n      dup2\n        /* \"#utility.yul\":1268:1289   */\n      tag_197\n      jump\t// in\n    tag_271:\n        /* \"#utility.yul\":1263:1266   */\n      dup3\n        /* \"#utility.yul\":1256:1290   */\n      mstore\n        /* \"#utility.yul\":1187:1296   */\n      pop\n      pop\n      jump\t// out\n        /* \"#utility.yul\":1302:1512   */\n    tag_21:\n        /* \"#utility.yul\":1389:1393   */\n      0x00\n        /* \"#utility.yul\":1427:1429   */\n      0x20\n        /* \"#utility.yul\":1416:1425   */\n      dup3\n        /* \"#utility.yul\":1412:1430   */\n      add\n        /* \"#utility.yul\":1404:1430   */\n      swap1\n      pop\n        /* \"#utility.yul\":1440:1505   */\n      tag_273\n        /* \"#utility.yul\":1502:1503   */\n      0x00\n        /* \"#utility.yul\":1491:1500   */\n      dup4\n        /* \"#utility.yul\":1487:1504   */\n      add\n        /* \"#utility.yul\":1478:1484   */\n      dup5\n        /* \"#utility.yul\":1440:1505   */\n      tag_198\n      jump\t// in\n    tag_273:\n        /* \"#utility.yul\":1302:1512   */\n      swap3\n      swap2\n      pop\n      pop\n      jump\t// out\n        /* \"#utility.yul\":1518:1595   */\n    tag_199:\n        /* \"#utility.yul\":1555:1562   */\n      0x00\n        /* \"#utility.yul\":1584:1589   */\n      dup2\n        /* \"#utility.yul\":1573:1589   */\n      swap1\n      pop\n        /* \"#utility.yul\":1518:1595   */\n      swap2\n      swap1\n      pop\n      jump\t// out\n        /* \"#utility.yul\":1601:1723   */\n    tag_200:\n        /* \"#utility.yul\":1674:1698   */\n      tag_276\n        /* \"#utility.yul\":1692:1697   */\n      dup2\n        /* \"#utility.yul\":1674:1698   */\n      tag_199\n      jump\t// in\n    tag_276:\n        /* \"#utility.yul\":1667:1672   */\n      dup2\n        /* \"#utility.yul\":1664:1699   */\n      eq\n        /* \"#utility.yul\":1654:1717   */\n      tag_277\n      jumpi\n        /* \"#utility.yul\":1713:1714   */\n      0x00\n        /* \"#utility.yul\":1710:1711   */\n      0x00\n        /* \"#utility.yul\":1703:1715   */\n      revert\n        /* \"#utility.yul\":1654:1717   */\n    tag_277:\n        /* \"#utility.yul\":1601:1723   */\n      pop\n      jump\t// out\n        /* \"#utility.yul\":1729:1868   */\n    tag_201:\n        /* \"#utility.yul\":1775:1780   */\n      0x00\n        /* \"#utility.yul\":1813:1819   */\n      dup2\n        /* \"#utility.yul\":1800:1820   */\n      calldataload\n        /* \"#utility.yul\":1791:1820   */\n      swap1\n      pop\n        /* \"#utility.yul\":1829:1862   */\n      tag_279\n        /* \"#utility.yul\":1856:1861   */\n      dup2\n        /* \"#utility.yul\":1829:1862   */\n      tag_200\n      jump\t// in\n    tag_279:\n        /* \"#utility.yul\":1729:1868   */\n      swap3\n      swap2\n      pop\n      pop\n      jump\t// out\n        /* \"#utility.yul\":1874:2203   */\n    tag_24:\n        /* \"#utility.yul\":1933:1939   */\n      0x00\n        /* \"#utility.yul\":1982:1984   */\n      0x20\n        /* \"#utility.yul\":1970:1979   */\n      dup3\n        /* \"#utility.yul\":1961:1968   */\n      dup5\n        /* \"#utility.yul\":1957:1980   */\n      sub\n        /* \"#utility.yul\":1953:1985   */\n      slt\n        /* \"#utility.yul\":1950:2069   */\n      iszero\n      tag_281\n      jumpi\n        /* \"#utility.yul\":1988:2067   */\n      tag_282\n      tag_192\n      jump\t// in\n    tag_282:\n        /* \"#utility.yul\":1950:2069   */\n    tag_281:\n        /* \"#utility.yul\":2108:2109   */\n      0x00\n        /* \"#utility.yul\":2133:2186   */\n      tag_283\n        /* \"#utility.yul\":2178:2185   */\n      dup5\n        /* \"#utility.yul\":2169:2175   */\n      dup3\n        /* \"#utility.yul\":2158:2167   */\n      dup6\n        /* \"#utility.yul\":2154:2176   */\n      add\n        /* \"#utility.yul\":2133:2186   */\n      tag_201\n      jump\t// in\n    tag_283:\n        /* \"#utility.yul\":2123:2186   */\n      swap2\n      pop\n        /* \"#utility.yul\":2079:2196   */\n      pop\n        /* \"#utility.yul\":1874:2203   */\n      swap3\n      swap2\n      pop\n      pop\n      jump\t// out\n        /* \"#utility.yul\":2209:2335   */\n    tag_202:\n        /* \"#utility.yul\":2246:2253   */\n      0x00\n        /* \"#utility.yul\":2286:2328   */\n      0xffffffffffffffffffffffffffffffffffffffff\n        /* \"#utility.yul\":2279:2284   */\n      dup3\n        /* \"#utility.yul\":2275:2329   */\n      and\n        /* \"#utility.yul\":2264:2329   */\n      swap1\n      pop\n        /* \"#utility.yul\":2209:2335   */\n      swap2\n      swap1\n      pop\n      jump\t// out\n        /* \"#utility.yul\":2341:2437   */\n    tag_203:\n        /* \"#utility.yul\":2378:2385   */\n      0x00\n        /* \"#utility.yul\":2407:2431   */\n      tag_286\n        /* \"#utility.yul\":2425:2430   */\n      dup3\n        /* \"#utility.yul\":2407:2431   */\n      tag_202\n      jump\t// in\n    tag_286:\n        /* \"#utility.yul\":2396:2431   */\n      swap1\n      pop\n        /* \"#utility.yul\":2341:2437   */\n      swap2\n      swap1\n      pop\n      jump\t// out\n        /* \"#utility.yul\":2443:2561   */\n    tag_204:\n        /* \"#utility.yul\":2530:2554   */\n      tag_288\n        /* \"#utility.yul\":2548:2553   */\n      dup2\n        /* \"#utility.yul\":2530:2554   */\n      tag_203\n      jump\t// in\n    tag_288:\n        /* \"#utility.yul\":2525:2528   */\n      dup3\n        /* \"#utility.yul\":2518:2555   */\n      mstore\n        /* \"#utility.yul\":2443:2561   */\n      pop\n      pop\n      jump\t// out\n        /* \"#utility.yul\":2567:2789   */\n    tag_27:\n        /* \"#utility.yul\":2660:2664   */\n      0x00\n        /* \"#utility.yul\":2698:2700   */\n      0x20\n        /* \"#utility.yul\":2687:2696   */\n      dup3\n        /* \"#utility.yul\":2683:2701   */\n      add\n        /* \"#utility.yul\":2675:2701   */\n      swap1\n      pop\n        /* \"#utility.yul\":2711:2782   */\n      tag_290\n        /* \"#utility.yul\":2779:2780   */\n      0x00\n        /* \"#utility.yul\":2768:2777   */\n      dup4\n        /* \"#utility.yul\":2764:2781   */\n      add\n        /* \"#utility.yul\":2755:2761   */\n      dup5\n        /* \"#utility.yul\":2711:2782   */\n      tag_204\n      jump\t// in\n    tag_290:\n        /* \"#utility.yul\":2567:2789   */\n      swap3\n      swap2\n      pop\n      pop\n      jump\t// out\n        /* \"#utility.yul\":2795:2917   */\n    tag_205:\n        /* \"#utility.yul\":2868:2892   */\n      tag_292\n        /* \"#utility.yul\":2886:2891   */\n      dup2\n        /* \"#utility.yul\":2868:2892   */\n      tag_203\n      jump\t// in\n    tag_292:\n        /* \"#utility.yul\":2861:2866   */\n      dup2\n        /* \"#utility.yul\":2858:2893   */\n      eq\n        /* \"#utility.yul\":2848:2911   */\n      tag_293\n      jumpi\n        /* \"#utility.yul\":2907:2908   */\n      0x00\n        /* \"#utility.yul\":2904:2905   */\n      0x00\n        /* \"#utility.yul\":2897:2909   */\n      revert\n        /* \"#utility.yul\":2848:2911   */\n    tag_293:\n        /* \"#utility.yul\":2795:2917   */\n      pop\n      jump\t// out\n        /* \"#utility.yul\":2923:3062   */\n    tag_206:\n        /* \"#utility.yul\":2969:2974   */\n      0x00\n        /* \"#utility.yul\":3007:3013   */\n      dup2\n        /* \"#utility.yul\":2994:3014   */\n      calldataload\n        /* \"#utility.yul\":2985:3014   */\n      swap1\n      pop\n        /* \"#utility.yul\":3023:3056   */\n      tag_295\n        /* \"#utility.yul\":3050:3055   */\n      dup2\n        /* \"#utility.yul\":3023:3056   */\n      tag_205\n      jump\t// in\n    tag_295:\n        /* \"#utility.yul\":2923:3062   */\n      swap3\n      swap2\n      pop\n      pop\n      jump\t// out\n        /* \"#utility.yul\":3068:3542   */\n    tag_30:\n        /* \"#utility.yul\":3136:3142   */\n      0x00\n        /* \"#utility.yul\":3144:3150   */\n      0x00\n        /* \"#utility.yul\":3193:3195   */\n      0x40\n        /* \"#utility.yul\":3181:3190   */\n      dup4\n        /* \"#utility.yul\":3172:3179   */\n      dup6\n        /* \"#utility.yul\":3168:3191   */\n      sub\n        /* \"#utility.yul\":3164:3196   */\n      slt\n        /* \"#utility.yul\":3161:3280   */\n      iszero\n      tag_297\n      jumpi\n        /* \"#utility.yul\":3199:3278   */\n      tag_298\n      tag_192\n      jump\t// in\n    tag_298:\n        /* \"#utility.yul\":3161:3280   */\n    tag_297:\n        /* \"#utility.yul\":3319:3320   */\n      0x00\n        /* \"#utility.yul\":3344:3397   */\n      tag_299\n        /* \"#utility.yul\":3389:3396   */\n      dup6\n        /* \"#utility.yul\":3380:3386   */\n      dup3\n        /* \"#utility.yul\":3369:3378   */\n      dup7\n        /* \"#utility.yul\":3365:3387   */\n      add\n        /* \"#utility.yul\":3344:3397   */\n      tag_206\n      jump\t// in\n    tag_299:\n        /* \"#utility.yul\":3334:3397   */\n      swap3\n      pop\n        /* \"#utility.yul\":3290:3407   */\n      pop\n        /* \"#utility.yul\":3446:3448   */\n      0x20\n        /* \"#utility.yul\":3472:3525   */\n      tag_300\n        /* \"#utility.yul\":3517:3524   */\n      dup6\n        /* \"#utility.yul\":3508:3514   */\n      dup3\n        /* \"#utility.yul\":3497:3506   */\n      dup7\n        /* \"#utility.yul\":3493:3515   */\n      add\n        /* \"#utility.yul\":3472:3525   */\n      tag_201\n      jump\t// in\n    tag_300:\n        /* \"#utility.yul\":3462:3525   */\n      swap2\n      pop\n        /* \"#utility.yul\":3417:3535   */\n      pop\n        /* \"#utility.yul\":3068:3542   */\n      swap3\n      pop\n      swap3\n      swap1\n      pop\n      jump\t// out\n        /* \"#utility.yul\":3548:4167   */\n    tag_34:\n        /* \"#utility.yul\":3625:3631   */\n      0x00\n        /* \"#utility.yul\":3633:3639   */\n      0x00\n        /* \"#utility.yul\":3641:3647   */\n      0x00\n        /* \"#utility.yul\":3690:3692   */\n      0x60\n        /* \"#utility.yul\":3678:3687   */\n      dup5\n        /* \"#utility.yul\":3669:3676   */\n      dup7\n        /* \"#utility.yul\":3665:3688   */\n      sub\n        /* \"#utility.yul\":3661:3693   */\n      slt\n        /* \"#utility.yul\":3658:3777   */\n      iszero\n      tag_302\n      jumpi\n        /* \"#utility.yul\":3696:3775   */\n      tag_303\n      tag_192\n      jump\t// in\n    tag_303:\n        /* \"#utility.yul\":3658:3777   */\n    tag_302:\n        /* \"#utility.yul\":3816:3817   */\n      0x00\n        /* \"#utility.yul\":3841:3894   */\n      tag_304\n        /* \"#utility.yul\":3886:3893   */\n      dup7\n        /* \"#utility.yul\":3877:3883   */\n      dup3\n        /* \"#utility.yul\":3866:3875   */\n      dup8\n        /* \"#utility.yul\":3862:3884   */\n      add\n        /* \"#utility.yul\":3841:3894   */\n      tag_206\n      jump\t// in\n    tag_304:\n        /* \"#utility.yul\":3831:3894   */\n      swap4\n      pop\n        /* \"#utility.yul\":3787:3904   */\n      pop\n        /* \"#utility.yul\":3943:3945   */\n      0x20\n        /* \"#utility.yul\":3969:4022   */\n      tag_305\n        /* \"#utility.yul\":4014:4021   */\n      dup7\n        /* \"#utility.yul\":4005:4011   */\n      dup3\n        /* \"#utility.yul\":3994:4003   */\n      dup8\n        /* \"#utility.yul\":3990:4012   */\n      add\n        /* \"#utility.yul\":3969:4022   */\n      tag_206\n      jump\t// in\n    tag_305:\n        /* \"#utility.yul\":3959:4022   */\n      swap3\n      pop\n        /* \"#utility.yul\":3914:4032   */\n      pop\n        /* \"#utility.yul\":4071:4073   */\n      0x40\n        /* \"#utility.yul\":4097:4150   */\n      tag_306\n        /* \"#utility.yul\":4142:4149   */\n      dup7\n        /* \"#utility.yul\":4133:4139   */\n      dup3\n        /* \"#utility.yul\":4122:4131   */\n      dup8\n        /* \"#utility.yul\":4118:4140   */\n      add\n        /* \"#utility.yul\":4097:4150   */\n      tag_201\n      jump\t// in\n    tag_306:\n        /* \"#utility.yul\":4087:4150   */\n      swap2\n      pop\n        /* \"#utility.yul\":4042:4160   */\n      pop\n        /* \"#utility.yul\":3548:4167   */\n      swap3\n      pop\n      swap3\n      pop\n      swap3\n      jump\t// out\n        /* \"#utility.yul\":4173:4502   */\n    tag_51:\n        /* \"#utility.yul\":4232:4238   */\n      0x00\n        /* \"#utility.yul\":4281:4283   */\n      0x20\n        /* \"#utility.yul\":4269:4278   */\n      dup3\n        /* \"#utility.yul\":4260:4267   */\n      dup5\n        /* \"#utility.yul\":4256:4279   */\n      sub\n        /* \"#utility.yul\":4252:4284   */\n      slt\n        /* \"#utility.yul\":4249:4368   */\n      iszero\n      tag_308\n      jumpi\n        /* \"#utility.yul\":4287:4366   */\n      tag_309\n      tag_192\n      jump\t// in\n    tag_309:\n        /* \"#utility.yul\":4249:4368   */\n    tag_308:\n        /* \"#utility.yul\":4407:4408   */\n      0x00\n        /* \"#utility.yul\":4432:4485   */\n      tag_310\n        /* \"#utility.yul\":4477:4484   */\n      dup5\n        /* \"#utility.yul\":4468:4474   */\n      dup3\n        /* \"#utility.yul\":4457:4466   */\n      dup6\n        /* \"#utility.yul\":4453:4475   */\n      add\n        /* \"#utility.yul\":4432:4485   */\n      tag_206\n      jump\t// in\n    tag_310:\n        /* \"#utility.yul\":4422:4485   */\n      swap2\n      pop\n        /* \"#utility.yul\":4378:4495   */\n      pop\n        /* \"#utility.yul\":4173:4502   */\n      swap3\n      swap2\n      pop\n      pop\n      jump\t// out\n        /* \"#utility.yul\":4508:4626   */\n    tag_207:\n        /* \"#utility.yul\":4595:4619   */\n      tag_312\n        /* \"#utility.yul\":4613:4618   */\n      dup2\n        /* \"#utility.yul\":4595:4619   */\n      tag_199\n      jump\t// in\n    tag_312:\n        /* \"#utility.yul\":4590:4593   */\n      dup3\n        /* \"#utility.yul\":4583:4620   */\n      mstore\n        /* \"#utility.yul\":4508:4626   */\n      pop\n      pop\n      jump\t// out\n        /* \"#utility.yul\":4632:4854   */\n    tag_54:\n        /* \"#utility.yul\":4725:4729   */\n      0x00\n        /* \"#utility.yul\":4763:4765   */\n      0x20\n        /* \"#utility.yul\":4752:4761   */\n      dup3\n        /* \"#utility.yul\":4748:4766   */\n      add\n        /* \"#utility.yul\":4740:4766   */\n      swap1\n      pop\n        /* \"#utility.yul\":4776:4847   */\n      tag_314\n        /* \"#utility.yul\":4844:4845   */\n      0x00\n        /* \"#utility.yul\":4833:4842   */\n      dup4\n        /* \"#utility.yul\":4829:4846   */\n      add\n        /* \"#utility.yul\":4820:4826   */\n      dup5\n        /* \"#utility.yul\":4776:4847   */\n      tag_207\n      jump\t// in\n    tag_314:\n        /* \"#utility.yul\":4632:4854   */\n      swap3\n      swap2\n      pop\n      pop\n      jump\t// out\n        /* \"#utility.yul\":4860:4976   */\n    tag_208:\n        /* \"#utility.yul\":4930:4951   */\n      tag_316\n        /* \"#utility.yul\":4945:4950   */\n      dup2\n        /* \"#utility.yul\":4930:4951   */\n      tag_197\n      jump\t// in\n    tag_316:\n        /* \"#utility.yul\":4923:4928   */\n      dup2\n        /* \"#utility.yul\":4920:4952   */\n      eq\n        /* \"#utility.yul\":4910:4970   */\n      tag_317\n      jumpi\n        /* \"#utility.yul\":4966:4967   */\n      0x00\n        /* \"#utility.yul\":4963:4964   */\n      0x00\n        /* \"#utility.yul\":4956:4968   */\n      revert\n        /* \"#utility.yul\":4910:4970   */\n    tag_317:\n        /* \"#utility.yul\":4860:4976   */\n      pop\n      jump\t// out\n        /* \"#utility.yul\":4982:5115   */\n    tag_209:\n        /* \"#utility.yul\":5025:5030   */\n      0x00\n        /* \"#utility.yul\":5063:5069   */\n      dup2\n        /* \"#utility.yul\":5050:5070   */\n      calldataload\n        /* \"#utility.yul\":5041:5070   */\n      swap1\n      pop\n        /* \"#utility.yul\":5079:5109   */\n      tag_319\n        /* \"#utility.yul\":5103:5108   */\n      dup2\n        /* \"#utility.yul\":5079:5109   */\n      tag_208\n      jump\t// in\n    tag_319:\n        /* \"#utility.yul\":4982:5115   */\n      swap3\n      swap2\n      pop\n      pop\n      jump\t// out\n        /* \"#utility.yul\":5121:5589   */\n    tag_57:\n        /* \"#utility.yul\":5186:5192   */\n      0x00\n        /* \"#utility.yul\":5194:5200   */\n      0x00\n        /* \"#utility.yul\":5243:5245   */\n      0x40\n        /* \"#utility.yul\":5231:5240   */\n      dup4\n        /* \"#utility.yul\":5222:5229   */\n      dup6\n        /* \"#utility.yul\":5218:5241   */\n      sub\n        /* \"#utility.yul\":5214:5246   */\n      slt\n        /* \"#utility.yul\":5211:5330   */\n      iszero\n      tag_321\n      jumpi\n        /* \"#utility.yul\":5249:5328   */\n      tag_322\n      tag_192\n      jump\t// in\n    tag_322:\n        /* \"#utility.yul\":5211:5330   */\n    tag_321:\n        /* \"#utility.yul\":5369:5370   */\n      0x00\n        /* \"#utility.yul\":5394:5447   */\n      tag_323\n        /* \"#utility.yul\":5439:5446   */\n      dup6\n        /* \"#utility.yul\":5430:5436   */\n      dup3\n        /* \"#utility.yul\":5419:5428   */\n      dup7\n        /* \"#utility.yul\":5415:5437   */\n      add\n        /* \"#utility.yul\":5394:5447   */\n      tag_206\n      jump\t// in\n    tag_323:\n        /* \"#utility.yul\":5384:5447   */\n      swap3\n      pop\n        /* \"#utility.yul\":5340:5457   */\n      pop\n        /* \"#utility.yul\":5496:5498   */\n      0x20\n        /* \"#utility.yul\":5522:5572   */\n      tag_324\n        /* \"#utility.yul\":5564:5571   */\n      dup6\n        /* \"#utility.yul\":5555:5561   */\n      dup3\n        /* \"#utility.yul\":5544:5553   */\n      dup7\n        /* \"#utility.yul\":5540:5562   */\n      add\n        /* \"#utility.yul\":5522:5572   */\n      tag_209\n      jump\t// in\n    tag_324:\n        /* \"#utility.yul\":5512:5572   */\n      swap2\n      pop\n        /* \"#utility.yul\":5467:5582   */\n      pop\n        /* \"#utility.yul\":5121:5589   */\n      swap3\n      pop\n      swap3\n      swap1\n      pop\n      jump\t// out\n        /* \"#utility.yul\":5595:5712   */\n    tag_210:\n        /* \"#utility.yul\":5704:5705   */\n      0x00\n        /* \"#utility.yul\":5701:5702   */\n      0x00\n        /* \"#utility.yul\":5694:5706   */\n      revert\n        /* \"#utility.yul\":5718:5835   */\n    tag_211:\n        /* \"#utility.yul\":5827:5828   */\n      0x00\n        /* \"#utility.yul\":5824:5825   */\n      0x00\n        /* \"#utility.yul\":5817:5829   */\n      revert\n        /* \"#utility.yul\":5841:5943   */\n    tag_212:\n        /* \"#utility.yul\":5882:5888   */\n      0x00\n        /* \"#utility.yul\":5933:5935   */\n      0x1f\n        /* \"#utility.yul\":5929:5936   */\n      not\n        /* \"#utility.yul\":5924:5926   */\n      0x1f\n        /* \"#utility.yul\":5917:5922   */\n      dup4\n        /* \"#utility.yul\":5913:5927   */\n      add\n        /* \"#utility.yul\":5909:5937   */\n      and\n        /* \"#utility.yul\":5899:5937   */\n      swap1\n      pop\n        /* \"#utility.yul\":5841:5943   */\n      swap2\n      swap1\n      pop\n      jump\t// out\n        /* \"#utility.yul\":5949:6129   */\n    tag_213:\n        /* \"#utility.yul\":5997:6074   */\n      0x4e487b7100000000000000000000000000000000000000000000000000000000\n        /* \"#utility.yul\":5994:5995   */\n      0x00\n        /* \"#utility.yul\":5987:6075   */\n      mstore\n        /* \"#utility.yul\":6094:6098   */\n      0x41\n        /* \"#utility.yul\":6091:6092   */\n      0x04\n        /* \"#utility.yul\":6084:6099   */\n      mstore\n        /* \"#utility.yul\":6118:6122   */\n      0x24\n        /* \"#utility.yul\":6115:6116   */\n      0x00\n        /* \"#utility.yul\":6108:6123   */\n      revert\n        /* \"#utility.yul\":6135:6416   */\n    tag_214:\n        /* \"#utility.yul\":6218:6245   */\n      tag_330\n        /* \"#utility.yul\":6240:6244   */\n      dup3\n        /* \"#utility.yul\":6218:6245   */\n      tag_212\n      jump\t// in\n    tag_330:\n        /* \"#utility.yul\":6210:6216   */\n      dup2\n        /* \"#utility.yul\":6206:6246   */\n      add\n        /* \"#utility.yul\":6348:6354   */\n      dup2\n        /* \"#utility.yul\":6336:6346   */\n      dup2\n        /* \"#utility.yul\":6333:6355   */\n      lt\n        /* \"#utility.yul\":6312:6330   */\n      0xffffffffffffffff\n        /* \"#utility.yul\":6300:6310   */\n      dup3\n        /* \"#utility.yul\":6297:6331   */\n      gt\n        /* \"#utility.yul\":6294:6356   */\n      or\n        /* \"#utility.yul\":6291:6379   */\n      iszero\n      tag_331\n      jumpi\n        /* \"#utility.yul\":6359:6377   */\n      tag_332\n      tag_213\n      jump\t// in\n    tag_332:\n        /* \"#utility.yul\":6291:6379   */\n    tag_331:\n        /* \"#utility.yul\":6399:6409   */\n      dup1\n        /* \"#utility.yul\":6395:6397   */\n      0x40\n        /* \"#utility.yul\":6388:6410   */\n      mstore\n        /* \"#utility.yul\":6178:6416   */\n      pop\n        /* \"#utility.yul\":6135:6416   */\n      pop\n      pop\n      jump\t// out\n        /* \"#utility.yul\":6422:6551   */\n    tag_215:\n        /* \"#utility.yul\":6456:6462   */\n      0x00\n        /* \"#utility.yul\":6483:6503   */\n      tag_334\n      tag_191\n      jump\t// in\n    tag_334:\n        /* \"#utility.yul\":6473:6503   */\n      swap1\n      pop\n        /* \"#utility.yul\":6512:6545   */\n      tag_335\n        /* \"#utility.yul\":6540:6544   */\n      dup3\n        /* \"#utility.yul\":6532:6538   */\n      dup3\n        /* \"#utility.yul\":6512:6545   */\n      tag_214\n      jump\t// in\n    tag_335:\n        /* \"#utility.yul\":6422:6551   */\n      swap2\n      swap1\n      pop\n      jump\t// out\n        /* \"#utility.yul\":6557:6864   */\n    tag_216:\n        /* \"#utility.yul\":6618:6622   */\n      0x00\n        /* \"#utility.yul\":6708:6726   */\n      0xffffffffffffffff\n        /* \"#utility.yul\":6700:6706   */\n      dup3\n        /* \"#utility.yul\":6697:6727   */\n      gt\n        /* \"#utility.yul\":6694:6750   */\n      iszero\n      tag_337\n      jumpi\n        /* \"#utility.yul\":6730:6748   */\n      tag_338\n      tag_213\n      jump\t// in\n    tag_338:\n        /* \"#utility.yul\":6694:6750   */\n    tag_337:\n        /* \"#utility.yul\":6768:6797   */\n      tag_339\n        /* \"#utility.yul\":6790:6796   */\n      dup3\n        /* \"#utility.yul\":6768:6797   */\n      tag_212\n      jump\t// in\n    tag_339:\n        /* \"#utility.yul\":6760:6797   */\n      swap1\n      pop\n        /* \"#utility.yul\":6852:6856   */\n      0x20\n        /* \"#utility.yul\":6846:6850   */\n      dup2\n        /* \"#utility.yul\":6842:6857   */\n      add\n        /* \"#utility.yul\":6834:6857   */\n      swap1\n      pop\n        /* \"#utility.yul\":6557:6864   */\n      swap2\n      swap1\n      pop\n      jump\t// out\n        /* \"#utility.yul\":6870:7018   */\n    tag_217:\n        /* \"#utility.yul\":6968:6974   */\n      dup3\n        /* \"#utility.yul\":6963:6966   */\n      dup2\n        /* \"#utility.yul\":6958:6961   */\n      dup4\n        /* \"#utility.yul\":6945:6975   */\n      calldatacopy\n        /* \"#utility.yul\":7009:7010   */\n      0x00\n        /* \"#utility.yul\":7000:7006   */\n      dup4\n        /* \"#utility.yul\":6995:6998   */\n      dup4\n        /* \"#utility.yul\":6991:7007   */\n      add\n        /* \"#utility.yul\":6984:7011   */\n      mstore\n        /* \"#utility.yul\":6870:7018   */\n      pop\n      pop\n      pop\n      jump\t// out\n        /* \"#utility.yul\":7024:7447   */\n    tag_218:\n        /* \"#utility.yul\":7101:7106   */\n      0x00\n        /* \"#utility.yul\":7126:7191   */\n      tag_342\n        /* \"#utility.yul\":7142:7190   */\n      tag_343\n        /* \"#utility.yul\":7183:7189   */\n      dup5\n        /* \"#utility.yul\":7142:7190   */\n      tag_216\n      jump\t// in\n    tag_343:\n        /* \"#utility.yul\":7126:7191   */\n      tag_215\n      jump\t// in\n    tag_342:\n        /* \"#utility.yul\":7117:7191   */\n      swap1\n      pop\n        /* \"#utility.yul\":7214:7220   */\n      dup3\n        /* \"#utility.yul\":7207:7212   */\n      dup2\n        /* \"#utility.yul\":7200:7221   */\n      mstore\n        /* \"#utility.yul\":7252:7256   */\n      0x20\n        /* \"#utility.yul\":7245:7250   */\n      dup2\n        /* \"#utility.yul\":7241:7257   */\n      add\n        /* \"#utility.yul\":7290:7293   */\n      dup5\n        /* \"#utility.yul\":7281:7287   */\n      dup5\n        /* \"#utility.yul\":7276:7279   */\n      dup5\n        /* \"#utility.yul\":7272:7288   */\n      add\n        /* \"#utility.yul\":7269:7294   */\n      gt\n        /* \"#utility.yul\":7266:7378   */\n      iszero\n      tag_344\n      jumpi\n        /* \"#utility.yul\":7297:7376   */\n      tag_345\n      tag_211\n      jump\t// in\n    tag_345:\n        /* \"#utility.yul\":7266:7378   */\n    tag_344:\n        /* \"#utility.yul\":7387:7441   */\n      tag_346\n        /* \"#utility.yul\":7434:7440   */\n      dup5\n        /* \"#utility.yul\":7429:7432   */\n      dup3\n        /* \"#utility.yul\":7424:7427   */\n      dup6\n        /* \"#utility.yul\":7387:7441   */\n      tag_217\n      jump\t// in\n    tag_346:\n        /* \"#utility.yul\":7107:7447   */\n      pop\n        /* \"#utility.yul\":7024:7447   */\n      swap4\n      swap3\n      pop\n      pop\n      pop\n      jump\t// out\n        /* \"#utility.yul\":7466:7804   */\n    tag_219:\n        /* \"#utility.yul\":7521:7526   */\n      0x00\n        /* \"#utility.yul\":7570:7573   */\n      dup3\n        /* \"#utility.yul\":7563:7567   */\n      0x1f\n        /* \"#utility.yul\":7555:7561   */\n      dup4\n        /* \"#utility.yul\":7551:7568   */\n      add\n        /* \"#utility.yul\":7547:7574   */\n      slt\n        /* \"#utility.yul\":7537:7659   */\n      tag_348\n      jumpi\n        /* \"#utility.yul\":7578:7657   */\n      tag_349\n      tag_210\n      jump\t// in\n    tag_349:\n        /* \"#utility.yul\":7537:7659   */\n    tag_348:\n        /* \"#utility.yul\":7695:7701   */\n      dup2\n        /* \"#utility.yul\":7682:7702   */\n      calldataload\n        /* \"#utility.yul\":7720:7798   */\n      tag_350\n        /* \"#utility.yul\":7794:7797   */\n      dup5\n        /* \"#utility.yul\":7786:7792   */\n      dup3\n        /* \"#utility.yul\":7779:7783   */\n      0x20\n        /* \"#utility.yul\":7771:7777   */\n      dup7\n        /* \"#utility.yul\":7767:7784   */\n      add\n        /* \"#utility.yul\":7720:7798   */\n      tag_218\n      jump\t// in\n    tag_350:\n        /* \"#utility.yul\":7711:7798   */\n      swap2\n      pop\n        /* \"#utility.yul\":7527:7804   */\n      pop\n        /* \"#utility.yul\":7466:7804   */\n      swap3\n      swap2\n      pop\n      pop\n      jump\t// out\n        /* \"#utility.yul\":7810:8753   */\n    tag_61:\n        /* \"#utility.yul\":7905:7911   */\n      0x00\n        /* \"#utility.yul\":7913:7919   */\n      0x00\n        /* \"#utility.yul\":7921:7927   */\n      0x00\n        /* \"#utility.yul\":7929:7935   */\n      0x00\n        /* \"#utility.yul\":7978:7981   */\n      0x80\n        /* \"#utility.yul\":7966:7975   */\n      dup6\n        /* \"#utility.yul\":7957:7964   */\n      dup8\n        /* \"#utility.yul\":7953:7976   */\n      sub\n        /* \"#utility.yul\":7949:7982   */\n      slt\n        /* \"#utility.yul\":7946:8066   */\n      iszero\n      tag_352\n      jumpi\n        /* \"#utility.yul\":7985:8064   */\n      tag_353\n      tag_192\n      jump\t// in\n    tag_353:\n        /* \"#utility.yul\":7946:8066   */\n    tag_352:\n        /* \"#utility.yul\":8105:8106   */\n      0x00\n        /* \"#utility.yul\":8130:8183   */\n      tag_354\n        /* \"#utility.yul\":8175:8182   */\n      dup8\n        /* \"#utility.yul\":8166:8172   */\n      dup3\n        /* \"#utility.yul\":8155:8164   */\n      dup9\n        /* \"#utility.yul\":8151:8173   */\n      add\n        /* \"#utility.yul\":8130:8183   */\n      tag_206\n      jump\t// in\n    tag_354:\n        /* \"#utility.yul\":8120:8183   */\n      swap5\n      pop\n        /* \"#utility.yul\":8076:8193   */\n      pop\n        /* \"#utility.yul\":8232:8234   */\n      0x20\n        /* \"#utility.yul\":8258:8311   */\n      tag_355\n        /* \"#utility.yul\":8303:8310   */\n      dup8\n        /* \"#utility.yul\":8294:8300   */\n      dup3\n        /* \"#utility.yul\":8283:8292   */\n      dup9\n        /* \"#utility.yul\":8279:8301   */\n      add\n        /* \"#utility.yul\":8258:8311   */\n      tag_206\n      jump\t// in\n    tag_355:\n        /* \"#utility.yul\":8248:8311   */\n      swap4\n      pop\n        /* \"#utility.yul\":8203:8321   */\n      pop\n        /* \"#utility.yul\":8360:8362   */\n      0x40\n        /* \"#utility.yul\":8386:8439   */\n      tag_356\n        /* \"#utility.yul\":8431:8438   */\n      dup8\n        /* \"#utility.yul\":8422:8428   */\n      dup3\n        /* \"#utility.yul\":8411:8420   */\n      dup9\n        /* \"#utility.yul\":8407:8429   */\n      add\n        /* \"#utility.yul\":8386:8439   */\n      tag_201\n      jump\t// in\n    tag_356:\n        /* \"#utility.yul\":8376:8439   */\n      swap3\n      pop\n        /* \"#utility.yul\":8331:8449   */\n      pop\n        /* \"#utility.yul\":8516:8518   */\n      0x60\n        /* \"#utility.yul\":8505:8514   */\n      dup6\n        /* \"#utility.yul\":8501:8519   */\n      add\n        /* \"#utility.yul\":8488:8520   */\n      calldataload\n        /* \"#utility.yul\":8547:8565   */\n      0xffffffffffffffff\n        /* \"#utility.yul\":8539:8545   */\n      dup2\n        /* \"#utility.yul\":8536:8566   */\n      gt\n        /* \"#utility.yul\":8533:8650   */\n      iszero\n      tag_357\n      jumpi\n        /* \"#utility.yul\":8569:8648   */\n      tag_358\n      tag_193\n      jump\t// in\n    tag_358:\n        /* \"#utility.yul\":8533:8650   */\n    tag_357:\n        /* \"#utility.yul\":8674:8736   */\n      tag_359\n        /* \"#utility.yul\":8728:8735   */\n      dup8\n        /* \"#utility.yul\":8719:8725   */\n      dup3\n        /* \"#utility.yul\":8708:8717   */\n      dup9\n        /* \"#utility.yul\":8704:8726   */\n      add\n        /* \"#utility.yul\":8674:8736   */\n      tag_219\n      jump\t// in\n    tag_359:\n        /* \"#utility.yul\":8664:8736   */\n      swap2\n      pop\n        /* \"#utility.yul\":8459:8746   */\n      pop\n        /* \"#utility.yul\":7810:8753   */\n      swap3\n      swap6\n      swap2\n      swap5\n      pop\n      swap3\n      pop\n      jump\t// out\n        /* \"#utility.yul\":8759:9233   */\n    tag_65:\n        /* \"#utility.yul\":8827:8833   */\n      0x00\n        /* \"#utility.yul\":8835:8841   */\n      0x00\n        /* \"#utility.yul\":8884:8886   */\n      0x40\n        /* \"#utility.yul\":8872:8881   */\n      dup4\n        /* \"#utility.yul\":8863:8870   */\n      dup6\n        /* \"#utility.yul\":8859:8882   */\n      sub\n        /* \"#utility.yul\":8855:8887   */\n      slt\n        /* \"#utility.yul\":8852:8971   */\n      iszero\n      tag_361\n      jumpi\n        /* \"#utility.yul\":8890:8969   */\n      tag_362\n      tag_192\n      jump\t// in\n    tag_362:\n        /* \"#utility.yul\":8852:8971   */\n    tag_361:\n        /* \"#utility.yul\":9010:9011   */\n      0x00\n        /* \"#utility.yul\":9035:9088   */\n      tag_363\n        /* \"#utility.yul\":9080:9087   */\n      dup6\n        /* \"#utility.yul\":9071:9077   */\n      dup3\n        /* \"#utility.yul\":9060:9069   */\n      dup7\n        /* \"#utility.yul\":9056:9078   */\n      add\n        /* \"#utility.yul\":9035:9088   */\n      tag_206\n      jump\t// in\n    tag_363:\n        /* \"#utility.yul\":9025:9088   */\n      swap3\n      pop\n        /* \"#utility.yul\":8981:9098   */\n      pop\n        /* \"#utility.yul\":9137:9139   */\n      0x20\n        /* \"#utility.yul\":9163:9216   */\n      tag_364\n        /* \"#utility.yul\":9208:9215   */\n      dup6\n        /* \"#utility.yul\":9199:9205   */\n      dup3\n        /* \"#utility.yul\":9188:9197   */\n      dup7\n        /* \"#utility.yul\":9184:9206   */\n      add\n        /* \"#utility.yul\":9163:9216   */\n      tag_206\n      jump\t// in\n    tag_364:\n        /* \"#utility.yul\":9153:9216   */\n      swap2\n      pop\n        /* \"#utility.yul\":9108:9226   */\n      pop\n        /* \"#utility.yul\":8759:9233   */\n      swap3\n      pop\n      swap3\n      swap1\n      pop\n      jump\t// out\n        /* \"#utility.yul\":9239:9408   */\n    tag_220:\n        /* \"#utility.yul\":9323:9334   */\n      0x00\n        /* \"#utility.yul\":9357:9363   */\n      dup3\n        /* \"#utility.yul\":9352:9355   */\n      dup3\n        /* \"#utility.yul\":9345:9364   */\n      mstore\n        /* \"#utility.yul\":9397:9401   */\n      0x20\n        /* \"#utility.yul\":9392:9395   */\n      dup3\n        /* \"#utility.yul\":9388:9402   */\n      add\n        /* \"#utility.yul\":9373:9402   */\n      swap1\n      pop\n        /* \"#utility.yul\":9239:9408   */\n      swap3\n      swap2\n      pop\n      pop\n      jump\t// out\n        /* \"#utility.yul\":9414:9645   */\n    tag_221:\n        /* \"#utility.yul\":9554:9588   */\n      0x4552433732313a20617070726f76656420717565727920666f72206e6f6e6578\n        /* \"#utility.yul\":9550:9551   */\n      0x00\n        /* \"#utility.yul\":9542:9548   */\n      dup3\n        /* \"#utility.yul\":9538:9552   */\n      add\n        /* \"#utility.yul\":9531:9589   */\n      mstore\n        /* \"#utility.yul\":9623:9637   */\n      0x697374656e7420746f6b656e0000000000000000000000000000000000000000\n        /* \"#utility.yul\":9618:9620   */\n      0x20\n        /* \"#utility.yul\":9610:9616   */\n      dup3\n        /* \"#utility.yul\":9606:9621   */\n      add\n        /* \"#utility.yul\":9599:9638   */\n      mstore\n        /* \"#utility.yul\":9414:9645   */\n      pop\n      jump\t// out\n        /* \"#utility.yul\":9651:10017   */\n    tag_222:\n        /* \"#utility.yul\":9793:9796   */\n      0x00\n        /* \"#utility.yul\":9814:9881   */\n      tag_368\n        /* \"#utility.yul\":9878:9880   */\n      0x2c\n        /* \"#utility.yul\":9873:9876   */\n      dup4\n        /* \"#utility.yul\":9814:9881   */\n      tag_220\n      jump\t// in\n    tag_368:\n        /* \"#utility.yul\":9807:9881   */\n      swap2\n      pop\n        /* \"#utility.yul\":9890:9983   */\n      tag_369\n        /* \"#utility.yul\":9979:9982   */\n      dup3\n        /* \"#utility.yul\":9890:9983   */\n      tag_221\n      jump\t// in\n    tag_369:\n        /* \"#utility.yul\":10008:10010   */\n      0x40\n        /* \"#utility.yul\":10003:10006   */\n      dup3\n        /* \"#utility.yul\":9999:10011   */\n      add\n        /* \"#utility.yul\":9992:10011   */\n      swap1\n      pop\n        /* \"#utility.yul\":9651:10017   */\n      swap2\n      swap1\n      pop\n      jump\t// out\n        /* \"#utility.yul\":10023:10442   */\n    tag_75:\n        /* \"#utility.yul\":10189:10193   */\n      0x00\n        /* \"#utility.yul\":10227:10229   */\n      0x20\n        /* \"#utility.yul\":10216:10225   */\n      dup3\n        /* \"#utility.yul\":10212:10230   */\n      add\n        /* \"#utility.yul\":10204:10230   */\n      swap1\n      pop\n        /* \"#utility.yul\":10276:10285   */\n      dup2\n        /* \"#utility.yul\":10270:10274   */\n      dup2\n        /* \"#utility.yul\":10266:10286   */\n      sub\n        /* \"#utility.yul\":10262:10263   */\n      0x00\n        /* \"#utility.yul\":10251:10260   */\n      dup4\n        /* \"#utility.yul\":10247:10264   */\n      add\n        /* \"#utility.yul\":10240:10287   */\n      mstore\n        /* \"#utility.yul\":10304:10435   */\n      tag_371\n        /* \"#utility.yul\":10430:10434   */\n      dup2\n        /* \"#utility.yul\":10304:10435   */\n      tag_222\n      jump\t// in\n    tag_371:\n        /* \"#utility.yul\":10296:10435   */\n      swap1\n      pop\n        /* \"#utility.yul\":10023:10442   */\n      swap2\n      swap1\n      pop\n      jump\t// out\n        /* \"#utility.yul\":10448:10668   */\n    tag_223:\n        /* \"#utility.yul\":10588:10622   */\n      0x4552433732313a20617070726f76616c20746f2063757272656e74206f776e65\n        /* \"#utility.yul\":10584:10585   */\n      0x00\n        /* \"#utility.yul\":10576:10582   */\n      dup3\n        /* \"#utility.yul\":10572:10586   */\n      add\n        /* \"#utility.yul\":10565:10623   */\n      mstore\n        /* \"#utility.yul\":10657:10660   */\n      0x7200000000000000000000000000000000000000000000000000000000000000\n        /* \"#utility.yul\":10652:10654   */\n      0x20\n        /* \"#utility.yul\":10644:10650   */\n      dup3\n        /* \"#utility.yul\":10640:10655   */\n      add\n        /* \"#utility.yul\":10633:10661   */\n      mstore\n        /* \"#utility.yul\":10448:10668   */\n      pop\n      jump\t// out\n        /* \"#utility.yul\":10674:11040   */\n    tag_224:\n        /* \"#utility.yul\":10816:10819   */\n      0x00\n        /* \"#utility.yul\":10837:10904   */\n      tag_374\n        /* \"#utility.yul\":10901:10903   */\n      0x21\n        /* \"#utility.yul\":10896:10899   */\n      dup4\n        /* \"#utility.yul\":10837:10904   */\n      tag_220\n      jump\t// in\n    tag_374:\n        /* \"#utility.yul\":10830:10904   */\n      swap2\n      pop\n        /* \"#utility.yul\":10913:11006   */\n      tag_375\n        /* \"#utility.yul\":11002:11005   */\n      dup3\n        /* \"#utility.yul\":10913:11006   */\n      tag_223\n      jump\t// in\n    tag_375:\n        /* \"#utility.yul\":11031:11033   */\n      0x40\n        /* \"#utility.yul\":11026:11029   */\n      dup3\n        /* \"#utility.yul\":11022:11034   */\n      add\n        /* \"#utility.yul\":11015:11034   */\n      swap1\n      pop\n        /* \"#utility.yul\":10674:11040   */\n      swap2\n      swap1\n      pop\n      jump\t// out\n        /* \"#utility.yul\":11046:11465   */\n    tag_80:\n        /* \"#utility.yul\":11212:11216   */\n      0x00\n        /* \"#utility.yul\":11250:11252   */\n      0x20\n        /* \"#utility.yul\":11239:11248   */\n      dup3\n        /* \"#utility.yul\":11235:11253   */\n      add\n        /* \"#utility.yul\":11227:11253   */\n      swap1\n      pop\n        /* \"#utility.yul\":11299:11308   */\n      dup2\n        /* \"#utility.yul\":11293:11297   */\n      dup2\n        /* \"#utility.yul\":11289:11309   */\n      sub\n        /* \"#utility.yul\":11285:11286   */\n      0x00\n        /* \"#utility.yul\":11274:11283   */\n      dup4\n        /* \"#utility.yul\":11270:11287   */\n      add\n        /* \"#utility.yul\":11263:11310   */\n      mstore\n        /* \"#utility.yul\":11327:11458   */\n      tag_377\n        /* \"#utility.yul\":11453:11457   */\n      dup2\n        /* \"#utility.yul\":11327:11458   */\n      tag_224\n      jump\t// in\n    tag_377:\n        /* \"#utility.yul\":11319:11458   */\n      swap1\n      pop\n        /* \"#utility.yul\":11046:11465   */\n      swap2\n      swap1\n      pop\n      jump\t// out\n        /* \"#utility.yul\":11471:11714   */\n    tag_225:\n        /* \"#utility.yul\":11611:11645   */\n      0x4552433732313a20617070726f76652063616c6c6572206973206e6f74206f77\n        /* \"#utility.yul\":11607:11608   */\n      0x00\n        /* \"#utility.yul\":11599:11605   */\n      dup3\n        /* \"#utility.yul\":11595:11609   */\n      add\n        /* \"#utility.yul\":11588:11646   */\n      mstore\n        /* \"#utility.yul\":11680:11706   */\n      0x6e6572206e6f7220617070726f76656420666f7220616c6c0000000000000000\n        /* \"#utility.yul\":11675:11677   */\n      0x20\n        /* \"#utility.yul\":11667:11673   */\n      dup3\n        /* \"#utility.yul\":11663:11678   */\n      add\n        /* \"#utility.yul\":11656:11707   */\n      mstore\n        /* \"#utility.yul\":11471:11714   */\n      pop\n      jump\t// out\n        /* \"#utility.yul\":11720:12086   */\n    tag_226:\n        /* \"#utility.yul\":11862:11865   */\n      0x00\n        /* \"#utility.yul\":11883:11950   */\n      tag_380\n        /* \"#utility.yul\":11947:11949   */\n      0x38\n        /* \"#utility.yul\":11942:11945   */\n      dup4\n        /* \"#utility.yul\":11883:11950   */\n      tag_220\n      jump\t// in\n    tag_380:\n        /* \"#utility.yul\":11876:11950   */\n      swap2\n      pop\n        /* \"#utility.yul\":11959:12052   */\n      tag_381\n        /* \"#utility.yul\":12048:12051   */\n      dup3\n        /* \"#utility.yul\":11959:12052   */\n      tag_225\n      jump\t// in\n    tag_381:\n        /* \"#utility.yul\":12077:12079   */\n      0x40\n        /* \"#utility.yul\":12072:12075   */\n      dup3\n        /* \"#utility.yul\":12068:12080   */\n      add\n        /* \"#utility.yul\":12061:12080   */\n      swap1\n      pop\n        /* \"#utility.yul\":11720:12086   */\n      swap2\n      swap1\n      pop\n      jump\t// out\n        /* \"#utility.yul\":12092:12511   */\n    tag_85:\n        /* \"#utility.yul\":12258:12262   */\n      0x00\n        /* \"#utility.yul\":12296:12298   */\n      0x20\n        /* \"#utility.yul\":12285:12294   */\n      dup3\n        /* \"#utility.yul\":12281:12299   */\n      add\n        /* \"#utility.yul\":12273:12299   */\n      swap1\n      pop\n        /* \"#utility.yul\":12345:12354   */\n      dup2\n        /* \"#utility.yul\":12339:12343   */\n      dup2\n        /* \"#utility.yul\":12335:12355   */\n      sub\n        /* \"#utility.yul\":12331:12332   */\n      0x00\n        /* \"#utility.yul\":12320:12329   */\n      dup4\n        /* \"#utility.yul\":12316:12333   */\n      add\n        /* \"#utility.yul\":12309:12356   */\n      mstore\n        /* \"#utility.yul\":12373:12504   */\n      tag_383\n        /* \"#utility.yul\":12499:12503   */\n      dup2\n        /* \"#utility.yul\":12373:12504   */\n      tag_226\n      jump\t// in\n    tag_383:\n        /* \"#utility.yul\":12365:12504   */\n      swap1\n      pop\n        /* \"#utility.yul\":12092:12511   */\n      swap2\n      swap1\n      pop\n      jump\t// out\n        /* \"#utility.yul\":12517:12753   */\n    tag_227:\n        /* \"#utility.yul\":12657:12691   */\n      0x4552433732313a207472616e736665722063616c6c6572206973206e6f74206f\n        /* \"#utility.yul\":12653:12654   */\n      0x00\n        /* \"#utility.yul\":12645:12651   */\n      dup3\n        /* \"#utility.yul\":12641:12655   */\n      add\n        /* \"#utility.yul\":12634:12692   */\n      mstore\n        /* \"#utility.yul\":12726:12745   */\n      0x776e6572206e6f7220617070726f766564000000000000000000000000000000\n        /* \"#utility.yul\":12721:12723   */\n      0x20\n        /* \"#utility.yul\":12713:12719   */\n      dup3\n        /* \"#utility.yul\":12709:12724   */\n      add\n        /* \"#utility.yul\":12702:12746   */\n      mstore\n        /* \"#utility.yul\":12517:12753   */\n      pop\n      jump\t// out\n        /* \"#utility.yul\":12759:13125   */\n    tag_228:\n        /* \"#utility.yul\":12901:12904   */\n      0x00\n        /* \"#utility.yul\":12922:12989   */\n      tag_386\n        /* \"#utility.yul\":12986:12988   */\n      0x31\n        /* \"#utility.yul\":12981:12984   */\n      dup4\n        /* \"#utility.yul\":12922:12989   */\n      tag_220\n      jump\t// in\n    tag_386:\n        /* \"#utility.yul\":12915:12989   */\n      swap2\n      pop\n        /* \"#utility.yul\":12998:13091   */\n      tag_387\n        /* \"#utility.yul\":13087:13090   */\n      dup3\n        /* \"#utility.yul\":12998:13091   */\n      tag_227\n      jump\t// in\n    tag_387:\n        /* \"#utility.yul\":13116:13118   */\n      0x40\n        /* \"#utility.yul\":13111:13114   */\n      dup3\n        /* \"#utility.yul\":13107:13119   */\n      add\n        /* \"#utility.yul\":13100:13119   */\n      swap1\n      pop\n        /* \"#utility.yul\":12759:13125   */\n      swap2\n      swap1\n      pop\n      jump\t// out\n        /* \"#utility.yul\":13131:13550   */\n    tag_93:\n        /* \"#utility.yul\":13297:13301   */\n      0x00\n        /* \"#utility.yul\":13335:13337   */\n      0x20\n        /* \"#utility.yul\":13324:13333   */\n      dup3\n        /* \"#utility.yul\":13320:13338   */\n      add\n        /* \"#utility.yul\":13312:13338   */\n      swap1\n      pop\n        /* \"#utility.yul\":13384:13393   */\n      dup2\n        /* \"#utility.yul\":13378:13382   */\n      dup2\n        /* \"#utility.yul\":13374:13394   */\n      sub\n        /* \"#utility.yul\":13370:13371   */\n      0x00\n        /* \"#utility.yul\":13359:13368   */\n      dup4\n        /* \"#utility.yul\":13355:13372   */\n      add\n        /* \"#utility.yul\":13348:13395   */\n      mstore\n        /* \"#utility.yul\":13412:13543   */\n      tag_389\n        /* \"#utility.yul\":13538:13542   */\n      dup2\n        /* \"#utility.yul\":13412:13543   */\n      tag_228\n      jump\t// in\n    tag_389:\n        /* \"#utility.yul\":13404:13543   */\n      swap1\n      pop\n        /* \"#utility.yul\":13131:13550   */\n      swap2\n      swap1\n      pop\n      jump\t// out\n        /* \"#utility.yul\":13556:13784   */\n    tag_229:\n        /* \"#utility.yul\":13696:13730   */\n      0x4552433732313a206f776e657220717565727920666f72206e6f6e6578697374\n        /* \"#utility.yul\":13692:13693   */\n      0x00\n        /* \"#utility.yul\":13684:13690   */\n      dup3\n        /* \"#utility.yul\":13680:13694   */\n      add\n        /* \"#utility.yul\":13673:13731   */\n      mstore\n        /* \"#utility.yul\":13765:13776   */\n      0x656e7420746f6b656e0000000000000000000000000000000000000000000000\n        /* \"#utility.yul\":13760:13762   */\n      0x20\n        /* \"#utility.yul\":13752:13758   */\n      dup3\n        /* \"#utility.yul\":13748:13763   */\n      add\n        /* \"#utility.yul\":13741:13777   */\n      mstore\n        /* \"#utility.yul\":13556:13784   */\n      pop\n      jump\t// out\n        /* \"#utility.yul\":13790:14156   */\n    tag_230:\n        /* \"#utility.yul\":13932:13935   */\n      0x00\n        /* \"#utility.yul\":13953:14020   */\n      tag_392\n        /* \"#utility.yul\":14017:14019   */\n      0x29\n        /* \"#utility.yul\":14012:14015   */\n      dup4\n        /* \"#utility.yul\":13953:14020   */\n      tag_220\n      jump\t// in\n    tag_392:\n        /* \"#utility.yul\":13946:14020   */\n      swap2\n      pop\n        /* \"#utility.yul\":14029:14122   */\n      tag_393\n        /* \"#utility.yul\":14118:14121   */\n      dup3\n        /* \"#utility.yul\":14029:14122   */\n      tag_229\n      jump\t// in\n    tag_393:\n        /* \"#utility.yul\":14147:14149   */\n      0x40\n        /* \"#utility.yul\":14142:14145   */\n      dup3\n        /* \"#utility.yul\":14138:14150   */\n      add\n        /* \"#utility.yul\":14131:14150   */\n      swap1\n      pop\n        /* \"#utility.yul\":13790:14156   */\n      swap2\n      swap1\n      pop\n      jump\t// out\n        /* \"#utility.yul\":14162:14581   */\n    tag_107:\n        /* \"#utility.yul\":14328:14332   */\n      0x00\n        /* \"#utility.yul\":14366:14368   */\n      0x20\n        /* \"#utility.yul\":14355:14364   */\n      dup3\n        /* \"#utility.yul\":14351:14369   */\n      add\n        /* \"#utility.yul\":14343:14369   */\n      swap1\n      pop\n        /* \"#utility.yul\":14415:14424   */\n      dup2\n        /* \"#utility.yul\":14409:14413   */\n      dup2\n        /* \"#utility.yul\":14405:14425   */\n      sub\n        /* \"#utility.yul\":14401:14402   */\n      0x00\n        /* \"#utility.yul\":14390:14399   */\n      dup4\n        /* \"#utility.yul\":14386:14403   */\n      add\n        /* \"#utility.yul\":14379:14426   */\n      mstore\n        /* \"#utility.yul\":14443:14574   */\n      tag_395\n        /* \"#utility.yul\":14569:14573   */\n      dup2\n        /* \"#utility.yul\":14443:14574   */\n      tag_230\n      jump\t// in\n    tag_395:\n        /* \"#utility.yul\":14435:14574   */\n      swap1\n      pop\n        /* \"#utility.yul\":14162:14581   */\n      swap2\n      swap1\n      pop\n      jump\t// out\n        /* \"#utility.yul\":14587:14816   */\n    tag_231:\n        /* \"#utility.yul\":14727:14761   */\n      0x4552433732313a2062616c616e636520717565727920666f7220746865207a65\n        /* \"#utility.yul\":14723:14724   */\n      0x00\n        /* \"#utility.yul\":14715:14721   */\n      dup3\n        /* \"#utility.yul\":14711:14725   */\n      add\n        /* \"#utility.yul\":14704:14762   */\n      mstore\n        /* \"#utility.yul\":14796:14808   */\n      0x726f206164647265737300000000000000000000000000000000000000000000\n        /* \"#utility.yul\":14791:14793   */\n      0x20\n        /* \"#utility.yul\":14783:14789   */\n      dup3\n        /* \"#utility.yul\":14779:14794   */\n      add\n        /* \"#utility.yul\":14772:14809   */\n      mstore\n        /* \"#utility.yul\":14587:14816   */\n      pop\n      jump\t// out\n        /* \"#utility.yul\":14822:15188   */\n    tag_232:\n        /* \"#utility.yul\":14964:14967   */\n      0x00\n        /* \"#utility.yul\":14985:15052   */\n      tag_398\n        /* \"#utility.yul\":15049:15051   */\n      0x2a\n        /* \"#utility.yul\":15044:15047   */\n      dup4\n        /* \"#utility.yul\":14985:15052   */\n      tag_220\n      jump\t// in\n    tag_398:\n        /* \"#utility.yul\":14978:15052   */\n      swap2\n      pop\n        /* \"#utility.yul\":15061:15154   */\n      tag_399\n        /* \"#utility.yul\":15150:15153   */\n      dup3\n        /* \"#utility.yul\":15061:15154   */\n      tag_231\n      jump\t// in\n    tag_399:\n        /* \"#utility.yul\":15179:15181   */\n      0x40\n        /* \"#utility.yul\":15174:15177   */\n      dup3\n        /* \"#utility.yul\":15170:15182   */\n      add\n        /* \"#utility.yul\":15163:15182   */\n      swap1\n      pop\n        /* \"#utility.yul\":14822:15188   */\n      swap2\n      swap1\n      pop\n      jump\t// out\n        /* \"#utility.yul\":15194:15613   */\n    tag_111:\n        /* \"#utility.yul\":15360:15364   */\n      0x00\n        /* \"#utility.yul\":15398:15400   */\n      0x20\n        /* \"#utility.yul\":15387:15396   */\n      dup3\n        /* \"#utility.yul\":15383:15401   */\n      add\n        /* \"#utility.yul\":15375:15401   */\n      swap1\n      pop\n        /* \"#utility.yul\":15447:15456   */\n      dup2\n        /* \"#utility.yul\":15441:15445   */\n      dup2\n        /* \"#utility.yul\":15437:15457   */\n      sub\n        /* \"#utility.yul\":15433:15434   */\n      0x00\n        /* \"#utility.yul\":15422:15431   */\n      dup4\n        /* \"#utility.yul\":15418:15435   */\n      add\n        /* \"#utility.yul\":15411:15458   */\n      mstore\n        /* \"#utility.yul\":15475:15606   */\n      tag_401\n        /* \"#utility.yul\":15601:15605   */\n      dup2\n        /* \"#utility.yul\":15475:15606   */\n      tag_232\n      jump\t// in\n    tag_401:\n        /* \"#utility.yul\":15467:15606   */\n      swap1\n      pop\n        /* \"#utility.yul\":15194:15613   */\n      swap2\n      swap1\n      pop\n      jump\t// out\n        /* \"#utility.yul\":15619:15794   */\n    tag_233:\n        /* \"#utility.yul\":15759:15786   */\n      0x4552433732313a20617070726f766520746f2063616c6c657200000000000000\n        /* \"#utility.yul\":15755:15756   */\n      0x00\n        /* \"#utility.yul\":15747:15753   */\n      dup3\n        /* \"#utility.yul\":15743:15757   */\n      add\n        /* \"#utility.yul\":15736:15787   */\n      mstore\n        /* \"#utility.yul\":15619:15794   */\n      pop\n      jump\t// out\n        /* \"#utility.yul\":15800:16166   */\n    tag_234:\n        /* \"#utility.yul\":15942:15945   */\n      0x00\n        /* \"#utility.yul\":15963:16030   */\n      tag_404\n        /* \"#utility.yul\":16027:16029   */\n      0x19\n        /* \"#utility.yul\":16022:16025   */\n      dup4\n        /* \"#utility.yul\":15963:16030   */\n      tag_220\n      jump\t// in\n    tag_404:\n        /* \"#utility.yul\":15956:16030   */\n      swap2\n      pop\n        /* \"#utility.yul\":16039:16132   */\n      tag_405\n        /* \"#utility.yul\":16128:16131   */\n      dup3\n        /* \"#utility.yul\":16039:16132   */\n      tag_233\n      jump\t// in\n    tag_405:\n        /* \"#utility.yul\":16157:16159   */\n      0x20\n        /* \"#utility.yul\":16152:16155   */\n      dup3\n        /* \"#utility.yul\":16148:16160   */\n      add\n        /* \"#utility.yul\":16141:16160   */\n      swap1\n      pop\n        /* \"#utility.yul\":15800:16166   */\n      swap2\n      swap1\n      pop\n      jump\t// out\n        /* \"#utility.yul\":16172:16591   */\n    tag_115:\n        /* \"#utility.yul\":16338:16342   */\n      0x00\n        /* \"#utility.yul\":16376:16378   */\n      0x20\n        /* \"#utility.yul\":16365:16374   */\n      dup3\n        /* \"#utility.yul\":16361:16379   */\n      add\n        /* \"#utility.yul\":16353:16379   */\n      swap1\n      pop\n        /* \"#utility.yul\":16425:16434   */\n      dup2\n        /* \"#utility.yul\":16419:16423   */\n      dup2\n        /* \"#utility.yul\":16415:16435   */\n      sub\n        /* \"#utility.yul\":16411:16412   */\n      0x00\n        /* \"#utility.yul\":16400:16409   */\n      dup4\n        /* \"#utility.yul\":16396:16413   */\n      add\n        /* \"#utility.yul\":16389:16436   */\n      mstore\n        /* \"#utility.yul\":16453:16584   */\n      tag_407\n        /* \"#utility.yul\":16579:16583   */\n      dup2\n        /* \"#utility.yul\":16453:16584   */\n      tag_234\n      jump\t// in\n    tag_407:\n        /* \"#utility.yul\":16445:16584   */\n      swap1\n      pop\n        /* \"#utility.yul\":16172:16591   */\n      swap2\n      swap1\n      pop\n      jump\t// out\n        /* \"#utility.yul\":16597:16828   */\n    tag_235:\n        /* \"#utility.yul\":16737:16771   */\n      0x4552433732313a206f70657261746f7220717565727920666f72206e6f6e6578\n        /* \"#utility.yul\":16733:16734   */\n      0x00\n        /* \"#utility.yul\":16725:16731   */\n      dup3\n        /* \"#utility.yul\":16721:16735   */\n      add\n        /* \"#utility.yul\":16714:16772   */\n      mstore\n        /* \"#utility.yul\":16806:16820   */\n      0x697374656e7420746f6b656e0000000000000000000000000000000000000000\n        /* \"#utility.yul\":16801:16803   */\n      0x20\n        /* \"#utility.yul\":16793:16799   */\n      dup3\n        /* \"#utility.yul\":16789:16804   */\n      add\n        /* \"#utility.yul\":16782:16821   */\n      mstore\n        /* \"#utility.yul\":16597:16828   */\n      pop\n      jump\t// out\n        /* \"#utility.yul\":16834:17200   */\n    tag_236:\n        /* \"#utility.yul\":16976:16979   */\n      0x00\n        /* \"#utility.yul\":16997:17064   */\n      tag_410\n        /* \"#utility.yul\":17061:17063   */\n      0x2c\n        /* \"#utility.yul\":17056:17059   */\n      dup4\n        /* \"#utility.yul\":16997:17064   */\n      tag_220\n      jump\t// in\n    tag_410:\n        /* \"#utility.yul\":16990:17064   */\n      swap2\n      pop\n        /* \"#utility.yul\":17073:17166   */\n      tag_411\n        /* \"#utility.yul\":17162:17165   */\n      dup3\n        /* \"#utility.yul\":17073:17166   */\n      tag_235\n      jump\t// in\n    tag_411:\n        /* \"#utility.yul\":17191:17193   */\n      0x40\n        /* \"#utility.yul\":17186:17189   */\n      dup3\n        /* \"#utility.yul\":17182:17194   */\n      add\n        /* \"#utility.yul\":17175:17194   */\n      swap1\n      pop\n        /* \"#utility.yul\":16834:17200   */\n      swap2\n      swap1\n      pop\n      jump\t// out\n        /* \"#utility.yul\":17206:17625   */\n    tag_131:\n        /* \"#utility.yul\":17372:17376   */\n      0x00\n        /* \"#utility.yul\":17410:17412   */\n      0x20\n        /* \"#utility.yul\":17399:17408   */\n      dup3\n        /* \"#utility.yul\":17395:17413   */\n      add\n        /* \"#utility.yul\":17387:17413   */\n      swap1\n      pop\n        /* \"#utility.yul\":17459:17468   */\n      dup2\n        /* \"#utility.yul\":17453:17457   */\n      dup2\n        /* \"#utility.yul\":17449:17469   */\n      sub\n        /* \"#utility.yul\":17445:17446   */\n      0x00\n        /* \"#utility.yul\":17434:17443   */\n      dup4\n        /* \"#utility.yul\":17430:17447   */\n      add\n        /* \"#utility.yul\":17423:17470   */\n      mstore\n        /* \"#utility.yul\":17487:17618   */\n      tag_413\n        /* \"#utility.yul\":17613:17617   */\n      dup2\n        /* \"#utility.yul\":17487:17618   */\n      tag_236\n      jump\t// in\n    tag_413:\n        /* \"#utility.yul\":17479:17618   */\n      swap1\n      pop\n        /* \"#utility.yul\":17206:17625   */\n      swap2\n      swap1\n      pop\n      jump\t// out\n        /* \"#utility.yul\":17631:17859   */\n    tag_237:\n        /* \"#utility.yul\":17771:17805   */\n      0x4552433732313a207472616e73666572206f6620746f6b656e20746861742069\n        /* \"#utility.yul\":17767:17768   */\n      0x00\n        /* \"#utility.yul\":17759:17765   */\n      dup3\n        /* \"#utility.yul\":17755:17769   */\n      add\n        /* \"#utility.yul\":17748:17806   */\n      mstore\n        /* \"#utility.yul\":17840:17851   */\n      0x73206e6f74206f776e0000000000000000000000000000000000000000000000\n        /* \"#utility.yul\":17835:17837   */\n      0x20\n        /* \"#utility.yul\":17827:17833   */\n      dup3\n        /* \"#utility.yul\":17823:17838   */\n      add\n        /* \"#utility.yul\":17816:17852   */\n      mstore\n        /* \"#utility.yul\":17631:17859   */\n      pop\n      jump\t// out\n        /* \"#utility.yul\":17865:18231   */\n    tag_238:\n        /* \"#utility.yul\":18007:18010   */\n      0x00\n        /* \"#utility.yul\":18028:18095   */\n      tag_416\n        /* \"#utility.yul\":18092:18094   */\n      0x29\n        /* \"#utility.yul\":18087:18090   */\n      dup4\n        /* \"#utility.yul\":18028:18095   */\n      tag_220\n      jump\t// in\n    tag_416:\n        /* \"#utility.yul\":18021:18095   */\n      swap2\n      pop\n        /* \"#utility.yul\":18104:18197   */\n      tag_417\n        /* \"#utility.yul\":18193:18196   */\n      dup3\n        /* \"#utility.yul\":18104:18197   */\n      tag_237\n      jump\t// in\n    tag_417:\n        /* \"#utility.yul\":18222:18224   */\n      0x40\n        /* \"#utility.yul\":18217:18220   */\n      dup3\n        /* \"#utility.yul\":18213:18225   */\n      add\n        /* \"#utility.yul\":18206:18225   */\n      swap1\n      pop\n        /* \"#utility.yul\":17865:18231   */\n      swap2\n      swap1\n      pop\n      jump\t// out\n        /* \"#utility.yul\":18237:18656   */\n    tag_141:\n        /* \"#utility.yul\":18403:18407   */\n      0x00\n        /* \"#utility.yul\":18441:18443   */\n      0x20\n        /* \"#utility.yul\":18430:18439   */\n      dup3\n        /* \"#utility.yul\":18426:18444   */\n      add\n        /* \"#utility.yul\":18418:18444   */\n      swap1\n      pop\n        /* \"#utility.yul\":18490:18499   */\n      dup2\n        /* \"#utility.yul\":18484:18488   */\n      dup2\n        /* \"#utility.yul\":18480:18500   */\n      sub\n        /* \"#utility.yul\":18476:18477   */\n      0x00\n        /* \"#utility.yul\":18465:18474   */\n      dup4\n        /* \"#utility.yul\":18461:18478   */\n      add\n        /* \"#utility.yul\":18454:18501   */\n      mstore\n        /* \"#utility.yul\":18518:18649   */\n      tag_419\n        /* \"#utility.yul\":18644:18648   */\n      dup2\n        /* \"#utility.yul\":18518:18649   */\n      tag_238\n      jump\t// in\n    tag_419:\n        /* \"#utility.yul\":18510:18649   */\n      swap1\n      pop\n        /* \"#utility.yul\":18237:18656   */\n      swap2\n      swap1\n      pop\n      jump\t// out\n        /* \"#utility.yul\":18662:18885   */\n    tag_239:\n        /* \"#utility.yul\":18802:18836   */\n      0x4552433732313a207472616e7366657220746f20746865207a65726f20616464\n        /* \"#utility.yul\":18798:18799   */\n      0x00\n        /* \"#utility.yul\":18790:18796   */\n      dup3\n        /* \"#utility.yul\":18786:18800   */\n      add\n        /* \"#utility.yul\":18779:18837   */\n      mstore\n        /* \"#utility.yul\":18871:18877   */\n      0x7265737300000000000000000000000000000000000000000000000000000000\n        /* \"#utility.yul\":18866:18868   */\n      0x20\n        /* \"#utility.yul\":18858:18864   */\n      dup3\n        /* \"#utility.yul\":18854:18869   */\n      add\n        /* \"#utility.yul\":18847:18878   */\n      mstore\n        /* \"#utility.yul\":18662:18885   */\n      pop\n      jump\t// out\n        /* \"#utility.yul\":18891:19257   */\n    tag_240:\n        /* \"#utility.yul\":19033:19036   */\n      0x00\n        /* \"#utility.yul\":19054:19121   */\n      tag_422\n        /* \"#utility.yul\":19118:19120   */\n      0x24\n        /* \"#utility.yul\":19113:19116   */\n      dup4\n        /* \"#utility.yul\":19054:19121   */\n      tag_220\n      jump\t// in\n    tag_422:\n        /* \"#utility.yul\":19047:19121   */\n      swap2\n      pop\n        /* \"#utility.yul\":19130:19223   */\n      tag_423\n        /* \"#utility.yul\":19219:19222   */\n      dup3\n        /* \"#utility.yul\":19130:19223   */\n      tag_239\n      jump\t// in\n    tag_423:\n        /* \"#utility.yul\":19248:19250   */\n      0x40\n        /* \"#utility.yul\":19243:19246   */\n      dup3\n        /* \"#utility.yul\":19239:19251   */\n      add\n        /* \"#utility.yul\":19232:19251   */\n      swap1\n      pop\n        /* \"#utility.yul\":18891:19257   */\n      swap2\n      swap1\n      pop\n      jump\t// out\n        /* \"#utility.yul\":19263:19682   */\n    tag_144:\n        /* \"#utility.yul\":19429:19433   */\n      0x00\n        /* \"#utility.yul\":19467:19469   */\n      0x20\n        /* \"#utility.yul\":19456:19465   */\n      dup3\n        /* \"#utility.yul\":19452:19470   */\n      add\n        /* \"#utility.yul\":19444:19470   */\n      swap1\n      pop\n        /* \"#utility.yul\":19516:19525   */\n      dup2\n        /* \"#utility.yul\":19510:19514   */\n      dup2\n        /* \"#utility.yul\":19506:19526   */\n      sub\n        /* \"#utility.yul\":19502:19503   */\n      0x00\n        /* \"#utility.yul\":19491:19500   */\n      dup4\n        /* \"#utility.yul\":19487:19504   */\n      add\n        /* \"#utility.yul\":19480:19527   */\n      mstore\n        /* \"#utility.yul\":19544:19675   */\n      tag_425\n        /* \"#utility.yul\":19670:19674   */\n      dup2\n        /* \"#utility.yul\":19544:19675   */\n      tag_240\n      jump\t// in\n    tag_425:\n        /* \"#utility.yul\":19536:19675   */\n      swap1\n      pop\n        /* \"#utility.yul\":19263:19682   */\n      swap2\n      swap1\n      pop\n      jump\t// out\n        /* \"#utility.yul\":19688:19868   */\n    tag_241:\n        /* \"#utility.yul\":19736:19813   */\n      0x4e487b7100000000000000000000000000000000000000000000000000000000\n        /* \"#utility.yul\":19733:19734   */\n      0x00\n        /* \"#utility.yul\":19726:19814   */\n      mstore\n        /* \"#utility.yul\":19833:19837   */\n      0x11\n        /* \"#utility.yul\":19830:19831   */\n      0x04\n        /* \"#utility.yul\":19823:19838   */\n      mstore\n        /* \"#utility.yul\":19857:19861   */\n      0x24\n        /* \"#utility.yul\":19854:19855   */\n      0x00\n        /* \"#utility.yul\":19847:19862   */\n      revert\n        /* \"#utility.yul\":19874:20068   */\n    tag_147:\n        /* \"#utility.yul\":19914:19918   */\n      0x00\n        /* \"#utility.yul\":19934:19954   */\n      tag_428\n        /* \"#utility.yul\":19952:19953   */\n      dup3\n        /* \"#utility.yul\":19934:19954   */\n      tag_199\n      jump\t// in\n    tag_428:\n        /* \"#utility.yul\":19929:19954   */\n      swap2\n      pop\n        /* \"#utility.yul\":19968:19988   */\n      tag_429\n        /* \"#utility.yul\":19986:19987   */\n      dup4\n        /* \"#utility.yul\":19968:19988   */\n      tag_199\n      jump\t// in\n    tag_429:\n        /* \"#utility.yul\":19963:19988   */\n      swap3\n      pop\n        /* \"#utility.yul\":20012:20013   */\n      dup3\n        /* \"#utility.yul\":20009:20010   */\n      dup3\n        /* \"#utility.yul\":20005:20014   */\n      sub\n        /* \"#utility.yul\":19997:20014   */\n      swap1\n      pop\n        /* \"#utility.yul\":20036:20037   */\n      dup2\n        /* \"#utility.yul\":20030:20034   */\n      dup2\n        /* \"#utility.yul\":20027:20038   */\n      gt\n        /* \"#utility.yul\":20024:20061   */\n      iszero\n      tag_430\n      jumpi\n        /* \"#utility.yul\":20041:20059   */\n      tag_431\n      tag_241\n      jump\t// in\n    tag_431:\n        /* \"#utility.yul\":20024:20061   */\n    tag_430:\n        /* \"#utility.yul\":19874:20068   */\n      swap3\n      swap2\n      pop\n      pop\n      jump\t// out\n        /* \"#utility.yul\":20074:20265   */\n    tag_149:\n        /* \"#utility.yul\":20114:20117   */\n      0x00\n        /* \"#utility.yul\":20133:20153   */\n      tag_433\n        /* \"#utility.yul\":20151:20152   */\n      dup3\n        /* \"#utility.yul\":20133:20153   */\n      tag_199\n      jump\t// in\n    tag_433:\n        /* \"#utility.yul\":20128:20153   */\n      swap2\n      pop\n        /* \"#utility.yul\":20167:20187   */\n      tag_434\n        /* \"#utility.yul\":20185:20186   */\n      dup4\n        /* \"#utility.yul\":20167:20187   */\n      tag_199\n      jump\t// in\n    tag_434:\n        /* \"#utility.yul\":20162:20187   */\n      swap3\n      pop\n        /* \"#utility.yul\":20210:20211   */\n      dup3\n        /* \"#utility.yul\":20207:20208   */\n      dup3\n        /* \"#utility.yul\":20203:20212   */\n      add\n        /* \"#utility.yul\":20196:20212   */\n      swap1\n      pop\n        /* \"#utility.yul\":20231:20234   */\n      dup1\n        /* \"#utility.yul\":20228:20229   */\n      dup3\n        /* \"#utility.yul\":20225:20235   */\n      gt\n        /* \"#utility.yul\":20222:20258   */\n      iszero\n      tag_435\n      jumpi\n        /* \"#utility.yul\":20238:20256   */\n      tag_436\n      tag_241\n      jump\t// in\n    tag_436:\n        /* \"#utility.yul\":20222:20258   */\n    tag_435:\n        /* \"#utility.yul\":20074:20265   */\n      swap3\n      swap2\n      pop\n      pop\n      jump\t// out\n        /* \"#utility.yul\":20271:20453   */\n    tag_242:\n        /* \"#utility.yul\":20411:20445   */\n      0x4552433732313a206d696e7420746f20746865207a65726f2061646472657373\n        /* \"#utility.yul\":20407:20408   */\n      0x00\n        /* \"#utility.yul\":20399:20405   */\n      dup3\n        /* \"#utility.yul\":20395:20409   */\n      add\n        /* \"#utility.yul\":20388:20446   */\n      mstore\n        /* \"#utility.yul\":20271:20453   */\n      pop\n      jump\t// out\n        /* \"#utility.yul\":20459:20825   */\n    tag_243:\n        /* \"#utility.yul\":20601:20604   */\n      0x00\n        /* \"#utility.yul\":20622:20689   */\n      tag_439\n        /* \"#utility.yul\":20686:20688   */\n      0x20\n        /* \"#utility.yul\":20681:20684   */\n      dup4\n        /* \"#utility.yul\":20622:20689   */\n      tag_220\n      jump\t// in\n    tag_439:\n        /* \"#utility.yul\":20615:20689   */\n      swap2\n      pop\n        /* \"#utility.yul\":20698:20791   */\n      tag_440\n        /* \"#utility.yul\":20787:20790   */\n      dup3\n        /* \"#utility.yul\":20698:20791   */\n      tag_242\n      jump\t// in\n    tag_440:\n        /* \"#utility.yul\":20816:20818   */\n      0x20\n        /* \"#utility.yul\":20811:20814   */\n      dup3\n        /* \"#utility.yul\":20807:20819   */\n      add\n        /* \"#utility.yul\":20800:20819   */\n      swap1\n      pop\n        /* \"#utility.yul\":20459:20825   */\n      swap2\n      swap1\n      pop\n      jump\t// out\n        /* \"#utility.yul\":20831:21250   */\n    tag_153:\n        /* \"#utility.yul\":20997:21001   */\n      0x00\n        /* \"#utility.yul\":21035:21037   */\n      0x20\n        /* \"#utility.yul\":21024:21033   */\n      dup3\n        /* \"#utility.yul\":21020:21038   */\n      add\n        /* \"#utility.yul\":21012:21038   */\n      swap1\n      pop\n        /* \"#utility.yul\":21084:21093   */\n      dup2\n        /* \"#utility.yul\":21078:21082   */\n      dup2\n        /* \"#utility.yul\":21074:21094   */\n      sub\n        /* \"#utility.yul\":21070:21071   */\n      0x00\n        /* \"#utility.yul\":21059:21068   */\n      dup4\n        /* \"#utility.yul\":21055:21072   */\n      add\n        /* \"#utility.yul\":21048:21095   */\n      mstore\n        /* \"#utility.yul\":21112:21243   */\n      tag_442\n        /* \"#utility.yul\":21238:21242   */\n      dup2\n        /* \"#utility.yul\":21112:21243   */\n      tag_243\n      jump\t// in\n    tag_442:\n        /* \"#utility.yul\":21104:21243   */\n      swap1\n      pop\n        /* \"#utility.yul\":20831:21250   */\n      swap2\n      swap1\n      pop\n      jump\t// out\n        /* \"#utility.yul\":21256:21434   */\n    tag_244:\n        /* \"#utility.yul\":21396:21426   */\n      0x4552433732313a20746f6b656e20616c7265616479206d696e74656400000000\n        /* \"#utility.yul\":21392:21393   */\n      0x00\n        /* \"#utility.yul\":21384:21390   */\n      dup3\n        /* \"#utility.yul\":21380:21394   */\n      add\n        /* \"#utility.yul\":21373:21427   */\n      mstore\n        /* \"#utility.yul\":21256:21434   */\n      pop\n      jump\t// out\n        /* \"#utility.yul\":21440:21806   */\n    tag_245:\n        /* \"#utility.yul\":21582:21585   */\n      0x00\n        /* \"#utility.yul\":21603:21670   */\n      tag_445\n        /* \"#utility.yul\":21667:21669   */\n      0x1c\n        /* \"#utility.yul\":21662:21665   */\n      dup4\n        /* \"#utility.yul\":21603:21670   */\n      tag_220\n      jump\t// in\n    tag_445:\n        /* \"#utility.yul\":21596:21670   */\n      swap2\n      pop\n        /* \"#utility.yul\":21679:21772   */\n      tag_446\n        /* \"#utility.yul\":21768:21771   */\n      dup3\n        /* \"#utility.yul\":21679:21772   */\n      tag_244\n      jump\t// in\n    tag_446:\n        /* \"#utility.yul\":21797:21799   */\n      0x20\n        /* \"#utility.yul\":21792:21795   */\n      dup3\n        /* \"#utility.yul\":21788:21800   */\n      add\n        /* \"#utility.yul\":21781:21800   */\n      swap1\n      pop\n        /* \"#utility.yul\":21440:21806   */\n      swap2\n      swap1\n      pop\n      jump\t// out\n        /* \"#utility.yul\":21812:22231   */\n    tag_157:\n        /* \"#utility.yul\":21978:21982   */\n      0x00\n        /* \"#utility.yul\":22016:22018   */\n      0x20\n        /* \"#utility.yul\":22005:22014   */\n      dup3\n        /* \"#utility.yul\":22001:22019   */\n      add\n        /* \"#utility.yul\":21993:22019   */\n      swap1\n      pop\n        /* \"#utility.yul\":22065:22074   */\n      dup2\n        /* \"#utility.yul\":22059:22063   */\n      dup2\n        /* \"#utility.yul\":22055:22075   */\n      sub\n        /* \"#utility.yul\":22051:22052   */\n      0x00\n        /* \"#utility.yul\":22040:22049   */\n      dup4\n        /* \"#utility.yul\":22036:22053   */\n      add\n        /* \"#utility.yul\":22029:22076   */\n      mstore\n        /* \"#utility.yul\":22093:22224   */\n      tag_448\n        /* \"#utility.yul\":22219:22223   */\n      dup2\n        /* \"#utility.yul\":22093:22224   */\n      tag_245\n      jump\t// in\n    tag_448:\n        /* \"#utility.yul\":22085:22224   */\n      swap1\n      pop\n        /* \"#utility.yul\":21812:22231   */\n      swap2\n      swap1\n      pop\n      jump\t// out\n        /* \"#utility.yul\":22237:22461   */\n    tag_246:\n        /* \"#utility.yul\":22377:22411   */\n      0x4552433732313a206275726e206f6620746f6b656e2074686174206973206e6f\n        /* \"#utility.yul\":22373:22374   */\n      0x00\n        /* \"#utility.yul\":22365:22371   */\n      dup3\n        /* \"#utility.yul\":22361:22375   */\n      add\n        /* \"#utility.yul\":22354:22412   */\n      mstore\n        /* \"#utility.yul\":22446:22453   */\n      0x74206f776e000000000000000000000000000000000000000000000000000000\n        /* \"#utility.yul\":22441:22443   */\n      0x20\n        /* \"#utility.yul\":22433:22439   */\n      dup3\n        /* \"#utility.yul\":22429:22444   */\n      add\n        /* \"#utility.yul\":22422:22454   */\n      mstore\n        /* \"#utility.yul\":22237:22461   */\n      pop\n      jump\t// out\n        /* \"#utility.yul\":22467:22833   */\n    tag_247:\n        /* \"#utility.yul\":22609:22612   */\n      0x00\n        /* \"#utility.yul\":22630:22697   */\n      tag_451\n        /* \"#utility.yul\":22694:22696   */\n      0x25\n        /* \"#utility.yul\":22689:22692   */\n      dup4\n        /* \"#utility.yul\":22630:22697   */\n      tag_220\n      jump\t// in\n    tag_451:\n        /* \"#utility.yul\":22623:22697   */\n      swap2\n      pop\n        /* \"#utility.yul\":22706:22799   */\n      tag_452\n        /* \"#utility.yul\":22795:22798   */\n      dup3\n        /* \"#utility.yul\":22706:22799   */\n      tag_246\n      jump\t// in\n    tag_452:\n        /* \"#utility.yul\":22824:22826   */\n      0x40\n        /* \"#utility.yul\":22819:22822   */\n      dup3\n        /* \"#utility.yul\":22815:22827   */\n      add\n        /* \"#utility.yul\":22808:22827   */\n      swap1\n      pop\n        /* \"#utility.yul\":22467:22833   */\n      swap2\n      swap1\n      pop\n      jump\t// out\n        /* \"#utility.yul\":22839:23258   */\n    tag_163:\n        /* \"#utility.yul\":23005:23009   */\n      0x00\n        /* \"#utility.yul\":23043:23045   */\n      0x20\n        /* \"#utility.yul\":23032:23041   */\n      dup3\n        /* \"#utility.yul\":23028:23046   */\n      add\n        /* \"#utility.yul\":23020:23046   */\n      swap1\n      pop\n        /* \"#utility.yul\":23092:23101   */\n      dup2\n        /* \"#utility.yul\":23086:23090   */\n      dup2\n        /* \"#utility.yul\":23082:23102   */\n      sub\n        /* \"#utility.yul\":23078:23079   */\n      0x00\n        /* \"#utility.yul\":23067:23076   */\n      dup4\n        /* \"#utility.yul\":23063:23080   */\n      add\n        /* \"#utility.yul\":23056:23103   */\n      mstore\n        /* \"#utility.yul\":23120:23251   */\n      tag_454\n        /* \"#utility.yul\":23246:23250   */\n      dup2\n        /* \"#utility.yul\":23120:23251   */\n      tag_247\n      jump\t// in\n    tag_454:\n        /* \"#utility.yul\":23112:23251   */\n      swap1\n      pop\n        /* \"#utility.yul\":22839:23258   */\n      swap2\n      swap1\n      pop\n      jump\t// out\n        /* \"#utility.yul\":23264:23501   */\n    tag_248:\n        /* \"#utility.yul\":23404:23438   */\n      0x4552433732313a207472616e7366657220746f206e6f6e204552433732315265\n        /* \"#utility.yul\":23400:23401   */\n      0x00\n        /* \"#utility.yul\":23392:23398   */\n      dup3\n        /* \"#utility.yul\":23388:23402   */\n      add\n        /* \"#utility.yul\":23381:23439   */\n      mstore\n        /* \"#utility.yul\":23473:23493   */\n      0x63656976657220696d706c656d656e7465720000000000000000000000000000\n        /* \"#utility.yul\":23468:23470   */\n      0x20\n        /* \"#utility.yul\":23460:23466   */\n      dup3\n        /* \"#utility.yul\":23456:23471   */\n      add\n        /* \"#utility.yul\":23449:23494   */\n      mstore\n        /* \"#utility.yul\":23264:23501   */\n      pop\n      jump\t// out\n        /* \"#utility.yul\":23507:23873   */\n    tag_249:\n        /* \"#utility.yul\":23649:23652   */\n      0x00\n        /* \"#utility.yul\":23670:23737   */\n      tag_457\n        /* \"#utility.yul\":23734:23736   */\n      0x32\n        /* \"#utility.yul\":23729:23732   */\n      dup4\n        /* \"#utility.yul\":23670:23737   */\n      tag_220\n      jump\t// in\n    tag_457:\n        /* \"#utility.yul\":23663:23737   */\n      swap2\n      pop\n        /* \"#utility.yul\":23746:23839   */\n      tag_458\n        /* \"#utility.yul\":23835:23838   */\n      dup3\n        /* \"#utility.yul\":23746:23839   */\n      tag_248\n      jump\t// in\n    tag_458:\n        /* \"#utility.yul\":23864:23866   */\n      0x40\n        /* \"#utility.yul\":23859:23862   */\n      dup3\n        /* \"#utility.yul\":23855:23867   */\n      add\n        /* \"#utility.yul\":23848:23867   */\n      swap1\n      pop\n        /* \"#utility.yul\":23507:23873   */\n      swap2\n      swap1\n      pop\n      jump\t// out\n        /* \"#utility.yul\":23879:24298   */\n    tag_172:\n        /* \"#utility.yul\":24045:24049   */\n      0x00\n        /* \"#utility.yul\":24083:24085   */\n      0x20\n        /* \"#utility.yul\":24072:24081   */\n      dup3\n        /* \"#utility.yul\":24068:24086   */\n      add\n        /* \"#utility.yul\":24060:24086   */\n      swap1\n      pop\n        /* \"#utility.yul\":24132:24141   */\n      dup2\n        /* \"#utility.yul\":24126:24130   */\n      dup2\n        /* \"#utility.yul\":24122:24142   */\n      sub\n        /* \"#utility.yul\":24118:24119   */\n      0x00\n        /* \"#utility.yul\":24107:24116   */\n      dup4\n        /* \"#utility.yul\":24103:24120   */\n      add\n        /* \"#utility.yul\":24096:24143   */\n      mstore\n        /* \"#utility.yul\":24160:24291   */\n      tag_460\n        /* \"#utility.yul\":24286:24290   */\n      dup2\n        /* \"#utility.yul\":24160:24291   */\n      tag_249\n      jump\t// in\n    tag_460:\n        /* \"#utility.yul\":24152:24291   */\n      swap1\n      pop\n        /* \"#utility.yul\":23879:24298   */\n      swap2\n      swap1\n      pop\n      jump\t// out\n        /* \"#utility.yul\":24304:24402   */\n    tag_250:\n        /* \"#utility.yul\":24355:24361   */\n      0x00\n        /* \"#utility.yul\":24389:24394   */\n      dup2\n        /* \"#utility.yul\":24383:24395   */\n      mload\n        /* \"#utility.yul\":24373:24395   */\n      swap1\n      pop\n        /* \"#utility.yul\":24304:24402   */\n      swap2\n      swap1\n      pop\n      jump\t// out\n        /* \"#utility.yul\":24408:24576   */\n    tag_251:\n        /* \"#utility.yul\":24491:24502   */\n      0x00\n        /* \"#utility.yul\":24525:24531   */\n      dup3\n        /* \"#utility.yul\":24520:24523   */\n      dup3\n        /* \"#utility.yul\":24513:24532   */\n      mstore\n        /* \"#utility.yul\":24565:24569   */\n      0x20\n        /* \"#utility.yul\":24560:24563   */\n      dup3\n        /* \"#utility.yul\":24556:24570   */\n      add\n        /* \"#utility.yul\":24541:24570   */\n      swap1\n      pop\n        /* \"#utility.yul\":24408:24576   */\n      swap3\n      swap2\n      pop\n      pop\n      jump\t// out\n        /* \"#utility.yul\":24582:24721   */\n    tag_252:\n        /* \"#utility.yul\":24671:24677   */\n      dup3\n        /* \"#utility.yul\":24666:24669   */\n      dup2\n        /* \"#utility.yul\":24661:24664   */\n      dup4\n        /* \"#utility.yul\":24655:24678   */\n      mcopy\n        /* \"#utility.yul\":24712:24713   */\n      0x00\n        /* \"#utility.yul\":24703:24709   */\n      dup4\n        /* \"#utility.yul\":24698:24701   */\n      dup4\n        /* \"#utility.yul\":24694:24710   */\n      add\n        /* \"#utility.yul\":24687:24714   */\n      mstore\n        /* \"#utility.yul\":24582:24721   */\n      pop\n      pop\n      pop\n      jump\t// out\n        /* \"#utility.yul\":24727:25100   */\n    tag_253:\n        /* \"#utility.yul\":24813:24816   */\n      0x00\n        /* \"#utility.yul\":24841:24879   */\n      tag_465\n        /* \"#utility.yul\":24873:24878   */\n      dup3\n        /* \"#utility.yul\":24841:24879   */\n      tag_250\n      jump\t// in\n    tag_465:\n        /* \"#utility.yul\":24895:24965   */\n      tag_466\n        /* \"#utility.yul\":24958:24964   */\n      dup2\n        /* \"#utility.yul\":24953:24956   */\n      dup6\n        /* \"#utility.yul\":24895:24965   */\n      tag_251\n      jump\t// in\n    tag_466:\n        /* \"#utility.yul\":24888:24965   */\n      swap4\n      pop\n        /* \"#utility.yul\":24974:25039   */\n      tag_467\n        /* \"#utility.yul\":25032:25038   */\n      dup2\n        /* \"#utility.yul\":25027:25030   */\n      dup6\n        /* \"#utility.yul\":25020:25024   */\n      0x20\n        /* \"#utility.yul\":25013:25018   */\n      dup7\n        /* \"#utility.yul\":25009:25025   */\n      add\n        /* \"#utility.yul\":24974:25039   */\n      tag_252\n      jump\t// in\n    tag_467:\n        /* \"#utility.yul\":25064:25093   */\n      tag_468\n        /* \"#utility.yul\":25086:25092   */\n      dup2\n        /* \"#utility.yul\":25064:25093   */\n      tag_212\n      jump\t// in\n    tag_468:\n        /* \"#utility.yul\":25059:25062   */\n      dup5\n        /* \"#utility.yul\":25055:25094   */\n      add\n        /* \"#utility.yul\":25048:25094   */\n      swap2\n      pop\n        /* \"#utility.yul\":24817:25100   */\n      pop\n        /* \"#utility.yul\":24727:25100   */\n      swap3\n      swap2\n      pop\n      pop\n      jump\t// out\n        /* \"#utility.yul\":25106:25746   */\n    tag_176:\n        /* \"#utility.yul\":25301:25305   */\n      0x00\n        /* \"#utility.yul\":25339:25342   */\n      0x80\n        /* \"#utility.yul\":25328:25337   */\n      dup3\n        /* \"#utility.yul\":25324:25343   */\n      add\n        /* \"#utility.yul\":25316:25343   */\n      swap1\n      pop\n        /* \"#utility.yul\":25353:25424   */\n      tag_470\n        /* \"#utility.yul\":25421:25422   */\n      0x00\n        /* \"#utility.yul\":25410:25419   */\n      dup4\n        /* \"#utility.yul\":25406:25423   */\n      add\n        /* \"#utility.yul\":25397:25403   */\n      dup8\n        /* \"#utility.yul\":25353:25424   */\n      tag_204\n      jump\t// in\n    tag_470:\n        /* \"#utility.yul\":25434:25506   */\n      tag_471\n        /* \"#utility.yul\":25502:25504   */\n      0x20\n        /* \"#utility.yul\":25491:25500   */\n      dup4\n        /* \"#utility.yul\":25487:25505   */\n      add\n        /* \"#utility.yul\":25478:25484   */\n      dup7\n        /* \"#utility.yul\":25434:25506   */\n      tag_204\n      jump\t// in\n    tag_471:\n        /* \"#utility.yul\":25516:25588   */\n      tag_472\n        /* \"#utility.yul\":25584:25586   */\n      0x40\n        /* \"#utility.yul\":25573:25582   */\n      dup4\n        /* \"#utility.yul\":25569:25587   */\n      add\n        /* \"#utility.yul\":25560:25566   */\n      dup6\n        /* \"#utility.yul\":25516:25588   */\n      tag_207\n      jump\t// in\n    tag_472:\n        /* \"#utility.yul\":25635:25644   */\n      dup2\n        /* \"#utility.yul\":25629:25633   */\n      dup2\n        /* \"#utility.yul\":25625:25645   */\n      sub\n        /* \"#utility.yul\":25620:25622   */\n      0x60\n        /* \"#utility.yul\":25609:25618   */\n      dup4\n        /* \"#utility.yul\":25605:25623   */\n      add\n        /* \"#utility.yul\":25598:25646   */\n      mstore\n        /* \"#utility.yul\":25663:25739   */\n      tag_473\n        /* \"#utility.yul\":25734:25738   */\n      dup2\n        /* \"#utility.yul\":25725:25731   */\n      dup5\n        /* \"#utility.yul\":25663:25739   */\n      tag_253\n      jump\t// in\n    tag_473:\n        /* \"#utility.yul\":25655:25739   */\n      swap1\n      pop\n        /* \"#utility.yul\":25106:25746   */\n      swap6\n      swap5\n      pop\n      pop\n      pop\n      pop\n      pop\n      jump\t// out\n        /* \"#utility.yul\":25752:25893   */\n    tag_254:\n        /* \"#utility.yul\":25808:25813   */\n      0x00\n        /* \"#utility.yul\":25839:25845   */\n      dup2\n        /* \"#utility.yul\":25833:25846   */\n      mload\n        /* \"#utility.yul\":25824:25846   */\n      swap1\n      pop\n        /* \"#utility.yul\":25855:25887   */\n      tag_475\n        /* \"#utility.yul\":25881:25886   */\n      dup2\n        /* \"#utility.yul\":25855:25887   */\n      tag_195\n      jump\t// in\n    tag_475:\n        /* \"#utility.yul\":25752:25893   */\n      swap3\n      swap2\n      pop\n      pop\n      jump\t// out\n        /* \"#utility.yul\":25899:26248   */\n    tag_179:\n        /* \"#utility.yul\":25968:25974   */\n      0x00\n        /* \"#utility.yul\":26017:26019   */\n      0x20\n        /* \"#utility.yul\":26005:26014   */\n      dup3\n        /* \"#utility.yul\":25996:26003   */\n      dup5\n        /* \"#utility.yul\":25992:26015   */\n      sub\n        /* \"#utility.yul\":25988:26020   */\n      slt\n        /* \"#utility.yul\":25985:26104   */\n      iszero\n      tag_477\n      jumpi\n        /* \"#utility.yul\":26023:26102   */\n      tag_478\n      tag_192\n      jump\t// in\n    tag_478:\n        /* \"#utility.yul\":25985:26104   */\n    tag_477:\n        /* \"#utility.yul\":26143:26144   */\n      0x00\n        /* \"#utility.yul\":26168:26231   */\n      tag_479\n        /* \"#utility.yul\":26223:26230   */\n      dup5\n        /* \"#utility.yul\":26214:26220   */\n      dup3\n        /* \"#utility.yul\":26203:26212   */\n      dup6\n        /* \"#utility.yul\":26199:26221   */\n      add\n        /* \"#utility.yul\":26168:26231   */\n      tag_254\n      jump\t// in\n    tag_479:\n        /* \"#utility.yul\":26158:26231   */\n      swap2\n      pop\n        /* \"#utility.yul\":26114:26241   */\n      pop\n        /* \"#utility.yul\":25899:26248   */\n      swap3\n      swap2\n      pop\n      pop\n      jump\t// out\n\n    auxdata: 0xa264697066735822122098f1c70affb4d68d6cf5e9a9d6a98d328a3c01f2a3ce2f2ad7bdbe2a1b5d70a564736f6c634300081b0033\n}\n",
				"bytecode": {
					"linkReferences": {},
					"object": "6080604052348015600e575f5ffd5b5061202b8061001c5f395ff3fe608060405234801561000f575f5ffd5b50600436106100b2575f3560e01c806342966c681161006f57806342966c68146101865780636352211e146101a257806370a08231146101d2578063a22cb46514610202578063b88d4fde1461021e578063e985e9c51461023a576100b2565b806301ffc9a7146100b6578063081812fc146100e6578063095ea7b31461011657806323b872dd1461013257806340c10f191461014e57806342842e0e1461016a575b5f5ffd5b6100d060048036038101906100cb9190611296565b61026a565b6040516100dd91906112db565b60405180910390f35b61010060048036038101906100fb9190611327565b61033b565b60405161010d9190611391565b60405180910390f35b610130600480360381019061012b91906113d4565b6103bc565b005b61014c60048036038101906101479190611412565b6104c4565b005b610168600480360381019061016391906113d4565b61051d565b005b610184600480360381019061017f9190611412565b61052b565b005b6101a0600480360381019061019b9190611327565b61054a565b005b6101bc60048036038101906101b79190611327565b610556565b6040516101c99190611391565b60405180910390f35b6101ec60048036038101906101e79190611462565b610601565b6040516101f9919061149c565b60405180910390f35b61021c600480360381019061021791906114df565b6106b5565b005b61023860048036038101906102339190611659565b61081b565b005b610254600480360381019061024f91906116d9565b610876565b60405161026191906112db565b60405180910390f35b5f7f80ac58cd000000000000000000000000000000000000000000000000000000007bffffffffffffffffffffffffffffffffffffffffffffffffffffffff1916827bffffffffffffffffffffffffffffffffffffffffffffffffffffffff1916148061033457507f01ffc9a7000000000000000000000000000000000000000000000000000000007bffffffffffffffffffffffffffffffffffffffffffffffffffffffff1916827bffffffffffffffffffffffffffffffffffffffffffffffffffffffff1916145b9050919050565b5f61034582610904565b610384576040517f08c379a000000000000000000000000000000000000000000000000000000000815260040161037b90611797565b60405180910390fd5b60025f8381526020019081526020015f205f9054906101000a900473ffffffffffffffffffffffffffffffffffffffff169050919050565b5f6103c682610556565b90508073ffffffffffffffffffffffffffffffffffffffff168373ffffffffffffffffffffffffffffffffffffffff1603610436576040517f08c379a000000000000000000000000000000000000000000000000000000000815260040161042d90611825565b60405180910390fd5b8073ffffffffffffffffffffffffffffffffffffffff163373ffffffffffffffffffffffffffffffffffffffff16148061047657506104758133610876565b5b6104b5576040517f08c379a00000000000000000000000000000000000000000000000000000000081526004016104ac906118b3565b60405180910390fd5b6104bf838361096b565b505050565b6104ce3382610a21565b61050d576040517f08c379a000000000000000000000000000000000000000000000000000000000815260040161050490611941565b60405180910390fd5b610518838383610afd565b505050565b6105278282610d3f565b5050565b61054583838360405180602001604052805f81525061081b565b505050565b61055381610ef6565b50565b5f5f5f5f8481526020019081526020015f205f9054906101000a900473ffffffffffffffffffffffffffffffffffffffff1690505f73ffffffffffffffffffffffffffffffffffffffff168173ffffffffffffffffffffffffffffffffffffffff16036105f8576040517f08c379a00000000000000000000000000000000000000000000000000000000081526004016105ef906119cf565b60405180910390fd5b80915050919050565b5f5f73ffffffffffffffffffffffffffffffffffffffff168273ffffffffffffffffffffffffffffffffffffffff1603610670576040517f08c379a000000000000000000000000000000000000000000000000000000000815260040161066790611a5d565b60405180910390fd5b60015f8373ffffffffffffffffffffffffffffffffffffffff1673ffffffffffffffffffffffffffffffffffffffff1681526020019081526020015f20549050919050565b3373ffffffffffffffffffffffffffffffffffffffff168273ffffffffffffffffffffffffffffffffffffffff1603610723576040517f08c379a000000000000000000000000000000000000000000000000000000000815260040161071a90611ac5565b60405180910390fd5b8060035f3373ffffffffffffffffffffffffffffffffffffffff1673ffffffffffffffffffffffffffffffffffffffff1681526020019081526020015f205f8473ffffffffffffffffffffffffffffffffffffffff1673ffffffffffffffffffffffffffffffffffffffff1681526020019081526020015f205f6101000a81548160ff0219169083151502179055508173ffffffffffffffffffffffffffffffffffffffff163373ffffffffffffffffffffffffffffffffffffffff167f17307eab39ab6107e8899845ad3d59bd9653f200f220920489ca2b5937696c318360405161080f91906112db565b60405180910390a35050565b6108253383610a21565b610864576040517f08c379a000000000000000000000000000000000000000000000000000000000815260040161085b90611941565b60405180910390fd5b6108708484848461105e565b50505050565b5f60035f8473ffffffffffffffffffffffffffffffffffffffff1673ffffffffffffffffffffffffffffffffffffffff1681526020019081526020015f205f8373ffffffffffffffffffffffffffffffffffffffff1673ffffffffffffffffffffffffffffffffffffffff1681526020019081526020015f205f9054906101000a900460ff16905092915050565b5f5f73ffffffffffffffffffffffffffffffffffffffff165f5f8481526020019081526020015f205f9054906101000a900473ffffffffffffffffffffffffffffffffffffffff1673ffffffffffffffffffffffffffffffffffffffff1614159050919050565b8160025f8381526020019081526020015f205f6101000a81548173ffffffffffffffffffffffffffffffffffffffff021916908373ffffffffffffffffffffffffffffffffffffffff160217905550808273ffffffffffffffffffffffffffffffffffffffff166109db83610556565b73ffffffffffffffffffffffffffffffffffffffff167f8c5be1e5ebec7d5bd14f71427d1e84f3dd0314c0f7b2291e5b200ac8c7c3b92560405160405180910390a45050565b5f610a2b82610904565b610a6a576040517f08c379a0000000000000000000000000000000000000000000000000000000008152600401610a6190611b53565b60405180910390fd5b5f610a7483610556565b90508073ffffffffffffffffffffffffffffffffffffffff168473ffffffffffffffffffffffffffffffffffffffff161480610ae357508373ffffffffffffffffffffffffffffffffffffffff16610acb8461033b565b73ffffffffffffffffffffffffffffffffffffffff16145b80610af45750610af38185610876565b5b91505092915050565b8273ffffffffffffffffffffffffffffffffffffffff16610b1d82610556565b73ffffffffffffffffffffffffffffffffffffffff1614610b73576040517f08c379a0000000000000000000000000000000000000000000000000000000008152600401610b6a90611be1565b60405180910390fd5b5f73ffffffffffffffffffffffffffffffffffffffff168273ffffffffffffffffffffffffffffffffffffffff1603610be1576040517f08c379a0000000000000000000000000000000000000000000000000000000008152600401610bd890611c6f565b60405180910390fd5b610beb5f8261096b565b6001805f8573ffffffffffffffffffffffffffffffffffffffff1673ffffffffffffffffffffffffffffffffffffffff1681526020019081526020015f205f828254610c379190611cba565b925050819055506001805f8473ffffffffffffffffffffffffffffffffffffffff1673ffffffffffffffffffffffffffffffffffffffff1681526020019081526020015f205f828254610c8a9190611ced565b92505081905550815f5f8381526020019081526020015f205f6101000a81548173ffffffffffffffffffffffffffffffffffffffff021916908373ffffffffffffffffffffffffffffffffffffffff160217905550808273ffffffffffffffffffffffffffffffffffffffff168473ffffffffffffffffffffffffffffffffffffffff167fddf252ad1be2c89b69c2b068fc378daa952ba7f163c4a11628f55a4df523b3ef60405160405180910390a4505050565b5f73ffffffffffffffffffffffffffffffffffffffff168273ffffffffffffffffffffffffffffffffffffffff1603610dad576040517f08c379a0000000000000000000000000000000000000000000000000000000008152600401610da490611d6a565b60405180910390fd5b610db681610904565b15610df6576040517f08c379a0000000000000000000000000000000000000000000000000000000008152600401610ded90611dd2565b60405180910390fd5b6001805f8473ffffffffffffffffffffffffffffffffffffffff1673ffffffffffffffffffffffffffffffffffffffff1681526020019081526020015f205f828254610e429190611ced565b92505081905550815f5f8381526020019081526020015f205f6101000a81548173ffffffffffffffffffffffffffffffffffffffff021916908373ffffffffffffffffffffffffffffffffffffffff160217905550808273ffffffffffffffffffffffffffffffffffffffff165f73ffffffffffffffffffffffffffffffffffffffff167fddf252ad1be2c89b69c2b068fc378daa952ba7f163c4a11628f55a4df523b3ef60405160405180910390a45050565b5f610f0082610556565b90508073ffffffffffffffffffffffffffffffffffffffff163373ffffffffffffffffffffffffffffffffffffffff1614610f70576040517f08c379a0000000000000000000000000000000000000000000000000000000008152600401610f6790611e60565b60405180910390fd5b610f7a5f8361096b565b6001805f8373ffffffffffffffffffffffffffffffffffffffff1673ffffffffffffffffffffffffffffffffffffffff1681526020019081526020015f205f828254610fc69190611cba565b925050819055505f5f8381526020019081526020015f205f6101000a81549073ffffffffffffffffffffffffffffffffffffffff0219169055815f73ffffffffffffffffffffffffffffffffffffffff168273ffffffffffffffffffffffffffffffffffffffff167fddf252ad1be2c89b69c2b068fc378daa952ba7f163c4a11628f55a4df523b3ef60405160405180910390a45050565b611069848484610afd565b611075848484846110ba565b6110b4576040517f08c379a00000000000000000000000000000000000000000000000000000000081526004016110ab90611eee565b60405180910390fd5b50505050565b5f5f8473ffffffffffffffffffffffffffffffffffffffff163b1115611223578373ffffffffffffffffffffffffffffffffffffffff1663150b7a02338786866040518563ffffffff1660e01b81526004016111199493929190611f6c565b6020604051808303815f875af192505050801561115457506040513d601f19601f820116820180604052508101906111519190611fca565b60015b6111d3573d805f8114611182576040519150601f19603f3d011682016040523d82523d5f602084013e611187565b606091505b505f8151036111cb576040517f08c379a00000000000000000000000000000000000000000000000000000000081526004016111c290611eee565b60405180910390fd5b805181602001fd5b63150b7a0260e01b7bffffffffffffffffffffffffffffffffffffffffffffffffffffffff1916817bffffffffffffffffffffffffffffffffffffffffffffffffffffffff191614915050611228565b600190505b949350505050565b5f604051905090565b5f5ffd5b5f5ffd5b5f7fffffffff0000000000000000000000000000000000000000000000000000000082169050919050565b61127581611241565b811461127f575f5ffd5b50565b5f813590506112908161126c565b92915050565b5f602082840312156112ab576112aa611239565b5b5f6112b884828501611282565b91505092915050565b5f8115159050919050565b6112d5816112c1565b82525050565b5f6020820190506112ee5f8301846112cc565b92915050565b5f819050919050565b611306816112f4565b8114611310575f5ffd5b50565b5f81359050611321816112fd565b92915050565b5f6020828403121561133c5761133b611239565b5b5f61134984828501611313565b91505092915050565b5f73ffffffffffffffffffffffffffffffffffffffff82169050919050565b5f61137b82611352565b9050919050565b61138b81611371565b82525050565b5f6020820190506113a45f830184611382565b92915050565b6113b381611371565b81146113bd575f5ffd5b50565b5f813590506113ce816113aa565b92915050565b5f5f604083850312156113ea576113e9611239565b5b5f6113f7858286016113c0565b925050602061140885828601611313565b9150509250929050565b5f5f5f6060848603121561142957611428611239565b5b5f611436868287016113c0565b9350506020611447868287016113c0565b925050604061145886828701611313565b9150509250925092565b5f6020828403121561147757611476611239565b5b5f611484848285016113c0565b91505092915050565b611496816112f4565b82525050565b5f6020820190506114af5f83018461148d565b92915050565b6114be816112c1565b81146114c8575f5ffd5b50565b5f813590506114d9816114b5565b92915050565b5f5f604083850312156114f5576114f4611239565b5b5f611502858286016113c0565b9250506020611513858286016114cb565b9150509250929050565b5f5ffd5b5f5ffd5b5f601f19601f8301169050919050565b7f4e487b71000000000000000000000000000000000000000000000000000000005f52604160045260245ffd5b61156b82611525565b810181811067ffffffffffffffff8211171561158a57611589611535565b5b80604052505050565b5f61159c611230565b90506115a88282611562565b919050565b5f67ffffffffffffffff8211156115c7576115c6611535565b5b6115d082611525565b9050602081019050919050565b828183375f83830152505050565b5f6115fd6115f8846115ad565b611593565b90508281526020810184848401111561161957611618611521565b5b6116248482856115dd565b509392505050565b5f82601f8301126116405761163f61151d565b5b81356116508482602086016115eb565b91505092915050565b5f5f5f5f6080858703121561167157611670611239565b5b5f61167e878288016113c0565b945050602061168f878288016113c0565b93505060406116a087828801611313565b925050606085013567ffffffffffffffff8111156116c1576116c061123d565b5b6116cd8782880161162c565b91505092959194509250565b5f5f604083850312156116ef576116ee611239565b5b5f6116fc858286016113c0565b925050602061170d858286016113c0565b9150509250929050565b5f82825260208201905092915050565b7f4552433732313a20617070726f76656420717565727920666f72206e6f6e65785f8201527f697374656e7420746f6b656e0000000000000000000000000000000000000000602082015250565b5f611781602c83611717565b915061178c82611727565b604082019050919050565b5f6020820190508181035f8301526117ae81611775565b9050919050565b7f4552433732313a20617070726f76616c20746f2063757272656e74206f776e655f8201527f7200000000000000000000000000000000000000000000000000000000000000602082015250565b5f61180f602183611717565b915061181a826117b5565b604082019050919050565b5f6020820190508181035f83015261183c81611803565b9050919050565b7f4552433732313a20617070726f76652063616c6c6572206973206e6f74206f775f8201527f6e6572206e6f7220617070726f76656420666f7220616c6c0000000000000000602082015250565b5f61189d603883611717565b91506118a882611843565b604082019050919050565b5f6020820190508181035f8301526118ca81611891565b9050919050565b7f4552433732313a207472616e736665722063616c6c6572206973206e6f74206f5f8201527f776e6572206e6f7220617070726f766564000000000000000000000000000000602082015250565b5f61192b603183611717565b9150611936826118d1565b604082019050919050565b5f6020820190508181035f8301526119588161191f565b9050919050565b7f4552433732313a206f776e657220717565727920666f72206e6f6e65786973745f8201527f656e7420746f6b656e0000000000000000000000000000000000000000000000602082015250565b5f6119b9602983611717565b91506119c48261195f565b604082019050919050565b5f6020820190508181035f8301526119e6816119ad565b9050919050565b7f4552433732313a2062616c616e636520717565727920666f7220746865207a655f8201527f726f206164647265737300000000000000000000000000000000000000000000602082015250565b5f611a47602a83611717565b9150611a52826119ed565b604082019050919050565b5f6020820190508181035f830152611a7481611a3b565b9050919050565b7f4552433732313a20617070726f766520746f2063616c6c6572000000000000005f82015250565b5f611aaf601983611717565b9150611aba82611a7b565b602082019050919050565b5f6020820190508181035f830152611adc81611aa3565b9050919050565b7f4552433732313a206f70657261746f7220717565727920666f72206e6f6e65785f8201527f697374656e7420746f6b656e0000000000000000000000000000000000000000602082015250565b5f611b3d602c83611717565b9150611b4882611ae3565b604082019050919050565b5f6020820190508181035f830152611b6a81611b31565b9050919050565b7f4552433732313a207472616e73666572206f6620746f6b656e207468617420695f8201527f73206e6f74206f776e0000000000000000000000000000000000000000000000602082015250565b5f611bcb602983611717565b9150611bd682611b71565b604082019050919050565b5f6020820190508181035f830152611bf881611bbf565b9050919050565b7f4552433732313a207472616e7366657220746f20746865207a65726f206164645f8201527f7265737300000000000000000000000000000000000000000000000000000000602082015250565b5f611c59602483611717565b9150611c6482611bff565b604082019050919050565b5f6020820190508181035f830152611c8681611c4d565b9050919050565b7f4e487b71000000000000000000000000000000000000000000000000000000005f52601160045260245ffd5b5f611cc4826112f4565b9150611ccf836112f4565b9250828203905081811115611ce757611ce6611c8d565b5b92915050565b5f611cf7826112f4565b9150611d02836112f4565b9250828201905080821115611d1a57611d19611c8d565b5b92915050565b7f4552433732313a206d696e7420746f20746865207a65726f20616464726573735f82015250565b5f611d54602083611717565b9150611d5f82611d20565b602082019050919050565b5f6020820190508181035f830152611d8181611d48565b9050919050565b7f4552433732313a20746f6b656e20616c7265616479206d696e746564000000005f82015250565b5f611dbc601c83611717565b9150611dc782611d88565b602082019050919050565b5f6020820190508181035f830152611de981611db0565b9050919050565b7f4552433732313a206275726e206f6620746f6b656e2074686174206973206e6f5f8201527f74206f776e000000000000000000000000000000000000000000000000000000602082015250565b5f611e4a602583611717565b9150611e5582611df0565b604082019050919050565b5f6020820190508181035f830152611e7781611e3e565b9050919050565b7f4552433732313a207472616e7366657220746f206e6f6e2045524337323152655f8201527f63656976657220696d706c656d656e7465720000000000000000000000000000602082015250565b5f611ed8603283611717565b9150611ee382611e7e565b604082019050919050565b5f6020820190508181035f830152611f0581611ecc565b9050919050565b5f81519050919050565b5f82825260208201905092915050565b8281835e5f83830152505050565b5f611f3e82611f0c565b611f488185611f16565b9350611f58818560208601611f26565b611f6181611525565b840191505092915050565b5f608082019050611f7f5f830187611382565b611f8c6020830186611382565b611f99604083018561148d565b8181036060830152611fab8184611f34565b905095945050505050565b5f81519050611fc48161126c565b92915050565b5f60208284031215611fdf57611fde611239565b5b5f611fec84828501611fb6565b9150509291505056fea264697066735822122098f1c70affb4d68d6cf5e9a9d6a98d328a3c01f2a3ce2f2ad7bdbe2a1b5d70a564736f6c634300081b0033",
					"opcodes": "PUSH1 0x80 PUSH1 0x40 MSTORE CALLVALUE DUP1 ISZERO PUSH1 0xE JUMPI PUSH0 PUSH0 REVERT JUMPDEST POP PUSH2 0x202B DUP1 PUSH2 0x1C PUSH0 CODECOPY PUSH0 RETURN INVALID PUSH1 0x80 PUSH1 0x40 MSTORE CALLVALUE DUP1 ISZERO PUSH2 0xF JUMPI PUSH0 PUSH0 REVERT JUMPDEST POP PUSH1 0x4 CALLDATASIZE LT PUSH2 0xB2 JUMPI PUSH0 CALLDATALOAD PUSH1 0xE0 SHR DUP1 PUSH4 0x42966C68 GT PUSH2 0x6F JUMPI DUP1 PUSH4 0x42966C68 EQ PUSH2 0x186 JUMPI DUP1 PUSH4 0x6352211E EQ PUSH2 0x1A2 JUMPI DUP1 PUSH4 0x70A08231 EQ PUSH2 0x1D2 JUMPI DUP1 PUSH4 0xA22CB465 EQ PUSH2 0x202 JUMPI DUP1 PUSH4 0xB88D4FDE EQ PUSH2 0x21E JUMPI DUP1 PUSH4 0xE985E9C5 EQ PUSH2 0x23A JUMPI PUSH2 0xB2 JUMP JUMPDEST DUP1 PUSH4 0x1FFC9A7 EQ PUSH2 0xB6 JUMPI DUP1 PUSH4 0x81812FC EQ PUSH2 0xE6 JUMPI DUP1 PUSH4 0x95EA7B3 EQ PUSH2 0x116 JUMPI DUP1 PUSH4 0x23B872DD EQ PUSH2 0x132 JUMPI DUP1 PUSH4 0x40C10F19 EQ PUSH2 0x14E JUMPI DUP1 PUSH4 0x42842E0E EQ PUSH2 0x16A JUMPI JUMPDEST PUSH0 PUSH0 REVERT JUMPDEST PUSH2 0xD0 PUSH1 0x4 DUP1 CALLDATASIZE SUB DUP2 ADD SWAP1 PUSH2 0xCB SWAP2 SWAP1 PUSH2 0x1296 JUMP JUMPDEST PUSH2 0x26A JUMP JUMPDEST PUSH1 0x40 MLOAD PUSH2 0xDD SWAP2 SWAP1 PUSH2 0x12DB JUMP JUMPDEST PUSH1 0x40 MLOAD DUP1 SWAP2 SUB SWAP1 RETURN JUMPDEST PUSH2 0x100 PUSH1 0x4 DUP1 CALLDATASIZE SUB DUP2 ADD SWAP1 PUSH2 0xFB SWAP2 SWAP1 PUSH2 0x1327 JUMP JUMPDEST PUSH2 0x33B JUMP JUMPDEST PUSH1 0x40 MLOAD PUSH2 0x10D SWAP2 SWAP1 PUSH2 0x1391 JUMP JUMPDEST PUSH1 0x40 MLOAD DUP1 SWAP2 SUB SWAP1 RETURN JUMPDEST PUSH2 0x130 PUSH1 0x4 DUP1 CALLDATASIZE SUB DUP2 ADD SWAP1 PUSH2 0x12B SWAP2 SWAP1 PUSH2 0x13D4 JUMP JUMPDEST PUSH2 0x3BC JUMP JUMPDEST STOP JUMPDEST PUSH2 0x14C PUSH1 0x4 DUP1 CALLDATASIZE SUB DUP2 ADD SWAP1 PUSH2 0x147 SWAP2 SWAP1 PUSH2 0x1412 JUMP JUMPDEST PUSH2 0x4C4 JUMP JUMPDEST STOP JUMPDEST PUSH2 0x168 PUSH1 0x4 DUP1 CALLDATASIZE SUB DUP2 ADD SWAP1 PUSH2 0x163 SWAP2 SWAP1 PUSH2 0x13D4 JUMP JUMPDEST PUSH2 0x51D JUMP JUMPDEST STOP JUMPDEST PUSH2 0x184 PUSH1 0x4 DUP1 CALLDATASIZE SUB DUP2 ADD SWAP1 PUSH2 0x17F SWAP2 SWAP1 PUSH2 0x1412 JUMP JUMPDEST PUSH2 0x52B JUMP JUMPDEST STOP JUMPDEST PUSH2 0x1A0 PUSH1 0x4 DUP1 CALLDATASIZE SUB DUP2 ADD SWAP1 PUSH2 0x19B SWAP2 SWAP1 PUSH2 0x1327 JUMP JUMPDEST PUSH2 0x54A JUMP JUMPDEST STOP JUMPDEST PUSH2 0x1BC PUSH1 0x4 DUP1 CALLDATASIZE SUB DUP2 ADD SWAP1 PUSH2 0x1B7 SWAP2 SWAP1 PUSH2 0x1327 JUMP JUMPDEST PUSH2 0x556 JUMP JUMPDEST PUSH1 0x40 MLOAD PUSH2 0x1C9 SWAP2 SWAP1 PUSH2 0x1391 JUMP JUMPDEST PUSH1 0x40 MLOAD DUP1 SWAP2 SUB SWAP1 RETURN JUMPDEST PUSH2 0x1EC PUSH1 0x4 DUP1 CALLDATASIZE SUB DUP2 ADD SWAP1 PUSH2 0x1E7 SWAP2 SWAP1 PUSH2 0x1462 JUMP JUMPDEST PUSH2 0x601 JUMP JUMPDEST PUSH1 0x40 MLOAD PUSH2 0x1F9 SWAP2 SWAP1 PUSH2 0x149C JUMP JUMPDEST PUSH1 0x40 MLOAD DUP1 SWAP2 SUB SWAP1 RETURN JUMPDEST PUSH2 0x21C PUSH1 0x4 DUP1 CALLDATASIZE SUB DUP2 ADD SWAP1 PUSH2 0x217 SWAP2 SWAP1 PUSH2 0x14DF JUMP JUMPDEST PUSH2 0x6B5 JUMP JUMPDEST STOP JUMPDEST PUSH2 0x238 PUSH1 0x4 DUP1 CALLDATASIZE SUB DUP2 ADD SWAP1 PUSH2 0x233 SWAP2 SWAP1 PUSH2 0x1659 JUMP JUMPDEST PUSH2 0x81B JUMP JUMPDEST STOP JUMPDEST PUSH2 0x254 PUSH1 0x4 DUP1 CALLDATASIZE SUB DUP2 ADD SWAP1 PUSH2 0x24F SWAP2 SWAP1 PUSH2 0x16D9 JUMP JUMPDEST PUSH2 0x876 JUMP JUMPDEST PUSH1 0x40 MLOAD PUSH2 0x261 SWAP2 SWAP1 PUSH2 0x12DB JUMP JUMPDEST PUSH1 0x40 MLOAD DUP1 SWAP2 SUB SWAP1 RETURN JUMPDEST PUSH0 PUSH32 0x80AC58CD00000000000000000000000000000000000000000000000000000000 PUSH28 0xFFFFFFFFFFFFFFFFFFFFFFFFFFFFFFFFFFFFFFFFFFFFFFFFFFFFFFFF NOT AND DUP3 PUSH28 0xFFFFFFFFFFFFFFFFFFFFFFFFFFFFFFFFFFFFFFFFFFFFFFFFFFFFFFFF NOT AND EQ DUP1 PUSH2 0x334 JUMPI POP PUSH32 0x1FFC9A700000000000000000000000000000000000000000000000000000000 PUSH28 0xFFFFFFFFFFFFFFFFFFFFFFFFFFFFFFFFFFFFFFFFFFFFFFFFFFFFFFFF NOT AND DUP3 PUSH28 0xFFFFFFFFFFFFFFFFFFFFFFFFFFFFFFFFFFFFFFFFFFFFFFFFFFFFFFFF NOT AND EQ JUMPDEST SWAP1 POP SWAP2 SWAP1 POP JUMP JUMPDEST PUSH0 PUSH2 0x345 DUP3 PUSH2 0x904 JUMP JUMPDEST PUSH2 0x384 JUMPI PUSH1 0x40 MLOAD PUSH32 0x8C379A000000000000000000000000000000000000000000000000000000000 DUP2 MSTORE PUSH1 0x4 ADD PUSH2 0x37B SWAP1 PUSH2 0x1797 JUMP JUMPDEST PUSH1 0x40 MLOAD DUP1 SWAP2 SUB SWAP1 REVERT JUMPDEST PUSH1 0x2 PUSH0 DUP4 DUP2 MSTORE PUSH1 0x20 ADD SWAP1 DUP2 MSTORE PUSH1 0x20 ADD PUSH0 KECCAK256 PUSH0 SWAP1 SLOAD SWAP1 PUSH2 0x100 EXP SWAP1 DIV PUSH20 0xFFFFFFFFFFFFFFFFFFFFFFFFFFFFFFFFFFFFFFFF AND SWAP1 POP SWAP2 SWAP1 POP JUMP JUMPDEST PUSH0 PUSH2 0x3C6 DUP3 PUSH2 0x556 JUMP JUMPDEST SWAP1 POP DUP1 PUSH20 0xFFFFFFFFFFFFFFFFFFFFFFFFFFFFFFFFFFFFFFFF AND DUP4 PUSH20 0xFFFFFFFFFFFFFFFFFFFFFFFFFFFFFFFFFFFFFFFF AND SUB PUSH2 0x436 JUMPI PUSH1 0x40 MLOAD PUSH32 0x8C379A000000000000000000000000000000000000000000000000000000000 DUP2 MSTORE PUSH1 0x4 ADD PUSH2 0x42D SWAP1 PUSH2 0x1825 JUMP JUMPDEST PUSH1 0x40 MLOAD DUP1 SWAP2 SUB SWAP1 REVERT JUMPDEST DUP1 PUSH20 0xFFFFFFFFFFFFFFFFFFFFFFFFFFFFFFFFFFFFFFFF AND CALLER PUSH20 0xFFFFFFFFFFFFFFFFFFFFFFFFFFFFFFFFFFFFFFFF AND EQ DUP1 PUSH2 0x476 JUMPI POP PUSH2 0x475 DUP2 CALLER PUSH2 0x876 JUMP JUMPDEST JUMPDEST PUSH2 0x4B5 JUMPI PUSH1 0x40 MLOAD PUSH32 0x8C379A000000000000000000000000000000000000000000000000000000000 DUP2 MSTORE PUSH1 0x4 ADD PUSH2 0x4AC SWAP1 PUSH2 0x18B3 JUMP JUMPDEST PUSH1 0x40 MLOAD DUP1 SWAP2 SUB SWAP1 REVERT JUMPDEST PUSH2 0x4BF DUP4 DUP4 PUSH2 0x96B JUMP JUMPDEST POP POP POP JUMP JUMPDEST PUSH2 0x4CE CALLER DUP3 PUSH2 0xA21 JUMP JUMPDEST PUSH2 0x50D JUMPI PUSH1 0x40 MLOAD PUSH32 0x8C379A000000000000000000000000000000000000000000000000000000000 DUP2 MSTORE PUSH1 0x4 ADD PUSH2 0x504 SWAP1 PUSH2 0x1941 JUMP JUMPDEST PUSH1 0x40 MLOAD DUP1 SWAP2 SUB SWAP1 REVERT JUMPDEST PUSH2 0x518 DUP4 DUP4 DUP4 PUSH2 0xAFD JUMP JUMPDEST POP POP POP JUMP JUMPDEST PUSH2 0x527 DUP3 DUP3 PUSH2 0xD3F JUMP JUMPDEST POP POP JUMP JUMPDEST PUSH2 0x545 DUP4 DUP4 DUP4 PUSH1 0x40 MLOAD DUP1 PUSH1 0x20 ADD PUSH1 0x40 MSTORE DUP1 PUSH0 DUP2 MSTORE POP PUSH2 0x81B JUMP JUMPDEST POP POP POP JUMP JUMPDEST PUSH2 0x553 DUP2 PUSH2 0xEF6 JUMP JUMPDEST POP JUMP JUMPDEST PUSH0 PUSH0 PUSH0 PUSH0 DUP5 DUP2 MSTORE PUSH1 0x20 ADD SWAP1 DUP2 MSTORE PUSH1 0x20 ADD PUSH0 KECCAK256 PUSH0 SWAP1 SLOAD SWAP1 PUSH2 0x100 EXP SWAP1 DIV PUSH20 0xFFFFFFFFFFFFFFFFFFFFFFFFFFFFFFFFFFFFFFFF AND SWAP1 POP PUSH0 PUSH20 0xFFFFFFFFFFFFFFFFFFFFFFFFFFFFFFFFFFFFFFFF AND DUP2 PUSH20 0xFFFFFFFFFFFFFFFFFFFFFFFFFFFFFFFFFFFFFFFF AND SUB PUSH2 0x5F8 JUMPI PUSH1 0x40 MLOAD PUSH32 0x8C379A000000000000000000000000000000000000000000000000000000000 DUP2 MSTORE PUSH1 0x4 ADD PUSH2 0x5EF SWAP1 PUSH2 0x19CF JUMP JUMPDEST PUSH1 0x40 MLOAD DUP1 SWAP2 SUB SWAP1 REVERT JUMPDEST DUP1 SWAP2 POP POP SWAP2 SWAP1 POP JUMP JUMPDEST PUSH0 PUSH0 PUSH20 0xFFFFFFFFFFFFFFFFFFFFFFFFFFFFFFFFFFFFFFFF AND DUP3 PUSH20 0xFFFFFFFFFFFFFFFFFFFFFFFFFFFFFFFFFFFFFFFF AND SUB PUSH2 0x670 JUMPI PUSH1 0x40 MLOAD PUSH32 0x8C379A000000000000000000000000000000000000000000000000000000000 DUP2 MSTORE PUSH1 0x4 ADD PUSH2 0x667 SWAP1 PUSH2 0x1A5D JUMP JUMPDEST PUSH1 0x40 MLOAD DUP1 SWAP2 SUB SWAP1 REVERT JUMPDEST PUSH1 0x1 PUSH0 DUP4 PUSH20 0xFFFFFFFFFFFFFFFFFFFFFFFFFFFFFFFFFFFFFFFF AND PUSH20 0xFFFFFFFFFFFFFFFFFFFFFFFFFFFFFFFFFFFFFFFF AND DUP2 MSTORE PUSH1 0x20 ADD SWAP1 DUP2 MSTORE PUSH1 0x20 ADD PUSH0 KECCAK256 SLOAD SWAP1 POP SWAP2 SWAP1 POP JUMP JUMPDEST CALLER PUSH20 0xFFFFFFFFFFFFFFFFFFFFFFFFFFFFFFFFFFFFFFFF AND DUP3 PUSH20 0xFFFFFFFFFFFFFFFFFFFFFFFFFFFFFFFFFFFFFFFF AND SUB PUSH2 0x723 JUMPI PUSH1 0x40 MLOAD PUSH32 0x8C379A000000000000000000000000000000000000000000000000000000000 DUP2 MSTORE PUSH1 0x4 ADD PUSH2 0x71A SWAP1 PUSH2 0x1AC5 JUMP JUMPDEST PUSH1 0x40 MLOAD DUP1 SWAP2 SUB SWAP1 REVERT JUMPDEST DUP1 PUSH1 0x3 PUSH0 CALLER PUSH20 0xFFFFFFFFFFFFFFFFFFFFFFFFFFFFFFFFFFFFFFFF AND PUSH20 0xFFFFFFFFFFFFFFFFFFFFFFFFFFFFFFFFFFFFFFFF AND DUP2 MSTORE PUSH1 0x20 ADD SWAP1 DUP2 MSTORE PUSH1 0x20 ADD PUSH0 KECCAK256 PUSH0 DUP5 PUSH20 0xFFFFFFFFFFFFFFFFFFFFFFFFFFFFFFFFFFFFFFFF AND PUSH20 0xFFFFFFFFFFFFFFFFFFFFFFFFFFFFFFFFFFFFFFFF AND DUP2 MSTORE PUSH1 0x20 ADD SWAP1 DUP2 MSTORE PUSH1 0x20 ADD PUSH0 KECCAK256 PUSH0 PUSH2 0x100 EXP DUP2 SLOAD DUP2 PUSH1 0xFF MUL NOT AND SWAP1 DUP4 ISZERO ISZERO MUL OR SWAP1 SSTORE POP DUP2 PUSH20 0xFFFFFFFFFFFFFFFFFFFFFFFFFFFFFFFFFFFFFFFF AND CALLER PUSH20 0xFFFFFFFFFFFFFFFFFFFFFFFFFFFFFFFFFFFFFFFF AND PUSH32 0x17307EAB39AB6107E8899845AD3D59BD9653F200F220920489CA2B5937696C31 DUP4 PUSH1 0x40 MLOAD PUSH2 0x80F SWAP2 SWAP1 PUSH2 0x12DB JUMP JUMPDEST PUSH1 0x40 MLOAD DUP1 SWAP2 SUB SWAP1 LOG3 POP POP JUMP JUMPDEST PUSH2 0x825 CALLER DUP4 PUSH2 0xA21 JUMP JUMPDEST PUSH2 0x864 JUMPI PUSH1 0x40 MLOAD PUSH32 0x8C379A000000000000000000000000000000000000000000000000000000000 DUP2 MSTORE PUSH1 0x4 ADD PUSH2 0x85B SWAP1 PUSH2 0x1941 JUMP JUMPDEST PUSH1 0x40 MLOAD DUP1 SWAP2 SUB SWAP1 REVERT JUMPDEST PUSH2 0x870 DUP5 DUP5 DUP5 DUP5 PUSH2 0x105E JUMP JUMPDEST POP POP POP POP JUMP JUMPDEST PUSH0 PUSH1 0x3 PUSH0 DUP5 PUSH20 0xFFFFFFFFFFFFFFFFFFFFFFFFFFFFFFFFFFFFFFFF AND PUSH20 0xFFFFFFFFFFFFFFFFFFFFFFFFFFFFFFFFFFFFFFFF AND DUP2 MSTORE PUSH1 0x20 ADD SWAP1 DUP2 MSTORE PUSH1 0x20 ADD PUSH0 KECCAK256 PUSH0 DUP4 PUSH20 0xFFFFFFFFFFFFFFFFFFFFFFFFFFFFFFFFFFFFFFFF AND PUSH20 0xFFFFFFFFFFFFFFFFFFFFFFFFFFFFFFFFFFFFFFFF AND DUP2 MSTORE PUSH1 0x20 ADD SWAP1 DUP2 MSTORE PUSH1 0x20 ADD PUSH0 KECCAK256 PUSH0 SWAP1 SLOAD SWAP1 PUSH2 0x100 EXP SWAP1 DIV PUSH1 0xFF AND SWAP1 POP SWAP3 SWAP2 POP POP JUMP JUMPDEST PUSH0 PUSH0 PUSH20 0xFFFFFFFFFFFFFFFFFFFFFFFFFFFFFFFFFFFFFFFF AND PUSH0 PUSH0 DUP5 DUP2 MSTORE PUSH1 0x20 ADD SWAP1 DUP2 MSTORE PUSH1 0x20 ADD PUSH0 KECCAK256 PUSH0 SWAP1 SLOAD SWAP1 PUSH2 0x100 EXP SWAP1 DIV PUSH20 0xFFFFFFFFFFFFFFFFFFFFFFFFFFFFFFFFFFFFFFFF AND PUSH20 0xFFFFFFFFFFFFFFFFFFFFFFFFFFFFFFFFFFFFFFFF AND EQ ISZERO SWAP1 POP SWAP2 SWAP1 POP JUMP JUMPDEST DUP2 PUSH1 0x2 PUSH0 DUP4 DUP2 MSTORE PUSH1 0x20 ADD SWAP1 DUP2 MSTORE PUSH1 0x20 ADD PUSH0 KECCAK256 PUSH0 PUSH2 0x100 EXP DUP2 SLOAD DUP2 PUSH20 0xFFFFFFFFFFFFFFFFFFFFFFFFFFFFFFFFFFFFFFFF MUL NOT AND SWAP1 DUP4 PUSH20 0xFFFFFFFFFFFFFFFFFFFFFFFFFFFFFFFFFFFFFFFF AND MUL OR SWAP1 SSTORE POP DUP1 DUP3 PUSH20 0xFFFFFFFFFFFFFFFFFFFFFFFFFFFFFFFFFFFFFFFF AND PUSH2 0x9DB DUP4 PUSH2 0x556 JUMP JUMPDEST PUSH20 0xFFFFFFFFFFFFFFFFFFFFFFFFFFFFFFFFFFFFFFFF AND PUSH32 0x8C5BE1E5EBEC7D5BD14F71427D1E84F3DD0314C0F7B2291E5B200AC8C7C3B925 PUSH1 0x40 MLOAD PUSH1 0x40 MLOAD DUP1 SWAP2 SUB SWAP1 LOG4 POP POP JUMP JUMPDEST PUSH0 PUSH2 0xA2B DUP3 PUSH2 0x904 JUMP JUMPDEST PUSH2 0xA6A JUMPI PUSH1 0x40 MLOAD PUSH32 0x8C379A000000000000000000000000000000000000000000000000000000000 DUP2 MSTORE PUSH1 0x4 ADD PUSH2 0xA61 SWAP1 PUSH2 0x1B53 JUMP JUMPDEST PUSH1 0x40 MLOAD DUP1 SWAP2 SUB SWAP1 REVERT JUMPDEST PUSH0 PUSH2 0xA74 DUP4 PUSH2 0x556 JUMP JUMPDEST SWAP1 POP DUP1 PUSH20 0xFFFFFFFFFFFFFFFFFFFFFFFFFFFFFFFFFFFFFFFF AND DUP5 PUSH20 0xFFFFFFFFFFFFFFFFFFFFFFFFFFFFFFFFFFFFFFFF AND EQ DUP1 PUSH2 0xAE3 JUMPI POP DUP4 PUSH20 0xFFFFFFFFFFFFFFFFFFFFFFFFFFFFFFFFFFFFFFFF AND PUSH2 0xACB DUP5 PUSH2 0x33B JUMP JUMPDEST PUSH20 0xFFFFFFFFFFFFFFFFFFFFFFFFFFFFFFFFFFFFFFFF AND EQ JUMPDEST DUP1 PUSH2 0xAF4 JUMPI POP PUSH2 0xAF3 DUP2 DUP6 PUSH2 0x876 JUMP JUMPDEST JUMPDEST SWAP2 POP POP SWAP3 SWAP2 POP POP JUMP JUMPDEST DUP3 PUSH20 0xFFFFFFFFFFFFFFFFFFFFFFFFFFFFFFFFFFFFFFFF AND PUSH2 0xB1D DUP3 PUSH2 0x556 JUMP JUMPDEST PUSH20 0xFFFFFFFFFFFFFFFFFFFFFFFFFFFFFFFFFFFFFFFF AND EQ PUSH2 0xB73 JUMPI PUSH1 0x40 MLOAD PUSH32 0x8C379A000000000000000000000000000000000000000000000000000000000 DUP2 MSTORE PUSH1 0x4 ADD PUSH2 0xB6A SWAP1 PUSH2 0x1BE1 JUMP JUMPDEST PUSH1 0x40 MLOAD DUP1 SWAP2 SUB SWAP1 REVERT JUMPDEST PUSH0 PUSH20 0xFFFFFFFFFFFFFFFFFFFFFFFFFFFFFFFFFFFFFFFF AND DUP3 PUSH20 0xFFFFFFFFFFFFFFFFFFFFFFFFFFFFFFFFFFFFFFFF AND SUB PUSH2 0xBE1 JUMPI PUSH1 0x40 MLOAD PUSH32 0x8C379A000000000000000000000000000000000000000000000000000000000 DUP2 MSTORE PUSH1 0x4 ADD PUSH2 0xBD8 SWAP1 PUSH2 0x1C6F JUMP JUMPDEST PUSH1 0x40 MLOAD DUP1 SWAP2 SUB SWAP1 REVERT JUMPDEST PUSH2 0xBEB PUSH0 DUP3 PUSH2 0x96B JUMP JUMPDEST PUSH1 0x1 DUP1 PUSH0 DUP6 PUSH20 0xFFFFFFFFFFFFFFFFFFFFFFFFFFFFFFFFFFFFFFFF AND PUSH20 0xFFFFFFFFFFFFFFFFFFFFFFFFFFFFFFFFFFFFFFFF AND DUP2 MSTORE PUSH1 0x20 ADD SWAP1 DUP2 MSTORE PUSH1 0x20 ADD PUSH0 KECCAK256 PUSH0 DUP3 DUP3 SLOAD PUSH2 0xC37 SWAP2 SWAP1 PUSH2 0x1CBA JUMP JUMPDEST SWAP3 POP POP DUP2 SWAP1 SSTORE POP PUSH1 0x1 DUP1 PUSH0 DUP5 PUSH20 0xFFFFFFFFFFFFFFFFFFFFFFFFFFFFFFFFFFFFFFFF AND PUSH20 0xFFFFFFFFFFFFFFFFFFFFFFFFFFFFFFFFFFFFFFFF AND DUP2 MSTORE PUSH1 0x20 ADD SWAP1 DUP2 MSTORE PUSH1 0x20 ADD PUSH0 KECCAK256 PUSH0 DUP3 DUP3 SLOAD PUSH2 0xC8A SWAP2 SWAP1 PUSH2 0x1CED JUMP JUMPDEST SWAP3 POP POP DUP2 SWAP1 SSTORE POP DUP2 PUSH0 PUSH0 DUP4 DUP2 MSTORE PUSH1 0x20 ADD SWAP1 DUP2 MSTORE PUSH1 0x20 ADD PUSH0 KECCAK256 PUSH0 PUSH2 0x100 EXP DUP2 SLOAD DUP2 PUSH20 0xFFFFFFFFFFFFFFFFFFFFFFFFFFFFFFFFFFFFFFFF MUL NOT AND SWAP1 DUP4 PUSH20 0xFFFFFFFFFFFFFFFFFFFFFFFFFFFFFFFFFFFFFFFF AND MUL OR SWAP1 SSTORE POP DUP1 DUP3 PUSH20 0xFFFFFFFFFFFFFFFFFFFFFFFFFFFFFFFFFFFFFFFF AND DUP5 PUSH20 0xFFFFFFFFFFFFFFFFFFFFFFFFFFFFFFFFFFFFFFFF AND PUSH32 0xDDF252AD1BE2C89B69C2B068FC378DAA952BA7F163C4A11628F55A4DF523B3EF PUSH1 0x40 MLOAD PUSH1 0x40 MLOAD DUP1 SWAP2 SUB SWAP1 LOG4 POP POP POP JUMP JUMPDEST PUSH0 PUSH20 0xFFFFFFFFFFFFFFFFFFFFFFFFFFFFFFFFFFFFFFFF AND DUP3 PUSH20 0xFFFFFFFFFFFFFFFFFFFFFFFFFFFFFFFFFFFFFFFF AND SUB PUSH2 0xDAD JUMPI PUSH1 0x40 MLOAD PUSH32 0x8C379A000000000000000000000000000000000000000000000000000000000 DUP2 MSTORE PUSH1 0x4 ADD PUSH2 0xDA4 SWAP1 PUSH2 0x1D6A JUMP JUMPDEST PUSH1 0x40 MLOAD DUP1 SWAP2 SUB SWAP1 REVERT JUMPDEST PUSH2 0xDB6 DUP2 PUSH2 0x904 JUMP JUMPDEST ISZERO PUSH2 0xDF6 JUMPI PUSH1 0x40 MLOAD PUSH32 0x8C379A000000000000000000000000000000000000000000000000000000000 DUP2 MSTORE PUSH1 0x4 ADD PUSH2 0xDED SWAP1 PUSH2 0x1DD2 JUMP JUMPDEST PUSH1 0x40 MLOAD DUP1 SWAP2 SUB SWAP1 REVERT JUMPDEST PUSH1 0x1 DUP1 PUSH0 DUP5 PUSH20 0xFFFFFFFFFFFFFFFFFFFFFFFFFFFFFFFFFFFFFFFF AND PUSH20 0xFFFFFFFFFFFFFFFFFFFFFFFFFFFFFFFFFFFFFFFF AND DUP2 MSTORE PUSH1 0x20 ADD SWAP1 DUP2 MSTORE PUSH1 0x20 ADD PUSH0 KECCAK256 PUSH0 DUP3 DUP3 SLOAD PUSH2 0xE42 SWAP2 SWAP1 PUSH2 0x1CED JUMP JUMPDEST SWAP3 POP POP DUP2 SWAP1 SSTORE POP DUP2 PUSH0 PUSH0 DUP4 DUP2 MSTORE PUSH1 0x20 ADD SWAP1 DUP2 MSTORE PUSH1 0x20 ADD PUSH0 KECCAK256 PUSH0 PUSH2 0x100 EXP DUP2 SLOAD DUP2 PUSH20 0xFFFFFFFFFFFFFFFFFFFFFFFFFFFFFFFFFFFFFFFF MUL NOT AND SWAP1 DUP4 PUSH20 0xFFFFFFFFFFFFFFFFFFFFFFFFFFFFFFFFFFFFFFFF AND MUL OR SWAP1 SSTORE POP DUP1 DUP3 PUSH20 0xFFFFFFFFFFFFFFFFFFFFFFFFFFFFFFFFFFFFFFFF AND PUSH0 PUSH20 0xFFFFFFFFFFFFFFFFFFFFFFFFFFFFFFFFFFFFFFFF AND PUSH32 0xDDF252AD1BE2C89B69C2B068FC378DAA952BA7F163C4A11628F55A4DF523B3EF PUSH1 0x40 MLOAD PUSH1 0x40 MLOAD DUP1 SWAP2 SUB SWAP1 LOG4 POP POP JUMP JUMPDEST PUSH0 PUSH2 0xF00 DUP3 PUSH2 0x556 JUMP JUMPDEST SWAP1 POP DUP1 PUSH20 0xFFFFFFFFFFFFFFFFFFFFFFFFFFFFFFFFFFFFFFFF AND CALLER PUSH20 0xFFFFFFFFFFFFFFFFFFFFFFFFFFFFFFFFFFFFFFFF AND EQ PUSH2 0xF70 JUMPI PUSH1 0x40 MLOAD PUSH32 0x8C379A000000000000000000000000000000000000000000000000000000000 DUP2 MSTORE PUSH1 0x4 ADD PUSH2 0xF67 SWAP1 PUSH2 0x1E60 JUMP JUMPDEST PUSH1 0x40 MLOAD DUP1 SWAP2 SUB SWAP1 REVERT JUMPDEST PUSH2 0xF7A PUSH0 DUP4 PUSH2 0x96B JUMP JUMPDEST PUSH1 0x1 DUP1 PUSH0 DUP4 PUSH20 0xFFFFFFFFFFFFFFFFFFFFFFFFFFFFFFFFFFFFFFFF AND PUSH20 0xFFFFFFFFFFFFFFFFFFFFFFFFFFFFFFFFFFFFFFFF AND DUP2 MSTORE PUSH1 0x20 ADD SWAP1 DUP2 MSTORE PUSH1 0x20 ADD PUSH0 KECCAK256 PUSH0 DUP3 DUP3 SLOAD PUSH2 0xFC6 SWAP2 SWAP1 PUSH2 0x1CBA JUMP JUMPDEST SWAP3 POP POP DUP2 SWAP1 SSTORE POP PUSH0 PUSH0 DUP4 DUP2 MSTORE PUSH1 0x20 ADD SWAP1 DUP2 MSTORE PUSH1 0x20 ADD PUSH0 KECCAK256 PUSH0 PUSH2 0x100 EXP DUP2 SLOAD SWAP1 PUSH20 0xFFFFFFFFFFFFFFFFFFFFFFFFFFFFFFFFFFFFFFFF MUL NOT AND SWAP1 SSTORE DUP2 PUSH0 PUSH20 0xFFFFFFFFFFFFFFFFFFFFFFFFFFFFFFFFFFFFFFFF AND DUP3 PUSH20 0xFFFFFFFFFFFFFFFFFFFFFFFFFFFFFFFFFFFFFFFF AND PUSH32 0xDDF252AD1BE2C89B69C2B068FC378DAA952BA7F163C4A11628F55A4DF523B3EF PUSH1 0x40 MLOAD PUSH1 0x40 MLOAD DUP1 SWAP2 SUB SWAP1 LOG4 POP POP JUMP JUMPDEST PUSH2 0x1069 DUP5 DUP5 DUP5 PUSH2 0xAFD JUMP JUMPDEST PUSH2 0x1075 DUP5 DUP5 DUP5 DUP5 PUSH2 0x10BA JUMP JUMPDEST PUSH2 0x10B4 JUMPI PUSH1 0x40 MLOAD PUSH32 0x8C379A000000000000000000000000000000000000000000000000000000000 DUP2 MSTORE PUSH1 0x4 ADD PUSH2 0x10AB SWAP1 PUSH2 0x1EEE JUMP JUMPDEST PUSH1 0x40 MLOAD DUP1 SWAP2 SUB SWAP1 REVERT JUMPDEST POP POP POP POP JUMP JUMPDEST PUSH0 PUSH0 DUP5 PUSH20 0xFFFFFFFFFFFFFFFFFFFFFFFFFFFFFFFFFFFFFFFF AND EXTCODESIZE GT ISZERO PUSH2 0x1223 JUMPI DUP4 PUSH20 0xFFFFFFFFFFFFFFFFFFFFFFFFFFFFFFFFFFFFFFFF AND PUSH4 0x150B7A02 CALLER DUP8 DUP7 DUP7 PUSH1 0x40 MLOAD DUP6 PUSH4 0xFFFFFFFF AND PUSH1 0xE0 SHL DUP2 MSTORE PUSH1 0x4 ADD PUSH2 0x1119 SWAP5 SWAP4 SWAP3 SWAP2 SWAP1 PUSH2 0x1F6C JUMP JUMPDEST PUSH1 0x20 PUSH1 0x40 MLOAD DUP1 DUP4 SUB DUP2 PUSH0 DUP8 GAS CALL SWAP3 POP POP POP DUP1 ISZERO PUSH2 0x1154 JUMPI POP PUSH1 0x40 MLOAD RETURNDATASIZE PUSH1 0x1F NOT PUSH1 0x1F DUP3 ADD AND DUP3 ADD DUP1 PUSH1 0x40 MSTORE POP DUP2 ADD SWAP1 PUSH2 0x1151 SWAP2 SWAP1 PUSH2 0x1FCA JUMP JUMPDEST PUSH1 0x1 JUMPDEST PUSH2 0x11D3 JUMPI RETURNDATASIZE DUP1 PUSH0 DUP2 EQ PUSH2 0x1182 JUMPI PUSH1 0x40 MLOAD SWAP2 POP PUSH1 0x1F NOT PUSH1 0x3F RETURNDATASIZE ADD AND DUP3 ADD PUSH1 0x40 MSTORE RETURNDATASIZE DUP3 MSTORE RETURNDATASIZE PUSH0 PUSH1 0x20 DUP5 ADD RETURNDATACOPY PUSH2 0x1187 JUMP JUMPDEST PUSH1 0x60 SWAP2 POP JUMPDEST POP PUSH0 DUP2 MLOAD SUB PUSH2 0x11CB JUMPI PUSH1 0x40 MLOAD PUSH32 0x8C379A000000000000000000000000000000000000000000000000000000000 DUP2 MSTORE PUSH1 0x4 ADD PUSH2 0x11C2 SWAP1 PUSH2 0x1EEE JUMP JUMPDEST PUSH1 0x40 MLOAD DUP1 SWAP2 SUB SWAP1 REVERT JUMPDEST DUP1 MLOAD DUP2 PUSH1 0x20 ADD REVERT JUMPDEST PUSH4 0x150B7A02 PUSH1 0xE0 SHL PUSH28 0xFFFFFFFFFFFFFFFFFFFFFFFFFFFFFFFFFFFFFFFFFFFFFFFFFFFFFFFF NOT AND DUP2 PUSH28 0xFFFFFFFFFFFFFFFFFFFFFFFFFFFFFFFFFFFFFFFFFFFFFFFFFFFFFFFF NOT AND EQ SWAP2 POP POP PUSH2 0x1228 JUMP JUMPDEST PUSH1 0x1 SWAP1 POP JUMPDEST SWAP5 SWAP4 POP POP POP POP JUMP JUMPDEST PUSH0 PUSH1 0x40 MLOAD SWAP1 POP SWAP1 JUMP JUMPDEST PUSH0 PUSH0 REVERT JUMPDEST PUSH0 PUSH0 REVERT JUMPDEST PUSH0 PUSH32 0xFFFFFFFF00000000000000000000000000000000000000000000000000000000 DUP3 AND SWAP1 POP SWAP2 SWAP1 POP JUMP JUMPDEST PUSH2 0x1275 DUP2 PUSH2 0x1241 JUMP JUMPDEST DUP2 EQ PUSH2 0x127F JUMPI PUSH0 PUSH0 REVERT JUMPDEST POP JUMP JUMPDEST PUSH0 DUP2 CALLDATALOAD SWAP1 POP PUSH2 0x1290 DUP2 PUSH2 0x126C JUMP JUMPDEST SWAP3 SWAP2 POP POP JUMP JUMPDEST PUSH0 PUSH1 0x20 DUP3 DUP5 SUB SLT ISZERO PUSH2 0x12AB JUMPI PUSH2 0x12AA PUSH2 0x1239 JUMP JUMPDEST JUMPDEST PUSH0 PUSH2 0x12B8 DUP5 DUP3 DUP6 ADD PUSH2 0x1282 JUMP JUMPDEST SWAP2 POP POP SWAP3 SWAP2 POP POP JUMP JUMPDEST PUSH0 DUP2 ISZERO ISZERO SWAP1 POP SWAP2 SWAP1 POP JUMP JUMPDEST PUSH2 0x12D5 DUP2 PUSH2 0x12C1 JUMP JUMPDEST DUP3 MSTORE POP POP JUMP JUMPDEST PUSH0 PUSH1 0x20 DUP3 ADD SWAP1 POP PUSH2 0x12EE PUSH0 DUP4 ADD DUP5 PUSH2 0x12CC JUMP JUMPDEST SWAP3 SWAP2 POP POP JUMP JUMPDEST PUSH0 DUP2 SWAP1 POP SWAP2 SWAP1 POP JUMP JUMPDEST PUSH2 0x1306 DUP2 PUSH2 0x12F4 JUMP JUMPDEST DUP2 EQ PUSH2 0x1310 JUMPI PUSH0 PUSH0 REVERT JUMPDEST POP JUMP JUMPDEST PUSH0 DUP2 CALLDATALOAD SWAP1 POP PUSH2 0x1321 DUP2 PUSH2 0x12FD JUMP JUMPDEST SWAP3 SWAP2 POP POP JUMP JUMPDEST PUSH0 PUSH1 0x20 DUP3 DUP5 SUB SLT ISZERO PUSH2 0x133C JUMPI PUSH2 0x133B PUSH2 0x1239 JUMP JUMPDEST JUMPDEST PUSH0 PUSH2 0x1349 DUP5 DUP3 DUP6 ADD PUSH2 0x1313 JUMP JUMPDEST SWAP2 POP POP SWAP3 SWAP2 POP POP JUMP JUMPDEST PUSH0 PUSH20 0xFFFFFFFFFFFFFFFFFFFFFFFFFFFFFFFFFFFFFFFF DUP3 AND SWAP1 POP SWAP2 SWAP1 POP JUMP JUMPDEST PUSH0 PUSH2 0x137B DUP3 PUSH2 0x1352 JUMP JUMPDEST SWAP1 POP SWAP2 SWAP1 POP JUMP JUMPDEST PUSH2 0x138B DUP2 PUSH2 0x1371 JUMP JUMPDEST DUP3 MSTORE POP POP JUMP JUMPDEST PUSH0 PUSH1 0x20 DUP3 ADD SWAP1 POP PUSH2 0x13A4 PUSH0 DUP4 ADD DUP5 PUSH2 0x1382 JUMP JUMPDEST SWAP3 SWAP2 POP POP JUMP JUMPDEST PUSH2 0x13B3 DUP2 PUSH2 0x1371 JUMP JUMPDEST DUP2 EQ PUSH2 0x13BD JUMPI PUSH0 PUSH0 REVERT JUMPDEST POP JUMP JUMPDEST PUSH0 DUP2 CALLDATALOAD SWAP1 POP PUSH2 0x13CE DUP2 PUSH2 0x13AA JUMP JUMPDEST SWAP3 SWAP2 POP POP JUMP JUMPDEST PUSH0 PUSH0 PUSH1 0x40 DUP4 DUP6 SUB SLT ISZERO PUSH2 0x13EA JUMPI PUSH2 0x13E9 PUSH2 0x1239 JUMP JUMPDEST JUMPDEST PUSH0 PUSH2 0x13F7 DUP6 DUP3 DUP7 ADD PUSH2 0x13C0 JUMP JUMPDEST SWAP3 POP POP PUSH1 0x20 PUSH2 0x1408 DUP6 DUP3 DUP7 ADD PUSH2 0x1313 JUMP JUMPDEST SWAP2 POP POP SWAP3 POP SWAP3 SWAP1 POP JUMP JUMPDEST PUSH0 PUSH0 PUSH0 PUSH1 0x60 DUP5 DUP7 SUB SLT ISZERO PUSH2 0x1429 JUMPI PUSH2 0x1428 PUSH2 0x1239 JUMP JUMPDEST JUMPDEST PUSH0 PUSH2 0x1436 DUP7 DUP3 DUP8 ADD PUSH2 0x13C0 JUMP JUMPDEST SWAP4 POP POP PUSH1 0x20 PUSH2 0x1447 DUP7 DUP3 DUP8 ADD PUSH2 0x13C0 JUMP JUMPDEST SWAP3 POP POP PUSH1 0x40 PUSH2 0x1458 DUP7 DUP3 DUP8 ADD PUSH2 0x1313 JUMP JUMPDEST SWAP2 POP POP SWAP3 POP SWAP3 POP SWAP3 JUMP JUMPDEST PUSH0 PUSH1 0x20 DUP3 DUP5 SUB SLT ISZERO PUSH2 0x1477 JUMPI PUSH2 0x1476 PUSH2 0x1239 JUMP JUMPDEST JUMPDEST PUSH0 PUSH2 0x1484 DUP5 DUP3 DUP6 ADD PUSH2 0x13C0 JUMP JUMPDEST SWAP2 POP POP SWAP3 SWAP2 POP POP JUMP JUMPDEST PUSH2 0x1496 DUP2 PUSH2 0x12F4 JUMP JUMPDEST DUP3 MSTORE POP POP JUMP JUMPDEST PUSH0 PUSH1 0x20 DUP3 ADD SWAP1 POP PUSH2 0x14AF PUSH0 DUP4 ADD DUP5 PUSH2 0x148D JUMP JUMPDEST SWAP3 SWAP2 POP POP JUMP JUMPDEST PUSH2 0x14BE DUP2 PUSH2 0x12C1 JUMP JUMPDEST DUP2 EQ PUSH2 0x14C8 JUMPI PUSH0 PUSH0 REVERT JUMPDEST POP JUMP JUMPDEST PUSH0 DUP2 CALLDATALOAD SWAP1 POP PUSH2 0x14D9 DUP2 PUSH2 0x14B5 JUMP JUMPDEST SWAP3 SWAP2 POP POP JUMP JUMPDEST PUSH0 PUSH0 PUSH1 0x40 DUP4 DUP6 SUB SLT ISZERO PUSH2 0x14F5 JUMPI PUSH2 0x14F4 PUSH2 0x1239 JUMP JUMPDEST JUMPDEST PUSH0 PUSH2 0x1502 DUP6 DUP3 DUP7 ADD PUSH2 0x13C0 JUMP JUMPDEST SWAP3 POP POP PUSH1 0x20 PUSH2 0x1513 DUP6 DUP3 DUP7 ADD PUSH2 0x14CB JUMP JUMPDEST SWAP2 POP POP SWAP3 POP SWAP3 SWAP1 POP JUMP JUMPDEST PUSH0 PUSH0 REVERT JUMPDEST PUSH0 PUSH0 REVERT JUMPDEST PUSH0 PUSH1 0x1F NOT PUSH1 0x1F DUP4 ADD AND SWAP1 POP SWAP2 SWAP1 POP JUMP JUMPDEST PUSH32 0x4E487B7100000000000000000000000000000000000000000000000000000000 PUSH0 MSTORE PUSH1 0x41 PUSH1 0x4 MSTORE PUSH1 0x24 PUSH0 REVERT JUMPDEST PUSH2 0x156B DUP3 PUSH2 0x1525 JUMP JUMPDEST DUP2 ADD DUP2 DUP2 LT PUSH8 0xFFFFFFFFFFFFFFFF DUP3 GT OR ISZERO PUSH2 0x158A JUMPI PUSH2 0x1589 PUSH2 0x1535 JUMP JUMPDEST JUMPDEST DUP1 PUSH1 0x40 MSTORE POP POP POP JUMP JUMPDEST PUSH0 PUSH2 0x159C PUSH2 0x1230 JUMP JUMPDEST SWAP1 POP PUSH2 0x15A8 DUP3 DUP3 PUSH2 0x1562 JUMP JUMPDEST SWAP2 SWAP1 POP JUMP JUMPDEST PUSH0 PUSH8 0xFFFFFFFFFFFFFFFF DUP3 GT ISZERO PUSH2 0x15C7 JUMPI PUSH2 0x15C6 PUSH2 0x1535 JUMP JUMPDEST JUMPDEST PUSH2 0x15D0 DUP3 PUSH2 0x1525 JUMP JUMPDEST SWAP1 POP PUSH1 0x20 DUP2 ADD SWAP1 POP SWAP2 SWAP1 POP JUMP JUMPDEST DUP3 DUP2 DUP4 CALLDATACOPY PUSH0 DUP4 DUP4 ADD MSTORE POP POP POP JUMP JUMPDEST PUSH0 PUSH2 0x15FD PUSH2 0x15F8 DUP5 PUSH2 0x15AD JUMP JUMPDEST PUSH2 0x1593 JUMP JUMPDEST SWAP1 POP DUP3 DUP2 MSTORE PUSH1 0x20 DUP2 ADD DUP5 DUP5 DUP5 ADD GT ISZERO PUSH2 0x1619 JUMPI PUSH2 0x1618 PUSH2 0x1521 JUMP JUMPDEST JUMPDEST PUSH2 0x1624 DUP5 DUP3 DUP6 PUSH2 0x15DD JUMP JUMPDEST POP SWAP4 SWAP3 POP POP POP JUMP JUMPDEST PUSH0 DUP3 PUSH1 0x1F DUP4 ADD SLT PUSH2 0x1640 JUMPI PUSH2 0x163F PUSH2 0x151D JUMP JUMPDEST JUMPDEST DUP2 CALLDATALOAD PUSH2 0x1650 DUP5 DUP3 PUSH1 0x20 DUP7 ADD PUSH2 0x15EB JUMP JUMPDEST SWAP2 POP POP SWAP3 SWAP2 POP POP JUMP JUMPDEST PUSH0 PUSH0 PUSH0 PUSH0 PUSH1 0x80 DUP6 DUP8 SUB SLT ISZERO PUSH2 0x1671 JUMPI PUSH2 0x1670 PUSH2 0x1239 JUMP JUMPDEST JUMPDEST PUSH0 PUSH2 0x167E DUP8 DUP3 DUP9 ADD PUSH2 0x13C0 JUMP JUMPDEST SWAP5 POP POP PUSH1 0x20 PUSH2 0x168F DUP8 DUP3 DUP9 ADD PUSH2 0x13C0 JUMP JUMPDEST SWAP4 POP POP PUSH1 0x40 PUSH2 0x16A0 DUP8 DUP3 DUP9 ADD PUSH2 0x1313 JUMP JUMPDEST SWAP3 POP POP PUSH1 0x60 DUP6 ADD CALLDATALOAD PUSH8 0xFFFFFFFFFFFFFFFF DUP2 GT ISZERO PUSH2 0x16C1 JUMPI PUSH2 0x16C0 PUSH2 0x123D JUMP JUMPDEST JUMPDEST PUSH2 0x16CD DUP8 DUP3 DUP9 ADD PUSH2 0x162C JUMP JUMPDEST SWAP2 POP POP SWAP3 SWAP6 SWAP2 SWAP5 POP SWAP3 POP JUMP JUMPDEST PUSH0 PUSH0 PUSH1 0x40 DUP4 DUP6 SUB SLT ISZERO PUSH2 0x16EF JUMPI PUSH2 0x16EE PUSH2 0x1239 JUMP JUMPDEST JUMPDEST PUSH0 PUSH2 0x16FC DUP6 DUP3 DUP7 ADD PUSH2 0x13C0 JUMP JUMPDEST SWAP3 POP POP PUSH1 0x20 PUSH2 0x170D DUP6 DUP3 DUP7 ADD PUSH2 0x13C0 JUMP JUMPDEST SWAP2 POP POP SWAP3 POP SWAP3 SWAP1 POP JUMP JUMPDEST PUSH0 DUP3 DUP3 MSTORE PUSH1 0x20 DUP3 ADD SWAP1 POP SWAP3 SWAP2 POP POP JUMP JUMPDEST PUSH32 0x4552433732313A20617070726F76656420717565727920666F72206E6F6E6578 PUSH0 DUP3 ADD MSTORE PUSH32 0x697374656E7420746F6B656E0000000000000000000000000000000000000000 PUSH1 0x20 DUP3 ADD MSTORE POP JUMP JUMPDEST PUSH0 PUSH2 0x1781 PUSH1 0x2C DUP4 PUSH2 0x1717 JUMP JUMPDEST SWAP2 POP PUSH2 0x178C DUP3 PUSH2 0x1727 JUMP JUMPDEST PUSH1 0x40 DUP3 ADD SWAP1 POP SWAP2 SWAP1 POP JUMP JUMPDEST PUSH0 PUSH1 0x20 DUP3 ADD SWAP1 POP DUP2 DUP2 SUB PUSH0 DUP4 ADD MSTORE PUSH2 0x17AE DUP2 PUSH2 0x1775 JUMP JUMPDEST SWAP1 POP SWAP2 SWAP1 POP JUMP JUMPDEST PUSH32 0x4552433732313A20617070726F76616C20746F2063757272656E74206F776E65 PUSH0 DUP3 ADD MSTORE PUSH32 0x7200000000000000000000000000000000000000000000000000000000000000 PUSH1 0x20 DUP3 ADD MSTORE POP JUMP JUMPDEST PUSH0 PUSH2 0x180F PUSH1 0x21 DUP4 PUSH2 0x1717 JUMP JUMPDEST SWAP2 POP PUSH2 0x181A DUP3 PUSH2 0x17B5 JUMP JUMPDEST PUSH1 0x40 DUP3 ADD SWAP1 POP SWAP2 SWAP1 POP JUMP JUMPDEST PUSH0 PUSH1 0x20 DUP3 ADD SWAP1 POP DUP2 DUP2 SUB PUSH0 DUP4 ADD MSTORE PUSH2 0x183C DUP2 PUSH2 0x1803 JUMP JUMPDEST SWAP1 POP SWAP2 SWAP1 POP JUMP JUMPDEST PUSH32 0x4552433732313A20617070726F76652063616C6C6572206973206E6F74206F77 PUSH0 DUP3 ADD MSTORE PUSH32 0x6E6572206E6F7220617070726F76656420666F7220616C6C0000000000000000 PUSH1 0x20 DUP3 ADD MSTORE POP JUMP JUMPDEST PUSH0 PUSH2 0x189D PUSH1 0x38 DUP4 PUSH2 0x1717 JUMP JUMPDEST SWAP2 POP PUSH2 0x18A8 DUP3 PUSH2 0x1843 JUMP JUMPDEST PUSH1 0x40 DUP3 ADD SWAP1 POP SWAP2 SWAP1 POP JUMP JUMPDEST PUSH0 PUSH1 0x20 DUP3 ADD SWAP1 POP DUP2 DUP2 SUB PUSH0 DUP4 ADD MSTORE PUSH2 0x18CA DUP2 PUSH2 0x1891 JUMP JUMPDEST SWAP1 POP SWAP2 SWAP1 POP JUMP JUMPDEST PUSH32 0x4552433732313A207472616E736665722063616C6C6572206973206E6F74206F PUSH0 DUP3 ADD MSTORE PUSH32 0x776E6572206E6F7220617070726F766564000000000000000000000000000000 PUSH1 0x20 DUP3 ADD MSTORE POP JUMP JUMPDEST PUSH0 PUSH2 0x192B PUSH1 0x31 DUP4 PUSH2 0x1717 JUMP JUMPDEST SWAP2 POP PUSH2 0x1936 DUP3 PUSH2 0x18D1 JUMP JUMPDEST PUSH1 0x40 DUP3 ADD SWAP1 POP SWAP2 SWAP1 POP JUMP JUMPDEST PUSH0 PUSH1 0x20 DUP3 ADD SWAP1 POP DUP2 DUP2 SUB PUSH0 DUP4 ADD MSTORE PUSH2 0x1958 DUP2 PUSH2 0x191F JUMP JUMPDEST SWAP1 POP SWAP2 SWAP1 POP JUMP JUMPDEST PUSH32 0x4552433732313A206F776E657220717565727920666F72206E6F6E6578697374 PUSH0 DUP3 ADD MSTORE PUSH32 0x656E7420746F6B656E0000000000000000000000000000000000000000000000 PUSH1 0x20 DUP3 ADD MSTORE POP JUMP JUMPDEST PUSH0 PUSH2 0x19B9 PUSH1 0x29 DUP4 PUSH2 0x1717 JUMP JUMPDEST SWAP2 POP PUSH2 0x19C4 DUP3 PUSH2 0x195F JUMP JUMPDEST PUSH1 0x40 DUP3 ADD SWAP1 POP SWAP2 SWAP1 POP JUMP JUMPDEST PUSH0 PUSH1 0x20 DUP3 ADD SWAP1 POP DUP2 DUP2 SUB PUSH0 DUP4 ADD MSTORE PUSH2 0x19E6 DUP2 PUSH2 0x19AD JUMP JUMPDEST SWAP1 POP SWAP2 SWAP1 POP JUMP JUMPDEST PUSH32 0x4552433732313A2062616C616E636520717565727920666F7220746865207A65 PUSH0 DUP3 ADD MSTORE PUSH32 0x726F206164647265737300000000000000000000000000000000000000000000 PUSH1 0x20 DUP3 ADD MSTORE POP JUMP JUMPDEST PUSH0 PUSH2 0x1A47 PUSH1 0x2A DUP4 PUSH2 0x1717 JUMP JUMPDEST SWAP2 POP PUSH2 0x1A52 DUP3 PUSH2 0x19ED JUMP JUMPDEST PUSH1 0x40 DUP3 ADD SWAP1 POP SWAP2 SWAP1 POP JUMP JUMPDEST PUSH0 PUSH1 0x20 DUP3 ADD SWAP1 POP DUP2 DUP2 SUB PUSH0 DUP4 ADD MSTORE PUSH2 0x1A74 DUP2 PUSH2 0x1A3B JUMP JUMPDEST SWAP1 POP SWAP2 SWAP1 POP JUMP JUMPDEST PUSH32 0x4552433732313A20617070726F766520746F2063616C6C657200000000000000 PUSH0 DUP3 ADD MSTORE POP JUMP JUMPDEST PUSH0 PUSH2 0x1AAF PUSH1 0x19 DUP4 PUSH2 0x1717 JUMP JUMPDEST SWAP2 POP PUSH2 0x1ABA DUP3 PUSH2 0x1A7B JUMP JUMPDEST PUSH1 0x20 DUP3 ADD SWAP1 POP SWAP2 SWAP1 POP JUMP JUMPDEST PUSH0 PUSH1 0x20 DUP3 ADD SWAP1 POP DUP2 DUP2 SUB PUSH0 DUP4 ADD MSTORE PUSH2 0x1ADC DUP2 PUSH2 0x1AA3 JUMP JUMPDEST SWAP1 POP SWAP2 SWAP1 POP JUMP JUMPDEST PUSH32 0x4552433732313A206F70657261746F7220717565727920666F72206E6F6E6578 PUSH0 DUP3 ADD MSTORE PUSH32 0x697374656E7420746F6B656E0000000000000000000000000000000000000000 PUSH1 0x20 DUP3 ADD MSTORE POP JUMP JUMPDEST PUSH0 PUSH2 0x1B3D PUSH1 0x2C DUP4 PUSH2 0x1717 JUMP JUMPDEST SWAP2 POP PUSH2 0x1B48 DUP3 PUSH2 0x1AE3 JUMP JUMPDEST PUSH1 0x40 DUP3 ADD SWAP1 POP SWAP2 SWAP1 POP JUMP JUMPDEST PUSH0 PUSH1 0x20 DUP3 ADD SWAP1 POP DUP2 DUP2 SUB PUSH0 DUP4 ADD MSTORE PUSH2 0x1B6A DUP2 PUSH2 0x1B31 JUMP JUMPDEST SWAP1 POP SWAP2 SWAP1 POP JUMP JUMPDEST PUSH32 0x4552433732313A207472616E73666572206F6620746F6B656E20746861742069 PUSH0 DUP3 ADD MSTORE PUSH32 0x73206E6F74206F776E0000000000000000000000000000000000000000000000 PUSH1 0x20 DUP3 ADD MSTORE POP JUMP JUMPDEST PUSH0 PUSH2 0x1BCB PUSH1 0x29 DUP4 PUSH2 0x1717 JUMP JUMPDEST SWAP2 POP PUSH2 0x1BD6 DUP3 PUSH2 0x1B71 JUMP JUMPDEST PUSH1 0x40 DUP3 ADD SWAP1 POP SWAP2 SWAP1 POP JUMP JUMPDEST PUSH0 PUSH1 0x20 DUP3 ADD SWAP1 POP DUP2 DUP2 SUB PUSH0 DUP4 ADD MSTORE PUSH2 0x1BF8 DUP2 PUSH2 0x1BBF JUMP JUMPDEST SWAP1 POP SWAP2 SWAP1 POP JUMP JUMPDEST PUSH32 0x4552433732313A207472616E7366657220746F20746865207A65726F20616464 PUSH0 DUP3 ADD MSTORE PUSH32 0x7265737300000000000000000000000000000000000000000000000000000000 PUSH1 0x20 DUP3 ADD MSTORE POP JUMP JUMPDEST PUSH0 PUSH2 0x1C59 PUSH1 0x24 DUP4 PUSH2 0x1717 JUMP JUMPDEST SWAP2 POP PUSH2 0x1C64 DUP3 PUSH2 0x1BFF JUMP JUMPDEST PUSH1 0x40 DUP3 ADD SWAP1 POP SWAP2 SWAP1 POP JUMP JUMPDEST PUSH0 PUSH1 0x20 DUP3 ADD SWAP1 POP DUP2 DUP2 SUB PUSH0 DUP4 ADD MSTORE PUSH2 0x1C86 DUP2 PUSH2 0x1C4D JUMP JUMPDEST SWAP1 POP SWAP2 SWAP1 POP JUMP JUMPDEST PUSH32 0x4E487B7100000000000000000000000000000000000000000000000000000000 PUSH0 MSTORE PUSH1 0x11 PUSH1 0x4 MSTORE PUSH1 0x24 PUSH0 REVERT JUMPDEST PUSH0 PUSH2 0x1CC4 DUP3 PUSH2 0x12F4 JUMP JUMPDEST SWAP2 POP PUSH2 0x1CCF DUP4 PUSH2 0x12F4 JUMP JUMPDEST SWAP3 POP DUP3 DUP3 SUB SWAP1 POP DUP2 DUP2 GT ISZERO PUSH2 0x1CE7 JUMPI PUSH2 0x1CE6 PUSH2 0x1C8D JUMP JUMPDEST JUMPDEST SWAP3 SWAP2 POP POP JUMP JUMPDEST PUSH0 PUSH2 0x1CF7 DUP3 PUSH2 0x12F4 JUMP JUMPDEST SWAP2 POP PUSH2 0x1D02 DUP4 PUSH2 0x12F4 JUMP JUMPDEST SWAP3 POP DUP3 DUP3 ADD SWAP1 POP DUP1 DUP3 GT ISZERO PUSH2 0x1D1A JUMPI PUSH2 0x1D19 PUSH2 0x1C8D JUMP JUMPDEST JUMPDEST SWAP3 SWAP2 POP POP JUMP JUMPDEST PUSH32 0x4552433732313A206D696E7420746F20746865207A65726F2061646472657373 PUSH0 DUP3 ADD MSTORE POP JUMP JUMPDEST PUSH0 PUSH2 0x1D54 PUSH1 0x20 DUP4 PUSH2 0x1717 JUMP JUMPDEST SWAP2 POP PUSH2 0x1D5F DUP3 PUSH2 0x1D20 JUMP JUMPDEST PUSH1 0x20 DUP3 ADD SWAP1 POP SWAP2 SWAP1 POP JUMP JUMPDEST PUSH0 PUSH1 0x20 DUP3 ADD SWAP1 POP DUP2 DUP2 SUB PUSH0 DUP4 ADD MSTORE PUSH2 0x1D81 DUP2 PUSH2 0x1D48 JUMP JUMPDEST SWAP1 POP SWAP2 SWAP1 POP JUMP JUMPDEST PUSH32 0x4552433732313A20746F6B656E20616C7265616479206D696E74656400000000 PUSH0 DUP3 ADD MSTORE POP JUMP JUMPDEST PUSH0 PUSH2 0x1DBC PUSH1 0x1C DUP4 PUSH2 0x1717 JUMP JUMPDEST SWAP2 POP PUSH2 0x1DC7 DUP3 PUSH2 0x1D88 JUMP JUMPDEST PUSH1 0x20 DUP3 ADD SWAP1 POP SWAP2 SWAP1 POP JUMP JUMPDEST PUSH0 PUSH1 0x20 DUP3 ADD SWAP1 POP DUP2 DUP2 SUB PUSH0 DUP4 ADD MSTORE PUSH2 0x1DE9 DUP2 PUSH2 0x1DB0 JUMP JUMPDEST SWAP1 POP SWAP2 SWAP1 POP JUMP JUMPDEST PUSH32 0x4552433732313A206275726E206F6620746F6B656E2074686174206973206E6F PUSH0 DUP3 ADD MSTORE PUSH32 0x74206F776E000000000000000000000000000000000000000000000000000000 PUSH1 0x20 DUP3 ADD MSTORE POP JUMP JUMPDEST PUSH0 PUSH2 0x1E4A PUSH1 0x25 DUP4 PUSH2 0x1717 JUMP JUMPDEST SWAP2 POP PUSH2 0x1E55 DUP3 PUSH2 0x1DF0 JUMP JUMPDEST PUSH1 0x40 DUP3 ADD SWAP1 POP SWAP2 SWAP1 POP JUMP JUMPDEST PUSH0 PUSH1 0x20 DUP3 ADD SWAP1 POP DUP2 DUP2 SUB PUSH0 DUP4 ADD MSTORE PUSH2 0x1E77 DUP2 PUSH2 0x1E3E JUMP JUMPDEST SWAP1 POP SWAP2 SWAP1 POP JUMP JUMPDEST PUSH32 0x4552433732313A207472616E7366657220746F206E6F6E204552433732315265 PUSH0 DUP3 ADD MSTORE PUSH32 0x63656976657220696D706C656D656E7465720000000000000000000000000000 PUSH1 0x20 DUP3 ADD MSTORE POP JUMP JUMPDEST PUSH0 PUSH2 0x1ED8 PUSH1 0x32 DUP4 PUSH2 0x1717 JUMP JUMPDEST SWAP2 POP PUSH2 0x1EE3 DUP3 PUSH2 0x1E7E JUMP JUMPDEST PUSH1 0x40 DUP3 ADD SWAP1 POP SWAP2 SWAP1 POP JUMP JUMPDEST PUSH0 PUSH1 0x20 DUP3 ADD SWAP1 POP DUP2 DUP2 SUB PUSH0 DUP4 ADD MSTORE PUSH2 0x1F05 DUP2 PUSH2 0x1ECC JUMP JUMPDEST SWAP1 POP SWAP2 SWAP1 POP JUMP JUMPDEST PUSH0 DUP2 MLOAD SWAP1 POP SWAP2 SWAP1 POP JUMP JUMPDEST PUSH0 DUP3 DUP3 MSTORE PUSH1 0x20 DUP3 ADD SWAP1 POP SWAP3 SWAP2 POP POP JUMP JUMPDEST DUP3 DUP2 DUP4 MCOPY PUSH0 DUP4 DUP4 ADD MSTORE POP POP POP JUMP JUMPDEST PUSH0 PUSH2 0x1F3E DUP3 PUSH2 0x1F0C JUMP JUMPDEST PUSH2 0x1F48 DUP2 DUP6 PUSH2 0x1F16 JUMP JUMPDEST SWAP4 POP PUSH2 0x1F58 DUP2 DUP6 PUSH1 0x20 DUP7 ADD PUSH2 0x1F26 JUMP JUMPDEST PUSH2 0x1F61 DUP2 PUSH2 0x1525 JUMP JUMPDEST DUP5 ADD SWAP2 POP POP SWAP3 SWAP2 POP POP JUMP JUMPDEST PUSH0 PUSH1 0x80 DUP3 ADD SWAP1 POP PUSH2 0x1F7F PUSH0 DUP4 ADD DUP8 PUSH2 0x1382 JUMP JUMPDEST PUSH2 0x1F8C PUSH1 0x20 DUP4 ADD DUP7 PUSH2 0x1382 JUMP JUMPDEST PUSH2 0x1F99 PUSH1 0x40 DUP4 ADD DUP6 PUSH2 0x148D JUMP JUMPDEST DUP2 DUP2 SUB PUSH1 0x60 DUP4 ADD MSTORE PUSH2 0x1FAB DUP2 DUP5 PUSH2 0x1F34 JUMP JUMPDEST SWAP1 POP SWAP6 SWAP5 POP POP POP POP POP JUMP JUMPDEST PUSH0 DUP2 MLOAD SWAP1 POP PUSH2 0x1FC4 DUP2 PUSH2 0x126C JUMP JUMPDEST SWAP3 SWAP2 POP POP JUMP JUMPDEST PUSH0 PUSH1 0x20 DUP3 DUP5 SUB SLT ISZERO PUSH2 0x1FDF JUMPI PUSH2 0x1FDE PUSH2 0x1239 JUMP JUMPDEST JUMPDEST PUSH0 PUSH2 0x1FEC DUP5 DUP3 DUP6 ADD PUSH2 0x1FB6 JUMP JUMPDEST SWAP2 POP POP SWAP3 SWAP2 POP POP JUMP INVALID LOG2 PUSH5 0x6970667358 0x22 SLT KECCAK256 SWAP9 CALL 0xC7 EXP SELFDESTRUCT 0xB4 0xD6 DUP14 PUSH13 0xF5E9A9D6A98D328A3C01F2A3CE 0x2F 0x2A 0xD7 0xBD 0xBE 0x2A SHL TSTORE PUSH17 0xA564736F6C634300081B00330000000000 "
				},
				"gasEstimates": {
					"creation": {
						"codeDepositCost": "1647000",
						"executionCost": "1727",
						"totalCost": "1648727"
					},
					"external": {
						"approve(address,uint256)": "infinite",
						"balanceOf(address)": "2907",
						"burn(uint256)": "infinite",
						"getApproved(uint256)": "5164",
						"isApprovedForAll(address,address)": "infinite",
						"mint(address,uint256)": "infinite",
						"ownerOf(uint256)": "2979",
						"safeTransferFrom(address,address,uint256)": "infinite",
						"safeTransferFrom(address,address,uint256,bytes)": "infinite",
						"setApprovalForAll(address,bool)": "infinite",
						"supportsInterface(bytes4)": "676",
						"transferFrom(address,address,uint256)": "infinite"
					}
				},
				"methodIdentifiers": {
					"approve(address,uint256)": "095ea7b3",
					"balanceOf(address)": "70a08231",
					"burn(uint256)": "42966c68",
					"getApproved(uint256)": "081812fc",
					"isApprovedForAll(address,address)": "e985e9c5",
					"mint(address,uint256)": "40c10f19",
					"ownerOf(uint256)": "6352211e",
					"safeTransferFrom(address,address,uint256)": "42842e0e",
					"safeTransferFrom(address,address,uint256,bytes)": "b88d4fde",
					"setApprovalForAll(address,bool)": "a22cb465",
					"supportsInterface(bytes4)": "01ffc9a7",
					"transferFrom(address,address,uint256)": "23b872dd"
				}
			},
			"storageLayout": {
				"storage": [
					{
						"astId": 129,
						"contract": "contracts/MyNFT.sol:MyNFT",
						"label": "_owners",
						"offset": 0,
						"slot": "0",
						"type": "t_mapping(t_uint256,t_address)"
					},
					{
						"astId": 133,
						"contract": "contracts/MyNFT.sol:MyNFT",
						"label": "_balances",
						"offset": 0,
						"slot": "1",
						"type": "t_mapping(t_address,t_uint256)"
					},
					{
						"astId": 137,
						"contract": "contracts/MyNFT.sol:MyNFT",
						"label": "_tokenApprovals",
						"offset": 0,
						"slot": "2",
						"type": "t_mapping(t_uint256,t_address)"
					},
					{
						"astId": 143,
						"contract": "contracts/MyNFT.sol:MyNFT",
						"label": "_operatorApprovals",
						"offset": 0,
						"slot": "3",
						"type": "t_mapping(t_address,t_mapping(t_address,t_bool))"
					}
				],
				"types": {
					"t_address": {
						"encoding": "inplace",
						"label": "address",
						"numberOfBytes": "20"
					},
					"t_bool": {
						"encoding": "inplace",
						"label": "bool",
						"numberOfBytes": "1"
					},
					"t_mapping(t_address,t_bool)": {
						"encoding": "mapping",
						"key": "t_address",
						"label": "mapping(address => bool)",
						"numberOfBytes": "32",
						"value": "t_bool"
					},
					"t_mapping(t_address,t_mapping(t_address,t_bool))": {
						"encoding": "mapping",
						"key": "t_address",
						"label": "mapping(address => mapping(address => bool))",
						"numberOfBytes": "32",
						"value": "t_mapping(t_address,t_bool)"
					},
					"t_mapping(t_address,t_uint256)": {
						"encoding": "mapping",
						"key": "t_address",
						"label": "mapping(address => uint256)",
						"numberOfBytes": "32",
						"value": "t_uint256"
					},
					"t_mapping(t_uint256,t_address)": {
						"encoding": "mapping",
						"key": "t_uint256",
						"label": "mapping(uint256 => address)",
						"numberOfBytes": "32",
						"value": "t_address"
					},
					"t_uint256": {
						"encoding": "inplace",
						"label": "uint256",
						"numberOfBytes": "32"
					}
				}
			},
			"userdoc": {
				"kind": "user",
				"methods": {},
				"version": 1
			}
		}
	}
}