{
	"data": {
		"bytecode": {
			"linkReferences": {},
			"object": "60a060405234801562000010575f80fd5b5060405162001a7638038062001a768339818101604052810190620000369190620000d6565b8073ffffffffffffffffffffffffffffffffffffffff1660808173ffffffffffffffffffffffffffffffffffffffff16815250505062000106565b5f80fd5b5f73ffffffffffffffffffffffffffffffffffffffff82169050919050565b5f620000a08262000075565b9050919050565b620000b28162000094565b8114620000bd575f80fd5b50565b5f81519050620000d081620000a7565b92915050565b5f60208284031215620000ee57620000ed62000071565b5b5f620000fd84828501620000c0565b91505092915050565b60805161193b6200013b5f395f818161034b015281816105f4015281816109f101528181610e0f0152610f7a015261193b5ff3fe608060405234801561000f575f80fd5b506004361061009c575f3560e01c8063aa4fb63a11610064578063aa4fb63a1461012e578063cbc261d71461015e578063fb516afd14610193578063fc0c546a146101af578063fde327be146101cd5761009c565b806306661abd146100a0578063278ecde1146100be578063379607f5146100da57806340e58ee5146100f6578063a3a0e93614610112575b5f80fd5b6100a86101e9565b6040516100b59190611082565b60405180910390f35b6100d860048036038101906100d391906110c9565b6101ee565b005b6100f460048036038101906100ef91906110c9565b610439565b005b610110600480360381019061010b91906110c9565b6106cd565b005b61012c600480360381019061012791906110f4565b610903565b005b6101486004803603810190610143919061118c565b610adf565b6040516101559190611082565b60405180910390f35b610178600480360381019061017391906110c9565b610aff565b60405161018a96959493929190611211565b60405180910390f35b6101ad60048036038101906101a8919061129a565b610b82565b005b6101b7610e0d565b6040516101c49190611345565b60405180910390f35b6101e760048036038101906101e291906110f4565b610e31565b005b5f5481565b5f60015f8381526020019081526020015f2090508060030160049054906101000a900463ffffffff1663ffffffff16421161025e576040517f08c379a0000000000000000000000000000000000000000000000000000000008152600401610255906113b8565b60405180910390fd5b80600101548160020154106102a8576040517f08c379a000000000000000000000000000000000000000000000000000000000815260040161029f90611420565b60405180910390fd5b5f60025f8481526020019081526020015f205f3373ffffffffffffffffffffffffffffffffffffffff1673ffffffffffffffffffffffffffffffffffffffff1681526020019081526020015f205490505f60025f8581526020019081526020015f205f3373ffffffffffffffffffffffffffffffffffffffff1673ffffffffffffffffffffffffffffffffffffffff1681526020019081526020015f20819055507f000000000000000000000000000000000000000000000000000000000000000073ffffffffffffffffffffffffffffffffffffffff1663a9059cbb33836040518363ffffffff1660e01b81526004016103a492919061143e565b6020604051808303815f875af11580156103c0573d5f803e3d5ffd5b505050506040513d601f19601f820116820180604052508101906103e4919061148f565b503373ffffffffffffffffffffffffffffffffffffffff16837f21e12a7cad0da5928167e1084ea4d5fdf8d9af66657a2543a9ac76a0ca0814778360405161042c9190611082565b60405180910390a3505050565b5f60015f8381526020019081526020015f209050805f015f9054906101000a900473ffffffffffffffffffffffffffffffffffffffff1673ffffffffffffffffffffffffffffffffffffffff163373ffffffffffffffffffffffffffffffffffffffff16146104dd576040517f08c379a00000000000000000000000000000000000000000000000000000000081526004016104d490611504565b60405180910390fd5b8060030160049054906101000a900463ffffffff1663ffffffff164211610539576040517f08c379a0000000000000000000000000000000000000000000000000000000008152600401610530906113b8565b60405180910390fd5b806001015481600201541015610584576040517f08c379a000000000000000000000000000000000000000000000000000000000815260040161057b9061156c565b60405180910390fd5b8060030160089054906101000a900460ff166105d5576040517f08c379a00000000000000000000000000000000000000000000000000000000081526004016105cc906115d4565b60405180910390fd5b60018160030160086101000a81548160ff0219169083151502179055507f000000000000000000000000000000000000000000000000000000000000000073ffffffffffffffffffffffffffffffffffffffff1663a9059cbb3383600201546040518363ffffffff1660e01b815260040161065192919061143e565b6020604051808303815f875af115801561066d573d5f803e3d5ffd5b505050506040513d601f19601f82011682018060405250810190610691919061148f565b507f7bb2b3c10797baccb6f8c4791f1edd6ca2f0d028ee0eda64b01a9a57e3a653f7826040516106c19190611082565b60405180910390a15050565b5f60015f8381526020019081526020015f206040518060c00160405290815f82015f9054906101000a900473ffffffffffffffffffffffffffffffffffffffff1673ffffffffffffffffffffffffffffffffffffffff1673ffffffffffffffffffffffffffffffffffffffff1681526020016001820154815260200160028201548152602001600382015f9054906101000a900463ffffffff1663ffffffff1663ffffffff1681526020016003820160049054906101000a900463ffffffff1663ffffffff1663ffffffff1681526020016003820160089054906101000a900460ff1615151515815250509050805f015173ffffffffffffffffffffffffffffffffffffffff163373ffffffffffffffffffffffffffffffffffffffff161461082b576040517f08c379a000000000000000000000000000000000000000000000000000000000815260040161082290611504565b60405180910390fd5b806060015163ffffffff164210610840575f80fd5b60015f8381526020019081526020015f205f8082015f6101000a81549073ffffffffffffffffffffffffffffffffffffffff0219169055600182015f9055600282015f9055600382015f6101000a81549063ffffffff02191690556003820160046101000a81549063ffffffff02191690556003820160086101000a81549060ff021916905550507f8bf30e7ff26833413be5f69e1d373744864d600b664204b4a2f9844a8eedb9ed826040516108f79190611082565b60405180910390a15050565b5f60015f8481526020019081526020015f2090508060030160049054906101000a900463ffffffff1663ffffffff164210610973576040517f08c379a000000000000000000000000000000000000000000000000000000000815260040161096a9061163c565b60405180910390fd5b81816002015f8282546109869190611687565b925050819055508160025f8581526020019081526020015f205f3373ffffffffffffffffffffffffffffffffffffffff1673ffffffffffffffffffffffffffffffffffffffff1681526020019081526020015f205f8282546109e89190611687565b925050819055507f000000000000000000000000000000000000000000000000000000000000000073ffffffffffffffffffffffffffffffffffffffff1663a9059cbb33846040518363ffffffff1660e01b8152600401610a4a92919061143e565b6020604051808303815f875af1158015610a66573d5f803e3d5ffd5b505050506040513d601f19601f82011682018060405250810190610a8a919061148f565b503373ffffffffffffffffffffffffffffffffffffffff16837fdc63160518c9c709fe39309a0e6f3d567887986a4625cd35090a6689e56e34c084604051610ad29190611082565b60405180910390a3505050565b6002602052815f5260405f20602052805f5260405f205f91509150505481565b6001602052805f5260405f205f91509050805f015f9054906101000a900473ffffffffffffffffffffffffffffffffffffffff1690806001015490806002015490806003015f9054906101000a900463ffffffff16908060030160049054906101000a900463ffffffff16908060030160089054906101000a900460ff16905086565b428263ffffffff161015610bcb576040517f08c379a0000000000000000000000000000000000000000000000000000000008152600401610bc290611704565b60405180910390fd5b8063ffffffff168263ffffffff1610610c19576040517f08c379a0000000000000000000000000000000000000000000000000000000008152600401610c109061176c565b60405180910390fd5b6276a70042610c28919061178a565b8163ffffffff161115610c70576040517f08c379a0000000000000000000000000000000000000000000000000000000008152600401610c6790611807565b60405180910390fd5b60015f80828254610c81919061178a565b925050819055506040518060c001604052803373ffffffffffffffffffffffffffffffffffffffff1681526020018481526020015f81526020018363ffffffff1681526020018263ffffffff1681526020015f151581525060015f805481526020019081526020015f205f820151815f015f6101000a81548173ffffffffffffffffffffffffffffffffffffffff021916908373ffffffffffffffffffffffffffffffffffffffff16021790555060208201518160010155604082015181600201556060820151816003015f6101000a81548163ffffffff021916908363ffffffff16021790555060808201518160030160046101000a81548163ffffffff021916908363ffffffff16021790555060a08201518160030160086101000a81548160ff0219169083151502179055509050503373ffffffffffffffffffffffffffffffffffffffff167f9a60606419deb00ed69193a1e06b09d64a19b2b86207baa9bac7e194517aae935f54858585604051610e009493929190611825565b60405180910390a2505050565b7f000000000000000000000000000000000000000000000000000000000000000081565b5f60015f8481526020019081526020015f209050806003015f9054906101000a900463ffffffff1663ffffffff164211610ea0576040517f08c379a0000000000000000000000000000000000000000000000000000000008152600401610e97906118b2565b60405180910390fd5b8060030160049054906101000a900463ffffffff1663ffffffff164210610efc576040517f08c379a0000000000000000000000000000000000000000000000000000000008152600401610ef39061163c565b60405180910390fd5b81816002015f828254610f0f919061178a565b925050819055508160025f8581526020019081526020015f205f3373ffffffffffffffffffffffffffffffffffffffff1673ffffffffffffffffffffffffffffffffffffffff1681526020019081526020015f205f828254610f71919061178a565b925050819055507f000000000000000000000000000000000000000000000000000000000000000073ffffffffffffffffffffffffffffffffffffffff166323b872dd3330856040518463ffffffff1660e01b8152600401610fd5939291906118d0565b6020604051808303815f875af1158015610ff1573d5f803e3d5ffd5b505050506040513d601f19601f82011682018060405250810190611015919061148f565b503373ffffffffffffffffffffffffffffffffffffffff16837f2757ac6a40883f4491cc56930ae964df9034e343e660d5179eb01e198336756b8460405161105d9190611082565b60405180910390a3505050565b5f819050919050565b61107c8161106a565b82525050565b5f6020820190506110955f830184611073565b92915050565b5f80fd5b6110a88161106a565b81146110b2575f80fd5b50565b5f813590506110c38161109f565b92915050565b5f602082840312156110de576110dd61109b565b5b5f6110eb848285016110b5565b91505092915050565b5f806040838503121561110a5761110961109b565b5b5f611117858286016110b5565b9250506020611128858286016110b5565b9150509250929050565b5f73ffffffffffffffffffffffffffffffffffffffff82169050919050565b5f61115b82611132565b9050919050565b61116b81611151565b8114611175575f80fd5b50565b5f8135905061118681611162565b92915050565b5f80604083850312156111a2576111a161109b565b5b5f6111af858286016110b5565b92505060206111c085828601611178565b9150509250929050565b6111d381611151565b82525050565b5f63ffffffff82169050919050565b6111f1816111d9565b82525050565b5f8115159050919050565b61120b816111f7565b82525050565b5f60c0820190506112245f8301896111ca565b6112316020830188611073565b61123e6040830187611073565b61124b60608301866111e8565b61125860808301856111e8565b61126560a0830184611202565b979650505050505050565b611279816111d9565b8114611283575f80fd5b50565b5f8135905061129481611270565b92915050565b5f805f606084860312156112b1576112b061109b565b5b5f6112be868287016110b5565b93505060206112cf86828701611286565b92505060406112e086828701611286565b9150509250925092565b5f819050919050565b5f61130d61130861130384611132565b6112ea565b611132565b9050919050565b5f61131e826112f3565b9050919050565b5f61132f82611314565b9050919050565b61133f81611325565b82525050565b5f6020820190506113585f830184611336565b92915050565b5f82825260208201905092915050565b7f6e6f7420656e64656400000000000000000000000000000000000000000000005f82015250565b5f6113a260098361135e565b91506113ad8261136e565b602082019050919050565b5f6020820190508181035f8301526113cf81611396565b9050919050565b7f706c6564676564203e3d20676f616c00000000000000000000000000000000005f82015250565b5f61140a600f8361135e565b9150611415826113d6565b602082019050919050565b5f6020820190508181035f830152611437816113fe565b9050919050565b5f6040820190506114515f8301856111ca565b61145e6020830184611073565b9392505050565b61146e816111f7565b8114611478575f80fd5b50565b5f8151905061148981611465565b92915050565b5f602082840312156114a4576114a361109b565b5b5f6114b18482850161147b565b91505092915050565b7f6e6f742063726561746f720000000000000000000000000000000000000000005f82015250565b5f6114ee600b8361135e565b91506114f9826114ba565b602082019050919050565b5f6020820190508181035f83015261151b816114e2565b9050919050565b7f706c6564676564203c20676f616c0000000000000000000000000000000000005f82015250565b5f611556600e8361135e565b915061156182611522565b602082019050919050565b5f6020820190508181035f8301526115838161154a565b9050919050565b7f636c61696d6564000000000000000000000000000000000000000000000000005f82015250565b5f6115be60078361135e565b91506115c98261158a565b602082019050919050565b5f6020820190508181035f8301526115eb816115b2565b9050919050565b7f656e6465640000000000000000000000000000000000000000000000000000005f82015250565b5f61162660058361135e565b9150611631826115f2565b602082019050919050565b5f6020820190508181035f8301526116538161161a565b9050919050565b7f4e487b71000000000000000000000000000000000000000000000000000000005f52601160045260245ffd5b5f6116918261106a565b915061169c8361106a565b92508282039050818111156116b4576116b361165a565b5b92915050565b7f73746172744174203c206e6f77000000000000000000000000000000000000005f82015250565b5f6116ee600d8361135e565b91506116f9826116ba565b602082019050919050565b5f6020820190508181035f83015261171b816116e2565b9050919050565b7f656e644174203e20656e644174000000000000000000000000000000000000005f82015250565b5f611756600d8361135e565b915061176182611722565b602082019050919050565b5f6020820190508181035f8301526117838161174a565b9050919050565b5f6117948261106a565b915061179f8361106a565b92508282019050808211156117b7576117b661165a565b5b92915050565b7f656e644174203e206d61782064756174696f6e000000000000000000000000005f82015250565b5f6117f160138361135e565b91506117fc826117bd565b602082019050919050565b5f6020820190508181035f83015261181e816117e5565b9050919050565b5f6080820190506118385f830187611073565b6118456020830186611073565b61185260408301856111e8565b61185f60608301846111e8565b95945050505050565b7f6e6f7420737461727400000000000000000000000000000000000000000000005f82015250565b5f61189c60098361135e565b91506118a782611868565b602082019050919050565b5f6020820190508181035f8301526118c981611890565b9050919050565b5f6060820190506118e35f8301866111ca565b6118f060208301856111ca565b6118fd6040830184611073565b94935050505056fea2646970667358221220439ce01adbc6e6059e03255e15348f0c0e25793039aacfce62548cefd2873df664736f6c63430008140033",
			"opcodes": "PUSH1 0xA0 PUSH1 0x40 MSTORE CALLVALUE DUP1 ISZERO PUSH3 0x10 JUMPI PUSH0 DUP1 REVERT JUMPDEST POP PUSH1 0x40 MLOAD PUSH3 0x1A76 CODESIZE SUB DUP1 PUSH3 0x1A76 DUP4 CODECOPY DUP2 DUP2 ADD PUSH1 0x40 MSTORE DUP2 ADD SWAP1 PUSH3 0x36 SWAP2 SWAP1 PUSH3 0xD6 JUMP JUMPDEST DUP1 PUSH20 0xFFFFFFFFFFFFFFFFFFFFFFFFFFFFFFFFFFFFFFFF AND PUSH1 0x80 DUP2 PUSH20 0xFFFFFFFFFFFFFFFFFFFFFFFFFFFFFFFFFFFFFFFF AND DUP2 MSTORE POP POP POP PUSH3 0x106 JUMP JUMPDEST PUSH0 DUP1 REVERT JUMPDEST PUSH0 PUSH20 0xFFFFFFFFFFFFFFFFFFFFFFFFFFFFFFFFFFFFFFFF DUP3 AND SWAP1 POP SWAP2 SWAP1 POP JUMP JUMPDEST PUSH0 PUSH3 0xA0 DUP3 PUSH3 0x75 JUMP JUMPDEST SWAP1 POP SWAP2 SWAP1 POP JUMP JUMPDEST PUSH3 0xB2 DUP2 PUSH3 0x94 JUMP JUMPDEST DUP2 EQ PUSH3 0xBD JUMPI PUSH0 DUP1 REVERT JUMPDEST POP JUMP JUMPDEST PUSH0 DUP2 MLOAD SWAP1 POP PUSH3 0xD0 DUP2 PUSH3 0xA7 JUMP JUMPDEST SWAP3 SWAP2 POP POP JUMP JUMPDEST PUSH0 PUSH1 0x20 DUP3 DUP5 SUB SLT ISZERO PUSH3 0xEE JUMPI PUSH3 0xED PUSH3 0x71 JUMP JUMPDEST JUMPDEST PUSH0 PUSH3 0xFD DUP5 DUP3 DUP6 ADD PUSH3 0xC0 JUMP JUMPDEST SWAP2 POP POP SWAP3 SWAP2 POP POP JUMP JUMPDEST PUSH1 0x80 MLOAD PUSH2 0x193B PUSH3 0x13B PUSH0 CODECOPY PUSH0 DUP2 DUP2 PUSH2 0x34B ADD MSTORE DUP2 DUP2 PUSH2 0x5F4 ADD MSTORE DUP2 DUP2 PUSH2 0x9F1 ADD MSTORE DUP2 DUP2 PUSH2 0xE0F ADD MSTORE PUSH2 0xF7A ADD MSTORE PUSH2 0x193B PUSH0 RETURN INVALID PUSH1 0x80 PUSH1 0x40 MSTORE CALLVALUE DUP1 ISZERO PUSH2 0xF JUMPI PUSH0 DUP1 REVERT JUMPDEST POP PUSH1 0x4 CALLDATASIZE LT PUSH2 0x9C JUMPI PUSH0 CALLDATALOAD PUSH1 0xE0 SHR DUP1 PUSH4 0xAA4FB63A GT PUSH2 0x64 JUMPI DUP1 PUSH4 0xAA4FB63A EQ PUSH2 0x12E JUMPI DUP1 PUSH4 0xCBC261D7 EQ PUSH2 0x15E JUMPI DUP1 PUSH4 0xFB516AFD EQ PUSH2 0x193 JUMPI DUP1 PUSH4 0xFC0C546A EQ PUSH2 0x1AF JUMPI DUP1 PUSH4 0xFDE327BE EQ PUSH2 0x1CD JUMPI PUSH2 0x9C JUMP JUMPDEST DUP1 PUSH4 0x6661ABD EQ PUSH2 0xA0 JUMPI DUP1 PUSH4 0x278ECDE1 EQ PUSH2 0xBE JUMPI DUP1 PUSH4 0x379607F5 EQ PUSH2 0xDA JUMPI DUP1 PUSH4 0x40E58EE5 EQ PUSH2 0xF6 JUMPI DUP1 PUSH4 0xA3A0E936 EQ PUSH2 0x112 JUMPI JUMPDEST PUSH0 DUP1 REVERT JUMPDEST PUSH2 0xA8 PUSH2 0x1E9 JUMP JUMPDEST PUSH1 0x40 MLOAD PUSH2 0xB5 SWAP2 SWAP1 PUSH2 0x1082 JUMP JUMPDEST PUSH1 0x40 MLOAD DUP1 SWAP2 SUB SWAP1 RETURN JUMPDEST PUSH2 0xD8 PUSH1 0x4 DUP1 CALLDATASIZE SUB DUP2 ADD SWAP1 PUSH2 0xD3 SWAP2 SWAP1 PUSH2 0x10C9 JUMP JUMPDEST PUSH2 0x1EE JUMP JUMPDEST STOP JUMPDEST PUSH2 0xF4 PUSH1 0x4 DUP1 CALLDATASIZE SUB DUP2 ADD SWAP1 PUSH2 0xEF SWAP2 SWAP1 PUSH2 0x10C9 JUMP JUMPDEST PUSH2 0x439 JUMP JUMPDEST STOP JUMPDEST PUSH2 0x110 PUSH1 0x4 DUP1 CALLDATASIZE SUB DUP2 ADD SWAP1 PUSH2 0x10B SWAP2 SWAP1 PUSH2 0x10C9 JUMP JUMPDEST PUSH2 0x6CD JUMP JUMPDEST STOP JUMPDEST PUSH2 0x12C PUSH1 0x4 DUP1 CALLDATASIZE SUB DUP2 ADD SWAP1 PUSH2 0x127 SWAP2 SWAP1 PUSH2 0x10F4 JUMP JUMPDEST PUSH2 0x903 JUMP JUMPDEST STOP JUMPDEST PUSH2 0x148 PUSH1 0x4 DUP1 CALLDATASIZE SUB DUP2 ADD SWAP1 PUSH2 0x143 SWAP2 SWAP1 PUSH2 0x118C JUMP JUMPDEST PUSH2 0xADF JUMP JUMPDEST PUSH1 0x40 MLOAD PUSH2 0x155 SWAP2 SWAP1 PUSH2 0x1082 JUMP JUMPDEST PUSH1 0x40 MLOAD DUP1 SWAP2 SUB SWAP1 RETURN JUMPDEST PUSH2 0x178 PUSH1 0x4 DUP1 CALLDATASIZE SUB DUP2 ADD SWAP1 PUSH2 0x173 SWAP2 SWAP1 PUSH2 0x10C9 JUMP JUMPDEST PUSH2 0xAFF JUMP JUMPDEST PUSH1 0x40 MLOAD PUSH2 0x18A SWAP7 SWAP6 SWAP5 SWAP4 SWAP3 SWAP2 SWAP1 PUSH2 0x1211 JUMP JUMPDEST PUSH1 0x40 MLOAD DUP1 SWAP2 SUB SWAP1 RETURN JUMPDEST PUSH2 0x1AD PUSH1 0x4 DUP1 CALLDATASIZE SUB DUP2 ADD SWAP1 PUSH2 0x1A8 SWAP2 SWAP1 PUSH2 0x129A JUMP JUMPDEST PUSH2 0xB82 JUMP JUMPDEST STOP JUMPDEST PUSH2 0x1B7 PUSH2 0xE0D JUMP JUMPDEST PUSH1 0x40 MLOAD PUSH2 0x1C4 SWAP2 SWAP1 PUSH2 0x1345 JUMP JUMPDEST PUSH1 0x40 MLOAD DUP1 SWAP2 SUB SWAP1 RETURN JUMPDEST PUSH2 0x1E7 PUSH1 0x4 DUP1 CALLDATASIZE SUB DUP2 ADD SWAP1 PUSH2 0x1E2 SWAP2 SWAP1 PUSH2 0x10F4 JUMP JUMPDEST PUSH2 0xE31 JUMP JUMPDEST STOP JUMPDEST PUSH0 SLOAD DUP2 JUMP JUMPDEST PUSH0 PUSH1 0x1 PUSH0 DUP4 DUP2 MSTORE PUSH1 0x20 ADD SWAP1 DUP2 MSTORE PUSH1 0x20 ADD PUSH0 KECCAK256 SWAP1 POP DUP1 PUSH1 0x3 ADD PUSH1 0x4 SWAP1 SLOAD SWAP1 PUSH2 0x100 EXP SWAP1 DIV PUSH4 0xFFFFFFFF AND PUSH4 0xFFFFFFFF AND TIMESTAMP GT PUSH2 0x25E JUMPI PUSH1 0x40 MLOAD PUSH32 0x8C379A000000000000000000000000000000000000000000000000000000000 DUP2 MSTORE PUSH1 0x4 ADD PUSH2 0x255 SWAP1 PUSH2 0x13B8 JUMP JUMPDEST PUSH1 0x40 MLOAD DUP1 SWAP2 SUB SWAP1 REVERT JUMPDEST DUP1 PUSH1 0x1 ADD SLOAD DUP2 PUSH1 0x2 ADD SLOAD LT PUSH2 0x2A8 JUMPI PUSH1 0x40 MLOAD PUSH32 0x8C379A000000000000000000000000000000000000000000000000000000000 DUP2 MSTORE PUSH1 0x4 ADD PUSH2 0x29F SWAP1 PUSH2 0x1420 JUMP JUMPDEST PUSH1 0x40 MLOAD DUP1 SWAP2 SUB SWAP1 REVERT JUMPDEST PUSH0 PUSH1 0x2 PUSH0 DUP5 DUP2 MSTORE PUSH1 0x20 ADD SWAP1 DUP2 MSTORE PUSH1 0x20 ADD PUSH0 KECCAK256 PUSH0 CALLER PUSH20 0xFFFFFFFFFFFFFFFFFFFFFFFFFFFFFFFFFFFFFFFF AND PUSH20 0xFFFFFFFFFFFFFFFFFFFFFFFFFFFFFFFFFFFFFFFF AND DUP2 MSTORE PUSH1 0x20 ADD SWAP1 DUP2 MSTORE PUSH1 0x20 ADD PUSH0 KECCAK256 SLOAD SWAP1 POP PUSH0 PUSH1 0x2 PUSH0 DUP6 DUP2 MSTORE PUSH1 0x20 ADD SWAP1 DUP2 MSTORE PUSH1 0x20 ADD PUSH0 KECCAK256 PUSH0 CALLER PUSH20 0xFFFFFFFFFFFFFFFFFFFFFFFFFFFFFFFFFFFFFFFF AND PUSH20 0xFFFFFFFFFFFFFFFFFFFFFFFFFFFFFFFFFFFFFFFF AND DUP2 MSTORE PUSH1 0x20 ADD SWAP1 DUP2 MSTORE PUSH1 0x20 ADD PUSH0 KECCAK256 DUP2 SWAP1 SSTORE POP PUSH32 0x0 PUSH20 0xFFFFFFFFFFFFFFFFFFFFFFFFFFFFFFFFFFFFFFFF AND PUSH4 0xA9059CBB CALLER DUP4 PUSH1 0x40 MLOAD DUP4 PUSH4 0xFFFFFFFF AND PUSH1 0xE0 SHL DUP2 MSTORE PUSH1 0x4 ADD PUSH2 0x3A4 SWAP3 SWAP2 SWAP1 PUSH2 0x143E JUMP JUMPDEST PUSH1 0x20 PUSH1 0x40 MLOAD DUP1 DUP4 SUB DUP2 PUSH0 DUP8 GAS CALL ISZERO DUP1 ISZERO PUSH2 0x3C0 JUMPI RETURNDATASIZE PUSH0 DUP1 RETURNDATACOPY RETURNDATASIZE PUSH0 REVERT JUMPDEST POP POP POP POP PUSH1 0x40 MLOAD RETURNDATASIZE PUSH1 0x1F NOT PUSH1 0x1F DUP3 ADD AND DUP3 ADD DUP1 PUSH1 0x40 MSTORE POP DUP2 ADD SWAP1 PUSH2 0x3E4 SWAP2 SWAP1 PUSH2 0x148F JUMP JUMPDEST POP CALLER PUSH20 0xFFFFFFFFFFFFFFFFFFFFFFFFFFFFFFFFFFFFFFFF AND DUP4 PUSH32 0x21E12A7CAD0DA5928167E1084EA4D5FDF8D9AF66657A2543A9AC76A0CA081477 DUP4 PUSH1 0x40 MLOAD PUSH2 0x42C SWAP2 SWAP1 PUSH2 0x1082 JUMP JUMPDEST PUSH1 0x40 MLOAD DUP1 SWAP2 SUB SWAP1 LOG3 POP POP POP JUMP JUMPDEST PUSH0 PUSH1 0x1 PUSH0 DUP4 DUP2 MSTORE PUSH1 0x20 ADD SWAP1 DUP2 MSTORE PUSH1 0x20 ADD PUSH0 KECCAK256 SWAP1 POP DUP1 PUSH0 ADD PUSH0 SWAP1 SLOAD SWAP1 PUSH2 0x100 EXP SWAP1 DIV PUSH20 0xFFFFFFFFFFFFFFFFFFFFFFFFFFFFFFFFFFFFFFFF AND PUSH20 0xFFFFFFFFFFFFFFFFFFFFFFFFFFFFFFFFFFFFFFFF AND CALLER PUSH20 0xFFFFFFFFFFFFFFFFFFFFFFFFFFFFFFFFFFFFFFFF AND EQ PUSH2 0x4DD JUMPI PUSH1 0x40 MLOAD PUSH32 0x8C379A000000000000000000000000000000000000000000000000000000000 DUP2 MSTORE PUSH1 0x4 ADD PUSH2 0x4D4 SWAP1 PUSH2 0x1504 JUMP JUMPDEST PUSH1 0x40 MLOAD DUP1 SWAP2 SUB SWAP1 REVERT JUMPDEST DUP1 PUSH1 0x3 ADD PUSH1 0x4 SWAP1 SLOAD SWAP1 PUSH2 0x100 EXP SWAP1 DIV PUSH4 0xFFFFFFFF AND PUSH4 0xFFFFFFFF AND TIMESTAMP GT PUSH2 0x539 JUMPI PUSH1 0x40 MLOAD PUSH32 0x8C379A000000000000000000000000000000000000000000000000000000000 DUP2 MSTORE PUSH1 0x4 ADD PUSH2 0x530 SWAP1 PUSH2 0x13B8 JUMP JUMPDEST PUSH1 0x40 MLOAD DUP1 SWAP2 SUB SWAP1 REVERT JUMPDEST DUP1 PUSH1 0x1 ADD SLOAD DUP2 PUSH1 0x2 ADD SLOAD LT ISZERO PUSH2 0x584 JUMPI PUSH1 0x40 MLOAD PUSH32 0x8C379A000000000000000000000000000000000000000000000000000000000 DUP2 MSTORE PUSH1 0x4 ADD PUSH2 0x57B SWAP1 PUSH2 0x156C JUMP JUMPDEST PUSH1 0x40 MLOAD DUP1 SWAP2 SUB SWAP1 REVERT JUMPDEST DUP1 PUSH1 0x3 ADD PUSH1 0x8 SWAP1 SLOAD SWAP1 PUSH2 0x100 EXP SWAP1 DIV PUSH1 0xFF AND PUSH2 0x5D5 JUMPI PUSH1 0x40 MLOAD PUSH32 0x8C379A000000000000000000000000000000000000000000000000000000000 DUP2 MSTORE PUSH1 0x4 ADD PUSH2 0x5CC SWAP1 PUSH2 0x15D4 JUMP JUMPDEST PUSH1 0x40 MLOAD DUP1 SWAP2 SUB SWAP1 REVERT JUMPDEST PUSH1 0x1 DUP2 PUSH1 0x3 ADD PUSH1 0x8 PUSH2 0x100 EXP DUP2 SLOAD DUP2 PUSH1 0xFF MUL NOT AND SWAP1 DUP4 ISZERO ISZERO MUL OR SWAP1 SSTORE POP PUSH32 0x0 PUSH20 0xFFFFFFFFFFFFFFFFFFFFFFFFFFFFFFFFFFFFFFFF AND PUSH4 0xA9059CBB CALLER DUP4 PUSH1 0x2 ADD SLOAD PUSH1 0x40 MLOAD DUP4 PUSH4 0xFFFFFFFF AND PUSH1 0xE0 SHL DUP2 MSTORE PUSH1 0x4 ADD PUSH2 0x651 SWAP3 SWAP2 SWAP1 PUSH2 0x143E JUMP JUMPDEST PUSH1 0x20 PUSH1 0x40 MLOAD DUP1 DUP4 SUB DUP2 PUSH0 DUP8 GAS CALL ISZERO DUP1 ISZERO PUSH2 0x66D JUMPI RETURNDATASIZE PUSH0 DUP1 RETURNDATACOPY RETURNDATASIZE PUSH0 REVERT JUMPDEST POP POP POP POP PUSH1 0x40 MLOAD RETURNDATASIZE PUSH1 0x1F NOT PUSH1 0x1F DUP3 ADD AND DUP3 ADD DUP1 PUSH1 0x40 MSTORE POP DUP2 ADD SWAP1 PUSH2 0x691 SWAP2 SWAP1 PUSH2 0x148F JUMP JUMPDEST POP PUSH32 0x7BB2B3C10797BACCB6F8C4791F1EDD6CA2F0D028EE0EDA64B01A9A57E3A653F7 DUP3 PUSH1 0x40 MLOAD PUSH2 0x6C1 SWAP2 SWAP1 PUSH2 0x1082 JUMP JUMPDEST PUSH1 0x40 MLOAD DUP1 SWAP2 SUB SWAP1 LOG1 POP POP JUMP JUMPDEST PUSH0 PUSH1 0x1 PUSH0 DUP4 DUP2 MSTORE PUSH1 0x20 ADD SWAP1 DUP2 MSTORE PUSH1 0x20 ADD PUSH0 KECCAK256 PUSH1 0x40 MLOAD DUP1 PUSH1 0xC0 ADD PUSH1 0x40 MSTORE SWAP1 DUP2 PUSH0 DUP3 ADD PUSH0 SWAP1 SLOAD SWAP1 PUSH2 0x100 EXP SWAP1 DIV PUSH20 0xFFFFFFFFFFFFFFFFFFFFFFFFFFFFFFFFFFFFFFFF AND PUSH20 0xFFFFFFFFFFFFFFFFFFFFFFFFFFFFFFFFFFFFFFFF AND PUSH20 0xFFFFFFFFFFFFFFFFFFFFFFFFFFFFFFFFFFFFFFFF AND DUP2 MSTORE PUSH1 0x20 ADD PUSH1 0x1 DUP3 ADD SLOAD DUP2 MSTORE PUSH1 0x20 ADD PUSH1 0x2 DUP3 ADD SLOAD DUP2 MSTORE PUSH1 0x20 ADD PUSH1 0x3 DUP3 ADD PUSH0 SWAP1 SLOAD SWAP1 PUSH2 0x100 EXP SWAP1 DIV PUSH4 0xFFFFFFFF AND PUSH4 0xFFFFFFFF AND PUSH4 0xFFFFFFFF AND DUP2 MSTORE PUSH1 0x20 ADD PUSH1 0x3 DUP3 ADD PUSH1 0x4 SWAP1 SLOAD SWAP1 PUSH2 0x100 EXP SWAP1 DIV PUSH4 0xFFFFFFFF AND PUSH4 0xFFFFFFFF AND PUSH4 0xFFFFFFFF AND DUP2 MSTORE PUSH1 0x20 ADD PUSH1 0x3 DUP3 ADD PUSH1 0x8 SWAP1 SLOAD SWAP1 PUSH2 0x100 EXP SWAP1 DIV PUSH1 0xFF AND ISZERO ISZERO ISZERO ISZERO DUP2 MSTORE POP POP SWAP1 POP DUP1 PUSH0 ADD MLOAD PUSH20 0xFFFFFFFFFFFFFFFFFFFFFFFFFFFFFFFFFFFFFFFF AND CALLER PUSH20 0xFFFFFFFFFFFFFFFFFFFFFFFFFFFFFFFFFFFFFFFF AND EQ PUSH2 0x82B JUMPI PUSH1 0x40 MLOAD PUSH32 0x8C379A000000000000000000000000000000000000000000000000000000000 DUP2 MSTORE PUSH1 0x4 ADD PUSH2 0x822 SWAP1 PUSH2 0x1504 JUMP JUMPDEST PUSH1 0x40 MLOAD DUP1 SWAP2 SUB SWAP1 REVERT JUMPDEST DUP1 PUSH1 0x60 ADD MLOAD PUSH4 0xFFFFFFFF AND TIMESTAMP LT PUSH2 0x840 JUMPI PUSH0 DUP1 REVERT JUMPDEST PUSH1 0x1 PUSH0 DUP4 DUP2 MSTORE PUSH1 0x20 ADD SWAP1 DUP2 MSTORE PUSH1 0x20 ADD PUSH0 KECCAK256 PUSH0 DUP1 DUP3 ADD PUSH0 PUSH2 0x100 EXP DUP2 SLOAD SWAP1 PUSH20 0xFFFFFFFFFFFFFFFFFFFFFFFFFFFFFFFFFFFFFFFF MUL NOT AND SWAP1 SSTORE PUSH1 0x1 DUP3 ADD PUSH0 SWAP1 SSTORE PUSH1 0x2 DUP3 ADD PUSH0 SWAP1 SSTORE PUSH1 0x3 DUP3 ADD PUSH0 PUSH2 0x100 EXP DUP2 SLOAD SWAP1 PUSH4 0xFFFFFFFF MUL NOT AND SWAP1 SSTORE PUSH1 0x3 DUP3 ADD PUSH1 0x4 PUSH2 0x100 EXP DUP2 SLOAD SWAP1 PUSH4 0xFFFFFFFF MUL NOT AND SWAP1 SSTORE PUSH1 0x3 DUP3 ADD PUSH1 0x8 PUSH2 0x100 EXP DUP2 SLOAD SWAP1 PUSH1 0xFF MUL NOT AND SWAP1 SSTORE POP POP PUSH32 0x8BF30E7FF26833413BE5F69E1D373744864D600B664204B4A2F9844A8EEDB9ED DUP3 PUSH1 0x40 MLOAD PUSH2 0x8F7 SWAP2 SWAP1 PUSH2 0x1082 JUMP JUMPDEST PUSH1 0x40 MLOAD DUP1 SWAP2 SUB SWAP1 LOG1 POP POP JUMP JUMPDEST PUSH0 PUSH1 0x1 PUSH0 DUP5 DUP2 MSTORE PUSH1 0x20 ADD SWAP1 DUP2 MSTORE PUSH1 0x20 ADD PUSH0 KECCAK256 SWAP1 POP DUP1 PUSH1 0x3 ADD PUSH1 0x4 SWAP1 SLOAD SWAP1 PUSH2 0x100 EXP SWAP1 DIV PUSH4 0xFFFFFFFF AND PUSH4 0xFFFFFFFF AND TIMESTAMP LT PUSH2 0x973 JUMPI PUSH1 0x40 MLOAD PUSH32 0x8C379A000000000000000000000000000000000000000000000000000000000 DUP2 MSTORE PUSH1 0x4 ADD PUSH2 0x96A SWAP1 PUSH2 0x163C JUMP JUMPDEST PUSH1 0x40 MLOAD DUP1 SWAP2 SUB SWAP1 REVERT JUMPDEST DUP2 DUP2 PUSH1 0x2 ADD PUSH0 DUP3 DUP3 SLOAD PUSH2 0x986 SWAP2 SWAP1 PUSH2 0x1687 JUMP JUMPDEST SWAP3 POP POP DUP2 SWAP1 SSTORE POP DUP2 PUSH1 0x2 PUSH0 DUP6 DUP2 MSTORE PUSH1 0x20 ADD SWAP1 DUP2 MSTORE PUSH1 0x20 ADD PUSH0 KECCAK256 PUSH0 CALLER PUSH20 0xFFFFFFFFFFFFFFFFFFFFFFFFFFFFFFFFFFFFFFFF AND PUSH20 0xFFFFFFFFFFFFFFFFFFFFFFFFFFFFFFFFFFFFFFFF AND DUP2 MSTORE PUSH1 0x20 ADD SWAP1 DUP2 MSTORE PUSH1 0x20 ADD PUSH0 KECCAK256 PUSH0 DUP3 DUP3 SLOAD PUSH2 0x9E8 SWAP2 SWAP1 PUSH2 0x1687 JUMP JUMPDEST SWAP3 POP POP DUP2 SWAP1 SSTORE POP PUSH32 0x0 PUSH20 0xFFFFFFFFFFFFFFFFFFFFFFFFFFFFFFFFFFFFFFFF AND PUSH4 0xA9059CBB CALLER DUP5 PUSH1 0x40 MLOAD DUP4 PUSH4 0xFFFFFFFF AND PUSH1 0xE0 SHL DUP2 MSTORE PUSH1 0x4 ADD PUSH2 0xA4A SWAP3 SWAP2 SWAP1 PUSH2 0x143E JUMP JUMPDEST PUSH1 0x20 PUSH1 0x40 MLOAD DUP1 DUP4 SUB DUP2 PUSH0 DUP8 GAS CALL ISZERO DUP1 ISZERO PUSH2 0xA66 JUMPI RETURNDATASIZE PUSH0 DUP1 RETURNDATACOPY RETURNDATASIZE PUSH0 REVERT JUMPDEST POP POP POP POP PUSH1 0x40 MLOAD RETURNDATASIZE PUSH1 0x1F NOT PUSH1 0x1F DUP3 ADD AND DUP3 ADD DUP1 PUSH1 0x40 MSTORE POP DUP2 ADD SWAP1 PUSH2 0xA8A SWAP2 SWAP1 PUSH2 0x148F JUMP JUMPDEST POP CALLER PUSH20 0xFFFFFFFFFFFFFFFFFFFFFFFFFFFFFFFFFFFFFFFF AND DUP4 PUSH32 0xDC63160518C9C709FE39309A0E6F3D567887986A4625CD35090A6689E56E34C0 DUP5 PUSH1 0x40 MLOAD PUSH2 0xAD2 SWAP2 SWAP1 PUSH2 0x1082 JUMP JUMPDEST PUSH1 0x40 MLOAD DUP1 SWAP2 SUB SWAP1 LOG3 POP POP POP JUMP JUMPDEST PUSH1 0x2 PUSH1 0x20 MSTORE DUP2 PUSH0 MSTORE PUSH1 0x40 PUSH0 KECCAK256 PUSH1 0x20 MSTORE DUP1 PUSH0 MSTORE PUSH1 0x40 PUSH0 KECCAK256 PUSH0 SWAP2 POP SWAP2 POP POP SLOAD DUP2 JUMP JUMPDEST PUSH1 0x1 PUSH1 0x20 MSTORE DUP1 PUSH0 MSTORE PUSH1 0x40 PUSH0 KECCAK256 PUSH0 SWAP2 POP SWAP1 POP DUP1 PUSH0 ADD PUSH0 SWAP1 SLOAD SWAP1 PUSH2 0x100 EXP SWAP1 DIV PUSH20 0xFFFFFFFFFFFFFFFFFFFFFFFFFFFFFFFFFFFFFFFF AND SWAP1 DUP1 PUSH1 0x1 ADD SLOAD SWAP1 DUP1 PUSH1 0x2 ADD SLOAD SWAP1 DUP1 PUSH1 0x3 ADD PUSH0 SWAP1 SLOAD SWAP1 PUSH2 0x100 EXP SWAP1 DIV PUSH4 0xFFFFFFFF AND SWAP1 DUP1 PUSH1 0x3 ADD PUSH1 0x4 SWAP1 SLOAD SWAP1 PUSH2 0x100 EXP SWAP1 DIV PUSH4 0xFFFFFFFF AND SWAP1 DUP1 PUSH1 0x3 ADD PUSH1 0x8 SWAP1 SLOAD SWAP1 PUSH2 0x100 EXP SWAP1 DIV PUSH1 0xFF AND SWAP1 POP DUP7 JUMP JUMPDEST TIMESTAMP DUP3 PUSH4 0xFFFFFFFF AND LT ISZERO PUSH2 0xBCB JUMPI PUSH1 0x40 MLOAD PUSH32 0x8C379A000000000000000000000000000000000000000000000000000000000 DUP2 MSTORE PUSH1 0x4 ADD PUSH2 0xBC2 SWAP1 PUSH2 0x1704 JUMP JUMPDEST PUSH1 0x40 MLOAD DUP1 SWAP2 SUB SWAP1 REVERT JUMPDEST DUP1 PUSH4 0xFFFFFFFF AND DUP3 PUSH4 0xFFFFFFFF AND LT PUSH2 0xC19 JUMPI PUSH1 0x40 MLOAD PUSH32 0x8C379A000000000000000000000000000000000000000000000000000000000 DUP2 MSTORE PUSH1 0x4 ADD PUSH2 0xC10 SWAP1 PUSH2 0x176C JUMP JUMPDEST PUSH1 0x40 MLOAD DUP1 SWAP2 SUB SWAP1 REVERT JUMPDEST PUSH3 0x76A700 TIMESTAMP PUSH2 0xC28 SWAP2 SWAP1 PUSH2 0x178A JUMP JUMPDEST DUP2 PUSH4 0xFFFFFFFF AND GT ISZERO PUSH2 0xC70 JUMPI PUSH1 0x40 MLOAD PUSH32 0x8C379A000000000000000000000000000000000000000000000000000000000 DUP2 MSTORE PUSH1 0x4 ADD PUSH2 0xC67 SWAP1 PUSH2 0x1807 JUMP JUMPDEST PUSH1 0x40 MLOAD DUP1 SWAP2 SUB SWAP1 REVERT JUMPDEST PUSH1 0x1 PUSH0 DUP1 DUP3 DUP3 SLOAD PUSH2 0xC81 SWAP2 SWAP1 PUSH2 0x178A JUMP JUMPDEST SWAP3 POP POP DUP2 SWAP1 SSTORE POP PUSH1 0x40 MLOAD DUP1 PUSH1 0xC0 ADD PUSH1 0x40 MSTORE DUP1 CALLER PUSH20 0xFFFFFFFFFFFFFFFFFFFFFFFFFFFFFFFFFFFFFFFF AND DUP2 MSTORE PUSH1 0x20 ADD DUP5 DUP2 MSTORE PUSH1 0x20 ADD PUSH0 DUP2 MSTORE PUSH1 0x20 ADD DUP4 PUSH4 0xFFFFFFFF AND DUP2 MSTORE PUSH1 0x20 ADD DUP3 PUSH4 0xFFFFFFFF AND DUP2 MSTORE PUSH1 0x20 ADD PUSH0 ISZERO ISZERO DUP2 MSTORE POP PUSH1 0x1 PUSH0 DUP1 SLOAD DUP2 MSTORE PUSH1 0x20 ADD SWAP1 DUP2 MSTORE PUSH1 0x20 ADD PUSH0 KECCAK256 PUSH0 DUP3 ADD MLOAD DUP2 PUSH0 ADD PUSH0 PUSH2 0x100 EXP DUP2 SLOAD DUP2 PUSH20 0xFFFFFFFFFFFFFFFFFFFFFFFFFFFFFFFFFFFFFFFF MUL NOT AND SWAP1 DUP4 PUSH20 0xFFFFFFFFFFFFFFFFFFFFFFFFFFFFFFFFFFFFFFFF AND MUL OR SWAP1 SSTORE POP PUSH1 0x20 DUP3 ADD MLOAD DUP2 PUSH1 0x1 ADD SSTORE PUSH1 0x40 DUP3 ADD MLOAD DUP2 PUSH1 0x2 ADD SSTORE PUSH1 0x60 DUP3 ADD MLOAD DUP2 PUSH1 0x3 ADD PUSH0 PUSH2 0x100 EXP DUP2 SLOAD DUP2 PUSH4 0xFFFFFFFF MUL NOT AND SWAP1 DUP4 PUSH4 0xFFFFFFFF AND MUL OR SWAP1 SSTORE POP PUSH1 0x80 DUP3 ADD MLOAD DUP2 PUSH1 0x3 ADD PUSH1 0x4 PUSH2 0x100 EXP DUP2 SLOAD DUP2 PUSH4 0xFFFFFFFF MUL NOT AND SWAP1 DUP4 PUSH4 0xFFFFFFFF AND MUL OR SWAP1 SSTORE POP PUSH1 0xA0 DUP3 ADD MLOAD DUP2 PUSH1 0x3 ADD PUSH1 0x8 PUSH2 0x100 EXP DUP2 SLOAD DUP2 PUSH1 0xFF MUL NOT AND SWAP1 DUP4 ISZERO ISZERO MUL OR SWAP1 SSTORE POP SWAP1 POP POP CALLER PUSH20 0xFFFFFFFFFFFFFFFFFFFFFFFFFFFFFFFFFFFFFFFF AND PUSH32 0x9A60606419DEB00ED69193A1E06B09D64A19B2B86207BAA9BAC7E194517AAE93 PUSH0 SLOAD DUP6 DUP6 DUP6 PUSH1 0x40 MLOAD PUSH2 0xE00 SWAP5 SWAP4 SWAP3 SWAP2 SWAP1 PUSH2 0x1825 JUMP JUMPDEST PUSH1 0x40 MLOAD DUP1 SWAP2 SUB SWAP1 LOG2 POP POP POP JUMP JUMPDEST PUSH32 0x0 DUP2 JUMP JUMPDEST PUSH0 PUSH1 0x1 PUSH0 DUP5 DUP2 MSTORE PUSH1 0x20 ADD SWAP1 DUP2 MSTORE PUSH1 0x20 ADD PUSH0 KECCAK256 SWAP1 POP DUP1 PUSH1 0x3 ADD PUSH0 SWAP1 SLOAD SWAP1 PUSH2 0x100 EXP SWAP1 DIV PUSH4 0xFFFFFFFF AND PUSH4 0xFFFFFFFF AND TIMESTAMP GT PUSH2 0xEA0 JUMPI PUSH1 0x40 MLOAD PUSH32 0x8C379A000000000000000000000000000000000000000000000000000000000 DUP2 MSTORE PUSH1 0x4 ADD PUSH2 0xE97 SWAP1 PUSH2 0x18B2 JUMP JUMPDEST PUSH1 0x40 MLOAD DUP1 SWAP2 SUB SWAP1 REVERT JUMPDEST DUP1 PUSH1 0x3 ADD PUSH1 0x4 SWAP1 SLOAD SWAP1 PUSH2 0x100 EXP SWAP1 DIV PUSH4 0xFFFFFFFF AND PUSH4 0xFFFFFFFF AND TIMESTAMP LT PUSH2 0xEFC JUMPI PUSH1 0x40 MLOAD PUSH32 0x8C379A000000000000000000000000000000000000000000000000000000000 DUP2 MSTORE PUSH1 0x4 ADD PUSH2 0xEF3 SWAP1 PUSH2 0x163C JUMP JUMPDEST PUSH1 0x40 MLOAD DUP1 SWAP2 SUB SWAP1 REVERT JUMPDEST DUP2 DUP2 PUSH1 0x2 ADD PUSH0 DUP3 DUP3 SLOAD PUSH2 0xF0F SWAP2 SWAP1 PUSH2 0x178A JUMP JUMPDEST SWAP3 POP POP DUP2 SWAP1 SSTORE POP DUP2 PUSH1 0x2 PUSH0 DUP6 DUP2 MSTORE PUSH1 0x20 ADD SWAP1 DUP2 MSTORE PUSH1 0x20 ADD PUSH0 KECCAK256 PUSH0 CALLER PUSH20 0xFFFFFFFFFFFFFFFFFFFFFFFFFFFFFFFFFFFFFFFF AND PUSH20 0xFFFFFFFFFFFFFFFFFFFFFFFFFFFFFFFFFFFFFFFF AND DUP2 MSTORE PUSH1 0x20 ADD SWAP1 DUP2 MSTORE PUSH1 0x20 ADD PUSH0 KECCAK256 PUSH0 DUP3 DUP3 SLOAD PUSH2 0xF71 SWAP2 SWAP1 PUSH2 0x178A JUMP JUMPDEST SWAP3 POP POP DUP2 SWAP1 SSTORE POP PUSH32 0x0 PUSH20 0xFFFFFFFFFFFFFFFFFFFFFFFFFFFFFFFFFFFFFFFF AND PUSH4 0x23B872DD CALLER ADDRESS DUP6 PUSH1 0x40 MLOAD DUP5 PUSH4 0xFFFFFFFF AND PUSH1 0xE0 SHL DUP2 MSTORE PUSH1 0x4 ADD PUSH2 0xFD5 SWAP4 SWAP3 SWAP2 SWAP1 PUSH2 0x18D0 JUMP JUMPDEST PUSH1 0x20 PUSH1 0x40 MLOAD DUP1 DUP4 SUB DUP2 PUSH0 DUP8 GAS CALL ISZERO DUP1 ISZERO PUSH2 0xFF1 JUMPI RETURNDATASIZE PUSH0 DUP1 RETURNDATACOPY RETURNDATASIZE PUSH0 REVERT JUMPDEST POP POP POP POP PUSH1 0x40 MLOAD RETURNDATASIZE PUSH1 0x1F NOT PUSH1 0x1F DUP3 ADD AND DUP3 ADD DUP1 PUSH1 0x40 MSTORE POP DUP2 ADD SWAP1 PUSH2 0x1015 SWAP2 SWAP1 PUSH2 0x148F JUMP JUMPDEST POP CALLER PUSH20 0xFFFFFFFFFFFFFFFFFFFFFFFFFFFFFFFFFFFFFFFF AND DUP4 PUSH32 0x2757AC6A40883F4491CC56930AE964DF9034E343E660D5179EB01E198336756B DUP5 PUSH1 0x40 MLOAD PUSH2 0x105D SWAP2 SWAP1 PUSH2 0x1082 JUMP JUMPDEST PUSH1 0x40 MLOAD DUP1 SWAP2 SUB SWAP1 LOG3 POP POP POP JUMP JUMPDEST PUSH0 DUP2 SWAP1 POP SWAP2 SWAP1 POP JUMP JUMPDEST PUSH2 0x107C DUP2 PUSH2 0x106A JUMP JUMPDEST DUP3 MSTORE POP POP JUMP JUMPDEST PUSH0 PUSH1 0x20 DUP3 ADD SWAP1 POP PUSH2 0x1095 PUSH0 DUP4 ADD DUP5 PUSH2 0x1073 JUMP JUMPDEST SWAP3 SWAP2 POP POP JUMP JUMPDEST PUSH0 DUP1 REVERT JUMPDEST PUSH2 0x10A8 DUP2 PUSH2 0x106A JUMP JUMPDEST DUP2 EQ PUSH2 0x10B2 JUMPI PUSH0 DUP1 REVERT JUMPDEST POP JUMP JUMPDEST PUSH0 DUP2 CALLDATALOAD SWAP1 POP PUSH2 0x10C3 DUP2 PUSH2 0x109F JUMP JUMPDEST SWAP3 SWAP2 POP POP JUMP JUMPDEST PUSH0 PUSH1 0x20 DUP3 DUP5 SUB SLT ISZERO PUSH2 0x10DE JUMPI PUSH2 0x10DD PUSH2 0x109B JUMP JUMPDEST JUMPDEST PUSH0 PUSH2 0x10EB DUP5 DUP3 DUP6 ADD PUSH2 0x10B5 JUMP JUMPDEST SWAP2 POP POP SWAP3 SWAP2 POP POP JUMP JUMPDEST PUSH0 DUP1 PUSH1 0x40 DUP4 DUP6 SUB SLT ISZERO PUSH2 0x110A JUMPI PUSH2 0x1109 PUSH2 0x109B JUMP JUMPDEST JUMPDEST PUSH0 PUSH2 0x1117 DUP6 DUP3 DUP7 ADD PUSH2 0x10B5 JUMP JUMPDEST SWAP3 POP POP PUSH1 0x20 PUSH2 0x1128 DUP6 DUP3 DUP7 ADD PUSH2 0x10B5 JUMP JUMPDEST SWAP2 POP POP SWAP3 POP SWAP3 SWAP1 POP JUMP JUMPDEST PUSH0 PUSH20 0xFFFFFFFFFFFFFFFFFFFFFFFFFFFFFFFFFFFFFFFF DUP3 AND SWAP1 POP SWAP2 SWAP1 POP JUMP JUMPDEST PUSH0 PUSH2 0x115B DUP3 PUSH2 0x1132 JUMP JUMPDEST SWAP1 POP SWAP2 SWAP1 POP JUMP JUMPDEST PUSH2 0x116B DUP2 PUSH2 0x1151 JUMP JUMPDEST DUP2 EQ PUSH2 0x1175 JUMPI PUSH0 DUP1 REVERT JUMPDEST POP JUMP JUMPDEST PUSH0 DUP2 CALLDATALOAD SWAP1 POP PUSH2 0x1186 DUP2 PUSH2 0x1162 JUMP JUMPDEST SWAP3 SWAP2 POP POP JUMP JUMPDEST PUSH0 DUP1 PUSH1 0x40 DUP4 DUP6 SUB SLT ISZERO PUSH2 0x11A2 JUMPI PUSH2 0x11A1 PUSH2 0x109B JUMP JUMPDEST JUMPDEST PUSH0 PUSH2 0x11AF DUP6 DUP3 DUP7 ADD PUSH2 0x10B5 JUMP JUMPDEST SWAP3 POP POP PUSH1 0x20 PUSH2 0x11C0 DUP6 DUP3 DUP7 ADD PUSH2 0x1178 JUMP JUMPDEST SWAP2 POP POP SWAP3 POP SWAP3 SWAP1 POP JUMP JUMPDEST PUSH2 0x11D3 DUP2 PUSH2 0x1151 JUMP JUMPDEST DUP3 MSTORE POP POP JUMP JUMPDEST PUSH0 PUSH4 0xFFFFFFFF DUP3 AND SWAP1 POP SWAP2 SWAP1 POP JUMP JUMPDEST PUSH2 0x11F1 DUP2 PUSH2 0x11D9 JUMP JUMPDEST DUP3 MSTORE POP POP JUMP JUMPDEST PUSH0 DUP2 ISZERO ISZERO SWAP1 POP SWAP2 SWAP1 POP JUMP JUMPDEST PUSH2 0x120B DUP2 PUSH2 0x11F7 JUMP JUMPDEST DUP3 MSTORE POP POP JUMP JUMPDEST PUSH0 PUSH1 0xC0 DUP3 ADD SWAP1 POP PUSH2 0x1224 PUSH0 DUP4 ADD DUP10 PUSH2 0x11CA JUMP JUMPDEST PUSH2 0x1231 PUSH1 0x20 DUP4 ADD DUP9 PUSH2 0x1073 JUMP JUMPDEST PUSH2 0x123E PUSH1 0x40 DUP4 ADD DUP8 PUSH2 0x1073 JUMP JUMPDEST PUSH2 0x124B PUSH1 0x60 DUP4 ADD DUP7 PUSH2 0x11E8 JUMP JUMPDEST PUSH2 0x1258 PUSH1 0x80 DUP4 ADD DUP6 PUSH2 0x11E8 JUMP JUMPDEST PUSH2 0x1265 PUSH1 0xA0 DUP4 ADD DUP5 PUSH2 0x1202 JUMP JUMPDEST SWAP8 SWAP7 POP POP POP POP POP POP POP JUMP JUMPDEST PUSH2 0x1279 DUP2 PUSH2 0x11D9 JUMP JUMPDEST DUP2 EQ PUSH2 0x1283 JUMPI PUSH0 DUP1 REVERT JUMPDEST POP JUMP JUMPDEST PUSH0 DUP2 CALLDATALOAD SWAP1 POP PUSH2 0x1294 DUP2 PUSH2 0x1270 JUMP JUMPDEST SWAP3 SWAP2 POP POP JUMP JUMPDEST PUSH0 DUP1 PUSH0 PUSH1 0x60 DUP5 DUP7 SUB SLT ISZERO PUSH2 0x12B1 JUMPI PUSH2 0x12B0 PUSH2 0x109B JUMP JUMPDEST JUMPDEST PUSH0 PUSH2 0x12BE DUP7 DUP3 DUP8 ADD PUSH2 0x10B5 JUMP JUMPDEST SWAP4 POP POP PUSH1 0x20 PUSH2 0x12CF DUP7 DUP3 DUP8 ADD PUSH2 0x1286 JUMP JUMPDEST SWAP3 POP POP PUSH1 0x40 PUSH2 0x12E0 DUP7 DUP3 DUP8 ADD PUSH2 0x1286 JUMP JUMPDEST SWAP2 POP POP SWAP3 POP SWAP3 POP SWAP3 JUMP JUMPDEST PUSH0 DUP2 SWAP1 POP SWAP2 SWAP1 POP JUMP JUMPDEST PUSH0 PUSH2 0x130D PUSH2 0x1308 PUSH2 0x1303 DUP5 PUSH2 0x1132 JUMP JUMPDEST PUSH2 0x12EA JUMP JUMPDEST PUSH2 0x1132 JUMP JUMPDEST SWAP1 POP SWAP2 SWAP1 POP JUMP JUMPDEST PUSH0 PUSH2 0x131E DUP3 PUSH2 0x12F3 JUMP JUMPDEST SWAP1 POP SWAP2 SWAP1 POP JUMP JUMPDEST PUSH0 PUSH2 0x132F DUP3 PUSH2 0x1314 JUMP JUMPDEST SWAP1 POP SWAP2 SWAP1 POP JUMP JUMPDEST PUSH2 0x133F DUP2 PUSH2 0x1325 JUMP JUMPDEST DUP3 MSTORE POP POP JUMP JUMPDEST PUSH0 PUSH1 0x20 DUP3 ADD SWAP1 POP PUSH2 0x1358 PUSH0 DUP4 ADD DUP5 PUSH2 0x1336 JUMP JUMPDEST SWAP3 SWAP2 POP POP JUMP JUMPDEST PUSH0 DUP3 DUP3 MSTORE PUSH1 0x20 DUP3 ADD SWAP1 POP SWAP3 SWAP2 POP POP JUMP JUMPDEST PUSH32 0x6E6F7420656E6465640000000000000000000000000000000000000000000000 PUSH0 DUP3 ADD MSTORE POP JUMP JUMPDEST PUSH0 PUSH2 0x13A2 PUSH1 0x9 DUP4 PUSH2 0x135E JUMP JUMPDEST SWAP2 POP PUSH2 0x13AD DUP3 PUSH2 0x136E JUMP JUMPDEST PUSH1 0x20 DUP3 ADD SWAP1 POP SWAP2 SWAP1 POP JUMP JUMPDEST PUSH0 PUSH1 0x20 DUP3 ADD SWAP1 POP DUP2 DUP2 SUB PUSH0 DUP4 ADD MSTORE PUSH2 0x13CF DUP2 PUSH2 0x1396 JUMP JUMPDEST SWAP1 POP SWAP2 SWAP1 POP JUMP JUMPDEST PUSH32 0x706C6564676564203E3D20676F616C0000000000000000000000000000000000 PUSH0 DUP3 ADD MSTORE POP JUMP JUMPDEST PUSH0 PUSH2 0x140A PUSH1 0xF DUP4 PUSH2 0x135E JUMP JUMPDEST SWAP2 POP PUSH2 0x1415 DUP3 PUSH2 0x13D6 JUMP JUMPDEST PUSH1 0x20 DUP3 ADD SWAP1 POP SWAP2 SWAP1 POP JUMP JUMPDEST PUSH0 PUSH1 0x20 DUP3 ADD SWAP1 POP DUP2 DUP2 SUB PUSH0 DUP4 ADD MSTORE PUSH2 0x1437 DUP2 PUSH2 0x13FE JUMP JUMPDEST SWAP1 POP SWAP2 SWAP1 POP JUMP JUMPDEST PUSH0 PUSH1 0x40 DUP3 ADD SWAP1 POP PUSH2 0x1451 PUSH0 DUP4 ADD DUP6 PUSH2 0x11CA JUMP JUMPDEST PUSH2 0x145E PUSH1 0x20 DUP4 ADD DUP5 PUSH2 0x1073 JUMP JUMPDEST SWAP4 SWAP3 POP POP POP JUMP JUMPDEST PUSH2 0x146E DUP2 PUSH2 0x11F7 JUMP JUMPDEST DUP2 EQ PUSH2 0x1478 JUMPI PUSH0 DUP1 REVERT JUMPDEST POP JUMP JUMPDEST PUSH0 DUP2 MLOAD SWAP1 POP PUSH2 0x1489 DUP2 PUSH2 0x1465 JUMP JUMPDEST SWAP3 SWAP2 POP POP JUMP JUMPDEST PUSH0 PUSH1 0x20 DUP3 DUP5 SUB SLT ISZERO PUSH2 0x14A4 JUMPI PUSH2 0x14A3 PUSH2 0x109B JUMP JUMPDEST JUMPDEST PUSH0 PUSH2 0x14B1 DUP5 DUP3 DUP6 ADD PUSH2 0x147B JUMP JUMPDEST SWAP2 POP POP SWAP3 SWAP2 POP POP JUMP JUMPDEST PUSH32 0x6E6F742063726561746F72000000000000000000000000000000000000000000 PUSH0 DUP3 ADD MSTORE POP JUMP JUMPDEST PUSH0 PUSH2 0x14EE PUSH1 0xB DUP4 PUSH2 0x135E JUMP JUMPDEST SWAP2 POP PUSH2 0x14F9 DUP3 PUSH2 0x14BA JUMP JUMPDEST PUSH1 0x20 DUP3 ADD SWAP1 POP SWAP2 SWAP1 POP JUMP JUMPDEST PUSH0 PUSH1 0x20 DUP3 ADD SWAP1 POP DUP2 DUP2 SUB PUSH0 DUP4 ADD MSTORE PUSH2 0x151B DUP2 PUSH2 0x14E2 JUMP JUMPDEST SWAP1 POP SWAP2 SWAP1 POP JUMP JUMPDEST PUSH32 0x706C6564676564203C20676F616C000000000000000000000000000000000000 PUSH0 DUP3 ADD MSTORE POP JUMP JUMPDEST PUSH0 PUSH2 0x1556 PUSH1 0xE DUP4 PUSH2 0x135E JUMP JUMPDEST SWAP2 POP PUSH2 0x1561 DUP3 PUSH2 0x1522 JUMP JUMPDEST PUSH1 0x20 DUP3 ADD SWAP1 POP SWAP2 SWAP1 POP JUMP JUMPDEST PUSH0 PUSH1 0x20 DUP3 ADD SWAP1 POP DUP2 DUP2 SUB PUSH0 DUP4 ADD MSTORE PUSH2 0x1583 DUP2 PUSH2 0x154A JUMP JUMPDEST SWAP1 POP SWAP2 SWAP1 POP JUMP JUMPDEST PUSH32 0x636C61696D656400000000000000000000000000000000000000000000000000 PUSH0 DUP3 ADD MSTORE POP JUMP JUMPDEST PUSH0 PUSH2 0x15BE PUSH1 0x7 DUP4 PUSH2 0x135E JUMP JUMPDEST SWAP2 POP PUSH2 0x15C9 DUP3 PUSH2 0x158A JUMP JUMPDEST PUSH1 0x20 DUP3 ADD SWAP1 POP SWAP2 SWAP1 POP JUMP JUMPDEST PUSH0 PUSH1 0x20 DUP3 ADD SWAP1 POP DUP2 DUP2 SUB PUSH0 DUP4 ADD MSTORE PUSH2 0x15EB DUP2 PUSH2 0x15B2 JUMP JUMPDEST SWAP1 POP SWAP2 SWAP1 POP JUMP JUMPDEST PUSH32 0x656E646564000000000000000000000000000000000000000000000000000000 PUSH0 DUP3 ADD MSTORE POP JUMP JUMPDEST PUSH0 PUSH2 0x1626 PUSH1 0x5 DUP4 PUSH2 0x135E JUMP JUMPDEST SWAP2 POP PUSH2 0x1631 DUP3 PUSH2 0x15F2 JUMP JUMPDEST PUSH1 0x20 DUP3 ADD SWAP1 POP SWAP2 SWAP1 POP JUMP JUMPDEST PUSH0 PUSH1 0x20 DUP3 ADD SWAP1 POP DUP2 DUP2 SUB PUSH0 DUP4 ADD MSTORE PUSH2 0x1653 DUP2 PUSH2 0x161A JUMP JUMPDEST SWAP1 POP SWAP2 SWAP1 POP JUMP JUMPDEST PUSH32 0x4E487B7100000000000000000000000000000000000000000000000000000000 PUSH0 MSTORE PUSH1 0x11 PUSH1 0x4 MSTORE PUSH1 0x24 PUSH0 REVERT JUMPDEST PUSH0 PUSH2 0x1691 DUP3 PUSH2 0x106A JUMP JUMPDEST SWAP2 POP PUSH2 0x169C DUP4 PUSH2 0x106A JUMP JUMPDEST SWAP3 POP DUP3 DUP3 SUB SWAP1 POP DUP2 DUP2 GT ISZERO PUSH2 0x16B4 JUMPI PUSH2 0x16B3 PUSH2 0x165A JUMP JUMPDEST JUMPDEST SWAP3 SWAP2 POP POP JUMP JUMPDEST PUSH32 0x73746172744174203C206E6F7700000000000000000000000000000000000000 PUSH0 DUP3 ADD MSTORE POP JUMP JUMPDEST PUSH0 PUSH2 0x16EE PUSH1 0xD DUP4 PUSH2 0x135E JUMP JUMPDEST SWAP2 POP PUSH2 0x16F9 DUP3 PUSH2 0x16BA JUMP JUMPDEST PUSH1 0x20 DUP3 ADD SWAP1 POP SWAP2 SWAP1 POP JUMP JUMPDEST PUSH0 PUSH1 0x20 DUP3 ADD SWAP1 POP DUP2 DUP2 SUB PUSH0 DUP4 ADD MSTORE PUSH2 0x171B DUP2 PUSH2 0x16E2 JUMP JUMPDEST SWAP1 POP SWAP2 SWAP1 POP JUMP JUMPDEST PUSH32 0x656E644174203E20656E64417400000000000000000000000000000000000000 PUSH0 DUP3 ADD MSTORE POP JUMP JUMPDEST PUSH0 PUSH2 0x1756 PUSH1 0xD DUP4 PUSH2 0x135E JUMP JUMPDEST SWAP2 POP PUSH2 0x1761 DUP3 PUSH2 0x1722 JUMP JUMPDEST PUSH1 0x20 DUP3 ADD SWAP1 POP SWAP2 SWAP1 POP JUMP JUMPDEST PUSH0 PUSH1 0x20 DUP3 ADD SWAP1 POP DUP2 DUP2 SUB PUSH0 DUP4 ADD MSTORE PUSH2 0x1783 DUP2 PUSH2 0x174A JUMP JUMPDEST SWAP1 POP SWAP2 SWAP1 POP JUMP JUMPDEST PUSH0 PUSH2 0x1794 DUP3 PUSH2 0x106A JUMP JUMPDEST SWAP2 POP PUSH2 0x179F DUP4 PUSH2 0x106A JUMP JUMPDEST SWAP3 POP DUP3 DUP3 ADD SWAP1 POP DUP1 DUP3 GT ISZERO PUSH2 0x17B7 JUMPI PUSH2 0x17B6 PUSH2 0x165A JUMP JUMPDEST JUMPDEST SWAP3 SWAP2 POP POP JUMP JUMPDEST PUSH32 0x656E644174203E206D61782064756174696F6E00000000000000000000000000 PUSH0 DUP3 ADD MSTORE POP JUMP JUMPDEST PUSH0 PUSH2 0x17F1 PUSH1 0x13 DUP4 PUSH2 0x135E JUMP JUMPDEST SWAP2 POP PUSH2 0x17FC DUP3 PUSH2 0x17BD JUMP JUMPDEST PUSH1 0x20 DUP3 ADD SWAP1 POP SWAP2 SWAP1 POP JUMP JUMPDEST PUSH0 PUSH1 0x20 DUP3 ADD SWAP1 POP DUP2 DUP2 SUB PUSH0 DUP4 ADD MSTORE PUSH2 0x181E DUP2 PUSH2 0x17E5 JUMP JUMPDEST SWAP1 POP SWAP2 SWAP1 POP JUMP JUMPDEST PUSH0 PUSH1 0x80 DUP3 ADD SWAP1 POP PUSH2 0x1838 PUSH0 DUP4 ADD DUP8 PUSH2 0x1073 JUMP JUMPDEST PUSH2 0x1845 PUSH1 0x20 DUP4 ADD DUP7 PUSH2 0x1073 JUMP JUMPDEST PUSH2 0x1852 PUSH1 0x40 DUP4 ADD DUP6 PUSH2 0x11E8 JUMP JUMPDEST PUSH2 0x185F PUSH1 0x60 DUP4 ADD DUP5 PUSH2 0x11E8 JUMP JUMPDEST SWAP6 SWAP5 POP POP POP POP POP JUMP JUMPDEST PUSH32 0x6E6F742073746172740000000000000000000000000000000000000000000000 PUSH0 DUP3 ADD MSTORE POP JUMP JUMPDEST PUSH0 PUSH2 0x189C PUSH1 0x9 DUP4 PUSH2 0x135E JUMP JUMPDEST SWAP2 POP PUSH2 0x18A7 DUP3 PUSH2 0x1868 JUMP JUMPDEST PUSH1 0x20 DUP3 ADD SWAP1 POP SWAP2 SWAP1 POP JUMP JUMPDEST PUSH0 PUSH1 0x20 DUP3 ADD SWAP1 POP DUP2 DUP2 SUB PUSH0 DUP4 ADD MSTORE PUSH2 0x18C9 DUP2 PUSH2 0x1890 JUMP JUMPDEST SWAP1 POP SWAP2 SWAP1 POP JUMP JUMPDEST PUSH0 PUSH1 0x60 DUP3 ADD SWAP1 POP PUSH2 0x18E3 PUSH0 DUP4 ADD DUP7 PUSH2 0x11CA JUMP JUMPDEST PUSH2 0x18F0 PUSH1 0x20 DUP4 ADD DUP6 PUSH2 0x11CA JUMP JUMPDEST PUSH2 0x18FD PUSH1 0x40 DUP4 ADD DUP5 PUSH2 0x1073 JUMP JUMPDEST SWAP5 SWAP4 POP POP POP POP JUMP INVALID LOG2 PUSH5 0x6970667358 0x22 SLT KECCAK256 NUMBER SWAP13 0xE0 BYTE 0xDB 0xC6 0xE6 SDIV SWAP15 SUB 0x25 0x5E ISZERO CALLVALUE DUP16 0xC 0xE 0x25 PUSH26 0x3039AACFCE62548CEFD2873DF664736F6C634300081400330000 "
		},
		"gasEstimates": {
			"creation": {
				"codeDepositCost": "1291800",
				"executionCost": "infinite",
				"totalCost": "infinite"
			},
			"external": {
				"cancel(uint256)": "infinite",
				"claim(uint256)": "infinite",
				"compaigns(uint256)": "infinite",
				"count()": "2425",
				"lanch(uint256,uint32,uint32)": "infinite",
				"pledge(uint256,uint256)": "infinite",
				"pledgedAmount(uint256,address)": "infinite",
				"refund(uint256)": "infinite",
				"token()": "infinite",
				"unPledge(uint256,uint256)": "infinite"
			}
		},
		"methodIdentifiers": {
			"cancel(uint256)": "40e58ee5",
			"claim(uint256)": "379607f5",
			"compaigns(uint256)": "cbc261d7",
			"count()": "06661abd",
			"lanch(uint256,uint32,uint32)": "fb516afd",
			"pledge(uint256,uint256)": "fde327be",
			"pledgedAmount(uint256,address)": "aa4fb63a",
			"refund(uint256)": "278ecde1",
			"token()": "fc0c546a",
			"unPledge(uint256,uint256)": "a3a0e936"
		}
	},
	"abi": [
		{
			"inputs": [
				{
					"internalType": "address",
					"name": "_token",
					"type": "address"
				}
			],
			"stateMutability": "nonpayable",
			"type": "constructor"
		},
		{
			"anonymous": false,
			"inputs": [
				{
					"indexed": false,
					"internalType": "uint256",
					"name": "id",
					"type": "uint256"
				}
			],
			"name": "Cancel",
			"type": "event"
		},
		{
			"anonymous": false,
			"inputs": [
				{
					"indexed": false,
					"internalType": "uint256",
					"name": "id",
					"type": "uint256"
				}
			],
			"name": "Claim",
			"type": "event"
		},
		{
			"anonymous": false,
			"inputs": [
				{
					"indexed": false,
					"internalType": "uint256",
					"name": "id",
					"type": "uint256"
				},
				{
					"indexed": true,
					"internalType": "address",
					"name": "creator",
					"type": "address"
				},
				{
					"indexed": false,
					"internalType": "uint256",
					"name": "goal",
					"type": "uint256"
				},
				{
					"indexed": false,
					"internalType": "uint32",
					"name": "startAt",
					"type": "uint32"
				},
				{
					"indexed": false,
					"internalType": "uint32",
					"name": "endAt",
					"type": "uint32"
				}
			],
			"name": "Lanch",
			"type": "event"
		},
		{
			"anonymous": false,
			"inputs": [
				{
					"indexed": true,
					"internalType": "uint256",
					"name": "id",
					"type": "uint256"
				},
				{
					"indexed": true,
					"internalType": "address",
					"name": "caller",
					"type": "address"
				},
				{
					"indexed": false,
					"internalType": "uint256",
					"name": "amount",
					"type": "uint256"
				}
			],
			"name": "Pledged",
			"type": "event"
		},
		{
			"anonymous": false,
			"inputs": [
				{
					"indexed": true,
					"internalType": "uint256",
					"name": "id",
					"type": "uint256"
				},
				{
					"indexed": true,
					"internalType": "address",
					"name": "caller",
					"type": "address"
				},
				{
					"indexed": false,
					"internalType": "uint256",
					"name": "amount",
					"type": "uint256"
				}
			],
			"name": "Refund",
			"type": "event"
		},
		{
			"anonymous": false,
			"inputs": [
				{
					"indexed": true,
					"internalType": "uint256",
					"name": "id",
					"type": "uint256"
				},
				{
					"indexed": true,
					"internalType": "address",
					"name": "caller",
					"type": "address"
				},
				{
					"indexed": false,
					"internalType": "uint256",
					"name": "amount",
					"type": "uint256"
				}
			],
			"name": "UnPledge",
			"type": "event"
		},
		{
			"inputs": [
				{
					"internalType": "uint256",
					"name": "_id",
					"type": "uint256"
				}
			],
			"name": "cancel",
			"outputs": [],
			"stateMutability": "nonpayable",
			"type": "function"
		},
		{
			"inputs": [
				{
					"internalType": "uint256",
					"name": "_id",
					"type": "uint256"
				}
			],
			"name": "claim",
			"outputs": [],
			"stateMutability": "nonpayable",
			"type": "function"
		},
		{
			"inputs": [
				{
					"internalType": "uint256",
					"name": "",
					"type": "uint256"
				}
			],
			"name": "compaigns",
			"outputs": [
				{
					"internalType": "address",
					"name": "creator",
					"type": "address"
				},
				{
					"internalType": "uint256",
					"name": "goal",
					"type": "uint256"
				},
				{
					"internalType": "uint256",
					"name": "pledged",
					"type": "uint256"
				},
				{
					"internalType": "uint32",
					"name": "startAt",
					"type": "uint32"
				},
				{
					"internalType": "uint32",
					"name": "endAt",
					"type": "uint32"
				},
				{
					"internalType": "bool",
					"name": "claimed",
					"type": "bool"
				}
			],
			"stateMutability": "view",
			"type": "function"
		},
		{
			"inputs": [],
			"name": "count",
			"outputs": [
				{
					"internalType": "uint256",
					"name": "",
					"type": "uint256"
				}
			],
			"stateMutability": "view",
			"type": "function"
		},
		{
			"inputs": [
				{
					"internalType": "uint256",
					"name": "_goal",
					"type": "uint256"
				},
				{
					"internalType": "uint32",
					"name": "_startAt",
					"type": "uint32"
				},
				{
					"internalType": "uint32",
					"name": "_endAt",
					"type": "uint32"
				}
			],
			"name": "lanch",
			"outputs": [],
			"stateMutability": "nonpayable",
			"type": "function"
		},
		{
			"inputs": [
				{
					"internalType": "uint256",
					"name": "_id",
					"type": "uint256"
				},
				{
					"internalType": "uint256",
					"name": "_amount",
					"type": "uint256"
				}
			],
			"name": "pledge",
			"outputs": [],
			"stateMutability": "nonpayable",
			"type": "function"
		},
		{
			"inputs": [
				{
					"internalType": "uint256",
					"name": "",
					"type": "uint256"
				},
				{
					"internalType": "address",
					"name": "",
					"type": "address"
				}
			],
			"name": "pledgedAmount",
			"outputs": [
				{
					"internalType": "uint256",
					"name": "",
					"type": "uint256"
				}
			],
			"stateMutability": "view",
			"type": "function"
		},
		{
			"inputs": [
				{
					"internalType": "uint256",
					"name": "_id",
					"type": "uint256"
				}
			],
			"name": "refund",
			"outputs": [],
			"stateMutability": "nonpayable",
			"type": "function"
		},
		{
			"inputs": [],
			"name": "token",
			"outputs": [
				{
					"internalType": "contract IERC20",
					"name": "",
					"type": "address"
				}
			],
			"stateMutability": "view",
			"type": "function"
		},
		{
			"inputs": [
				{
					"internalType": "uint256",
					"name": "_id",
					"type": "uint256"
				},
				{
					"internalType": "uint256",
					"name": "_amount",
					"type": "uint256"
				}
			],
			"name": "unPledge",
			"outputs": [],
			"stateMutability": "nonpayable",
			"type": "function"
		}
	]
}